:10000000008000105D0A00008D0A00008F0A0000C9
:10001000910A0000930A0000950A00000000000009
:10002000000000000000000000000000970A00002F
:10003000990A0000000000009B0A00009D0A0000D1
:100040009F0A00009F0A00009F0A00009F0A00000C
:100050009F0A00009F0A00009F0A00009F0A0000FC
:100060009F0A00009F0A00009F0A00009F0A0000EC
:100070009F0A00009F0A00009F0A00009F0A0000DC
:100080009F0A00009F0A00009F0A00009F0A0000CC
:100090009F0A00009F0A00009F0A00009F0A0000BC
:1000A0009F0A00009F0A00009F0A00009F0A0000AC
:1000B0009F0A00009F0A00009F0A00009F0A00009C
:1000C0009F0A00009F0A00009F0A000010B5054C1F
:1000D000237833B9044B13B10448AFF300800123F4
:1000E000237010BD4801001000000000543D0000C6
:1000F00008B5064B1BB106480649AFF30080064819
:10010000036813B1054B03B1984708BD0000000018
:10011000543D00004C010010480100100000000098
:1001200010B5034B0446036000F0B0F9204610BD43
:100130006839000010B5054B0446036000F0A6F9CD
:10014000204601F0BCFB204610BD00BF683900000E
:1001500010B50022ADF5007D0DF802200132B2F598
:10016000807FF9D1002140A802F02AF825482649CD
:1001700001F0EEFD044600283ED0684601214FF410
:100180008072234601F072FFB0F5807F02D01F48D5
:1001900000F090F8204601F013FC1A481C4901F0C9
:1001A000D7FD044618B340A801214FF480722346BE
:1001B00001F02AFEB0F5807F02D0164800F07AF8F0
:1001C000684640A94FF4807201F0E2FF10B1124876
:1001D00000F070F8204601F0F3FB0A4800F012FC32
:1001E0000E4802F0FFF800200DF5007D10BD0C4810
:1001F000044900F05FF8D6E70948024900F05AF8D0
:10020000BBE700BFD43800000438000028380000E5
:10021000583800005C38000090380000B838000002
:100220000838000010B5074C0749204600F046F991
:10023000064B204623600649064ABDE8104001F0FF
:1002400039BB00BF64010010CC38000068390000E1
:1002500021010000C80000100748084A08B5121A1A
:10026000002101F0ADFFAFF3008001F00FFFFFF7B9
:100270006FFF00F031F800BF480100108403001048
:10028000022801DC0120704700F084BBEFF30583F6
:1002900003B100BE01F06CBFEFF3058303B100BEF4
:1002A00001F06EBF08B5012000F016F808B5FFF7A1
:1002B000F9FF00BF0FB400B5064A83B004AB126863
:1002C00053F8041BD0681A46019302F0D9FC0120B0
:1002D00000F002F8340100100A4C08B52368054606
:1002E000986801F023FC2368D86801F01FFC00F037
:1002F0000BF820B905B9FEE701F034F8FBE700F090
:100300008DF8F7E73401001000F094B830B585B0EF
:100310000190029102F087F90124039001AD20467B
:100320002946ABBE0446204605B030BD30B583B08B
:1003300002AC44F8040D022528462146ABBE044613
:10034000204603B030BD00BF30B585B05AB1019032
:1003500002910392052401AD20462946ABBE044616
:10036000204605B030BD1446204605B030BD00BF64
:1003700030B585B0019002910392062401AD20466C
:100380002946ABBE0446204605B030BD30B583B02B
:1003900002AC44F8040D092528462146ABBE0446AC
:1003A000204603B030BD00BF30B583B08DE80300F8
:1003B0000A246D4620462946ABBE0446204603B0BB
:1003C00030BD00BF30B583B002AC44F8040D0B253E
:1003D00028462146ABBE0446204603B030BD00BFD0
:1003E00030B583B002AC44F8040D0C2528462146F4
:1003F000ABBE0446204603B030BD00BF30B583B06D
:10040000009002F010F90E2401906D462046294616
:10041000ABBE0446204603B030BD00BF30B585B04A
:1004200018246D4620462946ABBE0446204605B03A
:1004300030BD00BF024B186800F00100704700BFDC
:10044000F0ED00E04FF0FF30704700BF704700BF95
:10045000014B0360704700BFF03800004FF0FF30E1
:10046000704700BF4FF0FF30704700BF002070475B
:100470004FF0FF30704700BF10B5034B04460360D8
:1004800001F01DFA204610BDF038000010B5034BF6
:100490000446036001F050F8204610BD18390000F2
:1004A00010B5054B0446036001F046F8204601F004
:1004B00006FA204610BD00BF1839000010B5012211
:1004C000044601F06FF8024B2046236010BD00BFC8
:1004D0001839000008B510B103689B6998470020DF
:1004E00008BD00BF0023C0F828317047D0F82801AC
:1004F000704700BFC0F82811704700BF014B036070
:10050000704700BFF038000010B5034B044603608D
:1005100001F0D5F9204610BDF038000038B504468A
:100520004068FFF703FF05461CB1236820461B6A9D
:100530009847284638BD00BF38B5044600234068B8
:100540001546FFF701FFA368281A0344A36038BDCE
:1005500038B50446002340681546FFF709FFA36835
:10056000281A0344A36038BD4068FFF70FBF00BFDF
:100570004068FFF735BF00BF012A38B505460C4675
:1005800008D0022A09D068682146FFF70DFFAC6049
:10059000204638BD83681C44F5E74068FFF720FF1C
:1005A0000444F0E74068FFF70DBF00BF10B54FF4FB
:1005B0009E7001F089F9144B0446002140F8043B79
:1005C0004FF4807201F0FCFD0023C4F80431C4F83C
:1005D0000831C4F80C31C4F81031C4F81431C4F82F
:1005E0001831C4F81C31C4F82031C4F82431C4F8DF
:1005F0002831C4F82C31C4F83031C4F83431C4F88F
:100600003831204610BD00BF403900000846FFF7D2
:10061000F5BE00BF10B5034B0446036000F09AF826
:10062000204610BD9039000010B5054B044603600C
:1006300000F090F8204601F042F9204610BD00BFBE
:1006400090390000F0B5144985B000F5827401229C
:10065000382305468DE8160003934FF480766F46E5
:1006600030463946ABBE06469EB927686668A16823
:10067000E2686F60AE60E9602A6127696669A16916
:10068000E2692B1D18466F61AE61E9612A6205B00F
:10069000F0BD002005B0F0BDB8390000810703D5DA
:1006A00002070ED50A207047C30705D510F0080FC2
:1006B0000CBF042008207047003018BF01204042C2
:1006C000704710F4806F0CBF02200620704700BFF7
:1006D00038B50B780D464BB12F2B1CD00C4601E0E2
:1006E0002F2B18D014F8013F002BF9D11046FFF73B
:1006F000D5FF421C01460ED02846FFF707FE431CDB
:10070000044608D00C2001F0DFF8044A002380E8FA
:100710001400836038BD002038BD00BF9039000050
:10072000036870B51B690021012204469847431CE9
:1007300005460ED0236820461B69002102229847F7
:100740002368064629461B69204600229847304602
:1007500070BD70BD084A094B10B4026003F580718A
:10076000002453F8042B824208BF43F8044C8B4208
:10077000F7D15DF8044B7047E039000074010010B8
:100780000A4A0B4B10B503F5807104460260002045
:1007900053F8042B944208BF43F8040C8B42F7D162
:1007A000204601F08CF8204610BD00BFE039000063
:1007B0007401001002480349034A00F08FBC00BFD7
:1007C0007803001002C0092003C00920F0B50F46CD
:1007D00085B03749064601F01CFF28B9354B1B6828
:1007E000002B43D005B0F0BD3046334901F011FF76
:1007F00030B9304B1B68002B43D0012005B0F0BD51
:1008000030462E4901F005FF002835D02C4B00243E
:1008100002E00134402C3DD053F8045F002DF8D1A4
:1008200033783A2B3DD0314602A800F0EBFE02A807
:1008300000F03AFF00282DD002A800F01DFF20BBD9
:1008400002A800F00DFF054620B3036802A89E68C9
:1008500000F004FF3A4601462846B0470346CBB1B4
:10086000184AE01C42F8243005B0F0BD0190FFF7B3
:10087000A1FF019805B0F0BD0E4B1B686BB10220C3
:10088000B0E7FFF797FF0120ACE702A800F0FEFEFB
:100890000346E4E74FF0FF30A4E7FFF78BFF0220A9
:1008A000A0E73046084902AA01F044FE029BD6E7C1
:1008B000BC39000074020010CC390000C4390000BB
:1008C0007001001074010010083A0000022808B5F9
:1008D0000BDD084BC21E53F82200002143F8221002
:1008E00028B103685B68984708BD002008BD4FF039
:1008F000FF3008BD74010010022870B50C46164682
:100900000FDC0E4B1B680BB9FFF754FFA51936B16E
:1009100014F8011B0A4800F031FBAC42F8D1304614
:1009200070BD084B033853F8200018B103681B68EA
:10093000984770BD4FF0FF3070BD00BF74020010CB
:100940007803001074010010022810B50C4609DC71
:100950000D4B1B688BB10D4800F0C4FA01232070C9
:10096000184610BD0A4B033853F8200040B1036805
:100970009B6898470346184610BDFFF71BFFEAE740
:100980004FF0FF33ECE700BF740200107803001053
:1009900074010010022808B508DD074B033853F82E
:1009A000200028B10368DB68984708BD012008BD16
:1009B0004FF0FF3008BD00BF74010010022808B5D9
:1009C00008DD074B033853F8200028B103681B6982
:1009D000984708BD002008BD4FF0FF3008BD00BF9C
:1009E00074010010022808B504D84FF400534B607E
:1009F000002008BD00F08CFF092303604FF0FF309A
:100A000008BD00BF30B583B00146684600F0FAFD6E
:100A1000684600F025FE044648B103686846DD6874
:100A200000F01CFE01462046A84703B030BD4FF041
:100A3000FF30FAE7074A13681844EFF30881884249
:100A400002D2106018467047034B0C221A604FF018
:100A5000FF307047CC000010800300100649074AA1
:100A6000074B9A42BEBF51F8040B42F8040BF8E75B
:100A70000448804704480047583D0000C800001063
:100A800048010010AD12000059020000FEE7FEE729
:100A9000FEE7FEE7FEE7FEE7FEE7FEE7FEE7FEE72E
:100AA00008B5154A9368C3F34203012B1ED0022BED
:100AB00019D1124B596F01310AD0D3F88010986FB9
:100AC000086093F8A61019B9516821F0010151602E
:100AD000186F0A4B48B193F8A6302BB10021084A91
:100AE0001368984708BD08BD08BD08BD034A106FCC
:100AF0000028F9D01946F2E7008009407C02001076
:100B00007802001070B50368294CA34249D041DD3A
:100B1000284CA3422AD004F58044A34244D1264C59
:100B200008263ABB01290BD04568244AC5EBC50508
:100B300002EBC50494F8355094F83620EA4214D1FB
:100B4000012202FA01F5D1F1010138BF002102FAB8
:100B500001F15C6824EA05045C6003685B68194283
:100B600003D1B240164BC3F8802070BD154C072648
:100B7000002AD7D0012505FA01F176B2304605FAF0
:100B800006F65A680A435A60214600F071FB0C4B86
:100B90001E6070BDA4F58044A34205D10A4C052611
:100BA000BFE70A4C0626BCE700242646B9E700BF8B
:100BB0000000014000800940D10B00007C020010C1
:100BC00000E100E0A10A00003D0C0000A10C0000C3
:100BD00008B5174A9368C3F34203012B21D0022BB7
:100BE0001CD1144BD3F8AC1001310BD0D3F8B81092
:100BF000D3F8B000086093F8DE1019B9516821F0FD
:100C000001015160D3F8A8000A4B48B193F8DE30D7
:100C10002BB10021084A1368984708BD08BD08BDDC
:100C200008BD044AD2F8A8000028F8D01946F1E718
:100C300000C009407C0200107802001008B5154A77
:100C40009368C3F34203012B1DD0022B18D1124B22
:100C50005968013109D019699868086093F836100D
:100C600019B9516821F00101516018680A4B48B167
:100C700093F836302BB10021084A1368984708BD15
:100C800008BD08BD08BD044A10680028F9D01946FF
:100C9000F2E700BF00C000407C02001078020010A4
:100CA00008B5154A9368C3F34203012B1DD0022BEC
:100CB00018D1124BD96B013109D0996C186C0860AE
:100CC00093F86E1019B9516821F001015160986BC9
:100CD0000A4B48B193F86E302BB10021084A1368D3
:100CE000984708BD08BD08BD08BD044A906B0028A0
:100CF000F9D01946F2E700BF000001407C02001065
:100D0000780200102DE9F00F8AB00890714B00684E
:100D10009842099000F0CF8040F3BA806E4B099A58
:100D20009A4200F0908003F580439A420CD16B4BBD
:100D3000D3F8AC2122F44022C3F8AC21D3F8AC2183
:100D400042F48022C3F8AC21654B0A011B6805936D
:100D5000059CB3FBF2F302FB13429BB20193002A02
:100D600000F094806000A2004FF00109002307907A
:100D7000069280469346CDF80C900491A2468C468C
:100D800002930022049C10465FFA89F7B8F1000F25
:100D9000B5BFB8FBF4F3BBFBF4F31B095B090133EC
:100DA000C3F34F0302EB0906002B5AD1012300289D
:100DB0005BD103FB06F5ED00BAFBF5F50135C1EBA0
:100DC0005505002DB8BF6D42654505DA8D424ED000
:100DD000AC460290019303970132D0B287420C4493
:100DE000D4D8B9F10F0F4FF0000349D0059A079CF2
:100DF0009244049A06980A4409F10109A0448344E4
:100E00000492002BBDD0029B039C43EA0410C0B2A5
:100E1000099A019C137BC4F3072143F080031373E9
:100E2000089A1368E2B2089C197123681A70236843
:100E300083F8280023681A7B02F07F021A730AB035
:100E4000BDE8F00F7047254BD3F8AC2122F44032B7
:100E5000C3F8AC21D3F8AC2142F48032C3F8AC2102
:100E600072E70028A5D0012BA3D80223A1E7B9F18E
:100E70000F0F0193039702908C464FF00103B5D1F9
:100E8000029C039944EA0110C0B2C1E71020BFE7F9
:100E9000A3F5804398427FF457AF104BD3F8A821B5
:100EA00022F0C002C3F8A821D3F8A82142F04002E2
:100EB000C3F8A82148E7094BD3F8A82122F44072CF
:100EC000C3F8A821D3F8A82142F48072C3F8A8215E
:100ED0003AE700BF000001400080094000C00F4019
:100EE000D00000100268137DDB07FCD54368094978
:100EF000C3EBC30301EBC303596810780131C0B2DF
:100F000007D0596904335B680B60536843F00103F1
:100F1000536070477C0200104368174AC3EBC30359
:100F2000DB00D11810B4CC69013411D00A6B01F187
:100F30001C035B6812681A4203D000205DF8044B62
:100F4000704703685DF8044B187DC0F3801070474C
:100F500003681B7D9B0608D491F834005DF8044BB0
:100F60000F288CBF002001207047002381F8343007
:100F700001205DF8044B70477C02001038B5044630
:100F80000D462046FFF7C8FF0028FAD02368EDB2CF
:100F90001D706268054BC2EBC20203EBC20393F8FB
:100FA0003420013283F8342038BD00BF7C020010A9
:100FB0002DE9F04F0446454D006883B0A8420E4627
:100FC0009046994643D06568002301932A46DFF88E
:100FD00008A1EF00C2EBC202781B4FF0000E0AEB33
:100FE000C0000AEBC20C4FF0FF33C361436071468F
:100FF000724620468CF835E0FFF784FD16B903B041
:10100000BDE8F08F3249404600F05CFA3149834632
:10101000484600F057FAB21E012A38D9012EEED107
:10102000B8F1FF3FEBD02949226807208B451072A9
:1010300015D1019B9BB11B7C019A254943F04003CC
:101040004046137403B0BDE8F04F00F009BA037CCA
:10105000656803F03F03037462680190B7E77D1B86
:101060000AEBC50041460430002200F0DDF9626859
:101070000125C2EBC2020AEBC20320462A46002128
:1010800083F8355003B0BDE8F04FFFF73BBDB9F131
:10109000FF3F09D00D4A90420CD0781B0AEBC000EC
:1010A00049461C3000F098F9032EA8D1B8F1FF3F53
:1010B000B9D1A4E7019B002BEFD01A7C484642F03F
:1010C00080021A74034900F0CBF9EDE700000140FB
:1010D000183A0000143B00007C0200102DE9F0419A
:1010E00005460F4608465949164600F0F9F9584991
:1010F0000446304600F0F4F90146204600F0D0F9ED
:10110000544B0446984228607FD06FD9524B984286
:101110004BD003F58043984206D1504BD3F8C420FE
:1011200042F00072C3F8C420012323722B684FF0F1
:101130000008C3F8048028464FF41651FFF7E2FD7B
:101140002B6803221A733846404900F089F930466B
:101150003F4900F085F97A1C03D03846414600F03B
:10116000F3FA731C03D03046002100F0EDFA394B3E
:101170009C4247D021D9384B9C4263D003F5804331
:101180009C424AD103236B603549C3EBC3034FF044
:10119000FF34284601EBC305224623466C60EC6110
:1011A0000021BDE8F041FFF703BF2C4BD3F8C4206A
:1011B00042F08072C3F8C420B6E7A3F580439C4296
:1011C0002BD1274E4FF0FF34002169602246234681
:1011D00028467460F461FFF7EBFE224B01221A608F
:1011E00028686968204B03C3BDE8F081A3F58043FC
:1011F000984299D1194BD3F8C42042F00802C3F8A1
:10120000C42091E701236B60BEE7144BD3F8C420E0
:1012100042F01002C3F8C42086E76B681049C3EBA4
:10122000C3034FF0FF3601EBC3073246334628466F
:1012300000217E60FE61FFF7BBFE0C4B9C42CCD0D0
:10124000BDE8F08102236B609EE700BFA83A000072
:101250003C3A0000000001400080094000C00F40FF
:101260007C020010740200107803001000C00040DF
:101270000C4A30B4936894681A46B4F1805F0CD27B
:10128000094A03F1C40553F8044BAB4242F8044F3A
:10129000F9D1044B4FF080529A60103042F8201080
:1012A00030BC704700ED00E0FCFFFF0F2B4A20230D
:1012B00070B4C2F8A031D2F8A031980645D4274BBB
:1012C000022100250124AA2055220B26C3F804116F
:1012D000C3F8A8511946C3F8AC51C3F80C41C3F880
:1012E0008460C3F88C00C3F88C20C3F88040C3F836
:1012F0008C00C3F88C20D1F88830184A5B01FAD5ED
:101300000321AA205523C2F88010C2F88C00114690
:10131000C2F88C30D1F88830104A13F0407FF9D0F1
:101320000F4900230520C2F80801C2F8C410C2F812
:10133000C831136870BC23F4704323F03A0343F4BC
:10134000405343F03A0313607047D2F8A031590676
:10135000B5D4D2F8A0315906F7D5B0E700C00F4098
:10136000DE87280400B599B072B61749684600F0C8
:1013700045F806A8154900F041F80CA8144900F0FA
:101380003DF812A8134900F039F8039B019A0A9816
:101390001A60079B109903600D9B159A0B60139BB5
:1013A0009620136000F0C2F8049B019A09981A6015
:1013B000079B0F9903600D9B169A0B60139B962059
:1013C000136000F0B3F8E0E732C0092034C0092010
:1013D00035C0092037C0092038B50D46044600F055
:1013E00069F9013509D02046002100F083F9204633
:1013F0000321BDE8384000F079B938BD38B50D4655
:10140000044600F057F901350CD023696268204684
:101410001A60012100F06EF920460221BDE8384033
:1014200000F064B938BD00BF70B50D4616460446DD
:1014300000F040F9013511D066B9236962681A607D
:101440002046012100F056F920460221BDE87040F7
:1014500000F04CB9E36862681A60F1E770BD00BF44
:10146000431C10B5044618D00B68581C04D10FE07B
:1014700051F80C3F5A1C0BD09C42F9D12046896888
:1014800000F04AF920460221BDE8104000F05CB9A6
:101490000248BDE81040FEF70DBF10BD383B00000C
:1014A000884208B50AD0431C07D0013106D0044851
:1014B000FEF700FF4FF0FF3008BD084608BD00BF33
:1014C0004C3B00000B685A1C04D107E051F80C3F5C
:1014D0005A1C03D08342F9D14868704718467047B8
:1014E00008B5431C0CD00B685A1C04D109E051F814
:1014F0000C3F5A1C05D09842F9D14868411C00D0D5
:1015000008BD0348FEF7D6FE4FF0FF30F8E700BFF6
:10151000603B000038B5054600F07AF9044600F05B
:1015200077F9001BA842FAD338BD00BF4FF47A7395
:1015300003FB00F0FFF7EEBF094A8368026053B176
:10154000084B1A68824201D106E01A46536883426A
:10155000FBD143685360704742681A60704700BF10
:10156000883B00005C0300100C4A836810B50446F9
:10157000026053B10A4B1A68904201D10AE01A4640
:1015800053689C42FBD163685360204600F097F992
:10159000204610BD42681A60F7E700BF883B000094
:1015A0005C030010074B10B400240273816080E8D4
:1015B000180019B1044B1A68186042605DF8044BBA
:1015C000704700BF883B00005C030010F8B50B4B70
:1015D00007461C680E467CB1A56839463246284647
:1015E0003DB101F028F820B9284601F01CF8B042BE
:1015F00002D06468002CEFD12046F8BD5C030010D7
:10160000007B704738B50023036043600A780446C6
:101610002F2A01D0204638BD4A78002AFAD0481C2B
:1016200020604A782F2A14D0B2B18D1C194600E0F0
:1016300052B125602A782B462F2A01F1010105F1CC
:101640000105F5D101332360FFF7C0FF606020463C
:1016500038BD19460346F5E71146F5E700687047BF
:1016600010B50446406828B1FFF7CAFF012801D130
:10167000606810BD002010BD406808B528B1FFF7B4
:10168000BFFFD0F1010038BF002008BD10B50446EF
:10169000406830B1FFF7B4FF18B9606808B104388A
:1016A00010BD002010BD00BF4068003018BF0120F1
:1016B000704700BF38B504464B1C0D46216014D05E
:1016C0000846002100F028F805F01F03012098408B
:1016D00025F01F0505F1180105F11C0205F11403A1
:1016E000A5606060E1602261636138BD006800F060
:1016F0002BB800BF41B1012905D183684268196840
:101700000A431A6070477047836841681A6822EA82
:1017100001021A60704700BF00F16040A0F51C2074
:1017200000F00F035B0003229A40994003099B00DD
:1017300003F1804303F53033186820EA02021A608F
:101740001A6811431960704700F16040A0F51C2031
:1017500030B4C1F3800200F01F0402FA04F443091C
:101760009B0003F1804303F530339D6E25EA0405A9
:101770009D669D6E2C439C669AB900F00F035B003A
:1017800003229A4001FA03F30009800000F180402F
:1017900000F53030016C21EA02020264026C13434E
:1017A000036430BC704700BF134A38B513680BBBE5
:1017B00012490124D1F8C4501460114A114845F46B
:1017C0000005C1F8C4501367036801F1437101F5C6
:1017D000F45103319B08A1FB03039B0C013B022145
:1017E00051600420D36008495460FFF741FD074B66
:1017F00010221A6038BD00BF6003001000C00F4007
:1018000000400940D00000105D18000000E100E039
:1018100008B5044B1B680BB9FFF7C6FF024B98686D
:1018200008BD00BF6003001000400940034B9861F1
:101830005A6942F001025A61704700BF00400940F6
:10184000024B5A6922F001025A6170470040094078
:10185000014B01221A60704700400940F8B5FFF7BC
:10186000F7FF124E124F3368ABB1D3E90045FFF7D3
:10187000CFFF221A65F1000310461946012871F1C5
:1018800000030CDA31683A68CB683360002AEBD089
:1018900088689047E7E7BDE8F840FFF7D1BF3368B5
:1018A000D3E90001BDE8F840FFF7C0BF64030010B2
:1018B0006803001003460846194600F019B808B13D
:1018C000FEF7EABC7047000010B5002814BF0446BC
:1018D00001242046FEF7DAFC30B9044B1B680BB933
:1018E000FEF7E0FC9847F4E710BD00BF6C03001062
:1018F00070B5064C06460D4613462CB131462A46B5
:101900000220AFF3008070BD204670BD00000000D3
:10191000014B1868704700BF3401001070B50546D0
:101920000C4609B9002070BD18B183690BB900F0ED
:1019300063F9204B9C4201D16C6808E01E4B9C422D
:1019400001D1AC6803E01D4B9C4208BFEC68B4F9C0
:101950000C30002BE6D02846214600F0BDF8236B62
:10196000064633B12846216A98470028B8BF4FF091
:10197000FF36A3891B0603D52846216900F028FC01
:10198000616B41B104F14403994202D0284600F052
:101990001FFC00236363A16C21B1284600F018FCF2
:1019A0000023A36400F092F90023A38100F08FF9D3
:1019B000304670BD903B0000B03B0000D03B0000C3
:1019C000024B01461868FFF7A9BF00BF34010010A1
:1019D0008A892DE9F041054610070C4657D44B681B
:1019E000002B02DC0B6C002B18DDE66AB6B102F4AA
:1019F0008052002392B22F682B600AB1626D10E012
:101A0000216A28460123B047411C024609D12B68B0
:101A10003BB11D2B01D0162B46D12F600020BDE815
:101A2000F081A3895B0705D56368D21A636B0BB19C
:101A3000236CD21AE66A2846216A0023B047461C66
:101A4000A28905D12B681BB11D2B01D0162B19D1F2
:101A5000002363602369D104236004D5421C01D1B3
:101A60002B6803B96065616B2F600029D6D004F143
:101A70004403994202D0284600F0AAFB002060638C
:101A8000BDE8F08142F04002A281BDE8F0810E691C
:101A9000002EC3D00B680E60C6EB030893070CBF83
:101AA0004B6900238B6012E0A3894FF0FF3043F0B5
:101AB0004003A381BDE8F081A76A2846216A324627
:101AC0004346B8470028EFDD0644C0EB0808B8F1EC
:101AD000000FF1DCA2E7000038B50B6905460C46A3
:101AE000DBB118B183690BB900F086F80C4B9C424E
:101AF00001D16C6808E00B4B9C4201D1AC6803E05B
:101B0000094B9C4208BFEC68B4F90C302BB1284655
:101B10002146BDE83840FFF75BBF002038BD00BF5D
:101B2000903B0000B03B0000D03B0000014620B9D4
:101B3000044B0549186800F023BA044B1868FFF7F6
:101B4000CBBF00BFF43B0000D91A000034010010E5
:101B5000F8B5074600F1480494B1A5686668013EEF
:101B60000CD4AB89012B07D9B5F90E30013303D062
:101B700038462946FFF7B0FF6835F0E72468EBE701
:101B8000F8BD0000002310B5044603604360836085
:101B900081814366C28103614361836119465C3080
:101BA000082200F00DFB054B24626362044BA36224
:101BB000044BE362044B236310BD00BF8925000082
:101BC000AF250000E72500000B26000070B54B1E76
:101BD00068255D430E4605F1740100F03DFB0446A7
:101BE00040B1002180E842000C30A06005F168029D
:101BF00000F0E6FA204670BD836910B5044633BB99
:101C00008364C3640365124B124A1B688262984264
:101C100004BF0123836100F01FF86060204600F0DC
:101C20001BF8A060204600F017F80421E0600022B5
:101C30006068FFF7A7FFA06809210122FFF7A2FF54
:101C4000E06812210222FFF79DFF0123A36110BD6E
:101C5000F43B0000511B0000F8B51B4B07461E6803
:101C6000B36913B93046FFF7C7FF4836B4687368E5
:101C7000013B04D4B4F90C5075B16834F8E733680B
:101C80002BB938460421FFF7A1FF306008B1366850
:101C9000ECE70C233B60F8BD4FF6FF73E3810123B3
:101CA000A38165662560A560656025616561A561A4
:101CB00004F15C002946082200F082FA6563A563FE
:101CC000A564E5642046F8BDF43B0000704770470A
:101CD000F7B50F46114601AA054601F09FFB0646DF
:101CE00008B9002029E02846FFF7B6FF044600287F
:101CF000F7D028463946019A4FF4DB7300F000FB19
:101D0000002806DA0025FFF7E1FFA581FFF7DFFFD6
:101D1000E7E70B4BE08163620A4BA681A3620A4BA3
:101D20002462E362094B2363F30505D52846214667
:101D30000022022300F078F8204603B0F0BD00BF77
:101D400089250000AF250000E72500000B260000D4
:101D50000A460349034608681946FFF7B9BF00BFA2
:101D6000340100102DE9F84F92465A430646884642
:101D700099460A9C93463DD018B183690BB9FFF789
:101D80003BFF1E4B9C4201D1746808E01C4B9C42F7
:101D900001D1B46803E01B4B9C4208BFF468636840
:101DA000002B01DA002363605D4667684046BD4250
:101DB000216813D93A4600F0FAF9236830463B44CB
:101DC00023602146B844ED1B00F01EFB0028ECD038
:101DD000C5EB0B0BBBFBFAF0BDE8F88F2A4600F011
:101DE000E6F9636848465B1B636023681D44256011
:101DF000BDE8F88F1046BDE8F88F00BF903B0000AB
:101E0000B03B0000D03B000073B50093054B064685
:101E10000D461446186831462A462346FFF7A2FFAE
:101E200002B070BD3401001000F000B82DE9F84395
:101E30000C4691461E46054618B183690BB9FFF75B
:101E4000DBFE3E4B9C4201D16C6808E03C4B9C425F
:101E500001D1AC6803E03B4B9C4208BFEC68A3890E
:101E600003F48473B3F5847F03D128462146FFF73A
:101E700033FED4F82C801D23B8F1000F2BD0012E97
:101E800004D0022E2BD056B3162324E02846214638
:101E9000FFF722FEA28902F4805292B20AB1606D6D
:101EA00005E0216A28463346C047411C14D0A38967
:101EB0005A0706D56368C01A636B4BB1236CC01A0E
:101EC00006E01B0704D5236813B122699B1A184446
:101ED0008144002603E02B604FF0FF372BE023699D
:101EE0001BB92846214600F0F7F828462146FFF79F
:101EF000F3FD07460028EFD12846216A4A463346BB
:101F0000C0470130E8D0616B41B104F1440399420C
:101F100002D0284600F05CF90023636323690021A6
:101F20002360A389616023F40263A38104F15C0050
:101F3000082200F045F93846BDE8F883903B0000E0
:101F4000B03B0000D03B00002DE9F041884600F195
:101F5000480400268CB1A5686768013F0BD4AB89A3
:101F6000012B06D9B5F90E30013302D02846C047FF
:101F700006436835F1E72468ECE73046BDE8F081B8
:101F80002DE9F8438046894600F14804002694B1C3
:101F9000A5686768013F0CD4AB89012B07D9B5F957
:101FA0000E30013303D040462946C8470643683502
:101FB000F0E72468EBE73046BDE8F8832DE9F04709
:101FC000089C8A46904602FB03F9054618B18369CE
:101FD0000BB9FFF711FE224B9C4201D16C6808E05F
:101FE000204B9C4201D1AC6803E01F4B9C4208BFD0
:101FF000EC68A3891A0703D523690BB100261BE0FF
:102000002846214601F08CF90028F7D0002623E06D
:10201000A768013FA760002F1AF8061016DAA36917
:102020009F420CDA2846224601F014F9B0F1FF3342
:102030005842584180B901364E45E9D10CE0236839
:102040001970236819780A2903D1EBE723681970FE
:10205000236801332360EEE7B6FBF8F0BDE8F087B4
:10206000903B0000B03B0000D03B000073B50093F4
:10207000054B06460D461446186831462A46234647
:10208000FFF79CFF02B070BD3401001070B50E4B1D
:102090000E4D0024ED1AAD101E46AC4204D056F889
:1020A000242090470134F8E701F0A0FB084D094BCC
:1020B0000024ED1AAD101E46AC4204D056F8242080
:1020C00090470134F8E770BD3C0100103C0100105E
:1020D000440100103C010010F0B58B8991B09E07BF
:1020E00005460C4625D4B1F90E10002908DAA3895B
:1020F000002713F0800F14BF40264FF480660DE0D8
:1021000001AA01F0C3F90028F1DB029F4FF48066B9
:1021100007F47047B7F500514F424F41284631460A
:1021200000F09AF860B9A3899A051DD443F0020320
:10213000A38104F14703236023610123636113E05A
:102140000A4BAB62A389206043F08003A381206126
:1021500066614FB12846B4F90E1001F0A9F918B123
:10216000A38943F00103A38111B0F0BD511B00000E
:10217000024B0146186800F06FB800BF3401001030
:10218000024B0146186800F023B800BF340100106C
:1021900030B50023934208D0C55C0133CC1814F845
:1021A000014CA542F6D0281B30BD002030BD10B533
:1021B0000023934203D0CC5CC4540133F9E710BD33
:1021C00002440346934202D003F8011BFAE770472A
:1021D00030B500293CD051F8042C0B1F1D49002AB2
:1021E000B8BF9B180A680C4612B95A600B6030BD24
:1021F00093420DD219685818904203D15A5811448D
:10220000426819605A60236030BD994203D80A467B
:1022100051680029F9D1146815199D420AD11B682B
:102220002344D0188842136012D108680344136015
:102230004B680CE002D90C23036030BD18681C18F1
:102240008C4203D10C68496820441860596053607F
:1022500030BD00BF7403001070B5CD1C25F0030520
:1022600008350C2D38BF0C25002D06463FDB8D426E
:102270003DD3214B1C6818462146A1B10B685B1B5E
:102280000ED40B2B03D90B60CC18CD501FE08C4221
:1022900002D1626802601AE04B6863600C4616E087
:1022A0000C464968E9E7154C23681BB9304600F035
:1022B00031F920602946304600F02CF9431C0146D4
:1022C00015D0C41C24F0030484420AD1256004F113
:1022D0000B00231D20F00700C31A0BD05A42E25016
:1022E00070BD3046611A00F015F90130EED10C23B3
:1022F0003360002070BD00BF740300107003001035
:1023000038B5074C054600202060084611461A469D
:10231000FEF75CFA431C02D1236803B12B6038BD81
:102320008003001070B50E46054618B183690BB9DD
:10233000FFF762FCAC68A389190701D5236983B94B
:102340002846214600F0ECFF58B14FF0FF3070BD39
:10235000002B0EDB236816F8012C1A70236801335A
:102360002360A36816F8012B013BA360002AEFD17C
:1023700017E0A269934209DB236816F8012C1A7052
:10238000236819780A29EAD1284602E016F8011CC8
:102390002846224600F05EFFB0F1FF325042504125
:1023A000D2E7002B16DAA269934208DB23680A22DF
:1023B0001A7023681978914210D1284601E0284606
:1023C0000A21224600F046FFB0F1FF33584258413F
:1023D00030B1BAE723680A221A70236801332360F8
:1023E0000A2070BD024B01461868FFF79BBF00BF73
:1023F00034010010838903F00903092B01D1FFF791
:1024000095BB002070470000F8B50C46054618B192
:1024100083690BB9FFF7F0FB394B9C4201D16C6823
:1024200008E0384B9C4201D1AC6803E0364B9C423B
:1024300008BFEC68A2890023636093B29E065AD459
:1024400058071AD4D90605D4092342F040022B605C
:10245000A28150E01A070BD528462146FFF73CFB26
:10246000002848D1A389A06023F00803A381A061BC
:10247000A38943F00403A38110E0616B71B104F1FF
:102480004403994202D02846FFF7A2FE236C0020A5
:102490006063636013B1E36B2360F8BD23691BB90C
:1024A00028462146FFF718FEA789BEB2B3070FD012
:1024B0000123A381154B1649186806F00906FFF79A
:1024C00043FD092EA78103D128462146FFF780FA54
:1024D0002269666A22602846216A6369B04700283B
:1024E00060600BDCA38917BF002243F0200343F098
:1024F00040036260A3814FF0FF30F8BD0020F8BDBB
:10250000903B0000B03B0000D03B0000F43B0000DB
:10251000F523000038B5064C002305460846236025
:10252000FEF788FA431C02D1236803B12B6038BD43
:10253000800300100EB430B59CB01FAC4FF4017294
:1025400054F8045BADF814200290069000F06BF88C
:102550000B4B03900B9300230F9314934FF6FF73D1
:10256000ADF81630074B079002A918682A46234693
:10257000019400F0D1F81CB0BDE8304003B07047C2
:10258000AB2500003401001010B50C46B1F90E1057
:1025900000F0E4FF002803DB636D0344636510BDB6
:1025A000A38923F48053A38110BD002070472DE937
:1025B000F0411D468B890746DB050C46164605D5BE
:1025C000B1F90E100022022300F082FFA3893846E1
:1025D00023F48053A381B4F90E1032462B46BDE894
:1025E000F04100F08BBE10B50C46B1F90E1000F0B2
:1025F0006FFF431CA38903D123F48053A38110BD33
:1026000043F48053A381606510BDB1F90E1000F052
:10261000F5BE10F8012B11F8013B012A28BF9A42A0
:10262000F7D0D01A7047034613F8012B002AFBD1CC
:10263000181A0138704770B58AB10B4605461C78E8
:1026400010F8016B0131B44201D1012A03D128787D
:102650001B78C01A70BD013A002CEED1F7E7104686
:1026600070BD38B54B1C144602D14FF0FF3038BD59
:102670009389CDB223F020039381536B526883B1C9
:10268000A36B9A4207DA23685A1E226003F8015CA2
:10269000636801331FE0214600F08CF90028F2D076
:1026A000E3E72169236851B18B4208D913F8010C83
:1026B000A84204D1013B01322360626038BDE3636C
:1026C00004F1440363630323A3632346226403F8F2
:1026D000465F236001236360284638BD10B50C4671
:1026E000496B69B104F14403994201D0FFF770FDD1
:1026F000236C00206063636013B1E36B236010BD43
:1027000023694FF0FF30236000236360A38943F007
:102710002003A38110BD00002DE9F047ADF5247D15
:1027200001930023469347939D4B0DF10C09A2930F
:102730009C4B07460C469046CDF82091A39398F801
:102740000050002D00F0248197490B688A462B44E5
:102750005A7802F0080202F0FF03EAB16368002B26
:1027600010DD2368DAF8002019780A44527815073A
:102770000ED5479A01330132479262682360013ACD
:102780006260EBE7A39B3846214698470028E8D0D3
:1027900008F10106B046D2E7252D08F101064FD118
:1027A0004593439398F801302A2B03D11023439388
:1027B00008F1020631783546A1F13003092B06F104
:1027C000010606D8459B0A2202FB0313303B4593C2
:1027D000F0E7DFF8DC810322404600F08BFE40B1D9
:1027E000C8EB0008012000FA08F0439B354603437C
:1027F00043936E1C2D78672D0FD8652D78D25B2DF5
:1028000054D005D8002D00F0C580252D18D071E0DA
:10281000632D57D0642D3FD06CE0702D32D007D897
:102820006E2D55D03AD8692D64D10023449339E0F8
:10283000752D31D0782D29D0732D5BD102233FE047
:102840006368002B0DDD23681A78AA4240F0A0804F
:10285000013362682360479B013A0133626047930A
:1028600098E7A39B3846214698470028EBD0469826
:10287000002800F08F80A38913F0400F18BF4FF09D
:10288000FF3089E0439B43F020034393439B43F491
:1028900000734393102302E00A2300E008236E2D07
:1028A000449301DC03230BE0042309E0314648464E
:1028B00000F066FE439B064643F04003439301232A
:1028C00049931BE0439B43F0400343930023F7E706
:1028D000439AD0063FF55EAF12F0010F019A479B75
:1028E00002F104010191126814BF1380136051E7D3
:1028F0000523E5E7032349930A2344936368002BE8
:1029000003DD439B590611D518E0A39B38462146A9
:1029100098470028F5D0AAE7479A013247926268A3
:10292000013A002A626013DD013323602368DAF87C
:10293000002019780A4452781207EDD4499B022BE3
:102940000DDC384643A9224601AB00F02DFB19E00F
:10295000A39B3846214698470028E7D087E7042BF9
:1029600006DC384643A9224601AB00F07DFB09E0B6
:102970000E4B002B3FF40EAF384643A9224601AB65
:10298000AFF30080012803D002287FF403AF6EE785
:10299000469801E04FF0FF300DF5247DBDE8F0874B
:1029A00063260000DD260000380100100000000052
:1029B000F83B00002DE9F0410C46496B04F144035B
:1029C00099421AD14FF48061FFF746FC18B94FF0D5
:1029D000FF30BDE8F0814FF48063A36394F8463084
:1029E000606380F8FF3394F8453000F2FD304370A7
:1029F00094F844300370206012E0A66B77003A46EA
:102A000000F086FD05460028E1D000EB06084046B0
:102A100029463246FFF7CBFBC4F800806563A76305
:102A20000020BDE8F081936810B5013B002B936056
:102A300005DA9469A34208DBCBB20A2B05D01368F0
:102A4000581C10601970C8B210BDBDE8104000F0ED
:102A500001BCF8B505460E461446D718BC4208D04E
:102A6000284614F8011B3246FFF7DDFF431CF5D161
:102A700000E00020F8BD00002DE9F0439DB00D46B8
:102A800017460393064618B183690BB9FFF7B4F8EC
:102A9000734B9D4201D1756808E0724B9D4201D194
:102AA000B56803E0704B9D4208BFF568AB89180715
:102AB0000AD52B6943B10023099320238DF82930CF
:102AC00030238DF82A3038E03046294600F028FCC3
:102AD0000028F0D04FF0FF30BEE0039A111D1268BD
:102AE0000391002A70DB0792013423782E2B7DD0CE
:102AF0005E4F21783846032200F0FCFC30B1C71B42
:102B00004020B840049B0134034304932178584883
:102B10000622671C8DF8281000F0ECFC002800F05D
:102B20008980544B002B7CD1039B073323F0070390
:102B300008330393099B434409933B461C4613F80F
:102B4000012B1AB9B4EB07090ED002E0252AF5D102
:102B5000F8E7304629463A464B46FFF77AFF013000
:102B600075D0099B4B4409932378002B6FD0002329
:102B70004FF0FF3204930793059206938DF853307C
:102B80001A9304F101093C4F4C463846217805223E
:102B900000F0B0FC09F10109049B28B1C71B01201A
:102BA000B84003430493EEE7D90644BF20228DF8D2
:102BB00053201A0744BF2B228DF8532022782A2A4B
:102BC0008BD0079B214605E0524243F00203079257
:102BD000049389E70C4622780131303A092A03D858
:102BE0000A2000FB0323F5E707937EE763782A2B8F
:102BF00009D1039B02341A1D1B680392002BB8BF36
:102C00004FF0FF330BE0611C00230C4622780131AA
:102C1000303A092A03D80A2000FB0323F5E705937D
:102C200066E703AB0093304604A92A46134BAFF383
:102C3000008007E003AB0093304604A92A460F4BFF
:102C400000F09EF8B0F1FF3F80467FF473AFAB8990
:102C50005B063FF53FAF09981DB0BDE8F08300BFAC
:102C6000903B0000B03B0000D03B0000F83B000070
:102C7000023C000000000000FC3B0000532A000062
:102C800030B51346044A05460C46106829462246CC
:102C9000BDE83040FFF7F0BE340100102DE9F843E5
:102CA00015461F468A680B6906469A42A8BF134616
:102CB0002B6091F843200C46DDF820800AB10133E7
:102CC0002B602368990602D52B6802332B6023689A
:102CD00013F006091DD094F843302268003318BF62
:102CE000012392061FD5E118302081F843005A1CB9
:102CF00094F845102244023382F8431013E0304622
:102D0000394604F119020123C047013007D009F107
:102D10000109E2682B68D31A9945F0DBDBE74FF035
:102D2000FF30BDE8F8833046394604F14302C0471E
:102D30000130F4D023682A6803F00603E168042B0D
:102D400008BFC2EB01052369A2680CBF25EAE5753F
:102D500000259A42C4BFC3EB0203ED184FF00009EF
:102D6000A9450ADA3046394604F11A020123C04760
:102D70000130D4D009F10109F2E70020BDE8F88361
:102D80002DE9FF470E7E80466E2E0C4691469A46F0
:102D90000C9D01F1430000F0A58011D8632E22D0D4
:102DA00009D8002E00F0AF80582E40F0BF8081F887
:102DB00045607B4A4FE0642E1ED0692E1CD0B5E0E2
:102DC000732E00F0A48009D86F2E2BD0702E40F007
:102DD000AD800B6843F020030B6038E0752E21D0E6
:102DE000782E34D0A2E02B6801F142071A1D1B682F
:102DF0002A6081F842309DE022682B6812F0800F33
:102E000003D01A1D2A601D6805E05106F9D51A1D68
:102E10002A60B3F90050002D39DA2D236D4284F871
:102E2000433034E022682B6812F0800F03D01A1D63
:102E30002A601D6804E05206F9D51A1D2A601D8813
:102E4000237E574A6F2B14BF0A2308231BE07823E5
:102E5000544A84F845302368296813F0800F01F143
:102E600004062E6001D00D6802E05F06FBD50D88D8
:102E7000DE0744BF43F0200323601DB9236823F01D
:102E8000200323601023002184F8431001E0444A0A
:102E90000A236668002EA66003DB216821F0040186
:102EA000216005B96EB104F14201B5FBF3F603FBF5
:102EB0001655555D0F4601F801593546002EF4D1DF
:102EC00000E00746082B0AD12368DD0707D56268B2
:102ED00023699A4203DC302307F8013C013FC01B01
:102EE00020612CE009682B6811F0800F626904D022
:102EF000191D29601B681A6005E04906F8D5191DDF
:102F000029601B681A8000232361074617E02B689D
:102F10001A1D2A601F683846FFF785FB6368206129
:102F2000984288BF23612369636005E004F142078A
:102F300084F8426001232361002384F84330CDF8F4
:102F400000A04046214603AA4B46FFF7A7FE0130EA
:102F500002D14FF0FF301FE0404649463A46236910
:102F6000D0470130F5D023689B0705D4E068039B68
:102F70009842B8BF18460FE00025E268039BD31AB9
:102F80009D42F3DA4046494604F119020123D04735
:102F90000130DED00135F0E704B0BDE8F08700BFB6
:102FA000093C00001A3C00002DE9F04115468A68F2
:102FB00080460C4632B98A69002A14BF4FF0FF32AE
:102FC00001228A602268D10603D41A68111D196093
:102FD00017680026A069E0B923680136DA0604D430
:102FE0002B6801371B7807F8013C2A686B680132AF
:102FF0002A60A268013B013A6B60A26012B3002B09
:10300000E8DCD4F880314046294698470028E1D0D2
:1030100018E0012807D12A6811786269525C002AF9
:10302000DAD1EEB10EE0022801D04EB10AE02A68F2
:103030000C49127809680A4452781307CCD5F4E792
:1030400001280DD0236813F0100305D1E268013286
:10305000E260A26902B13B70236900201E44266130
:10306000BDE8F081380100102DE9F04F89B00C4621
:10307000984605A9734B02918146164693E80700CE
:10308000029B83E80700A3696F4A7049032B08BFBE
:103090001146A36803915A1EB2F5AE7F07D96FF4AB
:1030A000AE7503EB050A40F25D13A36001E04FF03B
:1030B000000A236804F11C0743F450632360BB46F5
:1030C0000023326805A951F82300117802220193E8
:1030D00000F010FA019B002835D0012B0BD162685B
:1030E0002AB908226260226842F4007222602268D3
:1030F00022F4A0620BE0022B0AD1226802F4C06124
:10310000B1F5007F1FD11021616042F4807222600E
:10311000A268511EA160B2B132680BF10105511CC9
:10312000316012788BF800207268013A002A7260D0
:1031300008DC0193D4F88021484631469047019B32
:10314000002841D1AB460133032BBAD163680BB9D8
:103150000A23636063683E496069C91A00F010FA87
:103160005D464FF0000BA368002B2FD032686069DA
:103170001178405C50B3302921680BD1080509D57E
:103180000BF1010BBAF1000F0BD001330AF1FF3A3A
:10319000A36006E021F4106121601378013505F881
:1031A000013C7368013B002B736003DD336801331E
:1031B000336005E0D4F8803148463146984728B955
:1031C000A368013BA360CEE74FF0000B2368D9054D
:1031D0000DD5BD4209D915F8011CD4F87C314846FB
:1031E0003246984705F1FF3A5546BD4226D022683F
:1031F00012F010021BD12A70636848463946039EBC
:10320000B0472268D8F8003012F0200F07D1D2075B
:1032100005D51A1DC8F800201B68188004E01A1D87
:10322000C8F800201B681860E3680133E360236975
:10323000ED1BAB445B442361002000E0012009B09A
:10324000BDE8F08F2C3C0000E5350000E9360000B9
:10325000483C000070B50E461446054618B1836917
:103260000BB9FEF7C9FC224B9C4201D16C6808E007
:10327000204B9C4201D1AC6803E01F4B9C4208BF2D
:10328000EC68A369A360A3891A0709D523693BB138
:1032900023692068F6B2C01A636998420FDB08E020
:1032A0002846214600F03CF80028F1D04FF0FF30CE
:1032B00070BD28462146FEF70FFC0028F6D1A36812
:1032C0000130013BA36023685A1C22601E706369B1
:1032D000984204D0A389DB0707D50A2E05D12846DA
:1032E0002146FEF7F9FB0028E0D1304670BD00BF53
:1032F000903B0000B03B0000D03B000038B5074CCD
:10330000054600202060084611461A46FDF7F4FAEB
:10331000431C02D1236803B12B6038BD8003001029
:10332000324B70B51D6806460C4625B1AB6913B922
:103330002846FEF761FC2E4B9C4201D16C6808E0E8
:103340002C4B9C4201D1AC6803E02B4B9C4208BF44
:10335000EC68A28993B2190720D4DD0605D40923AD
:1033600042F040023360A2813BE0580712D5616B06
:1033700041B104F14403994202D03046FEF728FFE0
:1033800000236363A38923F02403A38100236360E4
:1033900023692360A38943F00803A38123694BB900
:1033A000A38903F42073B3F5007F03D03046214690
:1033B000FEF792FEA38913F0010205D00022A2605D
:1033C00062695242A26103E0990758BF6269A26034
:1033D00022694AB903F0800080B230B143F0400363
:1033E000A3814FF0FF3070BD002070BD340100108C
:1033F000903B0000B03B0000D03B000038B5064CCD
:103400000023054608462360FDF760FA431C02D1FD
:10341000236803B12B6038BD800300100B7830B5F2
:10342000722B09D0772B0BD0612B0ED14FF4027485
:1034300001234FF484701BE000242346042017E08E
:103440004FF4C0640123082012E01623036000201B
:1034500030BD622D10D0782D11D02B2D07D120F04A
:103460001C0023F0030340F0100043F0020301317D
:103470004D78002DEDD105E043F48033F7E743F4B8
:103480000063F4E72343136030BD000038B5074CF8
:1034900000230546084611462360FDF7A3FA431CA6
:1034A00002D1236803B12B6038BD00BF8003001038
:1034B00038B5064C0023054608462360FCF7E0FEBD
:1034C000431C02D1236803B12B6038BD8003001078
:1034D00038B5074C054600202060084611461A46BC
:1034E000FDF76CFA431C02D1236803B12B6038BD91
:1034F0008003001010B5C9B202449042034605D0C3
:103500001C7801308C42F8D1184610BD002010BD47
:10351000F8B5064614460D4621B91146BDE8F840F7
:10352000FEF79ABE1AB9FEF753FE2046F8BD00F02A
:1035300053F9A0420ED230462146FEF78DFE0746D3
:1035400050B129462246FEF732FE30462946FEF7A4
:103550003FFE01E02846F8BD3846F8BD38B5074CB7
:10356000054600202060084611461A46FDF7ECF992
:10357000431C02D1236803B12B6038BD80030010C7
:10358000F0B50B785E2B02D04C1C002102E08C1CA5
:103590004B780121002281540132B2F5807FFAD1AB
:1035A0000BB9651E1BE0C1F10107FEB2C654621CD7
:1035B00012F8011C551E2D29144604D05D290DD08A
:1035C00069B10B46F1E715785D2DFAD09D42F8DB25
:1035D0000133AB42C654FBDB0232E9E7154628460D
:1035E000F0BD000084463F482DE9F04FD0F8008040
:1035F0000E46344614F8015B08EB0500407800F0F5
:10360000080000F0FF0708B12646F2E72D2D03D190
:10361000B41C7578012703E02B2D04BF7578B41C0A
:1036200033F010000DD1302D08D1207800F0DF00EC
:10363000582851D165781023023402E0002B08BFCE
:103640000A23002F0CBF6FF0004A4FF0004ABAFB6C
:10365000F3F903FB19AA0026304608EB050B9BF88B
:1036600001B01BF0040F01D0303D0BE01BF0030B49
:103670001BD0BBF1010F14BF4FF0570B4FF0370BAE
:10368000CBEB05059D4210DAB6F1FF3F0AD0484565
:1036900006D801D1554503DC03FB0050012601E0AB
:1036A0004FF0FF3614F8015BD7E7731C0CD1002FE5
:1036B0004FF022030CBF6FF000404FF00040CCF8F9
:1036C00000302AB9BDE8F08F07B1404242B106B1DF
:1036D000611E1160BDE8F08F002B08BF0823B0E722
:1036E000BDE8F08F3801001084463A482DE9F04FCC
:1036F000D0F800800E46344614F8015B08EB050054
:10370000407800F0080000F0FF0708B12646F2E715
:103710002D2D03D1B41C7578012703E02B2D04BF98
:103720007578B41C33F010000DD1302D08D12078FD
:1037300000F0DF00582847D165781023023402E0FA
:10374000002B08BF0A234FF0FF39B9FBF3F903FB45
:1037500009FA00266FEA0A0A304608EB050B9BF8C7
:1037600001B01BF0040F01D0303D0BE01BF0030B48
:103770001AD0BBF1010F14BF4FF0570B4FF0370BAE
:10378000CBEB05059D420FDA002E08DB484506D835
:1037900001D1554503DC03FB0050012601E04FF049
:1037A000FF3614F8015BD8E7002E05DA2223CCF8A7
:1037B00000304FF0FF3001E007B1404242B106B1A6
:1037C000611E1160BDE8F08F002B08BF0823BAE727
:1037D000BDE8F08F3801001051F8040C002802DA1F
:1037E00004390B581844043870470000F8B500BF7E
:1037F000F8BC08BC9E467047F8B500BFF8BC08BCD2
:103800009E467047770000004661696C65642074CD
:103810006F206F70656E20257320666F722077723F
:103820006974696E670A00004661696C656420749A
:103830006F20777269746520616C6C206F662074EC
:10384000686520627974657320746F207465737481
:103850002066696C652E0A00720000004661696C82
:10386000656420746F207265616420616C6C206FE8
:1038700066207468652062797465732066726F6D66
:1038800020746573742066696C652E0A0000000060
:1038900046696C65206461746120646964206D61AF
:1038A0007463682065787065637465642076616C04
:1038B00075652E0A000000000D0A546573742063BC
:1038C0006F6D706C657465640D0000006C6F6361F2
:1038D0006C0000002F6C6F63616C2F666F6F2E623F
:1038E0006172000000000000000000000000000005
:1038F000AD020000AD020000AD0200004504000072
:103900004D04000051040000790400000000000094
:1039100000000000000000008D040000A104000071
:10392000AD0200005D040000650400006D040000AD
:103930007104000000000000000000000000000012
:10394000D504000045060000E5040000ED04000079
:10395000F5040000FD04000009050000000000005F
:1039600000000000000000002101000035010000FF
:10397000D10600000D06000065040000AD05000042
:1039800071040000000000000000000000000000C2
:10399000390500001D050000510500006905000003
:1039A00079050000A505000071050000150600005E
:1039B00029060000000000002A0000002F73746434
:1039C000696E00002F737464657272002F737464E3
:1039D0006F7574000000000000000000000000008F
:1039E000AD020000AD020000AD020000AD0200001B
:1039F000AD020000AD0200002107000055070000E5
:103A000081070000000000003A25700045786365DA
:103A10007074696F6E00000016C00920000001403C
:103A20000100000047C00920000001400200000022
:103A3000FFFFFFFFFFFFFFFF0000000001C00920A4
:103A400000C009400200000003C0092000C000407F
:103A5000010000000BC009200080094001000000A7
:103A600010C0092000000140010000001AC0092018
:103A700000C009400300000041C0092000000140CF
:103A80000200000049C00920008009400200000037
:103A90009DC0092000C0094003000000FFFFFFFF98
:103AA000FFFFFFFF0000000000C0092000C0094028
:103AB0000200000002C0092000C000400100000018
:103AC0000AC0092000800940010000000FC0092041
:103AD000000001400100000019C0092000C0094099
:103AE0000300000040C00920000001400200000067
:103AF00048C0092000800940020000009CC0092045
:103B000000C0094003000000FFFFFFFFFFFFFFFFB1
:103B10000000000011C00920000001400100000069
:103B200042C009200000014002000000FFFFFFFF2B
:103B3000FFFFFFFF00000000636F756C64206E6F75
:103B4000742070696E6F75740000000070696E6D8E
:103B50006170206D69732D6D6174636800000000F1
:103B600070696E6D6170206E6F7420666F756E6423
:103B700020666F72207065726970686572616C0092
:103B80000000000000000000391500006915000069
:103B90000000000000000000000000000000000025
:103BA0000000000000000000000000000000000015
:103BB0000000000000000000000000000000000005
:103BC00000000000000000000000000000000000F5
:103BD00000000000000000000000000000000000E5
:103BE00000000000000000000000000000000000D5
:103BF00043000000D4000010686C4C00232D302BD3
:103C0000200065666745464700303132333435362B
:103C10003738394142434445460030313233343538
:103C20003637383961626364656600004A3C0000DB
:103C30004D3C0000503C0000412D46612D66383956
:103C400030313233343536375D002B2D00303000C3
:103C500078580000202020202020202020282828FC
:103C60002828202020202020202020202020202044
:103C7000202020208810101010101010101010108C
:103C800010101010040404040404040404041010AC
:103C90001010101010414141414141010101010149
:103CA00001010101010101010101010101010110F5
:103CB000101010101042424242424202020202021E
:103CC00002020202020202020202020202020210C6
:103CD0001010102000000000000000000000000094
:103CE00000000000000000000000000000000000D4
:103CF00000000000000000000000000000000000C4
:103D000000000000000000000000000000000000B3
:103D100000000000000000000000000000000000A3
:103D20000000000000000000000000000000000093
:103D30000000000000000000000000000000000083
:103D40000000000000000000000000000000000073
:083D500000000000000000006B
:103D5800000000008803001000D8B805000000002B
:103D6800903B0000B03B0000D03B0000000000008A
:103D7800000000000000000000000000F03B000010
:103D8800000000000000000000000000000000002B
:103D9800000000000000000000000000000000001B
:103DA800000000000000000000000000000000000B
:103DB800000000000000000000000000D400001017
:103DC800533C0000F100000025020000CD00000077
:0400000300000A5D92
:00000001FF
