:1000000000800010BD400000ED400000EF40000007
:10001000F1400000F3400000F54000000000000047
:10002000000000000000000000000000F740000099
:10003000F940000000000000FB400000FD4000000F
:10004000FF400000FF400000FF400000FF400000B4
:10005000FF400000FF400000FF400000FF400000A4
:10006000FF400000FF400000FF400000FF40000094
:10007000FF400000FF400000FF400000FF40000084
:10008000FF400000FF400000FF400000FF40000074
:10009000FF400000FF400000FF400000FF40000064
:1000A000FF400000FF400000FF400000FF40000054
:1000B000FF400000FF400000FF400000FF40000044
:1000C000FF400000FF400000FF40000010B5054C5D
:1000D000237833B9044B13B10448AFF300800123F4
:1000E000237010BDC001001000000000D4C5000046
:1000F00008B5064B1BB106480649AFF30080064819
:10010000036813B1054B03B1984708BD0000000018
:10011000D4C50000C4010010BC01001000000000A4
:100120002DE9F041C2B00D46064607F009FB4FF03D
:1001300000080746002D3BD0284603F083FF044605
:1001400000282CD0234907F022F90028F4D02046BB
:10015000214907F01CF90028EED0234639463246E3
:100160001E4806F0A7FE01944FF480711C4A3B46DE
:10017000009602A807F046F802A803F043FF0446E1
:100180000028D9D0214602A8FFF7CAFF204603F075
:100190005FFF284603F056FF04460028D2D1B8F18D
:1001A000000F02D0404603F053FF42B0BDE8F0819B
:1001B000304603F027FF054680460028BCD1094B96
:1001C00032461B680849D86805F0BEFE4FF0FF3084
:1001D00003F0E8FBC8AF000070AC000074AC000096
:1001E00084AC0000340100103CAC000010B5054A9E
:1001F000054B04460260C0F8583200F0DFFA204692
:1002000010BD00BF20B2000050B9000010B5064A72
:10021000064B04460260C0F8583200F0CFFA204680
:1002200004F0CDFF204610BD20B2000050B9000000
:100230002DE9F041804CC2B02368DA0740F1A0817B
:100240007E4C2368DB0740F1B481002506E07C4842
:1002500006F0A8FE2046013505F080FC794A2B46C1
:100260004FF4807102A806F0CDFF02A9764806F08F
:1002700021FE02A8754905F05DFE04460028E6D17E
:10028000734806F08FFE734806F08CFE55214FF43C
:100290008042714806F0FFF802A8704905F04AFE56
:1002A0000546002800F0CC8122466D494FF480437A
:1002B00006F020FF6B4803F0F5FC4024664801215E
:1002C0004FF480422B4606F035F8B0F5804F0646D5
:1002D00040F08381013CF1D1624803F0EDFC074618
:1002E000284605F043FF8046284605F037FC3A468D
:1002F00041465D4806F0DEFD404605F01FFA054622
:10030000384605F01BFA594905F024FB01462846FA
:1003100005F020FB054605F0DFF802460B46544881
:1003200006F0C8FD28464FF0565105F05FFA05F07B
:10033000D3F802460B464F4806F0BCFD4E4806F087
:1003400031FE02A8414905F0F5FD0546002800F000
:10035000478122463346424906F0CCFE414803F02D
:10036000BFFC3D4801214FF480422B4605F050FE72
:10037000B0F5804FF5D0284605F0F8FB064600287A
:1003800040F0F380374803F097FC0446284605F018
:10039000EDFE224601460746384806F08BFD3846FA
:1003A00005F0CCF90746204605F0C8F92F4905F0BD
:1003B000D1FA0146384605F0CDFA044605F08CF82E
:1003C00002460B462A4806F075FD4FF0565120466E
:1003D00005F00CFA05F080F802460B46254806F0B9
:1003E00069FD274806F0DEFD28463146324605F015
:1003F00021FE002840F01D81174EAA214FF48042B3
:10040000154806F048F8144801214FF480422B4665
:1004100005F0FEFDB0F5804F044606D0284605F0F5
:10042000A5FB002840F0A180B4B33378552B40F0F1
:10043000CD8000222AE000BF80040010E8010010F7
:10044000DCAC000090AC0000A0AC0000B0AC000040
:10045000B4AC0000BCAC000000C00720D8AC000069
:1004600000000820DC01001020AD000000007A44EC
:1004700044AD000058AD000068AD0000BCAD000008
:10048000E0AD0000B15C552940F0A08001329442FB
:10049000F8D8B4F5804FB0D0284605F067FE014685
:1004A0007B4806F007FD284605F058FB794806F022
:1004B00079FD794902A805F03DFD0021044602229C
:1004C00005F0B8FD204605F051FEB0F5801F01464D
:1004D00040F09F80204605F041FB704806F062FD29
:1004E0006F4803F077FD6F4803F074FD6E4803F02A
:1004F00071FD00216C4803F0B1FD0146002840F079
:100500009180684803F0AAFD0146002840F0A380CE
:10051000634803F0A3FD0446002840F0A38063482D
:1005200006F040FD21466248FFF7FAFD614806F0FB
:1005300039FD5B4803F04EFD002840F09A80594891
:1005400003F048FD002840F09B80574803F042FD2F
:10055000002850D1584806F025FD02A803F03AFDC6
:1005600000284FD142B0BDE8F081544802A906F0FE
:10057000A1FC002006F096FC4FF0FF3003F012FAC9
:10058000204604F020FE00283FF45AAE4C4A4D4B62
:100590004D498DE80C004D4802324D4B02F0CCFC29
:1005A000204604F01EFE4B494B4A484804F002FE28
:1005B00046E6204604F007FE00283FF446AE4748D2
:1005C00003F064FB204604F00CFE3EE6444806F0CF
:1005D00071FC4FF0FF3003F0E5F902A94148C6E78E
:1005E00002A9414806F066FC204606F05BFC4FF08D
:1005F000FF3003F0D7F93D4806F054FC4FF0FF30D0
:1006000003F0D0F93A4806F04DFC4FF0FF3003F00C
:10061000C9F938484FF4801206F04CFC4FF0FF3017
:1006200003F0C0F9344806F03DFC4FF0FF3003F012
:10063000B9F9324806F036FC4FF0FF3003F0B2F95A
:1006400002A92F4806F036FC284606F02BFC4FF096
:10065000FF3003F0A7F92B4806F024FC4FF0FF30E1
:1006600003F0A0F9284806F01DFC4FF0FF3003F01E
:1006700099F9264806F016FC4FF0FF3003F092F986
:10068000234806F00FFC4FF0FF3003F08BF900BF5A
:1006900070AE000088AE0000B0AC000000AF0000FB
:1006A00014AF000024AF000034AF0000B0AF000072
:1006B000CCAF0000D0AF000058B000009CAD0000EF
:1006C00006C009208CAC000009C00920F001001010
:1006D00007C00920ED010000C8000010DC01001077
:1006E00044AE000000AD000080AD000034B000005A
:1006F0006CB00000C0AE000044AF000018AE0000B7
:10070000E4AC000068AF00008CAF0000ECAF00006C
:1007100010B000000748084A08B5121A002105F079
:10072000BAFEAFF3008005F015FEFFF781FD03F080
:1007300039F900BFC0010010A8080010022801DC30
:100740000120704703F00EBCEFF3058303B100BE38
:1007500005F088BEEFF3058303B100BE05F08ABE45
:1007600008B5012003F01EF908B5FFF7F9FF00BF37
:10077000002070470020704700207047014608B5F0
:10078000103190F8400201F091FA003018BF0120BA
:10079000404208BD036810B59B6B0446984701466C
:1007A00040B994F8400201F081FA003018BF0120EE
:1007B000404210BD4FF0FF3010BD00BF094B0A4949
:1007C0001A6810B582420446016004D0204603F046
:1007D000C3F9204610BD0022104611461A6001F0F0
:1007E00065FAF3E78404001090B0000010B50446E9
:1007F000FFF7E4FF204604F0E2FC204610BD00BFF6
:1008000010B58AB001A801F003FE50B94FF49470FE
:1008100004F0EAFC01A9044602F07CFF20460AB07D
:1008200010BD00200AB010BD08B5084601F0CAFE90
:10083000003018BF0120404208BD00BF08B50021AC
:100840004FF4007290F8400202F06AF8003018BFCE
:100850000120404208BD00BF08B50846114601F01E
:10086000BBFF003018BF0120404208BD08B5084654
:1008700001F03CFE003018BF0120404208BD00BF1F
:1008800030B5D0F84052ADF2A46D0B46144686A8A0
:100890002A461F4906F0E8FCA50730D414F0010FE2
:1008A0000CBF01220222A00505D561054CBF42F014
:1008B000080242F0100286A996A801F007FA28BBA8
:1008C00023071ED40DF27C4496A94FF409722046EA
:1008D00005F0D8FD4FF40A7004F086FC0DF5916127
:1008E00005464FF40672684605F0CCFD94E80E000C
:1008F000284602F085FF28460DF2A46D30BD032284
:10090000D1E796A8999901F0BFFCDBE70020F3E757
:10091000D0B0000010B582B001A803F0A1F801A882
:1009200005F03EFDC268816814040368426844EA29
:10093000C121446941EA421203EBD373006942EAE0
:100940006302A4F1500342EA4363013043EA40509A
:1009500002B010BD38B504460D4603F015F9094B39
:10096000094A1868226028B12946084803F008F8A7
:10097000204638BDC4F8400204F110011C6001F0AB
:1009800095F9F5E78404001090B00000D8B000009D
:100990002DE9F041C56A04468D420E4602D0037926
:1009A00073B916B90020BDE8F081607804F1300118
:1009B0003246012302F090FF20BBE662BDE8F081E1
:1009C00000F13008414640782A46012302F096FFA4
:1009D000C0B9E369226A20711A449542E1D2E778EE
:1009E000012F01D8DDE7E3691D44013F2A46607805
:1009F00041460123FFB202F081FF012FF3D1002E07
:100A0000D0D0D2E70120BDE8F08100BF08B503686F
:100A10000BB11A780AB9092008BD8288D988914299
:100A2000F9D1587802F04CFF10F0010F0CBF0020F4
:100A3000032008BDF8B503690E4601F10905002B36
:100A40004DD04469002294F80CC00CF00807FFB2A6
:100A5000A35C0132202B0DD0052B08BFE523A3F1A9
:100A600041011FB119299CBF2033DBB2082A05F8C8
:100A7000013BEDD1237A202B1AD029460CF0100C23
:100A80002E235FFA8CFC01F8043B0135E21D12F8BD
:100A9000013F202BA3F141070AD0BCF1000F03D086
:100AA000192F9CBF2033DBB205F8013B8D42EED1FC
:100AB000E37A3372A37FE27F217F1B0443EA026360
:100AC000627F0B4343EA02233360627E237E43EA64
:100AD0000223B380E27DA37D43EA0223F380002456
:100AE0002C70B56935B1F36923B103691BB90024D2
:100AF00000232B55F8BD028C4FF6FF739A42F6D0B7
:100B0000C769388860B9F2E7F369013B9C42EED2CD
:100B100001342B1903F8010C37F814000028E7D032
:100B2000002102F085FE0028EED1E0E72DE9F84F24
:100B300000210546FFF72CFF034650B92B78032B05
:100B40000AD0002168780A4602F0EAFE031C18BFAA
:100B500001231846BDE8F88F6B79002BF1D005F121
:100B60003001E8620B4605F50C7203F8010B934265
:100B70004FF00004F9D12A69EB68C2F3072B4FEA62
:100B8000124A4FEA134C4FEA136E52204FEA126991
:100B9000C3F3072885F8182285F819B261224FF0AF
:100BA000410B85F81AA255274FF0720AAA2685F83C
:100BB0001C3285F8300085F8310085F8322085F840
:100BC000172285F81B9285F81D8285F81EC285F8CC
:100BD0001FE285F82E7285F82F6285F833B085F80C
:100BE00016B285F814A285F815A268786A690123FF
:100BF00002F084FE6C71A4E710B504460A46407802
:100C000004F13001012302F067FE08B1032010BD9A
:100C100094F82F1294F82E22174B42EA012212B2B6
:100C20009A4201D0022010BD94F8683094F86920EF
:100C30001B0494F8661043EA026394F867200B43A0
:100C400043EA02220D4B22F07F429A42EBD094F805
:100C5000842094F8850094F88210120442EA00621D
:100C600094F883000A4342EA002020F07F40C01A33
:100C700018BF012010BD00BF55AAFFFF4641540018
:100C8000F8B5036815461C78303C092C02D85A7810
:100C90003A2A13D000230B60B14B1C68FCB10C60E6
:100CA00023789BB1607802F00BFEC2070ED4EDB141
:100CB00010F0040F0CBF00200A20F8BD0233002200
:100CC00003600A60002CE7D00B20F8BD00202070E4
:100CD000607002F0E9FDC30703D50320F8BD0C20C6
:100CE000F8BD2DB1470703D50A20F8BD2846F8BD49
:100CF00020460021FFF780FF012806D000250328A9
:100D000000F0B080C0B10D20F8BD94F8F231002B96
:100D1000F9D094F8F82194F8F91194F8F631120406
:100D200042EA016294F8F751134343EA0525294644
:100D30002046FFF761FFE2E794F83C2094F83B304F
:100D400043EA0223B3F5007FDDD194F8471094F80D
:100D5000463053EA01210DD194F8562094F85710EB
:100D6000120494F8543042EA016294F85510134387
:100D700043EA012194F84000E161431E012BE07039
:100D8000C1D894F83D30A370002BBCD05A1E1A4233
:100D9000B9D194F8426094F8412042EA062216073D
:100DA0002281B0D194F8447094F8436056EA072643
:100DB0000ED194F8527094F853C03F0494F85060E8
:100DC00047EA0C6C94F851704CEA060646EA07268E
:100DD00094F83FC094F83E7057EA0C2793D000FB7C
:100DE00001FC07EB1210604486428CD3361AB6FB26
:100DF000F3F3002B87D040F6F576B34240F2AD8096
:100E00004FF6F576B34200F28D8002260233284475
:100E10002F44A361A0622762002A3FF474AF6744A5
:100E2000022E67627CD003EB430203F0010303EB65
:100E30005203012603F2FF13B1EB532FFFF463AF0C
:100E40004FF0FF320023032E2261E3600CD0454AAD
:100E500000201388267001339BB220711380E38039
:100E6000E062F8BD0120F8BD94F8611094F86020AC
:100E7000637142EA01222A446261607804F1300120
:100E8000012302F029FD0028E1D194F82F1294F8F3
:100E90002E22354B42EA012212B29A42D7D194F85F
:100EA000322094F8331094F83030120442EA016290
:100EB00094F831101A432D4B42EA01229A42C6D1CE
:100EC00094F8162294F8171294F81432120442EA95
:100ED000016294F815121A43254B42EA01229A4204
:100EE000B5D194F81E0294F81A1294F81F7294F86F
:100EF0001B520004090494F81C2294F8183240EAAA
:100F0000076741EA056594F81D0294F819123A43FF
:100F10002B4342EA002243EA0123E260236196E781
:100F20005B0087E7023328442F44A361A062276255
:100F3000002A7FF4E8AE94F85E0094F85F60000445
:100F400094F85C2040EA066694F85D00324342EA79
:100F500000229B00626203266CE7012656E700BF71
:100F60008C0400108804001055AAFFFF5252614102
:100F700072724161F8B503780446022B0D4646D0E3
:100F8000032B28D0012B02D04FF0FF30F8BD016AAF
:100F900005EB550601EB5621FFF7FAFC0028F3D1CB
:100FA000216AC6F308030136234401EB562120468B
:100FB00093F83070FFF7ECFC0028E5D1C6F3080683
:100FC000344494F8303047EA0320EB074CBF000963
:100FD000C0F30B00F8BD016A01EBD511FFF7D8FC97
:100FE0000028D1D1AD0005F4FE7505F1300323448E
:100FF000D87899785A782C44000694F8303040EA32
:10100000014040EA0220184320F07040F8BD016A18
:1010100001EB1521FFF7BCFC0028B5D16D0005F4EC
:10102000FF7563191C4694F8310093F8303043EA99
:101030000020F8BD836870B5012B04460D46E180A1
:1010400003D000688269934201D3022070BDB3B916
:101050000378032B10D003890022AB42E260F4D95D
:10106000436A03EB1513236105F00F05303000EBE5
:1010700045106061002070BD436A002BEBD086787C
:101080003601B54219D3012BDFD9AD1B9A42ADB25F
:10109000DBD908E00128D8D9206882699A42D4D9DE
:1010A000AE420AD80D461946FFF764FFA91B421C41
:1010B000034689B2EED1012070BD991E023A9142D9
:1010C000E3603BBF8278836A002102FB013101EBC0
:1010D00015112161C8E700BFF8B503780446022B5B
:1010E0000D46164659D0032B38D0012B03D00220D1
:1010F00001232371F8BD016A05EB550701EB572168
:10110000FFF746FC0028F3D1C7F3080315F00105EB
:10111000234456D093F83020F0B202F00F0242EA96
:101120000010C0B2216A0137012283F8300001EBC0
:10113000572122712046FFF72BFC0028D8D1C7F396
:101140000807002D3FD1274497F83030C6F3032617
:1011500023F00F031E4387F83060C9E7016A01EBF3
:10116000D511FFF715FC0028C2D1AD0005F4FE75BE
:1011700005F130032344DA782544120602F0704268
:101180001643C6F30727310C320E85F830605F70C6
:101190009970DA7001232371F8BD016A01EB152102
:1011A000FFF7F6FB0028A3D16D0005F4FF75621967
:1011B000C6F3072382F83130012382F830602371AF
:1011C000F8BDF0B2AEE7C6F307162744C3E700BF89
:1011D000F8B505460F46F9B9C668836956B39E420D
:1011E00028BF0126344610E0012E25D9022B11D943
:1011F000022428462146FFF7BDFE20B3411C1FD024
:10120000012807D0A64217D0AB6901349C42EBD22B
:10121000012CEED80120F8BD0129FBD98369994240
:10122000F8D2FFF7A7FE0128F4D9AB698342F2D8C0
:101230003E46D7E70126D5E70020F8BD0128E9D1D1
:101240004FF0FF30F8BDAB69A342E3D928462146F1
:101250006FF07042FFF740FF0028EFD15FB1012F20
:10126000D8D9AB699F42D5D2394628462246FFF7E6
:1012700033FF0028E2D12B69EC605A1C05D0012213
:10128000013B6A712B612046F8BD2046F8BD00BFC6
:101290002DE9F047C58804460135ADB20E4615B9B3
:1012A0000420BDE8F0870369002BF9D015F00F0783
:1012B00008D00368303303EB47176761E5800020EF
:1012C000BDE8F087C16801330361036861B19A78B2
:1012D000013A12EA1512EDD1012902D99A69914217
:1012E00006D30220BDE8F0871A89AA42D8D9E1E7DF
:1012F0001846FFF73FFE01288046F2D9B0F1FF3FC4
:101300001BD023689A6982420CD9861E023A964203
:10131000C4F80C803BBF99789A6A002601FB062628
:101320002661C7E7002EBBD01846E168FFF750FFE3
:10133000804628B90720BDE8F0870120BDE8F08786
:101340000128CED0B0F1FF3FF7D020680021FFF791
:101350001FFB0028F1D12268014602F1300302F59B
:101360000C7203F8011B9342FBD12268A8F102061C
:1013700093694FF00009023B9E423BBF936A91780C
:10138000002301FB06334FF0010AD3620CE082F820
:1013900004A02068FFF7FCFA09F101090028CCD16C
:1013A0002268D36A0133D36292F802C05FFA89F0EF
:1013B00084454FF000011346E9D8D16A9269091AB1
:1013C000D962A3E72DE9F843FF26044635460420F9
:1013D000424F09E0BCF10F0F1ED0FF25204600212F
:1013E000FFF756FF00284DD1216900294ED0206813
:1013F000FFF7CEFA002845D162691378002B40D060
:10140000E52BD17AE9D02E2BE7D001F03F0C09076C
:10141000E0D4BCF10F0F49D159062FD5E188567B96
:1014200003F0BF05218492F80DE0B645D5D11178BF
:10143000D4F81C8001F03F01013901EB4100284B39
:1014400001EB80004FF0010C4FF6FF7907E0FE281A
:1014500011D828F810108C460130BB421AD013F86E
:10146000011F56187678515C41EA0621BCF1000F45
:10147000EDD14945F1D07646FF25AFE79D42ACD18D
:10148000D1E7042000232361BDE8F8830028F9D1C7
:10149000BDE8F88313785B0604D5FE28EBD800235B
:1014A00028F81030013DEDB2764697E78DB902F18C
:1014B0000A07014601E012F8013FCD0105EB610189
:1014C0001944BA4201F0FF01F5D18E4201D1BDE8C5
:1014D000F8834FF6FF732384BDE8F88318B100004A
:1014E0000BB10000F8B5018CC5884FF6FF73994227
:1014F00008BF29460446FFF79DFD0346C8B9E52706
:1015000001260AE06269177022681671E288AA4211
:101510000FD2FFF7BDFE034640B921692068FFF7EF
:1015200037FA034601462046002BEBD0042B08BFB8
:1015300002231846F8BD00BF2DE9F04FFF2683B007
:101540004F4F0546B04609E00F2943D04FF0FF0842
:1015500028460021FFF79CFE002838D12868296919
:10156000FFF716FA002832D16C692378002B68D077
:10157000E27AE52B02F03F01E8D01207E4D40F290C
:1015800028D0B8F1000F11D19C46224604F10A0878
:10159000034601E012F801CFD90101EB6303634474
:1015A000424503F0FF03F5D1B34210D04FF6FF726E
:1015B000AB692A84DA7AD207C8D403F10B0C14F889
:1015C000011B13F8012B9142C0D16345F7D103B041
:1015D000BDE8F08FEA69002ABAD059062ED5E9880D
:1015E000667B03F0BF08298494F80DA0B245ADD105
:1015F0002378244E23F04003013B03EB430903EB24
:10160000890901214FF6FF7B03E0584512D1BE4204
:1016100027D016F8013FE0184078E35C43EA002049
:101620000029F2D0009202F029F9B9F1FE0F01462B
:10163000009A0AD956464FF0FF0889E7434585D1FD
:10164000D2E7042003B0BDE8F08F32F81900019111
:1016500002F014F90199009A8142EBD109F10109D4
:10166000D5E72378580604D519B132F81930002B84
:10167000E0D108F1FF385FFA88F8564668E700BF06
:1016800018B100000BB10000F8B504460D46012763
:10169000A36929469D4220D2012D0BD92046FFF790
:1016A00069FC0646C8B1012804D0411C17D0A369C3
:1016B0009D4201D30220F8BD294620460022FFF7B3
:1016C0000BFD68B9236935465A1CE1D0013323610B
:1016D000A36967719D422946DED30020F8BD012031
:1016E000F8BD00BF2DE9F04F0B7883B02F2B8A4651
:1016F000064600F03F815C2B00F03C810024B46082
:101700009AF800001F2802D83DE11AF8010F2F288F
:10171000FBD05C28F9D01F28F76940F2FF802F2802
:101720002FD05C282DD00121BD1E54464FF0010959
:1017300002F07EF808B37F2809D822281DD09D4AE0
:1017400001E0984219D012F8013F002BF9D125F899
:10175000020F14F8010F09F101031F2840F2E18084
:101760002F2811D05C280FD0B3F5807F05D0012140
:10177000994602F05DF80028DDD1062003B0BDE8EF
:10178000F08F4FF0000901239A440025B9F1000FB2
:10179000F3D007EB490030F8022D202A01D02E2A81
:1017A00003D1B9F10109F6D1E7E7B369002227F8BF
:1017B000192003F10B0107EB490E202203F8012B3E
:1017C0008B42FBD1BB1E002400E0013433F8020F32
:1017D0002028FAD02E28F8D00CB145F00305734626
:1017E00033F8022D2E2A02D0B9F10109F8D14FF0B9
:1017F000000BD8460823013430B3202867D02E28A8
:1018000063D09B4566D2A14500F0C9807F2872D87D
:101810002B287FD0684A01E088427BD012F8011F54
:101820000029F9D1A0F14101192900F2908048F076
:101830000208C0B2B16901F80B000BF1010B37F8D7
:10184000140001340028D8D1B1690878E52800F0E7
:10185000A280082B04BF4FEA88025FFA82F808F0E2
:101860000C030C2B00F0838008F0030003287ED0CB
:10187000A80709D408F00302012A08BF45F01005A3
:10188000042B08BF45F00805CD7230460021FFF754
:10189000D1FB002848D13046FFF74EFEB369DB7A12
:1018A000002843D159073FF569AF7369DA7AD20648
:1018B0007BD53168D87E09789A7E032942EA0022D6
:1018C0003ED0B2609AF8000021E7A14567D045F00C
:1018D0000305B4E70B2B64D0A14503D04C4545F07C
:1018E0000305B1D84FEA88025FFA82F84C460B2311
:1018F0004FF0080BA3E70021019301F099FF019B32
:1019000078B32E4A45F00205104410F8800C0028E8
:101910007FF47EAF45F003055F208BE74FF00009B1
:1019200001239A44042531E7B369DB7A04287FF464
:1019300025AF13F0040F08BF052003B0BDE8F08FFA
:10194000597D1B7D43EA012342EA0342B9E7A0F136
:101950006101192997BF2038C0B2C0B248F0010810
:1019600068E745F0020545F003055F2062E745F0B2
:1019700002057DE700240AF1010AB4609AF800002C
:101980001F283FF6C4AE30462146FFF753FB746173
:1019900003B0BDE8F08F05200870B16959E70B2B43
:1019A000A0D145F003050B234EE7052003B0BDE8A9
:1019B000F08F00BFB4B10000C0B100001CB1000046
:1019C00070B401F10B0683B0044611F8015BB1421B
:1019D00004F8015BF9D1052B0BD9148800E00C4603
:1019E000D90301EB530332F8021F23449BB20029B1
:1019F000F5D1072203F00F0404F13001392902F177
:101A0000FF3200AD88BF04F1370115441B0969702E
:101A1000F0D102A97E24114401F8084C02B30178E8
:101A2000202913D0014603E011F8014F202C0DD0DE
:101A300001339342F8D1072A0AD802A9114411F8B8
:101A4000081C0132C1540133072B06D8072AF4D9E8
:101A50002021C1540133072BF8D903B070BC704763
:101A60001346F3E72DE9F04F876987B0C66904464E
:101A7000791E03AB11F8012F03F8012B06AA93423C
:101A8000F8D19DF81730DA0727D50023FB7201251E
:101A9000E36108E0FFF750FD01350146ADB280B9C2
:101AA000642D00F0FC80384603A932462B46FFF730
:101AB00087FF00212046FFF7BDFA01462046002996
:101AC000E8D0042903D0084607B0BDE8F08F9DF8A0
:101AD0001730FB729DF81730E6619B0700F1C78055
:101AE000012720460021FFF7A5FA0028ECD1804607
:101AF000054606E01D46FFF7CBFB0346002840F0F5
:101B0000CA8021692068FEF743FF03466E1C204609
:101B10000121002B40F0BF8062691278E52A01D0D4
:101B2000002AE7D10DB9B4F80680B5B2AF42E2D1D0
:101B3000012F79D041462046FFF77CFA0346002862
:101B400040F0A980A269814602F10B0112F8013B25
:101B500003EBC91303EB59098A4209F0FF09F5D1D8
:101B6000013FBBB2DFF84081CDF80490A1461C468E
:101B7000D9F80000D9F81010FEF70AFF0346002834
:101B800040F08980D9F814500F265FFA84FBD9F809
:101B90001CA00BF1FF32EE72019E02EB420102EB40
:101BA000810128730246A876E8766E734FF6FF77B8
:101BB000FF2012E03AF8113018F8026001324FEAC3
:101BC000232CAB5505EB060E002B08BF3B460D2A18
:101BD00001F101018EF801C00BD0BB42EAD118F827
:101BE0000260013205EB060E0D2AA8558EF80100A1
:101BF000F3D14FF6FF72934202D03AF811300BB98D
:101C00004BF0400B85F800B0D9F8003001221A7172
:101C100048460021FFF73CFB00287FF455AF013C0C
:101C2000A4B2002CA4D14C4620682169FEF7B0FE76
:101C300000287FF449AF656905F120022B4603F8BF
:101C4000010B9342FBD1A26905F10B002B4612F860
:101C5000011B03F8011B8342F9D1A3690122DB7A3E
:101C6000002003F018032B7323681A712CE73388C4
:101C7000002B3FF435AF002301339BB236F813201D
:101C8000002AF9D1074F193387FB0367DB17C3EB32
:101C9000A707BFB225E7184607B0BDE8F08F0720B9
:101CA00012E700BF4FECC44E0CB1000008B10B208E
:101CB0007047054B1A6802B1107009B100220A7012
:101CC00019600020704700BF8C0400102DE9F0411E
:101CD0008EB004460191154658B10023036005A952
:101CE00001A802F01E02FEF7CBFF30B10EB0BDE836
:101CF000F08109200EB0BDE8F081534A02AB05A87F
:101D000001990C920B93FFF7EDFC05F01F070A9E5B
:101D100080B115F01C0FE9D00428E7D105A8FFF722
:101D2000A1FE47F008070A9E0028DFD1380747D4F4
:101D3000059B16E0002E39D015F01C0F38D1F37A30
:101D4000D90605D4AA0705D5DB0703D50720CDE7BB
:101D50000420CBE705F00802D2B2059B0AB147F098
:101D60002007DA6A2662E261A7711978F07EB27EF6
:101D7000032942EA002212D02261B17FF07F327F34
:101D8000090441EA0061707F1143DA8841EA0021C9
:101D90000020E1602360A280A060A061A6E7707DC2
:101DA000317D41EA002142EA0142E5E70620B0E741
:101DB000F37A13F0110FC9D16D07B7D5082095E755
:101DC000FEF7A8FD0022050C010EC0F3072C059BB1
:101DD00035747174B07386F80FC0F272327772770F
:101DE000B277F2771A78F57EB17E032A41EA0525AB
:101DF00011D000220121B276F27632757275197116
:101E0000002DACD08D42D3F82C8002D99A6995422E
:101E100008D302206AE7717D327D42EA012245EA59
:101E20000245E6E718462946FFF72EFC00287FF416
:101E30005DAF0598013D4146C560FEF7A9FD00284C
:101E40007FF454AF059B8AE7900400102DE9F04F12
:101E50009946002383B0C9F800308A4614460646E6
:101E6000FEF7D4FD28B9B3791F0605D4DD0707D4E2
:101E7000072003B0BDE8F08F022003B0BDE8F08F6B
:101E8000B568F36806F124085B1B9C4234BF274603
:101E90001F46002F4BD0C5F30804002C67D13368D0
:101EA0009A78013A02EA552212F0FF0274D0716961
:101EB00098690239023881427ED298789C6A00FB88
:101EC0000144002C78D05FEA572B144431D002EB48
:101ED0000B01814288BFC2EB000B51465878224665
:101EE0005FFA8BF301F0F8FCB379002873D1580640
:101EF0000ED5B3691C1BA3450AD90AEB442404F58B
:101F00000072454615F8013B04F8013B9442F9D1B3
:101F10004FEA4B21B5680AEB0103D9F800200D44C4
:101F20000A447F1AB5609A46C9F80020B3D1002050
:101F30009FE7B269A24216D0B17949060BD558780D
:101F40004146012301F0DAFC002843D1B27933681D
:101F500022F04002B271587841462246012301F036
:101F6000BBFC002836D1B568B461C5F30804C4F5DC
:101F70000071B94228BF39463444243453460029FD
:101F8000CBD00AEB0103524614F8015B02F8015B67
:101F90009A42F9D1B568C0E745B9306901280BD933
:101FA000441C17D033687061014681E771690129CB
:101FB00002D99869814207D3B379022063F07F0385
:101FC000B37103B0BDE8F08F18460192FEF7D2FF5F
:101FD000019AE3E7B37963F07F030120B37148E727
:101FE00070B50446FEF712FDD8B9A27902F02003BD
:101FF00003F0FF00ABB153060DD5214651F8243B49
:10200000A2695878012301F079FC002839D1A3791D
:1020100023F04003A3712068E169FEF7B9FC06468E
:1020200000B170BD256AEB7A43F02003EB72E368E0
:102030002B77A3891B126B77E389AB77E37BEB7775
:1020400023691A0C1112C3F30720AB762A75697540
:10205000E876FEF75FFCC0F30721020C030E2A7638
:10206000A875AE74EE74E9756B76A179236821F0DA
:1020700020010122A1711A712068BDE87040FEF7AD
:1020800055BD012070BD00BF2DE9F04F9B460023D8
:1020900083B0CBF80030894690460746FEF7B6FC81
:1020A00028B9BA79140605D4910707D4072003B0DC
:1020B000BDE8F08F022003B0BDE8F08FF96818EB9F
:1020C000010F0CD3BB6805468B4242F0200288BF4B
:1020D000FB60BA71002D40F0BC800020E7E7B8F14A
:1020E000000F00F0C68007F12402BB68054601928C
:1020F000C3F30804002C6CD13A689678013E06EAD6
:10210000532616F0FF0611D1002B40F08580386968
:10211000002800F08C80012800F0A580421C00F00F
:102120009C80BB6878613A6803B10125BB795B0686
:1021300065D47B699169023B02398B4280F09380C0
:102140009178946A03FB0144002C00F08C805FEAD4
:10215000582A344433D006EB0A038B4288BFC6EBBF
:10216000010A5078494622465FFA8AF301F0C6FB1D
:10217000002872D1BB691C1BA2450ED909EB44246F
:10218000019D04F5007314F8016B9C4205F8016B86
:10219000F9D1BB7923F04003BB71BB684FEA4A20F9
:1021A0000125DBF8002003440244B8EB0008BB60C3
:1021B0008144CBF800209BD1F968BA7984E7BB69E8
:1021C000A342BB6802D0F9688B4239D3BC61C3F328
:1021D0000804C4F50070404528BF40463C44243400
:1021E00040B121184B4613F8012B04F8012B8C4207
:1021F000F9D1BB68BA7942F04002BA71D1E75078A0
:1022000001230199BA6901F079FBBB7930BB23F056
:1022100040033A68BB718CE710467969FEF7D8FF36
:1022200000287FF478AFBB68F968BA794CE71046AC
:102230003146FEF7CDFF386100287FF46CAFF2E73E
:10224000507801992246012301F046FB28B9BB686A
:10225000BCE73846FFF7C4FE3FE7BB7963F07F0376
:102260000120BB7123E7BB79022063F07F03BB71C0
:102270001DE74546BB6827E710B50446FFF7B0FEEB
:1022800000B9206010BD00BF70B50D460446FEF7D2
:10229000BDFB002847D1A3791E0645D4E268AA42B7
:1022A00003D213F0020F08BF15460023A268A360F3
:1022B000002D3BD020688678760242B1013A691E33
:1022C000B2FBF6F3B1FBF6F1994280F0828021690E
:1022D000002900F084806161002929D1A3680D469E
:1022E000C3F30802002A00F08380A269AA427FD0CB
:1022F000A3795B065ED404F124062368314658783E
:102300002A46012301F0E8FA00284DD1A368E268CB
:10231000A5619A4206D2A279E36042F02003A3713C
:10232000002070BD002070BD022070BD284670BD29
:10233000B5426AD92068A379AD1B9A0709D401294F
:1023400002D982698A422BD863F07F03A3710220ED
:1023500070BDFEF73DFF0146002855D04A1C23D032
:1023600001294DD920688369994249D2A368AE42B8
:1023700033446161A360DED32B44C5F30802A3603C
:10238000002A3FD026688A1EB0690238824231D2C4
:10239000B078B16A00FB021262B302EB55259FE7E9
:1023A000FEF7E8FD0146D9E7A37963F07F03A37147
:1023B000012070BD236804F12406587831460123BA
:1023C00001F09CFAA3790028EFD123F04003A37118
:1023D00093E773421A40A260AD1A61697CE7FEF789
:1023E000F7FE0128014605D00130DDD0216172E7FA
:1023F000E2688EE7A379022063F07F03A37170BDCA
:10240000A379A1E715466BE73546A368B4E700BF9B
:1024100030B587B00446019150B101A82146002291
:10242000FEF72EFC256830B10023236007B030BDD5
:10243000092007B030BD154A03ABE261A361204615
:102440000199FFF74FF990B9636953B1DA7AD2066F
:1024500012D52978D87E9A7E032942EA00220DD02F
:10246000A260EB882046A3800021FEF7E3FD04284C
:1024700002D00028DAD0D7E70520D5E7597D1B7DAB
:1024800043EA012342EA0342EAE700BF9004001056
:1024900070B584B00E460546FEF7B8FA044658B942
:1024A000DEB1114A01ABEA61AB612846FEF78AFF53
:1024B000042804D020B10446204604B070BD2C612D
:1024C00031462846FEF7B6FA28460021FEF7E0FE20
:1024D0000428F0D100232B61EEE721462846FEF7C1
:1024E000A9FD0446E8E700BF9004001030B599B09C
:1024F00018AB43F85C0D184606A90122FEF7C0FB95
:1025000008B119B030BD2E4A03AB06A801990D924F
:102510000C93FFF7E7F80028F3D10B9B002B4AD070
:10252000DA7A12F0010F0CBF00200720069ADD7E38
:102530001278997E032A41EA05252AD00028E0D1A5
:10254000DB7ADB0617D5012D21D90FA8034606AC8F
:1025500014F8012B844203F8012BF9D12046022103
:102560001195FEF767FD0028CBD12046FEF72AFF24
:1025700018B30428C5D106A8FEF7B4FF0028C0D1BF
:10258000ADB1012D069802D983699D420AD302207C
:10259000B7E7597D1A7D42EA012245EA0245002843
:1025A000AFD1CDE72946FFF76FF80028A9D10698EB
:1025B000FEF7BCFAA5E70620B8E70720A1E700BFB1
:1025C000900400102DE9F04F97B016AC44F8340D8C
:1025D000FEF7A0F9012207460DA92046FEF750FBA1
:1025E0000246044618B1104617B0BDE8F08F794A8C
:1025F0000AAB0DA8099914921393FFF773F80246DA
:10260000A0B10428EFD10D982146FEF7E1FD064662
:1026100088B90722012E0D98E5D983699E42E2D23E
:1026200031460192FFF730F8019ADCE708221046A4
:1026300017B0BDE8F08F012801D10222EAE7431C60
:1026400008BF0122E6D021460D98FEF7A1F9024607
:102650000028DFD10D99B31E88690238834203D266
:1026600088788A6A00FB032201F130052B4601F5C8
:102670000C74002003F8010BA342FBD101F13B0EC7
:102680002B46202003F8010B7345FBD15FFA87FE30
:10269000CDF808E0C7F3072E4FEA164BCDF80CE053
:1026A000C7F3074E3F0E5FFA8BF30597F7B2089317
:1026B0000697C6F307270797089F2E2381F84470D3
:1026C00081F830301F46029B102081F84630039B72
:1026D0004FEA1B2B81F84730059BCDF810E081F8BD
:1026E0004930069B81F83B0081F84A30079B81F80E
:1026F00048E081F84B3081F845B001F1500328469D
:1027000001F1700E01E010F8017F03F8017B7345C1
:10271000F9D12E230D9881F8513003780F9F032BA8
:1027200050D03B0C5FFA83FE5FFA87FC1B0AC7F3AD
:10273000072781F86AC081F86B7081F864E081F83E
:1027400065308378E3B1013B5FFA83F808F1010853
:10275000904401274FF00009C2620771002102F185
:10276000010AFEF715F948B92B4603F8019BA3426D
:10277000FBD1C24504D052460D98EDE7024649E729
:102780000DA8FFF76FF9024600287FF443AF129BB4
:10279000029C039F9C75049CDF751C76059F069C1C
:1027A0000D9A5F769C76079F089C10200121D872B5
:1027B000DF761C7583F815B010461171FEF7B6F977
:1027C000024610E7436ABB42ABD100239E461F4638
:1027D0009C46AEE79004001030B59FB01EAB43F8A6
:1027E000740D0C4618460CA90122FEF749FA08B1EF
:1027F0001FB030BD0C9B494D03AA0CA8019915933D
:1028000013951292FEF76EFF0028F1D1119900295D
:102810005ED001F10B0306AA203113F8010B8B42A5
:1028200002F8010BF9D115AB0CAA12F8010B1EA985
:1028300003F8010B8B42F8D1214615A8FEF752FF91
:10284000002847D00428D3D115A8FFF70BF900289A
:10285000CED11A9C0DF11A0204F10D0304F12000EF
:1028600012F8011B03F8011B8342F9D19DF81820CF
:102870000C9842F020020123E27203710E9A179B1A
:102880009A421CD0E37ADB0619D50278E17EA37E5A
:10289000032A43EA012321D08269023B023A934290
:1028A0001AD28178826A01FB0321A9B1FEF770F880
:1028B0000C9B00289CD193F851202E2A15D00CA8EF
:1028C000FEF710FE002893D10C98FEF72FF98FE742
:1028D00004208DE708208BE7022089E7617D227DB7
:1028E00042EA012243EA0243D6E71A78032A179AFA
:1028F0000FD01046020C1512C0F30724012183F8F3
:102900006A0083F8642083F8655083F86B4019717E
:10291000D5E7596A8A42ECD1ECE700BF9004001079
:102920002DE9F04F8B4687B0154618B10B2007B044
:10293000BDE8F08F012903D9132007B0BDE8F08F5F
:10294000531E1340F8D1C94A146834B1237000F003
:10295000ABFFC30703D50320E9E70C20E7E700F04E
:10296000040303F0FF000BB10A20E0E7012105AAF0
:1029700000F0D6FF002840F0AD81059A7F2A40F292
:10298000A981BBF1000F14BF4FF000084FF03F08C2
:10299000C8EB020205928DB94FF4FA60B2FBF0F079
:1029A000B0F5806F80F0AC81B149002331F8025F4F
:1029B0000133A842FAD3AF4931F813505FEA5529E1
:1029C00000F09881B9F1810F28BF4FF08009B2FB68
:1029D000F9F340F6F5718B4240F27E814FF6F571C6
:1029E0008B4240F28F819B0003F207260023760A78
:1029F000032700934FF0200A009D0AEB080335449B
:102A00001D440193C8EB09032B449A4201D20E20C6
:102A10008DE70020032104AA00F082FF002840F087
:102A20006C81DDF810C00CF1FF33B3F5004F80F07E
:102A300064810CF1FF332B44CCF1000C03EA0C034E
:102A40005D1B032F0495059B00F073812E44CAEB98
:102A500003020099921B521AB2FBF9F2022F039261
:102A600000F05B810121BBF1000F40F04F8104F1C8
:102A7000300558462A4604F50C7B02F8010B5A45EE
:102A80004FF00003F9D1059A43F6C16008EB020E3E
:102A9000BEFBF0FE84F8F131184684F8F21184F898
:102AA000F731110C84F8F83184F8F93184F8FA21FF
:102AB000C2F30723120E4FEA9E0C84F8FC1184F82F
:102AC000FD21FE213F224CF03F0C84F8FB3184F8BD
:102AD000F3110123552184F8F621AA2284F82E123D
:102AE00084F82F2284F8F5E184F8F4C184F8EF31FA
:102AF00084F8F03102462946CDF810E000F0FEFEE1
:102B0000002840F0E780F82202922B46002203F8CA
:102B1000012B5B45FBD1584A0023D15CE9540133BA
:102B20000B2BFAD1032FCAF30722059B14BF0221F6
:102B3000002184F83F20002284F8421084F83B20D2
:102B4000022184F84120B3F5803F4FF0010284F860
:102B50003D9084F83EA084F83C1084F8402080F03A
:102B6000FC801A1284F8433084F8442002994FF014
:102B7000000A3F22FF2384F8482084F84A3084F872
:102B8000451084F84C8084F849A084F84BA084F860
:102B90004DA084F84EA084F84FA0FDF7BBFE032F94
:102BA0000490C0F307224FEA104300F0E38084F85A
:102BB0005820C6F3072284F8570084F85930000ED5
:102BC0002923802184F847202C4A84F8563084F841
:102BD000466084F85A0084F8541004F15B0312F83C
:102BE0000A1003F80A100AF1010ABAF1130FF6D11C
:102BF0005522AA2384F82E2284F82F320020294659
:102C00004246012300F07AFE002863D12B460022C1
:102C100003F8012B5B45FBD1032F00F0FB80184B21
:102C2000029A012F18BF6FF0FF031343190EFF2202
:102C3000049384F8303084F8331084F8312084F819
:102C4000322029460020019A012300F057FE019905
:102C500001F1010A00283DD12B4603F8010B5B4529
:102C6000FBD1012304939C4616E000BF8C040010A6
:102C7000FCB100009CB10000C8B10000E8B1000048
:102C800000FFFF0000F03AFE20BBDDF810C0DA467E
:102C90000CF1010CCDF810C00123B44552464FF0A1
:102CA000000029460AEB030BECD3009A032F08BF60
:102CB0004A469146D14402E0D14500F0CA805246CE
:102CC00000202946012300F019FE0AF1010A0646F8
:102CD0000028F1D001202AE603EB430301335B080F
:102CE0000333012703F2FF1320215E0A00914FF006
:102CF000010A81E64FF0010969E64FF0010C98E600
:102D0000002358E602335B000227EBE7F02302932F
:102D100004F1300504F50C7BF7E6039940F6F572F3
:102D200091427FF674AEB3F5803F2CBF062104219B
:102D300099E6AA440099CAEB03039B1B5B1AB3FBF9
:102D4000F9F30393019A03994FF6F5732A449942D4
:102D500001927FF65CAE0C2185E6C3F307211A0CC5
:102D600084F850301B0E84F8511084F8522084F8F7
:102D70005330FBE684F8730084F87420000E320CA4
:102D8000C6F3072184F8753084F876000223300EEC
:102D900084F85620062284F8551084F85700012143
:102DA00084F85C308020292384F86220504A84F81B
:102DB000723084F8546084F85DA084F85EA084F8D2
:102DC0005FA084F861A084F863A084F8601084F8A0
:102DD000700004F1770312F80A1003F80A100AF1E0
:102DE000010ABAF1130FF6D15522AA2384F82E2234
:102DF00084F82F32002029464246012300F07EFD50
:102E000000287FF467AF294608F10602012300F08D
:102E100075FDFBE6029B0F2163F0FF02FF23049286
:102E200084F8302084F8313084F8323084F833303C
:102E300084F8343084F8353084F8363084F837300C
:102E400084F8383084F8393084F83A3084F83B100C
:102E5000F7E6032F42D103994FF0520E4B1EC3F3F6
:102E6000072B412172224FEA134A4FEA1369612767
:102E70004FF0020C84F8183284F819B255234FF041
:102E8000AA0B84F8331084F8161284F8142284F8FC
:102E9000152284F82E32294608F10102012384F814
:102EA0001D0284F81E0284F81F0284F81AA284F816
:102EB0001B9284F830E084F831E084F8327084F8B2
:102EC000177284F81CC284F82FB200F017FD304648
:102ED000294608F10702012300F010FD00200146F9
:102EE000024600F01DFD003018BF01201FE500BFA5
:102EF000D4B10000D0F88802D0F1010038BF002022
:102F0000704700BF0020704700F5127003C870477B
:102F10000FB400B5074A83B004AB53F8041B126822
:102F20000193D0681A4605F095F803B05DF804EBFC
:102F300004B07047340100102DE9F04383B00D4612
:102F40000B9904460A9E91469846FDF703FD1748E3
:102F50004FF0FF374A4643462060294604F5167075
:102F60000025009700F040FE314604F51B70C4F8C0
:102F70006C52C4F87052C4F87452C4F87852C4F851
:102F80007C52C4F8805200F037FD094ED4F87832F4
:102F9000D4F8702207492046C4F888521A60C4F851
:102FA0005062C4F8541203B0BDE8F08320B20000B0
:102FB000A086010040420F00F8B5D0F87C320746E9
:102FC000D0F8700207F516761446186041F04001FB
:102FD000304600F04FFE2116304600F04BFE211423
:102FE000304600F047FE2112304600F043FE2146F5
:102FF000304600F03FFE3046952100F03BFE41F2A6
:10300000883401E0013C11D03046FF2100F032FE4F
:1030100003060546F6D4D7F87832D7F87022304642
:103020001A60FF2100F026FE2846F8BDD7F8783256
:10303000D7F8702230461A60FF2100F01BFE4FF0D7
:10304000FF30F8BD38B5054641F2883401E0013C57
:1030500011D0372100222846FFF7AEFF284629214C
:103060000022FFF7A9FF0028F1D14FF40073C5F843
:103070008432012038BD0248FFF74AFF204638BDA0
:1030800060B2000070B5D0F87C320646D0F870020D
:1030900006F516751446186041F04001284600F008
:1030A000E9FD2116284600F0E5FD2114284600F030
:1030B000E1FD2112284600F0DDFD2146284600F002
:1030C000D9FD2846952100F0D5FD41F2883401E074
:1030D000013C06D02846FF2100F0CCFD0306F7D4C2
:1030E00070BDD6F87832D6F8702228461A60FF21D3
:1030F00000F0C0FD4FF0FF3070BD00BFF8B5D0F854
:103100007022D0F87C3200F516761A607A210746D4
:10311000304600F0AFFD0021304600F0ABFD00214D
:10312000304600F0A7FD0021304600F0A3FD00214D
:10313000304600F09FFD3046952100F09BFD41F2A6
:10314000883401E0013C21D03046FF2100F092FD9F
:1031500003060546F6D43046FF2100F08BFD3046CD
:10316000FF2100F087FD3046FF2100F083FD30464F
:10317000FF2100F07FFDD7F87832D7F87022304673
:103180001A60FF2100F076FD2846F8BDD7F87832A6
:10319000D7F8702230461A60FF2100F06BFD4FF027
:1031A000FF30F8BD38B5044641F2883501E0013DF5
:1031B0001AD0322000F086FC2046FFF79FFF37210F
:1031C00000222046FFF7F8FE204629214FF08042DA
:1031D000FFF7F2FE0028EAD12046FFF78FFF012318
:1031E000C4F88432022038BD0248FFF791FE284619
:1031F00038BD00BF80B20000F0B5D0F87C32D0F806
:10320000702200F5167583B01A60482107462846DB
:1032100000F030FD0021284600F02CFD002128465A
:1032200000F028FD0121284600F024FDAA212846AF
:1032300000F020FD2846872100F01CFD194E0024D7
:1032400002E00134B4421FD02846FF2100F012FDF5
:1032500003068DF80000F4D402AB1C440426284673
:10326000FF2100F007FD013E04F8080CF7D1D7F864
:103270007832D7F8702228461A60FF2100F0FAFC55
:103280009DF8000003B0F0BDD7F87832D7F870226F
:1032900028461A60FF2100F0EDFC4FF0FF3003B02C
:1032A000F0BD00BF404B4C0070B5064600F51675EA
:1032B0002846D6F8501200F0D5FCD6F87832D6F869
:1032C000702210241A602846FF2100F0D3FC013C34
:1032D000F9D1214622463046FFF76EFE012804D080
:1032E0000D48FFF715FE002070BD3046FFF784FF44
:1032F00001280BD0052804D00848FFF709FE00205C
:1033000070BD3046BDE87040FFF79CBE3046BDE85A
:103310007040FFF747BF00BFA0B20000D8B2000066
:10332000F8B50746D0F87C32D0F870020C46164645
:10333000186007F516752846FF2100F09BFCFE2853
:10334000F9D146B126442846FF2100F093FC04F849
:10335000010BB442F7D12846FF2100F08BFC284630
:10336000FF2100F087FCD7F87832D7F87022284682
:103370001A60FF2100F07EFC0020F8BD2DE9F84323
:103380008046D0F88802894614461D469DF8206084
:1033900040B3F6B2B6184FF0000747EB0307BD4243
:1033A00008BFB44207D31AE04046FFF7B9FFBD4259
:1033B00008BFB44213D2D8F88422112102FB04F2D0
:1033C0004046013445F10005FFF7F6FD4FF4007269
:1033D000494691440028E7D00120BDE8F883002049
:1033E000BDE8F8834FF0FF30BDE8F883F8B5074635
:1033F000D0F87C32D0F8700207F516750C461646E8
:103400001860FE21284600F035FC3EB1264414F831
:10341000011B284600F02EFCB442F8D1FF212846BB
:1034200000F028FCFF21284600F024FC2846FF215C
:1034300000F020FC00F01F00052810D12846FF21D5
:1034400000F018FC0028F9D0D7F87832D7F87022AD
:1034500028461A60FF2100F00DFC0020F8BDD7F8C7
:103460007832D7F8702228461A60FF2100F002FC5B
:103470000120F8BD2DE9F8438046D0F8880289463E
:1034800014461D469DF8206040B3F6B2B6184FF0C2
:10349000000747EB0307BD4208BFB44207D31AE059
:1034A0004046FFF7A3FFBD4208BFB44213D2D8F88D
:1034B0008422182102FB04F24046013445F1000544
:1034C000FFF77AFD4FF40072494691440028E7D097
:1034D0000120BDE8F8830020BDE8F8834FF0FF30FD
:1034E000BDE8F88330B5092185B000220446FFF716
:1034F000C9FD38BB204669461022FFF711FF78BB93
:103500009DF800309B0932D0012B22D1C4F88432BF
:103510000146034603F130026FEAD20010306C46D8
:10352000005D02F0070240FA02F202F001029A4046
:103530000133102B41EA0201ECD1481C800200212A
:1035400005B030BD2B48FFF7E3FC0020002105B09B
:1035500030BD2948FFF7DCFC0020002105B030BD5C
:103560002648FFF7D5FC0020002105B030BD4FF400
:1035700000721946C4F8842203F13E026FEAD200B9
:1035800010306C46005D02F0070240FA02F202F0D1
:1035900001029A4001330C2B41EA0201ECD19DF863
:1035A00009309DF80A2003F00100D211C3F3400353
:1035B00042EA40009DF80540002240EA8305134698
:1035C00003F0070044FA00F000F0010098400133D6
:1035D000042B42EA0002F3D1AB1C012000FA03F3F2
:1035E000904001FB033300FB03F00021400A05B0CB
:1035F00030BD00BF10B3000060B3000038B300005E
:1036000038B50446FFF750FEC4F88802E0B1204602
:10361000FFF768FF04F51273C3E900014FF400726D
:1036200020461021FFF7C8FC054638B904F516708E
:10363000D4F8541200F016FB284638BD0548012581
:10364000FFF766FC284638BD03480125FFF760FCFC
:10365000284638BD98B300007CB300004FF0FF301F
:10366000704700BF704700BF014B0360704700BF49
:10367000C0B3000008B510B103689B6998470020EB
:1036800008BD00BF00234381704700BF40897047D9
:1036900041817047014B0360704700BFC0B3000019
:1036A00010B5034B0446036001F089FD204610BDB0
:1036B000C0B3000010B5034B0446036001F07FFD6A
:1036C000204610BDC0B3000030B589B000F1280518
:1036D00004464FF480730430694606950793FEF75D
:1036E000D7FE98B99DF8090018B194F8283013B1A5
:1036F000284609B030BD08AB53F8170D59689A68D1
:103700001B7BA0626960AA602B73F1E7002009B0FF
:1037100030BD00BF074B70B4044644F8043B0D466F
:1037200006460FCD0FC40FCD0FC42B683046236063
:1037300070BC7047E8B30000002070470069704714
:1037400038B504460430FEF797FD05461CB12368E2
:1037500020461B6A9847284638BD00BF10B5034B6A
:103760000446036000F0DEFA204610BD10B40000ED
:1037700010B5054B0446036000F0D4FA204601F072
:103780001EFD204610BD00BF10B4000008B5043077
:10379000FEF726FC003018BF0120404208BD00BFE4
:1037A000022A10B5044609D0012A04BFC368C9180B
:1037B000201DFEF769FD20B9E06810BD03691944BA
:1037C000F6E74FF0FF3010BD00B583B0043001AB19
:1037D000FEF73CFB18B9019803B05DF804FB4FF00D
:1037E000FF30F9E700B583B0043001ABFEF74CFCC5
:1037F00018B9019803B05DF804FB4FF0FF30F9E70A
:1038000084B070B506460948354645F8040B05AC4A
:1038100084E80E00284621464FF4097202F032FE79
:103820003046BDE8704004B0704700BF10B40000DF
:103830007F2810B40ED981B90E4B01E0802915D034
:1038400033F8022F8CB2824201F10101F6D104F16A
:10385000800080B25DF8044B7047FF2806D8064B05
:10386000803833F810005DF8044B704700205DF895
:10387000044B704736B4000038B4000061280AD009
:103880000749002201E0834206D031F8023F0132AD
:10389000002BF8D170470022024B33F8120070471A
:1038A00018B7000038B5000008B5044B53F82000E5
:1038B00003689B6A9847C0B208BD00BF840400102B
:1038C00008B5044B53F820000368DB6A9847C0B280
:1038D00008BD00BF8404001010B5074C82B054F836
:1038E000200004680093246B0023A047002814BF25
:1038F0000420002002B010BD8404001010B5074C55
:1039000082B054F8200004680093646B0023A04741
:10391000002814BF0420002002B010BD8404001051
:1039200010B5012982B00C4616D009D3032902D064
:10393000042002B010BD01230020136002B010BDAE
:103940000E4B53F8200058B103689B6B984700302A
:1039500018BF012002B010BD084B53F8200010B969
:10396000032002B010BD0368DB6B01929847019AF7
:1039700010B110600020DCE72046DAE78404001074
:103980000FB400B5064A83B004AB126853F8041BA9
:10399000D0681A46019304F05DFB012000F002F8A4
:1039A000340100100A4C08B523680546986802F0F7
:1039B000AFF92368D86802F0ABF900F04FF820B9EE
:1039C00005B9FEE701F066FAFBE700F05BF8F7E700
:1039D0003401001038B50D46044600F091FB013566
:1039E00009D02046002100F0ABFB20460321BDE8B2
:1039F000384000F0A1BB38BD38B50D46044600F094
:103A00007FFB01350CD02369626820461A600121D2
:103A100000F096FB20460221BDE8384000F08CBB48
:103A200038BD00BF70B50D461646044600F068FB71
:103A3000013511D066B9236962681A6020460121F8
:103A400000F07EFB20460221BDE8704000F074BB10
:103A5000E36862681A60F1E770BD00BF00F01EB84D
:103A600038B5044600F0DAFB054620B100F0DEFB75
:103A700004B1206038BD00F0BDFB284600F0F6FB25
:103A8000F4E700BF30B585B018246D4620462946BE
:103A9000ABBE0446204605B030BD00BF024B1868DF
:103AA00000F00100704700BFF0ED00E038B50546BA
:103AB00001F050F9044601F04DF9001BA842FAD379
:103AC00038BD00BF4FF47A7303FB00F0FFF7EEBF81
:103AD0004FF0FF30704700BF4FF0FF30704700BF1E
:103AE000002070474FF0FF30704700BF08B510B19D
:103AF00003689B699847002008BD00BF4068704775
:103B00004160704700234360704700BF014B036072
:103B1000704700BFC0B3000010B5034B04460360FC
:103B200001F04DFB204610BDC0B3000038B504467F
:103B3000406801F0D3FA68B1636804F10805013305
:103B4000636001F0DBFAFF220146284603F016FE0F
:103B5000284638BD38BD00BF10B5034B044603608E
:103B600001F058FA204610BD28B9000010B5054BE9
:103B70000446036001F04EFA204601F020FB204687
:103B800010BD00BF28B9000010B50122044601F0A5
:103B900077FA024B2046236010BD00BF28B9000011
:103BA00010B54FF4847001F01FFB064B0021044652
:103BB000036041604FF48072083002F06CFC2046D4
:103BC00010BD00BF00B90000014B0360704700BF8B
:103BD00050B9000010B5034B0446036001F0EFFA42
:103BE000204610BD50B90000F0B5DFF848C00446CB
:103BF0000F4883B04FF0080E251D00264FF0FF3709
:103C0000C4F800C0C4F808E0206166602846E66099
:103C1000009700F0CBFF28463346A168E26800F029
:103C200039FF2846216900F059FF204603B0F0BD56
:103C300040420F0050B9000070B5094D04462B6892
:103C400083420BD0061D3046A168E268002300F0D5
:103C500021FF3046216900F041FF2C6070BD00BF9C
:103C600090060010024B002201611A60FFF7E4BFCA
:103C70009006001038B50C460546FFF7DDFF281DFD
:103C80002146BDE8384001F027B800BF38B500250F
:103C9000056045608560044601F05CF8A5606060E1
:103CA000204638BD036810B5044623B901F052F828
:103CB00001236060236010BD38B504460068A56824
:103CC00018B101F047F86368C01A044B284483FB1D
:103CD0000023C017C0EBA31038BD00BFD34D621046
:103CE00010B5044601F036F800236060A36010BDF3
:103CF000036870B51B690021012204469847431CE4
:103D000005460ED0236820461B69002102229847F1
:103D10002368064629461B692046002298473046FC
:103D200070BD70BD084A094B10B4026003F5807184
:103D3000002453F8042B824208BF43F8044C8B4202
:103D4000F7D15DF8044B704780B90000940600106D
:103D50000A4A0B4B10B503F580710446026000203F
:103D600053F8042B944208BF43F8040C8B42F7D15C
:103D7000204601F024FA204610BD00BF80B90000A3
:103D80009406001002480349034A00F0B9BD00BF81
:103D90009C08001002C0092003C00920F0B50F469E
:103DA00085B03749064603F0F2FA28B9354B1B684F
:103DB000002B43D005B0F0BD3046334903F0E7FA9D
:103DC00030B9304B1B68002B43D0012005B0F0BD4B
:103DD00030462E4903F0DBFA002835D02C4B002466
:103DE00002E00134402C3DD053F8045F002DF8D19F
:103DF00033783A2B3DD0314602A801F083F902A86E
:103E000001F0D2F900282DD002A801F0B5F920BBAD
:103E100002A801F0A5F9054620B3036802A89E6830
:103E200001F09CF93A4601462846B0470346CBB11B
:103E3000184AE01C42F8243005B0F0BD0190FFF7AD
:103E4000A1FF019805B0F0BD0E4B1B686BB10220BD
:103E5000B0E7FFF797FF0120ACE702A801F096F961
:103E60000346E4E74FF0FF30A4E7FFF78BFF0220A3
:103E7000A0E73046084902AA03F01AFA029BD6E7E7
:103E800060B900009407001070B9000068B9000024
:103E90009006001094060010A8B90000022808B58A
:103EA0000BDD084BC21E53F82200002143F82210FC
:103EB00028B103685B68984708BD002008BD4FF033
:103EC000FF3008BD94060010022870B50C46164657
:103ED0000FDC0E4B1B680BB9FFF754FFA51936B169
:103EE00014F8011B0A4800F05BFCAC42F8D13046E4
:103EF00070BD084B033853F8200018B103681B68E5
:103F0000984770BD4FF0FF3070BD00BF94070010A0
:103F10009C08001094060010022810B50C4609DC1D
:103F20000D4B1B688BB10D4800F0EEFB0123207098
:103F3000184610BD0A4B033853F8200040B10368FF
:103F40009B6898470346184610BDFFF71BFFEAE73A
:103F50004FF0FF33ECE700BF940700109C080010FF
:103F600094060010022808B508DD074B033853F803
:103F7000200028B10368DB68984708BD012008BD10
:103F80004FF0FF3008BD00BF94060010022808B5AE
:103F900008DD074B033853F8200028B103681B697C
:103FA000984708BD002008BD4FF0FF3008BD00BF96
:103FB00094060010022808B504D84FF400534B6053
:103FC000002008BD01F072FD092303604FF0FF30AF
:103FD00008BD00BF30B583B00146684601F092F8D5
:103FE000684601F0BDF8044648B103686846DD68DC
:103FF00001F0B4F801462046A84703B030BD4FF0A9
:10400000FF30FAE730B5037883B02F2B12D001468A
:10401000684601F077F8684601F0A2F8044638B126
:10402000036868465D6901F099F801462046A84793
:1040300003B030BD4378002BE9D1FFF7B1FD03B0E9
:1040400030BD00BF08B503685B68984708BD00BF76
:1040500008B503681B68984708BD00BF70B50346E4
:1040600082B00D466846194601F04CF8684601F0EA
:1040700077F8044650B1036868469E6901F06EF80F
:104080002A4601462046B04702B070BD4FF0FF30CF
:10409000FAE700BF074A13681844EFF30881884223
:1040A00002D2106018467047034B0C221A604FF082
:1040B000FF307047CC000010A40800100649074AE2
:1040C000074B9A42BEBF51F8040B42F8040BF8E7C5
:1040D0000448804704480047D8C50000C8000010C5
:1040E000BC010010DD4D000015070000FEE7FEE7F3
:1040F000FEE7FEE7FEE7FEE7FEE7FEE7FEE7FEE798
:1041000038B504464B1C0D46216014D008460021EA
:1041100000F028F805F01F030120984025F01F0546
:1041200005F1180105F11C0205F11403A56060609A
:10413000E1602261636138BD006800F02BB800BF08
:1041400041B1012905D18368426819680A431A60A0
:1041500070477047836841681A6822EA01021A6052
:10416000704700BF00F16040A0F51C2000F00F0375
:104170005B0003229A40994003099B0003F18043AE
:1041800003F53033186820EA02021A601A681143F6
:104190001960704700F16040A0F51C2030B4C1F3F5
:1041A000800200F01F0402FA04F443099B0003F1AB
:1041B000804303F530339D6E25EA04059D669D6EB0
:1041C0002C439C669AB900F00F035B0003229A40CF
:1041D00001FA03F30009800000F1804000F530305F
:1041E000016C21EA02020264026C1343036430BCD6
:1041F000704700BF074A084BD2F8C400002140F4C2
:104200000070C2F8C40019721A7A42F001021A72E0
:10421000704700BF00C00F4000400240024B187AB8
:1042200000F00100704700BF0040024000B50E4B97
:104230008BB093F8202001A8019293F824200292D9
:1042400093F82820039293F82C20049293F83820B6
:104250009B8F013A9BB2A3F26C730592069302F016
:10426000F5F90BB05DF804FB0040024000B583B0E7
:1042700002AB43F8040D184602F092F8104B1A7A7C
:1042800042F002021A72027883F82020027983F841
:104290002420027A83F82820027B83F82C200269EC
:1042A0000132D2B283F83820426902F26C7292B2C3
:1042B0009A871A7A02F0FD021A7203B05DF804FBC5
:1042C0000040024008B5154A9368C3F34203012B2E
:1042D0001ED0022B19D1124B596F01310AD0D3F8DD
:1042E0008010986F086093F8A61019B9516821F0F2
:1042F00001015160186F0A4B48B193F8A6302BB1F9
:104300000021084A1368984708BD08BD08BD08BDCC
:10431000034A106F0028F9D01946F2E700800940DF
:104320009C0700109807001070B50368294CA34241
:1043300049D041DD284CA3422AD004F58044A34251
:1043400044D1264C08263ABB01290BD04568244AA3
:10435000C5EBC50502EBC50494F8355094F836203A
:10436000EA4214D1012202FA01F5D1F1010138BF6C
:10437000002102FA01F15C6824EA05045C6003682C
:104380005B68194203D1B240164BC3F8802070BD60
:10439000154C0726002AD7D0012505FA01F176B27F
:1043A000304605FA06F65A680A435A60214600F07C
:1043B000F7FC0C4B1E6070BDA4F58044A34205D1F0
:1043C0000A4C0526BFE70A4C0626BCE70024264611
:1043D000B9E700BF0000014000800940F54300003C
:1043E0009C07001000E100E0C542000061440000AD
:1043F000C544000008B5174A9368C3F34203012B74
:1044000021D0022B1CD1144BD3F8AC1001310BD0AE
:10441000D3F8B810D3F8B000086093F8DE1019B9DB
:10442000516821F001015160D3F8A8000A4B48B14E
:1044300093F8DE302BB10021084A1368984708BD75
:1044400008BD08BD08BD044AD2F8A8000028F8D06D
:104450001946F1E700C009409C07001098070010BA
:1044600008B5154A9368C3F34203012B1DD0022BF4
:1044700018D1124B5968013109D019699868086040
:1044800093F8361019B9516821F00101516018688C
:104490000A4B48B193F836302BB10021084A136813
:1044A000984708BD08BD08BD08BD044A106800282B
:1044B000F9D01946F2E700BF00C000409C07001089
:1044C0009807001008B5154A9368C3F34203012BFF
:1044D0001DD0022B18D1124BD96B013109D0996C28
:1044E000186C086093F86E1019B9516821F0010139
:1044F0005160986B0A4B48B193F86E302BB1002194
:10450000084A1368984708BD08BD08BD08BD044A9D
:10451000906B0028F9D01946F2E700BF0000014077
:104520009C070010980700102DE9F00F8AB0089042
:10453000714B00689842099000F0CF8040F3BA8038
:104540006E4B099A9A4200F0908003F580439A429C
:104550000CD16B4BD3F8AC2122F44022C3F8AC2130
:10456000D3F8AC2142F48022C3F8AC21654B0A0198
:104570001B680593059CB3FBF2F302FB13429BB24D
:104580000193002A00F094806000A2004FF001091E
:1045900000230790069280469346CDF80C90049134
:1045A000A2468C4602930022049C10465FFA89F7CB
:1045B000B8F1000FB5BFB8FBF4F3BBFBF4F31B0974
:1045C0005B090133C3F34F0302EB0906002B5AD1F9
:1045D000012300285BD103FB06F5ED00BAFBF5F5DE
:1045E0000135C1EB5505002DB8BF6D42654505DAB3
:1045F0008D424ED0AC460290019303970132D0B267
:1046000087420C44D4D8B9F10F0F4FF0000349D0C2
:10461000059A079C9244049A06980A4409F10109F4
:10462000A04483440492002BBDD0029B039C43EA28
:104630000410C0B2099A019C137BC4F3072143F014
:1046400080031373089A1368E2B2089C19712368F7
:104650001A70236883F8280023681A7B02F07F020F
:104660001A730AB0BDE8F00F7047254BD3F8AC21A0
:1046700022F44032C3F8AC21D3F8AC2142F48032AA
:10468000C3F8AC2172E70028A5D0012BA3D80223E0
:10469000A1E7B9F10F0F0193039702908C464FF0F9
:1046A0000103B5D1029C039944EA0110C0B2C1E7ED
:1046B0001020BFE7A3F5804398427FF457AF104B1B
:1046C000D3F8A82122F0C002C3F8A821D3F8A8216A
:1046D00042F04002C3F8A82148E7094BD3F8A821CB
:1046E00022F44072C3F8A821D3F8A82142F48072C2
:1046F000C3F8A8213AE700BF00000140008009404C
:1047000000C00F40D00000100268137DDB07FCD50D
:1047100043680949C3EBC30301EBC303596810782D
:104720000131C0B207D0596904335B680B6053682C
:1047300043F00103536070479C0700104368174A19
:10474000C3EBC303DB00D11810B4CC69013411D022
:104750000A6B01F11C035B6812681A4203D0002047
:104760005DF8044B704703685DF8044B187DC0F397
:104770008010704703681B7D9B0608D491F83400B5
:104780005DF8044B0F288CBF0020012070470023E8
:1047900081F8343001205DF8044B70479C0700100D
:1047A00038B504460D462046FFF7C8FF0028FAD06A
:1047B0002368EDB21D706268054BC2EBC20203EBC9
:1047C000C20393F83420013283F8342038BD00BF8F
:1047D0009C0700102DE9F04F0446454D006883B05A
:1047E000A8420E469046994643D06568002301933F
:1047F0002A46DFF808A1EF00C2EBC202781B4FF097
:10480000000E0AEBC0000AEBC20C4FF0FF33C3618D
:1048100043607146724620468CF835E0FFF784FD10
:1048200016B903B0BDE8F08F3249404600F09EFB58
:1048300031498346484600F099FBB21E012A38D917
:10484000012EEED1B8F1FF3FEBD0294922680720B5
:104850008B45107215D1019B9BB11B7C019A254998
:1048600043F040034046137403B0BDE8F04F00F03E
:104870004BBB037C656803F03F03037462680190DF
:10488000B7E77D1B0AEBC500414604300022FFF765
:10489000C9F862680125C2EBC2020AEBC2032046D6
:1048A0002A46002183F8355003B0BDE8F04FFFF7EA
:1048B0003BBDB9F1FF3F09D00D4A90420CD0781BA7
:1048C0000AEBC00049461C30FFF784F8032EA8D13C
:1048D000B8F1FF3FB9D1A4E7019B002BEFD01A7CC0
:1048E000484642F080021A74034900F00DFBEDE7E0
:1048F00000000140B8B90000B4BA00009C070010E5
:104900002DE9F04105460F4608465949164600F084
:104910003BFB58490446304600F036FB0146204632
:1049200000F012FB544B0446984228607FD06FD9A8
:10493000524B98424BD003F58043984206D1504BDE
:10494000D3F8C42042F00072C3F8C42001232372BC
:104950002B684FF00008C3F8048028464FF4165126
:10496000FFF7E2FD2B6803221A733846404900F036
:10497000CBFA30463F4900F0C7FA7A1C03D03846DC
:104980004146FFF707FC731C03D030460021FFF7B8
:1049900001FC394B9C4247D021D9384B9C4263D013
:1049A00003F580439C424AD103236B603549C3EB36
:1049B000C3034FF0FF34284601EBC30522462346CC
:1049C0006C60EC610021BDE8F041FFF703BF2C4BA8
:1049D000D3F8C42042F08072C3F8C420B6E7A3F530
:1049E00080439C422BD1274E4FF0FF340021696059
:1049F0002246234628467460F461FFF7EBFE224B03
:104A000001221A6028686968204B03C3BDE8F08161
:104A1000A3F58043984299D1194BD3F8C42042F0B2
:104A20000802C3F8C42091E701236B60BEE7144B72
:104A3000D3F8C42042F01002C3F8C42086E76B68A4
:104A40001049C3EBC3034FF0FF3601EBC3073246F7
:104A50003346284600217E60FE61FFF7BBFE0C4B0B
:104A60009C42CCD0BDE8F08102236B609EE700BF82
:104A700048BA0000DCB90000000001400080094095
:104A800000C00F409C070010940700109C08001005
:104A900000C00040006830B44568013925F00205C7
:104AA0004560046802F0010541EAC511C2F3400205
:104AB000240C41EA82122404144304604268002B4F
:104AC0000CBF0023042322F00D021A434260436806
:104AD00030BC43F002034360704700BFF8B507687D
:104AE0002E4B7A689F4222F002027A6042D003F590
:104AF000B0239F422FD02A4B08461E6800F022FEAA
:104B00000224054603E00234B4F5807F40D0B6FBB2
:104B1000F4F000F017FE294600F01CFF4FF07C5126
:104B200000F05CFD00F0D8FC05F052FD00F028FD1F
:104B3000FF28E8DC3C613B68013823F47F0323F461
:104B40007F433B603B6843EA002038607B6843F06A
:104B500002037B60F8BD03F5E823D3F8AC2122F40F
:104B60004062C3F8AC21D3F8AC2142F48062C3F8B0
:104B7000AC21C0E70B4BD3F8A82122F44012C3F8B4
:104B8000A821D3F8A82142F48012C3F8A821B2E7E3
:104B90000548BDE8F840FEF7F3BE00BF0000034043
:104BA000D000001000C00F4050BB00002DE9F04FB6
:104BB000044683B008468946404990461F460C9DEE
:104BC00000F0E2F93E4903464046019300F0DCF96B
:104BD0003C490646384600F0D7F93B49834628460B
:104BE00000F0D2F9019B31468246184600F0ACF93C
:104BF00051460646584600F0A7F90146304600F0F7
:104C0000A3F9324B206098424FD003F5B02398426D
:104C100023D06B1C2BD02046002201230821FFF754
:104C200039FF20462A49FFF759FF236848465A684A
:104C3000224942F002025A6000F066F940462049DB
:104C400000F062F938461F4900F05EF91E49284617
:104C500003B0BDE8F04F00F057B903F5E823D3F8EF
:104C6000C42042F40012C3F8C4206B1CD3D100222C
:104C7000134620460821FFF70DFF20461449FFF791
:104C80002DFF236848465A680C4942F002025A60D8
:104C900000F03AF940460A4900F036F90949384629
:104CA00003B0BDE8F04F00F02FB90A4BD3F8C42091
:104CB00042F48062C3F8C420ABE700BF78BB0000B9
:104CC000D8BA000014BB0000B4BB000000000340D1
:104CD00040420F0000C00F400368DA689007FCD51F
:104CE0009960DA685207FCD598687047134A38B55E
:104CF00013680BBB12490124D1F8C4501460114A47
:104D0000114845F40005C1F8C4501367036801F168
:104D1000437101F5F45103319B08A1FB03039B0C84
:104D2000013B022151600420D3600849546000F027
:104D300037F8074B10221A6038BD00BF7C080010FE
:104D400000C00F4000400940D0000010BD4F0000DF
:104D500000E100E008B5044B1B680BB9FFF7C6FF84
:104D6000024B986808BD00BF7C0800100040094055
:104D7000034B98615A6942F001025A61704700BFC3
:104D800000400940024B5A6922F001025A61704703
:104D900000400940014B01221A6070470040094061
:104DA0000C4A30B4936894681A46B4F1805F0CD210
:104DB000094A03F1C40553F8044BAB4242F8044FCF
:104DC000F9D1044B4FF080529A60103042F8201015
:104DD00030BC704700ED00E0FCFFFF0F2B4A2023A2
:104DE00070B4C2F8A031D2F8A031980645D4274B50
:104DF000022100250124AA2055220B26C3F8041104
:104E0000C3F8A8511946C3F8AC51C3F80C41C3F814
:104E10008460C3F88C00C3F88C20C3F88040C3F8CA
:104E20008C00C3F88C20D1F88830184A5B01FAD581
:104E30000321AA205523C2F88010C2F88C00114625
:104E4000C2F88C30D1F88830104A13F0407FF9D086
:104E50000F4900230520C2F80801C2F8C410C2F8A7
:104E6000C831136870BC23F4704323F03A0343F451
:104E7000405343F03A0313607047D2F8A03159060B
:104E8000B5D4D2F8A0315906F7D5B0E700C00F402D
:104E9000DE87280400B599B072B617496846FEF758
:104EA000ABFD06A81549FEF7A7FD0CA81449FEF7AF
:104EB000A3FD12A81349FEF79FFD039B019A0A98D0
:104EC0001A60079B109903600D9B159A0B60139B4A
:104ED00096201360FEF7F6FD049B019A09981A606C
:104EE000079B0F9903600D9B169A0B60139B9620EE
:104EF0001360FEF7E7FDE0E732C0092034C0092067
:104F000035C0092037C00920431C10B5044618D00D
:104F10000B68581C04D10FE051F80C3F5A1C0BD001
:104F20009C42F9D120468968FFF71CF920460221EE
:104F3000BDE81040FFF72EB90248BDE81040FEF76B
:104F40001FBD10BDF0BB0000884208B50AD0431C4D
:104F500007D0013106D00448FEF712FD4FF0FF30B4
:104F600008BD084608BD00BF04BC00000B685A1C01
:104F700004D107E051F80C3F5A1C03D08342F9D109
:104F8000486870471846704708B5431C0CD00B683A
:104F90005A1C04D109E051F80C3F5A1C05D0984224
:104FA000F9D14868411C00D008BD0348FEF7E8FC71
:104FB0004FF0FF30F8E700BF18BC0000F8B5FFF76E
:104FC000E9FE124E124F3368ABB1D3E90045FFF74B
:104FD000C1FE221A65F1000310461946012871F13D
:104FE00000030CDA31683A68CB683360002AEBD0F2
:104FF00088689047E7E7BDE8F840FFF7C3BE33682D
:10500000D3E90001BDE8F840FFF7B2BE8008001008
:1050100084080010094A8368026053B1084B1A687B
:10502000824201D106E01A4653688342FBD14368AD
:105030005360704742681A60704700BF40BC000070
:10504000880800100C4A836810B50446026053B10A
:105050000A4B1A68904201D10AE01A4653689C42F2
:10506000FBD163685360204600F0A9F8204610BDCC
:1050700042681A60F7E700BF40BC000088080010D3
:10508000074B10B400240273816080E8180019B146
:10509000044B1A68186042605DF8044B704700BF0B
:1050A00040BC000088080010F8B50B4B07461C6890
:1050B0000E467CB1A5683946324628463DB102F01D
:1050C00047FB20B9284602F03BFBB04202D064689F
:1050D000002CEFD12046F8BD88080010064B1B6855
:1050E00043B138B1002201E0904203D05B68013245
:1050F000002BF9D118467047880800108068704767
:10510000007B704738B50023036043600A7804468B
:105110002F2A01D0204638BD4A78002AFAD0481CF0
:1051200020604A782F2A14D0B2B18D1C194600E0B5
:1051300052B125602A782B462F2A01F1010105F191
:105140000105F5D101332360FFF7AEFF6060204613
:1051500038BD19460346F5E71146F5E70068704784
:1051600010B50446406828B1FFF7CAFF012801D1F5
:10517000606810BD002010BD406808B528B1FFF779
:10518000BFFFD0F1010038BF002008BD10B50446B4
:10519000406830B1FFF7B4FF18B9606808B104384F
:1051A00010BD002010BD00BF4068003018BF0120B6
:1051B000704700BF03460846194600F067BC08B1B7
:1051C000FBF7C8BA704708B50368DB0707D4437814
:1051D0000BB1FBF7C5FA01234370184608BD002048
:1051E00008BD01230360704710B5002814BF0446B2
:1051F00001242046FBF7A8FA30B9044B1B680BB911
:10520000FBF7AEFA9847F4E710BD00BF8C0800101A
:1052100081F0004102E000BF83F0004330B54FEA67
:1052200041044FEA430594EA050F08BF90EA020FD4
:105230001FBF54EA000C55EA020C7FEA645C7FEA67
:10524000655C00F0E2804FEA5454D4EB5555B8BF8A
:105250006D420CDD2C4480EA020281EA030382EAFB
:10526000000083EA010180EA020281EA0303362D8D
:1052700088BF30BD11F0004F4FEA01314FF4801C60
:105280004CEA113102D0404261EB410113F0004F72
:105290004FEA03334CEA133302D0524263EB430329
:1052A00094EA050F00F0A780A4F10104D5F1200EC7
:1052B0000DDB02FA0EFC22FA05F2801841F1000122
:1052C00003FA0EF2801843FA05F359410EE0A5F1F6
:1052D00020050EF1200E012A03FA0EFC28BF4CF027
:1052E000020C43FA05F3C01851EBE37101F00045DD
:1052F00007D54FF0000EDCF1000C7EEB00006EEBEA
:105300000101B1F5801F1BD3B1F5001F0CD3490873
:105310005FEA30004FEA3C0C04F101044FEA4452CA
:1053200012F5800F80F09A80BCF1004F08BF5FEA51
:10533000500C50F1000041EB045141EA050130BD31
:105340005FEA4C0C404141EB010111F4801FA4F1D4
:105350000104E9D191F0000F04BF01460020B1FA29
:1053600081F308BF2033A3F10B03B3F120020CDA61
:105370000C3208DD02F1140CC2F10C0201FA0CF03F
:1053800021FA02F10CE002F11402D8BFC2F1200CA4
:1053900001FA02F120FA0CFCDCBF41EA0C0190405A
:1053A000E41AA2BF01EB0451294330BD6FEA0404A3
:1053B0001F3C1CDA0C340EDC04F11404C4F120028E
:1053C00020FA04F001FA02F340EA030021FA04F3A0
:1053D00045EA030130BDC4F10C04C4F1200220FAF7
:1053E00002F001FA04F340EA0300294630BD21FA35
:1053F00004F0294630BD94F0000F83F4801306BFFB
:1054000081F480110134013D4EE77FEA645C18BFEE
:105410007FEA655C29D094EA050F08BF90EA020F85
:1054200005D054EA000C04BF1946104630BD91EA7D
:10543000030F1EBF0021002030BD5FEA545C05D180
:105440004000494128BF41F0004130BD14F58004BF
:105450003CBF01F5801130BD01F0004545F0FE4133
:1054600041F470014FF0000030BD7FEA645C1ABF68
:10547000194610467FEA655C1CBF0B46024650EA9F
:10548000013406BF52EA033591EA030F41F40021CB
:1054900030BD00BF90F0000F04BF0021704730B551
:1054A0004FF4806404F132044FF000054FF0000126
:1054B00050E700BF90F0000F04BF0021704730B5E7
:1054C0004FF4806404F1320410F0004548BF4042BC
:1054D0004FF000013EE700BF42004FEAE2014FEA11
:1054E00031014FEA02701FBF12F07F4393F07F4FEC
:1054F00081F06051704792F0000F14BF93F07F4F1E
:10550000704730B54FF4607401F0004521F0004160
:1055100020E700BF50EA010208BF704730B54FF0E6
:1055200000050AE050EA010208BF704730B511F0EB
:10553000004502D5404261EB41014FF4806404F123
:1055400032045FEA915C3FF4DCAE4FF003025FEAA5
:10555000DC0C18BF03325FEADC0C18BF033202EB2D
:10556000DC02C2F1200300FA03FC20FA02F001FA87
:1055700003FE40EA0E0021FA02F11444C1E600BF26
:105580004FEA410212F5001215D211D56FF478736B
:10559000B3EB625212D94FEAC12343F0004343EA0E
:1055A000505311F0004F23FA02F018BF40427047E9
:1055B0004FF00000704750EA013005D111F0004073
:1055C00008BF6FF0004070474FF00000704700BF09
:1055D00080F0004002E000BF81F0004142001FBFA8
:1055E0005FEA410392EA030F7FEA226C7FEA236CB1
:1055F0006AD04FEA1262D2EB1363C1BFD2184140A6
:1056000048404140B8BF5B42192B88BF704710F03B
:10561000004F40F4000020F07F4018BF404211F0DE
:10562000004F41F4000121F07F4118BF494292EA46
:10563000030F3FD0A2F1010241FA03FC10EB0C0072
:10564000C3F1200301FA03F100F0004302D54942FF
:1056500060EB4000B0F5000F13D3B0F1807F06D3AC
:1056600040084FEA310102F10102FE2A51D2B1F1A4
:10567000004F40EBC25008BF20F0010040EA030099
:105680007047490040EB000010F4000FA2F1010246
:10569000EDD1B0FA80FCACF1080CB2EB0C0200FAD0
:1056A0000CF0AABF00EBC25052421843BCBFD0401E
:1056B0001843704792F0000F81F4000106BF80F498
:1056C00000000132013BB5E74FEA41037FEA226C5B
:1056D00018BF7FEA236C21D092EA030F04D092F026
:1056E000000F08BF0846704790EA010F1CBF00205A
:1056F000704712F07F4F04D1400028BF40F00040B7
:10570000704712F100723CBF00F50000704700F0D6
:10571000004343F0FE4040F4000070477FEA2262FD
:1057200016BF08467FEA23630146420206BF5FEACE
:10573000412390EA010F40F4800070474FF00003CE
:1057400004E000BF10F0004348BF40425FEA000C95
:1057500008BF704743F0964301464FF000001CE03D
:1057600050EA010208BF70474FF000030AE000BF93
:1057700050EA010208BF704711F0004302D54042D1
:1057800061EB41015FEA010C02BF84460146002043
:1057900043F0B64308BFA3F18053A3F50003BCFA5E
:1057A0008CF2083AA3EBC25310DB01FA02FC63440B
:1057B00000FA02FCC2F12002BCF1004F20FA02F212
:1057C00043EB020008BF20F00100704702F1200205
:1057D00001FA02FCC2F1200250EA4C0021FA02F266
:1057E00043EB020008BF20EADC7070474FF0FF0C6B
:1057F0001CEAD0521EBF1CEAD15392EA0C0F93EA66
:105800000C0F6FD01A4480EA010C400218BF5FEA07
:1058100041211ED04FF0006343EA501043EA51117A
:10582000A0FB01310CF00040B1F5000F3EBF490074
:1058300041EAD3715B0040EA010062F17F02FD2A78
:105840001DD8B3F1004F40EBC25008BF20F001005B
:10585000704790F0000F0CF0004C08BF49024CEA72
:10586000502040EA51207F3AC2BFD2F1FF0340EA04
:10587000C250704740F400004FF00003013A5DDC75
:1058800012F1190FDCBF00F000407047C2F10002B6
:10589000410021FA02F1C2F1200200FA02FC5FEAA3
:1058A000310040F1000053EA4C0308BF20EADC70ED
:1058B000704792F0000F00F0004C02BF400010F45F
:1058C000000F013AF9D040EA0C0093F0000F01F00C
:1058D000004C02BF490011F4000F013BF9D041EA2E
:1058E0000C018FE70CEAD15392EA0C0F18BF93EA30
:1058F0000C0F0AD030F0004C18BF31F0004CD8D15A
:1059000080EA010000F00040704790F0000F17BFE0
:1059100090F0004F084691F0000F91F0004F14D026
:1059200092EA0C0F01D142020FD193EA0C0F03D17E
:105930004B0218BF084608D180EA010000F0004081
:1059400040F0FE4040F40000704740F0FE4040F45C
:10595000400070474FF0FF0C1CEAD0521EBF1CEAFB
:10596000D15392EA0C0F93EA0C0F69D0A2EB030219
:1059700080EA010C49024FEA402037D04FF08053B3
:1059800043EA111143EA10130CF000408B4238BF78
:105990005B0042F17D024FF4000C8B4224BF5B1A86
:1059A00040EA0C00B3EB510F24BFA3EB510340EAD4
:1059B0005C00B3EB910F24BFA3EB910340EA9C0082
:1059C000B3EBD10F24BFA3EBD10340EADC001B01F2
:1059D00018BF5FEA1C1CE0D1FD2A3FF650AF8B4296
:1059E00040EBC25008BF20F0010070470CF0004CA3
:1059F0004CEA50207F32C2BFD2F1FF0340EAC250CE
:105A0000704740F400004FF00003013A37E792F08E
:105A1000000F00F0004C02BF400010F4000F013AEC
:105A2000F9D040EA0C0093F0000F01F0004C02BFE7
:105A3000490011F4000F013BF9D041EA0C0195E750
:105A40000CEAD15392EA0C0F08D142027FF47DAFE9
:105A500093EA0C0F7FF470AF084676E793EA0C0FD9
:105A600004D14B023FF44CAF08466EE730F0004CD7
:105A700018BF31F0004CCAD130F000427FF45CAF67
:105A800031F000437FF43CAF5FE700BF70B5064CD8
:105A900006460D4613462CB131462A460220AFF386
:105AA000008070BD204670BD00000000014B1868EA
:105AB000704700BF3401001070B505460C4609B9A7
:105AC000002070BD18B183690BB900F087F9204B35
:105AD0009C4201D16C6808E01E4B9C4201D1AC682D
