:1000000000300020C1000000390700003B0700005D
:1000100000000000000000000000000000000000E0
:100020000000000000000000000000003D0700008C
:1000300000000000000000003F0700004107000032
:100040004307000043070000430700004307000088
:100050004307000043070000430700004307000078
:100060004307000043070000430700004307000068
:100070004307000043070000430700004307000058
:100080004307000043070000430700004307000048
:100090004307000043070000430700004307000038
:1000A0004307000043070000430700004307000028
:1000B0004307000043070000430700004307000018
:1000C0000749084A084B9B1A05DD002408591051BE
:1000D00004349C42FADB054880470548004700008D
:1000E000BC320000C0F0FF1F3CF1FF1F690B000095
:0400F00025050000E2
:10040000FFFFFFFFFFFFFFFFFFFFFFFFFEFFFFFFFD
:1004100010B5064C2378002B07D1054B002B02D0DA
:10042000044800E000BF0123237010BD3CF1FF1F12
:1004300000000000B832000008B5084B002B03D0C4
:100440000748084900E000BF07480368002B03D0B5
:10045000064B002B00D0984708BDC04600000000A6
:10046000B832000040F1FF1F3CF1FF1F0000000008
:10047000F0B5012383B05B421E48019301F090FA6E
:100480001D4801F08DFA1D4801F08AFA1C4801F060
:1004900087FA1C4F381C01F007FA1B4E01A9301CCB
:1004A00001F09AFA194D0199281C01F0FDF9184C38
:1004B0000121236823229B68164801F011F9236863
:1004C0000121DB682322144801F00AF9134801F0E6
:1004D00067FA381C01F0E8F92368311C586801AA52
:1004E00001F050F8281C019901F0DEF90C4801F0E8
:1004F00057FAFEE7AC2E0000C82E0000E42E0000E4
:10050000FC2E0000142F0000382F00003C2F0000AC
:100510002CF1FF1F582F00007C2F0000A02F00009F
:10052000C42F00000748084A08B5121A002101F03C
:1005300016F900E000BF01F0E3F8FFF799FF00F0C3
:100540000FF8C0463CF1FF1F84F2FF1F08B50123DE
:10055000022802DD00F0A4F8031C181C08BDC046E8
:1005600038B50B4C051C2368986800F033FF2368EE
:10057000D86800F02FFF00F00DF8002805D1002DFD
:1005800000D1FEE700F046FBFBE700F007F8F6E7D6
:100590002CF1FF1F08B500F00DF808BD30B585B08F
:1005A0006D461824201C291CABBE041C201C05B061
:1005B00030BDC046014B18687047C046C0F0FF1FF1
:1005C00008B503480821042200F0C2F908BDC0465E
:1005D00078F2FF1F08B5002302280ADD0338074A16
:1005E000810088588B50002805D003685B689847C5
:1005F000031C181C08BD01235B42FAE758F1FF1FDA
:10060000F8B50C1C171C022812DC104B1B68002BC1
:1006100001D1FFF7D5FF002F08D00D4DE619217845
:10062000281C013400F072FAB442F8D1381CF8BD2D
:100630000338084B8000C058002803D003681B68AB
:100640009847F4E701204042F1E7C04658F2FF1F07
:1006500078F2FF1F58F1FF1F10B50C1C022809DCAF
:100660000C4B1B68002B0FD00B4800F03BFA20709E
:10067000012010BD0338094B8000C058002806D067
:1006800003689B689847F4E7FFF79AFFECE70120BF
:100690004042EEE758F2FF1F78F2FF1F58F1FF1FAC
:1006A00008B5031C0120022B08DD033B054A9B0013
:1006B0009858002803D00368DB68984708BD0120DC
:1006C0004042FBE758F1FF1F08B5031C0020022B36
:1006D00008DD033B05489B001858002803D0036839
:1006E0001B69984708BD01204042FBE758F1FF1FF6
:1006F00008B5022804D880239B014B60002008BD68
:1007000000F0ACFD0923036001204042F7E7C0463A
:10071000074A13681818EFF30881884202D2106064
:10072000181C7047034B0C2201201A604042F8E766
:10073000C4F0FF1F80F2FF1FFEE7FEE7FEE7FEE7C3
:10074000FEE7FEE70D4A0E4B10B598580D4A000F14
:100750001268013050430C4A5279510607D50B4AB2
:1007600080219C58490221439950400810BD074AF6
:1007700007499C5821409950F8E7C04644100000B2
:1007800000700440C8F0FF1F004006400410000045
:10079000FFFFFEFFF8B54F464646C0B403680F1C86
:1007A000DE78D9780C229143D97005684D4B041C32
:1007B00016409D4220D04C4B4C4AD1584C4B4903DB
:1007C000490F0131186800F0F9FC390100F0F6FC1E
:1007D00029781F23020A99431A400B1C13432B70DC
:1007E0002368C0B25A7858702368DA781643DE70EE
:1007F0000CBC90469946F8BD3E490B7889463F218E
:1008000088468B4336D0394A374BD358384A1B0F6A
:10081000106801335843374B3F22197891438029A0
:10082000D3D01978914335D15A79510634D49A7975
:10083000D1062FD41A7801219206520F91405B788D
:100840000A1C3021194200D052012A4B1F21DB78AB
:100850008B43602B35D02BD8202B35D0402B36D076
:10086000002B04D02449504300F0A8FCADE7A021A0
:100870008900F8E7FFF766FF002830D049460B787B
:100880004246934302D0256800209EE7FFF75AFFB7
:1008900025689AE7002098E71A7959791F231A40AA
:1008A0000B400132191C5043183100F087FC8CE7D3
:1008B000A02B11D0C02B0DD0802BD3D1B721890014
:1008C000D1E7A0210901CEE7A021C900CBE7F021A3
:1008D000C900C8E70949C6E7B721C900C3E72568C9
:1008E00091E7C04600A0064044100000007004409C
:1008F000C8F0FF1F00400640710B00009508000083
:1009000070B501680C24CD78CE782540A643CE7012
:10091000012A19D0002A19D0911E4A42514149009A
:100920000268202491700268013B11785B01A143A9
:100930001170026811780B43DBB2137003682A1C34
:10094000D9780A43DA7070BD0321E9E70021E7E7AF
:10095000F8B54D4644465F465646F0B4051C564829
:100960000F1C8146081C4946161C00F0BDF953496E
:10097000041C301C884600F0B7F9011C201C00F054
:10098000A1F94F4B041C2860984261D04D4A904217
:100990006CD04D488346844236D0E1780C208143A8
:1009A000E1709C425FD094426BD05C454DD0962163
:1009B000281C8901FFF7EEFE281C082100220123D4
:1009C000FFF79EFF381C494600F060F94146301C95
:1009D00000F05CF9791C03D0381C022100F006FA03
:1009E000721C03D0301C022100F000FA2B680C228C
:1009F000D9780A43DA70344B9C4252D03CBC9046C2
:100A00009946A246AB46F8BD304B1A783F239A432D
:100A1000231C002A38D02E492E4A802093468A581B
:100A200092460205504610435A46885028492A48A3
:100A30008022834608588246D000524602435846D8
:100A40000A50DA780C218A43DA7000236B60AEE733
:100A50001F4A214B8021D05809010143D150E3782E
:100A60000C229343E37001236B60A0E7184A1A4BF2
:100A70008021D05849010143D150E3780C2293439F
:100A8000E37002236B6092E7FFF75CFE002811D051
:100A9000104B0F4A8021D058C9040143D1502B6814
:100AA000C4E70E4B01221A60291C08220C4800F0F2
:100AB0004DFEA3E72B68AEE7883000001C30000035
:100AC00000B0064000C0064000A0064000400640BE
:100AD00000700440041000003410000058F2FF1FA2
:100AE00078F2FF1F036830B52021082508241A7901
:100AF000144204D01A792A43D2B21A7103681A79BF
:100B00001142F4D0D879C0B230BDC046036870B588
:100B1000082608257F241A79154204D01A79324311
:100B2000D2B21A7103681A79A243F4D0C9B2D9714A
:100B300070BDC0460A4B30B59C689B68221C002BD8
:100B400009D1084D5A191D5904331560C02BF8D12D
:100B5000044A034B9A6010308000815030BDC0467B
:100B600000ED00E000F0FF1F224B88210022490128
:100B700010B55A50204980205C58800020435850BE
:100B80001E481F4958501F4B1F49986C08409864D5
:100B9000D86C0140D9641D4B892119701C4924234C
:100BA0004B709A230B70CB781F200340CB7001232E
:100BB0000B714A7110228B791A42FCD114480C2116
:100BC0008379134A0B40082BFAD1402353710C212F
:100BD00093790B40082BFBD10D48402183790C4AB7
:100BE0001942FBD01A2313700C2193790B400C2B64
:100BF000FBD110BD0070044038100000000001104F
:100C00004410000000900440FFF8FFFE0050064032
:100C10000040064000B587B072B60849684600F04B
:100C200021F8039B019A96201A6000F081F8049B3A
:100C3000019A96201A6000F07BF8F2E74810000055
:100C40000FB400B583B004AA08CA054B04991B6809
:100C50000192D86801F00EF90120FFF781FCC0462F
:100C60002CF1FF1F38B50D1C041C00F069F801358C
:100C70000AD023696268201C01211A6000F084F800
:100C8000201C002100F07AF838BDC04610B5041CC5
:100C9000421C03D109E09C4208D00C3100228B5E3B
:100CA0005A1CF8D10648FFF7CBFF10BD201C8968FD
:100CB00000F07AF8201C002100F098F8F5E7C04613
:100CC000D42F000008B5884208D0431C07D001315A
:100CD00004D00448FFF7B4FF0120404208BD081CBF
:100CE000FCE7C046E82F0000021C08B5531C03D1E6
:100CF0000BE09A420AD00C3100200B5E581CF8D150
:100D00000448FFF79DFF0120404208BD4868431C8E
:100D1000FBD1F5E7FC2F000038B5051C00F0B6F953
:100D2000041C00F0B3F9031BAB42FAD338BDC04634
:100D300008B5FA239B005843FFF7EEFF08BDC046F5
:100D400038B5041C0D1C21804B1C14D0081C01213B
:100D500000F02AF86B06DB0E01229A40064B2D0BA1
:100D6000ED18AD012B1DE360043323611435083306
:100D700062606361A56038BDC03FE00308B5002331
:100D8000C05E00F033F808BD002907D0012904D166
:100D90008368426819680A431A607047836841682B
:100DA0001A688A431A60F8E7030BF0B50B4A0C4C3B
:100DB0001D1C09350127A658AF403D1C3543A550E1
:100DC000084A9B187C221B03104018180268064B27
:100DD0001A400B02111C19430160F0BD38100000CD
:100DE0000070044049000400FFF8FFFF034B03229A
:100DF000C018036893431943016070470090044092
:100E0000154B8022196810B50A4314491A600A6804
:100E1000002A12D11249088800280BD01A60986065
:100E20001C684020204318601C6801202043186083
:100E30000A8010BD00F08AF9FBE70020186009481D
:100E4000013A98601C684020204318601C6801200B
:100E5000204318600A60ECE7000004405CF2FF1FCA
:100E600064F2FF1FFFFF0000F8B5794B4F461D6885
:100E70004646C0B4002D03D00CBC90469946F8BD40
:100E800001271F60734E744B8022F15812040A43ED
:100E9000F250724C0122882352425B002560E250DE
:100EA0008C235B000422E250E2586D493A43E25041
:100EB000894671586B4B4903490F186801319846B0
:100EC00000F07CF9684B6949C01800F077F980237D
:100ED00001385B00E05084235B00E750644B1C202A
:100EE000F25864493A43F250634B1D60FFF722FE0B
:100EF000624B802252051A60494673584246106878
:100F00001B0F013358435E4B3F22197891438029D0
:100F10007AD01978914320D15A79510643D49A79DD
:100F2000D1061AD41A785B789206520F9740302275
:100F30001A426BD1524BDA781F239A43602A7CD035
:100F400066D9A02A76D0C02A72D0802A69D04D49AD
:100F5000784300F033F9071C32E0494B022219783C
:100F60000E200A431A70597801220A435A70424AE5
:100F700000215160197A014010D0022902D1536832
:100F8000536079E7197A81431972187A0421014371
:100F90001972516804230B4353606DE751680823AD
:100FA0000B43536068E71C791F225979131C2340B7
:100FB0000A400133111C5843183100F0FFF8071C98
:100FC000002FCAD0381C294900F03CF90029C4D1AF
:100FD000381C264900F0F2F8012825D040080128E5
:100FE00034D0C207B9D40023012201E00242B4D1B7
:100FF000013340080128F9D17822DB001340032295
:1010000013431D4A536037E7071CD9E77F0191E777
:10101000202A18D0402A13D0002A98D1A021890074
:1010200096E7B721890093E7134B07225A6023E71D
:1010300015498DE7B721C9008AE7A021090187E793
:10104000F021C90084E7A021C90081E70323D8E784
:1010500060F2FF1F007004403C100000007003406D
:1010600044100000C8F0FF1F20A1070040420F00FD
:1010700038100000010E00000000044000E100E014
:1010800000400640710B00009508000008B5064BB3
:101090001B68002B01D1FFF7E7FE8A23034A5B00A0
:1010A000D058C04308BDC04660F2FF1F0070034027
:1010B000024B40211A688A431A60704700000440BE
:1010C0007047C0461B4B10B51B68041C002B2BD06F
:1010D0008A23194A5B00D058C043201A002826DD15
:1010E000164C1749031423600880164A0DD10004DA
:1010F000000C136090601468402020431060146856
:101100000120204310600B8010BD002111600E49AA
:10111000013B91601068402101431160106801217A
:10112000014311602360EFE7FFF79EFED0E700F078
:101130000DF8E9E760F2FF1F007003405CF2FF1F4B
:1011400064F2FF1F00000440FFFF0000F8B54F46A7
:101150004646C0B4FFF7B4FF1648174A804691468A
:101160004046036812E01C685D68FFF78FFF0027A8
:10117000061CA41BBD41002D12DC0FD04246116895
:101180004846CB6813600268002A10D1002BEAD1D0
:10119000FFF78EFF0CBC90469946F8BD002CEDD0B1
:1011A0004246136818685968FFF78CFFF2E78868B1
:1011B0009047D5E768F2FF1F6CF2FF1F002934D07B
:1011C0000123002210B488422CD301242407A14219
:1011D00004D2814202D209011B01F8E7E400A142D6
:1011E00004D2814202D249005B00F8E7884201D371
:1011F000401A1A434C08A04202D3001B5C08224349
:101200008C08A04202D3001B9C082243CC08A042B9
:1012100002D3001BDC082243002803D01B0901D0A5
:101220000909E3E7101C10BC7047002801D000201A
:10123000C04307B4024802A14018029003BDC04653
:10124000190000000029F0D003B5FFF7B9FF0EBC6C
:101250004243891A1847C0467047C046014B186878
:101260007047C0462CF1FF1FF7B58B89051C0C1C7D
:1012700019075ED46268002A02DC276C002F1ADD91
:10128000E76A002F17D000222E682A6080225201C0
:101290001A4001D0626D15E0281C216A0123B8476D
:1012A000021C411C0ED12B68002B0BD01D2B01D032
:1012B000162B02D12E6000205EE0A38940210B4353
:1012C000A38159E0A3895F0706D56168636B521A51
:1012D000002B01D0276CD21B281C216A0023E76A4F
:1012E000B847A289411C06D12B68002B03D01D2BC7
:1012F00001D0162B19D10023636023692360D70422
:1013000005D5411C02D12A68002A00D16065616BB5
:101310002E600029CFD0231C4433994202D0281CD0
:1013200000F026FA0020606326E040231A43A281E1
:1013300022E02669002EBED027680022BF1B01973D
:101340002660990700D16269A260019F002FB2DD7B
:10135000281C216A321C019BA76AB847002806DCBA
:10136000A389402213430120A381404204E0019F4E
:1013700036183F1A0197E8E7FEBD00000A6938B544
:10138000051C0C1C002A01D100201CE0002804D000
:101390008369002B01D100F085F80B4B9C4201D1F1
:1013A0006C6808E0094B9C4201D1AC6803E0084B33
:1013B0009C4200D1EC680C22A35E002BE4D0281CD8
:1013C000211CFFF751FF38BDF4300000143100003C
:1013D0003431000008B5011E05D1054B05491868D8
:1013E00000F0FEF803E0044B1868FFF7C7FF08BDE4
:1013F000583100007D1300002CF1FF1FF8B5041CCC
:10140000071C4834002C12D0A5686668013E0CD435
:10141000AB89012B07D90E22AB5E013303D0381CF8
:10142000291CFFF7ABFF6835F0E72468EAE7F8BD51
:10143000002310B5041C0360436083608181436610
:10144000C281036143618361191C08225C3000F092
:1014500086F9054B24626362044BA362044BE3628A
:10146000044B236310BDC0460D1A0000351A00005E
:101470006D1A0000991A000070B54B1E68255D4377
:101480000E1C291C743100F0BBF9041E08D0002189
:10149000016046602A1C0C30A060683200F05FF9E1
:1014A000201C70BD836913B5041C002B27D18364F5
:1014B000C3640365124B134A1B688262984201D1D0
:1014C00001238361201C00F01FF86060201C00F0E5
:1014D0001BF8A060201C00F017F80421E060002237
:1014E0006068FFF7A5FFA06809210122FFF7A0FFB0
:1014F000E06812210222FFF79BFF0123A36113BDC5
:1015000058310000FD130000F8B51D4B071C1E6884
:10151000B269002A02D1301CFFF7C4FF4836B46814
:101520007368013B05D40C22A55E002D10D06834F1
:10153000F7E73368002B06D1381C0421FFF79CFF26
:101540003060002801D03668E9E70C233B6016E0E4
:1015500001235B42E381201C0123A3816566256092
:10156000A560656025616561A5615C30291C082264
:1015700000F0F5F86563A563A564E564201CF8BD7B
:10158000583100000EB403B503AB04CB054A011C6F
:101590001068039A019300F05DFF02B008BC03B02D
:1015A0001847C0462CF1FF1FF7B5041C01914834C1
:1015B0000026002C12D0A5686768013F0CD4AB89C7
:1015C000012B07D90E22AB5E013303D0281C019BEF
:1015D000984706436835F0E72468EAE7301CFEBD0B
:1015E000F7B5041C071C019148340026002C16D0C6
:1015F0006268A5680092009A013A00920DD4AB8906
:10160000012B08D90E22AB5E013304D0381C291CF3
:10161000019B984706436835EDE72468E6E7301CF0
:10162000FEBD0000F7B55343051C0191171C089C33
:101630000093002804D08269002A01D1FFF732FF0D
:10164000244B9C4201D16C6808E0234B9C4201D1A1
:10165000AC6803E0214B9C4200D1EC68A3891A07D7
:1016600004D52369002B01D000261CE0281C211C76
:1016700001F0E6F80026B042F6D025E0A368019A12
:10168000013BA360915D002B18DAA26993420EDA48
:10169000281C221C01F068F8013043425841C0B2B6
:1016A000002811D10136009B9E42E7D10CE023684F
:1016B0001970236819780A2903D1E9E722681170A3
:1016C000236801332360EDE7301C391CFFF776FDFA
:1016D000FEBDC046F430000014310000343100007B
:1016E00073B5141C054A061C0D1C1068311C0093B0
:1016F0002A1C231CFFF796FF76BDC0462CF1FF1F66
:1017000070B50E4B0E4D0024ED1AAD101E1CAC42F0
:1017100004D0A300F35898470134F8E701F0BAFB6E
:10172000084B094D0024ED1AAD101E1CAC4204D02C
:10173000A300F35898470134F8E770BD34F1FF1F58
:1017400034F1FF1F34F1FF1F38F1FF1F10B50023E4
:10175000934203D0CC5CC4540133F9E710BD031CA1
:101760008218934202D019700133FAE770470000E3
:1017700030B5002940D004390B68002B00DAC918B5
:101780001E4A1368141C002B02D14B60116033E019
:1017900099420FD208680A189A4205D11368526814
:1017A000C01808604A6000E04B60216024E08A4273
:1017B00003D8131C5A68002AF9D11D685C198C42A1
:1017C0000BD10968691858181960904214D114682F
:1017D0005268091919605A600EE08C4202D90C2334
:1017E000036009E008680C18944203D11468526839
:1017F000001908604A60596030BDC04674F2FF1F8E
:1018000070B50323CD1C9D430835061C0C2D01D259
:101810000C2501E0002D3FDB8D423DD3204B1C68A1
:101820001A1C211C002913D00868431B0DD40B2B54
:1018300002D90B60CC181EE08C4202D163681360A1
:101840001AE0486860600C1C16E00C1C4968E9E767
:10185000144C2068002803D1301C00F0ABF8206045
:10186000301C291C00F0A6F8431C15D0C41C03230F
:101870009C4384420AD12560201C0B300722231D83
:101880009043C31A0BD05A42E25008E0211A301C90
:1018900000F090F80130EED10C233360002070BDD1
:1018A00074F2FF1F70F2FF1F0FB40B4B13B51C68CF
:1018B000002C05D0A369002B02D1201CFFF7F2FDFC
:1018C00005ABA168201C049A019300F0CBF916BC6B
:1018D00008BC04B01847C0462CF1FF1F70B5051CAA
:1018E0000E1C002804D08269002A01D1FFF7DAFD1E
:1018F000AC68A3891A0702D52369002B19D1281CCB
:10190000211C00F09DFF002813D00120404245E03B
:101910003178002B1BDAA269934211DA281C221CB1
:1019200000F022FF013043425841C0B20028ECD100
:101930000136A3683278013BA360002AE8D10CE0AD
:1019400023681970236819780A2903D1E6E7226809
:101950001170236801332360EAE7002B17DAA269CC
:10196000934208DB22680A231370236819780A2936
:1019700011D1281C01E0281C0A21221C00F0F4FED1
:10198000013043425841C0B2002806D0BDE722686A
:101990000A2313702368013323600A2070BD0000FE
:1019A00008B5034B011C1868FFF798FF08BDC04637
:1019B0002CF1FF1F38B5074C0023051C081C2360C1
:1019C000FEF7A6FE431C03D12368002B00D02B603A
:1019D00038BDC04680F2FF1F0FB40B4B13B51C6817
:1019E000002C05D0A369002B02D1201CFFF75AFD63
:1019F00005AB6168201C049A019300F02BFD16BC16
:101A000008BC04B01847C0462CF1FF1F38B50C1CA9
:101A10000E25495F01F02EF8002803DB626D1318D4
:101A2000636503E0A289024B1340A38138BDC04621
:101A3000FFEFFFFFF8B51E1C8B89051C0C1C171C43
:101A4000DA0505D50E23C95E0022022300F07CFFD3
:101A5000A289054B281C1340A3810E22A15E331CD2
:101A60003A1C00F0D9FEF8BDFFEFFFFF38B50C1CA3
:101A70000E25495F00F068FFA389421C03D1054A87
:101A80001340A38104E0802252011343A3816065C7
:101A900038BDC046FFEFFFFF08B50E23C95E00F05A
:101AA00041FF08BD0023C25C0133002AFBD1581E50
:101AB00070470000F7B50B1C4D6B44330C1C9D4266
:101AC0001BD18026F600311CFFF79AFE002802D1B8
:101AD0000120404225E0231C6063A66346331A7848
:101AE000104BC254231C45331A780F4BC2542A782A
:101AF0000E4BC254C018206012E08E6B291C73007C
:101B00001A1C019300F08FFF051EE1D08719381CC5
:101B1000291C321CFFF71AFE019B27606563A36333
:101B20000020FEBDFF030000FE030000FD030000D7
:101B3000F8B5051C0E1C141C4A1C02D101204042A1
:101B400061E0002804D08369002B01D1FFF7AAFCD3
:101B50002D4B9C4201D16C6808E02C4B9C4201D17A
:101B6000AC6803E02A4B9C4200D1EC68A389202298
:101B70009343A3819BB25A0713D4DA06DED5082714
:101B80003B420AD0281C211CFFF7F8FB0028D5D1C6
:101B9000A389A060BB43A381A061A389042213434E
:101BA000A381636BF6B26268002B10D0A36B9A42DC
:101BB00006DA2368013B23601E706368013320E06E
:101BC000281C211CFFF776FF0028F2D0B6E7216918
:101BD0002368002909D08B4207D9591E0878B042E2
:101BE00003D10132216062600DE0E363231C4433C2
:101BF00063630323A363231C463322641E702360A4
:101C000001236360301CF8BDF43000001431000083
:101C100034310000936810B5013B9360002B05DA66
:101C20009469A34208DBCBB20A2B05D01368581C79
:101C300010601970C8B201E000F096FD10BDF8B553
:101C4000061C0F1C141CD518AC4208D02178301C7F
:101C50003A1CFFF7DFFF0134431CF5D100E0002000
:101C6000F8BD0000F0B59FB0061C0F1C0392059351
:101C7000002804D08169002901D1FFF713FC754BBE
:101C80009F4201D1776808E0734B9F4201D1B7684A
:101C900003E0724B9F4200D1F768BB891A070AD54F
:101CA0003B69002B07D006AD00236B6120236B76C8
:101CB0003023AB763BE0301C391C00F0C1FD00281E
:101CC000F1D001204042C2E0059A111D1268059131
:101CD000002A76DB0992013423782E2B00D181E093
:101CE00021785F48032200F093FE002807D05C496A
:101CF0002A68431A40209840104328600134217814
:101D0000631C584806220393297600F081FE0028C0
:101D100000D18AE0544B002B7ED1059B072207336C
:101D20009343083305936A69049953186B61039CC4
:101D30002378002B04D10399611A029110D003E09B
:101D4000252BF8D00134F3E7301C391C039A029B91
:101D5000FFF775FF013075D06A69029953186B61FE
:101D60002378002B6ED0012252426A606A4600231B
:101D70005B3201342B60EB60AB601370AB65217894
:101D80003A48052200F044FE002808D0374A0134C2
:101D9000831A012098402B6818432860EFE72B68CE
:101DA000D90603D56A4620215B3211701A0703D584
:101DB0006A462B215B32117022782A2A84D0099B33
:101DC00005E05242EA60022213432B6083E7227847
:101DD000303A092A04D80A214B4301349B18F6E70C
:101DE000099379E763782A2B09D1059B02341A1DE0
:101DF0001B680592002B0DDA01235B420AE00134D7
:101E000000232278303A092A04D80A214B430134AE
:101E10009B18F6E7079363E705AB0093301C291C7A
:101E20003A1C134B00E000BF07E005AB0093301CE9
:101E3000291C3A1C0E4B00F09FF8049004990131C4
:101E400000D070E7BB895A0600D53AE70B981FB05F
:101E5000F0BDC046F4300000143100003431000001
:101E60006231000066310000000000005C310000BB
:101E70003F1C000038B5131C044A051C0C1C1068DC
:101E8000291C221CFFF7EEFE38BDC0462CF1FF1FB7
:101E9000F7B5151C01930A698B68061C0C1C93424C
:101EA00000DA131C221C2B6043321278002A01D066
:101EB00001332B602068800602D52B6802332B602B
:101EC000216806270F401FD0231C43331B785A1E5E
:101ED0009341226892061FD5E11840313020C87026
:101EE000211C5A1C45310978A21840320233D170A6
:101EF00012E0221C301C019919320123089FB847B7
:101F0000013011D0009F01370097E0682968009FD9
:101F1000431A9F42EDDBD7E7221C301C0199433264
:101F2000089FB847013002D10120404223E02068D9
:101F300006212B68E26801400025042903D1D51A47
:101F4000EB43DB171D40A26823699A4201DDD31AD7
:101F5000ED1800270097009FAF420BDA221C301CBF
:101F600001991A320123089FB8470130DCD0009F45
:101F70000137EFE70020FEBDF0B50D1C8BB04335F7
:101F800006920590079304950B7E0C1C109A6E2BFD
:101F900000D1A7E011D8632B22D009D8002B00D1A3
:101FA000B0E0582B00D0C0E045310B707B4D4EE0C7
:101FB000642B1CD0692B1AD0B7E0732B00D1A5E09D
:101FC00009D86F2B29D0702B00D0AEE00E682023EB
:101FD00033430B6036E0752B1FD0782B32D0A4E052
:101FE00013680D1C191D423511601B689FE02168A4
:101FF00013680E0603D5191D11601E6805E048061A
:10200000F9D5191D116000215E5E644B002E3BDA8C
:10201000049D2D2276422A7036E0216813680E0650
:1020200003D5191D11601E6804E04806F9D5191D75
:102030001E881160594B227E039308276F2A1ED0F9
:102040000A271CE0231C78214533554D197011686F
:102050002368081D039510601E0601D50E6802E076
:102060005806FBD50E88D90702D5202213432360DA
:102070001027002E03D1226820239A432260231CBC
:10208000002243331A7001E003930A276368A360B8
:10209000002B03DB2568042295432560002E02D126
:1020A000049D002B0ED0049D301C391CFFF7CAF88C
:1020B0000398013D435C301C2B70391CFFF77EF800
:1020C000061EF1D1082F09D12168C90706D562681B
:1020D00023699A4202DC013D30232B70049E731B5E
:1020E00023612AE0086813684969050604D5181DAC
:1020F00010601B68196005E04606F8D5181D1060D1
:102100001B68198000232361049D16E01368191DC4
:1021100011601D68281CFFF7C5FC636820619842A8
:1021200000D923612069606004E0251C42352B70D2
:1021300001232361049E00233370079E05980096B7
:10214000211C09AA069BFFF7A3FE013002D1012042
:10215000404221E02A1C059806992369079DA8475B
:102160000130F4D02668B60705D4099BE068984290
:1021700012DA181C10E00025E0680999431A9D4204
:10218000F3DA221C0598069919320123079EB047FD
:102190000130DCD00135EFE70BB0F0BD6D31000050
:1021A0007E310000F0B5A54C071CA5440193002327
:1021B00000924693A24A4793BE235B000C1C43A99E
:1021C000CA50A04AC02303A85B004890CA50009A96
:1021D0001578002D00D128E19B4E306843195A78BC
:1021E000082313401FD0616800290FDD2368306881
:1021F0001A7882185278110711D5479A01330132A3
:10220000479262682360013A6260ECE7C0235B009A
:1022100043AAD358381C211C98470028E6D0009EBA
:1022200001360096D3E7009E0136252D4CD100984B
:102230004593439343782A2B03D11023061C4393E1
:102240000236351C29780B1C303B092B07D8459AE0
:102250000A235343303B591845910135F2E77B4E31
:102260000322301C00F0D4FB002806D0861B439BC1
:102270000120B0401843439001356E1C2D78672D26
:102280000FD8652D77D25B2D51D005D8002D00D108
:10229000CDE0252D18D070E0632D54D0642D3DD0B5
:1022A0006BE0702D2FD007D86E2D52D038D8692D05
:1022B00063D10023449338E0752D2FD0782D26D09C
:1022C000732D5AD102233CE0606800280DDD23689D
:1022D0001A78AA4200D0A8E0013362682360479BC5
:1022E000013A0133626047939BE7C02343A95B0037
:1022F000CB58381C211C98470028E8D04698002865
:1023000000D08EE093E0439A2023134343934398F5
:1023100080239B0003434393102302E00A2300E041
:102320000823449304236E2D0BDC032309E0311CA6
:1023300003A800F047FC439940230B434393061C3A
:10234000012349931DE0439A402313434393002301
:10235000F7E74399CB0600D563E7019B479AC80787
:1023600004D5191D01911B681A805AE7191D0191A6
:102370001B681A6055E70523E3E7032349930A2303
:1023800044936168002903DD439A520614D51BE08B
:10239000C02343A85B00C358211C381C9847002861
:1023A000F2D0ABE7479A013247926268013A626025
:1023B000002A13DD01332360236823491A78096852
:1023C0008A1852781007EDD4499B022B10DC381C78
:1023D00043A9221C01AB00F065F81CE0C02343A90F
:1023E0005B00CB58381C211C98470028E4D085E7B7
:1023F000042B06DC381C43A9221C01AB00F0B6F804
:1024000009E0134B002B00D10BE7381C43A9221C19
:1024100001AB00E000BF012807D0022800D000E790
:102420006CE7A389590604D501E0469801E0012034
:102430004042A5239B009D44F0BDC0466CFDFFFFBC
:10244000311B0000B52A000030F1FF1F623100008F
:1024500000000000F8B5051C0C1C171C1E1C0028F1
:1024600004D08369002B01D1FFF71CF80A4B9C4272
:1024700001D16C6808E0094B9C4201D1AC6803E0D3
:10248000074B9C4200D1EC68281C3A1C331C211CD1
:10249000FFF788FEF8BDC046F4300000143100009C
:1024A00034310000F7B5151C8A6801900C1C002A15
:1024B00006D18A69511E8A41524201210A43A26013
:1024C0002268D20603D41A68111D19601768002605
:1024D000A06900281DD123680136DB0603D42A68D1
:1024E00013783B7001372A686B6801322A60A26852
:1024F000013B013A6B60A260002A25D0002BE7DC8B
:10250000C0235B00E3580198291C98470028DFD0BE
:102510001AE0012808D12A6813786269D35C002B7D
:10252000D9D1002E1FD00FE0022802D0002E09D0F2
:102530000AE02A6813780C4A1268D3185B781A07E5
:10254000C9D5F3E701280ED022681023134006D125
:10255000E2680132E260A269002A00D03B70236980
:1025600000209E192661FEBD30F1FF1FF0B5151C3D
:102570008BB0774A0490029307ABC1CAC1C3886984
:102580000C1C032802D1734E059601E0724F05978B
:10259000A3680026AE22591E03965200914205D927
:1025A0005E3BFF3B03935E23FF33A3602068D02391
:1025B000271C1B011C37034301970097236000274A
:1025C00007AABB0098582A681178022200F020FA66
:1025D00000283AD0012F0DD16368002B06D10823C3
:1025E0002668636080239B00334323605B4B206835
:1025F00003400EE0022F0DD12368C021C9008022C4
:1026000019409200914223D1102262608022520030
:1026100013432360A3685A1EA260002B15D02B68B9
:1026200000995A1C2A601B78009E0B706B6801365B
:10263000013B6B600096002B07DCC0235B00E35876
:102640000498291C9847002843D10137032FB7D19C
:102650006268002A01D10A23636063681021C91AE5
:102660003F4B6069C91800F0ADFA009E0027A368CF
:10267000002B2FD02A6861691078095C002929D0C5
:10268000216830280AD1080508D5039901370029A7
:102690000AD0013901330391A36005E0314B1940A1
:1026A00021601378337001366B68013B6B60002B3F
:1026B00003DD2B6801332B6007E0C0235B00E35888
:1026C0000498291C9847002804D1A368013BA36003
:1026D000CDE700272268D2050DD5019B9E4207D980
:1026E000BE23013E5B003178E35804982A1C9847CA
:1026F000019DAE4228D02068102202401CD13270C9
:102700006368059D04980199A847029D22682B687B
:10271000910601D51A1D09E0D50705D5029D1A1DA0
:102720002A601B68188004E0029D1A1D2A601B683D
:102730001860E3680133E360019D0020761BF71900
:102740002669F719276100E001200BB0F0BDC046F3
:10275000903100002D2C0000412D0000FFFAFFFFFA
:102760009C310000FFF6FFFF70B5051C0E1C141C09
:10277000002804D08269002A01D1FEF793FE234B82
:102780009C4201D16C6808E0214B9C4201D1AC68AD
:1027900003E0204B9C4200D1EC68A369A360A389AD
:1027A0001A070AD52369002B07D022682369F6B2DD
:1027B000D01A626990420FDB08E0281C211C00F04F
:1027C0003FF80028F1D0012040421DE0281C211CC8
:1027D000FEF7D4FD0028F6D1A3680130013BA360C9
:1027E00023685A1C22601E706369984205D0A38931
:1027F000301CDA0708D50A2E06D1281C211CFEF74A
:10280000BDFD0028DFD1301C70BDC046F430000093
:10281000143100003431000038B5084C051C00208C
:102820002060081C111C1A1CFDF7EAFE431C03D192
:102830002368002B00D02B6038BDC04680F2FF1FFC
:10284000344B70B51D68061C0C1C002D05D0A96901
:10285000002902D1281CFEF725FE2F4B9C4201D1F6
:102860006C6808E02D4B9C4201D1AC6803E02C4B16
:102870009C4200D1EC68A28993B2190721D4D906F1
:1028800005D40923336040231A43A2813FE05A074D
:1028900013D5616B002908D0231C4433994202D020
:1028A000301CFEF765FF00236363A3892422934352
:1028B000A3810023636023692360A3890822134353
:1028C000A381216900290BD1A389A02292001A407B
:1028D00080239B009A4203D0301C211C00F048F852
:1028E000A38901221A4005D061690022A2604A42F0
:1028F000A26103E0990700D46269A2602269002006
:10290000824206D1190604D540221343A381012037
:10291000404270BD2CF1FF1FF43000001431000064
:102920003431000038B5074C0023051C081C236017
:10293000FDF750FE431C03D12368002B00D02B6011
:1029400038BDC04680F2FF1F38B5084C051C00207A
:102950002060081C111C1A1CFDF7B6FE431C03D195
:102960002368002B00D02B6038BDC04680F2FF1FCB
:10297000F0B58B8991B0051C0C1C9A0725D40E2349
:10298000C95E002906DAA78980231F400FD00027DF
:1029900040260EE001AA00F04FFA0028F3DB029B6C
:1029A000F0273F02184A1F40BF187B425F41802634
:1029B000F600281C311CFEF723FF00280CD1A38948
:1029C0009A051FD402221343A381231C473323609B
:1029D00023610123636115E00C4B8022AB62A38964
:1029E00020601343A38120616661002F0AD00E236B
:1029F000E15E281C00F032FA002803D0A3890122EE
:102A00001343A38111B0F0BD00E0FFFFFD130000F0
:102A1000C9B28218904204D003788B4202D00130B0
:102A2000F8E700207047F8B5061C0C1C151C00299F
:102A300004D1111CFEF7E4FE041C18E0002A03D1A7
:102A4000FEF796FE2C1C12E000F01AFAA8420ED2F5
:102A5000301C291CFEF7D4FE071E07D0211C2A1C9F
:102A6000FEF774FE301C211CFEF782FE3C1C201C6D
:102A7000F8BD000038B5084C051C00202060081C7B
:102A8000111C1A1CFDF7E8FD431C03D12368002B21
:102A900000D02B6038BDC04680F2FF1F08B5828988
:102AA00009231A400023092A02D1FEF793FC031CD4
:102AB000181C08BDF8B5051C0C1C002804D0816941
:102AC000002901D1FEF7EEFC394B9C4201D16C6824
:102AD00008E0384B9C4201D1AC6803E0364B9C4285
:102AE00000D1EC68A2890023636093B299065CD49C
:102AF000590717D4D90602D409232B6052E00826BF
:102B000033420AD0281C211CFEF738FC00284CD187
:102B1000A389A060B343A381A061A38904221343C6
:102B2000A38112E0616B00290FD0231C443399422A
:102B300002D0281CFEF71CFE236C0020606363603B
:102B4000834202D0E36B236031E02169002903D185
:102B5000281C211CFFF70CFFA789BEB2B3070FD0BA
:102B60000123A381154B16491868FEF71DFD0923A3
:102B7000A7811E409E4203D1281C211CFEF774FB36
:102B80002269281C63692260216A656AA847031CC0
:102B90006060002083420ADCA289834201D12023A5
:102BA00001E0606040231A43A28101204042F8BD49
:102BB000F4300000143100003431000058310000BE
:102BC0009D2A0000F0B50B785E2B02D04C1C002132
:102BD00002E08C1C4B7801210022815480250132B7
:102BE0006D00AA42F9D1002B01D1601E1CE0012723
:102BF0007F1AFEB2C654221C1178541C2D2905D010
:102C00005D290ED000290ED00B1CF2E755785D2D02
:102C1000FAD09D42F8DB02320133C654AB42FBDBF3
:102C2000EAE7201C00E0101CF0BD0000F0B51D1C00
:102C3000424B87B01B6805900293039101920B1CD5
:102C40001C78029F5E1C3A19517808220A4001D074
:102C5000331CF5E72D2C04D101279E1C5C780097CE
:102C600004E000922B2C01D15C789E1C10232A1CBE
:102C70009A4311D1302C08D1327820218A43582A26
:102C800007D174781D1C023606E0002D04D10A25F8
:102C900002E0002D00D10825009F291C7B427B41CA
:102CA00080273F06FF1A381CFEF7CCFA381C049127
:102CB000291CFEF783FA0023021C181C029F3919F5
:102CC00049784F0701D5303C07E003270F4017D064
:102CD0005721012F00D13721641AAC4210DA591C58
:102CE0000BD0904207D802D1049FBC4203DC68435A
:102CF0000123201801E001235B4234780136DDE72F
:102D0000009F591C0BD180207B427B410006059F10
:102D1000C01A22233B60019F002F09D10BE0002F36
:102D200000D04042019F002F05D0039A002B00D015
:102D3000721E019F3A6007B0F0BDC04630F1FF1F20
:102D4000F0B51D1C3B4B87B01B68059002930491A6
:102D5000171C0B1C02991C785E1C0A19517808225A
:102D60000A4001D0331CF5E72D2C04D101229E1C12
:102D70005C78019204E001922B2C01D15C789E1CBE
:102D800010232A1C9A4311D1302C08D132782021EB
:102D90008A43582A07D174781D1C023606E0002D9C
:102DA00004D10A2502E0002D00D108250120291CAC
:102DB0004042FEF703FA039001204042291CFEF72F
:102DC00041FA00238C46181C02990A1952785107BF
:102DD00001D5303C07E00321114017D057220129CB
:102DE00000D13722A41AAC4210DA002B09DB039A77
:102DF000904206D801D1644503DC684301232018C2
:102E000001E001235B4234780136DDE7002B04DA70
:102E1000059922220A60012002E0019A002A00D0CE
:102E20004042002F04D0049A002B00D0721E3A605A
:102E300007B0F0BD30F1FF1F38B5074C0023051C6B
:102E4000081C111C2360FDF753FC431C03D12368AD
:102E5000002B00D02B6038BD80F2FF1F38B5074C27
:102E60000023051C081C2360FDF770FB431C03D1E5
:102E70002368002B00D02B6038BDC04680F2FF1FB6
:102E800004390B68181F002B02DAC8581B18181FCA
:102E900070470000F8B5C046F8BC08BC9E467047B5
:102EA000F8B5C046F8BC08BC9E4670470D0A0D0A2E
:102EB000474343344D424544205465737420537551
:102EC0006974650D000000005374616E6461726482
:102ED00020492F4F20556E69742054657374730D0B
:102EE000000000005465737420313A207072696EDE
:102EF0007466282920746573740D0000546573741A
:102F000020323A207363616E6628292074657374D9
:102F10000D0000002020202054797065206E756D12
:102F200062657220616E6420707265737320456EF5
:102F30007465723A20000000256400000A202020F9
:102F400020596F75722076616C7565207761733AD0
:102F50002025640D0A0000005465737420333A2064
:102F6000667072696E7466287374646F75742C2051
:102F70002E2E2E2920746573740D0A005465737407
:102F800020343A20667072696E74662873746465C2
:102F900072722C202E2E2E2920746573740D0A0057
:102FA0005465737420353A20667363616E662873C6
:102FB0007464696E2C202E2E2E2920746573740D76
:102FC000000000005465737420636F6D706C65744D
:102FD000650D0000636F756C64206E6F74207069FE
:102FE0006E6F75740000000070696E6D6170206D09
:102FF00069732D6D617463680000000070696E6D07
:103000006170206E6F7420666F756E6420666F72DB
:10301000207065726970686572616C000C20000038
:1030200000B00640030000000400000000A00640BD
:10303000020000001030000000C006400300000045
:103040000830000000C006400300000018300000F7
:1030500000A00640030000005C40000000C00640E5
:10306000040000005440000000A0064004000000DE
:103070000440000000B0064003000000FFFF000015
:10308000FFFFFFFF000000001020000000B006401E
:10309000030000000800000000A00640020000003D
:1030A0001430000000C00640030000000C30000097
:1030B00000C00640030000001C30000000A00640D5
:1030C000030000005040000000A006400400000083
:1030D0005840000000C0064004000000004000000E
:1030E00000B0064003000000FFFF0000FFFFFFFFED
:1030F00000000000000000000000000000000000D0
:1031000000000000000000000000000000000000BF
:1031100000000000000000000000000000000000AF
:10312000000000000000000000000000000000009F
:10313000000000000000000000000000000000008F
:10314000000000000000000000000000000000007F
:103150000000000043000000CCF0FF1F232D302BA7
:103160002000686C4C006566674546470030313288
:1031700033343536373839414243444546003031DF
:10318000323334353637383961626364656600003E
:10319000AE310000B1310000B4310000412D466174
:1031A0002D66383930313233343536375D002B2DCA
:1031B00000303000785800002020202020202020DF
:1031C00020282828282820202020202020202020D7
:1031D00020202020202020208810101010101010F7
:1031E000101010101010101004040404040404043F
:1031F00004041010101010101041414141414101D0
:1032000001010101010101010101010101010101AE
:1032100001010110101010101042424242424202BD
:10322000020202020202020202020202020202027E
:103230000202021010101020000000000000000028
:10324000000000000000000000000000000000007E
:10325000000000000000000000000000000000006E
:10326000000000000000000000000000000000005E
:10327000000000000000000000000000000000004E
:10328000000000000000000000000000000000003E
:10329000000000000000000000000000000000002E
:1032A000000000000000000000000000000000001E
:0C32B00000000000000000000000000012
:1032BC000100000088F2FF1F006CDC02000000001F
:1032CC00F430000014310000343100000000000024
:1032DC00000000000000000000000000543100005D
:1032EC0000000000000000000000000000000000D2
:1032FC0000000000000000000000000000000000C2
:10330C0000000000000000000000000000000000B1
:10331C00000000000000000000000000CCF0FF1FC7
:0C332C00B731000039040000110400005B
:04000003000000C138
:00000001FF
