:1000000000200010C10000002505000027050000A9
:1000100000000000000000000000000000000000E0
:1000200000000000000000000000000029050000A2
:1000300000000000000000002B0500002D0500005E
:100040002F0500002F0500002F0500002F050000E0
:100050002F0500002F0500002F0500002F050000D0
:100060002F0500002F0500002F0500002F050000C0
:100070002F0500002F0500002F0500002F050000B0
:100080002F0500002F0500002F0500002F050000A0
:100090002F0500002F0500002F0500002F05000090
:1000A0002F0500002F0500002F0500002F05000080
:1000B0002F0500002F0500002F0500002F05000070
:1000C0000749084A084B9B1A05DD002408591051BE
:1000D00004349C42FADB054880470548004700008D
:1000E000AC1E0000C00000103C010010F500000034
:1000F000A902000010B5344B8E229200995820209E
:100100008143995082B000221A620192019BC72B51
:1001100006D8C046019B01330193019BC72BF8D938
:10012000294801230022036401214364426443649B
:10013000436C254A1942FBD0232393608E239B00F6
:10014000D15880208143D150141C0120E3681E4AFD
:1001500001211842FAD00323136700235167141CAE
:10016000536701205167636F174A01211842FAD083
:100170008E2391679B00D45814482040D050D45807
:1001800013482040D050002391640120D164D364EF
:10019000D164D36C0C491842FBD023230B6101209E
:1001A0004B69094A1842FBD0C0230021D150D150DD
:1001B000C8230121D1508023D05880214902014316
:1001C000D15002B010BDC04600800440FFFBFFFFCD
:1001D000FFFEFFFF00000000000000000000000024
:1001E000000000000000000000000000000000000F
:1001F00000000000000000000000000000000000FF
:1002000010B5064C2378002B07D1054B002B02D0EC
:10021000044800E000BF0123237010BD3C01001022
:1002200000000000A81E000008B5084B002B03D0FA
:100230000748084900E000BF07480368002B03D0C7
:10024000064B002B00D0984708BDC04600000000B8
:10025000A81E0000400100103C010010000000003A
:1002600010B5074CE368626806481A6000F08AF827
:100270002369626803481A6000F084F8F2E7C04618
:1002800058010010CDCC4C3E08B50648002328216B
:10029000037043608360C3600361436100F03CF816
:1002A00008BDC046580100100748084A08B5121A90
:1002B000002100F0C2FF00E000BF00F08FFFFFF759
:1002C000CFFF00F00FF8C0463C0100109402001070
:1002D00008B50123022802DD00F0D8F8031C181C21
:1002E00008BDC04638B50B4C051C2368986800F063
:1002F0007BFE2368D86800F077FE00F021F8002824
:1003000005D1002D00D1FEE700F038FBFBE700F03F
:100310001BF8F6E72C01001038B50D1C041C00F08A
:100320001BF901350AD023696268201C01211A607B
:1003300000F03AF9201C002100F030F938BDC04629
:1003400008B500F00DF808BD30B585B06D4618242D
:10035000201C291CABBE041C201C05B030BDC046AF
:10036000014B18687047C046C000001038B5051C26
:1003700000F0BEFA041C00F0BBFA031BAB42FAD338
:1003800038BDC04608B5044900F00AFC00F032FD53
:10039000FFF7ECFF08BDC0460024744908B5FA23F6
:1003A0009B005843FFF7E2FF08BDC04608B503486D
:1003B0001321122200F0FEF908BDC0468802001089
:1003C00008B5002302280ADD0338074A810088584F
:1003D0008B50002805D003685B689847031C181CE5
:1003E00008BD01235B42FAE770010010F8B50C1C50
:1003F000171C022812DC104B1B68002B01D1FFF7E1
:10040000D5FF002F08D00D4DE6192178281C0134A6
:1004100000F036FAB442F8D1381CF8BD0338084B66
:100420008000C058002803D003681B689847F4E791
:1004300001204042F1E7C04670020010880200101F
:100440007001001010B50C1C022809DC0C4B1B6855
:10045000002B0FD00B4800F00BFA2070012010BDCC
:100460000338094B8000C058002806D003689B68F9
:100470009847F4E7FFF79AFFECE701204042EEE7E8
:1004800070020010880200107001001008B5031CF3
:100490000120022B08DD033B054A9B0098580028E9
:1004A00003D00368DB68984708BD01204042FBE7A2
:1004B0007001001008B5031C0020022B08DD033B6F
:1004C00005489B001858002803D003681B6998470B
:1004D00008BD01204042FBE77001001008B502286A
:1004E00004D880239B014B60002008BD00F0C0FCB5
:1004F0000923036001204042F7E7C046074A13681A
:100500001818EFF30881884202D21060181C704757
:10051000034B0C2201201A604042F8E7C40000108F
:1005200090020010FEE7FEE7FEE7FEE7FEE7FEE7CB
:1005300010B5002806D0C4B2231C0A3B052B02D9F3
:10054000002101E00024012100F03EF81F200440BA
:100550000120A04010BDC04638B5041C0D1C217000
:100560004A1C11D0081CFFF7E3FF6D09074AAD00D4
:10057000AB18074AE360AB18064A2361AB18636106
:10058000054B6060ED18A56038BDC04600220050E4
:1005900080220050002100500020005008B5007853
:1005A00040B200F029F808BD002907D0012904D184
:1005B0008368426819680A431A6070478368416813
:1005C0001A688A431A60F8E7431C0BD01F280AD91F
:1005D000074BC0188000026807239A431940131C78
:1005E0000B4303607047034BC0188000F3E7C0461D
:1005F000F80F0110001001104B0710B5DB0F1F287A
:1006000010D90A4A801880000468182294430322F3
:100610001140CA00211C1143054A9B021140194395
:10062000016010BD034A80188000EDE7F80F01104B
:10063000FFFBFFFF00100110F0B544465F46564631
:100640004D46F0B4594A8DB08846982301210B904D
:10065000D150574B41461B680C01181C211C0893B4
:1006600000F04EFA80B20490211C089800F08CFA39
:100670001020002967D0089CC34664000A94089C97
:10068000A400099444460794099C03940A9C00948E
:10069000089C029401240194069400240594019C72
:1006A000079FE4B2A24600250026009C002C69DBCF
:1006B0000398391C00F024FA019C6419A1464409EE
:1006C00001346408A4B2002C55D102210224002E6A
:1006D00001D10124211C4A4651430298C90000F06F
:1006E0000FFA013040084346C01AC117401848406D
:1006F000584506DA404551D0534683460693059641
:1007000004940135EEB24744B245CED80023019C93
:100710000F2C14D0029C0899079A64180294019C2B
:100720000A9901340194009C641800940999039C6F
:1007300064180394141C44440794002BAFD0069C07
:100740002001059C20430B9C80222368049CD968CF
:100750001143D960210A89B25960FF2121401960F3
:100760009862D9689143D9600DB03CBC90469946D7
:10077000A246AB46F0BD002EACD0012CAAD8022177
:100780000224A8E70098391C00F0BAF9019C64190A
:10079000A146040901346408A4B294E75246C34652
:1007A0000692059604940123B1E7C04600800440F8
:1007B000C8000010F8B5284B4F464646C0B4041C8C
:1007C0000F1C081C191C161C994600F049F9234BF4
:1007D000051C191C301C984600F042F9011C281C0D
:1007E00000F02CF91E4A80232060051C8021D0587F
:1007F00049010143D1500123AB60962100236B6076
:10080000201C8901FFF718FF23680322DA60381CD7
:10081000494600F0F7F8301C414600F0F3F87B1C25
:1008200003D0381C0221FFF7E7FE731C03D0301CF5
:100830000221FFF7E1FE0B4B9D4209D100236360CB
:10084000094B01221A600948211C082200F0ECFC27
:100850000CBC90469946F8BD541D0000241D0000B4
:1008600000800440008000407002001088020010E8
:100870000268012153691942FCD010687047C046D4
:100880000268202053691842FCD011607047C046AE
:1008900038B5104B1A68002A1BD10F4A01251D607C
:1008A0008023D0588021C9000143D1500B4B0C4C00
:1008B0001868022363600B4900F022F90138E060F8
:1008C00009496560132000F039F88022074B1203B4
:1008D0001A6038BD7402001000800440C800001087
:1008E0000080014040420F00910A000000E100E05A
:1008F00008B5044B1B68002B01D1FFF7C9FF024B61
:10090000986808BD7402001000800140034B01226A
:10091000986159690A435A617047C0460080014096
:10092000024B01215A698A435A6170470080014095
:10093000014B01221A607047008001400C4B0322DA
:100940001B6830B51340012B0CD08023094C5B058C
:10095000F0252D065A19126804C3A342F8D1044B9E
:1009600001221A60044B8000C018016030BDC046EF
:1009700000800440C00000104000001000B599B095
:1009800072B628216846FFF7C7FC06A82921FFF7A1
:10099000C3FC0CA82A21FFF7BFFC12A82B21FFF7EC
:1009A000BBFC039B019A96201A60079A0A9B1A6067
:1009B0000D9A109B1A60139A159B1A60FFF7EEFCB4
:1009C000049B019A96201A60079A099B1A600D9A57
:1009D0000F9B1A60139A169B1A60FFF7DFFCE0E783
:1009E0000FB400B583B004AA08CA054B04991B686C
:1009F0000192D86800F05AFE0120FFF773FCC04650
:100A00002C01001010B5041C421C03D109E09C42CB
:100A100008D00C310023CB565A1CF8D10648FFF7FA
:100A2000DFFF10BD201C8968FFF7CEFD201C0021D0
:100A3000FFF7E2FDF5E7C046841D000008B58842D7
:100A400008D0431C07D0013104D00448FFF7C8FF89
:100A50000120404208BD081CFCE7C046981D00006C
:100A6000021C08B5531C03D10BE09A420AD00C318A
:100A70000023CB56581CF8D10448FFF7B1FF0120E2
:100A8000404208BD4868431CFBD1F5E7AC1D00009F
:100A9000F8B54F464646C0B4FFF74AFF1648174A16
:100AA000804691464046036812E01C685D68FFF787
:100AB0001FFF0027061CA41BBD41002D12DC0FD018
:100AC000424611684846CB6813600268002A10D17C
:100AD000002BEAD1FFF724FF0CBC90469946F8BDE5
:100AE000002CEDD04246136818685968FFF70EFFD6
:100AF000F2E788689047D5E7780200107C02001082
:100B0000002934D00123002210B488422CD30124C0
:100B10002407A14204D2814202D209011B01F8E755
:100B2000E400A14204D2814202D249005B00F8E70E
:100B3000884201D3401A1A434C08A04202D3001B3A
:100B40005C0822438C08A04202D3001B9C0822436D
:100B5000CC08A04202D3001BDC082243002803D0AB
:100B60001B0901D00909E3E7101C10BC70470028DD
:100B700001D00020C04307B4024802A140180290EF
:100B800003BDC046190000000029F0D003B5FFF7EF
:100B9000B9FF0EBC4243891A1847C0467047C04689
:100BA000F0B55F4656464D464446F0B44402460012
:100BB00083B00F1C640A360EC50F002E41D0FF2EE5
:100BC00022D080231B0400201C43E4007F3E824689
:100BD0008046391C4B007F02C90F7F0A1B0E8B46D3
:100BE0003BD0FF2B34D0802212041743FF007F3B01
:100BF00000215A466A40019252460A430F2A63D89E
:100C00007A48920082589746002C3FD1082202234E
:100C100092469846DDE70195404602282AD1019A7E
:100C200001251540FF2300246402DB05600AED075F
:100C30001843284303B03CBC90469946A246AB46B5
:100C4000F0BD002C27D10420012282469046C0E747
:100C5000391C4A1E91410231CBE70121002FC8D037
:100C6000381C00F0E7F8431F9F4076235B421B1AB5
:100C70000021BEE7032800D1AEE001284FD1019842
:100C800042461040C5B200230024CDE70C230320C8
:100C90009A4680469DE7201C00F0CCF87626431F3C
:100CA0009C4076420023361A9A46984691E7802463
:100CB0000025E403FF23B7E75B463C1C019388460D
:100CC000AAE73C1C8846A7E7250C24043A0C240C10
:100CD0003F04F6183F0C211C231C794353436F43F8
:100CE0005543FB180A0C9B18B1469F4202D980223B
:100CF0005202AD1809041A04090C521894011B0C75
:100D0000611E8C41920EED181443AD012C4323015A
:100D100005D5012263080120144081441C434B4641
:100D20007F33002B2DDD600704D00F222240042AE0
:100D300000D00434220103D52D4B1C404B46803398
:100D4000FE2B17DD019B01251D400024FF236BE7CF
:100D50008020C003044208D0074206D1041C3C4353
:100D60006402640A5D46FF235EE704436402640A8A
:100D7000FF2359E70198A4010125640ADBB205406D
:100D800052E77E235B424A469B1A1B2B05DD019BE3
:100D900001251D400024002346E7221CDA404B4673
:100DA0009E339C40231C5C1EA3411343580704D070
:100DB0000F221A40042A00D004335A0105D5019BA2
:100DC00001251D40002401232EE701989C010125E7
:100DD000640A0540002327E78027FF03019B3C436B
:100DE000640201251D40640AFF231DE7CC1D00009D
:100DF000FFFFFFF74302590A4300C20F1B0E0020FA
:100E00007E2B0DDD9D2B0CDC802000040143952BF7
:100E10000ADC9620C31AD9404842002A00D1081C97
:100E20007047034BD018FBE7963B9940F4E7C04668
:100E3000FFFFFF7F1C2101231B04984201D3000CFC
:100E400010391B0A984201D3000A08391B0998423D
:100E500001D30009043902A2105C40187047C04653
:100E60000403020201010101000000000000000073
:100E7000014B18687047C0462C010010F7B58B89EC
:100E8000051C0C1C19075ED46268002A02DC276C62
:100E9000002F1ADDE76A002F17D000222E682A6083
:100EA000802252011A4001D0626D15E0281C216A8F
:100EB0000123B847021C411C0ED12B68002B0BD01C
:100EC0001D2B01D0162B02D12E6000205EE0A389DD
:100ED00040210B43A38159E0A3895F0706D56168D0
:100EE000636B521A002B01D0276CD21B281C216A7D
:100EF0000023E76AB847A289411C06D12B68002B62
:100F000003D01D2B01D0162B19D100236360236958
:100F10002360D70405D5411C02D12A68002A00D1DC
:100F20006065616B2E600029CFD0231C4433994249
:100F300002D0281C00F08AF90020606326E04023DC
:100F40001A43A28122E02669002EBED02768002223
:100F5000BF1B01972660990700D16269A260019FBB
:100F6000002FB2DD281C216A321C019BA76AB847FA
:100F7000002806DCA389402213430120A3814042BC
:100F800004E0019F36183F1A0197E8E7FEBD000014
:100F90000A6938B5051C0C1C002A01D100201CE090
:100FA000002804D08369002B01D100F085F80B4B99
:100FB0009C4201D16C6808E0094B9C4201D1AC68AD
:100FC00003E0084B9C4200D1EC680C22A35E002B8E
:100FD000E4D0281C211CFFF751FF38BD0C1E000077
:100FE0002C1E00004C1E000008B5011E05D1054B4B
:100FF0000549186800F0D0F803E0044B1868FFF7C3
:10100000C7FF08BD701E0000910F00002C010010EA
:10101000F8B5041C071C4834002C12D0A56866687B
:10102000013E0CD4AB89012B07D90E22AB5E0133F4
:1010300003D0381C291CFFF7ABFF6835F0E72468A4
:10104000EAE7F8BD002310B5041C03604360836029
:1010500081814366C281036143618361191C082257
:101060005C3000F0EAF8054B24626362044BA36233
:10107000044BE362044B236310BDC046A913000078
:10108000D1130000091400003514000070B54B1E88
:1010900068255D430E1C291C743100F01FF9041EE5
:1010A00008D00021016046602A1C0C30A060683224
:1010B00000F0C3F8201C70BD836913B5041C002B1D
:1010C00027D18364C3640365124B134A1B68826291
:1010D000984201D101238361201C00F01FF8606059
:1010E000201C00F01BF8A060201C00F017F8042161
:1010F000E06000226068FFF7A5FFA06809210122D7
:10110000FFF7A0FFE06812210222FFF79BFF0123F7
:10111000A36113BD701E000011100000F8B51D4B37
:10112000071C1E68B269002A02D1301CFFF7C4FFF9
:101130004836B4687368013B05D40C22A55E002DC7
:1011400010D06834F7E73368002B06D1381C04212F
:10115000FFF79CFF3060002801D03668E9E70C23D8
:101160003B6016E001235B42E381201C0123A38145
:1011700065662560A560656025616561A5615C3077
:10118000291C082200F059F86563A563A564E5648D
:10119000201CF8BD701E0000F7B5041C071C01914F
:1011A00048340026002C16D06268A5680092009A88
:1011B000013A00920DD4AB89012B08D90E22AB5E07
:1011C000013304D0381C291C019B9847064368351D
:1011D000EDE72468E6E7301CFEBD000070B50E4B5D
:1011E0000E4D0024ED1AAD101E1CAC4204D0A3001D
:1011F000F35898470134F8E700F088FD084B094D93
:101200000024ED1AAD101E1CAC4204D0A300F3580C
:1012100098470134F8E770BD30010010300100102C
:10122000300100103801001010B50023934203D0A4
:10123000CC5CC4540133F9E710BD031C82189342FF
:1012400002D019700133FAE77047000030B5002969
:1012500040D004390B68002B00DAC9181E4A136805
:10126000141C002B02D14B60116033E099420FD265
:1012700008680A189A4205D113685268C0180860B5
:101280004A6000E04B60216024E08A4203D8131CCE
:101290005A68002AF9D11D685C198C420BD1096883
:1012A000691858181960904214D1146852680919C5
:1012B00019605A600EE08C4202D90C23036009E0E9
:1012C00008680C18944203D1146852680019086029
:1012D0004A60596030BDC0468402001070B50323D7
:1012E000CD1C9D430835061C0C2D01D20C2501E0B8
:1012F000002D3FDB8D423DD3204B1C681A1C211C66
:10130000002913D00868431B0DD40B2B02D90B60A6
:10131000CC181EE08C4202D1636813601AE0486862
:1013200060600C1C16E00C1C4968E9E7144C20684E
:10133000002803D1301C00F025F82060301C291C47
:1013400000F020F8431C15D0C41C03239C438442A6
:101350000AD12560201C0B300722231D9043C31A9D
:101360000BD05A42E25008E0211A301C00F00AF873
:101370000130EED10C233360002070BD84020010D8
:101380008002001038B5074C0023051C081C2360A0
:10139000FFF7B4F8431C03D12368002B00D02B6067
:1013A00038BDC0469002001038B50C1C0E25495FB0
:1013B00000F074FC002803DB626D1318636503E022
:1013C000A289024B1340A38138BDC046FFEFFFFF47
:1013D000F8B51E1C8B89051C0C1C171CDA0505D5DD
:1013E0000E23C95E0022022300F0E8FBA289054B10
:1013F000281C1340A3810E22A15E331C3A1C00F06E
:1014000045FBF8BDFFEFFFFF38B50C1C0E25495F0B
:1014100000F0D4FBA389421C03D1054A1340A381E9
:1014200004E0802252011343A381606538BDC046A9
:10143000FFEFFFFF08B50E23C95E00F0ADFB08BD4E
:101440000023C25C0133002AFBD1581E7047936809
:1014500010B5013B9360002B05DA9469A34208DBC9
:10146000CBB20A2B05D01368581C10601970C8B293
:1014700001E000F0B3FA10BDF8B5061C0F1C141CF7
:10148000D518AC4208D02178301C3A1CFFF7DFFF9A
:101490000134431CF5D100E00020F8BDF0B59FB049
:1014A000061C0F1C03920593002804D081690029B3
:1014B00001D1FFF701FE754B9F4201D1776808E02B
:1014C000734B9F4201D1B76803E0724B9F4200D13A
:1014D000F768BB891A070AD53B69002B07D006AD10
:1014E00000236B6120236B763023AB763BE0301C0E
:1014F000391C00F0DFFA0028F1D001204042C2E0A0
:10150000059A111D12680591002A76DB09920134B3
:1015100023782E2B00D181E021785F48032200F050
:10152000B1FB002807D05C492A68431A4020984044
:101530001043286001342178631C58480622039325
:10154000297600F09FFB002800D18AE0544B002B45
:101550007ED1059B072207339343083305936A69BD
:10156000049953186B61039C2378002B04D10399D1
:10157000611A029110D003E0252BF8D00134F3E773
:10158000301C391C039A029BFFF776FF013075D09F
:101590006A69029953186B612378002B6ED001227F
:1015A00052426A606A4600235B3201342B60EB6072
:1015B000AB601370AB6521783A48052200F062FBFE
:1015C000002808D0374A0134831A012098402B683C
:1015D00018432860EFE72B68D90603D56A46202117
:1015E0005B3211701A0703D56A462B215B321170EA
:1015F00022782A2A84D0099B05E05242EA6002221E
:1016000013432B6083E72278303A092A04D80A2151
:101610004B4301349B18F6E7099379E763782A2B4B
:1016200009D1059B02341A1D1B680592002B0DDAA7
:1016300001235B420AE0013400232278303A092A70
:1016400004D80A214B4301349B18F6E7079363E75C
:1016500005AB0093301C291C3A1C134B00E000BF63
:1016600007E005AB0093301C291C3A1C0E4B00F020
:101670009FF804900499013100D070E7BB895A06A5
:1016800000D53AE70B981FB0F0BDC0460C1E000015
:101690002C1E00004C1E00007A1E00007E1E000062
:1016A00000000000741E00007914000038B5131CFF
:1016B000044A051C0C1C1068291C221CFFF7EEFEB6
:1016C00038BDC0462C010010F7B5151C01930A69FE
:1016D0008B68061C0C1C934200DA131C221C2B6026
:1016E00043321278002A01D001332B602068800633
:1016F00002D52B6802332B60216806270F401FD0CC
:10170000231C43331B785A1E9341226892061FD52F
:10171000E11840313020C870211C5A1C453109782D
:10172000A21840320233D17012E0221C301C019901
:1017300019320123089FB847013011D0009F0137AB
:101740000097E0682968009F431A9F42EDDBD7E7C6
:10175000221C301C01994332089FB847013002D146
:101760000120404223E0206806212B68E268014006
:101770000025042903D1D51AEB43DB171D40A268CD
:1017800023699A4201DDD31AED1800270097009FC4
:10179000AF420BDA221C301C01991A320123089F38
:1017A000B8470130DCD0009F0137EFE70020FEBDD5
:1017B000F0B50D1C8BB04335069205900793049548
:1017C0000B7E0C1C109A6E2B00D1A7E011D8632B56
:1017D00022D009D8002B00D1B0E0582B00D0C0E0B7
:1017E00045310B707B4D4EE0642B1CD0692B1AD019
:1017F000B7E0732B00D1A5E009D86F2B29D0702B4F
:1018000000D0AEE00E68202333430B6036E0752B2A
:101810001FD0782B32D0A4E013680D1C191D42355F
:1018200011601B689FE0216813680E0603D5191D1F
:1018300011601E6805E04806F9D5191D11600021E8
:101840005E5E644B002E3BDA049D2D2276422A70A8
:1018500036E0216813680E0603D5191D11601E6855
:1018600004E04806F9D5191D1E881160594B227EE7
:10187000039308276F2A1ED00A271CE0231C782117
:101880004533554D197011682368081D0395106084
:101890001E0601D50E6802E05806FBD50E88D90752
:1018A00002D52022134323601027002E03D1226883
:1018B00020239A432260231C002243331A7001E044
:1018C00003930A276368A360002B03DB25680422C7
:1018D00095432560002E02D1049D002B0ED0049D5F
:1018E000301C391CFFF750F90398013D435C301C54
:1018F0002B70391CFFF704F9061EF1D1082F09D10E
:101900002168C90706D5626823699A4202DC013D55
:1019100030232B70049E731B23612AE00868136830
:101920004969050604D5181D10601B68196005E09B
:101930004606F8D5181D10601B6819800023236126
:10194000049D16E01368191D11601D68281CFFF71F
:1019500077FD63682061984200D923612069606047
:1019600004E0251C42352B7001232361049E0023D3
:101970003370079E05980096211C09AA069BFFF765
:10198000A3FE013002D10120404221E02A1C05982B
:1019900006992369079DA8470130F4D02668B60749
:1019A00005D4099BE068984212DA181C10E0002563
:1019B000E0680999431A9D42F3DA221C05980699BA
:1019C00019320123079EB0470130DCD00135EFE723
:1019D0000BB0F0BD851E0000961E000070B5051C02
:1019E0000E1C141C002804D08269002A01D1FFF7C4
:1019F00063FB234B9C4201D16C6808E0214B9C4265
:101A000001D1AC6803E0204B9C4200D1EC68A36993
:101A1000A360A3891A070AD52369002B07D022687F
:101A20002369F6B2D01A626990420FDB08E0281CE5
:101A3000211C00F03FF80028F1D0012040421DE0B9
:101A4000281C211CFFF7A4FA0028F6D1A368013056
:101A5000013BA36023685A1C22601E706369984290
:101A600005D0A389301CDA0708D50A2E06D1281C18
:101A7000211CFFF78DFA0028DFD1301C70BDC04655
:101A80000C1E00002C1E00004C1E000038B5084C37
:101A9000051C00202060081C111C1A1CFEF7A6FC67
:101AA000431C03D12368002B00D02B6038BDC046F7
:101AB00090020010344B70B51D68061C0C1C002DE4
:101AC00005D0A969002902D1281CFFF7F5FA2F4B90
:101AD0009C4201D16C6808E02D4B9C4201D1AC685E
:101AE00003E02C4B9C4200D1EC68A28993B2190709
:101AF00021D4D90605D40923336040231A43A28197
:101B00003FE05A0713D5616B002908D0231C4433EA
:101B1000994202D0301CFFF799FB00236363A3892D
:101B200024229343A3810023636023692360A38954
:101B300008221343A381216900290BD1A389A02284
:101B400092001A4080239B009A4203D0301C211C33
:101B500000F048F8A38901221A4005D061690022EB
:101B6000A2604A42A26103E0990700D46269A260C0
:101B700022690020824206D1190604D5402213436F
:101B8000A3810120404270BD2C0100100C1E0000FA
:101B90002C1E00004C1E000038B5074C0023051C0D
:101BA000081C2360FEF70CFC431C03D12368002BA8
:101BB00000D02B6038BDC0469002001038B5084CEC
:101BC000051C00202060081C111C1A1CFEF772FC6A
:101BD000431C03D12368002B00D02B6038BDC046C6
:101BE00090020010F0B58B8991B0051C0C1C9A076F
:101BF00025D40E23C95E002906DAA78980231F4059
:101C00000FD0002740260EE001AA00F05BF8002864
:101C1000F3DB029BF0273F02184A1F40BF187B42AC
:101C20005F418026F600281C311CFFF757FB002877
:101C30000CD1A3899A051FD402221343A381231C2C
:101C40004733236023610123636115E00C4B80223D
:101C5000AB62A38920601343A38120616661002FDA
:101C60000AD00E23E15E281C00F03EF8002803D0C5
:101C7000A38901221343A38111B0F0BD00E0FFFF4F
:101C800011100000C9B28218904204D003788B4230
:101C900002D00130F8E700207047000038B5084C4A
:101CA000051C00202060081C111C1A1CFEF7CAFB32
:101CB000431C03D12368002B00D02B6038BDC046E5
:101CC0009002001038B5074C0023051C081C111C9D
:101CD0002360FEF703FC431C03D12368002B00D0D4
:101CE0002B6038BD9002001038B5074C0023051C4E
:101CF000081C2360FEF7ECFA431C03D12368002B79
:101D000000D02B6038BDC04690020010F8B5C04628
:101D1000F8BC08BC9E467047F8B5C046F8BC08BC85
:101D20009E46704712000000008000400100000045
:101D30002E00000000800040030000003A00000078
:101D40000080004002000000FF000000FFFFFFFFD6
:101D500000000000130000000080004001000000AF
:101D60002D00000000800040030000003B00000048
:101D70000080004002000000FF000000FFFFFFFFA6
:101D800000000000636F756C64206E6F74207069D2
:101D90006E6F75740000000070696E6D6170206D6B
:101DA00069732D6D617463680000000070696E6D69
:101DB0006170206E6F7420666F756E6420666F723E
:101DC000207065726970686572616C00C80C0000F3
:101DD000C20C0000C20C0000B80C0000180C00007F
:101DE000180C0000AE0C0000B80C0000180C00002D
:101DF000AE0C0000180C0000B80C0000160C00001F
:101E0000160C0000160C0000500D00000000000031
:101E100000000000000000000000000000000000C2
:101E200000000000000000000000000000000000B2
:101E300000000000000000000000000000000000A2
:101E40000000000000000000000000000000000092
:101E50000000000000000000000000000000000082
:101E6000000000000000000000000000430000002F
:101E7000CC000010232D302B2000686C4C006566D0
:101E800067454647003031323334353637383941CB
:101E900042434445460030313233343536373839E1
:0C1EA000616263646566000000000000E1
:101EAC000100000098020010006CDC020000000031
:101EBC000C1E00002C1E00004C1E00000000000038
:101ECC000000000000000000000000006C1E00007C
:101EDC0000000000000000000000000000000000F6
:101EEC0000000000000000000000000000000000E6
:101EFC0000000000000000000000000000000000D6
:101F0C00000000000000000000000000CC000010E9
:0C1F1C0029020000890200000102000000
:04000003000000C138
:00000001FF
