:100000000080001035040000650400006704000053
:10001000690400006B0400006D0400000000000093
:100020000000000000000000000000006F0400005D
:10003000710400000000000073040000750400005B
:1000400077040000770400007704000077040000C4
:1000500077040000770400007704000077040000B4
:1000600077040000770400007704000077040000A4
:100070007704000077040000770400007704000094
:100080007704000077040000770400007704000084
:100090007704000077040000770400007704000074
:1000A0007704000077040000770400007704000064
:1000B0007704000077040000770400007704000054
:1000C00077040000770400007704000010B5054CA9
:1000D000237833B9044B13B10448AFF300800123F4
:1000E000237010BD4001001000000000A02300009C
:1000F00008B5064B1BB106480649AFF30080064819
:10010000036813B1054B03B1984708BD0000000018
:10011000A023000044010010400100100000000076
:1001200008B5074CE368626806481A6000F0B4F846
:100130002369626803481A6000F0AEF8F2E700BF76
:100140005C010010CDCC4C3E054B00221846054901
:100150001A605A609A60DA601A615A6100F048B811
:100160005C01001032C009200748084A08B5121A7D
:10017000002101F0C7FAAFF3008001F09DFAFFF70C
:10018000CFFF00F00BF800BF400100107C0300100F
:10019000022801DC0120704700F000B90A4C08B5C4
:1001A00023680546986801F099F92368D86801F03A
:1001B00095F900F04FF820B905B9FEE700F092FE7E
:1001C000FBE700F049F8F7E73001001038B50D46BD
:1001D000044600F051F9013509D02046002100F015
:1001E0006BF920460321BDE8384000F061B938BD05
:1001F00038B50D46044600F03FF901350CD02369AF
:10020000626820461A60012100F056F9204602215A
:10021000BDE8384000F04CB938BD00BF70B50D46A0
:100220001646044600F028F9013511D066B9236955
:1002300062681A602046012100F03EF92046022142
:10024000BDE8704000F034B9E36862681A60F1E715
:1002500070BD00BF00F00CB830B585B018246D46F5
:1002600020462946ABBE0446204605B030BD00BF3F
:10027000024B186800F00100704700BFF0ED00E08D
:1002800038B5054600F08EFD044600F08BFD001BDE
:10029000A842FAD338BD00BF08B5044900F0F4FE07
:1002A00001F042F8BDE80840FFF7EABF00247449B6
:1002B0004FF47A7303FB00F0FFF7E2BF02480349F3
:1002C000034A00F071BC00BF7003001002C0092097
:1002D00003C00920022808B50BDD084BC21E53F8E5
:1002E0002200002143F8221028B103685B68984778
:1002F00008BD002008BD4FF0FF3008BD740100109C
:10030000022870B50C4616460FDC0E4B1B680BB965
:10031000FFF7D4FFA51936B114F8011B0A4800F005
:1003200093FBAC42F8D1304670BD084B033853F80C
:10033000200018B103681B68984770BD4FF0FF306C
:1003400070BD00BF74020010700300107401001033
:10035000022810B50C4609DC0D4B1B688BB10D480B
:1003600000F026FB01232070184610BD0A4B03380D
:1003700053F8200040B103689B689847034618462D
:1003800010BDFFF79BFFEAE74FF0FF33ECE700BF3C
:10039000740200107003001074010010022808B5E8
:1003A00008DD074B033853F8200028B10368DB68E9
:1003B000984708BD012008BD4FF0FF3008BD00BFC1
:1003C00074010010022808B508DD074B033853F804
:1003D000200028B103681B69984708BD002008BDAC
:1003E0004FF0FF3008BD00BF74010010022808B5AF
:1003F00004D84FF400534B60002008BD00F0BAFF52
:10040000092303604FF0FF3008BD00BF074A13689F
:100410001844EFF30881884202D2106018467047F2
:10042000034B0C221A604FF0FF307047C8000010D9
:10043000780300100649074A074B9A42BEBF51F89D
:10044000040B42F8040BF8E70448804704480047CF
:10045000A4230000C8000010400100102D0E000071
:1004600069010000FEE7FEE7FEE7FEE7FEE7FEE7C4
:10047000FEE7FEE7FEE7FEE738B504464B1C0D46F7
:10048000216014D00846002100F028F805F01F0371
:100490000120984025F01F0505F1180105F11C0207
:1004A00005F11403A5606060E1602261636138BDFD
:1004B000006800F02BB800BF41B1012905D1836865
:1004C000426819680A431A60704770478368416838
:1004D0001A6822EA01021A60704700BF00F160400A
:1004E000A0F51C2000F00F035B0003229A40994006
:1004F00003099B0003F1804303F53033186820EAB9
:1005000002021A601A6811431960704700F16040D6
:10051000A0F51C2030B4C1F3800200F01F0402FAE1
:1005200004F443099B0003F1804303F530339D6ECF
:1005300025EA04059D669D6E2C439C669AB900F0E1
:100540000F035B0003229A4001FA03F300098000C5
:1005500000F1804000F53030016C21EA02020264B3
:10056000026C1343036430BC704700BF08B5154AE2
:100570009368C3F34203012B1ED0022B19D1124BF7
:10058000596F01310AD0D3F88010986F086093F842
:10059000A61019B9516821F001015160186F0A4B7A
:1005A00048B193F8A6302BB10021084A1368984748
:1005B00008BD08BD08BD08BD034A106F0028F9D06A
:1005C0001946F2E7008009407C0200107802001012
:1005D00070B50368294CA34249D041DD284CA342A1
:1005E0002AD004F58044A34244D1264C08263ABBC5
:1005F00001290BD04568244AC5EBC50502EBC504AB
:1006000094F8355094F83620EA4214D1012202FAC7
:1006100001F5D1F1010138BF002102FA01F15C6856
:1006200024EA05045C6003685B68194203D1B240A8
:10063000164BC3F8802070BD154C0726002AD7D072
:10064000012505FA01F176B2304605FA06F65A6838
:100650000A435A60214600F0CBFB0C4B1E6070BD74
:10066000A4F58044A34205D10A4C0526BFE70A4CF5
:100670000626BCE700242646B9E700BF000001407B
:10068000008009409D0600007C02001000E100E0AF
:100690006D050000090700006D07000008B5174A46
:1006A0009368C3F34203012B21D0022B1CD1144BBE
:1006B000D3F8AC1001310BD0D3F8B810D3F8B00098
:1006C000086093F8DE1019B9516821F001015160FA
:1006D000D3F8A8000A4B48B193F8DE302BB10021C3
:1006E000084A1368984708BD08BD08BD08BD044AFC
:1006F000D2F8A8000028F8D01946F1E700C0094058
:100700007C0200107802001008B5154A9368C3F304
:100710004203012B1DD0022B18D1124B5968013115
:1007200009D019699868086093F8361019B95168AA
:1007300021F00101516018680A4B48B193F8363036
:100740002BB10021084A1368984708BD08BD08BDB1
:1007500008BD044A10680028F9D01946F2E700BF26
:1007600000C000407C0200107802001008B5154A55
:100770009368C3F34203012B1DD0022B18D1124BF7
:10078000D96B013109D0996C186C086093F86E1020
:1007900019B9516821F001015160986B0A4B48B1B9
:1007A00093F86E302BB10021084A1368984708BDB2
:1007B00008BD08BD08BD044A906B0028F9D0194651
:1007C000F2E700BF000001407C0200107802001038
:1007D0002DE9F00F8AB00890714B0068984209909B
:1007E00000F0CF8040F3BA806E4B099A9A4200F035
:1007F000908003F580439A420CD16B4BD3F8AC2127
:1008000022F44022C3F8AC21D3F8AC2142F4802278
:10081000C3F8AC21654B0A011B680593059CB3FB2B
:10082000F2F302FB13429BB20193002A00F0948082
:100830006000A2004FF00109002307900692804655
:100840009346CDF80C900491A2468C460293002268
:10085000049C10465FFA89F7B8F1000FB5BFB8FBEA
:10086000F4F3BBFBF4F31B095B090133C3F34F0340
:1008700002EB0906002B5AD1012300285BD103FBB0
:1008800006F5ED00BAFBF5F50135C1EB5505002D78
:10089000B8BF6D42654505DA8D424ED0AC46029038
:1008A000019303970132D0B287420C44D4D8B9F1F6
:1008B0000F0F4FF0000349D0059A079C9244049A09
:1008C00006980A4409F10109A04483440492002BCC
:1008D000BDD0029B039C43EA0410C0B2099A019C5C
:1008E000137BC4F3072143F080031373089A136842
:1008F000E2B2089C197123681A70236883F82800F3
:1009000023681A7B02F07F021A730AB0BDE8F00F69
:100910007047254BD3F8AC2122F44032C3F8AC2108
:10092000D3F8AC2142F48032C3F8AC2172E700283E
:10093000A5D0012BA3D80223A1E7B9F10F0F019392
:10094000039702908C464FF00103B5D1029C0399A6
:1009500044EA0110C0B2C1E71020BFE7A3F580430D
:1009600098427FF457AF104BD3F8A82122F0C00271
:10097000C3F8A821D3F8A82142F04002C3F8A82167
:1009800048E7094BD3F8A82122F44072C3F8A82104
:10099000D3F8A82142F48072C3F8A8213AE700BF37
:1009A000000001400080094000C00F40CC00001052
:1009B0000268137DDB07FCD543680949C3EBC30319
:1009C00001EBC303596810780131C0B207D05969EF
:1009D00004335B680B60536843F001035360704756
:1009E0007C0200104368174AC3EBC303DB00D11835
:1009F00010B4CC69013411D00A6B01F11C035B689F
:100A000012681A4203D000205DF8044B7047036857
:100A10005DF8044B187DC0F38010704703681B7DA0
:100A20009B0608D491F834005DF8044B0F288CBF66
:100A3000002001207047002381F8343001205DF848
:100A4000044B70477C02001038B504460D46204622
:100A5000FFF7C8FF0028FAD02368EDB21D70626866
:100A6000054BC2EBC20203EBC20393F83420013200
:100A700083F8342038BD00BF7C0200102DE9F04F10
:100A80000446454D006883B0A8420E4690469946FC
:100A900043D06568002301932A46DFF808A1EF00E0
:100AA000C2EBC202781B4FF0000E0AEBC0000AEB4B
:100AB000C20C4FF0FF33C36143607146724620465B
:100AC0008CF835E0FFF784FD16B903B0BDE8F08F70
:100AD0003249404600F084FA31498346484600F0E6
:100AE0007FFAB21E012A38D9012EEED1B8F1FF3FAC
:100AF000EBD02949226807208B45107215D1019B44
:100B00009BB11B7C019A254943F040034046137476
:100B100003B0BDE8F04F00F031BA037C656803F024
:100B20003F03037462680190B7E77D1B0AEBC500C1
:100B3000414604300022FFF771FB62680125C2EBD9
:100B4000C2020AEBC20320462A46002183F8355030
:100B500003B0BDE8F04FFFF73BBDB9F1FF3F09D04F
:100B60000D4A90420CD0781B0AEBC00049461C305D
:100B7000FFF72CFB032EA8D1B8F1FF3FB9D1A4E7B2
:100B8000019B002BEFD01A7C484642F080021A7479
:100B9000034900F0F3F9EDE7000001409C2100005B
:100BA000982200007C0200102DE9F04105460F4616
:100BB00008465949164600F021FA5849044630467D
:100BC00000F01CFA0146204600F0F8F9544B0446A8
:100BD000984228607FD06FD9524B98424BD003F592
:100BE0008043984206D1504BD3F8C42042F00072A3
:100BF000C3F8C420012323722B684FF00008C3F808
:100C0000048028464FF41651FFF7E2FD2B680322BB
:100C10001A733846404900F0B1F930463F4900F0B8
:100C2000ADF97A1C03D038464146FFF76FFC731CC0
:100C300003D030460021FFF769FC394B9C4247D076
:100C400021D9384B9C4263D003F580439C424AD162
:100C500003236B603549C3EBC3034FF0FF342846D1
:100C600001EBC305224623466C60EC610021BDE820
:100C7000F041FFF703BF2C4BD3F8C42042F0807241
:100C8000C3F8C420B6E7A3F580439C422BD1274E7E
:100C90004FF0FF34002169602246234628467460E5
:100CA000F461FFF7EBFE224B01221A6028686968A5
:100CB000204B03C3BDE8F081A3F58043984299D14E
:100CC000194BD3F8C42042F00802C3F8C42091E7BE
:100CD00001236B60BEE7144BD3F8C42042F010022E
:100CE000C3F8C42086E76B681049C3EBC3034FF019
:100CF000FF3601EBC30732463346284600217E60AB
:100D0000FE61FFF7BBFE0C4B9C42CCD0BDE8F081EE
:100D100002236B609EE700BF2C220000C021000070
:100D2000000001400080094000C00F407C0200101C
:100D3000740200107003001000C00040134A38B560
:100D400013680BBB12490124D1F8C4501460114A36
:100D5000114845F40005C1F8C4501367036801F158
:100D6000437101F5F45103319B08A1FB03039B0C74
:100D7000013B022151600420D3600849546000F017
:100D800037F8074B10221A6038BD00BF5C03001013
:100D900000C00F4000400940CC000010311000009E
:100DA00000E100E008B5044B1B680BB9FFF7C6FF74
:100DB000024B986808BD00BF5C030010004009406A
:100DC000034B98615A6942F001025A61704700BFB3
:100DD00000400940024B5A6922F001025A617047F3
:100DE00000400940014B01221A6070470040094051
:100DF0000C4A30B4936894681A46B4F1805F0CD200
:100E0000094A03F1C40553F8044BAB4242F8044FBE
:100E1000F9D1044B4FF080529A60103042F8201004
:100E200030BC704700ED00E0FCFFFF0F2B4A202391
:100E300070B4C2F8A031D2F8A031980645D4274B3F
:100E4000022100250124AA2055220B26C3F80411F3
:100E5000C3F8A8511946C3F8AC51C3F80C41C3F804
:100E60008460C3F88C00C3F88C20C3F88040C3F8BA
:100E70008C00C3F88C20D1F88830184A5B01FAD571
:100E80000321AA205523C2F88010C2F88C00114615
:100E9000C2F88C30D1F88830104A13F0407FF9D076
:100EA0000F4900230520C2F80801C2F8C410C2F897
:100EB000C831136870BC23F4704323F03A0343F441
:100EC000405343F03A0313607047D2F8A0315906FB
:100ED000B5D4D2F8A0315906F7D5B0E700C00F401D
:100EE000DE87280400B599B072B617496846FFF747
:100EF0007FF906A81549FFF77BF90CA81449FFF7FD
:100F000077F912A81349FFF773F9039B019A0A981E
:100F10001A60079B109903600D9B159A0B60139B39
:100F200096201360FFF7C4F9049B019A09981A6090
:100F3000079B0F9903600D9B169A0B60139B9620DD
:100F40001360FFF7B5F9E0E732C0092034C009208B
:100F500035C0092037C009200FB400B5064A83B058
:100F600004AB126853F8041BD0681A46019300F0D2
:100F7000F1FD0120FFF712F930010010431C10B5FC
:100F8000044618D00B68581C04D10FE051F80C3FF0
:100F90005A1C0BD09C42F9D120468968FFF79EFA73
:100FA00020460221BDE81040FFF7B0BA0248BDE874
:100FB0001040FFF7D1BF10BDBC220000884208B529
:100FC0000AD0431C07D0013106D00448FFF7C4FF04
:100FD0004FF0FF3008BD084608BD00BFD02200001A
:100FE0000B685A1C04D107E051F80C3F5A1C03D07F
:100FF0008342F9D1486870471846704708B5431CCA
:101000000CD00B685A1C04D109E051F80C3F5A1C53
:1010100005D09842F9D14868411C00D008BD03486A
:10102000FFF79AFF4FF0FF30F8E700BFE42200001F
:10103000F8B5FFF7D7FE124E124F3368ABB1D3E9C4
:101040000045FFF7AFFE221A65F10003104619466E
:10105000012871F100030CDA31683A68CB6833601B
:10106000002AEBD088689047E7E7BDE8F840FFF733
:10107000B1BE3368D3E90001BDE8F840FFF7A0BE78
:1010800060030010640300104FF0FF0C1CEAD05204
:101090001EBF1CEAD15392EA0C0F93EA0C0F6FD0DB
:1010A0001A4480EA010C400218BF5FEA41211ED0B9
:1010B0004FF0006343EA501043EA5111A0FB0131A5
:1010C0000CF00040B1F5000F3EBF490041EAD3717A
:1010D0005B0040EA010062F17F02FD2A1DD8B3F1F6
:1010E000004F40EBC25008BF20F00100704790F065
:1010F000000F0CF0004C08BF49024CEA502040EAB7
:1011000051207F3AC2BFD2F1FF0340EAC25070477C
:1011100040F400004FF00003013A5DDC12F1190FBA
:10112000DCBF00F000407047C2F10002410021FA2C
:1011300002F1C2F1200200FA02FC5FEA310040F144
:10114000000053EA4C0308BF20EADC70704792F0BD
:10115000000F00F0004C02BF400010F4000F013AF5
:10116000F9D040EA0C0093F0000F01F0004C02BFF0
:10117000490011F4000F013BF9D041EA0C018FE75F
:101180000CEAD15392EA0C0F18BF93EA0C0F0AD065
:1011900030F0004C18BF31F0004CD8D180EA01008B
:1011A00000F00040704790F0000F17BF90F0004F24
:1011B000084691F0000F91F0004F14D092EA0C0F06
:1011C00001D142020FD193EA0C0F03D14B0218BF99
:1011D000084608D180EA010000F0004040F0FE40DF
:1011E00040F40000704740F0FE4040F4400070477B
:1011F0004FF0FF0C1CEAD0521EBF1CEAD15392EAFA
:101200000C0F93EA0C0F69D0A2EB030280EA010CE9
:1012100049024FEA402037D04FF0805343EA111182
:1012200043EA10130CF000408B4238BF5B0042F1E0
:101230007D024FF4000C8B4224BF5B1A40EA0C0085
:10124000B3EB510F24BFA3EB510340EA5C00B3EBB7
:10125000910F24BFA3EB910340EA9C00B3EBD10FA5
:1012600024BFA3EBD10340EADC001B0118BF5FEAF7
:101270001C1CE0D1FD2A3FF650AF8B4240EBC25020
:1012800008BF20F0010070470CF0004C4CEA5020E1
:101290007F32C2BFD2F1FF0340EAC250704740F430
:1012A00000004FF00003013A37E792F0000F00F022
:1012B000004C02BF400010F4000F013AF9D040EAA0
:1012C0000C0093F0000F01F0004C02BF490011F434
:1012D000000F013BF9D041EA0C0195E70CEAD1532C
:1012E00092EA0C0F08D142027FF47DAF93EA0C0F13
:1012F0007FF470AF084676E793EA0C0F04D14B02F7
:101300003FF44CAF08466EE730F0004C18BF31F0A8
:10131000004CCAD130F000427FF45CAF31F00043A2
:101320007FF43CAF5FE700BF4FEA4002B2F1FE4FEF
:101330000FD34FF09E03B3EB12620DD94FEA002397
:1013400043F0004310F0004F23FA02F018BF404270
:1013500070474FF00000704712F1610F01D1420257
:1013600005D110F0004008BF6FF0004070474FF00B
:1013700000007047014B1868704700BF3001001033
:101380008A892DE9F041054610070C4657D44B6871
:10139000002B02DC0B6C002B18DDE66AB6B102F400
:1013A0008052002392B22F682B600AB1626D10E068
:1013B000216A28460123B047411C024609D12B6807
:1013C0003BB11D2B01D0162B46D12F600020BDE86C
:1013D000F081A3895B0705D56368D21A636B0BB1F3
:1013E000236CD21AE66A2846216A0023B047461CBD
:1013F000A28905D12B681BB11D2B01D0162B19D149
:10140000002363602369D104236004D5421C01D109
:101410002B6803B96065616B2F600029D6D004F199
:101420004403994202D0284600F074F9002060631A
:10143000BDE8F08142F04002A281BDE8F0810E6972
:10144000002EC3D00B680E60C6EB030893070CBFD9
:101450004B6900238B6012E0A3894FF0FF3043F00B
:101460004003A381BDE8F081A76A2846216A32467D
:101470004346B8470028EFDD0644C0EB0808B8F142
:10148000000FF1DCA2E7000038B50B6905460C46F9
:10149000DBB118B183690BB900F086F80C4B9C42A4
:1014A00001D16C6808E00B4B9C4201D1AC6803E0B1
:1014B000094B9C4208BFEC68B4F90C302BB12846AC
:1014C0002146BDE83840FFF75BBF002038BD00BFB4
:1014D000042300002423000044230000014620B917
:1014E000044B0549186800F0C9B8044B1868FFF7A9
:1014F000CBBF00BF6823000089140000300100103A
:10150000F8B5074600F1480494B1A5686668013E45
:101510000CD4AB89012B07D9B5F90E30013303D0B8
:1015200038462946FFF7B0FF6835F0E72468EBE757
:10153000F8BD0000002310B50446036043608360DB
:1015400081814366C28103614361836119465C30D6
:10155000082200F0D7F8054B24626362044BA362B3
:10156000044BE362044B236310BD00BF6518000009
:1015700087180000BF180000E318000070B54B1E6C
:1015800068255D430E4605F1740100F007F9044635
:1015900040B1002180E842000C30A06005F16802F3
:1015A00000F0B0F8204670BD836910B5044633BB27
:1015B0008364C3640365124B124A1B6882629842BB
:1015C00004BF0123836100F01FF86060204600F033
:1015D0001BF8A060204600F017F80421E06000220C
:1015E0006068FFF7A7FFA06809210122FFF7A2FFAB
:1015F000E06812210222FFF79DFF0123A36110BDC5
:101600006823000001150000F8B51B4B07461E6853
:10161000B36913B93046FFF7C7FF4836B46873683B
:10162000013B04D4B4F90C5075B16834F8E7336861
:101630002BB938460421FFF7A1FF306008B13668A6
:10164000ECE70C233B60F8BD4FF6FF73E381012309
:10165000A38165662560A560656025616561A561FA
:1016600004F15C002946082200F04CF86563A5638C
:10167000A564E5642046F8BD682300002DE9F84321
:101680008046894600F14804002694B1A568676841
:10169000013F0CD4AB89012B07D9B5F90E300133CA
:1016A00003D040462946C84706436835F0E724681A
:1016B000EBE73046BDE8F88370B50E4B0E4D0024C5
:1016C000ED1AAD101E46AC4204D056F824209047C7
:1016D0000134F8E700F056FD084D094B0024ED1ADF
:1016E000AD101E46AC4204D056F824209047013479
:1016F000F8E770BD34010010340100103C01001007
:101700003401001002440346934202D003F8011B47
:10171000FAE7704730B500293CD051F8042C0B1F74
:101720001D49002AB8BF9B180A680C4612B95A60B6
:101730000B6030BD93420DD219685818904203D106
:101740005A581144426819605A60236030BD99426A
:1017500003D80A4651680029F9D1146815199D4229
:101760000AD11B682344D0188842136012D108683C
:10177000034413604B680CE002D90C23036030BDB6
:1017800018681C188C4203D10C6849682044186002
:101790005960536030BD00BF6C03001070B5CD1CA4
:1017A00025F0030508350C2D38BF0C25002D064605
:1017B0003FDB8D423DD3214B1C6818462146A1B129
:1017C0000B685B1B0ED40B2B03D90B60CC18CD50D0
:1017D0001FE08C4202D1626802601AE04B686360CD
:1017E0000C4616E00C464968E9E7154C23681BB91E
:1017F000304600F027F820602946304600F022F8F5
:10180000431C014615D0C41C24F0030484420AD1B1
:10181000256004F10B00231D20F00700C31A0BD034
:101820005A42E25070BD3046611A00F00BF80130A8
:10183000EED10C233360002070BD00BF6C0300109C
:101840006803001038B5064C00230546084623609F
:10185000FEF7DCFD431C02D1236803B12B6038BDC9
:101860007803001010B50C46B1F90E1000F056FCCC
:10187000002803DB636D0344636510BDA38923F473
:101880008053A38110BD2DE9F0411D468B89074689
:10189000DB050C46164605D5B1F90E1000220223D1
:1018A00000F0D0FBA389384623F48053A381B4F918
:1018B0000E1032462B46BDE8F04100F033BB10B5A8
:1018C0000C46B1F90E1000F0BDFB431CA38903D1F7
:1018D00023F48053A38110BD43F48053A38160653A
:1018E00010BDB1F90E1000F09DBB034613F8012B9B
:1018F000002AFBD1181A01387047936810B5013BD4
:10190000002B936005DA9469A34208DBCBB20A2B63
:1019100005D01368581C10601970C8B210BDBDE81E
:10192000104000F0ABBAF8B505460E461446D7187D
:10193000BC4208D0284614F8011B3246FFF7DDFFF1
:10194000431CF5D100E00020F8BD00002DE9F04374
:101950009DB00D4617460393064618B183690BB92F
:10196000FFF722FE734B9D4201D1756808E0724B70
:101970009D4201D1B56803E0704B9D4208BFF568F8
:10198000AB8918070AD52B6943B10023099320239B
:101990008DF8293030238DF82A3038E0304629463A
:1019A00000F0D2FA0028F0D04FF0FF30BEE0039AEA
:1019B000111D12680391002A70DB0792013423780D
:1019C0002E2B7DD05E4F21783846032200F098FB05
:1019D00030B1C71B4020B840049B0134034304933B
:1019E000217858480622671C8DF8281000F088FBE3
:1019F000002800F08980544B002B7CD1039B0733D7
:101A000023F0070308330393099B434409933B46A0
:101A10001C4613F8012B1AB9B4EB07090ED002E0EB
:101A2000252AF5D1F8E7304629463A464B46FFF7D6
:101A30007AFF013075D0099B4B4409932378002B22
:101A40006FD000234FF0FF32049307930592069363
:101A50008DF853301A9304F101093C4F4C46384637
:101A60002178052200F04CFB09F10109049B28B103
:101A7000C71B0120B84003430493EEE7D90644BFD7
:101A800020228DF853201A0744BF2B228DF85320B3
:101A900022782A2A8BD0079B214605E0524243F048
:101AA00002030792049389E70C4622780131303A09
:101AB000092A03D80A2000FB0323F5E707937EE7F2
:101AC00063782A2B09D1039B02341A1D1B680392E9
:101AD000002BB8BF4FF0FF330BE0611C00230C4616
:101AE00022780131303A092A03D80A2000FB032367
:101AF000F5E7059366E703AB0093304604A92A4651
:101B0000134BAFF3008007E003AB0093304604A90A
:101B10002A460F4B00F09EF8B0F1FF3F80467FF45D
:101B200073AFAB895B063FF53FAF09981DB0BDE8C9
:101B3000F08300BF0423000024230000442300009E
:101B40007223000076230000000000006C230000D8
:101B50002719000030B51346044A05460C461068A4
:101B600029462246BDE83040FFF7F0BE30010010A4
:101B70002DE9F84315461F468A680B6906469A42C6
:101B8000A8BF13462B6091F843200C46DDF8208057
:101B90000AB101332B602368990602D52B68023302
:101BA0002B60236813F006091DD094F84330226897
:101BB000003318BF012392061FD5E118302081F8A9
:101BC00043005A1C94F845102244023382F8431013
:101BD00013E03046394604F119020123C0470130B1
:101BE00007D009F10109E2682B68D31A9945F0DBA7
:101BF000DBE74FF0FF30BDE8F8833046394604F1AB
:101C00004302C0470130F4D023682A6803F006037A
:101C1000E168042B08BFC2EB01052369A2680CBF71
:101C200025EAE57500259A42C4BFC3EB0203ED180F
:101C30004FF00009A9450ADA3046394604F11A0284
:101C40000123C0470130D4D009F10109F2E7002097
:101C5000BDE8F8832DE9FF470E7E80466E2E0C46C8
:101C600091469A460C9D01F1430000F0A58011D8E1
:101C7000632E22D009D8002E00F0AF80582E40F0FD
:101C8000BF8081F845607B4A4FE0642E1ED0692EEC
:101C90001CD0B5E0732E00F0A48009D86F2E2BD095
:101CA000702E40F0AD800B6843F020030B6038E0ED
:101CB000752E21D0782E34D0A2E02B6801F1420796
:101CC0001A1D1B682A6081F842309DE022682B684B
:101CD00012F0800F03D01A1D2A601D6805E051061E
:101CE000F9D51A1D2A60B3F90050002D39DA2D23D9
:101CF0006D4284F8433034E022682B6812F0800F84
:101D000003D01A1D2A601D6804E05206F9D51A1D79
:101D10002A601D88237E574A6F2B14BF0A2308238D
:101D20001BE07823544A84F845302368296813F06F
:101D3000800F01F104062E6001D00D6802E05F06FD
:101D4000FBD50D88DE0744BF43F0200323601DB997
:101D5000236823F0200323601023002184F843101C
:101D600001E0444A0A236668002EA66003DB21686E
:101D700021F00401216005B96EB104F14201B5FB07
:101D8000F3F603FB1655555D0F4601F8015935462C
:101D9000002EF4D100E00746082B0AD12368DD07A6
:101DA00007D5626823699A4203DC302307F8013CB7
:101DB000013FC01B20612CE009682B6811F0800FE7
:101DC000626904D0191D29601B681A6005E0490684
:101DD000F8D5191D29601B681A8000232361074666
:101DE00017E02B681A1D2A601F683846FFF77DFD33
:101DF00063682061984288BF23612369636005E0BE
:101E000004F1420784F8426001232361002384F82F
:101E10004330CDF800A04046214603AA4B46FFF7C9
:101E2000A7FE013002D14FF0FF301FE04046494687
:101E30003A462369D0470130F5D023689B0705D483
:101E4000E068039B9842B8BF18460FE00025E2689F
:101E5000039BD31A9D42F3DA4046494604F1190226
:101E60000123D0470130DED00135F0E704B0BDE8F2
:101E7000F08700BF7D2300008E23000070B50E4662
:101E80001446054618B183690BB9FFF78DFB224B49
:101E90009C4201D16C6808E0204B9C4201D1AC68A7
:101EA00003E01F4B9C4208BFEC68A369A360A389B1
:101EB0001A0709D523693BB123692068F6B2C01A15
:101EC000636998420FDB08E02846214600F03CF8A1
:101ED0000028F1D04FF0FF3070BD28462146FFF7B3
:101EE000D3FA0028F6D1A3680130013BA360236830
:101EF0005A1C22601E706369984204D0A389DB07D4
:101F000007D50A2E05D128462146FFF7BDFA00283D
:101F1000E0D1304670BD00BF042300002423000040
:101F20004423000038B5074C0546002020600846D1
:101F300011461A46FEF7E4F9431C02D1236803B1A7
:101F40002B6038BD78030010324B70B51D68064613
:101F50000C4625B1AB6913B92846FFF725FB2E4B7C
:101F60009C4201D16C6808E02C4B9C4201D1AC68CA
:101F700003E02B4B9C4208BFEC68A28993B219077F
:101F800020D4DD0605D4092342F040023360A2814B
:101F90003BE0580712D5616B41B104F1440399420B
:101FA00002D03046FFF7B6FB00236363A38923F01A
:101FB0002403A3810023636023692360A38943F082
:101FC0000803A38123694BB9A38903F42073B3F5F4
:101FD000007F03D03046214600F046F8A38913F075
:101FE000010205D00022A26062695242A26103E0B0
:101FF000990758BF6269A26022694AB903F080005C
:1020000080B230B143F04003A3814FF0FF3070BD88
:10201000002070BD300100100423000024230000C4
:102020004423000038B5064C0023054608462360CB
:10203000FEF750F9431C02D1236803B12B6038BD71
:102040007803001038B5074C05460020206008468C
:1020500011461A46FEF7B6F9431C02D1236803B1B4
:102060002B6038BD78030010F0B58B8991B09E07C6
:1020700005460C4625D4B1F90E10002908DAA389CB
:10208000002713F0800F14BF40264FF480660DE048
:1020900001AA00F055F80028F1DB029F4FF480669A
:1020A00007F47047B7F500514F424F41284631467B
:1020B000FFF774FB60B9A3899A051DD443F00203AE
:1020C000A38104F14703236023610123636113E0CB
:1020D0000A4BAB62A389206043F08003A381206197
:1020E00066614FB12846B4F90E1000F03BF818B104
:1020F000A38943F00103A38111B0F0BD01150000D5
:1021000010B5C9B202449042034605D01C78013094
:102110008C42F8D1184610BD002010BD38B5074CD0
:10212000054600202060084611461A46FEF710F9C1
:10213000431C02D1236803B12B6038BD7803001023
:1021400038B5074C00230546084611462360FEF7C4
:102150004DF9431C02D1236803B12B6038BD00BF89
:102160007803001038B5064C002305460846236066
:10217000FEF70EF8431C02D1236803B12B6038BD73
:1021800078030010F8B500BFF8BC08BC9E46704745
:10219000F8B500BFF8BC08BC9E46704716C00920C1
:1021A000000001400100000047C00920000001407C
:1021B00002000000FFFFFFFFFFFFFFFF0000000025
:1021C00001C0092000C009400200000003C009202E
:1021D00000C00040010000000BC009200080094041
:1021E0000100000010C009200000014001000000B3
:1021F0001AC0092000C009400300000041C00920A6
:10220000000001400200000049C009200080094090
:10221000020000009DC0092000C00940030000002A
:10222000FFFFFFFFFFFFFFFF0000000000C00920CD
:1022300000C009400200000002C0092000C00040A8
:10224000010000000AC009200080094001000000D0
:102250000FC00920000001400100000019C0092042
:1022600000C009400300000040C0092000000140F8
:102270000200000048C00920008009400200000060
:102280009CC0092000C0094003000000FFFFFFFFC1
:10229000FFFFFFFF0000000011C009200000014007
:1022A0000100000042C009200000014002000000BF
:1022B000FFFFFFFFFFFFFFFF00000000636F756C73
:1022C00064206E6F742070696E6F7574000000007A
:1022D00070696E6D6170206D69732D6D61746368D6
:1022E0000000000070696E6D6170206E6F74206672
:1022F0006F756E6420666F722070657269706865B4
:1023000072616C000000000000000000000000008E
:1023100000000000000000000000000000000000BD
:1023200000000000000000000000000000000000AD
:10233000000000000000000000000000000000009D
:10234000000000000000000000000000000000008D
:10235000000000000000000000000000000000007D
:102360000000000043000000D0000010232D302B9F
:102370002000686C4C006566674546470030313286
:1023800033343536373839414243444546003031DD
:10239000323334353637383961626364656600003C
:0423A0000000000039
:1023A4008003001000D8B8050000000004230000DA
:1023B400242300004423000000000000000000006B
:1023C4000000000000000000642300000000000082
:1023D40000000000000000000000000000000000F9
:1023E40000000000000000000000000000000000E9
:1023F40000000000000000000000000000000000D9
:102404000000000000000000D0000010F1000000F7
:0824140049010000CD000000A9
:0400000300000435C0
:00000001FF
