:1000000000800010F546000025470000274700004B
:10001000294700002B4700002D470000000000008A
:10002000000000000000000000000000D13E0000C1
:1000300031470000000000003F3F0000773F000014
:1000400037470000374700003747000037470000B8
:1000500037470000374700003747000037470000A8
:100060003747000037470000374700003747000098
:100070003747000037470000374700003747000088
:100080003747000037470000374700003747000078
:100090003747000037470000374700003747000068
:1000A0003747000037470000374700003747000058
:1000B0003747000037470000374700003747000048
:1000C00037470000374700003747000010B5054CA0
:1000D000237833B9044B13B10448AFF300800123F4
:1000E000237010BDCC01001000000000F88F00004C
:1000F00008B5064B1BB106480649AFF30080064819
:10010000036813B1054B03B1984708BD0000000018
:10011000F88F0000D0010010CC010010000000009A
:1001200000B5DBB001A800F08DFA01A800F052FB89
:1001300090B101A800F04CFA28B9F6E702A804F043
:1001400049F905F053FF02A800F0A2FB0028F5D101
:10015000322003F08DFEECE74FF4FA7003F088FED6
:10016000E3E700BF30B5002397B04FF4C0610C4CFB
:100170008DE80A001A4603A80A4903F04DFE2546F9
:1001800005E02A6913604FF4FA7003F071FE6269AA
:10019000636812681A42F4D1EA681360F3E700BF9B
:1001A000E801001021010000054B00221846054916
:1001B0001A605A609A60DA601A615A6104F01CB8D9
:1001C000E801001032C009200748084A08B5121A91
:1001D000002105F0D6FD03F02BFF05F039FDFFF7F8
:1001E000C1FF03F0DFFF00BFCC01001014100010AE
:1001F000022801DC0120704704F030BAEFF30583D8
:1002000003B100BE05F096BDEFF3058303B100BE58
:1002100005F098BD08B5012003F0C4FF08B5FFF74D
:10022000F9FF00BF704700BFD0F85C312BB190F8E8
:1002300058318B4203D00020704718467047931EF8
:1002400058425841704700BF002310B408214FF4B2
:1002500016540122C0F80841038680F80E1180F878
:100260000C218361C36180F848318362C3620362F9
:10027000436280F80D3143865DF8044B704700BF40
:1002800010B5074B044603F10802443380E80C0024
:10029000B43003F09DFD204604F054F8204610BD14
:1002A000087E0000A0F10400FFF7EABF094B10B57B
:1002B00003F108024433044680E80C00B43003F034
:1002C00087FD204604F03EF8204605F0D5F820468C
:1002D00010BD00BF087E0000A0F10400E6E700BFEB
:1002E00010B5084B084A03F1080144330446026084
:1002F00041608360B83003F06BFD201D04F022F8EC
:10030000204610BD087E0000087D0000A0F1080016
:10031000FFF7E6BFA0F10400FFF7E2BF10B50B4600
:1003200082B04968024618686B4603C30B46D9077A
:1003300007D55B10D4580099D0186158884702B08F
:1003400010BD02EB63000099884702B010BD00BFEA
:10035000436A1BB193F82530102B00D0704700F58D
:10036000967003F0A9BF00BF10B5426A84B0039134
:100370007AB184690123C16900930193204603ABDC
:1003800001F042F9002814BF4FF0FF30012004B003
:1003900010BD4FF0FF30FAE72DE9F047476A82B011
:1003A000044689461546CFB1002A17DD00264FF0D6
:1003B000010A00E0676AE36AA8469D4234BF2B4603
:1003C0009846A069E1693A468DE8080409EB0603FE
:1003D00001F01AF900B94644B542EBDC284602B0F8
:1003E000BDE8F087F8B5036A0546174663B1002AF1
:1003F0000DDD0C468E18284603F0ECFF04F8010BC7
:10040000B442F8D13846F8BD1F463846F8BD00273B
:10041000F8E700BF30B4D0F85C419DF8085074B9DB
:10042000FF2A0AD00A2A0DD14BB945B9012480F818
:100430005811C0F85C41204602E0FF2B05D0002097
:1004400030BC7047204630BC7047FF2DF7D1EDE738
:100450002DE9F041036A82B0044623B193F82520C8
:100460001B6B102A02D002B0BDE8F081002B30DDFA
:10047000C73300EB030800F1B40500F1C7062846B6
:100480004FF0FF3116F8017F08E0284603F09CFC8E
:100490000A2003F0EDFC28464FF0FF3103F090FCFA
:1004A000228E638E013202F07F029BB29A42ECD020
:1004B000238E28469BB25A1C92B22344228683F88C
:1004C0003470238E03F07F03238603F07DFC4645C2
:1004D000D5D104F5887003F0EFFEA36A04F118008B
:1004E000002507C80093019504F1C80301F09CF8AA
:1004F00002B0BDE8F08100BFF8B5036A044600F120
:10050000B4055BB34FF0FF31284603F059FC678E0A
:10051000268EBFB2B6B2284603F056FCB742F1D0E1
:1005200028464FF0FF3103F04BFC628E238E92B2CF
:100530009BB29A4210D0638E9BB25A1C92B26286D2
:10054000234493F83460638E03F07F036386284668
:1005500003F03AFC3046F8BD0026F8E74FF4165099
:10056000082101222386A361E36184F84831A36254
:10057000E362636284F80D316386C4F8080184F88D
:100580000E1184F80C214FF0FF36E3E70A4B10B54B
:100590000A4A03F108014433044602604160836063
:1005A000B83003F015FC201D03F0CCFE204604F00B
:1005B00063FF204610BD00BF087E0000087D0000DC
:1005C000A0F10800E2E700BFA0F10400DEE700BFF1
:1005D00090F86001704700BF38B50021044603F071
:1005E000D5FE174B002503F10802443384E80C00C4
:1005F00004F1B40003F0C4FB2586294604F5887095
:10060000658603F053FE294604F5967003F04EFE0E
:10061000082201234FF4165184F8485184F80D51F3
:1006200084F80E2184F80C312586A561E561A56268
:10063000E562256265626586C4F80811204638BD0A
:10064000087E00000C4B10B5044640F8043BFFF751
:10065000C3FF0A4B03F1080103F12402603384E86D
:100660000E0000F0E7FB0023C4F85001C4F85C3131
:1006700084F86031204610BDF07C0000007D000051
:100680002DE9F04180F848318AB0B2F8FE70044696
:10069000B2F80061109D1198A161E2614649019292
:1006A0000293F222256260623B460096434805F0C1
:1006B00049FC94F84821424BC2EB0212E1699200D6
:1006C00018689E889D7938328B1888509E809D715D
:1006D000A769E6693846314694F8485100F0E6FDCE
:1006E000431C4CD0002C5AD0C5EB051306EB8306F7
:1006F00007EB8007334B3D444FF0000C05F50155E7
:1007000001220493CDF814C004AB85F8292003CB53
:100710007062B162226A636A916D9B6D0D681B689D
:10072000294FC5F30945C3F3094334627763C6F81B
:100730001CC0A562E362254B00260693079606AB14
:1007400003CB234D10645164636A0895099608AD84
:10075000D4631765966303CD18645964226AA56A49
:100760009E63DC631F65A069E169002604F1C8038C
:10077000109511960AB0BDE8F04100F055BF226A0D
:10078000636A916D9B6D0D681B68C5F30945C3F3E2
:100790000943A562E362002CE5D00B4FCBE7226A48
:1007A000636A916D9B6D0D681B68C5F30945C3F3C2
:1007B0000943A562E362D6E7B87D0000687D0000CA
:1007C000007E0000490200001D03000051040000EB
:1007D000510300002DE9F043D0F8543183B00446B2
:1007E0008BB10025E9B2D4F8500100F057FCD4F8E1
:1007F00054310135834246D0052DF3D10023C4F88E
:100800005C31C4F85431002604F10409F1B2D4F883
:10081000500100F043FC013605460146224640B334
:10082000D4F8500101F05EFA02220746134628462A
:100830000FBB94F85811009700F00CF994F8581178
:100840000222009780460123284600F003F92A4639
:1008500007464846B8F1000F0BD057B1D4F85011F5
:1008600094F85831CDF800800197FFF709FFC4F8DC
:100870005451052ECAD1D4F85401003018BF0120BC
:1008800003B0BDE8F083012003B0BDE8F08300BFF2
:1008900038B500F1B40504464FF0FF31284603F0A7
:1008A0008FFA228E638E92B29BB29A42228E638E10
:1008B0003BBF94B28034C3EB0204C3EB0404A4B284
:1008C000284603F081FAE0B238BD00BF2DE9F041BF
:1008D0000823002780F808710646C0F8F83080F831
:1008E000FC7080F8FD70A0F8FE70A0F8007180F830
:1008F000097180F8077180F8037180F8047180F83D
:10090000057180F8067100F10C0400F1FC083C222E
:10091000201F002105F035FA04F12C0504F8047CB1
:1009200004F10C0C224642F8047F084B624503CBCD
:100930004FF0000328606960F5D13C344445E6D1AE
:1009400086F8093173603360BDE8F081587E00009D
:1009500070B5054600F11C0400F58676204600219E
:100960003C3403F0A3FCB442F8D12846FFF7AEFFB5
:10097000284670BD032908D8C1EB0111890043182E
:100980001B7A23B10831084470470020704718468D
:10099000704700BF70B403299DF80C600DD8C1EBFF
:1009A000011100EB81010D7A3DB901208A72CB72F1
:1009B0000E734D72087270BC7047002070BC704797
:1009C0000329F0B415D80D016C1A00EB8404237AC6
:1009D0007BB1677A022F0CD8D4F810C00137677248
:1009E000BCF1000F0BD066693EB1A4694FF0020C58
:1009F0002CB100231846F0BC70474FF0010C691A67
:100A00008C440CF1040C40F82C20F3E7F8B50446B4
:100A10000D4616461F46FFF759FF84F8FC5084F830
:100A2000FD6084F80671F8BD10B504461C3003F073
:100A300043FC04F1580003F03FFC04F1940003F080
:100A40003BFC04F1D00003F037FC2046BDE8104029
:100A5000FFF73CBF70B403299DF80C6010D8C1EBC0
:100A60000111890001F10C0400F118050444294426
:100A700054F8040F90F82450954204D08C42F7D1DA
:100A8000002070BC704790F826509D42F6D1751E2C
:100A9000002EF6D0EEB2F1E7032908D8022A06D8D4
:100AA000C1EB01110A44043250F8220070470020C3
:100AB000704700BF2DE9F84FDDF8288000F5D954C4
:100AC00081469B46CFB25FFA82FA0C34002594F837
:100AD000F860BE421BD00135052D04F58674F6D1B1
:100AE00042F2501459F80400002102F0E7FA012301
:100AF000077280F809A080F80AB0C0F80C80037073
:100B0000014659F80400BDE8F84F02F0F9BA94F82C
:100B1000F9305345DFD1B8F1000F02D02168884584
:100B2000D9D109EB050303F502539B78002BD7D0ED
:100B3000BDE8F88F2DE9F04700F5D9548146984675
:100B4000CFB25FFA82FA0C34002594F8F860BE4206
:100B500006D00135052D04F58674F6D1BDE8F08781
:100B600094F8F9305345F4D1B8F1000F02D0216860
:100B70008845EED109EB050303F5015320331B79BA
:100B80000BB9BDE8F08742F2501459F80400002177
:100B900002F094FA0223077280F809A0C0F80C80D2
:100BA0000370014659F80400BDE8F04702F0A8BA06
:100BB0002DE9F04182B00191019B002B42D000232E
:100BC000019CA2680192A268A360019A2346002AB0
:100BD000F6D1002C36D000F5055808F11008A668AB
:100BE0002369ABB1256923681B0F14D027683F0F19
:100BF0002846214601F024FC95F824309BB939465B
:100C0000284601F0F3FB68680121002202F028F970
:100C1000C6B13446E3E76368BBB162686B6B10270B
:100C2000D31A2B63E4E7D8F80000002102F046FA5B
:100C300004234460C77203700146D8F8000002F034
:100C40005FFADCE702B0BDE8F0811027D0E700BF13
:100C50002DE9F04F83B0834601F012FC724BD84669
:100C600048F8C83B0BF5D859444609F108090BF17F
:100C7000CC074FF0000A0CE004F13800002103F02B
:100C800015FB0F23C4F854A084F8253070344C456C
:100C900018D004F1100500211422C8EB04062846E0
:100CA00005F06FF8F31901229D605A6004F1080005
:100CB000002102F0BBF8F0510028DDD15B4803F0C1
:100CC0005FFAD9E70BF5D9560836344606F23C559B
:100CD000204604F58674FFF73BFEAC42F8D10BF5D5
:100CE000025808F1080840460BF5035701F000F9D7
:100CF00038464FF0000A0BF5055401F0F9F84FF4AF
:100D000040630BF5045004F120098DE808044849BC
:100D100053465A46043003F07FF804F1580548461C
:100D20005146382205F02DF8C4F804912846514662
:100D3000AC2205F026F80A2204F5827110236261C4
:100D4000C4F80851E161A361514604F1140002F0B6
:100D50009BF942F250134BF803000BF509500C308D
:100D600003F00EF80BF50950203003F009F841F6B6
:100D7000143441F6103241F60C3C41F6183E41F66F
:100D80001C300BF5D95141F624330BF5E1594BF8E2
:100D90000CA055464BF802A009F114094BF804A029
:100DA00052464BF80EA05C464BF800A0C1F800A0DC
:100DB000ABF8C4A00BF803A00BEB050C0CF501532A
:100DC000013504F5015E9A460CF5025C052D83F8A9
:100DD000242004F1040486F802518AF83D204FF0E3
:100DE00000068CF802208EF829208EF82A208EF832
:100DF0002B208EF82C2003D04E4609F58679DBE7B0
:100E00004046594601F08CF842F2F80338460BF898
:100E10000360594601F084F842F2F90358460BF892
:100E2000036003B0BDE8F08F687E0000787E0000AC
:100E3000BD1C000038B5084C206800B138BD42F236
:100E4000144004F01FFB0546FFF702FF284625600B
:100E500001F042FB206838BD0002001041F610335B
:100E60002DE9F041C558064645B1A94203D114E029
:100E7000A14213D025466C6D002CF9D141F61433F4
:100E8000F558F5B1A94203D107E0A14206D02546A5
:100E90006C6D002CF9D1BDE8F0812C46676D2846B9
:100EA000394687B141F6103501F0E2FA73599C4298
:100EB00029D041F6143573599C421CD00F2384F875
:100EC0002530BDE8F08141F6103801F0D1FA56F82E
:100ED00008309C422BD041F6143856F808309C421A
:100EE0001DD094F82430022B15D0032BE6D106F543
:100EF000D9563560E2E7636D3046996D01F094FB99
:100F0000636D7351DAE7636D3046996D01F080FBD4
:100F1000636D7351D2E741F61C33F550CEE7394685
:100F2000304601F081FB636D46F80830D9E7394659
:100F3000304601F06DFB636D46F80830D1E700BF25
:100F40002DE9F04F91F8033185B0092B0E46054687
:100F500015D0706810B1314600F0EAFF05F5D9539D
:100F600008334FF0000B9E4203F586731ED00BF141
:100F7000010BBBF1050FF6D105B0BDE8F08F086895
:100F800000287CD000F0DCFF05F5025332680833FE
:100F90009A427BD005F503539A4208BF0123D8D16A
:100FA0002B4442F2F80200219954D2E705EB0B03DF
:100FB00003F5015100220B4681F82420904605EBF1
:100FC0008B0B83F83D2006F138090BEB080303F582
:100FD00001535FFA88F74FF0000283F82920394661
:100FE0003046FFF7C7FC00283CD0002423E03946F8
:100FF0003046FFF751FD824601462846BAF1000F00
:1010000018D0DAF858201368D2F800C043F48043AF
:101010001360FFF723FF2846DAF85C1001F08AFB23
:101020002846DAF8601001F085FB2846DAF85810F7
:1010300001F078FB013430463946FFF79BFC4378DA
:10104000E2B29C42D3DB96F8FC2096F8FD301048C3
:1010500001920293CDF800900E4940F2BD12334642
:1010600004F070FF08F10108B8F1040F09F13C0920
:10107000ABD1304605B0BDE8F04FFFF7D5BC054910
:101080004FF4CA72044804F05DFF62E7002387E76B
:10109000007F0000C47E0000A07E000004290DD85F
:1010A000431803F5015320331B794BB14FF486737A
:1010B00003FB010000F5D95008307047002070474D
:1010C000184670472DE9F04F89B0059307468946C9
:1010D00090469DF848B001F0F3FA8246384601F098
:1010E00007FB0690384601F003FB00210790202201
:1010F000069804F046FE07980021202204F041FEE5
:10110000C8370024059B02E0B4F5D25F13D03D1927
:1011100095F8256070340F2EF6D106A88DE80808E2
:101120000290514628464A46434601F0BFF82846F9
:1011300009B0BDE8F08F054940F21522044804F0DB
:1011400001FF0025284609B0BDE8F08FC47E0000ED
:10115000487F000030B500F5D95383B00546083309
:101160000024994203F5867305D00134052CF8D18B
:10117000122003B030BD6420019102F079FE019984
:1011800091F8FC3073B9284601F0DCFA642002F0D3
:101190006FFE2C4404F501540123002084F83D30F7
:1011A00003B030BD486891F8FD1001F04DF8EDE74F
:1011B0002DE9F0411C46064617460D4693B11846E8
:1011C00000294CD091F8021101F0DAF895F80631B7
:1011D0005BB994F8243084F86C70022B0FD0032B89
:1011E00023D073B30020BDE8F0812046012101F037
:1011F000D5F894F8243084F86C70022BEFD1304687
:1012000001F0FCF970B341F61C3856F8080021468D
:1012100001F02EF946F80840256028463946224656
:10122000FFF7CEFB0120BDE8F081304601F0ECF97C
:1012300018B306F5D9563068214601F019F9346023
:10124000EAE7304601F0D4F910B341F61835705989
:10125000214601F00DF974510120BDE8F08101F043
:101260008FF8B6E73046A16D01F0D2F941F61032A1
:1012700041F61C33B450F450CEE73046A16D01F076
:10128000D3F941F6143206F5D953B4501C60C3E7C4
:101290003046A16D01F0C2F941F60C3241F6183327
:1012A000B4500120F450BDE8F08100BF00F5D950E2
:1012B00008300023814200F5867005D00133052BEC
:1012C000F8D14FF0FF307047184670472DE9F047CE
:1012D00000F5095620360D4680464FF0FF31304666
:1012E00091469A4602F06CFD6C6E002C35D095F854
:1012F000273013B395F824701C4A1D4B002F08BFEC
:10130000134622680AF1FF3A2360636809EB0A0377
:10131000C4F80490E2683946E360404601F0A6F95B
:10132000284601F077F84046394601F081F9304609
:1013300002F04AFD1120BDE8F08795F8263095F8B7
:101340002470022B0CBF4FF480134FF400233FB9DD
:1013500043F0734343F48023D3E71220BDE8F087C2
:1013600043F0704343F48023CBE700BF000004F256
:10137000000004F02DE9F04F89B0984605900491E3
:1013800015464BB34FF0000BD946CDF818B05C466C
:10139000CDF81CB02F197B782E5D023B1F2B18D87F
:1013A000DFE803F040171D45171717171717171712
:1013B00017171717171717171717171717171717BD
:1013C000171717103A7AFB7943EA0223059AA2F815
:1013D000C4303444A045DDD809B0BDE8F08F129A7E
:1013E000E71D15F807E01068631D04F1020904F118
:1013F000060AEA5C039315F8091015F80A30CDF8CF
:1014000000E0D0F804C01298E04700284CD00BF15F
:10141000010CBBF1040F5FFA8CFC47D9E3464FF097
:101420000109D6E72B79049A82F80931D1E7B9F19D
:10143000000FCED0BBF1040FCBD8069A022AC8DC2D
:10144000A31C1298039304F1030AEB5C016815F8DE
:101450000A20DB11D1F808C0013302F0030207991A
:10146000E0470028B5D015F80A1001F00301012962
:10147000AFD0039A7B79A85C3F79C21100F00F00CE
:101480000090013247EA03230598FFF71BFE38B1AD
:10149000049B2BB1034604990598079AFFF788FE31
:1014A00006980130069094E7814692E715F8099076
:1014B000039BE95DEA5C049815F80A3000914946FF
:1014C000CDF81C90E346FFF765FA00204FF00109C4
:1014D00006907EE72DE9F04F00F5095589B09DF89B
:1014E00054800C3506460F4628464FF0FF3114460F
:1014F0009A469DF84CB09DF8509002F061FCB8F10E
:10150000000F0CBF02220122002F33D0002C50D03C
:1015100094F82530102B14D194F82630934231D012
:101520002268234600923248324940F2FD3204F0EC
:1015300009FD1224284602F047FC204609B0BDE808
:10154000F08F94F86C302668C3EB0313204606EB4B
:10155000830700F055FF3837029023460197009625
:10156000254824494FF47E7204F0ECFC94F82540A1
:10157000E4B2DFE721481F4940F2EE3204F0E2FC1A
:101580001224D7E794F824304B45C9D1A36D97F8BE
:1015900002211B6803F07F039A4212D0226823467F
:1015A00000921748134940F2024204F0CBFC122487
:1015B000C0E714480F4940F2F33204F0C3FC122490
:1015C000B8E7304652462146129BFFF77FFEBBF13B
:1015D000000F01D11124ADE7616805A84FF0FF327B
:1015E00001F064FC94F82540102C08BF0024A1E70A
:1015F00048800000C47E0000B87F0000807F0000AB
:10160000F47F00009C7F0000F0B585B00A9C9DF837
:101610002C70022601258DE8900002960395FFF7B5
:1016200059FF05B0F0BD00BFF0B585B00A9C9DF82C
:101630002C70022600258DE8900002960395FFF796
:1016400049FF05B0F0BD00BFF0B585B00A9C9DF81C
:101650002C70032600258DE8900002960395FFF775
:1016600039FF05B0F0BD00BF2DE9F04F00F509547A
:1016700087B00C3492469DF8502083460D4641F6C3
:1016800008364FF0FF31204699460192DDF8408040
:10169000139F02F095FB5BF8060095F8061100F029
:1016A0007DFE5BF80600D5F8F81000F05BFE95F8BB
:1016B00007315BF8060003F0FF01002B51D095F8CD
:1016C000021100F05DFE41F6083542F2FA0142F2E5
:1016D000FB025BF80500C8F3072E0BF801A042F2ED
:1016E000FC030BF8029042F2FD06119A0BF80380FE
:1016F0000BF806E0DDF844E042F2011342F2FE018D
:10170000C2F307293E1242F2FF020BF504580BF810
:1017100001E00BF80290002188F800700BF80360DC
:1017200000F048FE0BF503525BF805103A3208232F
:101730005846FFF7CBFD5BF8053003A859684FF01A
:10174000FF3201F0B3FB5BF8053093F82560F6B289
:10175000102E09D0204602F037FB304607B0BDE816
:10176000F08F00F00DFEAEE707B3019B5BF80500BC
:10177000002B0CBF4FF480114FF4002100F01AFE33
:101780005BF805103B46129A5846FFF79FFD5BF841
:10179000053003A859684FF0FF3201F087FB5BF872
:1017A000053093F82560F6B2102ED3D1019A41F698
:1017B0000835002A14BF4FF480114FF400215BF864
:1017C000050000F0F7FD002213465BF805105846AF
:1017D000FFF77CFD5BF8053003A859684FF0FF3236
:1017E00001F064FB5BF8053093F82560102E08BF0C
:1017F0000026AFE7F0B587B00E9D0C9F0D9E0295B9
:101800000F9D00240097019603950494FFF72CFF89
:1018100007B0F0BDF0B5112B87B094BF1F4612275B
:101820001C464FF4807600230C9D02920193049392
:101830000397009680220623FFF716FF1DB1122C96
:1018400028BF12242C8007B0F0BD00BF2DE9F04363
:10185000144687B000224FF40076092500960192C5
:1018600004920395029498468022062381460F46EF
:101870000E9EFFF7F9FE0546D8B9E278A37843EA51
:101880000223434528BF434606B1338000224FF46C
:1018900000750393009501920492029448463946DC
:1018A00080220623FFF7E0FE0546284607B0BDE884
:1018B000F083054940F20232044804F043FB284615
:1018C00007B0BDE8F08300BFC47E00009080000038
:1018D000F0B587B00E9D0C9F0D9E02950F9D0124C3
:1018E0000097019603950494FFF7BEFE07B0F0BD84
:1018F00010B5002386B001248DE80C0002930393F9
:101900001A4604940523FFF7AFFE06B010BD00BFD2
:101910002DE9F04F00F5095295B0069200F50253FB
:101920000C93069B00F5D85208920C330693089B43
:1019300000F5D9520792083304320B9208930C9A9F
:10194000079B00F5055808320833054608F11008D2
:101950000C92079311A8D8F800104FF0FF3201F055
:10196000D9FB119B202BF5D1129F3C78022C09D07A
:10197000042C70D0012C52D03946D8F8000001F068
:10198000AFFBE7E74FF0FF31069802F019FA0021AC
:10199000284600F06BFE21460646284600F066FE0B
:1019A00003210446284600F061FE97F808E08146CE
:1019B00097F809C0F8680799052391F8FC2072454B
:1019C0001FD0013B01F58671F7D19EB934B9B9F149
:1019D000000F0AD1069802F0F7F9CDE72846022158
:1019E00000F026FEB9F1000FF4D02846032100F0E4
:1019F0001FFEEFE72846002100F01AFE002CE6D07B
:101A0000ECE791F8FD206245DBD110B14A689042C5
:101A1000D7D12846FFF794FA002ED7D0EAE74FF047
:101A2000000906984FF0FF318DF8409002F0C8F998
:101A300005EB090B0BF5015393F82460002E42D0FF
:101A400009F10109B9F1050FF2D1954961229548D3
:101A500004F078FABEE7FB7AD7F80490102BD9F897
:101A6000106000F0FF80079A34680021944202F56C
:101A7000867207D0013105293FF47EAF944202F50A
:101A80008672F7D16B1803F5015320331B79002BB5
:101A90003FF472AF304600F0B3FC3268009002921F
:101AA000019696F86C104B46C1EB011102EB8102D6
:101AB000383203927C487A49ED2204F043FA10232D
:101AC00086F8253058E74FF4867404FB0954BB7A36
:101AD00004F5D954003304F1080418BF01237A7ABD
:101AE0002046397AFEF792FF0B9A0BF5015392F8D4
:101AF00000A04FF0010C0BF5025283F83D6082F814
:101B000002C0BAF1000F16D1624651460823CDF843
:101B100000A02846CDF814C0FFF7D4FA089B514620
:101B200018601B6852462846FFF742FBDDF814C0D8
:101B30000B9B83F800C0FB6803B163604FF00A0A97
:101B400008E05A48564904F0FDF90AF1FF3A1AF044
:101B5000FF0A31D021462846FFF7FCFA082600226A
:101B600084F80721C4F8F8602146009233460FAA92
:101B70002846FFF74FFE21467F220028E1D19DF83D
:101B8000433094F80221C4F8F8302846FFF7B0FE3D
:101B900086464FF0010C21460FAA33462846BEF177
:101BA000000F26D042483E498A220AF1FF3A04F04B
:101BB000C9F91AF0FF0ACDD13B7A3E4800937B7AEF
:101BC000374901939B22234604F0BCF99DF840302D
:101BD000092B1AD00026F86810B1214600F0A2F9AE
:101BE000002E7FF4F7AE0BF5015B01238BF8243058
:101BF000F0E684F807C1CDF800E0FFF70BFE0028FF
:101C0000DAD0642002F034F99FE70023DDF830A039
:101C10000997CDF834901F46CDF8288005EB0709C9
:101C200009F50356383632786AB94FF00308504642
:101C3000214600F0A7F908F1FF38C0B918F0FF08F5
:101C4000F5D1327842BB0137022F0AF1380AE5D1CB
:101C500019481349AE22099FDDF82880012604F0B7
:101C600071F9B8E706F1380002F026FB84E6494630
:101C7000DDF834904FF4867303FB095301F50351EB
:101C800003F5D9530122C3F808A0099FDDF8288085
:101C9000002681F838209EE7099FDDF8288099E723
:101CA000C47E0000B48100005C810000BC800000A4
:101CB000F480000018810000E481000008B5FFF7FF
:101CC00027FE00BF10B5002386B001248DE80C006C
:101CD000029303931A4604940923FFF7C5FC06B048
:101CE00010BD00BF2DE9F04300F5095808F10C08BC
:101CF00085B0064600240D4640464FF0FF3117469A
:101D0000ADF80E4002F05CF806F5D95223460832D1
:101D100040F23C50D1188D4203F5867309D08342BE
:101D2000F8D11224404602F04FF8204605B0BDE835
:101D3000F083134600249D4203F5867311D00134CD
:101D4000052CF8D106F50959002309F1340900934F
:101D50004A46304629461223FFF75CFDD0B10446BF
:101D6000E0E706F5015204F61A032C3202EB840474
:101D700006EB8303002113F8012F481C02B1C1B206
:101D8000A342F8D10029DDD095F809318B42D9D191
:101D90000024C7E742F27823F25C42F2792385F807
:101DA0000321F25C42F27A2385F80421F35C42F2CB
:101DB0007D2185F8053142F27C20745C335C42F26F
:101DC0007F2243EA0423A5F8FE3042F27E2316F870
:101DD00002C016F803E03C684EEA0C2EA5F800E1BC
:101DE00016F801E0F35C315CB25C41EA0E2143EA93
:101DF00002223846236898470DF10E0300933046BF
:101E000029464A4640F29F13FFF720FD0028A6D13D
:101E1000BDF80E3000974A4630462946FFF7AAFA29
:101E200095F8083133B9304629460122FFF74AFFB9
:101E3000002894D1012385F80831404601F0C4FF01
:101E4000642002F015F800246FE700BF00234FF074
:101E5000FF32026203738360036180F824300375EC
:101E600043758362C362036343637047704700BF77
:101E700030B4046A9DF80850013402D0002030BC10
:101E80007047092AFAD1002BF8D115B90162012057
:101E9000F5E71846F3E700BF10B4046AA14203D087
:101EA00000205DF8044B7047032AF9D1022BF7D1CB
:101EB000012380F824301846F3E700BF10B50B4625
:101EC00082B04968024618686B4603C30B46D907BF
:101ED00007D55B10D4580099D0186158884702B0D4
:101EE00010BD02EB63000099884702B010BD00BF2F
:101EF00010B40A4C00224FF0FF31046001624260CE
:101F000002738260026180F8242002754275826249
:101F1000C262026342635DF8044B70472082000096
:101F20004160704791F8FD30093340F82310704745
:101F300091F8FD300022093340F82320704700BF9C
:101F400070B50546044600F11006A36A043419462C
:101F500013B16868FEF7F4FFB442F6D170BD00BF5C
:101F600010B503469C6884B0002340688DE80600E5
:101F700002930393214623220323FFF7A9FC04B015
:101F800010BD00BF2DE9F043057B89B004460E4625
:101F90001DB1284609B0BDE8F08340682246FFF72E
:101FA000A1FE0746002840F08A8094F82480B8F10A
:101FB000000FEED094F82010A66030460095032262
:101FC0000223FEF747FD2061002878D0B6F8001103
:101FD000226AB6F8FE3045488DE842000292444934
:101FE000672203F0AFFF94F82030424AC3EB03139B
:101FF000106806EB83039863656831462846D4F879
:102000002090FFF753F9431C6BD024B305EB8000FD
:102010005FFA89F3384DC3EB0312034406EB8202E7
:1020200003F5015101200495059704AB334D81F868
:10203000290003CB50629162236914625563D76112
:102040002F4A00210692079106AA9963DC6303CA0E
:102050001D65186459644FF4245100220A2304F1C9
:10206000160760688DE886000393A0220623314698
:10207000FFF7C0FB237E627E2375627501254BB19D
:102080002A4620460821FFF76BFF0135227DEDB27D
:10209000AA42F5D2E07E4FF0010900FA09F00025CE
:1020A00002F0FEF860682269314601953B46CDF8A2
:1020B0000090FFF7C9FA454684F80C9069E74FF0A5
:1020C000FF3328462573A560256184F824502575C3
:1020D0006575A562E56225636563236209B0BDE8A5
:1020E000F0832369002CB6D0044DA9E730820000AC
:1020F00074820000B48200004D1E0000BD1E00006E
:102100005121000010B503469C6884B0002340684C
:102110008DE8060002930393214623220123FFF753
:10212000D7FB04B010BD00BF30B5034687B09D6833
:1021300005AC0023042240680191039229460093D4
:102140000294A322FFF756FB059807B030BD00BFED
:10215000F0B5026983B004466AB192F82530102BBD
:102160000BD0012600256068A16804F116030096D3
:102170000195FFF769FA03B0F0BD037D002BF0D0A5
:10218000012607E0AA032BD42B0730D4237D013688
:10219000B34246DBF7B239462046FFF7C5FF054696
:1021A000E80314D515F0010360683CD0A368026809
:1021B00093F8FC100094D2F800C001313246C5F308
:1021C0004023E047204610213A46FFF79BFFE902F3
:1021D000D8D53A4620461421FFF794FFAA03D3D559
:1021E000204611213A46FFF78DFF2B07CED5144923
:1021F000D222144803F0A6FE20463A460821FFF7F3
:1022000081FFA368606893F8FC10026800230093C4
:102210005568234632460131A847237D0136B34233
:10222000B8DA22699DE7A168026891F8FC10009372
:10223000D2F804C0013132462346E047C2E700BF6E
:1022400074820000B8820000F0B50A460C4683B0E4
:1022500004210546FFF784FE04E003070BD40A209F
:1022600001F006FE28462146FFF75EFF10F0120639
:10227000F3D003B0F0BD0B49E6220B4803F062FE39
:10228000284622460821FFF73DFFAB68686893F8AF
:10229000FC1007680096224601317C682B46A04757
:1022A00003B0F0BD74820000B88200002DE9F8434D
:1022B0000446D2F101000A9E38BF0020A16584F8CF
:1022C000270084F8242084F8263073683268236657
:1022D000E2653068002120229DF8248003F051FD42
:1022E00070680021202203F04CFDE16D206E0B6927
:1022F000A36D0C61026994F82670046100221E68C7
:102300001A605D6808F07F06596094F8245007F160
:10231000FF38D3F8089046EAC8189960D3F80C90B3
:10232000F601DA6084F82880CDB14FEAC72C089A0C
:102330004CEA060CC2F309054CEA054500221E686A
:102340004FF010081D6084F86C206166A066E262A0
:1023500022636263626584F82580BDE8F883AC4639
:10236000E5E700BF836D1A68186822F07F7222F4D7
:1023700040321A601A68186842EA014119607047D1
:10238000836D01F07F011A68186822F07F021A60DD
:102390001A68186811431960704700BF836D1A6886
:1023A000186822F400521A601A68186842EA41312B
:1023B00019607047B1F5002F11D0B1F5801F07D01B
:1023C00001B17047012380F8263080F8273070472C
:1023D0000222002380F8262080F82730704701224F
:1023E000002380F8262080F827307047122904D86F
:1023F000024B13F8313080F825307047A08400007C
:1024000090F82520024B03EBC2035868704700BFC9
:10241000A084000030B4436E1125DA685968013297
:10242000521AC26202635C68816E80F82550826D28
:10243000446398689960536830BC5160704700BF2E
:1024400030B400230A680B604A684B60CA68826D2A
:10245000CB608C688B6055689468836E04F00204CE
:102460002C43956894604366816630BC704700BF1A
:102470004165836D01B1896DDA68D960704700BF2D
:1024800038B5124B124A044603F5986103F5807083
:10249000104D84E80C00A060E160184600214FF464
:1024A00080722C6003F06DFC00231946E2180133A2
:1024B0003C2B1174FAD100231946E2180133782B12
:1024C00082F84C10F9D1204638BD00BF000008202A
:1024D00040850000040200103E4B2DE9F0414FF012
:1024E00080723D4CC3F88020D4F8C43082B023F011
:1024F0000043C4F8C4300646642001F0D1FED4F88D
:10250000C420364B42F00042C4F8C420D3F8F41F74
:102510001A4641F01901C3F8F41FD2F8F83F2F4CC6
:1025200003F01903192BF8D1D4F810212C4B42F0E9
:102530000102C4F81021D4F8F42F002522F008027B
:10254000C4F8F42F5A68642022F070525A605A6816
:102550004FF0010842F0A0525A6065602562A56202
:1025600001F09EFE1F4A42F62F23C4F808806263E2
:1025700023646268736822F0C00242F080024FF464
:10258000803762602765A361E268E168164B0A4301
:10259000E26016492361182001F09AFD0D4B4FF4BB
:1025A00080114FF08072676561651A60636DDB07AB
:1025B0000CD5962001F074FE636D306800950468B8
:1025C000C3F34023294642463046A04702B0BDE847
:1025D000F08100BF00E100E000C00F4000C00050EB
:1025E00000C00240DF2E78274200008065280000EE
:1025F000014B186A704700BF00C00050014B986A39
:10260000704700BF00C0005043681868704700BFA3
:10261000014B9962704700BF00C00050014B196226
:10262000704700BF00C0005043681A6819607047C7
:10263000022911D0032909D001B170470A4B0222A7
:102640009A605A6842F010025A607047064B5A6806
:1026500042F004025A607047034B04229A605A68A1
:1026600042F020025A60704700C0005002291AD080
:1026700003290DD009B100207047104B586810F0A5
:102680001000F9D05A68012022F010025A607047F9
:102690000A4B586810F00400EED05A68012022F06E
:1026A00004025A607047054B586810F02000E3D0D0
:1026B0005A68012022F020025A60704700C0005082
:1026C00008B5002302E001333C2B09D0C218117C6D
:1026D0000029F8D18068012100EB0310117408BDB6
:1026E000024803F027FC002008BD00BF5085000011
:1026F00008B5002302E00133782B0BD0C21892F802
:102700004C100029F7D1C068012100EB431082F87A
:102710004C1008BD024803F00DFC002008BD00BFAE
:102720006885000083680022C91A00EB111002744A
:10273000704700BFC3680022C91A00EB511080F82F
:102740004C207047054910234B654B6D034ADB064F
:10275000FBD44FF480135365704700BF00C0005096
:102760002DE9F0413E4C82B0E368226905461A42E9
:102770002BD0E36826691E40700629D5636DD90306
:102780000AD5216D11F4004725D006F00206344B1E
:102790004FF480325A6501E006F00206304B5A6D64
:1027A000D20244BF4FF480125A652D4B4022DA60AA
:1027B0005EB16A682B68D2F884109B6821F0010131
:1027C00028469847264B0222DA6002B0BDE8F08125
:1027D00006F00206ECE7636D13F0010830D116F045
:1027E000020615D16B68C820D3F88420C3F8846032
:1027F00001F056FD95E80C00D3F88430284623F00C
:10280000010300935468314601223346A047BEE7D6
:10281000C82001F045FD95E80C00D3F8843041460E
:1028200023F0010300935768434601222846B84726
:102830006B680222D3F88410C3F88480E260A6E7B4
:10284000962001F02DFD2A68636D00971468C3F38C
:10285000402339462846012206F00206A04796E7A3
:1028600000C00050024B186808B1FFF779BF7047ED
:102870000402001000B5DFF80CC000DFDFF808C06C
:1028800000DFFEE72D2A0000452A000030B4114D7C
:102890002C685CB12289914204D20EE01A898A42E6
:1028A0000DD81C462368891A002BF7D1002301811B
:1028B000036064B1206030BC70472346002489B2B5
:1028C00001811A890360511A1981002CF2D1286004
:1028D00030BC7047A4040010084B10B41B684FF4C0
:1028E0007A74591E04FB00104FF6FE72B0FBF3F031
:1028F000904228BF10465DF8044B7047E485000005
:1029000038B5084C257855B901F09AF9064BFF22E5
:102910001B6828469A7001F079FB01232370002080
:1029200038BD00BFA0040010DC04001010B5EFF3A8
:1029300005840CB1822010BDEFF31484E40703D5A5
:10294000DFF80CC000DF10BDBDE81040FFF7D8BFB6
:102950000129000010B588B0EFF3058414B182207E
:1029600008B010BDEFF3148404F00304022C1DD052
:10297000032C14D0012C16D008AC84F309880F4C1A
:102980002478E40716D5022484F31488BFF34F8F0C
:10299000BFF36F8FDFF828C000DF08B010BD074C11
:1029A0002478E407F6D5FF2008B010BD034C247846
:1029B000E407EFD4032484F31488E7E7EC850000F0
:1029C000E92C0000F8B504460F4628B302681AB394
:1029D0008388D81C80B206281ED8A068E0B1E668BB
:1029E000D6B1191D04F11005C9B2A6636086E7626D
:1029F000284601F051F801F037F80A4E0346471E09
:102A000046F827502846E37401F062F856F827008C
:102A1000054A436A5A63F8BD802001F0F7FA0020A6
:102A2000F8BD00BF180700107528000008B501F0B8
:102A30008BF818B1024B013853F8200008BD00BFD5
:102A40001807001008B558B1830709D103783BB9BE
:102A5000C07801F0BDF8FF2814BF0020812008BD18
:102A6000802008BD10B5EFF3058474B9EFF314842A
:102A7000E40702D4064C24781CB1DFF818C000DF4C
:102A800010BDBDE81040FFF79DBF002010BD00BF86
:102A9000A1040010C529000010B5EFF305840CB1A6
:102AA000822010BDDFF804C000DF10BD452A000001
:102AB00008B558B1421C10D00B4A904207D8FFF716
:102AC0000BFF80B201F058F9402008BD08BD4FF659
:102AD000FE7001F051F9402008BD4FF6FF7001F083
:102AE0004BF9402008BD00BF00093D0010B5EFF3D1
:102AF00005840CB1822010BDDFF804C000DF10BDDA
:102B0000B12A0000830706D128B10169C3680A68A9
:102B10001946104670470020002170472DE9F84300
:102B2000174F3D68D5B12B89DFF85880013B9BB228
:102B30002B814FF001098BB92C68D8F800603C60FC
:102B400016B13378012B10D06B79012B08D085F8A2
:102B500004901CB123892546002BEDD0BDE8F883F5
:102B600028466989FFF792FEF3E7304600F0E6FC5D
:102B70000028E9D03046294600F0E4FCE4E700BF35
:102B8000A4040010F807001010B540B1046834B177
:102B9000237823B9204600F0C7FD204610BD8020D1
:102BA00001F034FA002010BD70B510F003060446A1
:102BB0000D4603D110B10378032B01D0802070BDE6
:102BC0004B1C15D00E4B99420AD80846FFF784FEDD
:102BD00081B2204600F04CFE012804D0002070BDD8
:102BE0004FF6FE71F5E70DB1C12070BD812070BDBB
:102BF0004FF6FF7100F03CFE0128EFD1F4E700BF73
:102C000000093D00820708B503D110B10378032BFA
:102C100001D0802008BD00F0CBFDFF2814BF0020AC
:102C2000812008BD10B510F0030403D110B1037862
:102C3000032B01D0802010BD00F07EFD204610BD8A
:102C400010B5EFF3058474B9EFF31484E40702D4EC
:102C5000064C24781CB1DFF818C000DF10BDBDE8B9
:102C60001040FFF791BF002010BD00BFA10400106D
:102C7000892B000010B5EFF305840CB1822010BD44
:102C8000DFF804C000DF10BDA92B000010B5EFF382
:102C900005840CB1822010BDDFF804C000DF10BD38
:102CA000052C000010B5EFF305840CB1822010BD97
:102CB000DFF804C000DF10BD252C000010B504466D
:102CC00060B1016851B1406840B1037833B9043153
:102CD000890089B200F07EFB606810BD802001F0A1
:102CE00095F9002010BD00BF38B5114D2C78E4B91E
:102CF00021461048FFF7E2FF0F4B214618600F48AE
:102D0000FFF760FE0E4B21461860204600F024FFBE
:102D10000C4B1B685B6A203383F30988094B002244
:102D20001A6001F00BF801232B70002038BD00BFA2
:102D3000A104001008010010F80700101001001095
:102D4000FC0F0010DC04001070B515460E4604465A
:102D500010B10378012B01D0802070BD531C16D018
:102D60000E4B9A420BD81046FFF7B6FD82B22046B2
:102D7000314600F03DFB012804D0002070BD4FF625
:102D8000FE72F4E70DB1C12070BD812070BD4FF619
:102D9000FF7200F02DFB0128EFD1F4E700093D00A0
:102DA0002DE9F04F0C4685B0804648B30378012BDF
:102DB0000AD0002580242E462F463B462046294631
:102DC000324605B0BDE8F08F4B1C24D0164B99421B
:102DD00011D94FF6FE72404602A900F059FB0128B6
:102DE00013D00020024603461020029904460D46E7
:102DF00016461F46E1E70846FFF76EFD82B2EAE796
:102E00008024054606460746D7E75CB900200246FF
:102E100003462046E9E702A94FF6FF7200F038FBAF
:102E20000128DED14024F1E700093D0010B5EFF3A1
:102E3000058474B9EFF31484E40702D4064C2478B3
:102E40001CB1DFF818C000DF10BDBDE81040FFF76F
:102E500035BF002010BD00BFA1040010BD2C000034
:102E600010B5044682B0EFF3058028B92046DFF89C
:102E700038C000DF02B010BD1CB112B92378012B9D
:102E800002D0802002B010BD20460191009200F0D7
:102E900055FB019908B98120ECE7204600F052FB70
:102EA000009A1046E6E70000492D000070B5044680
:102EB00084B01646EFF305854DB908461146DFF894
:102EC00050C000DF84E80700204604B070BD19B18F
:102ED00012B90B78012B0AD004AB802243F80C2DD9
:102EE00093E8070084E80700204604B070BD084658
:102EF00002A900F02FFB042808BF102301AD14BF66
:102F00000196019395E8070084E80700DCE70000DC
:102F1000A12D000000B50A4C85B001A821684FF032
:102F2000FF32FFF7C3FF01981028F6D10298DFF8AF
:102F300014C000DF03460028EFD008469847ECE7AE
:102F4000F8070010052B000038B50446E0B1016811
:102F5000D1B14268C2B18368B3B158681D6898B1F5
:102F600095B12B7883B9033222F0030201FB02F101
:102F70000C3100F089FB216828460431890089B2B0
:102F800000F028FAA06838BD802001F03FF800204A
:102F900038BD00BFF8B50E461F4648B34468056803
:102FA00034B32DB302B119BB204600F099FB4FB1E9
:102FB00050B1A3683BB102460021043B42F8041B18
:102FC000FBD1F8BD00B1F8BD96B16B6893B1104B61
:102FD0002846196800F0DAF8731C16D00D4B9E4293
:102FE00010D83046FFF778FC80B2082100F092FD3F
:102FF0000020F8BD064A032112686A60536095609C
:103000006970E9E74FF6FE70EFE74FF6FF70ECE707
:10301000DC04001000093D00F8B5164650B190E8F8
:1030200030003CB135B1284600F068FB074618B1C6
:103030008620F8BD8020F8BD6378032B01D00020E6
:10304000F8BDB6B9284600F04BFB06460028F6D07E
:10305000204600F0C5F86368054693B1314628461E
:1030600000F0C8FF284600F07FF9284600F030FD48
:10307000E5E72046294600F08BF900F045FC38468C
:10308000F8BD6370EAE700BF10B5EFF3058474B9CB
:10309000EFF31484E40702D4064C24781CB1DFF863
:1030A00018C000DF10BDBDE81040FFF74DBF002085
:1030B00010BD00BFA1040010492F000000B5EFF3C0
:1030C00005822AB91346DFF814C000DF5DF804FB5F
:1030D000012200235DF804EBFFF75CBF952F000091
:1030E00000B5EFF3058222B9DFF810C000DF5DF80C
:1030F00004FB01225DF804EBFFF78EBF19300000DE
:1031000030B119B100680022FFF7AABE86207047CF
:103110008020704710B5044649B10968FFF7C6FE24
:1031200023682046102B08BF2023236010BD802376
:103130000360204610BD00BF10B5028B43781143D9
:10314000062B04460183428B19D0052B00D010BDFD
:1031500011EA0203FBD0438321EA020121832046C6
:1031600000F002F90123204663700821628B00F011
:1031700045FF21460448BDE8104000F007B801EAC9
:1031800002039342E8D010BDA804001070B4037885
:103190004268013B022B8CBF002601268C78E2B1ED
:1031A0009578A54204D20EE09878A0420DD31A4635
:1031B0005368002BF8D100234B60516056B90023AF
:1031C0008B6070BC7047134602464B605160002E06
:1031D000F5D099608A6070BC70470246EBE700BF8B
:1031E000436801785A6801390229426007D812B150
:1031F00000219060596000229A60184670470022B2
:103200005A601846704700BF034B00215A6881601E
:1032100042605860704700BFA804001030B4164CDC
:10322000E3681BB3A28A914203D822E0DC689CB118
:1032300023469C8A22449142F8D8DD68C560D86054
:10324000C468036104B12061521A92B28282998AE1
:1032500030BC8A1A9A82704792B20024891AC460DC
:10326000D86003619982848230BC70471A46234635
:10327000F3E71D462346E1E7C0040010F8B51D4DF5
:10328000EC68002C34D0AB8A013B9BB2AB82002BA4
:103290002ED1194F2E4608E0E3686070EB6033B31F
:1032A0001E61E16021611ABB1C46A36821461348D8
:1032B0004FF0000E43B162685A60626812B19360C9
:1032C000C4F804E0C4F808E0FFF760FFA28A012018
:1032D000AA8263780021042BDED13B68B4F816C0C3
:1032E00060706344A382E368EB60002BD8D1236154
:1032F000F8BD00BFC004001014050010A8040010A1
:10330000836833B142685A6042680AB1936070477B
:103310007047074A5368834205D043B15A688242D6
:1033200002D01346F9E7134642685A607047704767
:10333000A804001038B5846805460CB90CE0A468F0
:103340002378002BFBD02846FFF7DAFF20462946DA
:10335000BDE83840FFF71ABF4378012B00D038BDD5
:10336000004CF0E7A8040010036930B463B1C268F0
:10337000DA60C26852B19C8A858A00212C449C8202
:103380001361C1600023036130BC70479A82F9E782
:1033900030B40F4BDC78EFF3108372B60C4A93789D
:1033A0009C4208D95D1C137895705D1CAC4214BF1B
:1033B000EDB20025157062B69C4205D930BC02EB17
:1033C000C303586099607047022030BC00F01CBEF7
:1033D000740700101039002389080122C18102708E
:1033E000437083704360038143818381704700BFD2
:1033F000F0B5466883B003460F4616B141780129FF
:103400002CD09D89DC89A54213D01889021D43F870
:103410002270EFF3108272B601359D8162B60130E1
:1034200080B284420BBF002018811881002003B0B5
:10343000F0BD82B10EB3154C184621680192FFF71A
:10344000A5FE2168019ACF611046082100F062FBB9
:10345000012003B0F0BD012003B0F0BDFFF7C0FEB6
:103460003A460446102100F0C9FD2046FFF77CFFD4
:10347000204600F02DFB0020D9E70449022009680E
:1034800059604E608B605870DDE700BFDC040010AF
:1034900038B5838904461546CBB14289C589101DCC
:1034A000013292B254F8200095420860628104BF54
:1034B00000226281626812B16278022A1ED0EFF3A4
:1034C000108272B6013BA38162B6002038BD5AB1AA
:1034D00043685BB1184B1968FFF758FE284608216E
:1034E00000F018FB012038BD012038BD124A01212F
:1034F00012684260536090604170EFE72046FFF72A
:103500006FFE0021054600F075FD2289E089531CFD
:103510009BB2E969984202F1040244F82210238127
:1035200004BF002323812846FFF71EFF284600F032
:10353000CFFA002038BD00BFDC040010C2898089AA
:10354000101A704708B5FFF723FFBDE8084000F0E8
:10355000DBB900BF38B583890446ABB14289151D7C
:1035600050F825500D604178022913D0EFF31081F7
:1035700072B6013BA38162B60132E38992B29342F3
:10358000628103D0042038BD184638BD0023638112
:10359000042038BD0021FFF7FBFE00F0B5F9A38938
:1035A0006289E3E7436870B504460E46002B4DD0B0
:1035B0004578022D25D0032D02D0012D10D070BDED
:1035C000084600F08DF805460028F8D02046FFF7A1
:1035D00007FE2946044600F00DFD0123637007E055
:1035E000FFF7FEFD32460446102100F007FD65702E
:1035F0002046FFF7B9FE21462248BDE87040FFF79C
:10360000C5BDFFF7EDFD0021054600F0F3FC238961
:10361000EA69191D44F82120EFF3108272B6A289DD
:103620000132A28162B6E28901339BB29A422381C0
:1036300004BF00232381012328466B70FFF794FE0B
:1036400029461048BDE87040FFF7A0BD8289C389B4
:103650009A4211D20189081D44F82060EFF31080CE
:1036600072B60132A28162B6013189B28B420ABFC1
:1036700000232181238170BD0320BDE8704000F04C
:10368000C3BC00BFA8040010002A70B41EDBD51C08
:1036900025F003050C24B5B163198B4213D80444FB
:1036A00001444E1B63199E4204604160856002D252
:1036B00013E01C4613465A1996422360F9D20020A3
:1036C000186070BC7047012070BC704722F0004544
:1036D000073525F007051024DDE72346EFE700BF97
:1036E000EFF3108272B6036802F001020BB11968A1
:1036F000016002B962B61846704700BF81420ED31E
:10370000436899420BD2EFF3108272B603680B60E4
:103710001346DB07016004D462B600207047012025
:1037200070470020704700BF0023032202704370DF
:103730004380436083607047438870B505464BB152
:1037400083684178184A997080681368984201D05C
:10375000FFF7F0FD6B6801268BB12846FFF740FDAF
:103760000021044600F046FC2046FFF7FDFD667090
:1037700021460E48FFF70AFD6B68002BEDD10B4880
:1037800043686BB1084C9A7821688B789A4207D9C4
:10379000FFF7FCFC236801225A70002000F098F922
:1037A0000020287070BD00BFDC040010A8040010C9
:1037B0002DE9F8434388044613B9FF20BDE8F88398
:1037C000294D826829688A42F7D1013B9EB2468022
:1037D0001EBB437893704768002F33D0FFF700FD7E
:1037E000314607464FF0010800F004FC3846FFF769
:1037F000BBFDA760A4F80280BB78DFF8709063700F
:103800002968D9F804308A789B789A4208D33846D8
:1038100000F05EF93046BDE8F8830020BDE8F8838B
:103820004846FFF7B3FC48463946FFF7AFFC2B6824
:10383000304683F8018087F8018000F049F930466E
:10384000BDE8F8830948416889789942E5D911466D
:10385000FFF79CFC2B68012238465A7000F038F9BB
:103860003846BDE8F88300BFDC040010A80400104F
:10387000438870B504460D4643B9154A1268826004
:103880009278427001336380002070BD104E8168D1
:1038900032689142F6D0CDB19378407898420FD3F8
:1038A00063684BB120461146FFF770FC284609219A
:1038B00000F030F9012070BD626053609460F5E75C
:1038C0008B70A068FFF736FD3268E9E7012070BD14
:1038D000DC040010426810B57AB1FFF781FC0446A1
:1038E000FFF742FD01216170204600F083FB214675
:1038F0000448BDE81040FFF749BC428801324280CD
:1039000010BD00BFA8040010054B1B781BB1054B70
:1039100001221A707047044B4FF080521A607047B2
:10392000090200100802001004ED00E01A4A38B540
:1039300010680123194D4370FFF766FCAB786C7873
:1039400093B921E0012A1AD0FFF7C4FFEB780134C4
:103950009C4208BF0024EFF3108372B6AB78013BA2
:10396000DBB2AB7062B67BB105EBC4014B681A7871
:103970001846002AE6D10989FFF7DEFBE6E718467C
:103980008968FFF70FFEE1E705486C70FFF728FC38
:10399000BDE8384000F094B8DC0400107407001053
:1039A000A8040010094B70B409481E68094D0A4A62
:1039B00000240A4B07212E60046011601A684FF042
:1039C000FF3042F07F421A6070BC7047F4850000FF
:1039D00018E000E014E000E010E000E020ED00E07E
:1039E000704700BF0B4A08B5106801234370FFF70A
:1039F0000BFC00F045FB084B1A6801321A60FFF718
:103A00003DFCFFF78BF80548FFF7EAFBBDE80840EF
:103A100000F056B8DC04001014050010A8040010D3
:103A2000084B1B68DA78012A0AD09A6A5B6A9A42C4
:103A300003D81268044B9A4202D0012000F0E4BA85
:103A4000704700BFDC040010A52E5AE208B50448F8
:103A5000FFF7C6FB034A02235060437008BD00BF56
:103A6000A8040010DC040010094B188868B1094A4A
:103A700013685BB1012302E052F8041F21B1013346
:103A80008342F9D9002070471846704701207047DB
:103A9000E08500001807001030B400240125817073
:103AA0004570047044608460C46004618482C48290
:103AB0000483448380F82040114630BC00F072BA81
:103AC000024B022258604270704700BFDC040010B5
:103AD00038B50446B0B10D4D8278286883789A4293
:103AE00007D80123637021460948BDE83840FFF735
:103AF0004DBBFFF789FB2B680121022259706C60D6
:103B0000627038BDBDE83840FFF7A0BFDC0400108C
:103B1000A804001038B50D4680B14FF6FF739842E7
:103B2000074C03D001462068FFF778FB236805485F
:103B30005D70FFF755FB02236060437038BD00BF26
:103B4000DC040010A8040010024B186800B1C07813
:103B5000704700BFDC04001038B548B9184C236822
:103B60009970184843689B788B421ED8002038BD56
:103B7000154B1B88984201D9FF2038BD134B0138E3
:103B800053F82050002DF7D00D4CA97023689D42AA
:103B9000E7D02846FFF7CEFB6B78012BE6D109482A
:103BA000FFF71EFBFFF794FFE0E72168FFF7EEFA4F
:103BB000236801225A70FFF749FF002038BD00BF7B
:103BC000DC040010A8040010E085000018070010B5
:103BD00070B5184C2568D0B1EB78834217D0164BDE
:103BE0001B88984201D9FF2070BD144D461E55F820
:103BF0002640002CF7D02046FFF782FB2046FFF737
:103C0000B3FB002345F826301846A36270BD00269A
:103C10006E7000F032F96862FFF702FF2368074A0E
:103C2000D9782660013942F821609E62FFF70EFFC5
:103C3000304670BDDC040010E0850000180700105D
:103C4000F8B5304B198839B100232F4A1846013393
:103C5000994242F8040FFAD82C4B2D4C1F882D4A5C
:103C6000002501232046FF262B496784E670A262C7
:103C700063702570A5706560A560E5602561A5820B
:103C8000E5822583658384F8205000F08BF9234B6F
:103C9000234A1E78DFF8A0E0224B23480227CEF803
:103CA000004067700421D670157055701970DD6082
:103CB0001D619D824560017000F0D6F91B4B1A68AA
:103CC00042F47F021A601B681B0203F07F43DB4350
:103CD000B3FA83F3164ADBB21268C3F10803C2F3E6
:103CE0000222934200DC531C6FF0807202FA03F34D
:103CF000104A03F07F43116821F07F410B431360AA
:103D0000F8BD00BFE085000014070010EE8500003C
:103D1000E40400101805001005400000F0850000C4
:103D200074070010C0040010A804001020ED00E08B
:103D30000CED00E01CED00E0DC04001008B5FFF71E
:103D400031FE0C4B0028186012DB00F16040FF22AE
:103D500000F5644002701B68012103F01F0201FAA4
:103D600002F25B119B0003F1604303F561431A60AB
:103D700008BD00BFD80400100321FFF7CBBE00BF71
:103D800010B50023044600F1080223726372A37287
:103D9000E37223736373A373E37323746374A37471
:103DA000E37440F8042FFEF74BFF206008B1204673
:103DB00010BD024800F0E4F9204610BD80850000E7
:103DC0000068FEF757BF00BF0068FEF75FBF00BF87
:103DD00010B504460068FEF765FF204610BD00BF21
:103DE000074B10B5036004464068FEF755FE94F893
:103DF00048301BB1606908B101F042FB204610BD9C
:103E0000D885000010B50446FFF7EAFF204601F010
:103E100033FB204610BD00BFF0B583B0124F089EA3
:103E2000099D0446816083810760066165B10023B6
:103E3000456180F84830114604F10800FEF712FE93
:103E40006060204603B0F0BD3046019201F02EFBC9
:103E5000019A606118B1012384F84830EBE7034808
:103E600000F08EF9019AF6E7D8850000A8850000D9
:103E7000FEF73CBE80F309887047EFF30980704776
:103E8000684680F3098841480078C00714BF0220C3
:103E9000032080F314887047DFF8F4C0EFF3058344
:103EA0001B0618BF6047EFF31483DB0708BF6047AA
:103EB00000DF7047DFF8DCC0EFF305831B0618BF97
:103EC0006047EFF31483DB0708BF604700DF7047EC
:103ED000EFF30980816911F8021CF9B990E80F101D
:103EE000E047EFF3098C8CE807002B4B93E80600C2
:103EF000914200F0108039B12CE9F00FC1F824C0D4
:103F00000CB4FFF78DFD0CBC1A60D2F824C0BCE8DD
:103F1000F00F8CF309886FF0020E704710B51F4A3E
:103F20001268914200F20A801D4C54F8214090E83A
:103F30000F10A047EFF3098C8CE80F0010BDFFF7BE
:103F4000F5FC154B93E80600914200F01180EFF369
:103F5000098C2CE9F00FC1F824C00CB4FFF760FD08
:103F60000CBC1A60D2F824C0BCE8F00F8CF30988AE
:103F70006FF0020E7047FFF735FDFFF7E2BFFFF766
:103F80002FFDFFF72FFDFFF7DCBF0000EC850000E1
:103F9000E1360000FD360000DC04001000000000E7
:103FA000FCFFFFFFF0B4458C866AAD0806EB850583
:103FB0006B0748BF043D4FF0807305E90A00A5F187
:103FC0004007A5F14403A5F10C04002243F8042F97
:103FD000A342FBD1C36945F8203CC3784762012B5B
:103FE00018BF034BC16218BF3360F0BC704700BFFD
:103FF000A52E5AE2436A1962704700BF436A1962EC
:104000005A627047FEE700BF00F080B800B9704701
:1040100000F07CB80449054AC1F1805303F5F84328
:104020009360D160704700BF18100010C8000010E6
:104030000020002104460D46094801F039FA01F03C
:1040400007FE20462946FEF771FCFFF7E3FF05480F
:104050000021FEF707FDFEF77DFC00F0A3F800004D
:10406000E5580000C8000010034A044B1168002204
:10407000D9801A60704700BFE8850000001000106A
:10408000104A08B5104B51681A688A4216D00F487A
:10409000DA880068013A024492B219609A8080B2CC
:1040A000904200D008BD002206481A60FFF798F839
:1040B000BDE8084001460348FFF768B803499A88FD
:1040C0000868ECE7A80400100010001014050010A8
:1040D0000C4A30B4936894681A46B4F1805F0CD2ED
:1040E000094A03F1C40553F8044BAB4242F8044FAC
:1040F000F9D1044B4FF080529A60103042F82010F2
:1041000030BC704700ED00E0FCFFFF0F00B599B038
:1041100072B61749684600F06FF806A8154900F016
:104120006BF80CA8144900F067F812A8134900F0C6
:1041300063F8039B019A0A981A60079B1099036021
:104140000D9B159A0B60139B9620136000F0A8F846
:10415000049B019A09981A60079B0F9903600D9BB5
:10416000169A0B60139B9620136000F099F8E0E715
:1041700032C0092034C0092035C0092037C00920C9
:104180000FB400B5064A83B004AB126853F8041BA1
:10419000D0681A46019302F07BFF012000F002F87C
:1041A000B80100100A4C08B523680546986801F06C
:1041B00093FA2368D86801F08FFA00F04FF820B91D
:1041C00005B9FEE7FFF7A2FFFBE700F049F8F7E7C4
:1041D000B801001038B50D46044600F0ADFA0135BF
:1041E00009D02046002100F0C7FA20460321BDE88F
:1041F000384000F0BDBA38BD38B50D46044600F071
:104200009BFA01350CD02369626820461A600121AF
:1042100000F0B2FA20460221BDE8384000F0A8BA0A
:1042200038BD00BF70B50D461646044600F084FA4E
:10423000013511D066B9236962681A6020460121F0
:1042400000F09AFA20460221BDE8704000F090BAD2
:10425000E36862681A60F1E770BD00BF00F00CB857
:1042600030B585B018246D4620462946ABBE0446BD
:10427000204605B030BD00BF024B186800F00100B9
:10428000704700BFF0ED00E038B5054600F0EAFEEB
:10429000044600F0E7FE001BA842FAD338BD00BF79
:1042A0004FF47A7303FB00F0FFF7EEBF002280E8C3
:1042B00006008261704700BF08B5036801460BB174
:1042C000984708BD406810B18B690831984708BD10
:1042D00000207047F8B58E18B1420F4605460FD042
:1042E0000C4601E0A64209D02B6828465B6A14F808
:1042F000011B98470130F5D1E01BF8BDF01BF8BD5C
:104300000020F8BDF8B58E18B1420F4605460FD013
:104310000C4603E004F8010BA64207D02B682846A0
:104320009B6A9847431CF5D1E01BF8BDF01BF8BD14
:104330000020F8BD00207047002070470020704723
:104340000020704710B5074B044603F108023C33C8
:1043500080E80C00406901F009F9204600F08AFF6E
:10436000204610BDF8850000A0F10400FFF7EABF69
:1043700010B50446FFF7E6FF204601F07DF8204621
:1043800010BD00BFA0F10400FFF7F2BF30B585B04B
:10439000044600F09FFF0C4B002503F108023C335C
:1043A00084E80C006561224601A8084901F08EFFEF
:1043B00001A8074901F0ECFA2946606101F0F6FE18
:1043C000204605B030BD00BFF885000040860000E3
:1043D0004486000010B50446406901F07DF960692B
:1043E000BDE8104001F0B6B9036870B51B69002143
:1043F000012204469847431C05460ED023682046F8
:104400001B690021022298472368064629461B693A
:10441000204600229847304670BD70BD084A094BBF
:1044200010B4026003F58071002453F8042B82421B
:1044300008BF43F8044C8B42F7D15DF8044B70473A
:10444000688600000C0200100A4A0B4B10B503F5F9
:10445000807104460260002053F8042B944208BF88
:1044600043F8040C8B42F7D1204601F005F82046B2
:1044700010BD00BF688600000C020010024803490E
:10448000034A00F0F1BC00BF0810001002C0092070
:1044900003C00920F0B50F4685B03749064601F044
:1044A000A8FF28B9354B1B68002B43D005B0F0BDE1
:1044B0003046334901F09DFF30B9304B1B68002B6B
:1044C00043D0012005B0F0BD30462E4901F091FFE8
:1044D000002835D02C4B002402E00134402C3DD084
:1044E00053F8045F002DF8D133783A2B3DD0314694
:1044F00002A800F003FF02A800F052FF00282DD010
:1045000002A800F035FF20BB02A800F025FF0546F9
:1045100020B3036802A89E6800F01CFF3A460146DB
:104520002846B0470346CBB1184AE01C42F8243075
:1045300005B0F0BD0190FFF7A1FF019805B0F0BDF7
:104540000E4B1B686BB10220B0E7FFF797FF01200D
:10455000ACE702A800F016FF0346E4E74FF0FF3097
:10456000A4E7FFF78BFF0220A0E73046084902AA24
:1045700001F0D0FE029BD6E7488600000C03001035
:104580005886000050860000080200100C0200103F
:1045900040860000022808B50BDD084BC21E53F808
:1045A0002200002143F8221028B103685B68984775
:1045B00008BD002008BD4FF0FF3008BD0C02001000
:1045C000022870B50C4616460FDC0E4B1B680BB963
:1045D000FFF754FFA51936B114F8011B0A4800F083
:1045E00093FBAC42F8D1304670BD084B033853F80A
:1045F000200018B103681B68984770BD4FF0FF306A
:1046000070BD00BF0C030010081000100C02001059
:10461000022810B50C4609DC0D4B1B688BB10D4808
:1046200000F026FB01232070184610BD0A4B03380A
:1046300053F8200040B103689B689847034618462A
:1046400010BDFFF71BFFEAE74FF0FF33ECE700BFB9
:104650000C030010081000100C020010022808B50E
:1046600008DD074B033853F8200028B10368DB68E6
:10467000984708BD012008BD4FF0FF3008BD00BFBE
:104680000C020010022808B508DD074B033853F868
:10469000200028B103681B69984708BD002008BDA9
:1046A0004FF0FF3008BD00BF0C020010022808B513
:1046B00004D84FF400534B60002008BD00F0FEFE0C
:1046C000092303604FF0FF3008BD00BF074A13689D
:1046D0001844EFF30881884202D2106018467047F0
:1046E000034B0C221A604FF0FF307047500100104E
:1046F000101000100649074A074B9A42BEBF51F8F6
:10470000040B42F8040BF8E70448804704480047CC
:1047100004900000C8000010CC010010B15000004F
:10472000C9010000FEE7FEE7FEE7FEE7FEE7FEE761
:10473000FEE7FEE7FEE7FEE738B504464B1C0D46F4
:10474000216014D00846002100F028F805F01F036E
:104750000120984025F01F0505F1180105F11C0204
:1047600005F11403A5606060E1602261636138BDFA
:10477000006800F02BB800BF41B1012905D1836862
:10478000426819680A431A60704770478368416835
:104790001A6822EA01021A60704700BF00F1604007
:1047A000A0F51C2000F00F035B0003229A40994003
:1047B00003099B0003F1804303F53033186820EAB6
:1047C00002021A601A6811431960704700F16040D4
:1047D000A0F51C2030B4C1F3800200F01F0402FADF
:1047E00004F443099B0003F1804303F530339D6ECD
:1047F00025EA04059D669D6E2C439C669AB900F0DF
:104800000F035B0003229A4001FA03F300098000C2
:1048100000F1804000F53030016C21EA02020264B0
:10482000026C1343036430BC704700BF08B5154ADF
:104830009368C3F34203012B1ED0022B19D1124BF4
:10484000596F01310AD0D3F88010986F086093F83F
:10485000A61019B9516821F001015160186F0A4B77
:1048600048B193F8A6302BB10021084A1368984745
:1048700008BD08BD08BD08BD034A106F0028F9D067
:104880001946F2E7008009401403001010030010DD
:1048900070B50368294CA34249D041DD284CA3429E
:1048A0002AD004F58044A34244D1264C08263ABBC2
:1048B00001290BD04568244AC5EBC50502EBC504A8
:1048C00094F8355094F83620EA4214D1012202FAC5
:1048D00001F5D1F1010138BF002102FA01F15C6854
:1048E00024EA05045C6003685B68194203D1B240A6
:1048F000164BC3F8802070BD154C0726002AD7D070
:10490000012505FA01F176B2304605FA06F65A6835
:104910000A435A602146FFF7DBFB0C4B1E6070BD5B
:10492000A4F58044A34205D10A4C0526BFE70A4CF2
:104930000626BCE700242646B9E700BF0000014078
:10494000008009405D4900001403001000E100E010
:104950002D480000C94900002D4A000008B5174A3B
:104960009368C3F34203012B21D0022B1CD1144BBB
:10497000D3F8AC1001310BD0D3F8B810D3F8B00095
:10498000086093F8DE1019B9516821F001015160F7
:10499000D3F8A8000A4B48B193F8DE302BB10021C0
:1049A000084A1368984708BD08BD08BD08BD044AF9
:1049B000D2F8A8000028F8D01946F1E700C0094055
:1049C000140300101003001008B5154A9368C3F3D0
:1049D0004203012B1DD0022B18D1124B5968013113
:1049E00009D019699868086093F8361019B95168A8
:1049F00021F00101516018680A4B48B193F8363034
:104A00002BB10021084A1368984708BD08BD08BDAE
:104A100008BD044A10680028F9D01946F2E700BF23
:104A200000C00040140300101003001008B5154A20
:104A30009368C3F34203012B1DD0022B18D1124BF4
:104A4000D96B013109D0996C186C086093F86E101D
:104A500019B9516821F001015160986B0A4B48B1B6
:104A600093F86E302BB10021084A1368984708BDAF
:104A700008BD08BD08BD044A906B0028F9D019464E
:104A8000F2E700BF00000140140300101003001003
:104A90002DE9F00F8AB00890714B00689842099098
:104AA00000F0CF8040F3BA806E4B099A9A4200F032
:104AB000908003F580439A420CD16B4BD3F8AC2124
:104AC00022F44022C3F8AC21D3F8AC2142F4802276
:104AD000C3F8AC21654B0A011B680593059CB3FB29
:104AE000F2F302FB13429BB20193002A00F0948080
:104AF0006000A2004FF00109002307900692804653
:104B00009346CDF80C900491A2468C460293002265
:104B1000049C10465FFA89F7B8F1000FB5BFB8FBE7
:104B2000F4F3BBFBF4F31B095B090133C3F34F033D
:104B300002EB0906002B5AD1012300285BD103FBAD
:104B400006F5ED00BAFBF5F50135C1EB5505002D75
:104B5000B8BF6D42654505DA8D424ED0AC46029035
:104B6000019303970132D0B287420C44D4D8B9F1F3
:104B70000F0F4FF0000349D0059A079C9244049A06
:104B800006980A4409F10109A04483440492002BC9
:104B9000BDD0029B039C43EA0410C0B2099A019C59
:104BA000137BC4F3072143F080031373089A13683F
:104BB000E2B2089C197123681A70236883F82800F0
:104BC00023681A7B02F07F021A730AB0BDE8F00F67
:104BD0007047254BD3F8AC2122F44032C3F8AC2106
:104BE000D3F8AC2142F48032C3F8AC2172E700283C
:104BF000A5D0012BA3D80223A1E7B9F10F0F019390
:104C0000039702908C464FF00103B5D1029C0399A3
:104C100044EA0110C0B2C1E71020BFE7A3F580430A
:104C200098427FF457AF104BD3F8A82122F0C0026E
:104C3000C3F8A821D3F8A82142F04002C3F8A82164
:104C400048E7094BD3F8A82122F44072C3F8A82101
:104C5000D3F8A82142F48072C3F8A8213AE700BF34
:104C6000000001400080094000C00F4054010010C6
:104C70000268137DDB07FCD543680949C3EBC30316
:104C800001EBC303596810780131C0B207D05969EC
:104C900004335B680B60536843F001035360704753
:104CA000140300104368174AC3EBC303DB00D11899
:104CB00010B4CC69013411D00A6B01F11C035B689C
:104CC00012681A4203D000205DF8044B7047036855
:104CD0005DF8044B187DC0F38010704703681B7D9E
:104CE0009B0608D491F834005DF8044B0F288CBF64
:104CF000002001207047002381F8343001205DF846
:104D0000044B70471403001038B504460D46204686
:104D1000FFF7C8FF0028FAD02368EDB21D70626863
:104D2000054BC2EBC20203EBC20393F834200132FD
:104D300083F8342038BD00BF140300102DE9F04F74
:104D40000446454D006883B0A8420E4690469946F9
:104D500043D06568002301932A46DFF808A1EF00DD
:104D6000C2EBC202781B4FF0000E0AEBC0000AEB48
:104D7000C20C4FF0FF33C361436071467246204658
:104D80008CF835E0FFF784FD16B903B0BDE8F08F6D
:104D90003249404600F01AFA31498346484600F04D
:104DA00015FAB21E012A38D9012EEED1B8F1FF3F13
:104DB000EBD02949226807208B45107215D1019B41
:104DC0009BB11B7C019A254943F040034046137474
:104DD00003B0BDE8F04F00F0C7B9037C656803F08D
:104DE0003F03037462680190B7E77D1B0AEBC500BF
:104DF000414604300022FFF715FA62680125C2EB34
:104E0000C2020AEBC20320462A46002183F835502D
:104E100003B0BDE8F04FFFF73BBDB9F1FF3F09D04C
:104E20000D4A90420CD0781B0AEBC00049461C305A
:104E3000FFF7D0F9032EA8D1B8F1FF3FB9D1A4E70D
:104E4000019B002BEFD01A7C484642F080021A7476
:104E5000034900F089F9EDE7000001409C8600005D
:104E600098870000140300102DE9F04105460F4615
:104E700008465949164600F0B7F9584904463046E5
:104E800000F0B2F90146204600F08EF9544B04467A
:104E9000984228607FD06FD9524B98424BD003F58F
:104EA0008043984206D1504BD3F8C42042F00072A0
:104EB000C3F8C420012323722B684FF00008C3F805
:104EC000048028464FF41651FFF7E2FD2B680322B9
:104ED0001A733846404900F047F930463F4900F020
:104EE00043F97A1C03D038464146FFF76FFC731C28
:104EF00003D030460021FFF769FC394B9C4247D074
:104F000021D9384B9C4263D003F580439C424AD15F
:104F100003236B603549C3EBC3034FF0FF342846CE
:104F200001EBC305224623466C60EC610021BDE81D
:104F3000F041FFF703BF2C4BD3F8C42042F080723E
:104F4000C3F8C420B6E7A3F580439C422BD1274E7B
:104F50004FF0FF34002169602246234628467460E2
:104F6000F461FFF7EBFE224B01221A6028686968A2
:104F7000204B03C3BDE8F081A3F58043984299D14B
:104F8000194BD3F8C42042F00802C3F8C42091E7BB
:104F900001236B60BEE7144BD3F8C42042F010022B
:104FA000C3F8C42086E76B681049C3EBC3034FF016
:104FB000FF3601EBC30732463346284600217E60A8
:104FC000FE61FFF7BBFE0C4B9C42CCD0BDE8F081EC
:104FD00002236B609EE700BF2C870000C0860000A4
:104FE000000001400080094000C00F401403001081
:104FF0000C0300100810001000C00040134A38B520
:1050000013680BBB12490124D1F8C4501460114A33
:10501000114845F40005C1F8C4501367036801F155
:10502000437101F5F45103319B08A1FB03039B0C71
:10503000013B022151600420D36008495460FFF70E
:1050400047F8074B10221A6038BD00BFF403001068
:1050500000C00F4000400940540100101D520000E4
:1050600000E100E008B5044B1B680BB9FFF7C6FF71
:10507000024B986808BD00BFF403001000400940CF
:10508000034B98615A6942F001025A61704700BFB0
:1050900000400940024B5A6922F001025A617047F0
:1050A00000400940014B01221A607047004009404E
:1050B0002B4A202370B4C2F8A031D2F8A031980650
:1050C00045D4274B022100250124AA2055220B2676
:1050D000C3F80411C3F8A8511946C3F8AC51C3F87A
:1050E0000C41C3F88460C3F88C00C3F88C20C3F86B
:1050F0008040C3F88C00C3F88C20D1F88830184A5F
:105100005B01FAD50321AA205523C2F88010C2F80A
:105110008C001146C2F88C30D1F88830104A13F058
:10512000407FF9D00F4900230520C2F80801C2F8DA
:10513000C410C2F8C831136870BC23F4704323F064
:105140003A0343F4405343F03A0313607047D2F8F4
:10515000A0315906B5D4D2F8A0315906F7D5B0E739
:1051600000C00F40DE872804431C10B5044618D049
:105170000B68581C04D10FE051F80C3F5A1C0BD09F
:105180009C42F9D120468968FFF708FB204602219E
:10519000BDE81040FFF71ABB0248BDE81040FEF71B
:1051A000EFBF10BDBC870000884208B50AD0431C81
:1051B00007D0013106D00448FEF7E2FF4FF0FF3080
:1051C00008BD084608BD00BFD08700000B685A1C08
:1051D00004D107E051F80C3F5A1C03D08342F9D1A7
:1051E000486870471846704708B5431C0CD00B68D8
:1051F0005A1C04D109E051F80C3F5A1C05D09842C2
:10520000F9D14868411C00D008BD0348FEF7B8FF3B
:105210004FF0FF30F8E700BFE4870000F8B5FFF774
:1052200041FF124E124F3368ABB1D3E90045FFF78F
:1052300019FF221A65F1000310461946012871F181
:1052400000030CDA31683A68CB683360002AEBD08F
:1052500088689047E7E7BDE8F840FFF71BBF336871
:10526000D3E90001BDE8F840FFF70ABFF8030010DA
:10527000FC03001010B5074B044603F10802343359
:10528000226040F8043F00F091F82046FFF7C6F88E
:10529000204610BD08880000A0F10400FFF7EABF17
:1052A000094B10B503F1080204463433226040F87C
:1052B000043F00F07BF82046FFF7B0F8204600F0EE
:1052C000DBF8204610BD00BF08880000A0F10400F4
:1052D000FFF7E6BF074B10B50022044640F8043B39
:1052E00000F09AF8044B204603F10802343384E8B6
:1052F0000C0010BD688600000888000038B5002347
:10530000036043600A7804462F2A01D0204638BD46
:105310004A78002AFAD0481C20604A782F2A14D0F4
:10532000B2B18D1C194600E052B125602A782B4697
:105330002F2A01F1010105F10105F5D101332360A7
:1053400000F07EF86060204638BD19460346F5E758
:105350001146F5E70068704710B50446406828B16B
:1053600000F088F8012801D1606810BD002010BD50
:10537000406808B528B100F07DF8D0F1010038BFD1
:10538000002008BD10B50446406830B100F072F846
:1053900018B9606808B1043810BD002010BD00BF06
:1053A0004068003018BF0120704700BF094A836879
:1053B000026053B1084B1A68824201D106E01A46D6
:1053C00053688342FBD143685360704742681A6058
:1053D000704700BF50880000000400100C4A83682A
:1053E00010B50446026053B10A4B1A68904201D1CD
:1053F0000AE01A4653689C42FBD16368536020461A
:1054000000F03AF8204610BD42681A60F7E700BF86
:105410005088000000040010074B10B400240273F1
:10542000816080E8180019B1044B1A681860426066
:105430005DF8044B704700BF508800000004001066
:10544000F8B50B4B07461C680E467CB1A56839467B
:10545000324628463DB101F0ADF920B9284601F0A9
:10546000A1F9B04202D06468002CEFD12046F8BD0B
:1054700000040010007B704708B1FAF7C5BE704702
:10548000FFF7FABF10B5002814BF044601242046D8
:10549000FAF7B4FE30B9044B1B680BB9FAF7BAFE41
:1054A0009847F4E710BD00BF04040010FFF7EABFFF
:1054B000014600200246034602F0A8B9014B1868D5
:1054C000704700BFB801001070B505460C4609B919
:1054D000002070BD18B183690BB900F097F9204B1B
:1054E0009C4201D16C6808E01E4B9C4201D1AC6823
:1054F00003E01D4B9C4208BFEC68B4F90C30002B54
:10550000E6D02846214600F0BDF8236B064633B1AD
:105510002846216A98470028B8BF4FF0FF36A38974
:105520001B0603D52846216900F034FC616B41B1AC
:1055300004F14403994202D0284600F02BFC0023DA
:105540006363A16C21B1284600F024FC0023A3640E
:1055500000F0C6F90023A38100F0C3F9304670BD06
:10556000588800007888000098880000024B0146A7
:105570001868FFF7A9BF00BFB80100108A892DE99C
:10558000F041054610070C4657D44B68002B02DC4F
:105590000B6C002B18DDE66AB6B102F480520023D2
:1055A00092B22F682B600AB1626D10E0216A284622
:1055B0000123B047411C024609D12B683BB11D2B8A
:1055C00001D0162B46D12F600020BDE8F081A389C1
:1055D0005B0705D56368D21A636B0BB1236CD21AD3
:1055E000E66A2846216A0023B047461CA28905D1F5
:1055F0002B681BB11D2B01D0162B19D10023636022
:105600002369D104236004D5421C01D12B6803B95E
:105610006065616B2F600029D6D004F14403994284
:1056200002D0284600F0B6FB00206063BDE8F081A0
:1056300042F04002A281BDE8F0810E69002EC3D085
:105640000B680E60C6EB030893070CBF4B69002381
:105650008B6012E0A3894FF0FF3043F04003A38139
:10566000BDE8F081A76A2846216A32464346B8471A
:105670000028EFDD0644C0EB0808B8F1000FF1DCAC
:10568000A2E7000038B50B6905460C46DBB118B13E
:1056900083690BB900F0BAF80C4B9C4201D16C68DD
:1056A00008E00B4B9C4201D1AC6803E0094B9C42E3
:1056B00008BFEC68B4F90C302BB128462146BDE890
:1056C0003840FFF75BBF002038BD00BF588800009E
:1056D0007888000098880000014620B9044B0549ED
:1056E000186800F097BA044B1868FFF7CBBF00BFEB
:1056F000BC88000085560000B801001038B50C4683
:10570000054618B183690BB900F080F80E4B9C4236
:1057100001D16C6808E00D4B9C4201D1AC6803E0FC
:105720000B4B9C4208BFEC686368013B002B636035
:1057300005DA28462146BDE8384000F0FBBC236866
:105740005A1C2260187838BD5888000078880000FC
:1057500098880000024B01461868FFF7CFBF00BFD2
:10576000B8010010F8B5074600F1480494B1A568E7
:105770006668013E0CD4AB89012B07D9B5F90E3010
:10578000013303D038462946FFF77CFF6835F0E740
:105790002468EBE7F8BD0000002310B50446036061
:1057A0004360836081814366C28103614361836199
:1057B00019465C30082200F0E4FA054B246263626B
:1057C000044BA362044BE362044B236310BD00BF90
:1057D000696300008F630000C7630000EB63000093
:1057E00070B54B1E68255D430E4605F1740100F04F
:1057F00015FB044640B1002180E842000C30A06057
:1058000005F1680200F0BDFA204670BD836910B54D
:10581000044633BB8364C3640365124B124A1B689E
:105820008262984204BF0123836100F01FF8606028
:10583000204600F01BF8A060204600F017F8042175
:10584000E06000226068FFF7A7FFA068092101223D
:10585000FFF7A2FFE06812210222FFF79DFF01235C
:10586000A36110BDBC88000065570000F8B51B4B54
:1058700007461E68B36913B93046FFF7C7FF4836BD
:10588000B4687368013B04D4B4F90C5075B1683442
:10589000F8E733682BB938460421FFF7A1FF3060E1
:1058A00008B13668ECE70C233B60F8BD4FF6FF7398
:1058B000E3810123A38165662560A560656025619C
:1058C0006561A56104F15C002946082200F059FADF
:1058D0006563A563A564E5642046F8BDBC88000047
:1058E0007047704738B5084D084C641BA41005EB91
:1058F000840524B155F8043D013C9847F9E7BDE81B
:10590000384002F0EBB900BFC8010010CC01001014
:10591000F7B50F46114601AA054601F0E3FF06461A
:1059200008B9002029E02846FFF7A0FF0446002818
:10593000F7D028463946019A4FF4DB7300F0C2FADB
:10594000002806DA0025FFF7CBFFA581FFF7C9FF86
:10595000E7E70B4BE08163620A4BA681A3620A4B27
:105960002462E362094B2363F30505D528462146EB
:105970000022022300F0A2F8204603B0F0BD00BFD1
:10598000696300008F630000C7630000EB630000E1
:105990000A460349034608681946FFF7B9BF00BF26
:1059A000B801001070B50E461446054618B183695B
:1059B0000BB9FFF72BFF0A4B9C4208BF6C6808D05D
:1059C000084B9C4208BFAC6803D0074B9C4208BF01
:1059D000EC68284631462246BDE8704000F0CABA5D
:1059E0005888000078880000988800000A4603491B
:1059F000034608681946FFF7D5BF00BFB80100107D
:105A000070B50E461446054618B183690BB9FFF709
:105A1000FDFE224B9C4201D16C6808E0204B9C4269
:105A200001D1AC6803E01F4B9C4208BFEC68A3891E
:105A30001A0701D523699BB92846214601F078FE53
:105A400070B14FF0FF3070BDA368013B002BA36025
:105A50000BDB236816F8012C1A70236801332360CE
:105A600016F8010B0028EFD117E0A269934209DB79
:105A7000236816F8012C1A70236819780A29EDD1C9
:105A8000284602E016F8011C2846224601F0EAFDED
:105A9000B0F1FF3358425841D2E770BD588800003A
:105AA00078880000988800000A4603490346086881
:105AB0001946FFF7A5BF00BFB801001000F000B8FD
:105AC0002DE9F8430C4691461E46054618B18369F8
:105AD0000BB9FFF79BFE3E4B9C4201D16C6808E07E
