:1000000000200010C1000000B90D0000BB0D000071
:1000100000000000000000000000000000000000E0
:10002000000000000000000000000000BD0D000006
:100030000000000000000000BF0D0000C10D000026
:10004000C30D0000C30D0000C30D0000C30D000070
:10005000C30D0000C30D0000C30D0000C30D000060
:10006000C30D0000C30D0000C30D0000C30D000050
:10007000C30D0000C30D0000C30D0000C30D000040
:10008000C30D0000C30D0000C30D0000C30D000030
:10009000C30D0000C30D0000C30D0000C30D000020
:1000A000C30D0000C30D0000C30D0000C30D000010
:1000B000C30D0000C30D0000C30D0000C30D000000
:1000C0000749084A084B9B1A05DD002408591051BE
:1000D00004349C42FADB054880470548004700008D
:1000E00040410000C000001044010010F500000075
:1000F000D104000010B5344B8E2292009958202074
:100100008143995082B000221A620192019BC72B51
:1001100006D8C046019B01330193019BC72BF8D938
:10012000294801230022036401214364426443649B
:10013000436C254A1942FBD0232393608E239B00F6
:10014000D15880208143D150141C0120E3681E4AFD
:1001500001211842FAD00323136700235167141CAE
:10016000536701205167636F174A01211842FAD083
:100170008E2391679B00D45814482040D050D45807
:1001800013482040D050002391640120D164D364EF
:10019000D164D36C0C491842FBD023230B6101209E
:1001A0004B69094A1842FBD0C0230021D150D150DD
:1001B000C8230121D1508023D05880214902014316
:1001C000D15002B010BDC04600800440FFFBFFFFCD
:1001D000FFFEFFFF00000000000000000000000024
:1001E000000000000000000000000000000000000F
:1001F00000000000000000000000000000000000FF
:1002000010B5064C2378002B07D1054B002B02D0EC
:10021000044800E000BF0123237010BD440100101A
:10022000000000003C41000008B5084B002B03D043
:100230000748084900E000BF07480368002B03D0C7
:10024000064B002B00D0984708BDC04600000000B8
:100250003C41000048010010440100100000000073
:1002600010B5034B041C036000F086FA201C10BD7F
:10027000103E000010B5054B041C036000F07CFA32
:10028000201C01F086F9201C10BDC046103E000065
:1002900030B5624889B001F067FF614801F064FF42
:1002A000604801F061FF604D6049281C01F022FCAC
:1002B000041E00D1ABE05E4801F056FF201C5D49F2
:1002C00001F024FC002800DA8FE05B4801F04CFFCD
:1002D000201C01F037FA002863D1584801F044FF90
:1002E000281C574901F006FC041E00D183E0554844
:1002F00001F03AFF201C54496A4601F019FC013014
:1003000000D16CE06946514801F0B2FE68465049A0
:1003100001F0BCFF00285CD14E4801F025FF201CF5
:100320000021022201F01AFC00284CD1201C01F00F
:10033000BBFC0C2804D048484849502200F002F980
:10034000474801F011FF201C01F0FCF9002834D1CE
:10035000444801F009FF281C00F0D6FC002826D1F3
:10036000414801F001FF414800F0E6FC041E48D07E
:100370003F4801F0F9FE3F4D02E0281C01F078FEF5
:10038000201C00F0F9FC011EF7D13B4801F0ECFE07
:10039000201C00F0F7FC394801F0E6FE002009B00F
:1003A00030BD37482D492F2200F0CCF895E735486D
:1003B0002A49602200F0C6F8D2E73148274957227F
:1003C00000F0C0F8C4E7304824494B2200F0BAF8E6
:1003D000ACE72E482149442200F0B4F89CE72C48B1
:1003E0001E493F2200F0AEF88CE72A481B4928221C
:1003F00000F0A8F869E728481849382200F0A2F868
:1004000075E7264815496F2200F09CF8B0E72248AE
:100410001249212200F096F84DE7C046343A000018
:10042000503A00006C3A0000883A0000983A000008
:10043000C03A0000D43A0000003B0000403B0000FE
:100440005C3B0000603B0000743B0000983B0000F8
:10045000BC3B0000EC3B0000543C0000B43A000000
:100460008C3C0000AC3C0000DC3C0000F03C000098
:10047000143D0000B43B0000383D00004C3D00003E
:10048000243B0000C03C00002C3C0000C43B0000AA
:100490007C3B0000E43A00009C3A0000F83C00007D
:1004A00010B5064C0649201C00F080F9054B201CB5
:1004B0000549064A236001F065F810BD600100108F
:1004C000603D0000103E000061020000C00000100E
:1004D0000748084A08B5121A002101F010FD00E093
:1004E00000BF01F079FCFFF7D3FE00F03DF8C046F5
:1004F000440100109C02001008B50123022802DD0F
:1005000000F0CAFB031C181C08BDC04608B5EFF379
:100510000583002B00D000BE01F0D4FC08BDC0460E
:1005200008B5EFF30583002B00D000BE01F0D4FC2A
:1005300008BDC04608B5012000F016F808B5FFF761
:10054000F9FFC0460FB400B583B004AA08CA054B32
:1005500004991B680192D86802F068FA012000F043
:1005600003F8C0463001001038B50B4C051C236859
:10057000986801F0A7F92368D86801F0A3F900F0A2
:100580000DF8002805D1002D00D1FEE700F066FD32
:10059000FBE700F085F8F6E73001001008B500F041
:1005A0008BF808BD30B585B00190029101F078FE5E
:1005B00001ACA0600125281C211CABBE041C201C22
:1005C00005B030BD30B583B0019001AD0224201CD0
:1005D000291CABBE041C201C03B030BD30B5002468
:1005E00085B0002A08D001AC01906160A2600525A9
:1005F000281C211CABBE041C201C05B030BDC0460D
:1006000030B585B001AC0190029103920625281CFB
:10061000211CABBE041C201C05B030BD30B583B01E
:10062000019001AD0924201C291CABBE041C201C18
:1006300003B030BD30B583B06C46009001910A25FF
:10064000281C211CABBE041C201C03B030BDC046BE
:1006500030B583B0019001AD0B24201C291CABBE2A
:10066000041C201C03B030BD30B583B0019001AD37
:100670000C24201C291CABBE041C201C03B030BD64
:1006800030B583B0009001F00BFE6C4601900E2552
:10069000281C211CABBE041C201C03B030BDC0466E
:1006A00030B585B06D461824201C291CABBE041C37
:1006B000201C05B030BDC046014B18687047C046CD
:1006C000C4000010012040427047C0467047C04639
:1006D000014B03607047C046703D0000012040425E
:1006E0007047C046012040427047C0460020704716
:1006F000012040427047C04608B5002802D0036878
:100700009B699847002008BD40687047416070476A
:10071000002343607047C046014B03607047C046EA
:10072000703D000010B5034B041C036000F031FF66
:10073000201C10BD703D000010B5034B041C03606D
:1007400000F027FF201C10BD703D000010B5041CF8
:10075000406800F08FFD00280CD0636801336360AF
:1007600000F09CFD0834011CFF22201C01F0B5FDA7
:10077000201C10BD0020FCE710B5044B041C0833FE
:10078000036000F00BFD201C10BDC046B83D00000A
:1007900010B5054B041C0833036000F0FFFC201C5F
:1007A00000F0F7FE201C10BDB83D000010B501227E
:1007B000041C00F02DFD024B201C0833236010BDEB
:1007C000B83D0000842010B5400000F0E9FE064B63
:1007D000802203600023041C436000215200083083
:1007E00001F08DFB201C10BD983D000008B50028CD
:1007F00002D003689B699847002008BD942300221B
:100800005B00C2507047C04694235B00C0587047DD
:1008100094235B00C1507047014B03607047C04692
:10082000703D000010B5034B041C036000F0B1FEE6
:10083000201C10BD703D000038B5041C4068FFF757
:10084000C1FE051C002C03D02368201C1B6A98479E
:10085000281C38BD38B5041C00234068151CFFF760
:10086000BDFEA268281A1318A36038BD38B5041C51
:1008700000234068151CFFF7C3FEA268281A13184E
:10088000A36038BD08B54068FFF7C8FE08BDC04684
:1008900008B54068FFF7E8FE08BDC04638B5051C3E
:1008A0000C1C012A08D0022A09D06868211CFFF715
:1008B000C1FEAC60201C38BD8368CC18F5E74068E9
:1008C000FFF7D2FE2418F0E708B54068FFF7C0FE36
:1008D00008BDC0469E2010B5400000F061FE0E4BE2
:1008E0008022041C002108C0520001F008FB822273
:1008F00000235200A350621DFF32201C53609360FE
:10090000D360136153619361D36113625362936245
:10091000D3621363536310BDE83D000008B5081CA3
:10092000FFF7AEFE08BDC04610B5044B041C0833EB
:10093000036000F091F8201C10BDC046303E00005E
:1009400010B5054B041C0833036000F085F8201C2B
:1009500000F01FFE201C10BD303E0000F0B50F4B14
:1009600085B0451D00930123FF350193802738236F
:10097000061C6C46029503937F00381C211CABBEFD
:10098000041C002C08D10436301C291C202201F044
:10099000ADFA301C05B0F0BD0020FBE7603E000062
:1009A000820704D50A2302070CD5181C7047C30719
:1009B00004D504230207F8D50823F6E7431E98411F
:1009C0004342F2E702234205EFD50623EDE7C04696
:1009D00038B50B780D1C002B09D02F2B1DD00B1C0C
:1009E00001E02F2C19D001331C78002CF9D1101CF8
:1009F000FFF7D6FF011C431C0FD0281CFFF7D2FDC8
:100A0000041C431C09D00C2000F0CAFD044B4460B8
:100A1000083303600023836000E0002038BDC04637
:100A2000303E0000036870B51B6900210122041CE0
:100A30009847051C431C0DD0236800211B69022226
:100A4000201C98472368061C1B69201C291C0022B7
:100A50009847301C70BDC046094B10B50833036081
:100A6000084B00215A1CFF3202E00433934206D0A7
:100A70001C688442F9D1196004339342F8D110BD47
:100A8000803E0000700100100C4B10B5083303606D
:100A90000B4B041C5A1CFF32002102E0043393422A
:100AA00006D018688442F9D1196004339342F8D112
:100AB000201C00F06EFD201C10BDC046803E0000D2
:100AC0007001001008B503481321122200F038FA13
:100AD00008BDC04690020010F0B5474680B40E1C19
:100AE00082B03449051C01F0D1FB041E08D1324B01
:100AF0001B68002B0FD0201C02B004BC9046F0BD38
:100B0000281C2E4901F0C2FB002807D12A4B0124E2
:100B10001B68002BEFD1FFF7D5FFECE7281C284915
:100B200001F0B4FB002830D0264F00243B1C03E02A
:100B300001340433402C32D01A68002AF8D12B78C3
:100B40003A2B2FD06846291C00F0ACFB684600F019
:100B500001FC002823D0684600F0E0FB00281AD1F1
:100B6000684600F0CDFB051E19D0036868469A68F8
:100B7000904600F0C3FB321C011C281CC047002813
:100B80000DD0A300F8500334B5E70B4B02241B68CB
:100B9000002BB0D1BFE7684600F0CCFBEFE70124A3
:100BA0006442A8E7281C08496A4601F0F9FA00984F
:100BB000E5E7C046643E000070020010743E00008D
:100BC0006C3E000070010010B03E000008B500232C
:100BD00002280ADD0338074A810088588B50002814
:100BE00005D003685B689847031C181C08BD0123E7
:100BF0005B42FAE770010010F8B50C1C171C0228C4
:100C000012DC104B1B68002B01D1FFF75BFF002F9C
:100C100008D00D4DE6192178281C013400F0F6F9B2
:100C2000B442F8D1381CF8BD0338084B8000C058D6
:100C3000002803D003681B689847F4E7012040426E
:100C4000F1E7C04670020010900200107001001021
:100C500010B50C1C022809DC0C4B1B68002B0FD0B4
:100C60000B4800F0CBF92070012010BD0338094B70
:100C70008000C058002806D003689B689847F4E7B6
:100C8000FFF720FFECE701204042EEE77002001082
:100C9000900200107001001008B5031C0120022B07
:100CA00008DD033B054A9B009858002803D00368E1
:100CB000DB68984708BD01204042FBE77001001047
:100CC00008B5031C0020022B08DD033B05489B00F0
:100CD0001858002803D003681B69984708BD0120F5
:100CE0004042FBE77001001008B5022804D88023B9
:100CF0009B014B60002008BD00F0C6FC0923036087
:100D000001204042F7E7C04630B583B0011C684679
:100D100000F0C8FA684600F0F3FA041E09D0036830
:100D20006846DD6800F0EAFA011C201CA84703B001
:100D300030BD01204042FAE730B5037883B0011C92
:100D40002F2B11D0684600F0ADFA684600F0D8FAB3
:100D5000041E0FD0036868465D6900F0CFFA011CDD
:100D6000201CA84703B030BD4378002BEAD1FFF721
:100D700029FDF7E70020F5E708B503685B689847A9
:100D800008BDC04608B503681B68984708BDC04643
:100D9000074A13681818EFF30881884202D21060DE
:100DA000181C7047034B0C2201201A604042F8E7E0
:100DB000C800001098020010FEE7FEE7FEE7FEE71D
:100DC000FEE7FEE7F0B544465F4656464D46F0B4B2
:100DD000594A8DB08846982301210B90D150574B2A
:100DE00041461B680C01181C211C089300F0ECFB09
:100DF00080B20490211C089800F02AFC10200029E1
:100E000067D0089CC34664000A94089CA400099417
:100E100044460794099C03940A9C0094089C0294FD
:100E200001240194069400240594019C079FE4B2D8
:100E3000A24600250026009C002C69DB0398391C83
:100E400000F0C2FB019C6419A14644090134640806
:100E5000A4B2002C55D102210224002E01D101247C
:100E6000211C4A4651430298C90000F0ADFB0130F5
:100E700040084346C01AC11740184840584506DA92
:100E8000404551D053468346069305960494013558
:100E9000EEB24744B245CED80023019C0F2C14D0AB
:100EA000029C0899079A64180294019C0A990134DB
:100EB0000194009C641800940999039C641803949D
:100EC000141C44440794002BAFD0069C2001059CC1
:100ED00020430B9C80222368049CD9681143D9606D
:100EE000210A89B25960FF21214019609862D968AE
:100EF0009143D9600DB03CBC90469946A246AB46A2
:100F0000F0BD002EACD0012CAAD802210224A8E703
:100F10000098391C00F058FB019C6419A146040993
:100F200001346408A4B294E75246C346069205967B
:100F300004940123B1E7C04600800440CC000010B7
:100F4000F8B5284B4F464646C0B4041C0F1C081C7D
:100F5000191C161C994600F0F5F8234B051C191CAA
:100F6000301C984600F0EEF8011C281C00F0D8F860
:100F70001E4A80232060051C8021D058490101436E
:100F8000D1500123AB60962100236B60201C8901A6
:100F9000FFF718FF23680322DA60381C494600F087
:100FA000A3F8301C414600F09FF87B1C03D0381C8E
:100FB000022100F039FA731C03D0301C022100F02A
:100FC00033FA0B4B9D4209D100236360094B012288
:100FD0001A600948211C082200F088FF0CBC9046CA
:100FE0009946F8BDF03E0000C03E0000008004407D
:100FF0000080004070020010900200100268012181
:1010000053691942FCD010687047C046026820201E
:1010100053691842FCD011607047C0460C4B032244
:101020001B6830B51340012B0CD08023094C5B05A5
:10103000F0252D065A19126804C3A342F8D1044BB7
:1010400001221A60044B8000C018016030BDC04608
:1010500000800440C00000104000001000B599B0AE
:1010600072B62821684600F02BF806A8292100F066
:1010700027F80CA82A2100F023F812A82B2100F051
:101080001FF8039B019A96201A60079A0A9B1A6020
:101090000D9A109B1A60139A159B1A6000F076F84F
:1010A000049B019A96201A60079A099B1A600D9A70
:1010B0000F9B1A60139A169B1A6000F067F8E0E71E
:1010C00038B50D1C041C00F05FF901350AD0236906
:1010D0006268201C01211A6000F07EF9201C0021AA
:1010E00000F074F938BDC04610B5041C421C03D191
:1010F00009E09C4208D00C310023CB565A1CF8D191
:101100000648FFF71FFA10BD201C896800F074F92B
:10111000201C002100F088F9F5E7C046203F0000C0
:1011200008B5884208D0431C07D0013104D00448D8
:10113000FFF708FA0120404208BD081CFCE7C04642
:10114000343F0000021C08B5531C03D10BE09A4247
:101150000AD00C310023CB56581CF8D10448FFF7B5
:10116000F1F90120404208BD4868431CFBD1F5E776
:10117000483F000038B5051C00F0A6F9041C00F03B
:10118000A3F9031BAB42FAD338BDC04608B5FA2316
:101190009B005843FFF7EEFF08BDC0460A4B82682C
:1011A00008330360002A0AD0084B1A68824201D132
:1011B00006E01A1C53688342FBD1436853607047B2
:1011C00042681A60FBE7C046683F000074020010E6
:1011D0000D4B8268083310B5041C0360002A0AD046
:1011E0000A4B1A68904201D10AE01A1C53689C42CB
:1011F000FBD163685360201C00F0CBF9201C10BDAC
:1012000042681A60F7E7C046683F000074020010A9
:10121000064B81600833036000234360027300299A
:1012200003D0034B1A68186042607047683F0000A3
:1012300074020010F8B50E4B071C1C680E1C002C25
:1012400011D0A568002D0BD0281C391C321C01F0D0
:101250002EF8002804D1281C01F022F8B04204D056
:101260006468002CEDD10020F8BD201CFCE7C046CE
:1012700074020010084B1B68002B09D0002809D00D
:10128000002201E0904205D05B680132002BF9D1C9
:1012900000207047181CFCE774020010806870473B
:1012A000007B704738B50023036043600B78041C53
:1012B0002F2B01D0201C38BD4B78002BFAD0481CB6
:1012C00020604B782F2B14D0002B15D0031C01E08D
:1012D000002A0CD05D1A013323601A782F2AF7D127
:1012E000291C01332360FFF7A5FF6060E2E7291C9A
:1012F000F9E7031C0021F4E70021F4E700687047D8
:1013000010B5041C4068002805D0FFF7C9FF01286C
:1013100001D1606810BD0020FCE7C046406808B5F8
:10132000002805D0FFF7BCFF43425841C0B208BDBA
:101330000020FCE710B5041C4068002808D0FFF727
:10134000AFFF002804D16068002801D0043810BD28
:101350000020FCE74068431E9841C0B27047C04679
:1013600010B5002806D0C4B2231C0A3B052B02D9B5
:10137000002101E00024012100F03EF81F2004407C
:101380000120A04010BDC04638B5041C0D1C2170C2
:101390004A1C11D0081CFFF7E3FF6D09074AAD0096
:1013A000AB18074AE360AB18064A2361AB186361C8
:1013B000054B6060ED18A56038BDC04600220050A6
:1013C00080220050002100500020005008B5007815
:1013D00040B200F029F808BD002907D0012904D146
:1013E0008368426819680A431A60704783684168D5
:1013F0001A688A431A60F8E7431C0BD01F280AD9E1
:10140000074BC0188000026807239A431940131C39
:101410000B4303607047034BC0188000F3E7C046DE
:10142000F80F0110001001104B0710B5DB0F1F283B
:1014300010D90A4A801880000468182294430322B5
:101440001140CA00211C1143054A9B021140194357
:10145000016010BD034A80188000EDE7F80F01100D
:10146000FFFBFFFF0010011038B5104B1A68002A6F
:101470001BD10F4A01251D608023D0588021C9004F
:101480000143D1500B4B0C4C1868022363600B498D
:1014900000F09AF80138E060094965601320FFF711
:1014A000BDFD8022074B12031A6038BD7802001080
:1014B00000800440CC0000100080014040420F003A
:1014C0001515000000E100E008B5044B1B68002B77
:1014D00001D1FFF7C9FF024B986808BD78020010E0
:1014E00000800140034B0122986159690A435A6107
:1014F0007047C04600800140024B01215A698A436F
:101500005A61704700800140014B01221A60704708
:1015100000800140F8B54F464646C0B4FFF7F4FFDF
:101520001648174A804691464046036812E01C68F8
:101530005D68FFF7C9FF0027061CA41BBD41002DF5
:1015400012DC0FD0424611684846CB68136002682F
:10155000002A10D1002BEAD1FFF7CEFF0CBC904639
:101560009946F8BD002CEDD04246136818685968BA
:10157000FFF7B8FFF2E788689047D5E77C020010D4
:101580008002001008B5031C081C191C00F06CF840
:1015900008BD08B5002801D0FEF7C2FF08BD000055
:1015A00010B5041E02D1012400E09847201CFEF76C
:1015B000ADFF002805D1034B1B68002BF5D1FEF7CA
:1015C000B9FF10BD84020010002934D0012300228D
:1015D00010B488422CD301242407A14204D28142B2
:1015E00002D209011B01F8E7E400A14204D28142C2
:1015F00002D249005B00F8E7884201D3401A1A433F
:101600004C08A04202D3001B5C0822438C08A04275
:1016100002D3001B9C082243CC08A04202D3001B2B
:10162000DC082243002803D01B0901D00909E3E7A5
:10163000101C10BC7047002801D00020C04307B424
:10164000024802A14018029003BDC04619000000E4
:101650000029F0D003B5FFF7B9FF0EBC4243891A49
:101660001847C0467047C04638B5051C05480C1CD5
:10167000131C002804D00220291C221C00E000BFFB
:1016800038BDC04600000000014B18687047C046D6
:101690003001001070B5051C0C1E01D1002049E07E
:1016A000002804D08269002A01D100F073F9224B8E
:1016B0009C4201D16C6808E0204B9C4201D1AC688F
:1016C00003E01F4B9C4200D1EC680C22A35E002B70
:1016D000E4D0281C211C00F0C9F8236B061C002B49
:1016E00006D0281C216A9847002801DA0126764294
:1016F000A3891A0603D5281C216900F009FC616B37
:10170000002908D0231C4433994202D0281C00F041
:10171000FFFB00236363A16C002904D0281C00F0A8
:10172000F7FB0023A36400F0A5F90023A38100F0D8
:10173000A2F9301C70BDC046783F0000983F000001
:10174000B83F000008B5034B011C1868FFF7A2FF63
:1017500008BDC04630010010F7B58B89051C0C1C74
:1017600019075ED46268002A02DC276C002F1ADD9C
:10177000E76A002F17D000222E682A6080225201CB
:101780001A4001D0626D15E0281C216A0123B84778
:10179000021C411C0ED12B68002B0BD01D2B01D03D
:1017A000162B02D12E6000205EE0A38940210B435E
:1017B000A38159E0A3895F0706D56168636B521A5C
:1017C000002B01D0276CD21B281C216A0023E76A5A
:1017D000B847A289411C06D12B68002B03D01D2BD2
:1017E00001D0162B19D10023636023692360D7042D
:1017F00005D5411C02D12A68002A00D16065616BC1
:101800002E600029CFD0231C4433994202D0281CDB
:1018100000F07EFB0020606326E040231A43A28193
:1018200022E02669002EBED027680022BF1B019748
:101830002660990700D16269A260019F002FB2DD86
:10184000281C216A321C019BA76AB847002806DCC5
:10185000A389402213430120A381404204E0019F59
:1018600036183F1A0197E8E7FEBD00000A6938B54F
:10187000051C0C1C002A01D100201CE0002804D00B
:101880008369002B01D100F085F80B4B9C4201D1FC
:101890006C6808E0094B9C4201D1AC6803E0084B3E
:1018A0009C4200D1EC680C22A35E002BE4D0281CE3
:1018B000211CFFF751FF38BD783F0000983F000022
:1018C000B83F000008B5011E05D1054B0549186851
:1018D00000F060FA03E0044B1868FFF7C7FF08BD8B
:1018E000DC3F00006D18000030010010F8B5041C4A
:1018F000071C4834002C12D0A5686668013E0CD441
:10190000AB89012B07D90E22AB5E013303D0381C03
:10191000291CFFF7ABFF6835F0E72468EAE7F8BD5C
:10192000002310B5041C036043608360818143661B
:10193000C281036143618361191C08225C3000F09D
:10194000DEFA054B24626362044BA362044BE3623C
:10195000044B236310BDC046F12100001D2200008E
:10196000552200008122000070B54B1E68255D43A2
:101970000E1C291C743100F013FB041E08D000213A
:10198000016046602A1C0C30A060683200F0B7FA93
:10199000201C70BD836913B5041C002B27D1836400
:1019A000C3640365124B134A1B688262984201D1DB
:1019B00001238361201C00F01FF86060201C00F0F0
:1019C0001BF8A060201C00F017F80421E060002242
:1019D0006068FFF7A5FFA06809210122FFF7A0FFBB
:1019E000E06812210222FFF79BFF0123A36113BDD0
:1019F000DC3F0000ED180000F8B51D4B071C1E6809
:101A0000B269002A02D1301CFFF7C4FF4836B4681F
:101A10007368013B05D40C22A55E002D10D06834FC
:101A2000F7E73368002B06D1381C0421FFF79CFF31
:101A30003060002801D03668E9E70C233B6016E0EF
:101A400001235B42E381201C0123A381656625609D
:101A5000A560656025616561A5615C30291C08226F
:101A600000F04DFA6563A563A564E564201CF8BD2C
:101A7000DC3F000070477047F7B50F1C111C01AA2E
:101A8000051C01F03DFD061E01D1002427E0281CA5
:101A9000FFF7B2FF041EF8D0DB23281C391C019A83
:101AA0005B0000F0D1FA002806DA0025FFF7E2FF1C
:101AB000A581FFF7E0FFE8E70A4BE08163620A4B8C
:101AC000A681A362094B2462E362094B2363F305F9
:101AD00005D5281C211C0022022300F03BF8201C05
:101AE000FEBDC046F12100001D220000552200006D
:101AF0008122000008B50A1C0349031C0868191C50
:101B0000FFF7BAFF08BDC046300100100EB403B5A0
:101B100003AB04CB054A011C1068039A019300F043
:101B20007DFE02B008BC03B01847C046300100106B
:101B30000EB403B503AB04CB054A011C1068039A2D
:101B4000019301F063FA02B008BC03B01847C04625
:101B50003001001008B500F00FF808BD38B5131CAF
:101B6000044A051C0C1C1068291C221C00F004F8F7
:101B700038BDC04630010010F7B5051C0C1C0192A1
:101B80001E1C002804D08269002A01D1FFF702FF41
:101B9000414B9C4201D16C6808E0404B9C4201D112
:101BA000AC6803E03E4B9C4200D1EC68A2898423E0
:101BB0005B001A409A4203D1281C211CFFF756FEF5
:101BC000E36A0093002B01D11D2331E0012E05D0E3
:101BD000022E31D01623002E2AD12DE0281C211CE4
:101BE000FFF744FEA389802252011A4001D0606DA4
:101BF00006E0331C281C216A009EB047421C18D006
:101C0000A3895E0707D56268636B801A002B0AD030
:101C1000266C801B07E01A0705D52368002B02D02D
:101C200026699B1BC018019E36180196002603E00A
:101C30002B6001277F422DE02269002A03D1281C56
:101C4000211C00F0EFF8281C211CFFF70FFE071ED7
:101C5000EFD1331C281C216A019A009EB047013045
:101C6000E7D0616B002908D0231C4433994202D08D
:101C7000281C00F04DF9002363632269094B2260A0
:101C8000A28900211340201C6160A3815C300822DE
:101C900000F035F9381CFEBD783F0000983F000089
:101CA000B83F0000DFF7FFFF08B5034B011C1868C1
:101CB00000F004F808BDC0463001001038B5051C1E
:101CC0000C1C002804D08269002A01D1FFF762FEB3
:101CD0001F4B9C4201D16C6808E01E4B9C4201D115
:101CE000AC6803E01C4B9C4200D1EC68E36A002B1B
:101CF00004D11D2301202B60404227E0A3891A074D
:101D000003D5281C211CFFF7B1FDA38980225201B5
:101D10001A4001D0606D06E0281C216A0123E56AA3
:101D2000A847421C12D0A3895D0707D56268636B80
:101D3000801A002B0AD0236CC01A07E01D0705D5B6
:101D40002368002B02D022699B1AC01838BDC046F8
:101D5000783F0000983F0000B83F0000F7B5041C32
:101D6000019148340026002C12D0A5686768013F15
:101D70000CD4AB89012B07D90E22AB5E013303D003
:101D8000281C019B984706436835F0E72468EAE77A
:101D9000301CFEBDF7B5041C071C01914834002619
:101DA000002C16D06268A5680092009A013A009251
:101DB0000DD4AB89012B08D90E22AB5E013304D0C0
:101DC000381C291C019B984706436835EDE72468B9
:101DD000E6E7301CFEBD000070B50E4B0E4D002432
:101DE000ED1AAD101E1CAC4204D0A300F358984766
:101DF0000134F8E701F012FE084B094D0024ED1AFA
:101E0000AD101E1CAC4204D0A300F3589847013417
:101E1000F8E770BD380100103801001038010010DB
:101E200040010010F0B58B8991B0051C0C1C9A077D
:101E300025D40E23C95E002906DAA78980231F4016
:101E40000FD0002740260EE001AA01F091FB0028E8
:101E5000F3DB029BF0273F02184A1F40BF187B426A
:101E60005F418026F600281C311C00F099F80028FC
:101E70000CD1A3899A051FD402221343A381231CEA
:101E80004733236023610123636115E00C4B8022FB
:101E9000AB62A38920601343A38120616661002F98
:101EA0000AD00E23E15E281C01F074FB002803D049
:101EB000A38901221343A38111B0F0BD00E0FFFF0D
:101EC000ED18000008B5034B011C186800F068F815
:101ED00008BDC0463001001008B5034B011C18684E
:101EE00000F016F808BDC0463001001010B5002300
:101EF000934203D0CC5CC4540133F9E710BD031CFA
:101F00008218934202D019700133FAE7704700003B
:101F100030B5002940D004390B68002B00DAC9180D
:101F20001E4A1368141C002B02D14B60116033E071
:101F300099420FD208680A189A4205D1136852686C
:101F4000C01808604A6000E04B60216024E08A42CB
:101F500003D8131C5A68002AF9D11D685C198C42F9
:101F60000BD10968691858181960904214D1146887
:101F70005268091919605A600EE08C4202D90C238C
:101F8000036009E008680C18944203D11468526891
:101F9000001908604A60596030BDC0468C020010CC
:101FA00070B50323CD1C9D430835061C0C2D01D2B2
:101FB0000C2501E0002D3FDB8D423DD3204B1C68FA
:101FC0001A1C211C002913D00868431B0DD40B2BAD
:101FD00002D90B60CC181EE08C4202D163681360FA
:101FE0001AE0486860600C1C16E00C1C4968E9E7C0
:101FF000144C2068002803D1301C00F0BFF820608A
:10200000301C291C00F0BAF8431C15D0C41C032353
:102010009C4384420AD12560201C0B300722231DDB
:102020009043C31A0BD05A42E25008E0211A301CE8
:1020300000F0A4F80130EED10C233360002070BD15
:102040008C0200108802001038B5084C051C0020D6
:102050002060081C111C1A1CFEF73EFD431C03D116
:102060002368002B00D02B6038BDC04698020010BA
:102070000FB40B4B13B51C68002C05D0A369002BC3
:1020800002D1201CFFF786FC05ABA168201C049A36
:10209000019300F0C3FB16BC08BC04B01847C0464F
:1020A0003001001070B5051C0E1C002804D0826998
:1020B000002A01D1FFF76EFCAC68A3891A0702D58C
:1020C0002369002B19D1281C211C01F095F9002847
:1020D00013D00120404245E03178002B1BDAA26981
:1020E000934211DA281C221C01F01AF901304342F4
:1020F0005841C0B20028ECD10136A3683278013BC8
:10210000A360002AE8D10CE02368197023681978CD
:102110000A2903D1E6E7226811702368013323609E
:10212000EAE7002B17DAA269934208DB22680A2348
:102130001370236819780A2911D1281C01E0281C82
:102140000A21221C01F0ECF8013043425841C0B290
:10215000002806D0BDE722680A23137023680133E4
:1021600023600A2070BD000008B5034B011C1868ED
:10217000FFF798FF08BDC0463001001038B5074C86
:102180000023051C081C2360FEF702FE431C03D13C
:102190002368002B00D02B6038BDC0469802001089
:1021A0000EB430B59CB01FAD08CD812302AC9B00AE
:1021B000A3810290069000F073F80B4B606063629D
:1021C00000236363A36401235B42E381074B6061E7
:1021D000211C18681F9A2B1C019500F0EFF81CB009
:1021E00030BC08BC03B018471922000030010010B1
:1021F00038B50C1C0E25495F01F024FA002803DBDA
:10220000626D1318636503E0A289024B1340A3813A
:1022100038BDC046FFEFFFFF00207047F8B51E1C19
:102220008B89051C0C1C171CDA0505D50E23C95E0D
:102230000022022301F0C0F9A289054B281C13409B
:10224000A3810E22A15E331C3A1C01F0C1F8F8BD37
:10225000FFEFFFFF38B50C1C0E25495F01F0ACF90C
:10226000A389421C03D1054A1340A38104E08022C4
:1022700052011343A381606538BDC046FFEFFFFFE5
:1022800008B50E23C95E01F029F908BD02780B7864
:1022900001300131002A01D09A42F7D0D01A70479C
:1022A0000023C25C0133002AFBD1581E7047031C77
:1022B000002010B582420FD01C780878A04201D1CE
:1022C000012A03D118780B78C01A05E0013A0028DA
:1022D000F8D001330131EFE710BD30B5031C002AFF
:1022E00007D00C7801335D1E013A2C700131002CAF
:1022F000F5D19A18934203D0002119700133F9E700
:1023000030BD38B5141C4B1C02D10120404234E0D2
:10231000938920229343A381636BCDB26268002B23
:102320000FD0A36B9A4206DA2368013B23601D702D
:10233000636801331FE0211C00F098F90028F3D0F6
:10234000E3E721692368002909D08B4207D9591E88
:102350000878A84203D10132216062600DE0E36396
:10236000231C443363630323A363231C4633226487
:102370001D70236001236360281C38BD10B50C1C40
:10238000496B00290ED0231C4433994201D0FFF73A
:10239000BFFD236C002060636360834202D0E36B67
:1023A000236009E023692022236000236360A3895E
:1023B00001201343A381404210BD0000F0B5A54C9D
:1023C000071CA5440193002300924693A24A479319
:1023D000BE235B000C1C43A9CA50A04AC02303A81B
:1023E0005B004890CA50009A1578002D00D128E172
:1023F0009B4E306843195A78082313401FD06168F8
:1024000000290FDD236830681A7882185278110786
:1024100011D5479A01330132479262682360013A2D
:102420006260ECE7C0235B0043AAD358381C211C30
:1024300098470028E6D0009E01360096D3E7009E1C
:102440000136252D4CD100984593439343782A2B90
:1024500003D11023061C43930236351C29780B1C2C
:10246000303B092B07D8459A0A235343303B591870
:1024700045910135F2E77B4E0322301C01F0B0F8A4
:10248000002806D0861B439B0120B0401843439090
:1024900001356E1C2D78672D0FD8652D77D25B2DF9
:1024A00051D005D8002D00D1CDE0252D18D070E0F9
:1024B000632D54D0642D3DD06BE0702D2FD007D804
:1024C0006E2D52D038D8692D63D10023449338E063
:1024D000752D2FD0782D26D0732D5AD102233CE0B4
:1024E000606800280DDD23681A78AA4200D0A8E0B1
:1024F000013362682360479B013A0133626047936E
:102500009BE7C02343A95B00CB58381C211C98478C
:102510000028E8D04698002800D08EE093E0439A47
:10252000202313434393439880239B000343439307
:10253000102302E00A2300E00823449304236E2DB5
:102540000BDC032309E0311C03A801F023F94399B4
:1025500040230B434393061C012349931DE0439AF8
:102560004023134343930023F7E74399CB0600D559
:1025700063E7019B479AC80704D5191D01911B68A1
:102580001A805AE7191D01911B681A6055E7052347
:10259000E3E7032349930A2344936168002903DD99
:1025A000439A520614D51BE0C02343A85B00C358CE
:1025B000211C381C98470028F2D0ABE7479A01321B
:1025C00047926268013A6260002A13DD013323609A
:1025D000236823491A7809688A1852781007EDD4BD
:1025E000499B022B10DC381C43A9221C01AB00F0D4
:1025F00035FD1CE0C02343A95B00CB58381C211CCF
:1026000098470028E4D085E7042B06DC381C43A952
:10261000221C01AB00F086FD09E0134B002B00D11A
:102620000BE7381C43A9221C01AB00E000BF0128C6
:1026300007D0022800D000E76CE7A389590604D52B
:1026400001E0469801E001204042A5239B009D4403
:10265000F0BDC0466CFDFFFF032300007D2300009A
:1026600034010010E03F000000000000F7B50B1C33
:102670004D6B44330C1C9D421BD18026F600311C4F
:10268000FFF78EFC002802D10120404225E0231CE8
:102690006063A66346331A78104BC254231C45333B
:1026A0001A780F4BC2542A780E4BC254C0182060BF
:1026B00012E08E6B291C73001A1C019300F09BFF23
:1026C000051EE1D08719381C291C321CFFF70EFCAF
:1026D000019B27606563A3630020FEBDFF0300002C
:1026E000FE030000FD030000F8B5051C0E1C141CC1
:1026F0004A1C02D10120404261E0002804D08369D5
:10270000002B01D1FFF746F92D4B9C4201D16C689B
:1027100008E02C4B9C4201D1AC6803E02A4B9C4260
:1027200000D1EC68A38920229343A3819BB25A076E
:1027300013D4DA06DED508273B420AD0281C211C18
:10274000FFF794F80028D5D1A389A060BB43A381EB
:10275000A061A38904221343A381636BF6B262686C
:10276000002B10D0A36B9A4206DA2368013B23604A
:102770001E706368013320E0281C211CFFF776FFE0
:102780000028F2D0B6E721692368002909D08B42DE
:1027900007D9591E0878B04203D101322160626026
:1027A0000DE0E363231C443363630323A363231C0F
:1027B000463322641E70236001236360301CF8BD21
:1027C000783F0000983F0000B83F0000936810B5C4
:1027D000013B9360002B05DA9469A34208DBCBB27E
:1027E0000A2B05D01368581C10601970C8B201E09C
:1027F00000F096FD10BDF8B5061C0F1C141CD51872
:10280000AC4208D02178301C3A1CFFF7DFFF0134BE
:10281000431CF5D100E00020F8BD0000F0B59FB0EA
:10282000061C0F1C03920593002804D0816900291F
:1028300001D1FFF7AFF8754B9F4201D1776808E0EF
:10284000734B9F4201D1B76803E0724B9F4200D1A6
:10285000F768BB891A070AD53B69002B07D006AD7C
:1028600000236B6120236B763023AB763BE0301C7A
:10287000391C00F0C1FD0028F1D001204042C2E027
:10288000059A111D12680591002A76DB0992013420
:1028900023782E2B00D181E021785F48032200F0BD
:1028A0009FFE002807D05C492A68431A40209840C0
:1028B0001043286001342178631C58480622039392
:1028C000297600F08DFE002800D18AE0544B002BC1
:1028D0007ED1059B072207339343083305936A692A
:1028E000049953186B61039C2378002B04D103993E
:1028F000611A029110D003E0252BF8D00134F3E7E0
:10290000301C391C039A029BFFF775FF013075D00C
:102910006A69029953186B612378002B6ED00122EB
:1029200052426A606A4600235B3201342B60EB60DE
:10293000AB601370AB6521783A48052200F050FE79
:10294000002808D0374A0134831A012098402B68A8
:1029500018432860EFE72B68D90603D56A46202183
:102960005B3211701A0703D56A462B215B32117056
:1029700022782A2A84D0099B05E05242EA6002228A
:1029800013432B6083E72278303A092A04D80A21BE
:102990004B4301349B18F6E7099379E763782A2BB8
:1029A00009D1059B02341A1D1B680592002B0DDA14
:1029B00001235B420AE0013400232278303A092ADD
:1029C00004D80A214B4301349B18F6E7079363E7C9
:1029D00005AB0093301C291C3A1C134B00E000BFD0
:1029E00007E005AB0093301C291C3A1C0E4B00F08D
:1029F0009FF804900499013100D070E7BB895A0612
:102A000000D53AE70B981FB0F0BDC046783F0000F4
:102A1000983F0000B83F0000E03F0000EA3F0000A0
:102A200000000000E43F0000F727000038B5131C49
:102A3000044A051C0C1C1068291C221CFFF7EEFE22
:102A400038BDC04630010010F7B5151C01930A6966
:102A50008B68061C0C1C934200DA131C221C2B6092
:102A600043321278002A01D001332B60206880069F
:102A700002D52B6802332B60216806270F401FD038
:102A8000231C43331B785A1E9341226892061FD59C
:102A9000E11840313020C870211C5A1C453109789A
:102AA000A21840320233D17012E0221C301C01996E
:102AB00019320123089FB847013011D0009F013718
:102AC0000097E0682968009F431A9F42EDDBD7E733
:102AD000221C301C01994332089FB847013002D1B3
:102AE0000120404223E0206806212B68E268014073
:102AF0000025042903D1D51AEB43DB171D40A2683A
:102B000023699A4201DDD31AED1800270097009F30
:102B1000AF420BDA221C301C01991A320123089FA4
:102B2000B8470130DCD0009F0137EFE70020FEBD41
:102B3000F0B50D1C8BB043350692059007930495B4
:102B40000B7E0C1C109A6E2B00D1A7E011D8632BC2
:102B500022D009D8002B00D1B0E0582B00D0C0E023
:102B600045310B707B4D4EE0642B1CD0692B1AD085
:102B7000B7E0732B00D1A5E009D86F2B29D0702BBB
:102B800000D0AEE00E68202333430B6036E0752B97
:102B90001FD0782B32D0A4E013680D1C191D4235CC
:102BA00011601B689FE0216813680E0603D5191D8C
:102BB00011601E6805E04806F9D5191D1160002155
:102BC0005E5E644B002E3BDA049D2D2276422A7015
:102BD00036E0216813680E0603D5191D11601E68C2
:102BE00004E04806F9D5191D1E881160594B227E54
:102BF000039308276F2A1ED00A271CE0231C782184
:102C00004533554D197011682368081D03951060F0
:102C10001E0601D50E6802E05806FBD50E88D907BE
:102C200002D52022134323601027002E03D12268EF
:102C300020239A432260231C002243331A7001E0B0
:102C400003930A276368A360002B03DB2568042233
:102C500095432560002E02D1049D002B0ED0049DCB
:102C6000301C391CFEF7F4FC0398013D435C301C1A
:102C70002B70391CFEF7A8FC061EF1D1082F09D1D4
:102C80002168C90706D5626823699A4202DC013DC2
:102C900030232B70049E731B23612AE0086813689D
:102CA0004969050604D5181D10601B68196005E008
:102CB0004606F8D5181D10601B6819800023236193
:102CC000049D16E01368191D11601D68281CFFF78C
:102CD000E7FA63682061984200D923612069606047
:102CE00004E0251C42352B7001232361049E002340
:102CF0003370079E05980096211C09AA069BFFF7D2
:102D0000A3FE013002D10120404221E02A1C059897
:102D100006992369079DA8470130F4D02668B607B5
:102D200005D4099BE068984212DA181C10E00025CF
:102D3000E0680999431A9D42F3DA221C0598069926
:102D400019320123079EB0470130DCD00135EFE78F
:102D50000BB0F0BDF13F000002400000F0B5A54C03
:102D6000071CA5440193002300924693A24A47936F
:102D7000BE235B000C1C43A9CA50A04AC02303A871
:102D80005B004890CA50009A1578002D00D128E1C8
:102D90009B4E306843195A78082313401FD061684E
:102DA00000290FDD236830681A78821852781107DD
:102DB00011D5479A01330132479262682360013A84
:102DC0006260ECE7C0235B0043AAD358381C211C87
:102DD00098470028E6D0009E01360096D3E7009E73
:102DE0000136252D4CD100984593439343782A2BE7
:102DF00003D11023061C43930236351C29780B1C83
:102E0000303B092B07D8459A0A235343303B5918C6
:102E100045910135F2E77B4E0322301C00F0E0FBC8
:102E2000002806D0861B439B0120B04018434390E6
:102E300001356E1C2D78672D0FD8652D77D25B2D4F
:102E400051D005D8002D00D1CDE0252D18D070E04F
:102E5000632D54D0642D3DD06BE0702D2FD007D85A
:102E60006E2D52D038D8692D63D10023449338E0B9
:102E7000752D2FD0782D26D0732D5AD102233CE00A
:102E8000606800280DDD23681A78AA4200D0A8E007
:102E9000013362682360479B013A013362604793C4
:102EA0009BE7C02343A95B00CB58381C211C9847E3
:102EB0000028E8D04698002800D08EE093E0439A9E
:102EC000202313434393439880239B00034343935E
:102ED000102302E00A2300E00823449304236E2D0C
:102EE0000BDC032309E0311C03A800F053FC4399D9
:102EF00040230B434393061C012349931DE0439A4F
:102F00004023134343930023F7E74399CB0600D5AF
:102F100063E7019B479AC80704D5191D01911B68F7
:102F20001A805AE7191D01911B681A6055E705239D
:102F3000E3E7032349930A2344936168002903DDEF
:102F4000439A520614D51BE0C02343A85B00C35824
:102F5000211C381C98470028F2D0ABE7479A013271
:102F600047926268013A6260002A13DD01332360F0
:102F7000236823491A7809688A1852781007EDD413
:102F8000499B022B10DC381C43A9221C01AB00F02A
:102F900065F81CE0C02343A95B00CB58381C211CFA
:102FA00098470028E4D085E7042B06DC381C43A9A9
:102FB000221C01AB00F0B6F809E0134B002B00D146
:102FC0000BE7381C43A9221C01AB00E000BF01281D
:102FD00007D0022800D000E76CE7A389590604D582
:102FE00001E0469801E001204042A5239B009D445A
:102FF000F0BDC0466CFDFFFFE926000085360000ED
:1030000034010010E03F000000000000F8B5051C8E
:103010000C1C171C1E1C002804D08369002B01D136
:10302000FEF7B8FC0A4B9C4201D16C6808E0094BE2
:103030009C4201D1AC6803E0074B9C4200D1EC6894
:10304000281C3A1C331C211CFFF788FEF8BDC04623
:10305000783F0000983F0000B83F0000F7B5151C0E
:103060008A6801900C1C002A06D18A69511E8A4187
:10307000524201210A43A2602268D20603D41A6890
:10308000111D196017680026A06900281DD123684A
:103090000136DB0603D42A6813783B7001372A68AF
:1030A0006B6801322A60A268013B013A6B60A26042
:1030B000002A25D0002BE7DCC0235B00E3580198F1
:1030C000291C98470028DFD01AE0012808D12A6877
:1030D00013786269D35C002BD9D1002E1FD00FE08A
:1030E000022802D0002E09D00AE02A6813780C4A80
:1030F0001268D3185B781A07C9D5F3E701280ED0F8
:1031000022681023134006D1E2680132E260A2690E
:10311000002A00D03B70236900209E192661FEBD65
:1031200034010010F0B5151C8BB0774A049002935F
:1031300007ABC1CAC1C388690C1C032802D1734EF6
:10314000059601E0724F0597A3680026AE22591E2E
:1031500003965200914205D95E3BFF3B03935E23E9
:10316000FF33A3602068D023271C1B011C370343B7
:10317000019700972360002707AABB0098582A6888
:103180001178022200F02CFA00283AD0012F0DD13C
:103190006368002B06D108232668636080239B00A8
:1031A000334323605B4B206803400EE0022F0DD1B8
:1031B0002368C021C900802219409200914223D186
:1031C000102262608022520013432360A3685A1EBB
:1031D000A260002B15D02B6800995A1C2A601B781E
:1031E000009E0B706B680136013B6B600096002BF4
:1031F00007DCC0235B00E3580498291C984700288B
:1032000043D10137032FB7D16268002A01D10A23C5
:10321000636063681021C91A3F4B6069C91800F0E8
:10322000B9FA009E0027A368002B2FD02A68616995
:103230001078095C002929D0216830280AD10805B6
:1032400008D50399013700290AD0013901330391C8
:10325000A36005E0314B19402160137833700136CB
:103260006B68013B6B60002B03DD2B6801332B6027
:1032700007E0C0235B00E3580498291C9847002806
:1032800004D1A368013BA360CDE700272268D205E3
:103290000DD5019B9E4207D9BE23013E5B003178CC
:1032A000E35804982A1C9847019DAE4228D0206814
:1032B000102202401CD132706368059D0498019968
:1032C000A847029D22682B68910601D51A1D09E0C6
:1032D000D50705D5029D1A1D2A601B68188004E0D9
:1032E000029D1A1D2A601B681860E3680133E360C1
:1032F000019D0020761BF7192669F719276100E068
:1033000001200BB0F0BDC04614400000FD370000A6
:1033100011390000FFFAFFFF20400000FFF6FFFF19
:1033200070B5051C0E1C141C002804D08269002AEC
:1033300001D1FEF72FFB234B9C4201D16C6808E0C2
:10334000214B9C4201D1AC6803E0204B9C4200D150
:10335000EC68A369A360A3891A070AD52369002B27
:1033600007D022682369F6B2D01A626990420FDB57
:1033700008E0281C211C00F03FF80028F1D00120B3
:1033800040421DE0281C211CFEF770FA0028F6D1EF
:10339000A3680130013BA36023685A1C22601E70A1
:1033A0006369984205D0A389301CDA0708D50A2E34
:1033B00006D1281C211CFEF759FA0028DFD1301C49
:1033C00070BDC046783F0000983F0000B83F000045
:1033D00038B5084C051C00202060081C111C1A1C64
:1033E000FDF70AFC431C03D12368002B00D02B609F
:1033F00038BDC04698020010344B70B51D68061CDD
:103400000C1C002D05D0A969002902D1281CFEF74B
:10341000C1FA2F4B9C4201D16C6808E02D4B9C42B5
:1034200001D1AC6803E02C4B9C4200D1EC68A2892E
:1034300093B2190721D4D90605D409233360402358
:103440001A43A2813FE05A0713D5616B002908D0C7
:10345000231C4433994202D0301CFEF759FD00234F
:103460006363A38924229343A381002363602369B8
:103470002360A38908221343A381216900290BD16A
:10348000A389A02292001A4080239B009A4203D075
:10349000301C211CFEF7C6FCA38901221A4005D06E
:1034A00061690022A2604A42A26103E0990700D448
:1034B0006269A26022690020824206D1190604D501
:1034C00040221343A3810120404270BD300100100F
:1034D000783F0000983F0000B83F000038B5074C27
:1034E0000023051C081C2360FDF770FB431C03D15F
:1034F0002368002B00D02B6038BDC0469802001016
:103500000B7830B5722B09D0772B0BD0612B0ED1F5
:10351000822401238420A40098401BE00024231C63
:10352000042017E0C024E4000123082012E0162341
:10353000036000201AE0622D10D0782D11D02B2DC1
:1035400007D11C25A843102528430325AB4302259A
:103550002B4301314D78002DEDD105E080256D0222
:10356000F6E780252D01F3E72343136030BD00000B
:1035700038B5074C0023051C081C111C2360FDF7FF
:10358000B3FB431C03D12368002B00D02B6038BD54
:103590009802001038B5074C0023051C081C236056
:1035A000FCF7AAFF431C03D12368002B00D02B603B
:1035B00038BDC0469802001038B5084C051C0020E4
:1035C0002060081C111C1A1CFDF77AFB431C03D158
:1035D0002368002B00D02B6038BDC0469802001035
:1035E000C9B28218904204D003788B4202D00130D5
:1035F000F8E700207047F8B5061C0C1C151C0029C4
:1036000004D1111CFEF7CCFC041C18E0002A03D1E5
:10361000FEF77EFC2C1C12E000F0F6F9A8420ED258
:10362000301C291CFEF7BCFC071E07D0211C2A1CDD
:10363000FEF75CFC301C211CFEF76AFC3C1C201CC5
:10364000F8BD000038B5084C051C00202060081C9F
:10365000111C1A1CFDF7FCFA431C03D12368002B34
:1036600000D02B6038BDC0469802001008B5828992
:1036700009231A400023092A02D1FEF723F9031C6B
:10368000181C08BDF8B5051C0C1C002804D0816965
:10369000002901D1FEF77EF9394B9C4201D16C68BB
:1036A00008E0384B9C4201D1AC6803E0364B9C42A9
:1036B00000D1EC68A2890023636093B299065CD4C0
:1036C000590717D4D90602D409232B6052E00826E3
:1036D00033420AD0281C211CFEF7C8F800284CD120
:1036E000A389A060B343A381A061A38904221343EB
:1036F000A38112E0616B00290FD0231C443399424F
:1037000002D0281CFEF704FC236C00206063636079
:10371000834202D0E36B236031E02169002903D1A9
:10372000281C211CFEF77EFBA789BEB2B3070FD071
:103730000123A381154B16491868FEF70FFB0923D7
:10374000A7811E409E4203D1281C211CFEF704F8CD
:103750002269281C63692260216A656AA847031CE4
:103760006060002083420ADCA289834201D12023C9
:1037700001E0606040231A43A28101204042F8BD6D
:10378000783F0000983F0000B83F0000DC3F000099
:103790006D360000F0B50B785E2B02D04C1C00217A
:1037A00002E08C1C4B7801210022815480250132DB
:1037B0006D00AA42F9D1002B01D1601E1CE0012747
:1037C0007F1AFEB2C654221C1178541C2D2905D034
:1037D0005D290ED000290ED00B1CF2E755785D2D27
:1037E000FAD09D42F8DB02320133C654AB42FBDB18
:1037F000EAE7201C00E0101CF0BD0000F0B51D1C25
:10380000424B87B01B6805900293039101920B1CF9
:103810001C78029F5E1C3A19517808220A4001D098
:10382000331CF5E72D2C04D101279E1C5C780097F2
:1038300004E000922B2C01D15C789E1C10232A1CE2
:103840009A4311D1302C08D1327820218A43582A4A
:1038500007D174781D1C023606E0002D04D10A251C
:1038600002E0002D00D10825009F291C7B427B41EE
:1038700080273F06FF1A381CFDF7EAFE381C04912A
:10388000291CFDF7A1FE0023021C181C029F3919F8
:1038900049784F0701D5303C07E003270F4017D088
:1038A0005721012F00D13721641AAC4210DA591C7C
:1038B0000BD0904207D802D1049FBC4203DC68437E
:1038C0000123201801E001235B4234780136DDE753
:1038D000009F591C0BD180207B427B410006059F35
:1038E000C01A22233B60019F002F09D10BE0002F5B
:1038F00000D04042019F002F05D0039A002B00D03A
:10390000721E019F3A6007B0F0BDC046340100103E
:10391000F0B51D1C3B4B87B01B68059002930491CA
:10392000171C0B1C02991C785E1C0A19517808227E
:103930000A4001D0331CF5E72D2C04D101229E1C36
:103940005C78019204E001922B2C01D15C789E1CE2
:1039500010232A1C9A4311D1302C08D1327820210F
:103960008A43582A07D174781D1C023606E0002DC0
:1039700004D10A2502E0002D00D108250120291CD0
:103980004042FDF721FE039001204042291CFDF733
:103990005FFE00238C46181C02990A1952785107C1
:1039A00001D5303C07E00321114017D057220129EF
:1039B00000D13722A41AAC4210DA002B09DB039A9B
:1039C000904206D801D1644503DC684301232018E6
:1039D00001E001235B4234780136DDE7002B04DA95
:1039E000059922220A60012002E0019A002A00D0F3
:1039F0004042002F04D0049A002B00D0721E3A607F
:103A000007B0F0BD3401001004390B68181F002BFB
:103A100002DAC8581B18181F70470000F8B5C046D6
:103A2000F8BC08BC9E467047F8B5C046F8BC08BC58
:103A30009E4670470D0A0D0A474343344D424544A4
:103A400020546573742053756974650D000000007F
:103A50004C6F63616C46696C6553797374656D2056
:103A6000556E69742054657374730D0054657374D6
:103A700020313A20666F70656E282920666F7220AB
:103A800077726974650D00002F6C6F63616C2F6F26
:103A900075742E7478740000770000002573282553
:103AA000642920666F70656E2829206661696C65DF
:103AB000640D0A006D61696E2E6370700000000075
:103AC0005465737420323A20667072696E74662889
:103AD000290D000048656C6C6F20576F726C642173
:103AE0000000000025732825642920667072696E25
:103AF00074662829206661696C65640D0A000000FF
:103B00005465737420333A2066636C6F736528299B
:103B1000206F6E207772697474656E2066696C65BB
:103B20000D0000002573282564292066636C6F73DF
:103B3000652829206661696C65640D0A0000000033
:103B40005465737420343A20666F70656E2829209E
:103B5000666F7220726561640D00000072000000E3
:103B60005465737420353A20667363616E66282944
:103B70000D00000025333173000000002573282557
:103B8000642920667363616E662829206661696C0A
:103B900065640D0A00000000436F6E74656E7473F7
:103BA000206F66202F6C6F63616C2F6F75742E749D
:103BB00078743A2025730D0A0000000048656C6C8B
:103BC0006F00000025732825642920667363616EE9
:103BD000662072656164206F75742077726F6E67FE
:103BE00020737472696E670D0A0000005465737467
:103BF00020363A2044657465726D696E652073697C
:103C00007A65206F662066696C65207468726F75CE
:103C1000676820667365656B20616E6420667465F5
:103C20006C6C2063616C6C730D000000257328259B
:103C3000642920667365656B282E2E2C302C20534A
:103C400045454B5F454E4429206661696C65640DAE
:103C50000A000000257328256429206674656C6CB1
:103C6000206469646E27742072657475726E2074A6
:103C700068652065787065637465642076616C752D
:103C800065206F662031320D0A00000054657374A0
:103C900020373A2066636C6F73652829206F6E2089
:103CA000726561642066696C650D0000546573740B
:103CB00020383A2072656D6F766528290D00000066
:103CC0002573282564292072656D6F766528292063
:103CD0006661696C65640D0A0000000054657374C8
:103CE00020393A206F70656E64697228290D0000D2
:103CF0002F6C6F63616C0000257328256429206F89
:103D000070656E6469722829206661696C65640D4E
:103D10000A000000546573742031303A20726561E6
:103D2000646972282920666F7220616C6C20656E50
:103D300074726965730D0000546573742031313AF3
:103D400020636C6F73656469720D00000D0A546521
:103D5000737420636F6D706C657465640D00000092
:103D60006C6F63616C000000000000000000000048
:103D70003D0500003D0500003D050000C5060000B2
:103D8000CD060000D106000025070000000000005D
:103D90000000000000000000F90600004D070000D0
:103DA00011070000090700000D07000019070000B7
:103DB00039070000000000000000000000000000C3
:103DC00079070000910700003D050000DD060000B6
:103DD000E5060000ED060000F1060000000000000E
:103DE0000000000000000000ED0700005D09000079
:103DF000FD07000009080000110800001908000074
:103E00002508000000000000000000000000000085
:103E10006102000075020000D10900001D090000C8
:103E2000E5060000D5080000F106000000000000D3
:103E300000000000000000005508000039080000E4
:103E40006D080000850800009D080000C9080000FA
:103E5000910800002909000041090000000000004D
:103E60002A0000002F737464696E00002F7374645D
:103E7000657272002F7374646F7574000000000027
:103E800000000000000000003D0500003D050000AE
:103E90003D0500003D0500003D0500003D0500001A
:103EA000250A0000590A0000890A000000000000ED
:103EB0003A257000457863657074696F6E00000084
:103EC0001200000000800040010000002E000000F1
:103ED00000800040030000003A0000000080004025
:103EE00002000000FF000000FFFFFFFF00000000D5
:103EF0001300000000800040010000002D000000C1
:103F000000800040030000003B00000000800040F3
:103F100002000000FF000000FFFFFFFF00000000A4
:103F2000636F756C64206E6F742070696E6F75744A
:103F30000000000070696E6D6170206D69732D6DF9
:103F4000617463680000000070696E6D6170206EBE
:103F50006F7420666F756E6420666F722070657274
:103F60006970686572616C0000000000000000006C
:103F70009D110000D11100000000000000000000B1
:103F80000000000000000000000000000000000031
:103F90000000000000000000000000000000000021
:103FA0000000000000000000000000000000000011
:103FB0000000000000000000000000000000000001
:103FC00000000000000000000000000000000000F1
:103FD000000000000000000043000000D0000010BE
:103FE000686C4C00232D302B2000656667454647E2
:103FF0000030313233343536373839414243444565
:1040000046003031323334353637383961626364D3
:104010006566000032400000354000003840000076
:10402000412D46612D6638393031323334353637DB
:104030005D002B2D0030300078580000202020201B
:104040002020202020282828282820202020202048
:104050002020202020202020202020208810101028
:104060001010101010101010101010100404040480
:1040700004040404040410101010101010414141F5
:104080004141410101010101010101010101010160
:1040900001010101010101101010101010424242F3
:1040A0004242420202020202020202020202020230
:1040B0000202020202020210101010200000000092
:1040C00000000000000000000000000000000000F0
:1040D00000000000000000000000000000000000E0
:1040E00000000000000000000000000000000000D0
:1040F00000000000000000000000000000000000C0
:1041000000000000000000000000000000000000AF
:10411000000000000000000000000000000000009F
:10412000000000000000000000000000000000008F
:10413000000000000000000000000000000000007F
:104140000000000001000000A0020010006CDC0272
:1041500000000000783F0000983F0000B83F0000DA
:10416000000000000000000000000000000000004F
:10417000D83F000000000000000000000000000028
:10418000000000000000000000000000000000002F
:10419000000000000000000000000000000000001F
:1041A000000000000000000000000000000000000F
:1041B000D00000103B40000029020000A1040000D4
:0441C00001020000F8
:04000003000000C138
:00000001FF
