:1000000000800010DD0300000D0400000F0400005C
:10001000110400001304000015040000000000009B
:1000200000000000000000000000000017040000B5
:1000300019040000000000001B0400001D04000063
:100040001F0400001F0400001F0400001F04000024
:100050001F0400001F0400001F0400001F04000014
:100060001F0400001F0400001F0400001F04000004
:100070001F0400001F0400001F0400001F040000F4
:100080001F0400001F0400001F0400001F040000E4
:100090001F0400001F0400001F0400001F040000D4
:1000A0001F0400001F0400001F0400001F040000C4
:1000B0001F0400001F0400001F0400001F040000B4
:1000C0001F0400001F0400001F04000010B5054CB1
:1000D000237833B9044B13B10448AFF300800123F4
:1000E000237010BD40010010000000008C300000A3
:1000F00008B5064B1BB106480649AFF30080064819
:10010000036813B1054B03B1984708BD0000000018
:100110008C3000004401001040010010000000007D
:1001200030B583B04FF0FF3302AC1E4844F8043DB5
:1001300001F04AFB1C4801F047FB1C4801F044FB5E
:100140001B4801F041FB1B4801F0C6FA1A4D21463D
:100150001A4801F051FB0199194801F0BDFA2B68CA
:1001600001219B682322174801F0E0F92B68012147
:10017000DB682322144801F0D9F9144801F024FB6C
:100180000C4801F0A9FA2B68224658680B4901F087
:1001900029F90B48019901F09FFA0D4801F014FB71
:1001A000FEE700BF382C0000542C0000702C00002B
:1001B000882C0000A02C000030010010C42C00008E
:1001C000C82C0000E42C0000082D00002C2D00009D
:1001D000502D00000748084A08B5121A002101F006
:1001E000DBF9AFF3008001F0B1F9FFF799FF00F000
:1001F0000BF800BF4001001064030010022801DC6E
:100200000120704700F09EB80A4C08B523680546E7
:10021000986801F017F82368D86801F013F800F027
:100220000BF820B905B9FEE700F05CFDFBE700F034
:1002300005F8F7E73001001000F00CB830B585B0D4
:1002400018246D4620462946ABBE0446204605B01C
:1002500030BD00BF024B186800F00100704700BFBE
:10026000F0ED00E002480349034A00F0F7BB00BF8D
:100270005803001002C0092003C00920022808B555
:100280000BDD084BC21E53F82200002143F8221058
:1002900028B103685B68984708BD002008BD4FF08F
:1002A000FF3008BD5C010010022870B50C461646F0
:1002B0000FDC0E4B1B680BB9FFF7D4FFA51936B145
:1002C00014F8011B0A4800F019FBAC42F8D1304683
:1002D00070BD084B033853F8200018B103681B6841
:1002E000984770BD4FF0FF3070BD00BF5C0200103A
:1002F000580300105C010010022810B50C4609DC00
:100300000D4B1B688BB10D4800F0ACFA0123207037
:10031000184610BD0A4B033853F8200040B103685B
:100320009B6898470346184610BDFFF79BFFEAE716
:100330004FF0FF33ECE700BF5C02001058030010E1
:100340005C010010022808B508DD074B033853F89C
:10035000200028B10368DB68984708BD012008BD6C
:100360004FF0FF3008BD00BF5C010010022808B547
:1003700008DD074B033853F8200028B103681B69D8
:10038000984708BD002008BD4FF0FF3008BD00BFF2
:100390005C010010022808B504D84FF400534B60EC
:1003A000002008BD00F09AFE092303604FF0FF30E3
:1003B00008BD00BF074A13681844EFF3088188425C
:1003C00002D2106018467047034B0C221A604FF09F
:1003D000FF307047C8000010600300100649074A4C
:1003E000074B9A42BEBF51F8040B42F8040BF8E7E2
:1003F000044880470448004790300000C8000010BF
:10040000400100102D0C0000D5010000FEE7FEE7C2
:10041000FEE7FEE7FEE7FEE7FEE7FEE7FEE7FEE7B4
:1004200008B5154A9368C3F34203012B1ED0022B73
:1004300019D1124B596F01310AD0D3F88010986F3F
:10044000086093F8A61019B9516821F001015160B4
:10045000186F0A4B48B193F8A6302BB10021084A17
:100460001368984708BD08BD08BD08BD034A106F52
:100470000028F9D01946F2E7008009406402001014
:100480006002001070B50368294CA34249D041DDD9
:10049000284CA3422AD004F58044A34244D1264CE0
:1004A00008263ABB01290BD04568244AC5EBC5058F
:1004B00002EBC50494F8355094F83620EA4214D182
:1004C000012202FA01F5D1F1010138BF002102FA3F
:1004D00001F15C6824EA05045C6003685B6819420A
:1004E00003D1B240164BC3F8802070BD154C0726CF
:1004F000002AD7D0012505FA01F176B2304605FA77
:1005000006F65A680A435A60214600F071FB0C4B0C
:100510001E6070BDA4F58044A34205D10A4C052697
:10052000BFE70A4C0626BCE700242646B9E700BF11
:1005300000000140008009405105000064020010E5
:1005400000E100E021040000BD05000021060000DC
:1005500008B5174A9368C3F34203012B21D0022B3D
:100560001CD1144BD3F8AC1001310BD0D3F8B81018
:10057000D3F8B000086093F8DE1019B9516821F083
:1005800001015160D3F8A8000A4B48B193F8DE305E
:100590002BB10021084A1368984708BD08BD08BD63
:1005A00008BD044AD2F8A8000028F8D01946F1E79F
:1005B00000C00940640200106002001008B5154A2E
:1005C0009368C3F34203012B1DD0022B18D1124BA9
:1005D0005968013109D019699868086093F8361094
:1005E00019B9516821F00101516018680A4B48B1EE
:1005F00093F836302BB10021084A1368984708BD9C
:1006000008BD08BD08BD044A10680028F9D0194685
:10061000F2E700BF00C0004064020010600200105A
:1006200008B5154A9368C3F34203012B1DD0022B72
:1006300018D1124BD96B013109D0996C186C086034
:1006400093F86E1019B9516821F001015160986B4F
:100650000A4B48B193F86E302BB10021084A136859
:10066000984708BD08BD08BD08BD044A906B002826
:10067000F9D01946F2E700BF000001406402001003
:10068000600200102DE9F00F8AB00890714B0068ED
:100690009842099000F0CF8040F3BA806E4B099ADF
:1006A0009A4200F0908003F580439A420CD16B4B44
:1006B000D3F8AC2122F44022C3F8AC21D3F8AC210A
:1006C00042F48022C3F8AC21654B0A011B680593F4
:1006D000059CB3FBF2F302FB13429BB20193002A89
:1006E00000F094806000A2004FF001090023079001
:1006F000069280469346CDF80C900491A2468C4613
:1007000002930022049C10465FFA89F7B8F1000FAB
:10071000B5BFB8FBF4F3BBFBF4F31B095B09013372
:10072000C3F34F0302EB0906002B5AD10123002823
:100730005BD103FB06F5ED00BAFBF5F50135C1EB26
:100740005505002DB8BF6D42654505DA8D424ED086
:10075000AC460290019303970132D0B287420C4419
:10076000D4D8B9F10F0F4FF0000349D0059A079C78
:100770009244049A06980A4409F10109A04483446A
:100780000492002BBDD0029B039C43EA0410C0B22C
:10079000099A019C137BC4F3072143F08003137370
:1007A000089A1368E2B2089C197123681A702368CA
:1007B00083F8280023681A7B02F07F021A730AB0BC
:1007C000BDE8F00F7047254BD3F8AC2122F440323E
:1007D000C3F8AC21D3F8AC2142F48032C3F8AC2189
:1007E00072E70028A5D0012BA3D80223A1E7B9F115
:1007F0000F0F0193039702908C464FF00103B5D180
:10080000029C039944EA0110C0B2C1E71020BFE77F
:10081000A3F5804398427FF457AF104BD3F8A8213B
:1008200022F0C002C3F8A821D3F8A82142F0400268
:10083000C3F8A82148E7094BD3F8A82122F4407255
:10084000C3F8A821D3F8A82142F48072C3F8A821E4
:100850003AE700BF000001400080094000C00F409F
:10086000CC0000100268137DDB07FCD54368094902
:10087000C3EBC30301EBC303596810780131C0B265
:1008800007D0596904335B680B60536843F0010378
:1008900053607047640200104368174AC3EBC303F8
:1008A000DB00D11810B4CC69013411D00A6B01F10E
:1008B0001C035B6812681A4203D000205DF8044BE9
:1008C000704703685DF8044B187DC0F380107047D3
:1008D00003681B7D9B0608D491F834005DF8044B37
:1008E0000F288CBF002001207047002381F834308E
:1008F00001205DF8044B70476402001038B50446CF
:100900000D462046FFF7C8FF0028FAD02368EDB255
:100910001D706268054BC2EBC20203EBC20393F881
:100920003420013283F8342038BD00BF6402001047
:100930002DE9F04F0446454D006883B0A8420E46AD
:100940009046994643D06568002301932A46DFF814
:1009500008A1EF00C2EBC202781B4FF0000E0AEBB9
:10096000C0000AEBC20C4FF0FF33C3614360714615
:10097000724620468CF835E0FFF784FD16B903B0C7
:10098000BDE8F08F3249404600F06EFA31498346A7
:10099000484600F069FAB21E012A38D9012EEED17C
:1009A000B8F1FF3FEBD02949226807208B45107230
:1009B00015D1019B9BB11B7C019A254943F0400353
:1009C0004046137403B0BDE8F04F00F01BBA037C3F
:1009D000656803F03F03037462680190B7E77D1B0D
:1009E0000AEBC50041460430002200F0EFF96268CE
:1009F0000125C2EBC2020AEBC20320462A460021AF
:100A000083F8355003B0BDE8F04FFFF73BBDB9F1B7
:100A1000FF3F09D00D4A90420CD0781B0AEBC00072
:100A200049461C3000F0AAF9032EA8D1B8F1FF3FC7
:100A3000B9D1A4E7019B002BEFD01A7C484642F0C5
:100A400080021A74034900F0DDF9EDE7000001406F
:100A5000602D00005C2E0000640200102DE9F041C2
:100A600005460F4608465949164600F00BFA584904
:100A70000446304600F006FA0146204600F0E2F94E
:100A8000544B0446984228607FD06FD9524B98420D
:100A90004BD003F58043984206D1504BD3F8C42085
:100AA00042F00072C3F8C420012323722B684FF078
:100AB0000008C3F8048028464FF41651FFF7E2FD02
:100AC0002B6803221A733846404900F09BF93046E0
:100AD0003F4900F097F97A1C03D03846414600F0B0
:100AE00047FA731C03D03046002100F041FA394B1D
:100AF0009C4247D021D9384B9C4263D003F58043B8
:100B00009C424AD103236B603549C3EBC3034FF0CA
:100B1000FF34284601EBC305224623466C60EC6196
:100B20000021BDE8F041FFF703BF2C4BD3F8C420F0
:100B300042F08072C3F8C420B6E7A3F580439C421C
:100B40002BD1274E4FF0FF34002169602246234607
:100B500028467460F461FFF7EBFE224B01221A6015
:100B600028686968204B03C3BDE8F081A3F5804382
:100B7000984299D1194BD3F8C42042F00802C3F827
:100B8000C42091E701236B60BEE7144BD3F8C42067
:100B900042F01002C3F8C42086E76B681049C3EB2B
:100BA000C3034FF0FF3601EBC307324633462846F6
:100BB00000217E60FE61FFF7BBFE0C4B9C42CCD057
:100BC000BDE8F08102236B609EE700BFF02D0000BE
:100BD000842D0000000001400080094000C00F404B
:100BE000640200105C0200105803001000C00040B6
:100BF0000C4A30B4936894681A46B4F1805F0CD202
:100C0000094A03F1C40553F8044BAB4242F8044FC0
:100C1000F9D1044B4FF080529A60103042F8201006
:100C200030BC704700ED00E0FCFFFF0F2B4A202393
:100C300070B4C2F8A031D2F8A031980645D4274B41
:100C4000022100250124AA2055220B26C3F80411F5
:100C5000C3F8A8511946C3F8AC51C3F80C41C3F806
:100C60008460C3F88C00C3F88C20C3F88040C3F8BC
:100C70008C00C3F88C20D1F88830184A5B01FAD573
:100C80000321AA205523C2F88010C2F88C00114617
:100C9000C2F88C30D1F88830104A13F0407FF9D078
:100CA0000F4900230520C2F80801C2F8C410C2F899
:100CB000C831136870BC23F4704323F03A0343F443
:100CC000405343F03A0313607047D2F8A0315906FD
:100CD000B5D4D2F8A0315906F7D5B0E700C00F401F
:100CE000DE87280400B599B072B61749684600F04F
:100CF00057F806A8154900F053F80CA8144900F05D
:100D00004FF812A8134900F04BF8039B019A0A9878
:100D10001A60079B109903600D9B159A0B60139B3B
:100D20009620136000F0D4F8049B019A09981A6089
:100D3000079B0F9903600D9B169A0B60139B9620DF
:100D4000136000F0C5F8E0E732C0092034C0092084
:100D500035C0092037C009200FB400B5064A83B05A
:100D600004AB126853F8041BD0681A46019300F0D4
:100D70007DFF0120FFF748FA3001001038B50D461D
:100D8000044600F0ABF8013509D02046002100F000
:100D9000C5F820460321BDE8384000F0BBB838BD97
:100DA00038B50D46044600F099F801350CD023699A
:100DB000626820461A60012100F0B0F82046022146
:100DC000BDE8384000F0A6B838BD00BF70B50D468C
:100DD0001646044600F082F8013511D066B9236941
:100DE00062681A602046012100F098F8204602212E
:100DF000BDE8704000F08EB8E36862681A60F1E701
:100E000070BD00BF431C10B5044618D00B68581CB9
:100E100004D10FE051F80C3F5A1C0BD09C42F9D181
:100E20002046896800F08CF820460221BDE8104079
:100E300000F09EB80248BDE81040FFF78DBF10BD1E
:100E4000802E0000884208B50AD0431C07D001312B
:100E500006D00448FFF780FF4FF0FF3008BD08467A
:100E600008BD00BF942E00000B685A1C04D107E097
:100E700051F80C3F5A1C03D08342F9D1486870479F
:100E80001846704708B5431C0CD00B685A1C04D197
:100E900009E051F80C3F5A1C05D09842F9D1486836
:100EA000411C00D008BD0348FFF756FF4FF0FF304C
:100EB000F8E700BFA82E000038B5054600F0BCF8E2
:100EC000044600F0B9F8001BA842FAD338BD00BFB1
:100ED0004FF47A7303FB00F0FFF7EEBF38B504461A
:100EE0004B1C0D46216014D00846002100F028F864
:100EF00005F01F030120984025F01F0505F118019A
:100F000005F11C0205F11403A5606060E160226137
:100F1000636138BD006800F02BB800BF41B1012902
:100F200005D18368426819680A431A6070477047A0
:100F3000836841681A6822EA01021A60704700BF9C
:100F400000F16040A0F51C2000F00F035B000322BD
:100F50009A40994003099B0003F1804303F5303325
:100F6000186820EA02021A601A6811431960704773
:100F700000F16040A0F51C2030B4C1F3800200F005
:100F80001F0402FA04F443099B0003F1804303F5B4
:100F900030339D6E25EA04059D669D6E2C439C664C
:100FA0009AB900F00F035B0003229A4001FA03F3A1
:100FB0000009800000F1804000F53030016C21EA2A
:100FC00002020264026C1343036430BC704700BF2A
:100FD000134A38B513680BBB12490124D1F8C45029
:100FE0001460114A114845F40005C1F8C450136754
:100FF000036801F1437101F5F45103319B08A1FB32
:1010000003039B0C013B022151600420D36008497B
:101010005460FFF7EDFD074B10221A6038BD00BF8A
:101020004403001000C00F4000400940CC000010F5
:101030008510000000E100E008B5044B1B680BB907
:10104000FFF7C6FF024B986808BD00BF44030010BD
:1010500000400940034B98615A6942F001025A610D
:10106000704700BF00400940024B5A6922F001025C
:101070005A61704700400940014B01221A607047D5
:1010800000400940F8B5FFF7F7FF124E124F3368E2
:10109000ABB1D3E90045FFF7CFFF221A65F100039A
:1010A00010461946012871F100030CDA31683A68DC
:1010B000CB683360002AEBD088689047E7E7BDE84B
:1010C000F840FFF7D1BF3368D3E90001BDE8F8402D
:1010D000FFF7C0BF480300104C030010014B186815
:1010E000704700BF300100108A892DE9F0410546A4
:1010F00010070C4657D44B68002B02DC0B6C002BFE
:1011000018DDE66AB6B102F48052002392B22F686D
:101110002B600AB1626D10E0216A28460123B047B6
:10112000411C024609D12B683BB11D2B01D0162B67
:1011300046D12F600020BDE8F081A3895B0705D56B
:101140006368D21A636B0BB1236CD21AE66A284625
:10115000216A0023B047461CA28905D12B681BB128
:101160001D2B01D0162B19D1002363602369D104F4
:10117000236004D5421C01D12B6803B96065616B03
:101180002F600029D6D004F14403994202D02846AA
:1011900000F00AFA00206063BDE8F08142F04002EE
:1011A000A281BDE8F0810E69002EC3D00B680E60ED
:1011B000C6EB030893070CBF4B6900238B6012E05A
:1011C000A3894FF0FF3043F04003A381BDE8F081D5
:1011D000A76A2846216A32464346B8470028EFDD11
:1011E0000644C0EB0808B8F1000FF1DCA2E70000EC
:1011F00038B50B6905460C46DBB118B183690BB9EC
:1012000000F086F80C4B9C4201D16C6808E00B4B57
:101210009C4201D1AC6803E0094B9C4208BFEC68DA
:10122000B4F90C302BB128462146BDE83840FFF711
:101230005BBF002038BD00BFC82E0000E82E0000B4
:10124000082F0000014620B9044B0549186800F03A
:10125000F7B8044B1868FFF7CBBF00BF2C2F000076
:10126000F111000030010010F8B5074600F1480404
:1012700094B1A5686668013E0CD4AB89012B07D9EF
:10128000B5F90E30013303D038462946FFF7B0FFD9
:101290006835F0E72468EBE7F8BD0000002310B5DF
:1012A000044603604360836081814366C2810361B9
:1012B0004361836119465C30082200F06DF9054BEB
:1012C00024626362044BA362044BE362044B236316
:1012D00010BD00BF291800004B1800008318000043
:1012E000A718000070B54B1E68255D430E4605F13A
:1012F000740100F09DF9044640B1002180E84200ED
:101300000C30A06005F1680200F046F9204670BD7F
:10131000836910B5044633BB8364C3640365124B11
:10132000124A1B688262984204BF0123836100F065
:101330001FF86060204600F01BF8A060204600F017
:1013400017F80421E06000226068FFF7A7FFA0689B
:1013500009210122FFF7A2FFE06812210222FFF714
:101360009DFF0123A36110BD2C2F00006912000016
:10137000F8B51B4B07461E68B36913B93046FFF733
:10138000C7FF4836B4687368013B04D4B4F90C5005
:1013900075B16834F8E733682BB938460421FFF794
:1013A000A1FF306008B13668ECE70C233B60F8BD64
:1013B0004FF6FF73E3810123A38165662560A56075
:1013C000656025616561A56104F15C00294608221C
:1013D00000F0E2F86563A563A564E5642046F8BD06
:1013E0002C2F00000EB403B5014603AB054853F89B
:1013F000042B0068019300F01BFF02B05DF804EBC2
:1014000003B07047300100102DE9F041884600F12B
:10141000480400268CB1A5686768013F0BD4AB89EE
:10142000012B06D9B5F90E30013302D02846C0474A
:1014300006436835F1E72468ECE73046BDE8F08103
:101440002DE9F8438046894600F14804002694B10E
:10145000A5686768013F0CD4AB89012B07D9B5F9A2
:101460000E30013303D040462946C847064368354D
:10147000F0E72468EBE73046BDE8F8832DE9F04754
:10148000089C8A46904602FB03F9054618B1836919
:101490000BB9FFF73DFF224B9C4201D16C6808E07D
:1014A000204B9C4201D1AC6803E01F4B9C4208BF1B
:1014B000EC68A3891A0703D523690BB100261BE04A
:1014C0002846214601F098F80028F7D0002623E0AE
:1014D000A768013FA760002F1AF8061016DAA36963
:1014E0009F420CDA2846224601F020F8B0F1FF3383
:1014F0005842584180B901364E45E9D10CE0236885
:101500001970236819780A2903D1EBE72368197049
:10151000236801332360EEE7B6FBF8F0BDE8F087FF
:10152000C82E0000E82E0000082F000073B50093BD
:10153000054B06460D461446186831462A46234692
:10154000FFF79CFF02B070BD3001001070B50E4B6C
:101550000E4D0024ED1AAD101E46AC4204D056F8D4
:10156000242090470134F8E701F05AFB084D094B5D
:101570000024ED1AAD101E46AC4204D056F82420CB
:1015800090470134F8E770BD3801001038010010B1
:101590003C0100103801001002440346934202D07F
:1015A00003F8011BFAE7704730B500293CD051F829
:1015B000042C0B1F1D49002AB8BF9B180A680C4653
:1015C00012B95A600B6030BD93420DD21968581899
:1015D000904203D15A581144426819605A602360FE
:1015E00030BD994203D80A4651680029F9D11468E0
:1015F00015199D420AD11B682344D01888421360F4
:1016000012D10868034413604B680CE002D90C2324
:10161000036030BD18681C188C4203D10C684968FF
:10162000204418605960536030BD00BF540300105F
:1016300070B5CD1C25F0030508350C2D38BF0C25E1
:10164000002D06463FDB8D423DD3214B1C681846DA
:101650002146A1B10B685B1B0ED40B2B03D90B6089
:10166000CC18CD501FE08C4202D1626802601AE0B3
:101670004B6863600C4616E00C464968E9E7154C78
:1016800023681BB9304600F0A7F820602946304691
:1016900000F0A2F8431C014615D0C41C24F003043A
:1016A00084420AD1256004F10B00231D20F00700BD
:1016B000C31A0BD05A42E25070BD3046611A00F096
:1016C0008BF80130EED10C233360002070BD00BFD9
:1016D00054030010500300100FB40A4B13B51C68DC
:1016E00024B1A36913B92046FFF712FE05AB2046CB
:1016F000A168049A019300F0B5F902B0BDE810406A
:1017000004B070473001001070B50E46054618B1A0
:1017100083690BB9FFF7FCFDAC68A389190701D5F4
:10172000236983B92846214600F066FF58B14FF07F
:10173000FF3070BD002B0EDB236816F8012C1A70E9
:10174000236801332360A36816F8012B013BA360D3
:10175000002AEFD117E0A269934209DB236816F84B
:10176000012C1A70236819780A29EAD1284602E068
:1017700016F8011C2846224600F0D8FEB0F1FF32D0
:1017800050425041D2E7002B16DAA269934208DB9F
:1017900023680A221A7023681978914210D12846CA
:1017A00001E028460A21224600F0C0FEB0F1FF33D6
:1017B0005842584130B1BAE723680A221A702368A8
:1017C000013323600A2070BD024B01461868FFF701
:1017D0009BBF00BF3001001038B5064C0023054602
:1017E00008462360FEF7E6FD431C02D1236803B1DF
:1017F0002B6038BD600300100FB40A4B13B51C6892
:1018000024B1A36913B92046FFF782FD05AB20463A
:101810006168049A019300F00BFD02B0BDE810402E
:1018200004B070473001001010B50C46B1F90E102D
:1018300000F0FCFF002803DB636D0344636510BD0B
:10184000A38923F48053A38110BD2DE9F0411D46E7
:101850008B890746DB050C46164605D5B1F90E10F7
:101860000022022300F046FFA389384623F4805368
:10187000A381B4F90E1032462B46BDE8F04100F0CA
:10188000A9BE10B50C46B1F90E1000F033FF431C91
:10189000A38903D123F48053A38110BD43F4805363
:1018A000A381606510BDB1F90E1000F013BF0346AF
:1018B00013F8012B002AFBD1181A013870472DE9C3
:1018C000F0410C46496B04F1440399421AD14FF49C
:1018D0008061FFF7ADFE18B94FF0FF30BDE8F08131
:1018E0004FF48063A36394F84630606380F8FF335D
:1018F00094F8453000F2FD30437094F844300370A2
:10190000206012E0A66B77003A4600F068FF0546BB
:101910000028E1D000EB060840462946324600F098
:1019200055FFC4F800806563A7630020BDE8F0811F
:101930004B1C70B505460E46144602D14FF0FF30E1
:1019400070BD18B183690BB9FFF7E2FC2E4B9C42C6
:1019500001D16C6808E02D4B9C4201D1AC6803E0DA
:101960002B4B9C4208BFEC68A38923F020039BB259
:10197000A3819BB2590713D4DA06DFD51B070BD519
:1019800028462146FFF734FC0028D7D1A389A06060
:1019900023F00803A381A061A38943F00403A3817A
:1019A000636BF6B262688BB1A36B9A4207DA236865
:1019B0005A1E226003F8016C6368013320E0284658
:1019C0002146FFF77CFF0028F1D0B7E721692368A3
:1019D00051B18B4208D913F8010CB04204D1013B3C
:1019E00001322360626070BDE36304F1440363630A
:1019F0000323A3632346226403F8466F2360012375
:101A00006360304670BD00BFC82E0000E82E0000A5
:101A1000082F0000936810B5013B002B936005DA96
:101A20009469A34208DBCBB20A2B05D01368581C7B
:101A300010601970C8B210BDBDE8104000F076BD4E
:101A4000F8B505460E461446D718BC4208D02846BD
:101A500014F8011B3246FFF7DDFF431CF5D100E00F
:101A60000020F8BD2DE9F0439DB00D4617460393C5
:101A7000064618B183690BB9FFF74AFC734B9D42C8
:101A800001D1756808E0724B9D4201D1B56803E051
:101A9000704B9D4208BFF568AB8918070AD52B69C2
:101AA00043B10023099320238DF8293030238DF88A
:101AB0002A3038E03046294600F09EFD0028F0D05C
:101AC0004FF0FF30BEE0039A111D12680391002A07
:101AD00070DB0792013423782E2B7DD05E4F217866
:101AE0003846032200F064FE30B1C71B4020B840E6
:101AF000049B013403430493217858480622671C51
:101B00008DF8281000F054FE002800F08980544B16
:101B1000002B7CD1039B073323F007030833039387
:101B2000099B434409933B461C4613F8012B1AB901
:101B3000B4EB07090ED002E0252AF5D1F8E73046CC
:101B400029463A464B46FFF77BFF013075D0099B8B
:101B50004B4409932378002B6FD000234FF0FF32C2
:101B600004930793059206938DF853301A9304F16A
:101B700001093C4F4C4638462178052200F018FEFA
:101B800009F10109049B28B1C71B0120B840034398
:101B90000493EEE7D90644BF20228DF853201A079C
:101BA00044BF2B228DF8532022782A2A8BD0079B02
:101BB000214605E0524243F002030792049389E76D
:101BC0000C4622780131303A092A03D80A2000FB5A
:101BD0000323F5E707937EE763782A2B09D1039B5C
:101BE00002341A1D1B680392002BB8BF4FF0FF335D
:101BF0000BE0611C00230C4622780131303A092A9F
:101C000003D80A2000FB0323F5E7059366E703AB3F
:101C10000093304604A92A46134BAFF3008007E037
:101C200003AB0093304604A92A460F4B00F09EF800
:101C3000B0F1FF3F80467FF473AFAB895B063FF5A1
:101C40003FAF09981DB0BDE8F08300BFC82E00006B
:101C5000E82E0000082F0000362F00003A2F000069
:101C600000000000302F0000411A000030B513467C
:101C7000044A05460C46106829462246BDE8304015
:101C8000FFF7F0BE300100102DE9F84315461F465E
:101C90008A680B6906469A42A8BF13462B6091F8E2
:101CA00043200C46DDF820800AB101332B60236805
:101CB000990602D52B6802332B60236813F00609BE
:101CC0001DD094F843302268003318BF01239206D8
:101CD0001FD5E118302081F843005A1C94F84510B4
:101CE0002244023382F8431013E03046394604F1AF
:101CF00019020123C047013007D009F10109E26848
:101D00002B68D31A9945F0DBDBE74FF0FF30BDE8D5
:101D1000F8833046394604F14302C0470130F4D01D
:101D200023682A6803F00603E168042B08BFC2EBAE
:101D300001052369A2680CBF25EAE57500259A42D2
:101D4000C4BFC3EB0203ED184FF00009A9450ADA3E
:101D50003046394604F11A020123C0470130D4D07D
:101D600009F10109F2E70020BDE8F8832DE9FF47FA
:101D70000E7E80466E2E0C4691469A460C9D01F1D1
:101D8000430000F0A58011D8632E22D009D8002E80
:101D900000F0AF80582E40F0BF8081F845607B4A4C
:101DA0004FE0642E1ED0692E1CD0B5E0732E00F0DB
:101DB000A48009D86F2E2BD0702E40F0AD800B6818
:101DC00043F020030B6038E0752E21D0782E34D0FC
:101DD000A2E02B6801F142071A1D1B682A6081F8F6
:101DE00042309DE022682B6812F0800F03D01A1D4C
:101DF0002A601D6805E05106F9D51A1D2A60B3F95D
:101E00000050002D39DA2D236D4284F8433034E040
:101E100022682B6812F0800F03D01A1D2A601D68FB
:101E200004E05206F9D51A1D2A601D88237E574A00
:101E30006F2B14BF0A2308231BE07823544A84F82D
:101E400045302368296813F0800F01F104062E60E5
:101E500001D00D6802E05F06FBD50D88DE0744BFA8
:101E600043F0200323601DB9236823F0200323607F
:101E70001023002184F8431001E0444A0A236668D5
:101E8000002EA66003DB216821F00401216005B962
:101E90006EB104F14201B5FBF3F603FB1655555D37
:101EA0000F4601F801593546002EF4D100E00746EF
:101EB000082B0AD12368DD0707D5626823699A4297
:101EC00003DC302307F8013C013FC01B20612CE0FC
:101ED00009682B6811F0800F626904D0191D296010
:101EE0001B681A6005E04906F8D5191D29601B68B2
:101EF0001A8000232361074617E02B681A1D2A6009
:101F00001F683846FFF7D3FC63682061984288BF9A
:101F100023612369636005E004F1420784F84260AD
:101F200001232361002384F84330CDF800A040460C
:101F3000214603AA4B46FFF7A7FE013002D14FF01E
:101F4000FF301FE0404649463A462369D0470130FA
:101F5000F5D023689B0705D4E068039B9842B8BF7F
:101F600018460FE00025E268039BD31A9D42F3DA7E
:101F70004046494604F119020123D0470130DED022
:101F80000135F0E704B0BDE8F08700BF412F000045
:101F9000522F00002DE9F047ADF5247D0193002379
:101FA000469347939D4B0DF10C09A2939C4B07461A
:101FB0000C469046CDF82091A39398F80050002D40
:101FC00000F0248197490B688A462B445A7802F026
:101FD000080202F0FF03EAB16368002B10DD2368FA
:101FE000DAF8002019780A44527815070ED5479A76
:101FF00001330132479262682360013A6260EBE785
:10200000A39B3846214698470028E8D008F10106EE
:10201000B046D2E7252D08F101064FD145934393F1
:1020200098F801302A2B03D11023439308F10206BC
:1020300031783546A1F13003092B06F1010606D8A7
:10204000459B0A2202FB0313303B4593F0E7DFF880
:10205000DC810322404600F0ABFB40B1C8EB000836
:10206000012000FA08F0439B3546034343936E1C5E
:102070002D78672D0FD8652D78D25B2D54D005D8DB
:10208000002D00F0C580252D18D071E0632D57D0AC
:10209000642D3FD06CE0702D32D007D86E2D55D016
:1020A0003AD8692D64D10023449339E0752D31D09D
:1020B000782D29D0732D5BD102233FE06368002B7C
:1020C0000DDD23681A78AA4240F0A08001336268CF
:1020D0002360479B013A01336260479398E7A39BD3
:1020E0003846214698470028EBD04698002800F053
:1020F0008F80A38913F0400F18BF4FF0FF3089E0A5
:10210000439B43F020034393439B43F40073439367
:10211000102302E00A2300E008236E2D449301DC23
:1021200003230BE0042309E03146484600F020FC7D
:10213000439B064643F040034393012349931BE02E
:10214000439B43F0400343930023F7E7439AD006B1
:102150003FF55EAF12F0010F019A479B02F10401B7
:102160000191126814BF1380136051E70523E5E75E
:10217000032349930A2344936368002B03DD439BA5
:10218000590611D518E0A39B3846214698470028E8
:10219000F5D0AAE7479A013247926268013A002ACD
:1021A000626013DD013323602368DAF800201978B8
:1021B0000A4452781207EDD4499B022B0DDC3846B5
:1021C00043A9224601AB00F05BF819E0A39B384617
:1021D000214698470028E7D087E7042B06DC3846DD
:1021E00043A9224601AB00F0ABF809E00E4B002BEF
:1021F0003FF40EAF384643A9224601ABAFF300804F
:10220000012803D002287FF403AF6EE7469801E06F
:102210004FF0FF300DF5247DBDE8F0873119000047
:10222000652800003401001000000000362F000077
:102230002DE9F0410C4617461E46054618B1816946
:1022400009B9FFF765F80B4B9C4208BF6C6808D0D2
:10225000094B9C4208BFAC6803D0084B9C4208BFA6
:10226000EC68284621463A463346BDE8F041FFF780
:1022700091BE00BFC82E0000E82E0000082F00000D
:102280002DE9F04115468A6880460C4632B98A69C4
:10229000002A14BF4FF0FF3201228A602268D10663
:1022A00003D41A68111D196017680026A069E0B9E7
:1022B00023680136DA0604D42B6801371B7807F847
:1022C000013C2A686B6801322A60A268013B013A2E
:1022D0006B60A26012B3002BE8DCD4F8803140467A
:1022E000294698470028E1D018E0012807D12A683C
:1022F00011786269525C002ADAD1EEB10EE0022850
:1023000001D04EB10AE02A680C49127809680A44E3
:1023100052781307CCD5F4E701280DD0236813F0C9
:10232000100305D1E2680132E260A26902B13B709C
:10233000236900201E442661BDE8F08134010010AD
:102340002DE9F04F89B00C46984605A9734B0291D0
:102350008146164693E80700029B83E80700A369BD
:102360006F4A7049032B08BF1146A36803915A1E98
:10237000B2F5AE7F07D96FF4AE7503EB050A40F2F4
:102380005D13A36001E04FF0000A236804F11C070D
:1023900043F450632360BB460023326805A951F81B
:1023A000230011780222019300F002FA019B002819
:1023B00035D0012B0BD162682AB9082262602268ED
:1023C00042F400722260226822F4A0620BE0022B29
:1023D0000AD1226802F4C061B1F5007F1FD110213B
:1023E000616042F480722260A268511EA160B2B1A5
:1023F00032680BF10105511C316012788BF8002016
:102400007268013A002A726008DC0193D4F88021D6
:10241000484631469047019B002841D1AB460133E5
:10242000032BBAD163680BB90A23636063683E4922
:102430006069C91A00F09CFA5D464FF0000BA36872
:10244000002B2FD0326860691178405C50B330297E
:1024500021680BD1080509D50BF1010BBAF1000F6A
:102460000BD001330AF1FF3AA36006E021F41061BA
:1024700021601378013505F8013C7368013B002B9E
:10248000736003DD33680133336005E0D4F88031D5
:1024900048463146984728B9A368013BA360CEE778
:1024A0004FF0000B2368D9050DD5BD4209D915F8A9
:1024B000011CD4F87C3148463246984705F1FF3A72
:1024C0005546BD4226D0226812F010021BD12A7058
:1024D000636848463946039EB0472268D8F8003002
:1024E00012F0200F07D1D20705D51A1DC8F8002019
:1024F0001B68188004E01A1DC8F800201B681860CB
:10250000E3680133E3602369ED1BAB445B44236163
:10251000002000E0012009B0BDE8F08F642F00002A
:10252000D5290000D92A0000802F000070B50E4682
:102530001446054618B183690BB9FEF7E9FE224B34
:102540009C4201D16C6808E0204B9C4201D1AC68F0
:1025500003E01F4B9C4208BFEC68A369A360A389FA
:102560001A0709D523693BB123692068F6B2C01A5E
:10257000636998420FDB08E02846214600F03CF8EA
:102580000028F1D04FF0FF3070BD28462146FEF7FD
:102590002FFE0028F6D1A3680130013BA360236819
:1025A0005A1C22601E706369984204D0A389DB071D
:1025B00007D50A2E05D128462146FEF719FE002828
:1025C000E0D1304670BD00BFC82E0000E82E0000EC
:1025D000082F000038B5074C05460020206008464B
:1025E00011461A46FDF760FE431C02D1236803B171
:1025F0002B6038BD60030010324B70B51D68064675
:102600000C4625B1AB6913B92846FEF781FE2E4B67
:102610009C4201D16C6808E02C4B9C4201D1AC6813
:1026200003E02B4B9C4208BFEC68A28993B21907C8
:1026300020D4DD0605D4092342F040023360A28194
:102640003BE0580712D5616B41B104F14403994254
:1026500002D03046FEF7A8FF00236363A38923F06E
:102660002403A3810023636023692360A38943F0CB
:102670000803A38123694BB9A38903F42073B3F53D
:10268000007F03D03046214600F046F8A38913F0BE
:10269000010205D00022A26062695242A26103E0F9
:1026A000990758BF6269A26022694AB903F08000A5
:1026B00080B230B143F04003A3814FF0FF3070BDD2
:1026C000002070BD30010010C82E0000E82E000070
:1026D000082F000038B5064C002305460846236045
:1026E000FDF7CCFD431C02D1236803B12B6038BD3C
:1026F0006003001038B5074C0546002020600846EE
:1027000011461A46FDF732FE431C02D1236803B17D
:102710002B6038BD60030010F0B58B8991B09E0727
:1027200005460C4625D4B1F90E10002908DAA38914
:10273000002713F0800F14BF40264FF480660DE091
:1027400001AA00F041FA0028F1DB029F4FF48066F5
:1027500007F47047B7F500514F424F4128463146C4
:10276000FEF766FF60B9A3899A051DD443F0020302
:10277000A38104F14703236023610123636113E014
:102780000A4BAB62A389206043F08003A3812061E0
:1027900066614FB12846B4F90E1000F027FA18B15F
:1027A000A38943F00103A38111B0F0BD69120000B9
:1027B00010B5C9B202449042034605D01C780130DE
:1027C0008C42F8D1184610BD002010BD10B5002372
:1027D000934203D0CC5CC4540133F9E710BDF8B583
:1027E000064614460D4621B91146BDE8F840FEF7ED
:1027F0001FBF1AB9FEF7D8FE2046F8BD00F006FA52
:10280000A0420ED230462146FEF712FF074650B1D5
:1028100029462246FFF7DAFF30462946FEF7C4FE76
:1028200001E02846F8BD3846F8BD000038B5074C31
:10283000054600202060084611461A46FDF75CFD5B
:10284000431C02D1236803B12B6038BD6003001024
:10285000838903F00903092B01D1FEF7F3BC0020A3
:1028600070470000F8B50C46054618B183690BB9EE
:10287000FEF74EFD394B9C4201D16C6808E0384BA5
:102880009C4201D1AC6803E0364B9C4208BFEC6827
:10289000A2890023636093B29E065AD458071AD4C3
:1028A000D90605D4092342F040022B60A28150E0F2
:1028B0001A070BD528462146FEF79AFC002848D176
:1028C000A389A06023F00803A381A061A38943F03A
:1028D0000403A38110E0616B71B104F144039942D8
:1028E00002D02846FEF760FE236C00206063636020
:1028F00013B1E36B2360F8BD23691BB92846214659
:10290000FFF70AFFA789BEB2B3070FD00123A38147
:10291000154B1649186806F00906FEF775FD092ED5
:10292000A78103D128462146FEF7DEFB2269666AAD
:1029300022602846216A6369B047002860600BDC8A
:10294000A38917BF002243F0200343F040036260D5
:10295000A3814FF0FF30F8BD0020F8BDC82E000065
:10296000E82E0000082F00002C2F00005128000046
:10297000F0B50B785E2B02D04C1C002102E08C1CC1
:102980004B780121002281540132B2F5807FFAD1C7
:102990000BB9651E1BE0C1F10107FEB2C654621CF3
:1029A00012F8011C551E2D29144604D05D290DD0A6
:1029B00069B10B46F1E715785D2DFAD09D42F8DB41
:1029C0000133AB42C654FBDB0232E9E71546284629
:1029D000F0BD000084463F482DE9F04FD0F800805C
:1029E0000E46344614F8015B08EB0500407800F011
:1029F000080000F0FF0708B12646F2E72D2D03D1AD
:102A0000B41C7578012703E02B2D04BF7578B41C26
:102A100033F010000DD1302D08D1207800F0DF0008
:102A2000582851D165781023023402E0002B08BFEA
:102A30000A23002F0CBF6FF0004A4FF0004ABAFB88
:102A4000F3F903FB19AA0026304608EB050B9BF8A7
:102A500001B01BF0040F01D0303D0BE01BF0030B65
:102A60001BD0BBF1010F14BF4FF0570B4FF0370BCA
:102A7000CBEB05059D4210DAB6F1FF3F0AD0484581
:102A800006D801D1554503DC03FB0050012601E0C7
:102A90004FF0FF3614F8015BD7E7731C0CD1002F01
:102AA0004FF022030CBF6FF000404FF00040CCF815
:102AB00000302AB9BDE8F08F07B1404242B106B1FB
:102AC000611E1160BDE8F08F002B08BF0823B0E73E
:102AD000BDE8F08F3401001084463A482DE9F04FEC
:102AE000D0F800800E46344614F8015B08EB050070
:102AF000407800F0080000F0FF0708B12646F2E732
:102B00002D2D03D1B41C7578012703E02B2D04BFB4
:102B10007578B41C33F010000DD1302D08D1207819
:102B200000F0DF00582847D165781023023402E016
:102B3000002B08BF0A234FF0FF39B9FBF3F903FB61
:102B400009FA00266FEA0A0A304608EB050B9BF8E3
:102B500001B01BF0040F01D0303D0BE01BF0030B64
:102B60001AD0BBF1010F14BF4FF0570B4FF0370BCA
:102B7000CBEB05059D420FDA002E08DB484506D851
:102B800001D1554503DC03FB0050012601E04FF065
:102B9000FF3614F8015BD8E7002E05DA2223CCF8C3
:102BA00000304FF0FF3001E007B1404242B106B1C2
:102BB000611E1160BDE8F08F002B08BF0823BAE743
:102BC000BDE8F08F3401001038B5074C00230546EE
:102BD000084611462360FDF7DDFB431C02D1236844
:102BE00003B12B6038BD00BF6003001038B5064C40
:102BF0000023054608462360FDF700FB431C02D175
:102C0000236803B12B6038BD6003001051F8040C39
:102C1000002802DA04390B581844043870470000C1
:102C2000F8B500BFF8BC08BC9E467047F8B500BFB9
:102C3000F8BC08BC9E4670470D0A0D0A4743433452
:102C40004D42454420546573742053756974650D75
:102C5000000000005374616E6461726420492F4F5C
:102C600020556E69742054657374730D0000000064
:102C70005465737420313A207072696E7466282925
:102C800020746573740D00005465737420323A200B
:102C90007363616E66282920746573740D000000EB
:102CA0002020202054797065206E756D6265722039
:102CB000616E6420707265737320456E7465723A3C
:102CC00020000000256400000A20202020596F7594
:102CD000722076616C7565207761733A2025640DEA
:102CE0000A0000005465737420333A2066707269DC
:102CF0006E7466287374646F75742C202E2E2E29C2
:102D000020746573740D0A005465737420343A207E
:102D1000667072696E7466287374646572722C20B2
:102D20002E2E2E2920746573740D0A005465737459
:102D300020353A20667363616E6628737464696E29
:102D40002C202E2E2E2920746573740D0000000097
:102D50005465737420636F6D706C6574650D00004D
:102D600016C00920000001400100000047C00920F2
:102D70000000014002000000FFFFFFFFFFFFFFFF18
:102D80000000000001C0092000C00940020000004E
:102D900003C0092000C00040010000000BC0092052
:102DA000008009400100000010C00920000001401F
:102DB000010000001AC0092000C009400300000003
:102DC00041C00920000001400200000049C0092064
:102DD00000800940020000009DC0092000C0094099
:102DE00003000000FFFFFFFFFFFFFFFF00000000E8
:102DF00000C0092000C009400200000002C00920F4
:102E000000C00040010000000AC009200080094005
:102E1000010000000FC00920000001400100000077
:102E200019C0092000C009400300000040C009206B
:102E3000000001400200000048C009200080094055
:102E4000020000009CC0092000C0094003000000EF
:102E5000FFFFFFFFFFFFFFFF0000000011C0092080
:102E6000000001400100000042C0092000000140B4
:102E700002000000FFFFFFFFFFFFFFFF0000000058
:102E8000636F756C64206E6F742070696E6F7574FB
:102E90000000000070696E6D6170206D69732D6DAA
:102EA000617463680000000070696E6D6170206E6F
:102EB0006F7420666F756E6420666F722070657225
:102EC0006970686572616C0000000000000000001D
:102ED00000000000000000000000000000000000F2
:102EE00000000000000000000000000000000000E2
:102EF00000000000000000000000000000000000D2
:102F000000000000000000000000000000000000C1
:102F100000000000000000000000000000000000B1
:102F2000000000000000000043000000D00000107E
:102F3000232D302B2000686C4C00656667454647A2
:102F40000030313233343536373839414243444525
:102F50004600303132333435363738396162636494
:102F600065660000822F0000852F0000882F00007A
:102F7000412D46612D66383930313233343536379C
:102F80005D002B2D003030007858000020202020DC
:102F90002020202020282828282820202020202009
:102FA00020202020202020202020202088101010E9
:102FB0001010101010101010101010100404040441
:102FC00004040404040410101010101010414141B6
:102FD0004141410101010101010101010101010121
:102FE00001010101010101101010101010424242B4
:102FF00042424202020202020202020202020202F1
:103000000202020202020210101010200000000052
:1030100000000000000000000000000000000000B0
:1030200000000000000000000000000000000000A0
:103030000000000000000000000000000000000090
:103040000000000000000000000000000000000080
:103050000000000000000000000000000000000070
:103060000000000000000000000000000000000060
:103070000000000000000000000000000000000050
:103080000000000000000000000000000000000040
:103090006803001000D8B80500000000C82E00002A
:1030A000E82E0000082F00000000000000000000D3
:1030B0000000000000000000282F000000000000B9
:1030C0000000000000000000000000000000000000
:1030D00000000000000000000000000000000000F0
:1030E00000000000000000000000000000000000E0
:1030F0000000000000000000D00000108B2F000036
:08310000F1000000CD00000009
:04000003000003DD19
:00000001FF
