:1000000000200010C10000004D1900004F19000031
:1000100000000000000000000000000000000000E0
:100020000000000000000000000000005119000066
:1000300000000000000000005319000055190000E6
:1000400057190000571900005719000057190000F0
:1000500057190000571900005719000057190000E0
:1000600057190000571900005719000057190000D0
:1000700057190000571900005719000057190000C0
:1000800057190000571900005719000057190000B0
:1000900057190000571900005719000057190000A0
:1000A0005719000057190000571900005719000090
:1000B0005719000057190000571900005719000080
:1000C0000749084A084B9B1A05DD002408591051BE
:1000D00004349C42FADB054880470548004700008D
:1000E0006C680000C0000010BC020010F5000000A9
:1000F0007D03000010B5344B8E22920099582020C9
:100100008143995082B000221A620192019BC72B51
:1001100006D8C046019B01330193019BC72BF8D938
:10012000294801230022036401214364426443649B
:10013000436C254A1942FBD0232393608E239B00F6
:10014000D15880208143D150141C0120E3681E4AFD
:1001500001211842FAD00323136700235167141CAE
:10016000536701205167636F174A01211842FAD083
:100170008E2391679B00D45814482040D050D45807
:1001800013482040D050002391640120D164D364EF
:10019000D164D36C0C491842FBD023230B6101209E
:1001A0004B69094A1842FBD0C0230021D150D150DD
:1001B000C8230121D1508023D05880214902014316
:1001C000D15002B010BDC04600800440FFFBFFFFCD
:1001D000FFFEFFFF00000000000000000000000024
:1001E000000000000000000000000000000000000F
:1001F00000000000000000000000000000000000FF
:1002000010B5064C2378002B07D1054B002B02D0EC
:10021000044800E000BF0123237010BDBC020010A1
:10022000000000006868000008B5084B002B03D0F0
:100230000748084900E000BF07480368002B03D0C7
:10024000064B002B00D0984708BDC04600000000B8
:1002500068680000C0020010BC020010000000002E
:1002600010B5034B041C036000F0BEFC201C10BD45
:10027000B862000000000000F8B5204D1E4C0023BD
:1002800046469846264B4F469946C0B41C4E1D4FD5
:100290001D4A1E4B301C391C02F012FB02F0A0FD5F
:1002A000194A1A4B06B2291C201C02F009FB02F065
:1002B00097FD311C02B2484601F012FA032398441C
:1002C000184801F073FA404602F0BEFD104A114B87
:1002D00002F0F6FA104A114B01F0CEFF041C0D1C7F
:1002E00003F06EFD061C0F1C201C291C03F0BCFD36
:1002F000041C0D1CCCE7C0460000000000000000FC
:10030000000000000000F03F00000000000024405A
:100310001F85EB51B81E09400000000000806640B8
:10032000D80200106F12833A70B50F4C84B00125CB
:1003300000260022009501950296201C00210B4BFF
:1003400001F0B4F80A4B201C2360B723E6540121C6
:10035000B623E55400F028FB201C0649064A01F0AC
:10036000D7FD04B070BDC046D802001034120000A2
:100370000864000061020000C00000100748084A3D
:1003800008B5121A002102F0B0FF00E000BF02F031
:100390007DFFFFF771FF01F0CDF9C046BC020010F0
:1003A0008005001008B50123022802DD01F082FA61
:1003B000031C181C08BDC04608B5012001F0BAF99D
:1003C0007047C046002070470020704700207047EB
:1003D00000207047002070470020704700207047C1
:1003E000002070477047C046002070477047C046E5
:1003F00000207047002070470020704700207047A1
:1004000008B502226423C254002365228354662265
:1004100083540368DB6B984708BDC0467047C046ED
:100420007047C04600487047FC0000100048704705
:10043000CC000010004870471801001000487047B9
:10044000F400001000487047C400001000487047D6
:100450000001001070B5104D061C2B68DB0702D59B
:100460000E4C201C70BD281C01F059FD0028F7D04F
:100470004423F35A094C281C23721B0A6372462337
:10048000F35AA3721B0AE3724823F35A23731B0A1D
:10049000637301F053FDE4E794030010E0000010E3
:1004A00070B55023C25A041C1312022B2AD0032BFE
:1004B00020D0012B01D0002070BD03681B6D984730
:1004C0000028F8D02368201C1B6D98470578122D52
:1004D000F1D12368201C1B6D98474678012EEAD184
:1004E0002368E5651B6D201C98476023A065E654D2
:1004F0000120E1E7FF231A40052ADCD82E4B9200A9
:100500009B589F4603685B6D98470028D3D02368AB
:10051000201C5B6D98470378092BCCD12368201CE5
:100520005B6D98474378022BC5D12368201C5B6D17
:100530009847236885785B6D201C9847C3781B0219
:100540001D432368E5655B6D06E003685B6E9847B5
:100550000378E36523685B6E201C984701226023C3
:10056000A065E2540120A7E703689B6D98470378D4
:10057000E36523689B6DEFE70368DB6D98470378BD
:10058000E3652368DB6DE7E70368DB6E9847037874
:10059000E3652368DB6EDFE703689B6E98470378AB
:1005A000E36523689B6ED7E703681B6E9847037863
:1005B000E36523681B6ECFE7646200000B781F20A1
:1005C000DB0913700B785B069B0F53700B780340AD
:1005D00093704B78D370CB7888781B020343938059
:1005E0004B7908791B020343D380CB7989791B02AD
:1005F0000B4313817047C04670B56023C35C90B055
:10060000041C002B02D0002010B070BD694600F021
:1006100037FBE36D021E9A42F5D8A06D9D1A811832
:10062000A165E565002D10D16226A35D002B05D0E4
:100630002368201C5B6C69469847A555201C002147
:10064000002200F039FB0120DEE7201C00F002FB55
:100650000120D9E710B5041CFFF7CEFF002802D116
:10066000201C00F07FFB10BD70B5C56D041C002D73
:100670000FD16126835D002B29D16225635D002B9C
:100680001CD1201C00F0E6FA201C00F013FB012016
:1006900070BD6023C35C0020012BF9D1402D00D92F
:1006A00040252A1C201CA16D00F006FBA26D012034
:1006B0005319A365E36D5D1BE565E9E72368201C1D
:1006C0005B6C00210022984700236355D9E7002185
:1006D000002200F0F1FAA5556225635D002BD0D011
:1006E000ECE7C04610B5041CFFF7BEFF002802D19E
:1006F000201C00F037FB10BD10B55023C15C6523F2
:10070000041CC15400290FD003689B6C9847031C3C
:100710000020002B00D110BD201C00F08BFA042219
:100720006423E2540120F6E700F086FA03226423F2
:10073000E2540120EFE7C04608B56423C35C042BF4
:1007400004D05223C25A0023002A13D14E23C35C83
:10075000022B11D15023C25A0023002A0AD152235E
:10076000C35A0F2119401B06DB0F4900C91800F0BE
:10077000BDFB0123181C08BD0023FBE708B564235B
:10078000C35C042B04D05223C25A0023002A13D185
:100790004E23C35C022B11D15023C25A0023002ADE
:1007A0000AD15223C35A0F2119401B06DB0F4900FF
:1007B000C91800F0F7FB0123181C08BD0023FBE754
:1007C00038B56423C35C041C042B04D05223C35AE1
:1007D0000020002B1ED14E23E35C012B21D0002BE7
:1007E0001BD0022B17D15223E35A0F22D90901251E
:1007F00013405B002940C918201C00F02FFC0C4B53
:10080000002812D01D80A3650223E3650122602326
:10081000E254012038BD0020FCE7054B01221A807C
:10082000F1E7034B00221A80EDE71880EBE7C046A2
:100830009003001070B54D23C35C041C002B0BD13A
:100840004F23C35C0B2B07D8254A9B00D3589F46E8
:100850006423C35C042B3BD0002070BDFFF7B0FFC6
:10086000FBE7FFF78BFFF8E7FFF766FFF5E750259B
:10087000415D00F087FA635B002B24D102226423E0
:10088000E2540120E9E7FFF70BFEE6E70368522692
:100890005025815B425DDB6C98470028DCD0A25B71
:1008A0006823E252625B6A23E2540120D5E7031C0D
:1008B0006533A36560220123E3650120A354CCE7DF
:1008C000FFF71AFFC9E703226423E2540120C4E7BB
:1008D0006823C25A5223C252031C6A33E9E7C04656
:1008E0007C62000010B590B0041C694600F0A6F9C7
:1008F000221C4C32201C6946FFF760FE0023602258
:10090000A365E365A3546122A3546222A354236820
:10091000201C1B6C9847002824D05423E35A002B3A
:100920000AD1E36D002B1BD1201C0021002200F016
:10093000C3F9012010B010BD4C22A25C012A0BD0DB
:100940006022A25C002A0BD1E26D9A4208D1201CE1
:1009500000F080F90120EDE76022A15C012908D0B8
:100960000020E7E7201CFFF765FF0028D5D1002015
:10097000E0E7E26D9A4205D9E365201CFFF774FEBB
:100980000120D7E79A42F8D29306F6D16123E154C9
:10099000F3E7C04610B5041CFFF7A4FF002802D1FE
:1009A000201C00F0DFF910BD38B50D1C041C00F050
:1009B0002DF9002D03D06422A35C042BFCD138BD9B
:1009C0004C30704708B5002300F078FB08BDC046E6
:1009D000F8B50368051C5B6D0E1C9847002806D00F
:1009E0002B68281C5B6D98470378092B01D00020E9
:1009F000F8BD2B68281C5B6D98474378022BF6D115
:100A00002B68281C5B6D98472B6884785B6D281CCD
:100A10009847C7783F0227430B2FE8D92B68281C3B
:100A20005B6D9847041C093408E02378281CE418FF
:100A30002B685B6D9847C0198442D8D26378B34263
:100A4000F3D1201CD4E7C046F8B5041C161C1D1CAD
:100A50000F1C00F053F8094B012208332360442394
:100A6000E7524623E6524823E5526423E25400232A
:100A70006522A3546622201CA354F8BDB062000076
:100A800008B500F039F9013843425841C0B208BDF9
:100A900070B50D1C0499041C8B4203D86420205CA3
:100AA000042801D0002070BD201C291C00F07CF916
:100AB0000128F7D16426201C291C00F0E7F9012841
:100AC00003D043425841C0B2EDE7A35D042BF8D1F7
:100AD000F1E7C0467047C0467047C0467047C04601
:100AE0007047C0467047C0467047C04610B50023E7
:100AF000CC5CC45401339342FAD110BD2B4B70B57A
:100B0000802103602A4B8022C90399502021C160B3
:100B1000242141612821C1612C2141623021C1621F
:100B2000342141633821C1631C23224943600123DE
:100B3000836003618361036283620363836303648D
:100B40008B611D4B041C99581C481D4D0026014308
:100B500099501C482E6000F029FE1B491B4A0B6867
:100B60001B48FF331B0A1B0213601A1C8032AB6048
:100B70000260101C88300860910D80329202890555
:100B8000120CE9601E609E605A60124B124AEE62BF
:100B90001A601B6816202B60104B11496B62114BB9
:100BA0001C6000F0A7FD201C70BDC046386300002B
:100BB00000E100E0004004400080044000400008E4
:100BC000000008409A99993E300100104C04001032
:100BD000400400104404001080000200030000C024
:100BE0002113000098030010054B00220360054B01
:100BF00080211A60044AC9038023D1507047C0463F
:100C0000386300000000084000E100E0064B80224D
:100C1000D2031A60054B8022196852020A431A60F7
:100C20001A68034B1A60704700E100E044040010AA
:100C3000000008407047C0467047C04608B5044BE6
:100C4000081C196808228031FFF750FF08BDC04614
:100C500040040010074A084B126808499202120C1F
:100C60001B680A43110A1A705970110C120E997000
:100C7000DA707047400400104C04001000004080FF
:100C80000A4B10B51B689C78DB7824041B061C43B8
:100C9000A4014023A40D1C1B054B1B6804D0081C99
:100CA000221C191CFFF722FF201C10BD4C04001051
:100CB000400400107047C04638B50D4B141C1D6829
:100CC0004035002A02D0281CFFF710FFAD02802219
:100CD0002D0C084B1206A4052A43A4091B682243C5
:100CE000110A1A725972110C120E9972DA7238BD09
:100CF000400400104C04001030B5164C0123E56987
:100D00000020CD402B4202D0A069C8401840124CB0
:100D10000B01E318DC68114B49101D6880000B01C2
:100D200029180F48802500682D068002000C054315
:100D3000A407900580092A1CE40FA406024322435D
:100D4000CA54100AC918130C120E48708B70012077
:100D5000CA7030BD000008409C0300104C04001015
:100D600040040010064B00221B6820211A725A72A0
:100D70009A72D9721A705A709A70D9707047C046B8
:100D80004C040010064B7F221868904318601868C6
:100D90000A4002431A601A68024B1A607047C04644
:100DA0004404001000000840F8B54F464646C0B461
:100DB0001C1C002A0CD08B1E0220072B04D8304D9F
:100DC0000E01AB59A34205D20CBC90469946F8BD22
:100DD0000220F9E72B480123C769CF40BC46002712
:100DE000B84667463B4203D08069C84003409846F6
:100DF000254B4F101B6840463F01DF198300FF1849
:100E00007B7A387A1B020343B87A00040343F87AEA
:100E1000000603430220002BD6DB03209B00D3D423
:100E200089000B1C43449B00EB1889465868002C32
:100E300021D1AE19F268F3685207D20FD206980793
:100E400002D58023DB041A434B4643449B00ED1834
:100E50006968A4058023A4091B0689022343090CA1
:100E60000B4313431A0A3B727A721A0C1B0EBA72A6
:100E7000FB720120A8E7111C221CFFF737FED8E700
:100E80009C030010000008404C04001010B5022024
:100E9000092900D910BD01230B42FBD011480022C3
:100EA000C469CC40234202D08269CA401A400E4B2A
:100EB00002321868491092000B018118CA5CC918E7
:100EC0004B781B0213438A7812041343CA78120624
:100ED000134305D49A0001D50320DBE70020D9E7AE
:100EE0000120D7E7000008404C040010CB072BD4AA
:100EF0002B4B49101B68090159184A780B781202CC
:100F00001A438B7880201B041A43CB7880051B067C
:100F10001A430243130A4B70130C0A708B70120EA3
:100F20004B79CA700A791B0213438A79120413435E
:100F3000CA791206134303431A0A0B714A711A0C39
:100F40001B0E8A71CB717047154B49101B68090144
:100F50005B18597A1A7A090211439A7A802012048E
:100F60001143DA7A80051206114301430A0A5A72C4
:100F70000A0C19729A72090E5A7BD972197B1202E5
:100F80000A43997B09040A43D97B09060A430243B1
:100F9000110A1A735973110C120E9973DA73D2E78E
:100FA0004C04001030B52B4C0123E269CA401A40B2
:100FB00017D01A1C0A4022D027484A100068120194
:100FC00082180020107250729072D0721073507399
:100FD0009073D073A469CC4023402ED01023D373D8
:100FE0000CE00B404910002B1DD11B4A090112686F
:100FF0008B5451184B708B701023CB7030BD164D35
:1010000048102D6800012818027042708270C2706A
:10101000027142718271C271A469CC40234012D026
:101020001023C371EAE70C4B09011B685918102300
:101030000A724A728A72CB72E0E713725372937229
:101040001023D372DAE70370437083701023C370E8
:10105000D4E7C046000008404C040010154A0123A4
:101060009269CA400B420AD0491013421AD0124A60
:10107000090112685118C87B4009184009E049105D
:10108000134207D10C4A090112685118C878400967
:1010900018407047084A090112685118C879400978
:1010A0001840F6E7044A090112685118C87A400945
:1010B0001840EEE7000008404C040010F0B544462C
:1010C0005F4656464D46F0B48C1E83B0072C2DD893
:1010D000244E254F3468BB463F34A409A40115199A
:1010E000BD4223D8214FB8460F01B946C446CC446F
:1010F00067467C6001241C4220D13F35AD09AD011B
:10110000AA46AD1801955D4510D80425AB46E344C9
:1011100057465D466F60019F65462A60EB60144B41
:101120003760DA698C402243DA6112E0002003B0B4
:101130003CBC90469946A246AB46F0BD4F4647445C
:101140003A606246D3600A4B3560DA698C40A2434C
:10115000DA61074B5A6A14435C62FFF723FF0120F0
:10116000E5E7C0463C040010004800209C03001046
:1011700000000840F8B5634B8022196A4F46464686
:10118000D205C0B4051C114268D15E4B1A6A002A10
:1011900000DA6FE05B4B0122196A0A421AD01A6228
:1011A00080201A684000024249D0574A0021126844
:1011B000117051709170D170117251729172D1721F
:1011C00002221A62514A1268104318602B68281CC8
:1011D0005B6898474B4B0222196A0A4238D14C4F40
:1011E00002244C4EB8460FE04246126840106B682D
:1011F00010189847002803D0336849468B43336062
:10120000013408350A2C16D03E4A0123116AE14008
:101210000B42F5D0191CA14011623268A8680A433C
:10122000894632600342DFD03B68401018180168DD
:101230006A688B58DDE70CBC90469946F8BD2B6870
:10124000281C9B6898472F4B0222196A0A42C6D075
:101250001A622B68281CDB689847C0E71A62596835
:10126000036849059B69490D9847264B1A6A002A6D
:1012700000DB8FE7802212061A621968802292042E
:10128000114206D0214909680A431A601B68990374
:1012900032D41C4B80221968D204114200D179E764
:1012A0001A49281C09680A431A602B6800215B69E7
:1012B0009847154B00201C68002210344021231849
:1012C00010301A705A709A70D9701A715A719A71D6
:1012D000D9711A725A729A72D9721A735A739A73AE
:1012E000D9734028EBD10C4B281C1A680B4B1A60A1
:1012F0002B681B6898474DE72B68281C5B69012108
:101300009847C6E7000008404C0400104404001051
:101310009803001048040010300100103C04001035
:1013200008B5024B1868FFF725FF08BD98030010A9
:101330007047C04610B50368041C5B6F98476C2368
:10134000E05A10BD004870479401001000487047F3
:101350007C01001038B5051CFFF732FB4378041CF4
:10136000002B1ED1C378062B30D183881B12212B72
:101370002ED0222B2AD12B68281C5B6F984700287F
:1013800034D02B68281C1B6F984700282ED02B6860
:10139000281C1B6F98472B6820615B6F281C98479F
:1013A0001EE00020012B10D1E278092A0DD1A1887E
:1013B0007422A9542289012001322A673F22226126
:1013C00075350022E5602275A37538BD0020FCE765
:1013D000281C2121FFF7FCFA00280AD009232361E9
:1013E0000123E060237501206378DBE76378002048
:1013F000D8E76378D6E7C04670B50D4C051C236866
:10140000DB0705D50B4E1C226C23301CEA5270BD45
:10141000201C00F084FD074E0028F4D0B523EB5CBF
:10142000201C3374B423EB5CB37500F087FDEAE74E
:10143000540400103401001010B5041C00200129D0
:1014400000D010BD03214022201CFFF7BBFA02216F
:101450004022201CFFF7B6FA201C02214022FFF791
:101460000FFB0120EDE7C04670B50E4C061C23684B
:10147000DB0702D50C4D281C70BD201C00F04FFD71
:101480000028F7D03368301C1B6F9847064D6876EC
:101490003368301C1B6F9847000AA876201C00F0A8
:1014A0004DFDE8E75004001050010010F8B50F1C86
:1014B000191C06AB041C161C08A81A8807AB1B884D
:1014C0000578201CFFF7C0FA074B08332360B423CC
:1014D000E754B523E654002D03D0201C0121FFF76B
:1014E00063FA201CF8BDC0467863000000B50B68A5
:1014F00083B00A1D402100910321FFF7C9FA03B010
:1015000000BDC046B623C35C012B06D0002B09D119
:1015100041226C23C2520448704734226C23C252C9
:101520000248F9E70020F7E79C0100100C020010C8
:1015300070B50E4C061C2368DB0702D50C4D281C29
:1015400070BD201C00F0EBFC0028F7D03368301C85
:101550001B6F9847064D68763368301C1B6F9847A1
:10156000000AA876201C00F0E9FCE8E75804001007
:10157000E0010010F0B54D465F4656464446F0B4D3
:1015800093B0914600271CAAD757B622825C061C4E
:101590000D1C002A29D0012A1FD107221A407F42A0
:1015A0009046FFB201AC7F2933DD7F2000228346C5
:1015B000924603E07F3D2DB27F2D2ADD43465846FB
:1015C0002371607152460423301C211CA271E77103
:1015D0002360FFF78BFF0028ECD1002013B03CBC48
:1015E00090469946A246AB46F0BD01A9484688718F
:1015F00048460212CA71072213400D717F422D1214
:101600004B72301C06234D710F720193FFF76EFF72
:10161000E4E7281C803019DA8022002393469A469A
:1016200004E080352DB22A1C80320FDA404620714A
:1016300004205A4653462060211C301C6271A3715D
:10164000E771FFF753FF0028EBD1C6E74B467F2B2E
:101650001ADD00207F228346924605E04B467F3B01
:1016600018B281467F280FDD4346584623716071CA
:1016700052460423301C211CA271E7712360FFF73E
:1016800035FF0028EAD1A8E74A4680321ADA00235B
:1016900080209B46824605E04B46803318B2814647
:1016A00080300FDA4246504622715B46A071042218
:1016B000301C211C6371E7712260FFF717FF0028BF
:1016C000EAD18AE74B464246A371301C0423211C11
:1016D00022716571E7710193FFF708FF7EE7C0464D
:1016E00010B5B72382B00024C35C0094FFF742FF1B
:1016F00002B010BD0C4B03221B6830B51340012B08
:101700000CD08023094C5B05F0252D065A19126870
:1017100004C3A342F8D1044B01221A60044B800099
:10172000C018016030BDC04600800440C0000010F9
:101730004000001038B50B4C051C2368986801F078
:10174000ABFC2368D86801F0A7FC00F00DF8002876
:1017500005D1002D00D1FEE700F080FAFBE700F094
:1017600007F8F6E7AC02001008B500F00DF808BD68
:1017700030B585B06D461824201C291CABBE041C56
:10178000201C05B030BDC046014B18687047C046EC
:101790004002001038B5051C00F03AFA041C00F0B5
:1017A00037FA031BAB42FAD338BDC04608B504492B
:1017B00000F018FC00F040FDFFF7ECFF08BDC0464C
:1017C0000024744908B5FA239B005843FFF7E2FF51
:1017D00008BDC04608B503481321122200F07AF96B
:1017E00008BDC0467405001008B5002302280ADDB4
:1017F0000338074A810088588B50002805D00368B9
:101800005B689847031C181C08BD01235B42FAE77C
:101810005C040010F8B50C1C171C022812DC104BDD
:101820001B68002B01D1FFF7D5FF002F08D00D4D0D
:10183000E6192178281C013400F0B2F9B442F8D13D
:10184000381CF8BD0338084B8000C058002803D06E
:1018500003681B689847F4E701204042F1E7C0465F
:101860005C050010740500105C04001010B50C1C21
:10187000022809DC0C4B1B68002B0FD00B4800F032
:1018800087F92070012010BD0338094B8000C05833
:10189000002806D003689B689847F4E7FFF79AFF93
:1018A000ECE701204042EEE75C05001074050010F3
:1018B0005C04001008B5031C0120022B08DD033B6B
:1018C000054A9B009858002803D00368DB689847B6
:1018D00008BD01204042FBE75C04001008B5031C72
:1018E0000020022B08DD033B05489B001858002808
:1018F00003D003681B69984708BD01204042FBE7FD
:101900005C04001008B5022804D880239B014B60BA
:10191000002008BD01F004FB0923036001204042C0
:10192000F7E7C046074A13681818EFF308818842A2
:1019300002D21060181C7047034B0C2201201A6061
:101940004042F8E7440200107C050010FEE7FEE785
:10195000FEE7FEE7FEE7FEE7F0B544465F46564683
:101960004D46F0B4594A8DB08846982301210B901A
:10197000D150574B41461B680C01181C211C089381
:1019800000F0E0FA80B20490211C089800F01EFBE1
:101990001020002967D0089CC34664000A94089C64
:1019A000A400099444460794099C03940A9C00945B
:1019B000089C029401240194069400240594019C3F
:1019C000079FE4B2A24600250026009C002C69DB9C
:1019D0000398391C00F0B6FA019C6419A146440929
:1019E00001346408A4B2002C55D102210224002E37
:1019F00001D10124211C4A4651430298C90000F03C
:101A0000A1FA013040084346C01AC11740184840A7
:101A1000584506DA404551D053468346069305960D
:101A200004940135EEB24744B245CED80023019C60
:101A30000F2C14D0029C0899079A64180294019CF8
:101A40000A9901340194009C641800940999039C3C
:101A500064180394141C44440794002BAFD0069CD4
:101A60002001059C20430B9C80222368049CD9689C
:101A70001143D960210A89B25960FF2121401960C0
:101A80009862D9689143D9600DB03CBC90469946A4
:101A9000A246AB46F0BD002EACD0012CAAD8022144
:101AA0000224A8E70098391C00F04CFA019C641944
:101AB000A146040901346408A4B294E75246C3461F
:101AC0000692059604940123B1E7C04600800440C5
:101AD00048020010F8B5284B4F464646C0B4041CD7
:101AE0000F1C081C191C161C994600F03DF9234BCD
:101AF000051C191C301C984600F036F9011C281CE6
:101B000000F020F91E4A80232060051C8021D05857
:101B100049010143D1500123AB60962100236B6042
:101B2000201C8901FFF718FF23680322DA60381CA4
:101B3000494600F0EBF8301C414600F0E7F87B1C0A
:101B400003D0381C022100F0C3F9731C03D0301CF1
:101B5000022100F0BDF90B4B9D4209D100236360C7
:101B6000094B01221A600948211C082201F0B4FB2C
:101B70000CBC90469946F8BDB8640000886400002B
:101B800000800440008000405C05001074050010D7
:101B90000268012153691942FCD010687047C046A1
:101BA0000268202053691842FCD011607047C0467B
:101BB00038B5104B1A68002A1BD10F4A01251D6049
:101BC0008023D0588021C9000143D1500B4B0C4CCD
:101BD0001868022363600B4900F0B4F90138E06033
:101BE000094965601320FFF785FD8022074B12032A
:101BF0001A6038BD600500100080044048020010E3
:101C00000080014040420F00991D000000E100E00B
:101C100008B5044B1B68002B01D1FFF7C9FF024B2D
:101C2000986808BD6005001000800140034B012248
:101C3000986159690A435A617047C0460080014063
:101C4000024B01215A698A435A6170470080014062
:101C5000014B01221A6070470080014000B599B025
:101C600072B62821684600F03DF806A8292100F048
:101C700039F80CA82A2100F035F812A82B2100F021
:101C800031F8039B019A96201A60079A0A9B1A6002
:101C90000D9A109B1A60139A159B1A60FFF792FD1C
:101CA000049B019A96201A60079A099B1A600D9A64
:101CB0000F9B1A60139A169B1A60FFF783FDE0E7EB
:101CC0000FB400B583B004AA08CA054B04991B6879
:101CD0000192D86801F042FD0120FFF72BFDC046BC
:101CE000AC02001038B50D1C041C00F0A1F8013541
:101CF0000AD023696268201C01211A6000F0C0F834
:101D0000201C002100F0B6F838BDC04610B5041CF8
:101D1000421C03D109E09C4208D00C310023CB5671
:101D20005A1CF8D10648FFF7CBFF10BD201C89686C
:101D300000F0B6F8201C002100F0CAF8F5E7C04614
:101D4000E864000008B5884208D0431C07D0013180
:101D500004D00448FFF7B4FF0120404208BD081C2E
:101D6000FCE7C046FC640000021C08B5531C03D10C
:101D70000BE09A420AD00C310023CB56581CF8D104
:101D80000448FFF79DFF0120404208BD4868431CFE
:101D9000FBD1F5E710650000F8B54F464646C0B4E4
:101DA000FFF756FF1648174A80469146404603689B
:101DB00012E01C685D68FFF72BFF0027061CA41BC0
:101DC000BD41002D12DC0FD0424611684846CB6859
:101DD00013600268002A10D1002BEAD1FFF730FF10
:101DE0000CBC90469946F8BD002CEDD042461368D5
:101DF00018685968FFF71AFFF2E788689047D5E737
:101E0000640500106805001010B5002806D0C4B2A3
:101E1000231C0A3B052B02D9002101E000240121EB
:101E200000F03EF81F2004400120A04010BDC04635
:101E300038B5041C0D1C21704A1C11D0081CFFF77A
:101E4000E3FF6D09074AAD00AB18074AE360AB1822
:101E5000064A2361AB186361054B6060ED18A5600D
:101E600038BDC046002200508022005000210050A2
:101E70000020005008B5007840B200F029F808BDF5
:101E8000002907D0012904D18368426819680A43F0
:101E90001A607047836841681A688A431A60F8E7D5
:101EA000431C0BD01F280AD9074BC01880000268BA
:101EB00007239A431940131C0B4303607047034BDD
:101EC000C0188000F3E7C046F80F011000100110A1
:101ED0004B0710B5DB0F1F2810D90A4A8018800065
:101EE00004681822944303221140CA00211C1143A4
:101EF000054A9B0211401943016010BD034A801836
:101F00008000EDE7F80F0110FFFBFFFF001001104C
:101F100008B5031C081C191C00F0F2FF08BD02687C
:101F200008B501231A4207D14278002A01D0FEF7F2
:101F300043FA4370181C00E0002008BD0123036031
:101F400070470000002934D00123002210B48842D9
:101F50002CD301242407A14204D2814202D20901D8
:101F60001B01F8E7E400A14204D2814202D24900F9
:101F70005B00F8E7884201D3401A1A434C08A0429C
:101F800002D3001B5C0822438C08A04202D3001B32
:101F90009C082243CC08A04202D3001BDC08224349
:101FA000002803D01B0901D00909E3E7101C10BC6D
:101FB0007047002801D00020C04307B4024802A1A6
:101FC0004018029003BDC046190000000029F0D05F
:101FD00003B5FFF7B9FF0EBC4243891A1847C04644
:101FE0007047C046F0B55F4656464D464446F0B48D
:101FF0004402460083B00F1C640A360EC50F002E43
:1020000041D0FF2E22D080231B0400201C43E4007B
:102010007F3E82468046391C4B007F02C90F7F0AF3
:102020001B0E8B463BD0FF2B34D08022120417436B
:10203000FF007F3B00215A466A40019252460A4304
:102040000F2A63D87A48920082589746002C3FD1D5
:102050000822022392469846DDE701954046022871
:102060002AD1019A01251540FF2300246402DB05D3
:10207000600AED071843284303B03CBC90469946DC
:10208000A246AB46F0BD002C27D104200122824697
:102090009046C0E7391C4A1E91410231CBE701212D
:1020A000002FC8D0381C00F00DFF431F9F4076233F
:1020B0005B421B1A0021BEE7032800D1AEE00128D5
:1020C0004FD1019842461040C5B200230024CDE70D
:1020D0000C2303209A4680469DE7201C00F0F2FE68
:1020E0007626431F9C4076420023361A9A4698462D
:1020F00091E780240025E403FF23B7E75B463C1CFF
:1021000001938846AAE73C1C8846A7E7250C2404CF
:102110003A0C240C3F04F6183F0C211C231C794375
:1021200053436F435543FB180A0C9B18B1469F421B
:1021300002D980225202AD1809041A04090C52185F
:1021400094011B0C611E8C41920EED181443AD01DD
:102150002C43230105D5012263080120144081444A
:102160001C434B467F33002B2DDD600704D00F222C
:102170002240042A00D00434220103D52D4B1C40F8
:102180004B468033FE2B17DD019B01251D400024AB
:10219000FF236BE78020C003044208D0074206D12A
:1021A000041C3C436402640A5D46FF235EE704436B
:1021B0006402640AFF2359E70198A4010125640A17
:1021C000DBB2054052E77E235B424A469B1A1B2B3B
:1021D00005DD019B01251D400024002346E7221C4C
:1021E000DA404B469E339C40231C5C1EA3411343A4
:1021F000580704D00F221A40042A00D004335A0191
:1022000005D5019B01251D40002401232EE70198DF
:102210009C010125640A0540002327E78027FF036E
:10222000019B3C43640201251D40640AFF231DE716
:1022300030650000FFFFFFF74302590A4300C20F59
:102240001B0E00207E2B0DDD9D2B0CDC802000045E
:102250000143952B0ADC9620C31AD9404842002A34
:1022600000D1081C7047034BD018FBE7963B994000
:10227000F4E7C046FFFFFF7FF0B5564644465F4691
:102280004D46F0B41F1C0B031B0B98464B0087B048
:10229000041C81465B0DC80F161C9A460090002B4B
:1022A00051D06A4B9A4531D08022414652030A43AD
:1022B000630FD2001A43664B90460025E200914618
:1022C0009A44002402953B031B0B9B46FD0F7B00A9
:1022D000311C5B0D019560D05C4A934254D0802143
:1022E000584649030143720FC9001143584A8B46AF
:1022F0009B18F1000020009A04436A4003920F2CBF
:1023000000D9ADE0534EA4003459A74640460443DB
:102310006ED1002102250824884689460295D2E71D
:10232000009C0298C34649460194022864D00328C1
:1023300000D1ABE2012800D038E2019A002402402B
:102340000025A14660E0434623434AD0404600288A
:1023500000D1C0E100F0B6FD031E272B00DDB3E184
:1023600028210D1A211C083B4246E9409A400D1CC9
:102370001543221C9A40A8469146374B00251B1A4C
:102380009A46002402959EE75A4616430320002EE3
:10239000B1D1B34600210220ADE75A4632431BD0EB
:1023A0005B46002B00D18AE1584600F08BFD2728C0
:1023B00000DD7DE12822171A011C321C08395B461A
:1023C000FA408B40171C1F43331C8B40BB46191C23
:1023D000214B1B1A00208EE70027BB46002101205D
:1023E00089E70020012504248046814602956AE79A
:1023F00003250C24029566E7019C0394039D0122AA
:102400002A400024114DA146002000212403260B60
:102410000C0D2405114B34432D0523402B435B0049
:102420005B08D207191C4846114307B03CBC9046D4
:102430009946A246AB46F0BD002280242403914673
:10244000024DE1E700240025A146DDE7FF0700007B
:1024500001FCFFFF706500000DFCFFFFFFFF0F8018
:102460005546ED1A0495D84500D953E100D14EE107
:10247000049C0025013C4E4604944746A946584614
:1024800003020C0E1C430902250C23041B0C0091B3
:10249000381C291C0193FFF755FD019983464143E0
:1024A000381C8A46291CFFF791FD330C0904194397
:1024B0008A450CD95B460919013B8C4200D947E19A
:1024C0008A4500D844E102225242934409195346F6
:1024D000CB1A181C291C9846FFF734FD071C0198DD
:1024E000291C784382464046FFF770FD36040B04F2
:1024F000360C33439A4509D91B197A1E9C4200D9E0
:1025000024E19A4500D821E1023F1B195E463204BE
:102510001743380CBB46009E009F51463F0C3204C7
:102520005B1A5946BA46120C0F043F0C90465146AE
:102530007A434F434146414356467043CF19160CE8
:10254000BE19B14202D980277F02C019310C120492
:102550003604120C4018B618834200D2C4E000D1F1
:10256000BEE0191A4846861BB145BF417F42CF1BCA
:10257000A74200D113E1291C381CFFF7E3FC0199A5
:1025800002904143381C8946291CFFF71FFD330C7C
:102590000904194389450CD9029B0919013B8C4256
:1025A00000D9FFE0894500D8FCE0029F0919023FED
:1025B00002974F46CF1B381C291C0597FFF7C2FC1A
:1025C000071C0198291C784381460598FFF7FEFCFB
:1025D00036040904360C0E43B14509D936197B1E61
:1025E000B44200D9E0E0B14500D8DDE0023F361941
:1025F000029D4946761A290439430B0457460A0CB2
:102600001B0C40464546584355437B437A43EB18E1
:10261000070CDB199D4202D980256D0252191D0C51
:1026200000041B04000C52191B18964235D300D12C
:10263000FCE001231943049E994FF519002D00DC9D
:10264000A1E0480709D00F230B40042B05D00B1D38
:102650008B42894149428B44191C5A46D20107D505
:10266000904B5C46049E80271C40FF00A346F51952
:102670008D4B9D427ADD039C0122224000248B4D2C
:10268000A146C1E680242403474627424CD13C435F
:102690002403240B009A854DB6E63619481EB44231
:1026A0005ED9011C9642C4D1009E9E42C1D1C2E7B0
:1026B000031C283B311C99408B46002188E6301CC6
:1026C00000F000FC203072E6283B211C99400022DB
:1026D0008846914651E6201C00F0F4FB20303BE692
:1026E0000021B14500D33DE7009F5A46B944B945A2
:1026F000BF417F423F19FB18013A9C421ED29842CB
:1027000000D97EE000D1B5E0191A93462AE7894541
:1027100000D8ADE64846464642467708D307460805
:10272000C0071E438146AAE65846204212D1044300
:1027300024032A1C240B89465C4D65E6A342E3D1A1
:10274000009F4F45DBD9211A93460BE7171CDDE6A6
:102750009B46BCE63C432403240B009A534D53E6AE
:10276000B24259D800D18AE0011C62E75F46C9082D
:102770007B07039E0B437C026D0501229946240BC7
:102780006D0D324040E64A4B049FDB1B382B10DDB9
:10279000039C0122224000240025A14634E60121A9
:1027A000494248E7029304E71F1C21E7019C039478
:1027B00041E71F2B40DC3F48049F0C1C3A18584649
:1027C0009140DC40904020430A1C511E8A41011C6C
:1027D00011435A46DA40131C480709D00F220A4019
:1027E000042A05D00A1D8A42894149425B18111CFE
:1027F0001A0234D5039C0122224000240125A1465F
:1028000002E6009F02214942B9448B44B9458941FF
:1028100049420919CB18A4E6009D881E6900A94207
:10282000AD416D422C19361900913AE7002B00D0CA
:1028300033E70024009437E71F4A049C5D46121BCF
:10284000D5402A1C202B1FD01C4E5F46A3199F4049
:102850003B1C19434B1E994111430023BCE75A0707
:10286000C9080A43039F91465B0201221C0B3A40B0
:102870000025C9E54E45C4D89346002172E6009F65
:102880009F42C9D3011C0FE70023E2E78024240301
:102890005F463C432403240B019A8946034DB3E56C
:1028A000FF030000FFFFFFFEFE070000FF07000020
:1028B00002FCFFFF1E040000E2FBFFFF3E040000DD
:1028C000F0B5564644465F464D46F0B41F1C0B0318
:1028D0001B0B9A464B0087B0041C80465B0DC80F4B
:1028E000161C02938146002B68D0694B02999942CD
:1028F00032D08022534652031A43D200630F1A4348
:102900009246644AE000891880460291002400251E
:102910003B031B0B9B467800FB0F321C400D0393BF
:1029200000D175E05A4B984269D080225946520333
:102930000A43730FD2001A43564B9346C018F20055
:10294000002303994E4671401C430F2C00D9A9E087
:10295000514EA4003459A74653461C4300D087E08B
:102960000025AA46A84608240225D1E74946022D9B
:102970006CD0032D00D117E2012D00D058E10D409D
:10298000EDB20024A9460023A04600200021250323
:102990000A0D1C052D0B1205404B2A4313402343FF
:1029A0005B004C465B08E207191C4046114307B028
:1029B0003CBC90469946A246AB46F0BD53462343E5
:1029C00050D05346002B00D184E1504600F07AFAF3
:1029D000031E272B00DD76E128210D1A211C083B60
:1029E0005246E9409A400D1C1543221C9A40AA46C3
:1029F00090462B4B00241B1A0293002588E75B4668
:102A00001E430323002E9CD1B3460022022398E7E5
:102A10005B46334321D05846002800D14EE100F0F8
:102A200051FA272800DD42E128210F1A021C311C2F
:102A3000083A5B46F94093400F1C1F43331C9340F8
:102A4000BB461A1C164B181A00237AE701230B40C9
:102A500000249946A0460E4B97E70027BB4600226C
:102A600001236EE7002104248A46884601254FE7AA
:102A70000C2403254CE700258024A9462403A846FE
:102A8000034B82E7DA46904603991D1C6FE7C04668
:102A9000FF07000001FCFFFFB0650000FFFF0F8093
:102AA0000DFCFFFF029F160C381804904046070CDF
:102AB0000004000C1204120C031C5343041C3D1CA4
:102AC0007443554398463B1C73436419A4464446DB
:102AD0000293230C63449D4204D9029D8024640226
:102AE0002D1902951D0C039545462C041B04240C3E
:102AF0001C1905945C46230C051C58432404240C23
:102B00008446381C604365435F438146CC44280CAF
:102B10006044BB46814502D980277F02BB442D0417
:102B2000070C2D0C000440195546BC462F04E34405
:102B30008446280C3D0C2F1C5743B8462F1C774366
:102B40004243B94647463F0C9144BA46D1444643B6
:102B50004A4502D980225202B6184F463A0CB6189E
:102B60003A0447463F043F0CB8462F1C67435D4379
:102B70004443584365190190380C2D184244B84617
:102B8000AC4204D9019880235B02C0180190039CD9
:102B9000029F201C6044C0196045A441474664421E
:102BA000A4462B043C049946240C4C44A046D8442B
:102BB0008018C246E24490429241574652429146A2
:102BC000F219E245BF417F424B46BC46D845BF4162
:102BD000D4187F4263461F432D0C7F19B2429241A5
:102BE0004C45AD4152426D421543019E7D19AB19D2
:102BF000E20D5B02059F134342023A439A46531E7D
:102C00009A41C30D101C184364022043804650466D
:102C1000C0010DD5454601225646049C6B082A404A
:102C20001A43F30701341A43760804949046B246D7
:102C3000049E634FF319002B61DD404640070BD023
:102C40000F2244462240042A06D04246043242451E
:102C500080414042824490465546ED0107D5594B8C
:102C60005646049F80201E40C000B2463B18564A7C
:102C7000934200DDEAE644465546E2086807104301
:102C800001226C025B050A408046240B5B0D9146D5
:102C90007BE6DA4690461D1C69E6802424035746ED
:102CA00027421CD13C432403240B484B6DE6031CF4
:102CB000283B311C99408B460022C3E6301C00F0B3
:102CC00001F92030ADE6283B211C994000228A46BC
:102CD00090468EE6201C00F0F5F8203078E6584645
:102CE000204207D1044303992403240B89469046CC
:102CF000364B4AE63C432403240B344B45E6344B25
:102D0000049E9B1B382B06DD01230B4000249946B3
:102D1000A046002339E61F2B25DC049C2D4D46469A
:102D20006019524644468640DC4082405746301C7B
:102D30002243DF40441EA04102433B1C540709D0FC
:102D40000F201040042805D0101D9042924152429D
:102D50009B18021C1D021AD501230B400024994622
:102D6000A046012311E61C48049C5546001BC540A3
:102D7000281C202B16D0194E5746A21997403A1CF2
:102D800043461A43531E9A4102430023D6E758078D
:102D90005B02D2081C0B01230B401043994680466E
:102DA0000023F2E50022EBE78024240350460123B0
:102DB000044319402403240B8946044BE5E5C0462F
:102DC000FF030000FFFFFFFEFE070000FF070000FB
:102DD00002FCFFFF1E040000E2FBFFFF3E040000B8
:102DE00070B50B1C124C09030E0B5900021C490D47
:102DF000DD0F0020A14211DD0E4881420FDC802052
:102E0000400306430C48401A1F280BDD0B4A521A98
:102E1000D640321C5042002D00D1101C70BD084B12
:102E2000E818FBE7074BC240C9188E403243F1E770
:102E3000FE0300001D040000330400001304000022
:102E4000FFFFFF7FEDFBFFFFF8B5041E31D0C70F7A
:102E500000D04442201C00F035F8184D2D1A0A28E5
:102E600019DD0B38844024036D05240B6D0D3A1CCD
:102E70000026002000210B0D2403240B1B052343F7
:102E80000F4C2D051C402C4364006408D307211C03
:102E9000301C1943F8BD061C1536231CB3401E1CFC
:102EA0000B23181AC44024036D05240B6D0D3A1C26
:102EB000DFE70022002500240026DAE71E040000D8
:102EC000FFFF0F801C2101231B04984201D3000C3B
:102ED00010391B0A984201D3000A08391B0998428D
:102EE00001D30009043902A2105C40187047C046A3
:102EF00004030202010101010000000000000000C3
:102F000038B5051C05480C1C131C002804D00220F1
:102F1000291C221C00E000BF38BDC0460000000094
:102F2000014B18687047C046AC020010F7B58B899A
:102F3000051C0C1C19075ED46268002A02DC276C91
:102F4000002F1ADDE76A002F17D000222E682A60B2
:102F5000802252011A4001D0626D15E0281C216ABE
:102F60000123B847021C411C0ED12B68002B0BD04B
:102F70001D2B01D0162B02D12E6000205EE0A3890C
:102F800040210B43A38159E0A3895F0706D56168FF
:102F9000636B521A002B01D0276CD21B281C216AAC
:102FA0000023E76AB847A289411C06D12B68002B91
:102FB00003D01D2B01D0162B19D100236360236988
:102FC0002360D70405D5411C02D12A68002A00D10C
:102FD0006065616B2E600029CFD0231C4433994279
:102FE00002D0281C00F08AF90020606326E040230C
:102FF0001A43A28122E02669002EBED02768002253
:10300000BF1B01972660990700D16269A260019FEA
:10301000002FB2DD281C216A321C019BA76AB84729
:10302000002806DCA389402213430120A3814042EB
:1030300004E0019F36183F1A0197E8E7FEBD000043
:103040000A6938B5051C0C1C002A01D100201CE0BF
:10305000002804D08369002B01D100F085F80B4BC8
:103060009C4201D16C6808E0094B9C4201D1AC68DC
:1030700003E0084B9C4200D1EC680C22A35E002BBD
:10308000E4D0281C211CFFF751FF38BDF06500007B
:10309000106600003066000008B5011E05D1054B22
:1030A0000549186800F0D0F803E0044B1868FFF7F2
:1030B000C7FF08BD5466000041300000AC0200109C
:1030C000F8B5041C071C4834002C12D0A5686668AB
:1030D000013E0CD4AB89012B07D90E22AB5E013324
:1030E00003D0381C291CFFF7ABFF6835F0E72468D4
:1030F000EAE7F8BD002310B5041C03604360836059
:1031000081814366C281036143618361191C082286
:103110005C3000F0EAF8054B24626362044BA36262
:10312000044BE362044B236310BDC04659340000D6
:1031300081340000B9340000E534000070B54B1E46
:1031400068255D430E1C291C743100F01FF9041E14
:1031500008D00021016046602A1C0C30A060683253
:1031600000F0C3F8201C70BD836913B5041C002B4C
:1031700027D18364C3640365124B134A1B688262C0
:10318000984201D101238361201C00F01FF8606088
:10319000201C00F01BF8A060201C00F017F8042190
:1031A000E06000226068FFF7A5FFA0680921012206
:1031B000FFF7A0FFE06812210222FFF79BFF012327
:1031C000A36113BD54660000C1300000F8B51D4B6B
:1031D000071C1E68B269002A02D1301CFFF7C4FF29
:1031E0004836B4687368013B05D40C22A55E002DF7
:1031F00010D06834F7E73368002B06D1381C04215F
:10320000FFF79CFF3060002801D03668E9E70C2307
:103210003B6016E001235B42E381201C0123A38174
:1032200065662560A560656025616561A5615C30A6
:10323000291C082200F059F86563A563A564E564BC
:10324000201CF8BD54660000F7B5041C071C019152
:1032500048340026002C16D06268A5680092009AB7
:10326000013A00920DD4AB89012B08D90E22AB5E36
:10327000013304D0381C291C019B9847064368354C
:10328000EDE72468E6E7301CFEBD000070B50E4B8C
:103290000E4D0024ED1AAD101E1CAC4204D0A3004C
:1032A000F35898470134F8E702F0D0FF084B094D76
:1032B0000024ED1AAD101E1CAC4204D0A300F3583C
:1032C00098470134F8E770BDB0020010B00200105A
:1032D000B0020010B802001010B50023934203D0D2
:1032E000CC5CC4540133F9E710BD031C821893422F
:1032F00002D019700133FAE77047000030B5002999
:1033000040D004390B68002B00DAC9181E4A136834
:10331000141C002B02D14B60116033E099420FD294
:1033200008680A189A4205D113685268C0180860E4
:103330004A6000E04B60216024E08A4203D8131CFD
:103340005A68002AF9D11D685C198C420BD10968B2
:10335000691858181960904214D1146852680919F4
:1033600019605A600EE08C4202D90C23036009E018
:1033700008680C18944203D1146852680019086058
:103380004A60596030BDC0467005001070B5032317
:10339000CD1C9D430835061C0C2D01D20C2501E0E7
:1033A000002D3FDB8D423DD3204B1C681A1C211C95
:1033B000002913D00868431B0DD40B2B02D90B60D6
:1033C000CC181EE08C4202D1636813601AE0486892
:1033D00060600C1C16E00C1C4968E9E7144C20687E
:1033E000002803D1301C00F025F82060301C291C77
:1033F00000F020F8431C15D0C41C03239C438442D6
:103400000AD12560201C0B300722231D9043C31ACC
:103410000BD05A42E25008E0211A301C00F00AF8A2
:103420000130EED10C233360002070BD7005001018
:103430006C05001038B5074C0023051C081C2360E0
:10344000FEF770FA431C03D12368002B00D02B60D9
:1034500038BDC0467C05001038B50C1C0E25495FF0
:1034600000F074FC002803DB626D1318636503E051
:10347000A289024B1340A38138BDC046FFEFFFFF76
:10348000F8B51E1C8B89051C0C1C171CDA0505D50C
:103490000E23C95E0022022300F0E8FBA289054B3F
:1034A000281C1340A3810E22A15E331C3A1C00F09D
:1034B00045FBF8BDFFEFFFFF38B50C1C0E25495F3B
:1034C00000F0D4FBA389421C03D1054A1340A38119
:1034D00004E0802252011343A381606538BDC046D9
:1034E000FFEFFFFF08B50E23C95E00F0ADFB08BD7E
:1034F0000023C25C0133002AFBD1581E7047936839
:1035000010B5013B9360002B05DA9469A34208DBF8
:10351000CBB20A2B05D01368581C10601970C8B2C2
:1035200001E000F0B3FA10BDF8B5061C0F1C141C26
:10353000D518AC4208D02178301C3A1CFFF7DFFFC9
:103540000134431CF5D100E00020F8BDF0B59FB078
:10355000061C0F1C03920593002804D081690029E2
:1035600001D1FFF701FE754B9F4201D1776808E05A
:10357000734B9F4201D1B76803E0724B9F4200D169
:10358000F768BB891A070AD53B69002B07D006AD3F
:1035900000236B6120236B763023AB763BE0301C3D
:1035A000391C00F0DFFA0028F1D001204042C2E0CF
:1035B000059A111D12680591002A76DB09920134E3
:1035C00023782E2B00D181E021785F48032200F080
:1035D000B1FB002807D05C492A68431A4020984074
:1035E0001043286001342178631C58480622039355
:1035F000297600F09FFB002800D18AE0544B002B75
:103600007ED1059B072207339343083305936A69EC
:10361000049953186B61039C2378002B04D1039900
:10362000611A029110D003E0252BF8D00134F3E7A2
:10363000301C391C039A029BFFF776FF013075D0CE
:103640006A69029953186B612378002B6ED00122AE
:1036500052426A606A4600235B3201342B60EB60A1
:10366000AB601370AB6521783A48052200F062FB2D
:10367000002808D0374A0134831A012098402B686B
:1036800018432860EFE72B68D90603D56A46202146
:103690005B3211701A0703D56A462B215B32117019
:1036A00022782A2A84D0099B05E05242EA6002224D
:1036B00013432B6083E72278303A092A04D80A2181
:1036C0004B4301349B18F6E7099379E763782A2B7B
:1036D00009D1059B02341A1D1B680592002B0DDAD7
:1036E00001235B420AE0013400232278303A092AA0
:1036F00004D80A214B4301349B18F6E7079363E78C
:1037000005AB0093301C291C3A1C134B00E000BF92
:1037100007E005AB0093301C291C3A1C0E4B00F04F
:103720009FF804900499013100D070E7BB895A06D4
:1037300000D53AE70B981FB0F0BDC046F065000019
:1037400010660000306600005E66000062660000E1
:1037500000000000586600002935000038B5131C31
:10376000044A051C0C1C1068291C221CFFF7EEFEE5
:1037700038BDC046AC020010F7B5151C01930A69AC
:103780008B68061C0C1C934200DA131C221C2B6055
:1037900043321278002A01D001332B602068800662
:1037A00002D52B6802332B60216806270F401FD0FB
:1037B000231C43331B785A1E9341226892061FD55F
:1037C000E11840313020C870211C5A1C453109785D
:1037D000A21840320233D17012E0221C301C019931
:1037E00019320123089FB847013011D0009F0137DB
:1037F0000097E0682968009F431A9F42EDDBD7E7F6
:10380000221C301C01994332089FB847013002D175
:103810000120404223E0206806212B68E268014035
:103820000025042903D1D51AEB43DB171D40A268FC
:1038300023699A4201DDD31AED1800270097009FF3
:10384000AF420BDA221C301C01991A320123089F67
:10385000B8470130DCD0009F0137EFE70020FEBD04
:10386000F0B50D1C8BB04335069205900793049577
:103870000B7E0C1C109A6E2B00D1A7E011D8632B85
:1038800022D009D8002B00D1B0E0582B00D0C0E0E6
:1038900045310B707B4D4EE0642B1CD0692B1AD048
:1038A000B7E0732B00D1A5E009D86F2B29D0702B7E
:1038B00000D0AEE00E68202333430B6036E0752B5A
:1038C0001FD0782B32D0A4E013680D1C191D42358F
:1038D00011601B689FE0216813680E0603D5191D4F
:1038E00011601E6805E04806F9D5191D1160002118
:1038F0005E5E644B002E3BDA049D2D2276422A70D8
:1039000036E0216813680E0603D5191D11601E6884
:1039100004E04806F9D5191D1E881160594B227E16
:10392000039308276F2A1ED00A271CE0231C782146
:103930004533554D197011682368081D03951060B3
:103940001E0601D50E6802E05806FBD50E88D90781
:1039500002D52022134323601027002E03D12268B2
:1039600020239A432260231C002243331A7001E073
:1039700003930A276368A360002B03DB25680422F6
:1039800095432560002E02D1049D002B0ED0049D8E
:10399000301C391CFEF71AFB0398013D435C301CB8
:1039A0002B70391CFEF7CEFA061EF1D1082F09D173
:1039B0002168C90706D5626823699A4202DC013D85
:1039C00030232B70049E731B23612AE00868136860
:1039D0004969050604D5181D10601B68196005E0CB
:1039E0004606F8D5181D10601B6819800023236156
:1039F000049D16E01368191D11601D68281CFFF74F
:103A000077FD63682061984200D923612069606076
:103A100004E0251C42352B7001232361049E002302
:103A20003370079E05980096211C09AA069BFFF794
:103A3000A3FE013002D10120404221E02A1C05985A
:103A400006992369079DA8470130F4D02668B60778
:103A500005D4099BE068984212DA181C10E0002592
:103A6000E0680999431A9D42F3DA221C05980699E9
:103A700019320123079EB0470130DCD00135EFE752
:103A80000BB0F0BD696600007A66000070B5051CD9
:103A90000E1C141C002804D08269002A01D1FFF7F3
:103AA00063FB234B9C4201D16C6808E0214B9C4294
:103AB00001D1AC6803E0204B9C4200D1EC68A369C3
:103AC000A360A3891A070AD52369002B07D02268AF
:103AD0002369F6B2D01A626990420FDB08E0281C15
:103AE000211C00F03FF80028F1D0012040421DE0E9
:103AF000281C211CFFF7A4FA0028F6D1A368013086
:103B0000013BA36023685A1C22601E7063699842BF
:103B100005D0A389301CDA0708D50A2E06D1281C47
:103B2000211CFFF78DFA0028DFD1301C70BDC04684
:103B3000F0650000106600003066000038B5084CE3
:103B4000051C00202060081C111C1A1CFDF762FED9
:103B5000431C03D12368002B00D02B6038BDC04626
:103B60007C050010344B70B51D68061C0C1C002D24
:103B700005D0A969002902D1281CFFF7F5FA2F4BBF
:103B80009C4201D16C6808E02D4B9C4201D1AC688D
:103B900003E02C4B9C4200D1EC68A28993B2190738
:103BA00021D4D90605D40923336040231A43A281C6
:103BB0003FE05A0713D5616B002908D0231C44331A
:103BC000994202D0301CFFF799FB00236363A3895D
:103BD00024229343A3810023636023692360A38984
:103BE00008221343A381216900290BD1A389A022B4
:103BF00092001A4080239B009A4203D0301C211C63
:103C000000F048F8A38901221A4005D0616900221A
:103C1000A2604A42A26103E0990700D46269A260EF
:103C200022690020824206D1190604D5402213439E
:103C3000A3810120404270BDAC020010F06500007D
:103C4000106600003066000038B5074C0023051CE4
:103C5000081C2360FDF7C8FD431C03D12368002B1B
:103C600000D02B6038BDC0467C05001038B5084C2C
:103C7000051C00202060081C111C1A1CFDF72EFEDC
:103C8000431C03D12368002B00D02B6038BDC046F5
:103C90007C050010F0B58B8991B0051C0C1C9A07AF
:103CA00025D40E23C95E002906DAA78980231F4088
:103CB0000FD0002740260EE001AA00F05BF8002894
:103CC000F3DB029BF0273F02184A1F40BF187B42DC
:103CD0005F418026F600281C311CFFF757FB0028A7
:103CE0000CD1A3899A051FD402221343A381231C5C
:103CF0004733236023610123636115E00C4B80226D
:103D0000AB62A38920601343A38120616661002F09
:103D10000AD00E23E15E281C00F03EF8002803D0F4
:103D2000A38901221343A38111B0F0BD00E0FFFF7E
:103D3000C1300000C9B28218904204D003788B428F
:103D400002D00130F8E700207047000038B5084C79
:103D5000051C00202060081C111C1A1CFDF786FDA4
:103D6000431C03D12368002B00D02B6038BDC04614
:103D70007C05001038B5074C0023051C081C111CDD
:103D80002360FDF7BFFD431C03D12368002B00D047
:103D90002B6038BD7C05001038B5074C0023051C8E
:103DA000081C2360FCF7FEFA431C03D12368002B98
:103DB00000D02B6038BDC0467C050010000000001C
:103DC00010B5021C26480B1C490086B049088142E8
:103DD0001EDD2448814205DD101C191C01F00CFF7A
:103DE00006B010BD101C191C02AA00F095F80323A0
:103DF000184001281DD0022811D0002824D0012409
:103E000002980399049A059B009400F0FDFFE7E7F0
:103E1000101C191C114B104A00F0BAFAE0E7049A82
:103E2000059B0298039900F0B3FA80231B06C9187A
:103E3000D6E7049A059B00900298039900F0E4FFEE
:103E400080231B06C918CBE702980399049A059BA7
:103E500000F09EFAC4E7C046000000000000000029
:103E6000FB21E93FFFFFEF7F10B5021C28480B1C28
:103E7000490086B0490881421FDD2648814205DDA0
:103E8000101C191C01F0B8FE06B010BD101C191C46
:103E900002AA00F041F803231840012822D002288A
:103EA00014D0002825D0049A059B0298039900F0AD
:103EB0006FFA80231B06C918E6E700210091101C49
:103EC000191C124B104A00F09FFFDDE70124049AF1
:103ED000059B02980399009400F096FF80231B062F
:103EE000C918D1E7049A059B0298039900F050FA8B
:103EF000CAE7012402980399049A059B009400F0F4
:103F000083FFC1E7C046C04600000000000000007B
:103F1000FB21E93FFFFFEF7FF0B556464D46444693
:103F20005F46F0B44B005E08A34B91B0041C0D1C1F
:103F300091468A469E4200DC86E0A04B9E4223DCEE
:103F4000002900DCCEE1291C8C4B8B4A01F054FE89
:103F50009B4B041C0D1C9E4200D18FE0884A894B6C
:103F600001F04AFE021C0B1C49460A604B60201CF3
:103F7000291C01F041FE824A824B01F03DFE4A4677
:103F80009060D160012067E08E4B9E4200DC91E0A2
:103F90008D4B9E4267DC8D493315C9180B05F51A08
:103FA0008B46291C041CFEF71BFFFEF74DFF021C6D
:103FB0000B1C201C291C0A920B9301F01DFE724A57
:103FC000724BFEF77DFC0F1C061CFEF709FFFEF787
:103FD0003BFF041C0D1C221C2B1C301C391C0C9498
:103FE0000D9501F009FE684A684BFEF769FC684AC6
:103FF000684B0E900F9101F06FF9002800D192E10B
:10400000634A644B201C291C01F066F9431E984149
:1040100002231B1A022200926D4A0AA80192494605
:104020005A4600F0D9FA5246002A15DA4C4664681E
:104030008021090663184946CA68802424064B601B
:104040001319CB60404207E0111C14605560504AC0
:10405000504B8A60CB60002011B03CBC9046994622
:10406000A246AB46F0BD221C2B1C01F0C5FD4A4602
:104070009060D160106051600020EDE7464A474BE8
:1040800001F0BAFD464A474B041C0D1C01F0B4FD7B
:10409000021C0B1C49460A604B60201C291C01F0C5
:1040A000ABFD3F4A3F4B01F0A7FD4A469060D1600F
:1040B0000120D1E700F054FF3B4A3C4B041C0D1C8F
:1040C000FEF7FEFB3A4A3B4B01F034F9FEF788FE5F
:1040D0008346FEF7B9FE294B274A04900591FEF767
:1040E000EFFB021C0B1C201C291C01F085FD244A3F
:1040F000244B0290039104980599FEF7E1FB5B467F
:1041000006900791029803991F2B65DC5A46013AE5
:10411000304B9200D358B3425ED0069A079B01F011
:104120006BFD0D1C0F1C041C49460C604D60804645
:1041300042463B1C0298039901F05EFD069A079BDC
:1041400001F05AFD4A46041C0D1C9460D56054468B
:10415000031C5846002C00DB7EE744461460802296
:1041600012064C46BF1889186760A360E1604042A0
:1041700072E7C046C046C04600004054FB21F93FEC
:104180003163621A61B4D03D00000000000070414C
:1041900000000000000000000000601A61B4D03D83
:1041A0007370032E8A19A33B83C8C96D305FE43F47
:1041B000000000000000E03FFB21E93F7BD9024006
:1041C000FB21F93FFB213941FFFFEF7FEAFBFFFFB6
:1041D0000C6700008C660000069A079B01F00CFD3E
:1041E0004B00041C0D1C4A4636155B0D80460F1C07
:1041F00014605560F31A102B9ADD584B564A0498F8
:104200000599FEF75DFB041C0D1C221C2B1C02985B
:10421000039901F0F1FC08900991089A099B029812
:10422000039901F0E9FC221C2B1C01F0E5FC4C4A2F
:104230004C4B041C0D1C04980599FEF741FB221CF5
:104240002B1C01F0D9FC06900791069A079B089851
:10425000099901F0D1FC4B460D1C041C1C605D60EB
:104260004B005B0D0F1C80460899099AF31A0291C6
:104270000392312B00DC5BE73B4A3C4B04980599E9
:10428000FEF71EFB041C0D1C221C2B1C029803991C
:1042900001F0B2FC02900391029A039B08980999DD
:1042A00001F0AAFC221C2B1C01F0A6FC304A314B69
:1042B000041C0D1C04980599FEF702FB221C2B1C04
:1042C00001F09AFC06900791069A079B02980399C1
:1042D00001F092FC4A46041C0D1C80460F1C146021
:1042E000556025E7291C244A244B01F023F8264B6E
:1042F000041C0D1C9E4218D0214A224B01F01AF8D2
:10430000021C0B1C49460A604B60201C291C01F052
:1043100073FC1B4A1B4B01F00DF84A469060D160BC
:104320000120404298E6032374E60C4B0A4A01F050
:1043300001F80B4A0B4B041C0D1C00F0FBFF021C88
:104340000B1C49460A604B60201C291C01F054FCE0
:10435000034A044BDFE7C0460000601A61B4D03D59
:104360007370032E8A19A33B0000002E8A19A33B09
:10437000C14920259A837B3900004054FB21F93F35
:104380003163621A61B4D03DFB21F93FC046C0469B
:10439000F0B5474680B488B0029203934B005B08A7
:1043A0009846894B061C0F1C984563DCFEF718FDE8
:1043B000002800D1DDE0321C3B1C301C391CFEF70C
:1043C0007FFA6E4B6C4A041C0D1CFEF779FA6C4A9E
:1043D0006C4B00F0AFFF221C2B1CFEF771FA6A4AEF
:1043E0006A4B01F009FC221C2B1CFEF769FA684A93
:1043F000684B00F09FFF221C2B1CFEF761FA664AF7
:10440000664B01F0F9FB221C2B1CFEF759FA644A9B
:10441000644B00F08FFF221C2B1CFEF751FA049016
:104420000591614A614B201C291CFEF749FA049A48
:10443000059B00900191201C291CFEF741FA029A6D
:10444000039B041C0D1C301C391CFEF739FA021C9E
:104450000B1C201C291C01F0CFFB021C0B1C00981C
:10446000019901F0C9FB021C0B1C5148514901F094
:10447000C3FB71E0321C3B1CFEF722FA3F4B3E4A65
:10448000041C0D1CFEF71CFA3D4A3E4B00F052FF87
:10449000221C2B1CFEF714FA3B4A3C4B01F0ACFBF0
:1044A000221C2B1CFEF70CFA394A3A4B00F042FF53
:1044B000221C2B1CFEF704FA374A384B01F09CFBF8
:1044C000221C2B1CFEF7FCF9354A364B00F032FF5C
:1044D0002B1C221CFEF7F4F93C4B049005919845E7
:1044E0009FDD3B4B98453BDC3A4900220B1C434483
:1044F0002F4830490092019301F07EFB069007910E
:10450000294A2A4B201C291CFEF7DAF9009A019B44
:1045100001F072FB049A059B00900191201C291C5C
:10452000FEF7CEF9029A039B041C0D1C301C391CAB
:10453000FEF7C6F9021C0B1C201C291C01F05CFBB9
:10454000021C0B1C0098019901F056FB021C0B1C6D
:104550000698079901F050FB08B004BC9046F0BDE6
:10456000154A164B069207931549164A0091019277
:10457000C6E70F480F49EFE7D43888BEE9FAA8BD6F
:10458000C4B1B4BD9EEE213EAD529C804F7E923EA2
:104590009015CB19A001FA3E7751C1166CC1563F58
:1045A0004C5555555555A53F000000000000E03F13
:1045B000000000000000F03F000000000000E73FA6
:1045C000000000000000D23FFFFF3F3E3233D33FE8
:1045D0000000E93F0000E0FFF0B556464D46444676
:1045E0005F46F0B48E4C8246A544A89D10938D4B37
:1045F000141CAA00109DD2580E91013DE01E1821F6
:104600000C92069500F0F8FDC343DB171840C34336
:104610005A00D318DB001B190F90441B0C980B9306
:104620002F1817D4A998A500E71926AE4519013708
:1046300007E02868FEF708FC013403C60435BC42D5
:1046400008D0002CF5DA01346C496B48043503C6F8
:10465000BC42F6D10C9C002C00DAADE30C9B109C04
:104660000133DB00E4009EADA34699462B1C5B445E
:10467000E93B002076ACFF3B80460D940493069DF9
:10468000002D00DAACE104980026071C47445B4D7E
:10469000594C50468319186859683A687B68FEF788
:1046A0000FF9021C0B1C201C291C00F043FE0836CD
:1046B000041C0D1C083F5E45EBD10D9908220B1C14
:1046C000434490441C605D60C845D8D10C9D11AC3A
:1046D000AB000894E41811940A950A9C0D9DE30020
:1046E000EB181E685F68002C38DD231C013BDB00E3
:1046F000ED1812A8A300A846C41855468146049593
:10470000A2463F4A3F4B301C391CFEF7D9F8FEF752
:1047100067FBFEF799FB3C4A3C4B041C0D1CFEF763
:10472000CFF8021C0B1C301C391C01F065FAFEF797
:1047300057FB494604318946043901C1201C4446CF
:10474000291C2268636800F0F5FD08256D42061CEF
:104750000F1CA844D145D4D104988246301C391C82
:104760000B9A00F0B9FC2A4A2A4B041C0D1CFEF7D8
:10477000A7F800F0F9FB284A284BFEF7A1F8021C25
:104780000B1C201C291C01F037FA041C0D1CFEF721
:1047900027FB8146FEF758FB021C0B1C201C291C22
:1047A00001F02AFA0B9C061C0F1C002C00DCF9E01F
:1047B0000A9A12AD013A9200AB581821091B181C35
:1047C0000841814488401B1AAB5017252D1B2B41F3
:1047D0000993099D002D50DD0A9C0125A944002C58
:1047E00000DC08E1A10012AB8022591800240E4819
:1047F000550423E0C046C046000000000000000051
:10480000000000000000703E000000000000704149
:10481000000000000000C03F000000000000204039
:1048200084FDFFFF14680000FFFFFF00002A02D094
:10483000AA1A1A60012404338B4208D01A68002C8B
:10484000F4D0821A1A60043301248B42F6D10B9DF6
:10485000002D0EDD012D00D1AFE0022D09D10A9B04
:1048600012AA013B9B00D25812AD02929202920A08
:10487000EA50099D022D00D17BE0301C391CCB4B46
:10488000C94A00F029FD002800D1B6E00A980C9C26
:10489000013884420CDC810012AD119C6B1800229F
:1048A0001D68043B2A43A342FAD1002A00D067E2E4
:1048B0000C9B12A8013B9B00C358002B00D079E24F
:1048C0000C9B0122023B9B00C318043B5968013238
:1048D0000029FAD00A9B0A9C0133A4180A94A34227
:1048E00000DDFAE60F9DA99C5A199200A418069DB6
:1048F000A1460D9CEA18DB00E318109D0A9C049366
:104900002B19D20026A8DB0026AD80185D19804641
:10491000099549460868FEF797FA069C42461060DA
:104920005160002C22DB47460026A04D9E4C50468D
:104930008319186859683A687B68FDF7C1FF021C43
:104940000B1C201C291C00F0F5FC0836041C0D1C57
:10495000083F5E45EBD10499082330C1099C04222D
:10496000984404919144A045D3D1B6E68F4D8E4C26
:10497000F1E7321C3B1C8E488E4901F03DF9061CC4
:104980000F1C002C00D178E70B9A8948894900F068
:10499000A3FB021C0B1C301C391C01F02DF9061C5A
:1049A0000F1C6AE70B9C002C11D10A9B12A8013B3B
:1049B0009B00C558ED1509950BE70A9B12A8013B12
:1049C0009B00C05812A94202520ACA5051E77A4AC3
:1049D0007A4B00F0A5FC002805D1002409944CE78F
:1049E000724D714C69E6022409940A9C0125A94480
:1049F000002C00DDF6E6002429E70B9D4C466A42B8
:104A0000301C391C0F9400F067FB6D4A6D4B041C81
:104A10000D1C00F085FC002800D1D3E16A4A6B4BE5
:104A2000201C291CFDF74CFFFEF7DAF9061C0A983A
:104A30008700301CFEF708FA614A624BFDF740FF21
:104A4000021C0B1C201C291C01F0D6F8FEF7C8F92B
:104A50000A9A0B9C904601229044454612A91834AC
:104A6000AB00C8510B94CE50514852490B9A00F0FC
:104A700033FB4346041C0D1C002B5CDB0D999E0090
:104A8000DB0012A89B460F1C86195F443068FEF7B6
:104A9000DBF9221C2B1CFDF713FF4B4A4B4B3860F4
:104AA0007960201C291CFDF70BFF089A043E041CAA
:104AB0000D1C083F9642E9D10D9B45461C1C5C44E9
:104AC0000C9A0494013500204EA94446069583466D
:104AD000894692460A945046002860DB3C49049F70
:104AE0008846324D304C002604E0082398440837AD
:104AF0005E4511DC4246106851683A687B68FDF7F4
:104B0000DFFE021C0B1C201C291C00F013FC0136CC
:104B1000041C0D1CB245E8DA5846C3004B441C6027
:104B20005D60049C0121069D083C8B440494AB45C8
:104B3000D1D10A9A9046A89C022C4BDC002C00DDB7
:104B4000DFE020D14346002B00DA5AE1DC004EAD15
:104B50002C194CAE00250023281C191C2268636800
:104B600000F0E8FB083C051C0B1CB442F4D1099C86
:104B7000191C002C02D08020000619180E9C2A1C3B
:104B80000B1C226063600F9C072020409F239B002A
:104B90009D443CBC90469946A246AB46F0BD034DB1
:104BA000014CB9E7C046C04600000000000000000C
:104BB000000000000000F03F000000000000E03FA7
:104BC0000000000000007041000000000000703E86
:104BD00028680000A89D032DD5D14046002800DCA0
:104BE0000AE140464EADC00083462B1C5B441E6864
:104BF0005F684346013BA946DB004B444CAC049341
:104C00000A949A4601E0261C2F1C55462C686D68B4
:104C1000321C201C291C3B1C0694079500F08AFBC3
:104C2000041C0D1C221C2B1C0698079900F0E4FFA5
:104C3000321C3B1C00F07EFB52469060D160082085
:104C400040420A998244146055608A45DBD142464D
:104C500000270026012A3ADD4B46049D5B441E686E
:104C60005F68A84601E0261C2F1C45462C686D682D
:104C7000321C201C291C3B1C0494059500F05AFB97
:104C8000041C0D1C221C2B1C0498059900F0B4FF79
:104C9000321C3B1C00F04EFB42469060D160082065
:104CA0004042804414605560C145DCD14C464D46BD
:104CB0005C44083500270026381C311C22686368D4
:104CC00000F038FB083C071C0E1CAC42F4D1099CD8
:104CD000002C00D181E00E9C4E984D4620606D68FE
:104CE000802000062B18494663604846CB68802226
:104CF000120680689B18B618A060E36027616661A1
:104D000041E7424600250024002A10DBD3004EA8CC
:104D1000C6184CAF00250024281C211C326873687B
:104D200000F008FB083E051C0C1CBE42F4D1099A99
:104D3000211C002A02D080231B06E1180E980B1CB0
:104D40002A1C026043604E984F992A1C231C00F0D5
:104D500053FF4246002A07DD50ACD50065190CCC44
:104D600000F0E8FAAC42FAD1099C002C02D0802570
:104D70002D0649190E9C021C0B1CA260E36002E781
:104D80000B9D804612A843584C46183D0F940B9536
:104D9000002B00D068E64246013A9300C318291C54
:104DA00000E0013A043B5D681839002DF9D09046C7
:104DB0000B9159E601228DE5109D76ACED00AB46D6
:104DC0000D9483E40A98291C8600201CFEF708F83D
:104DD0000A9A12A98851904646E60E9C4E984F9921
:104DE0003A1C20606160331C49468868C9682261AA
:104DF0006361A060E160C6E64EA9002700268946EF
:104E000065E700250023B2E6F0B589B0049205936A
:104E1000514B4A00061C0F1C52089A4206DCFDF753
:104E2000DFFF391C031C301C002B64D0321C3B1CE0
:104E3000301C391CFDF744FD321C3B1C041C0D1CAE
:104E4000FDF73EFD374B364A02900391201C291C8A
:104E5000FDF736FD344A354B00F0CEFE221C2B1CEC
:104E6000FDF72EFD324A334B00F064FA221C2B1C56
:104E7000FDF726FD304A314B00F0BEFE221C2B1CF4
:104E8000FDF71EFD2E4A2F4B00F054FA0E9B0690A4
:104E90000791002B31D02C4A2C4B04980599FDF733
:104EA0000FFD069A079B0090019102980399FDF768
:104EB00007FD021C0B1C0098019900F09DFE221CAE
:104EC0002B1CFDF7FDFC049A059B00F095FE204A83
:104ED000204B041C0D1C02980399FDF7F1FC021CE9
:104EE0000B1C201C291C00F025FA021C0B1C301C7A
:104EF000391C00F081FE09B0F0BD069A079B201C0A
:104F0000291CFDF7DDFC124A124B00F075FE029AD7
:104F1000039BFDF7D5FC321C3B1C00F00BFAEAE7C3
:104F20007CD5CF5A3AD9E53DEB9C2B8AE6E55A3E33
:104F30007DFEB157E31DC73ED561C119A0012A3FCF
:104F4000A6F810111111813F000000000000E03FA1
:104F5000495555555555C53FFFFF3F3EC046C046D4
:104F60004B0059087047C046F0B556464D4644467A
:104F70005F46F0B4524A4F007F0D83B0BE18041C48
:104F80000D1C89468A4680460197132E2ADC002E86
:104F900056DB4C4F021C37413B1C0B4003439C46E5
:104FA000BB4667460B1C002F13D0424B404A00F013
:104FB000C1F9414A414B00F0A9F9002807D0002D62
:104FC0004EDB53465F46BB430022994690464B4614
:104FD0004246101C191C03B03CBC90469946A246A0
:104FE000AB46F0BD332E0BDD0B1C8021021CC9002B
:104FF0008E42EED1291C00F09DF9021C0B1CE8E743
:10500000019F314ABB1801225242DA4093465F4663
:10501000021C0B1C0742DCD0264B254A00F08AF903
:10502000254A264B00F072F90028D0D0002D1DDB58
:1050300042465B469A439046D1464B464246C8E7B5
:105040001C4B1B4A00F076F91B4A1C4B00F05EF922
:105050000028BCD0002D17DB0027B846B946B6E7BC
:1050600080235B0333415E19B246AAE7142E19D0A0
:10507000164B019A9F1A0123BB401B199C420FD962
:105080006F1CBA469846D3E76B005B081C4302D1FD
:105090000027B8469BE70E4F00239846B94696E78F
:1050A0009846C5E76B1C9A46C2E7C046C046C04654
:1050B0009C7500883CE4377E000000000000000082
:1050C00001FCFFFFFFFF0F00EDFBFFFF33040000BB
:1050D0000000F0BFC046C046F8B53D4E171C331C5B
:1050E0000B40041C0D1C0A1C1B1525D14B005B0832
:1050F00018431ED0201C291C2E4B2D4AFDF7E0FB27
:10510000344B041C0D1C9F4231DB0E4033150A1C2E
:10511000363B3149DB198B4215DD221C2B1C2648FE
:10512000264900F061F8244A244BFDF7C9FB041C12
:105130000D1C291C201CF8BD28498B421ED0264975
:10514000DB198B42E9DC002B05DD25491B050A40F4
:105150001D1C1543EDE7191C353118DA214B9F4210
:10516000DBDC17481749221C2B1C00F03DF8144AC1
:10517000144BFDF7A5FB041C0D1CDAE7201C291CB1
:10518000221C2B1C00F0D6F8041C0D1CD1E714497E
:1051900036331B050A401D1C1543201C291C0A4AD6
:1051A0000A4BFDF78DFB041C0D1CC2E7C046C04630
:1051B00000000000000050439C7500883CE4377EEE
:1051C00059F3F8C21F6EA501000000000000903CDA
:1051D0000000F07FB03CFFFFFE070000FF0700006B
:1051E000FFFF0F8050C3000030B5DA0FD2074B002D
:1051F0005B08111C194330BD002941D010B4041CB8
:105200004C40A44601230022002900D54942002831
:1052100000D5404288422CD301242407A14204D265
:10522000814202D209011B01F8E7E400A14204D245
:10523000814202D249005B00F8E7884201D3401A5C
:105240001A434C08A04202D3001B5C0822438C087E
:10525000A04202D3001B9C082243CC08A04202D3E8
:10526000001BDC082243002803D01B0901D00909D8
:10527000E3E7101C6446002C00D5404210BC704788
:10528000002806D003DB0020C043400801E0802056
:10529000000607B4024802A14018029003BDC046B0
:1052A00041CDFFFF0029EBD003B5FFF7A7FF0EBCF0
:1052B0004243891A1847C0468446101C62468C46F1
:1052C000191C634600E0C0461FB500F017FC00281B
:1052D00001D40021C8421FBD10B500F047FB404279
:1052E000013010BD10B500F009FC002801DB0020E2
:1052F00010BD012010BDC04610B500F0FFFB002816
:1053000001DD002010BD012010BDC04610B500F029
:1053100077FB002801DC002010BD012010BDC04635
:1053200010B500F06DFB002801DA002010BD01204F
:1053300010BDC046F8B55F46564644464D46F0B4EB
:105340000C034D00CE0F610A440F2143C400180323
:1053500080465800400D8246D80F84464046400A99
:10536000530F0343D0006D0D371C834652466645EC
:1053700000D19DE0AF1A002F00DC03E1002A38D1F4
:10538000184300D0E4E0630709D00F232340042B27
:1053900005D0231DA342A441644209191C1C080224
:1053A00000D478E0CE4B6A1C9A4200D105E1CD4B87
:1053B000E408194048075205490204430B0B520DFB
:1053C000371C002000211B03201C1C0B0B0D1B0590
:1053D000C54D2343520552081D4015436D006D080D
:1053E000FF07291C39433CBC90469946A246AB4670
:1053F000F8BDBB488542C6D0802000040343382F47
:1054000000DDECE01F2F00DD20E12020C01B1A1C76
:10541000814682405846F8400243944658464A46E0
:105420009040421E9041FB40624602431F1CA21A5C
:105430009442A4416442C91B091B141C0B02A2D54F
:1054400049024F0A002F00D1C4E0381CFDF73AFD95
:10545000021C083A1F2A00DDB7E02821091A201C87
:105460009740C84007439440954200DDA9E0551B92
:10547000691C1F2900DDD8E01F22551B3B1C221C84
:10548000AB40CA40AC40651EAC411343CF401C4307
:10549000391C002577E74807E4086A05C908520D5A
:1054A000371C04438E4B9D4248D009030B0B88E701
:1054B000AA1A9446002A00DC98E05046002853D0EF
:1054C0008748854200D15EE780200004034362469E
:1054D000382A00DDFDE01F2A00DD4BE12022604676
:1054E000101A1A1C82408246914658466246D040A5
:1054F0004A4602439046584652469040421E9041CA
:10550000424602436046C3401219A242A44164428B
:1055100059180919141C080200D434E7704B0135DE
:105520009D4200D124E16F4B6008194001232340C4
:105530001C1C0443CB071C43490824E70B1C2343D2
:1055400000D1C7E180231B030B431B031B0B38E770
:10555000013F002F64D15846221A9442A44164426C
:10556000C91A091B141C69E75846184300D10AE7F9
:105570000122524294446046002800D0C5E05846BB
:105580000219C2E7002F72D1681C4005400D0128A6
:1055900000DCDEE05A46A21A9442BF41C81A7F429C
:1055A000C71B380200D488E05A46141BA345924119
:1055B000591A52428F1A664644E7371C00230024CA
:1055C000FFE64849AD1A3940DDE6271C28388740F8
:1055D000002449E7201CFDF775FC203038E75A46C7
:1055E0001A43531E9A41D2B2002720E7002A00D066
:1055F000DDE0681C4205520D012A00DC8EE0384DCA
:10560000A84200D1B3E05D462A19A242A4416442F7
:1056100059180919CC07520814434908051CB2E669
:105620002F48854200D0EAE6ADE62B1C1F3B3A1C12
:10563000DA40131C20296DD03F22551BAF403C435C
:10564000601E84411C43002100259CE6381C203844
:105650001A1CC240101C202F5ED04022D71BBB401A
:105660005A461A43531E9A4102430027DFE6002D93
:105670003CD01B4DAA4500D194E080252D047F42EB
:105680002943382F00DDADE01F2F00DD2CE1202560
:10569000ED1B081C261CA840FE40AC400643651EBE
:1056A000AC413443F9405D462C1BA34592415B1A43
:1056B0005242991A55466646C0E6131C3B43141CD9
:1056C000002B00D0BEE60027002200250021002488
:1056D000E8E65A461A43531E9A41D2B2002313E712
:1056E000FF070000FFFF7FFFFFFF0F800D1C25431A
:1056F00058D0FF43002F51D1041BA3459241591AA2
:105700005242891A5546664698E69648854200D028
:10571000DDE638E6002792E70023A1E7081C2043D6
:10572000002D00D0C0E0002800D1FBE0584618430F
:1057300000D128E658460219A242A44164425918F1
:105740000919141C0A0200D41DE6874B01251940D3
:1057500019E6081C2043002D39D100286DD1594687
:10576000194300D1BDE0191C5C4666460BE6051CDA
:105770002A1CABE7604620381A1CC240604691469E
:10578000202800D1ABE04022121A93405A461A4317
:10579000531E9A414B461A430023B5E6714DAA4564
:1057A00000D06EE7191C5C4655466646EBE5002DB9
:1057B0001ED10D1C254373D0D543002D6DD15C4403
:1057C0005C4592415918524289185546A3E6002873
:1057D00049D15946194300D196E0191C5C466646EA
:1057E000604DD0E50C43611E8C41E4B200215AE7C4
:1057F0005C4DAA4554D05542802210040143382DF7
:1058000000DD85E01F2D00DD95E02022501B0A1CE5
:1058100084468240201CE840024390466246944001
:10582000601E844142461443E9405C445C45924119
:10583000CB185242991855466DE65846184300D188
:10584000A1E55846271ABC429241C81A5242801A12
:1058500002026AD55846041BA3459241591A524286
:10586000891A66468FE55846184336D04807E4083B
:1058700004438020C9080003014208D0DD08054226
:1058800005D15946CA085C071443291C6646630FB4
:10589000C9001943E400334D75E5324A9245AED153
:1058A000191C5C4655466EE5002837D0584618430B
:1058B00013D080254807E408C9082D030443294272
:1058C000E5D0D8082842E2D15D46EA085C071443D7
:1058D000011CDCE70023002473E5224D53E500237F
:1058E00054E700270022F1E63D1C203D0A1CEA4057
:1058F000151C202F31D04026F71BB9400C43611EE8
:105900008C412C430021CEE6164A0027151CDDE60B
:105910000C43611E8C41E4B2002186E7191C5C46F1
:10592000104D30E5191C5C462DE5031C3B43D8D0D7
:10593000011C3C1C27E52020404240190A1CC240A3
:105940009046202D0BD04020451BA9400C43611EE2
:105950008C4145462C43002167E70021CEE700211A
:10596000F4E7C046FF070000FFFF7FFFF0B55F468A
:1059700056464D464446F0B40D1C041C8046E80FC4
:10598000814618030F03000B3F0B83B084461B486E
:10599000009749005E00DF0F490D9246760DBB4629
:1059A00081420CD01548864210D00120B14215D05A
:1059B00003B03CBC90469946A246AB46F0BD009F62
:1059C00001202743F4D10D488642EED160460243C0
:1059D0000120002AECD10120B142E9D1009B6345AE
:1059E000E6D1D045E4D1D94506D00029E0D11C4309
:1059F000201C441EA041DBE70020D9E7FF07000080
:105A0000F0B55F4656464D464446F0B4CD0FDE0F26
:105A1000AC461D032D0BB146374E0F034C00AB4671
:105A20005D0080463F0B640D92466D0DB44232D04E
:105A3000314EB54235D0002C0ED138434142414160
:105A4000081C002D0BD0002919D1CC452DD065465E
:105A500068420123184318E0002DF6D1281C59464E
:105A60000A4353425341002806D1002BEDD0634630
:105A700058420123184308E00020002B05D14A4674
:105A8000504250414042012318433CBC9046994645
:105A9000A246AB46F0BD3E1C0643C9D002204042A0
:105AA000F3E75E461643C6D0F8E7AC4207DC0BDAF4
:105AB000614648424841404201231843E5E76646B3
:105AC000704201231843E0E75F450AD80ED000205A
:105AD0005F45DAD265466842684140420123184377
