:1000000000300020C1000000390700003B0700005D
:1000100000000000000000000000000000000000E0
:100020000000000000000000000000003D0700008C
:1000300000000000000000003F0700004107000032
:100040004307000043070000430700004307000088
:100050004307000043070000430700004307000078
:100060004307000043070000430700004307000068
:100070004307000043070000430700004307000058
:100080004307000043070000430700004307000048
:100090004307000043070000430700004307000038
:1000A0004307000043070000430700004307000028
:1000B0004307000043070000430700004307000018
:1000C0000749084A084B9B1A05DD002408591051BE
:1000D00004349C42FADB054880470548004700008D
:1000E00090250000C0F0FF1F3CF1FF1F750F0000BE
:0400F000BD0400004B
:10040000FFFFFFFFFFFFFFFFFFFFFFFFFEFFFFFFFD
:1004100010B5064C2378002B07D1054B002B02D0DA
:10042000044800E000BF0123237010BD3CF1FF1F12
:10043000000000008C25000008B5084B002B03D0FD
:100440000748084900E000BF07480368002B03D0B5
:10045000064B002B00D0984708BDC04600000000A6
:100460008C25000040F1FF1F3CF1FF1F0000000041
:1004700010B5074CE368626806481A6000F08CF813
:100480002369626803481A6000F086F8F2E7C04604
:1004900058F1FF1FCDCC4C3E08B506480023064955
:1004A000038043608360C3600361436100F03EF8F2
:1004B00008BDC04658F1FF1F481000000748084A11
:1004C00008B5121A002101F0EEF900E000BF01F0BA
:1004D000BBF9FFF7CDFF00F00FF8C0463CF1FF1F5E
:1004E0009CF2FF1F08B50123022802DD00F0D8F8B6
:1004F000031C181C08BDC04638B50B4C051C2368EE
:10050000986801F0A7F82368D86801F0A3F800F014
:1005100021F8002805D1002D00D1FEE700F080FD74
:10052000FBE700F01BF8F6E72CF1FF1F38B50D1CB8
:10053000041C00F007F901350AD023696268201C09
:1005400001211A6000F022F9201C002100F018F9A6
:1005500038BDC04608B500F00DF808BD30B585B00F
:100560006D461824201C291CABBE041C201C05B0A1
:1005700030BDC046014B18687047C046C0F0FF1F31
:1005800038B5051C00F084FA041C00F081FA031B46
:10059000AB42FAD338BDC04608B5044900F036FE78
:1005A00000F05EFFFFF7ECFF08BDC0460024744971
:1005B00008B5FA239B005843FFF7E2FF08BDC04689
:1005C00008B503480821042200F0C8FB08BDC04656
:1005D00090F2FF1F08B5002302280ADD0338074AFE
:1005E000810088588B50002805D003685B689847C5
:1005F000031C181C08BD01235B42FAE770F1FF1FC2
:10060000F8B50C1C171C022812DC104B1B68002BC1
:1006100001D1FFF7D5FF002F08D00D4DE619217845
:10062000281C013400F078FCB442F8D1381CF8BD25
:100630000338084B8000C058002803D003681B68AB
:100640009847F4E701204042F1E7C0467CF2FF1FE3
:1006500090F2FF1F70F1FF1F10B50C1C022809DC7F
:100660000C4B1B68002B0FD00B4800F041FC207096
:10067000012010BD0338094B8000C058002806D067
:1006800003689B689847F4E7FFF79AFFECE70120BF
:100690004042EEE77CF2FF1F90F2FF1F70F1FF1F58
:1006A00008B5031C0120022B08DD033B054A9B0013
:1006B0009858002803D00368DB68984708BD0120DC
:1006C0004042FBE770F1FF1F08B5031C0020022B1E
:1006D00008DD033B05489B001858002803D0036839
:1006E0001B69984708BD01204042FBE770F1FF1FDE
:1006F00008B5022804D880239B014B60002008BD68
:1007000000F0ECFE0923036001204042F7E7C046F9
:10071000074A13681818EFF30881884202D2106064
:10072000181C7047034B0C2201201A604042F8E766
:10073000C4F0FF1F98F2FF1FFEE7FEE7FEE7FEE7AB
:10074000FEE7FEE738B5041C0D1C21804B1C14D0BD
:10075000081C012100F02AF86B06DB0E01229A40EA
:10076000064B2D0BED18AD012B1DE3600433236107
:100770001435083362606361A56038BDC03FE00393
:1007800008B50023C05E00F033F808BD002907D08B
:10079000012904D18368426819680A431A607047C6
:1007A000836841681A688A431A60F8E7030BF0B55A
:1007B0000B4A0C4C1D1C09350127A658AF403D1CA7
:1007C0003543A550084A9B187C221B03104018187B
:1007D0000268064B1A400B02111C19430160F0BD60
:1007E000381000000070044049000400FFF8FFFFCB
:1007F000034B0322C01803689343194301607047F9
:1008000000900440154B8022196810B50A43144922
:100810001A600A68002A12D11249088800280BD0F1
:100820001A6098601C684020204318601C680120F2
:10083000204318600A8010BD00F060FCFBE7002038
:1008400018600948013A98601C68402020431860ED
:100850001C680120204318600A60ECE70000044097
:1008600070F2FF1F78F2FF1FFFFF0000F8B5794B11
:100870004F461D684646C0B4002D03D00CBC9046C0
:100880009946F8BD01271F60734E744B8022F158C2
:1008900012040A43F250724C0122882352425B0038
:1008A0002560E2508C235B000422E250E2586D493F
:1008B0003A43E250894671586B4B4903490F186817
:1008C0000131984600F052FC684B6949C01800F0AD
:1008D0004DFC802301385B00E05084235B00E7502F
:1008E000644B1C20F25864493A43F250634B1D603C
:1008F00000F026FB624B802252051A60494673586D
:10090000424610681B0F013358435E4B3F22197853
:10091000914380297AD01978914320D15A79510690
:1009200043D49A79D1061AD41A785B789206520F7A
:10093000974030221A426BD1524BDA781F239A43E8
:10094000602A7CD066D9A02A76D0C02A72D0802AAC
:1009500069D04D49784300F009FC071C32E0494B4F
:10096000022219780E200A431A70597801220A438C
:100970005A70424A00215160197A014010D0022970
:1009800002D15368536079E7197A81431972187A52
:10099000042101431972516804230B4353606DE72E
:1009A000516808230B43536068E71C791F2259796B
:1009B000131C23400A400133111C5843183100F026
:1009C000D5FB071C002FCAD0381C294900F012FCA7
:1009D0000029C4D1381C264900F0C8FB012825D0C5
:1009E0004008012834D0C207B9D40023012201E015
:1009F0000242B4D1013340080128F9D17822DB004A
:100A00001340032213431D4A536037E7071CD9E7FD
:100A10007F0191E7202A18D0402A13D0002A98D1CC
:100A2000A021890096E7B721890093E7134B07229D
:100A30005A6023E715498DE7B721C9008AE7A0214D
:100A4000090187E7F021C90084E7A021C90081E7F7
:100A50000323D8E774F2FF1F007004403C1000002D
:100A60000070034044100000C8F0FF1F20A10700E1
:100A700040420F003810000005080000000004404C
:100A800000E100E000400640710B00009508000006
:100A900008B5064B1B68002B01D1FFF7E7FE8A2340
:100AA000034A5B00D058C04308BDC04674F2FF1F24
:100AB00000700340024B40211A688A431A60704755
:100AC000000004407047C0461B4B10B51B68041C57
:100AD000002B2BD08A23194A5B00D058C043201A20
:100AE000002826DD164C1749031423600880164A97
:100AF0000DD10004000C1360906014684020204366
:100B0000106014680120204310600B8010BD00218C
:100B100011600E49013B9160106840210143116052
:100B200010680121014311602360EFE7FFF79EFE8B
:100B3000D0E700F0E3FAE9E774F2FF1F007003402A
:100B400070F2FF1F78F2FF1F00000440FFFF00005B
:100B50000D4A0E4B10B598580D4A000F126801301F
:100B600050430C4A5279510607D50B4A80219C58B4
:100B7000490221439950400810BD074A07499C5833
:100B800021409950F8E7C04644100000007004402E
:100B9000C8F0FF1F0040064004100000FFFFFEFFEA
:100BA000F8B54F464646C0B403680F1CDE78D978C6
:100BB0000C229143D97005684D4B041C16409D4290
:100BC00020D04C4B4C4AD1584C4B4903490F013172
:100BD000186800F0CBFA390100F0C8FA29781F2311
:100BE000020A99431A400B1C13432B702368C0B2AE
:100BF0005A7858702368DA781643DE700CBC904639
:100C00009946F8BD3E490B7889463F2188468B437B
:100C100036D0394A374BD358384A1B0F1068013346
:100C20005843374B3F22197891438029D3D0197804
:100C3000914335D15A79510634D49A79D1062FD4BB
:100C40001A7801219206520F91405B780A1C3021DC
:100C5000194200D052012A4B1F21DB788B43602BB5
:100C600035D02BD8202B35D0402B36D0002B04D0BC
:100C70002449504300F07AFAADE7A0218900F8E753
:100C8000FFF766FF002830D049460B784246934371
:100C900002D0256800209EE7FFF75AFF25689AE7F3
:100CA000002098E71A7959791F231A400B40013226
:100CB000191C5043183100F059FA8CE7A02B11D0C1
:100CC000C02B0DD0802BD3D1B7218900D1E7A02133
:100CD0000901CEE7A021C900CBE7F021C900C8E790
:100CE0000949C6E7B721C900C3E7256891E7C046AF
:100CF00000A006404410000000700440C8F0FF1F30
:100D000000400640710B00009508000070B50168B6
:100D10000C24CD78CE782540A643CE70012A19D078
:100D2000002A19D0911E4A425141490002682024EC
:100D300091700268013B11785B01A1431170026858
:100D400011780B43DBB2137003682A1CD9780A436D
:100D5000DA7070BD0321E9E70021E7E7F8B54D46F9
:100D600044465F465646F0B4051C56480F1C814663
:100D7000081C4946161C00F0A9F95349041C301CF4
:100D8000884600F0A3F9011C201C00F08DF94F4BA0
:100D9000041C2860984261D04D4A90426CD04D4866
:100DA0008346844236D0E1780C208143E1709C4236
:100DB0005FD094426BD05C454DD09621281C8901B0
:100DC000FFF7EEFE281C082100220123FFF79EFFFB
:100DD000381C494600F04CF94146301C00F048F9F7
:100DE000791C03D0381C0221FFF702FD721C03D0CE
:100DF000301C0221FFF7FCFC2B680C22D9780A4337
:100E0000DA70344B9C4252D03CBC90469946A24684
:100E1000AB46F8BD304B1A783F239A43231C002A77
:100E200038D02E492E4A802093468A589246020591
:100E3000504610435A46885028492A488022834603
:100E400008588246D0005246024358460A50DA7883
:100E50000C218A43DA7000236B60AEE71F4A214BF6
:100E60008021D05809010143D150E3780C229343EB
:100E7000E37001236B60A0E7184A1A4B8021D05819
:100E800049010143D150E3780C229343E3700223DC
:100E90006B6092E7FFF75CFE002811D0104B0F4A01
:100EA0008021D058C9040143D1502B68C4E70E4BB0
:100EB00001221A60291C08220C4800F0EBFCA3E771
:100EC0002B68AEE744240000D823000000B00640A1
:100ED00000C0064000A006400040064000700440EC
:100EE00004100000341000007CF2FF1F90F2FF1F7E
:100EF000036830B52021082508241A79144204D04B
:100F00001A792A43D2B21A7103681A791142F4D0BD
:100F1000D879C0B230BDC046036870B50826082530
:100F20007F241A79154204D01A793243D2B21A7149
:100F300003681A79A243F4D0C9B2D97170BDC04612
:100F40000A4B30B59C689B68221C002B09D1084DC8
:100F50005A191D5904331560C02BF8D1044A034BAC
:100F60009A6010308000815030BDC04600ED00E036
:100F700000F0FF1F224B88210022490110B55A5072
:100F8000204980205C588000204358501E481F494B
:100F900058501F4B1F49986C08409864D86C01400A
:100FA000D9641D4B892119701C4924234B709A2345
:100FB0000B70CB781F200340CB7001230B714A715B
:100FC00010228B791A42FCD114480C218379134AE0
:100FD0000B40082BFAD1402353710C2193790B401D
:100FE000082BFBD10D48402183790C4A1942FBD0D4
:100FF0001A2313700C2193790B400C2BFBD110BDDD
:10100000007004403810000000000110441000007F
:1010100000900440FFF8FFFE0050064000400640EC
:1010200000B587B072B608496846FFF77FFA039BA0
:10103000019A96201A60FFF7BBFA049B019A96204A
:101040001A60FFF7B5FAF2E7481000000FB400B5D8
:1010500083B004AA08CA054B04991B680192D8689A
:1010600000F05AFE0120FFF747FAC0462CF1FF1F9F
:1010700010B5041C421C03D109E09C4208D00C317D
:1010800000228B5E5A1CF8D10648FFF7DFFF10BD27
:10109000201C8968FFF78AFB201C0021FFF7A8FBB2
:1010A000F5E7C0469023000008B5884208D0431CED
:1010B00007D0013104D00448FFF7C8FF01204042A7
:1010C00008BD081CFCE7C046A4230000021C08B5AC
:1010D000531C03D10BE09A420AD00C3100200B5E66
:1010E000581CF8D10448FFF7B1FF0120404208BD69
:1010F0004868431CFBD1F5E7B8230000F8B54F461C
:101100004646C0B4FFF7DEFC1648174A80469146B3
:101110004046036812E01C685D68FFF7B9FC0027D1
:10112000061CA41BBD41002D12DC0FD042461168E5
:101130004846CB6813600268002A10D1002BEAD120
:10114000FFF7B8FC0CBC90469946F8BD002CEDD0DA
:101150004246136818685968FFF7B6FCF2E78868DA
:101160009047D5E780F2FF1F84F2FF1F002934D09B
:101170000123002210B488422CD301242407A14269
:1011800004D2814202D209011B01F8E7E400A14226
:1011900004D2814202D249005B00F8E7884201D3C1
:1011A000401A1A434C08A04202D3001B5C08224399
:1011B0008C08A04202D3001B9C082243CC08A0420A
:1011C00002D3001BDC082243002803D01B0901D0F6
:1011D0000909E3E7101C10BC7047002801D000206B
:1011E000C04307B4024802A14018029003BDC046A4
:1011F000190000000029F0D003B5FFF7B9FF0EBCBD
:101200004243891A1847C0467047C046F0B55F464A
:1012100056464D464446F0B44402460083B00F1C87
:10122000640A360EC50F002E41D0FF2E22D0802337
:101230001B0400201C43E4007F3E82468046391C8C
:101240004B007F02C90F7F0A1B0E8B463BD0FF2B42
:1012500034D0802212041743FF007F3B00215A46FE
:101260006A40019252460A430F2A63D87A48920094
:1012700082589746002C3FD1082202239246984676
:10128000DDE70195404602282AD1019A0125154043
:10129000FF2300246402DB05600AED07184328439E
:1012A00003B03CBC90469946A246AB46F0BD002C2C
:1012B00027D10420012282469046C0E7391C4A1EED
:1012C00091410231CBE70121002FC8D0381C00F03A
:1012D000E7F8431F9F4076235B421B1A0021BEE7BD
:1012E000032800D1AEE001284FD1019842461040BA
:1012F000C5B200230024CDE70C2303209A46804684
:101300009DE7201C00F0CCF87626431F9C407642D7
:101310000023361A9A46984691E780240025E40374
:10132000FF23B7E75B463C1C01938846AAE73C1CB9
:101330008846A7E7250C24043A0C240C3F04F61831
:101340003F0C211C231C794353436F435543FB1827
:101350000A0C9B18B1469F4202D980225202AD1856
:1013600009041A04090C521894011B0C611E8C41CB
:10137000920EED181443AD012C43230105D5012233
:1013800063080120144081441C434B467F33002BEB
:101390002DDD600704D00F222240042A00D004343F
:1013A000220103D52D4B1C404B468033FE2B17DD0D
:1013B000019B01251D400024FF236BE78020C00313
:1013C000044208D0074206D1041C3C436402640A6C
:1013D0005D46FF235EE704436402640AFF2359E786
:1013E0000198A4010125640ADBB2054052E77E237F
:1013F0005B424A469B1A1B2B05DD019B01251D40C4
:101400000024002346E7221CDA404B469E339C40D2
:10141000231C5C1EA3411343580704D00F221A401B
:10142000042A00D004335A0105D5019B01251D4033
:10143000002401232EE701989C010125640A054040
:10144000002327E78027FF03019B3C43640201251B
:101450001D40640AFF231DE7B0240000FFFFFFF7D3
:101460004302590A4300C20F1B0E00207E2B0DDDE4
:101470009D2B0CDC802000040143952B0ADC962078
:10148000C31AD9404842002A00D1081C7047034BB8
:10149000D018FBE7963B9940F4E7C046FFFFFF7F7B
:1014A0001C2101231B04984201D3000C10391B0A94
:1014B000984201D3000A08391B09984201D3000958
:1014C000043902A2105C40187047C04604030202AF
:1014D000010101010000000000000000014B18683C
:1014E0007047C0462CF1FF1FF7B58B89051C0C1CFB
:1014F00019075ED46268002A02DC276C002F1ADD0F
:10150000E76A002F17D000222E682A60802252013D
:101510001A4001D0626D15E0281C216A0123B847EA
:10152000021C411C0ED12B68002B0BD01D2B01D0AF
:10153000162B02D12E6000205EE0A38940210B43D0
:10154000A38159E0A3895F0706D56168636B521ACE
:10155000002B01D0276CD21B281C216A0023E76ACC
:10156000B847A289411C06D12B68002B03D01D2B44
:1015700001D0162B19D10023636023692360D7049F
:1015800005D5411C02D12A68002A00D16065616B33
:101590002E600029CFD0231C4433994202D0281C4E
:1015A00000F08AF90020606326E040231A43A281FC
:1015B00022E02669002EBED027680022BF1B0197BB
:1015C0002660990700D16269A260019F002FB2DDF9
:1015D000281C216A321C019BA76AB847002806DC38
:1015E000A389402213430120A381404204E0019FCC
:1015F00036183F1A0197E8E7FEBD00000A6938B5C2
:10160000051C0C1C002A01D100201CE0002804D07D
:101610008369002B01D100F085F80B4B9C4201D16E
:101620006C6808E0094B9C4201D1AC6803E0084BB0
:101630009C4200D1EC680C22A35E002BE4D0281C55
:10164000211CFFF751FF38BDF024000010250000D9
:101650003025000008B5011E05D1054B0549186865
:1016600000F0D0F803E0044B1868FFF7C7FF08BD8F
:1016700054250000FD1500002CF1FF1FF8B5041CD7
:10168000071C4834002C12D0A5686668013E0CD4B3
:10169000AB89012B07D90E22AB5E013303D0381C76
:1016A000291CFFF7ABFF6835F0E72468EAE7F8BDCF
:1016B000002310B5041C036043608360818143668E
:1016C000C281036143618361191C08225C3000F010
:1016D000EAF8054B24626362044BA362044BE362A5
:1016E000044B236310BDC046151A00003D1A0000CC
:1016F000751A0000A11A000070B54B1E68255D43E5
:101700000E1C291C743100F01FF9041E08D00021A2
:10171000016046602A1C0C30A060683200F0C3F8FB
:10172000201C70BD836913B5041C002B27D1836472
:10173000C3640365124B134A1B688262984201D14D
:1017400001238361201C00F01FF86060201C00F062
:101750001BF8A060201C00F017F80421E0600022B4
:101760006068FFF7A5FFA06809210122FFF7A0FF2D
:10177000E06812210222FFF79BFF0123A36113BD42
:10178000542500007D160000F8B51D4B071C1E688F
:10179000B269002A02D1301CFFF7C4FF4836B46892
:1017A0007368013B05D40C22A55E002D10D068346F
:1017B000F7E73368002B06D1381C0421FFF79CFFA4
:1017C0003060002801D03668E9E70C233B6016E062
:1017D00001235B42E381201C0123A3816566256010
:1017E000A560656025616561A5615C30291C0822E2
:1017F00000F059F86563A563A564E564201CF8BD95
:1018000054250000F7B5041C071C0191483400263C
:10181000002C16D06268A5680092009A013A0092E6
:101820000DD4AB89012B08D90E22AB5E013304D055
:10183000381C291C019B984706436835EDE724684E
:10184000E6E7301CFEBD000070B50E4B0E4D0024C7
:10185000ED1AAD101E1CAC4204D0A300F3589847FB
:101860000134F8E700F088FD084B094D0024ED1A1B
:10187000AD101E1CAC4204D0A300F35898470134AD
:10188000F8E770BD30F1FF1F30F1FF1F30F1FF1F8F
:1018900038F1FF1F10B50023934203D0CC5CC45431
:1018A0000133F9E710BD031C8218934202D019706E
:1018B0000133FAE77047000030B5002940D0043901
:1018C0000B68002B00DAC9181E4A1368141C002B81
:1018D00002D14B60116033E099420FD208680A18B8
:1018E0009A4205D113685268C01808604A6000E047
:1018F0004B60216024E08A4203D8131C5A68002AF6
:10190000F9D11D685C198C420BD109686918581807
:101910001960904214D114685268091919605A600C
:101920000EE08C4202D90C23036009E008680C1811
:10193000944203D114685268001908604A605960E3
:1019400030BDC0468CF2FF1F70B50323CD1C9D43F4
:101950000835061C0C2D01D20C2501E0002D3FDBC3
:101960008D423DD3204B1C681A1C211C002913D02A
:101970000868431B0DD40B2B02D90B60CC181EE05A
:101980008C4202D1636813601AE0486860600C1CE6
:1019900016E00C1C4968E9E7144C2068002803D1C4
:1019A000301C00F025F82060301C291C00F020F8C5
:1019B000431C15D0C41C03239C4384420AD12560D8
:1019C000201C0B300722231D9043C31A0BD05A4210
:1019D000E25008E0211A301C00F00AF80130EED184
:1019E0000C233360002070BD8CF2FF1F88F2FF1FB4
:1019F00038B5074C0023051C081C2360FEF788FE41
:101A0000431C03D12368002B00D02B6038BDC04697
:101A100098F2FF1F38B50C1C0E25495F00F074FCCE
:101A2000002803DB626D1318636503E0A289024B93
:101A30001340A38138BDC046FFEFFFFFF8B51E1C61
:101A40008B89051C0C1C171CDA0505D50E23C95EF5
:101A50000022022300F0E8FBA289054B281C13405A
:101A6000A3810E22A15E331C3A1C00F045FBF8BD99
:101A7000FFEFFFFF38B50C1C0E25495F00F0D4FBCB
:101A8000A389421C03D1054A1340A38104E08022AC
:101A900052011343A381606538BDC046FFEFFFFFCD
:101AA00008B50E23C95E00F0ADFB08BD0023C25C83
:101AB0000133002AFBD1581E7047936810B5013BD3
:101AC0009360002B05DA9469A34208DBCBB20A2BA2
:101AD00005D01368581C10601970C8B201E000F0FE
:101AE000B3FA10BDF8B5061C0F1C141CD518AC4277
:101AF00008D02178301C3A1CFFF7DFFF0134431C6B
:101B0000F5D100E00020F8BDF0B59FB0061C0F1C19
:101B100003920593002804D08169002901D1FFF7C1
:101B200001FE754B9F4201D1776808E0734B9F42DD
:101B300001D1B76803E0724B9F4200D1F768BB89BF
:101B40001A070AD53B69002B07D006AD00236B614D
:101B500020236B763023AB763BE0301C391C00F041
:101B6000DFFA0028F1D001204042C2E0059A111DA1
:101B700012680591002A76DB0992013423782E2B16
:101B800000D181E021785F48032200F0B1FB0028FA
:101B900007D05C492A68431A4020984010432860C7
:101BA00001342178631C584806220393297600F0FB
:101BB0009FFB002800D18AE0544B002B7ED1059B6F
:101BC000072207339343083305936A69049953182E
:101BD0006B61039C2378002B04D10399611A029155
:101BE00010D003E0252BF8D00134F3E7301C391C6A
:101BF000039A029BFFF776FF013075D06A6902995C
:101C000053186B612378002B6ED0012252426A6018
:101C10006A4600235B3201342B60EB60AB601370CB
:101C2000AB6521783A48052200F062FB002808D015
:101C3000374A0134831A012098402B6818432860E2
:101C4000EFE72B68D90603D56A4620215B32117075
:101C50001A0703D56A462B215B32117022782A2A93
:101C600084D0099B05E05242EA60022213432B60B4
:101C700083E72278303A092A04D80A214B430134F9
:101C80009B18F6E7099379E763782A2B09D1059B1E
:101C900002341A1D1B680592002B0DDA01235B42EA
:101CA0000AE0013400232278303A092A04D80A21B4
:101CB0004B4301349B18F6E7079363E705AB0093AA
:101CC000301C291C3A1C134B00E000BF07E005AB99
:101CD0000093301C291C3A1C0E4B00F09FF8049016
:101CE0000499013100D070E7BB895A0600D53AE764
:101CF0000B981FB0F0BDC046F02400001025000076
:101D0000302500005E250000622500000000000074
:101D100058250000E51A000038B5131C044A051CBC
:101D20000C1C1068291C221CFFF7EEFE38BDC046B3
:101D30002CF1FF1FF7B5151C01930A698B68061C6F
:101D40000C1C934200DA131C221C2B6043321278C5
:101D5000002A01D001332B602068800602D52B6851
:101D600002332B60216806270F401FD0231C43330A
:101D70001B785A1E9341226892061FD5E118403104
:101D80003020C870211C5A1C45310978A2184032F5
:101D90000233D17012E0221C301C01991932012348
:101DA000089FB847013011D0009F01370097E068C5
:101DB0002968009F431A9F42EDDBD7E7221C301CA5
:101DC00001994332089FB847013002D101204042B7
:101DD00023E0206806212B68E268014000250429E1
:101DE00003D1D51AEB43DB171D40A26823699A4241
:101DF00001DDD31AED1800270097009FAF420BDAE0
:101E0000221C301C01991A320123089FB847013067
:101E1000DCD0009F0137EFE70020FEBDF0B50D1CC0
:101E20008BB0433506920590079304950B7E0C1CEE
:101E3000109A6E2B00D1A7E011D8632B22D009D8BD
:101E4000002B00D1B0E0582B00D0C0E045310B7022
:101E50007B4D4EE0642B1CD0692B1AD0B7E0732B5E
:101E600000D1A5E009D86F2B29D0702B00D0AEE0AF
:101E70000E68202333430B6036E0752B1FD0782B80
:101E800032D0A4E013680D1C191D423511601B6887
:101E90009FE0216813680E0603D5191D11601E68A6
:101EA00005E04806F9D5191D116000215E5E644BFE
:101EB000002E3BDA049D2D2276422A7036E02168FE
:101EC00013680E0603D5191D11601E6804E048064C
:101ED000F9D5191D1E881160594B227E03930827DE
:101EE0006F2A1ED00A271CE0231C78214533554D4C
:101EF000197011682368081D039510601E0601D52E
:101F00000E6802E05806FBD50E88D90702D52022BC
:101F1000134323601027002E03D1226820239A4305
:101F20002260231C002243331A7001E003930A2726
:101F30006368A360002B03DB2568042295432560BA
:101F4000002E02D1049D002B0ED0049D301C391CA4
:101F5000FFF750F90398013D435C301C2B70391C8E
:101F6000FFF704F9061EF1D1082F09D12168C9072E
:101F700006D5626823699A4202DC013D30232B704A
:101F8000049E731B23612AE00868136849690506EB
:101F900004D5181D10601B68196005E04606F8D5C9
:101FA000181D10601B68198000232361049D16E032
:101FB0001368191D11601D68281CFFF777FD636801
:101FC0002061984200D923612069606004E0251CEB
:101FD00042352B7001232361049E00233370079E3A
:101FE00005980096211C09AA069BFFF7A3FE013065
:101FF00002D10120404221E02A1C0598069923695C
:10200000079DA8470130F4D02668B60705D4099B80
:10201000E068984212DA181C10E00025E06809997F
:10202000431A9D42F3DA221C0598069919320123BE
:10203000079EB0470130DCD00135EFE70BB0F0BDB3
:10204000692500007A25000070B5051C0E1C141CC3
:10205000002804D08269002A01D1FFF763FB234BDB
:102060009C4201D16C6808E0214B9C4201D1AC68D4
:1020700003E0204B9C4200D1EC68A369A360A389D4
:102080001A070AD52369002B07D022682369F6B204
:10209000D01A626990420FDB08E0281C211C00F076
:1020A0003FF80028F1D0012040421DE0281C211CEF
:1020B000FFF7A4FA0028F6D1A3680130013BA36022
:1020C00023685A1C22601E706369984205D0A38958
:1020D000301CDA0708D50A2E06D1281C211CFFF770
:1020E0008DFA0028DFD1301C70BDC046F0240000FE
:1020F000102500003025000038B5084C051C0020D4
:102100002060081C111C1A1CFEF77AFA431C03D12C
:102110002368002B00D02B6038BDC04698F2FF1F0B
:10212000344B70B51D68061C0C1C002D05D0A96928
:10213000002902D1281CFFF7F5FA2F4B9C4201D150
:102140006C6808E02D4B9C4201D1AC6803E02C4B3D
:102150009C4200D1EC68A28993B2190721D4D90618
:1021600005D40923336040231A43A2813FE05A0774
:1021700013D5616B002908D0231C4433994202D047
:10218000301CFFF799FB00236363A3892422934348
:10219000A3810023636023692360A389082213437A
:1021A000A381216900290BD1A389A02292001A40A2
:1021B00080239B009A4203D0301C211C00F048F879
:1021C000A38901221A4005D061690022A2604A4217
:1021D000A26103E0990700D46269A260226900202D
:1021E000824206D1190604D540221343A38101205F
:1021F000404270BD2CF1FF1FF024000010250000AC
:102200003025000038B5074C0023051C081C23604E
:10221000FEF7E0F9431C03D12368002B00D02B60AC
:1022200038BDC04698F2FF1F38B5084C051C002089
:102230002060081C111C1A1CFEF746FA431C03D12F
:102240002368002B00D02B6038BDC04698F2FF1FDA
:10225000F0B58B8991B0051C0C1C9A0725D40E2370
:10226000C95E002906DAA78980231F400FD0002706
:1022700040260EE001AA00F05BF80028F3DB029B89
:10228000F0273F02184A1F40BF187B425F4180265B
:10229000F600281C311CFFF757FB00280CD1A3893E
:1022A0009A051FD402221343A381231C47332360C2
:1022B00023610123636115E00C4B8022AB62A3898B
:1022C00020601343A38120616661002F0AD00E2392
:1022D000E15E281C00F03EF8002803D0A38901220B
:1022E0001343A38111B0F0BD00E0FFFF7D16000095
:1022F000C9B28218904204D003788B4202D00130D8
:10230000F8E700207047000038B5084C051C002095
:102310002060081C111C1A1CFEF79EF9431C03D1F7
:102320002368002B00D02B6038BDC04698F2FF1FF9
:1023300038B5074C0023051C081C111C2360FEF750
:10234000D7F9431C03D12368002B00D02B6038BD84
:1023500098F2FF1F38B5074C0023051C081C2360AA
:10236000FEF7C0F8431C03D12368002B00D02B607C
:1023700038BDC04698F2FF1FF8B5C046F8BC08BC8F
:102380009E467047F8B5C046F8BC08BC9E467047EC
:10239000636F756C64206E6F742070696E6F7574F6
:1023A0000000000070696E6D6170206D69732D6DA5
:1023B000617463680000000070696E6D6170206E6A
:1023C0006F7420666F756E6420666F722070657220
:1023D0006970686572616C000C20000000B00640F6
:1023E000030000000400000000A0064002000000FE
:1023F0001030000000C0064003000000083000005C
:1024000000C00640030000001830000000A0064095
:10241000030000005C40000000C006400400000013
:102420005440000000A006400400000004400000EA
:1024300000B0064003000000FFFF0000FFFFFFFFA9
:10244000000000001020000000B006400300000063
:102450000800000000A00640020000001430000048
:1024600000C00640030000000C30000000C0064021
:10247000030000001C30000000A006400300000024
:102480005040000000A0064004000000584000003A
:1024900000C00640040000000040000000B00640FC
:1024A00003000000FFFF0000FFFFFFFF000000002F
:1024B000341300002E1300002E130000241300001C
:1024C00084120000841200001A130000241300007C
:1024D000841200001A13000084120000241300006C
:1024E000821200008212000082120000BC13000061
:1024F00000000000000000000000000000000000DC
:1025000000000000000000000000000000000000CB
:1025100000000000000000000000000000000000BB
:1025200000000000000000000000000000000000AB
:10253000000000000000000000000000000000009B
:10254000000000000000000000000000000000008B
:1025500043000000CCF0FF1F232D302B2000686CBF
:102560004C006566674546470030313233343536B6
:1025700037383941424344454600303132333435EF
:102580003637383961626364656600000000000018
:1025900001000000A0F2FF1F006CDC020000000040
:1025A000F02400001025000030250000000000008D
:1025B00000000000000000000000000050250000A6
:1025C000000000000000000000000000000000000B
:1025D00000000000000000000000000000000000FB
:1025E00000000000000000000000000000000000EB
:1025F000000000000000000000000000CCF0FF1F01
:0C260000390400009904000011040000DF
:04000003000000C138
:00000001FF
