:1000000000300020C1000000011D0000031D0000A1
:1000100000000000000000000000000000000000E0
:10002000000000000000000000000000051D0000AE
:100030000000000000000000071D0000091D000076
:100040000B1D00000B1D00000B1D00000B1D000010
:100050000B1D00000B1D00000B1D00000B1D000000
:100060000B1D00000B1D00000B1D00000B1D0000F0
:100070000B1D00000B1D00000B1D00000B1D0000E0
:100080000B1D00000B1D00000B1D00000B1D0000D0
:100090000B1D00000B1D00000B1D00000B1D0000C0
:1000A0000B1D00000B1D00000B1D00000B1D0000B0
:1000B0000B1D00000B1D00000B1D00000B1D0000A0
:1000C0000749084A084B9B1A05DD002408591051BE
:1000D00004349C42FADB054880470548004700008D
:1000E0006C720000C0F0FF1FBCF2FF1F492400002B
:0400F0009105000076
:10040000FFFFFFFFFFFFFFFFFFFFFFFFFEFFFFFFFD
:1004100010B5064C2378002B07D1054B002B02D0DA
:10042000044800E000BF0123237010BD00F4FF1F4B
:10043000000000006872000008B5084B002B03D0D4
:100440000748084900E000BF07480368002B03D0B5
:10045000064B002B00D0984708BDC04600000000A6
:100460006872000004F4FF1FBCF2FF1F00000000D0
:1004700010B5034B041C036000F04AFE201C10BDA5
:10048000E06A000000000000F8B5204D1E4C00237B
:1004900046469846264B4F469946C0B41C4E1D4FC3
:1004A0001D4A1E4B301C391C02F016FE03F0A4F846
:1004B000194A1A4B06B2291C201C02F00DFE03F04B
:1004C0009BF8311C02B2484601F0E8FA0323984435
:1004D000184801F045FB404603F0C2F8104A114BA2
:1004E00002F0FAFD104A114B02F0D2FA041C0D1C66
:1004F00004F07AF8061C0F1C201C291C04F0C8F814
:10050000041C0D1CCCE7C0460000000000000000E9
:10051000000000000000F03F000000000000244048
:100520001F85EB51B81E09400000000000806640A6
:100530001CF4FF1F6F12833A70B5104C84B0012574
:1005400000260022009501950296201C00210C4BEC
:1005500001F082F90B4B201C23606823FF33E65423
:10056000B3235B000121E55400F0A8FB201C0649E1
:10057000064A02F0D9F804B070BDC0461CF4FF1F53
:1005800034120000386D000071040000C0F0FF1F3D
:100590000748084A08B5121A002103F0BCFA00E027
:1005A00000BF03F07FFAFFF76FFF01F09DFAC0462E
:1005B00000F4FF1F44FAFF1F08B50123022802DDE3
:1005C00001F052FB031C181C08BDC04608B503F01F
:1005D0008FFA08BD08B5012001F086FA7047C046C1
:1005E00000207047002070470020704700207047AF
:1005F000002070470020704700207047002070479F
:10060000002070470020704700207047002070478E
:10061000002070470020704700207047002070477E
:10062000002070470020704700207047002070476E
:10063000002070470020704700207047002070475E
:10064000002070470020704700207047002070474E
:1006500000207047002070477047C0460020704758
:100660007047C04600207047002070470020704748
:100670000020704708B58A2302225B00C25416226C
:100680000023FF3283548B22520083540268942348
:10069000D358984708BDC0467047C0467047C0460B
:1006A00000487047FCF0FF1F00487047CCF0FF1F68
:1006B0000048704718F1FF1F00487047F4F0FF1F13
:1006C00000487047C4F0FF1F0048704700F1FF1F4B
:1006D00070B5104D061C2B68DB0702D50E4C201C94
:1006E00070BD281C02F027F80028F7D0F423F35A35
:1006F000094C281C23721B0A6372F623F35AA37257
:100700001B0AE372F823F35A23731B0A637302F084
:1007100021F8E4E788F5FF1FE0F0FF1FF8B580231C
:100720005B00C25A041C1312022B30D0032B26D0BC
:10073000012B01D00020F8BD0268A8255359984725
:100740000028F7D02268201C535998470678122EAB
:10075000F0D12268201C535998474778012FE9D1DE
:10076000226886235B00E650201C53599847842357
:100770005B00E05088235B00E7540120DBE7FF23A8
:100780001A40052AD6D8244B92009B589F460268EF
:10079000AC25535998470028CCD02268201C5359C7
:1007A00098470378092BC5D12268201C53599847D4
:1007B0004378022BBED12268201C535998472268E7
:1007C00086785359201C9847C3781B021E43862302
:1007D0005B00E65008E0BC252268201C535998476E
:1007E000862302785B00E2502268201C5359984708
:1007F00084235B00E050882301225B00E254012047
:1008000099E7B025E8E7B425E6E7C425E4E7C02585
:10081000E2E7B825E0E7C0468C6A00000B781F20AD
:10082000DB0913700B785B069B0F53700B7803404A
:1008300093704B78D370CB7888781B0203439380F6
:100840004B7908791B020343D380CB7989791B024A
:100850000B4313817047C04686235B0070B5C558B3
:10086000041C002D11D11226FF36835D002B30D1E0
:1008700089256D00635D002B21D1201C00F084FCD4
:10088000201C00F073FC012070BD88235B00C35C5A
:100890000020012BF8D1402D00D940258426760078
:1008A0002A1C201CA15900F083FDA25901205319D4
:1008B000A35186235B00E258551BE550E4E722680C
:1008C0009C23D358201C0021002298470023635505
:1008D000D3E70021002200F06BFDA55589256D00AE
:1008E000635D002BC9D0EAE770B588235B00C35C69
:1008F00090B0041C002B1ED1694600F009FD862330
:100900005B00E158021C00208A4212D8842040007B
:100910002658B51825508D1AE55025D18926760020
:10092000A35D002B12D1201C0021002200F040FD0D
:10093000012010B070BD0023694600220B7000F04A
:1009400037FD201CFFF788FF0120F2E721689C2378
:10095000CB58201C69469847201CA5550021002231
:1009600000F026FD0120E4E7201C00F00DFC012032
:10097000DFE7C04610B5041CFFF7B6FF002802D120
:10098000201C00F007FC10BD10B5041CFFF764FF2D
:10099000002802D1201C00F0FDFB10BD10B5802303
:1009A0005B00C15C1623FF33041CC154002911D025
:1009B0000268A023D3589847031C0020002B00D1C5
:1009C00010BD201C00F0BAFB8A2304225B00E25415
:1009D0000120F5E700F0B4FB8A2303225B00E25418
:1009E0000120EDE708B58A235B00C35C042B05D02A
:1009F00081235B00C25A0023002A15D1FE23C35C69
:100A0000022B13D180235B00C25A0023002A0BD192
:100A100081235B00C35A0F2119401B06DB0F4900DD
:100A2000C91800F0DDFC0123181C08BD0023FBE7FA
:100A300008B58A235B00C35C042B05D081235B00CF
:100A4000C25A0023002A15D1FE23C35C022B13D106
:100A500080235B00C25A0023002A0BD181235B0054
:100A6000C35A0F2119401B06DB0F4900C91800F0BB
:100A7000C3FC0123181C08BD0023FBE738B58A23FB
:100A80005B00C35C041C042B05D081235B00C35AAC
:100A90000020002B24D1FE23E35C012B27D0002B68
:100AA00021D0022B1DD181235B00E35A0F22D909EB
:100AB000012513405B002940C918201C00F0A8FC48
:100AC0000E4B002817D01D8084225200A35086238D
:100AD00002225B00E250882301225B00E2540120E5
:100AE00038BD0020FCE7054B01221A80ECE7034BE0
:100AF00000221A80E8E71880E6E7C04684F5FF1F69
:100B000070B5FD23C35C041C002B0CD1FF23C35C18
:100B10000B2B08D82E4A9B00D3589F468A235B0094
:100B2000C35C042B4AD0002070BDFFF7A7FFFBE792
:100B3000FFF77EFFF8E7FFF755FFF5E780256D002B
:100B4000415D00F0FFFA635B002B31D18A23022262
:100B50005B00E2540120E7E7FFF7E0FDE4E78126D0
:100B6000802576006D00815B425D0068A423C35838
:100B7000201C98470028D6D0A25B8C235B00E25251
:100B8000625B8D235B00E2540120CDE71620FF302D
:100B9000221884235B00E250862201235200A350D6
:100BA00088225200A3540120BEE7FFF7F7FEBBE7FF
:100BB0008A2303225B00E2540120B5E78C235B000B
:100BC000C25A81235B00C2528D235B00C218E0E74A
:100BD000A46A000010B590B0041C694600F08EFBBA
:100BE000221CFC32201C6946FFF718FE84220023D9
:100BF0005200A35086225200A35088225200A354D0
:100C00001222FF32A35489225200A354226898234F
:100C1000D358201C984700282BD082235B00E35A2E
:100C2000002B0CD186235B00E358002B1FD1201C26
:100C30000021002200F0BCFB012010B010BDFC22FE
:100C4000A25C012A0ED088225200A25C002A0ED19A
:100C500086225200A2589A4209D1201C00F094FA30
:100C60000120EAE788225200A15C012908D0002077
:100C7000E3E7201CFFF744FF0028CED10020DCE78B
:100C80008620400022589A4205D92350201CFFF7A5
:100C9000E3FD0120D1E79A42F8D29306F6D1122360
:100CA000FF33E154F2E7C04610B5041CFFF792FF92
:100CB000002802D1201C00F06DFA10BD38B50D1CC3
:100CC000041C00F02BFA002D04D08A225200A35CF1
:100CD000042BFCD138BDC046FC30704708B500235A
:100CE00000F03AFA08BDC046F0B502684746AC24A9
:100CF00080B41359051C0E1C9847002806D02A689A
:100D0000281C135998470378092B03D0002004BCF2
:100D10009046F0BD2A68281C135998474378022B47
:100D2000F4D12A68281C135998472A6887781359E0
:100D3000281C9847C3781B023B4398460B2BE5D9E8
:100D40002A68281C13599847041C0934AC2708E06A
:100D500023782A68E418281CD359984740448442D1
:100D6000D4D26378B342F3D1201CD0E7F8B5041C89
:100D7000161C1D1C0F1C00F0D5F80B4B012208336C
:100D80002360F423E752F623E652F823E5528A2340
:100D90005B00E25416220023FF32A3548B22520040
:100DA000201CA354F8BDC046D86A000008B500F066
:100DB000FBF9013843425841C0B208BD70B50E1C62
:100DC0000499041C8B4204D88A256D00405D0428D8
:100DD00001D0002070BD201C311C00F0A3FA0128B6
:100DE000F7D1201C311C00F0EBFA012803D043425C
:100DF0005841C0B2EEE7635D042BF8D1F1E7C0467D
:100E00007047C0467047C0467047C0467047C046EE
:100E10007047C0467047C046F8B546464F46C0B416
:100E2000051C8846461091070CD4B400C20750D563
:100E3000A61C364FB300D859984600285BD0012233
:100E400091460AE001270740314C28D0A0680028CD
:100E500057D0B4000023A61C99462E4FC023E21998
:100E60000427D15CB84647460F43391C4F463943E7
:100E7000C9B2D1540334284BF600E4009E19002275
:100E80001B1970605A60254B01221E68AA40151C70
:100E900035431D6001200CBC90469946F8BD206882
:100EA000002823D0B4001B49C0236218D65C082157
:100EB00031430F43FFB2D754174BE200991846460F
:100EC0004E80486001348821D154E4000022E2546D
:100ED000D9E70E4F3601F059002801D00127E2E78B
:100EE0008020FFF773FBF0510127DCE70C48FFF788
:100EF0006DFB2060D6E78020FFF768FB4146C851B4
:100F00009DE70748FFF762FBA060A2E704F8FF1F18
:100F1000F4F8FF1F0020074000F6FF1F30F1FF1F0D
:100F2000FE070000F8B55F46564644464D46F0B40D
:100F30006E4B6F4D80268022760420210360AE50D8
:100F4000C160242141612821C1612C2141623021ED
:100F5000C162342141633821C1633C214164402195
:100F6000C164442141654821C1654C2141661C236F
:100F700050214360C1660123542183600361836172
:100F8000036283620363836303648364036583652D
:100F9000036683660367416758218367C167041C42
:100FA00083505C21842021508C218A4684468827E6
:100FB00060215046E3512150902194206350804697
:100FC0008B466421081C4146605098219C20635048
:100FD00080466821081C41466050A021A42063502F
:100FE00080466C21081C41466050A821AC2063500B
:100FF00080467021081C41466050B021B4206350E7
:1010000080467421081C41466050B821BC206350C2
:1010100080467821081C41466050C021C42063509E
:1010200080467C21081C41466050C8216350CC2179
:101030006250D022A3506146D422A150D822A3509E
:10104000DC22A750E022A3505046E422A050E82220
:10105000A3505946EC22A150F022A350254B264A1A
:10106000A0219858C90201439950244A80219858D8
:10107000C90201439950224B182022491C6000F0FC
:1010800019FD2E608620204D40002A5C80231343EA
:101090002B54862359002B5C1B4A5BB2002BF8DBD8
:1010A0001A4B9C201D0AEDB215541D0CEDB2B02058
:1010B00015541B0EB4201354FF208023D0548423D6
:1010C000D55C0F202843D05480235B00D05C3F25A3
:1010D0002840D054505C402303435354201C3CBC54
:1010E00090469946A246AB46F8BDC046B86B000094
:1010F00000E100E000700440041000003410000023
:101100008CF5FF1FB11600000020074000F6FF1FFE
:10111000014B03607047C046B86B0000064B942239
:10112000985C01210143995484225200985C10215B
:10113000014399547047C046002007407047C0469D
:101140007047C046024B01221A70024B197070475B
:1011500008F9FF1F00F8FF1F08B500201F2904D859
:10116000081C111C1A1CFFF757FE08BD044B012276
:10117000196891431960034B88221A707047C04662
:1011800030F1FF1F00F6FF1F014B40225A807047CD
:1011900000F6FF1F034AC023D05C02210143D15453
:1011A0007047C04600200740034B491049015918B9
:1011B00001204A807047C04600F6FF1FF0B55F4629
:1011C00056464D464446F0B4022083B01F2906D946
:1011D00003B03CBC90469946A246AB46F0BD012404
:1011E0000C42F5D148103F4F46018500AC46B2464F
:1011F000BD1930263618B600B1463B4E6D88B04654
:101200004E46464436782640B04600280DD1564614
:10121000F05D46468006000F0D3844424441A14629
:10122000002E06D03148804647E0002E3BD10020FA
:1012300081462F482D4C0668A0460020002D04D082
:10124000345C145401308542FAD82A4E01243068A7
:10125000B2466646F6000196BE5D8346B611C840AA
:101260004640344232D14E46002E32D09279002A86
:101270002FD15846012290435446012620608E40CB
:10128000C840C4071ED50198C8223A541649942272
:10129000885C2024A043885442461D6013680020C7
:1012A000B343136094E71148066880460E4101205D
:1012B000344200D18CE70024A14666460E48B400B3
:1012C0002658BAE7019988227A54DFE701268E4032
:1012D000D7E701268E405846704052461060C840FD
:1012E000CFE7C04600F6FF1F0020074004F9FF1FAC
:1012F000F4F8FF1F30F1FF1F04F8FF1F00B583B0A3
:101300000A1C01AB0021FFF759FF03B000BDC04626
:1013100000B583B00A1C01AB0021FFF74FFF019815
:1013200003B000BDF0B5474680B402201F2902D9A2
:1013300004BC9046F0BD01240C42F9D04810850051
:101340000235164F30308000EE008446A84614481F
:10135000BD196B806546285C044219D04046850063
:1013600010482D580020002B04D0145C2C54013060
:101370009842FAD10C4B1A68101CC840C4070AD511
:101380008820B8550120884042401A600120CFE7EC
:1013900006488568E6E7C820B855F3E700F6FF1F62
:1013A0000020074004F8FF1F30F1FF1FF4F8FF1F73
:1013B00010B50C1C131C0121221CFFF7B3FF10BD3C
:1013C000064B10B51A6801200A41D40704D51A68E3
:1013D000884082431A60002010BDC04604F9FF1FF8
:1013E000044B49108900C918C023C85C022202437B
:1013F000CA54704700200740044B49108900C9189F
:10140000C023CA5C02208243CA54704700200740B0
:101410004910034B30318900C85C8007C00F70470A
:1014200000200740F8B54D4644465F465646F0B4A6
:10143000974A8023D45C051CE4B2E0072CD5002336
:10144000101C00211A1C303292000133904C1154B0
:10145000102BF7D1402100220020FFF7DDFC4021B6
:1014600000220120FFF7D8FC8A4A8B4B1A60942394
:10147000E15C02220A43E254FF238022A354882223
:10148000A3548C22A35498230022E2543CBC9046DF
:101490009946A246AB46F8BD2021214200D0D15446
:1014A000042323423DD163B2002B4CDB210722D51C
:1014B000774A9023D65CD05CD35C0121C0089B089E
:1014C000084036091940002E4FD07300C018400064
:1014D0004118724AC9008A46101C5044037893464A
:1014E0009B061B0F012B69D0092B00D1CBE0684A6A
:1014F00008218023D154E30606D5654A8023D05CB9
:1015000010210143C9B2D154A007BFD5604BFF21C0
:10151000882299548022985C02210143C9B29954CF
:10152000B4E75B4A80215354A023D05CA423D15C50
:101530002B680902014349059B69490D281C9847FE
:1015400063B2002BB2DA524AC023D05C02210142BE
:1015500002D0D05C8843D0544D4A8023D05C802197
:101560000143D1542107C6D5A2E7400041184B4E94
:10157000CF00BB5D0F229B10904613400D2B71D006
:10158000012B07D12B68281C9B689847BB5D4246FE
:101590009B101340092BAAD12B68281CDB689847A5
:1015A0003F4B1A78012AA2D13E4A7F20127838494F
:1015B00010409822885400221A7098E73A4F1A1C5B
:1015C000B240181C90403968023AD2000143AA1870
:1015D0003960916881460B4233D15368334A4910D0
:1015E0009046126850189847002803D03B684A4636
:1015F00093433B60594651440B789B061B0F092BC4
:1016000000D074E70123181CB040421C061C191CB2
:101610009140013E3A68F6000A43AD193A60AA6863
:101620008946134216D14146086852106B688018EB
:101630009847002800D15AE73B684A4693433B60ED
:1016400055E71A4B491098461B68581801685368AB
:10165000CB58C8E743461868521080186B68016879
:10166000CB58E5E70C4B02221968281C91431960FE
:10167000327E7F231A403276327C134033742B68DB
:101680005B68984733E7094A074F9046BAE7C04678
:10169000002007405555555530F1FF1F00F6FF1F3C
:1016A00008F9FF1F00F8FF1F04F9FF1F8CF5FF1F4B
:1016B00008B5024B1868FFF7B5FE08BD8CF5FF1F93
:1016C0007047C04610B50268CC23D358041C984715
:1016D0008E235B00E05A10BD0048704794F1FF1F55
:1016E000004870477CF1FF1FF8B5051CFFF7F4FABE
:1016F0004378041C002B20D1C378062B36D1838875
:101700001B12212B34D0222B30D12A68CC2693599E
:10171000281C9847002839D02A68C827D359281C84
:101720009847002832D02A68281CD35998472A683D
:1017300020619359281C984722E00020012B14D1E6
:10174000E278092A11D1A18892225200A954218954
:10175000902252000131A9503F2226352261FF35E7
:101760000022E5602275A3750120F8BD0020FCE78A
:10177000281C2121FFF7B8FA00280AD00923236189
:101780000123E060237501206378D7E763780020A8
:10179000D4E76378D2E7C04670B50F4C051C2368C8
:1017A000DB0706D50D4E8E231C225B00301CEA524F
:1017B00070BD201C00F0BFFF084E0028F3D0662348
:1017C000FF33EB5C201C3374B2235B00EB5CB3751E
:1017D00000F0C0FFE7E7C04610F9FF1F34F1FF1F1C
:1017E00010B5041C0020012900D010BD03214022A7
:1017F000201CFFF773FA02214022201CFFF76EFA2B
:10180000201C02214022FFF7D1FA0120EDE7C0465B
:10181000F8B50F4C061C2268D20702D50D4D281CC6
:10182000F8BD201C00F087FF0028F7D03268C827D9
:10183000D359301C9847074D68763268301CD3590D
:101840009847000AA876201C00F084FFE7E7C0460E
:101850000CF9FF1F50F1FF1FF8B50F1C191C06AB48
:10186000041C161C08A81A8807AB1B880578201CC6
:10187000FFF77CFA084B08332360B2235B00E75480
:101880006623FF33E654002D03D0201C0121FFF70F
:1018900015FA201CF8BDC046506C000000B50B685E
:1018A00083B00A1D402100910321FFF787FA03B09E
:1018B00000BDC046B3235B00C35C012B07D0002BE7
:1018C0000BD18E2341225B00C252054870478E2304
:1018D00034225B00C2520348F8E70020F6E7C04616
:1018E0009CF1FF1F0CF2FF1FF8B50F4C061C22687D
:1018F000D20702D50D4D281CF8BD201C00F01BFF9F
:101900000028F7D03268C827D359301C9847074DB4
:1019100068763268301CD3599847000AA876201C94
:1019200000F018FFE7E7C04614F9FF1FE0F1FF1FC2
:10193000F0B54D465F4656464446F0B493B09146E6
:1019400000271CAAD757B3225200825C061C0D1C2C
:10195000002A29D0012A1FD107221A407F4290462F
:10196000FFB201AC7F2933DD7F20002283469246FF
:1019700003E07F3D2DB27F2D2ADD4346584623717B
:10198000607152460423301C211CA271E771236050
:10199000FFF784FF0028ECD1002013B03CBC904638
:1019A0009946A246AB46F0BD01A948468871484613
:1019B0000212CA71072213400D717F422D124B7221
:1019C000301C06234D710F720193FFF767FFE4E7A8
:1019D000281C803019DA8022002393469A4604E0BE
:1019E00080352DB22A1C80320FDA40462071042047
:1019F0005A4653462060211C301C6271A371E77166
:101A0000FFF74CFF0028EBD1C6E74B467F2B1ADDD2
:101A100000207F228346924605E04B467F3B18B26A
:101A200081467F280FDD4346584623716071524638
:101A30000423301C211CA271E7712360FFF72EFFE5
:101A40000028EAD1A8E74A4680321ADA002380202B
:101A50009B46824605E04B46803318B28146803073
:101A60000FDA4246504622715B46A0710422301CB8
:101A7000211C6371E7712260FFF710FF0028EAD193
:101A80008AE74B464246A371301C0423211C227175
:101A90006571E7710193FFF701FF7EE710B56823D9
:101AA00082B00024FF33C35C0094FFF741FF02B013
:101AB00010BDC0460A4B30B59C689B68221C002BA9
:101AC00009D1084D5A191D5904331560C02BF8D19E
:101AD000044A034B9A6010308000815030BDC046EC
:101AE00000ED00E000F0FF1F38B50B4C051C23682B
:101AF000986801F0DDFE2368D86801F0D9FE00F097
:101B00000DF8002805D1002D00D1FEE700F0F2FC11
:101B1000FBE700F007F8F6E7ACF2FF1F08B500F0AE
:101B20000DF808BD30B585B06D461824201C291C61
:101B3000ABBE041C201C05B030BDC046014B18686C
:101B40007047C04640F2FF1F38B5051C00F024FA6C
:101B5000041C00F021FA031BAB42FAD338BDC04687
:101B600008B5044900F04AFE00F072FFFFF7ECFFF1
:101B700008BDC0460024744908B5FA239B005843A9
:101B8000FFF7E2FF08BDC04608B50348082104225C
:101B900000F068FB08BDC04638FAFF1F08B50023F7
:101BA00002280ADD0338074A810088588B50002834
:101BB00005D003685B689847031C181C08BD012307
:101BC0005B42FAE718F9FF1FF8B50C1C171C022836
:101BD00012DC104B1B68002B01D1FFF7D5FF002F43
:101BE00008D00D4DE6192178281C013400F018FCAE
:101BF000B442F8D1381CF8BD0338084B8000C058F7
:101C0000002803D003681B689847F4E7012040428E
:101C1000F1E7C04624FAFF1F38FAFF1F18F9FF1F2B
:101C200010B50C1C022809DC0C4B1B68002B0FD0D4
:101C30000B4800F0E1FB2070012010BD0338094B78
:101C40008000C058002806D003689B689847F4E7D6
:101C5000FFF79AFFECE701204042EEE724FAFF1F6E
:101C600038FAFF1F18F9FF1F08B5031C0120022BCB
:101C700008DD033B054A9B009858002803D0036801
:101C8000DB68984708BD01204042FBE718F9FF1FB9
:101C900008B5031C0020022B08DD033B05489B0010
:101CA0001858002803D003681B69984708BD012015
:101CB0004042FBE718F9FF1F08B5022804D880232B
:101CC0009B014B60002008BD01F036FD0923036035
:101CD00001204042F7E7C046074A13681818EFF39F
:101CE0000881884202D21060181C7047034B0C22F6
:101CF00001201A604042F8E744F2FF1F40FAFF1F3C
:101D0000FEE7FEE7FEE7FEE7FEE7FEE7154B802273
:101D1000196810B50A4314491A600A68002A12D1DA
:101D20001249088800280BD01A6098601C6840206F
:101D3000204318601C680120204318600A8010BDF1
:101D400000F05AFCFBE7002018600948013A98604F
:101D50001C684020204318601C6801202043186044
:101D60000A60ECE70000044018FAFF1F20FAFF1F8A
:101D7000FFFF0000F8B5794B4F461D684646C0B4DA
:101D8000002D03D00CBC90469946F8BD01271F607A
:101D9000734E744B8022F15812040A43F250724C75
:101DA0000122882352425B002560E2508C235B00B5
:101DB0000422E250E2586D493A43E2508946715894
:101DC0006B4B4903490F18680131984600F0C6FC77
:101DD000684B6949C01800F0C1FC802301385B00E2
:101DE000E05084235B00E750644B1C20F2586449A8
:101DF0003A43F250634B1D60FFF75CFE624B80225A
:101E000052051A6049467358424610681B0F013349
:101E100058435E4B3F221978914380297AD0197834
:101E2000914320D15A79510643D49A79D1061AD4D4
:101E30001A785B789206520F974030221A426BD183
:101E4000524BDA781F239A43602A7CD066D9A02AA5
:101E500076D0C02A72D0802A69D04D49784300F0EC
:101E60007DFC071C32E0494B022219780E200A4300
:101E70001A70597801220A435A70424A002151606F
:101E8000197A014010D0022902D15368536079E7D2
:101E9000197A81431972187A042101431972516821
:101EA00004230B4353606DE7516808230B435360D1
:101EB00068E71C791F225979131C23400A4001331B
:101EC000111C5843183100F049FC071C002FCAD0E0
:101ED000381C294900F086FC0029C4D1381C264949
:101EE00000F03CFC012825D04008012834D0C2076E
:101EF000B9D40023012201E00242B4D101334008E9
:101F00000128F9D17822DB001340032213431D4A34
:101F1000536037E7071CD9E77F0191E7202A18D0E3
:101F2000402A13D0002A98D1A021890096E7B72132
:101F3000890093E7134B07225A6023E715498DE781
:101F4000B721C9008AE7A021090187E7F021C9006C
:101F500084E7A021C90081E70323D8E71CFAFF1F0B
:101F6000007004403C10000000700340441000006A
:101F700048F2FF1F20A1070040420F003810000068
:101F80000D1D00000000044000E100E0004006409C
:101F9000710B00009508000008B5064B1B68002B6C
:101FA00001D1FFF7E7FE8A23034A5B00D058C04304
:101FB00008BDC0461CFAFF1F00700340024B4021C1
:101FC0001A688A431A607047000004407047C04690
:101FD0001B4B10B51B68041C002B2BD08A23194AFD
:101FE0005B00D058C043201A002826DD164C174944
:101FF000031423600880164A0DD10004000C1360FE
:102000009060146840202043106014680120204331
:1020100010600B8010BD002111600E49013B9160E2
:1020200010684021014311601068012101431160D3
:102030002360EFE7FFF79EFED0E700F0DDFAE9E767
:102040001CFAFF1F0070034018FAFF1F20FAFF1F41
:1020500000000440FFFF00000D4A0E4B10B59858D9
:102060000D4A000F1268013050430C4A5279510654
:1020700007D50B4A80219C584902214399504008BA
:1020800010BD074A07499C5821409950F8E7C046BF
:10209000441000000070044048F2FF1F004006405A
:1020A00004100000FFFFFEFFF8B54F464646C0B4DF
:1020B00003680F1CDE78D9780C229143D97005682B
:1020C0004D4B041C16409D4220D04C4B4C4AD158DD
:1020D0004C4B4903490F0131186800F03FFB3901AF
:1020E00000F03CFB29781F23020A99431A400B1C7D
:1020F00013432B702368C0B25A7858702368DA787B
:102100001643DE700CBC90469946F8BD3E490B78EC
:1021100089463F2188468B4336D0394A374BD358BE
:10212000384A1B0F106801335843374B3F22197848
:1021300091438029D3D01978914335D15A795106EA
:1021400034D49A79D1062FD41A7801219206520FED
:1021500091405B780A1C3021194200D052012A4B71
:102160001F21DB788B43602B35D02BD8202B35D02B
:10217000402B36D0002B04D02449504300F0EEFA17
:10218000ADE7A0218900F8E7FFF766FF002830D00F
:1021900049460B784246934302D0256800209EE7CB
:1021A000FFF75AFF25689AE7002098E71A795979CE
:1021B0001F231A400B400132191C5043183100F004
:1021C000CDFA8CE7A02B11D0C02B0DD0802BD3D112
:1021D000B7218900D1E7A0210901CEE7A021C900DC
:1021E000CBE7F021C900C8E70949C6E7B721C90014
:1021F000C3E7256891E7C04600A0064044100000F0
:102200000070044048F2FF1F00400640710B0000C0
:102210009508000070B501680C24CD78CE78254073
:10222000A643CE70012A19D0002A19D0911E4A4225
:10223000514149000268202491700268013B1178E5
:102240005B01A1431170026811780B43DBB213707C
:1022500003682A1CD9780A43DA7070BD0321E9E7C4
:102260000021E7E7F8B54D4644465F465646F0B4D0
:10227000051C56480F1C8146081C4946161C00F0D8
:10228000A3F95349041C301C884600F09DF9011C39
:10229000201C00F087F94F4B041C2860984261D045
:1022A0004D4A90426CD04D488346844236D0E17806
:1022B0000C208143E1709C425FD094426BD05C451E
:1022C0004DD09621281C8901FFF7EEFE281C08211D
:1022D00000220123FFF79EFF381C494600F046F913
:1022E0004146301C00F042F9791C03D0381C022111
:1022F00000F010FA721C03D0301C022100F00AFA20
:102300002B680C22D9780A43DA70344B9C4252D0A5
:102310003CBC90469946A246AB46F8BD304B1A7875
:102320003F239A43231C002A38D02E492E4A80206E
:1023300093468A5892460205504610435A468850A2
:1023400028492A488022834608588246D0005246AF
:10235000024358460A50DA780C218A43DA70002387
:102360006B60AEE71F4A214B8021D0580901014321
:10237000D150E3780C229343E37001236B60A0E714
:10238000184A1A4B8021D05849010143D150E378B3
:102390000C229343E37002236B6092E7FFF75CFE2D
:1023A000002811D0104B0F4A8021D058C904014396
:1023B000D1502B68C4E70E4B01221A60291C082259
:1023C0000C4801F09FFBA3E72B68AEE7C46E00004A
:1023D000586E000000B0064000C0064000A0064055
:1023E000004006400070044004100000341000005B
:1023F00024FAFF1F38FAFF1F036830B52021082593
:1024000008241A79144204D01A792A43D2B21A71D4
:1024100003681A791142F4D0D879C0B230BDC046F1
:10242000036870B5082608257F241A79154204D060
:102430001A793243D2B21A7103681A79A243F4D0DE
:10244000C9B2D97170BDC046224B88210022490112
:1024500010B55A50204980205C58800020435850C5
:102460001E481F4958501F4B1F49986C08409864DC
:10247000D86C0140D9641D4B892119701C49242353
:102480004B709A230B70CB781F200340CB70012335
:102490000B714A7110228B791A42FCD114480C211D
:1024A0008379134A0B40082BFAD1402353710C2136
:1024B00093790B40082BFBD10D48402183790C4ABE
:1024C0001942FBD01A2313700C2193790B400C2B6B
:1024D000FBD110BD00700440381000000000011056
:1024E0004410000000900440FFF8FFFE005006403A
:1024F0000040064000B587B072B60849684600F053
:1025000021F8039B019A96201A60FFF735FB049B84
:10251000019A96201A60FFF72FFBF2E7481000009F
:102520000FB400B583B004AA08CA054B04991B6810
:102530000192D86801F028FD0120FFF7D5FAC046C6
:10254000ACF2FF1F38B50D1C041C00F08DF80135EE
:102550000AD023696268201C01211A6000F0A8F8E3
:10256000201C002100F09EF838BDC04610B5041CA8
:10257000421C03D109E09C4208D00C3100228B5E42
:102580005A1CF8D10648FFF7CBFF10BD201C896804
:1025900000F09EF8201C002100F0BCF8F5E7C046D2
:1025A000106E000008B5884208D0431C07D00131E6
:1025B00004D00448FFF7B4FF0120404208BD081CC6
:1025C000FCE7C046246E0000021C08B5531C03D172
:1025D0000BE09A420AD00C3100200B5E581CF8D157
:1025E0000448FFF79DFF0120404208BD4868431C96
:1025F000FBD1F5E7386E0000F8B54F464646C0B44B
:10260000FFF7E4FC1648174A8046914640460368A7
:1026100012E01C685D68FFF7BFFC0027061CA41BC6
:10262000BD41002D12DC0FD0424611684846CB68F0
:1026300013600268002A10D1002BEAD1FFF7BEFC1C
:102640000CBC90469946F8BD002CEDD0424613686C
:1026500018685968FFF7BCFCF2E788689047D5E72F
:1026600028FAFF1F2CFAFF1F38B5041C0D1C21800F
:102670004B1C14D0081C012100F02AF86B06DB0E5D
:1026800001229A40064B2D0BED18AD012B1DE36086
:10269000043323611435083362606361A56038BD7B
:1026A000C03FE00308B50023C05E00F033F808BD6A
:1026B000002907D0012904D18368426819680A43B8
:1026C0001A607047836841681A688A431A60F8E79D
:1026D000030BF0B50B4A0C4C1D1C09350127A658FD
:1026E000AF403D1C3543A550084A9B187C221B0374
:1026F000104018180268064B1A400B02111C1943AF
:102700000160F0BD38100000007004404900040072
:10271000FFF8FFFF034B0322C018036893431943DC
:10272000016070470090044008B5031C081C191C88
:1027300000F0F2FF08BD026808B501231A4207D174
:102740004278002A01D0FDF745FF4370181C00E0D5
:10275000002008BD0123036070470000002934D029
:102760000123002210B488422CD301242407A14263
:1027700004D2814202D209011B01F8E7E400A14220
:1027800004D2814202D249005B00F8E7884201D3BB
:10279000401A1A434C08A04202D3001B5C08224393
:1027A0008C08A04202D3001B9C082243CC08A04204
:1027B00002D3001BDC082243002803D01B0901D0F0
:1027C0000909E3E7101C10BC7047002801D0002065
:1027D000C04307B4024802A14018029003BDC0469E
:1027E000190000000029F0D003B5FFF7B9FF0EBCB7
:1027F0004243891A1847C0467047C046F0B55F4645
:1028000056464D464446F0B44402460083B00F1C81
:10281000640A360EC50F002E41D0FF2E22D0802331
:102820001B0400201C43E4007F3E82468046391C86
:102830004B007F02C90F7F0A1B0E8B463BD0FF2B3C
:1028400034D0802212041743FF007F3B00215A46F8
:102850006A40019252460A430F2A63D87A4892008E
:1028600082589746002C3FD1082202239246984670
:10287000DDE70195404602282AD1019A012515403D
:10288000FF2300246402DB05600AED071843284398
:1028900003B03CBC90469946A246AB46F0BD002C26
:1028A00027D10420012282469046C0E7391C4A1EE7
:1028B00091410231CBE70121002FC8D0381C00F034
:1028C0000DFF431F9F4076235B421B1A0021BEE78A
:1028D000032800D1AEE001284FD1019842461040B4
:1028E000C5B200230024CDE70C2303209A4680467E
:1028F0009DE7201C00F0F2FE7626431F9C407642A6
:102900000023361A9A46984691E780240025E4036E
:10291000FF23B7E75B463C1C01938846AAE73C1CB3
:102920008846A7E7250C24043A0C240C3F04F6182B
:102930003F0C211C231C794353436F435543FB1821
:102940000A0C9B18B1469F4202D980225202AD1850
:1029500009041A04090C521894011B0C611E8C41C5
:10296000920EED181443AD012C43230105D501222D
:1029700063080120144081441C434B467F33002BE5
:102980002DDD600704D00F222240042A00D0043439
:10299000220103D52D4B1C404B468033FE2B17DD07
:1029A000019B01251D400024FF236BE78020C0030D
:1029B000044208D0074206D1041C3C436402640A66
:1029C0005D46FF235EE704436402640AFF2359E780
:1029D0000198A4010125640ADBB2054052E77E2379
:1029E0005B424A469B1A1B2B05DD019B01251D40BE
:1029F0000024002346E7221CDA404B469E339C40CD
:102A0000231C5C1EA3411343580704D00F221A4015
:102A1000042A00D004335A0105D5019B01251D402D
:102A2000002401232EE701989C010125640A05403A
:102A3000002327E78027FF03019B3C436402012515
:102A40001D40640AFF231DE7306F0000FFFFFFF702
:102A50004302590A4300C20F1B0E00207E2B0DDDDE
:102A60009D2B0CDC802000040143952B0ADC962072
:102A7000C31AD9404842002A00D1081C7047034BB2
:102A8000D018FBE7963B9940F4E7C046FFFFFF7F75
:102A9000F0B5564644465F464D46F0B41F1C0B0346
:102AA0001B0B98464B0087B0041C81465B0DC80F7A
:102AB000161C9A460090002B51D06A4B9A4531D093
:102AC0008022414652030A43630FD2001A43664BE9
:102AD00090460025E20091469A44002402953B036B
:102AE0001B0B9B46FD0F7B00311C5B0D019560D0DD
:102AF0005C4A934254D08021584649030143720FE7
:102B0000C9001143584A8B469B18F1000020009AD7
:102B100004436A4003920F2C00D9ADE0534EA40049
:102B20003459A746404604436ED1002102250824AB
:102B3000884689460295D2E7009C0298C3464946DA
:102B40000194022864D0032800D1ABE2012800D010
:102B500038E2019A002402400025A14660E0434685
:102B600023434AD04046002800D1C0E100F0B6FD22
:102B7000031E272B00DDB3E128210D1A211C083B81
:102B80004246E9409A400D1C1543221C9A40A84633
:102B90009146374B00251B1A9A46002402959EE762
:102BA0005A4616430320002EB1D1B346002102201D
:102BB000ADE75A4632431BD05B46002B00D18AE179
:102BC000584600F08BFD272800DD7DE12822171AEA
:102BD000011C321C08395B46FA408B40171C1F430E
:102BE000331C8B40BB46191C214B1B1A00208EE75F
:102BF0000027BB460021012089E70020012504248D
:102C00008046814602956AE703250C24029566E713
:102C1000019C0394039D01222A400024114DA146EA
:102C2000002000212403260B0C0D2405114B3443F6
:102C30002D0523402B435B005B08D207191C484637
:102C4000114307B03CBC90469946A246AB46F0BD46
:102C50000022802424039146024DE1E70024002550
:102C6000A146DDE7FF07000001FCFFFF706F0000D9
:102C70000DFCFFFFFFFF0F805546ED1A0495D84568
:102C800000D953E100D14EE1049C0025013C4E46A1
:102C900004944746A946584603020C0E1C430902F9
:102CA000250C23041B0C0091381C291C0193FFF7F1
:102CB00055FD019983464143381C8A46291CFFF77C
:102CC00091FD330C090419438A450CD95B46091957
:102CD000013B8C4200D947E18A4500D844E10222F9
:102CE0005242934409195346CB1A181C291C984682
:102CF000FFF734FD071C0198291C784382464046A3
:102D0000FFF770FD36040B04360C33439A4509D99E
:102D10001B197A1E9C4200D924E19A4500D821E172
:102D2000023F1B195E4632041743380CBB46009E17
:102D3000009F51463F0C32045B1A5946BA46120CAA
:102D40000F043F0C904651467A434F43414641435E
:102D500056467043CF19160CBE19B14202D98027CE
:102D60007F02C019310C12043604120C4018B61838
:102D7000834200D2C4E000D1BEE0191A4846861B47
:102D8000B145BF417F42CF1BA74200D113E1291CAF
:102D9000381CFFF7E3FC019902904143381C894637
:102DA000291CFFF71FFD330C0904194389450CD971
:102DB000029B0919013B8C4200D9FFE0894500D8EC
:102DC000FCE0029F0919023F02974F46CF1B381CB7
:102DD000291C0597FFF7C2FC071C0198291C7843A2
:102DE00081460598FFF7FEFC36040904360C0E43B5
:102DF000B14509D936197B1EB44200D9E0E0B1458E
:102E000000D8DDE0023F3619029D4946761A2904B2
:102E100039430B0457460A0C1B0C404645465843A1
:102E200055437B437A43EB18070CDB199D4202D9CB
:102E300080256D0252191D0C00041B04000C521950
:102E40001B18964235D300D1FCE001231943049EA0
:102E5000994FF519002D00DCA1E0480709D00F2398
:102E60000B40042B05D00B1D8B42894149428B44FA
:102E7000191C5A46D20107D5904B5C46049E802708
:102E80001C40FF00A346F5198D4B9D427ADD039C43
:102E90000122224000248B4DA146C1E68024240358
:102EA000474627424CD13C432403240B009A854DCE
:102EB000B6E63619481EB4425ED9011C9642C4D10A
:102EC000009E9E42C1D1C2E7031C283B311C9940A1
:102ED0008B46002188E6301C00F000FC203072E6B2
:102EE000283B211C994000228846914651E6201C2F
:102EF00000F0F4FB20303BE60021B14500D33DE774
:102F0000009F5A46B944B945BF417F423F19FB185B
:102F1000013A9C421ED2984200D97EE000D1B5E031
:102F2000191A93462AE7894500D8ADE64846464631
:102F300042467708D3074608C0071E438146AAE6E3
:102F40005846204212D1044324032A1C240B8946EC
:102F50005C4D65E6A342E3D1009F4F45DBD9211AC2
:102F600093460BE7171CDDE69B46BCE63C43240377
:102F7000240B009A534D53E6B24259D800D18AE04F
:102F8000011C62E75F46C9087B07039E0B437C0276
:102F90006D0501229946240B6D0D324040E64A4BE7
:102FA000049FDB1B382B10DD039C012222400024F0
:102FB0000025A14634E60121494248E7029304E78F
:102FC0001F1C21E7019C039441E71F2B40DC3F4875
:102FD000049F0C1C3A1858469140DC409040204316
:102FE0000A1C511E8A41011C11435A46DA40131C27
:102FF000480709D00F220A40042A05D00A1D8A4238
:10300000894149425B18111C1A0234D5039C0122E4
:10301000224000240125A14602E6009F02214942E8
:10302000B9448B44B945894149420919CB18A4E6F2
:10303000009D881E6900A942AD416D422C193619C8
:1030400000913AE7002B00D033E70024009437E7E3
:103050001F4A049C5D46121BD5402A1C202B1FD002
:103060001C4E5F46A3199F403B1C19434B1E9941C0
:1030700011430023BCE75A07C9080A43039F91463E
:103080005B0201221C0B3A400025C9E54E45C4D81D
:103090009346002172E6009F9F42C9D3011C0FE7AF
:1030A0000023E2E7802424035F463C432403240BEF
:1030B000019A8946034DB3E5FF030000FFFFFFFEC1
:1030C000FE070000FF07000002FCFFFF1E040000D7
:1030D000E2FBFFFF3E040000F0B5564644465F4663
:1030E0004D46F0B41F1C0B031B0B9A464B0087B0D8
:1030F000041C80465B0DC80F161C02938146002BF2
:1031000068D0694B0299994232D0802253465203CB
:103110001A43D200630F1A439246644AE0008918AA
:1031200080460291002400253B031B0B9B46780040
:10313000FB0F321C400D039300D175E05A4B9842AF
:1031400069D08022594652030A43730FD2001A43B2
:10315000564B9346C018F200002303994E46714027
:103160001C430F2C00D9A9E0514EA4003459A746A6
:1031700053461C4300D087E00025AA46A8460824F1
:103180000225D1E74946022D6CD0032D00D117E26C
:10319000012D00D058E10D40EDB20024A9460023D6
:1031A000A0460020002125030A0D1C052D0B120549
:1031B000404B2A43134023435B004C465B08E20725
:1031C000191C4046114307B03CBC90469946A246A4
:1031D000AB46F0BD5346234350D05346002B00D19D
:1031E00084E1504600F07AFA031E272B00DD76E1D9
:1031F00028210D1A211C083B5246E9409A400D1C1B
:103200001543221C9A40AA4690462B4B00241B1AB9
:103210000293002588E75B461E430323002E9CD1C2
:10322000B3460022022398E75B46334321D0584639
:10323000002800D14EE100F051FA272800DD42E1DC
:1032400028210F1A021C311C083A5B46F9409340B2
:103250000F1C1F43331C9340BB461A1C164B181AF5
:1032600000237AE701230B4000249946A0460E4B29
:1032700097E70027BB46002201236EE700210424C4
:103280008A46884601254FE70C2403254CE7002594
:103290008024A9462403A846034B82E7DA469046D9
:1032A00003991D1C6FE7C046FF07000001FCFFFFEC
:1032B000B06F0000FFFF0F800DFCFFFF029F160C98
:1032C000381804904046070C0004000C1204120C3D
:1032D000031C5343041C3D1C7443554398463B1C3C
:1032E00073436419A44644460293230C63449D42ED
:1032F00004D9029D802464022D1902951D0C0395AA
:1033000045462C041B04240C1C1905945C46230C14
:10331000051C58432404240C8446381C6043654330
:103320005F438146CC44280C6044BB46814502D9AA
:1033300080277F02BB442D04070C2D0C000440198C
:103340005546BC462F04E3448446280C3D0C2F1CF4
:103350005743B8462F1C77434243B94647463F0C74
:103360009144BA46D14446434A4502D9802252028A
:10337000B6184F463A0CB6183A0447463F043F0C7D
:10338000B8462F1C67435D43444358436519019079
:10339000380C2D184244B846AC4204D90198802319
:1033A0005B02C0180190039C029F201C6044C0195E
:1033B0006045A44147466442A4462B043C04994618
:1033C000240C4C44A046D8448018C246E2449042A3
:1033D0009241574652429146F219E245BF417F421F
:1033E0004B46BC46D845BF41D4187F4263461F4375
:1033F0002D0C7F19B24292414C45AD4152426D4273
:103400001543019E7D19AB19E20D5B02059F134325
:1034100042023A439A46531E9A41C30D101C184368
:103420006402204380465046C0010DD54546012226
:103430005646049C6B082A401A43F30701341A438A
:10344000760804949046B246049E634FF319002B0D
:1034500061DD404640070BD00F2244462240042A3B
:1034600006D0424604324245804140428244904662
:103470005546ED0107D5594B5646049F80201E4006
:10348000C000B2463B18564A934200DDEAE6444685
:103490005546E2086807104301226C025B050A40AA
:1034A0008046240B5B0D91467BE6DA4690461D1C58
:1034B00069E680242403574627421CD13C43240359
:1034C000240B484B6DE6031C283B311C99408B466E
:1034D0000022C3E6301C00F001F92030ADE6283BA5
:1034E000211C994000228A4690468EE6201C00F05E
:1034F000F5F8203078E65846204207D10443039976
:103500002403240B89469046364B4AE63C43240369
:10351000240B344B45E6344B049E9B1B382B06DDB5
:1035200001230B4000249946A046002339E61F2BB7
:1035300025DC049C2D4D4646601952464446864083
:10354000DC4082405746301C2243DF40441EA041ED
:1035500002433B1C540709D00F201040042805D01B
:10356000101D9042924152429B18021C1D021AD516
:1035700001230B4000249946A046012311E61C4874
:10358000049C5546001BC540281C202B16D0194E04
:103590005746A21997403A1C43461A43531E9A4174
:1035A00002430023D6E758075B02D2081C0B012315
:1035B0000B401043994680460023F2E50022EBE7DA
:1035C0008024240350460123044319402403240B80
:1035D0008946044BE5E5C046FF030000FFFFFFFE00
:1035E000FE070000FF07000002FCFFFF1E040000B2
:1035F000E2FBFFFF3E04000070B50B1C124C0903F8
:103600000E0B5900021C490DDD0F0020A14211DDF7
:103610000E4881420FDC8020400306430C48401ACC
:103620001F280BDD0B4A521AD640321C5042002D87
:1036300000D1101C70BD084BE818FBE7074BC240D7
:10364000C9188E403243F1E7FE0300001D0400005C
:103650003304000013040000FFFFFF7FEDFBFFFFBA
:10366000F8B5041E31D0C70F00D04442201C00F032
:1036700035F8184D2D1A0A2819DD0B38844024031B
:103680006D05240B6D0D3A1C0026002000210B0D4A
:103690002403240B1B0523430F4C2D051C402C43F6
:1036A00064006408D307211C301C1943F8BD061CB4
:1036B0001536231CB3401E1C0B23181AC4402403C8
:1036C0006D05240B6D0D3A1CDFE700220025002458
:1036D0000026DAE71E040000FFFF0F801C210123F3
:1036E0001B04984201D3000C10391B0A984201D3E5
:1036F000000A08391B09984201D30009043902A2C3
:10370000105C40187047C046040302020101010129
:10371000000000000000000038B5051C05480C1C26
:10372000131C002804D00220291C221C00E000BF2A
:1037300038BDC04600000000014B18687047C04605
:10374000ACF2FF1FF7B58B89051C0C1C19075ED462
:103750006268002A02DC276C002F1ADDE76A002F5E
:1037600017D000222E682A60802252011A4001D010
:10377000626D15E0281C216A0123B847021C411C18
:103780000ED12B68002B0BD01D2B01D0162B02D194
:103790002E6000205EE0A38940210B43A38159E005
:1037A000A3895F0706D56168636B521A002B01D0AD
:1037B000276CD21B281C216A0023E76AB847A2891C
:1037C000411C06D12B68002B03D01D2B01D0162BDA
:1037D00019D10023636023692360D70405D5411CF8
:1037E00002D12A68002A00D16065616B2E60002931
:1037F000CFD0231C4433994202D0281C00F094F906
:103800000020606326E040231A43A28122E026695B
:10381000002EBED027680022BF1B019726609907A3
:1038200000D16269A260019F002FB2DD281C216ACD
:10383000321C019BA76AB847002806DCA3894022F6
:1038400013430120A381404204E0019F36183F1A30
:103850000197E8E7FEBD00000A6938B5051C0C1C9D
:10386000002A01D100201CE0002804D08369002B2D
:1038700001D100F085F80B4B9C4201D16C6808E047
:10388000094B9C4201D1AC6803E0084B9C4200D13B
:10389000EC680C22A35E002BE4D0281C211CFFF74F
:1038A00051FF38BDF06F0000107000003070000054
:1038B00008B5011E05D1054B0549186800F0D0F880
:1038C00003E0044B1868FFF7C7FF08BD5470000001
:1038D00059380000ACF2FF1FF8B5041C071C48342F
:1038E000002C12D0A5686668013E0CD4AB89012B70
:1038F00007D90E22AB5E013303D0381C291CFFF719
:10390000ABFF6835F0E72468EAE7F8BD002310B59F
:10391000041C03604360836081814366C28103614C
:1039200043618361191C08225C3000F0F4F8054BF8
:1039300024626362044BA362044BE362044B23637F
:1039400010BDC046853C0000AD3C0000E53C0000D9
:10395000113D000070B54B1E68255D430E1C291CEF
:10396000743100F029F9041E08D00021016046607E
:103970002A1C0C30A060683200F0CDF8201C70BD0D
:10398000836913B5041C002B27D18364C3640365CA
:10399000124B134A1B688262984201D10123836152
:1039A000201C00F01FF86060201C00F01BF8A060D5
:1039B000201C00F017F80421E06000226068FFF787
:1039C000A5FFA06809210122FFF7A0FFE0681221EE
:1039D0000222FFF79BFF0123A36113BD5470000077
:1039E000D9380000F8B51D4B071C1E68B269002AC3
:1039F00002D1301CFFF7C4FF4836B4687368013B3E
:103A000005D40C22A55E002D10D06834F7E733688A
:103A1000002B06D1381C0421FFF79CFF30600028E2
:103A200001D03668E9E70C233B6016E001235B42D6
:103A3000E381201C0123A38165662560A560656084
:103A400025616561A5615C30291C082200F063F8DE
:103A50006563A563A564E564201CF8BD547000008F
:103A6000F7B5041C071C019148340026002C16D021
:103A70006268A5680092009A013A00920DD4AB8961
:103A8000012B08D90E22AB5E013304D0381C291C4F
:103A9000019B984706436835EDE72468E6E7301C4C
:103AA000FEBD000070B50E4B0E4D0024ED1AAD109A
:103AB0001E1CAC4204D0A300F35898470134F8E729
:103AC00002F0D8FF084B094D0024ED1AAD101E1C62
:103AD000AC4204D0A300F35898470134F8E770BD16
:103AE000B0F2FF1FB0F2FF1FB0F2FF1FB8F2FF1FCE
:103AF00008B5034B011C186800F05EF808BDC0460D
:103B0000ACF2FF1F10B50023934203D0CC5CC45429
:103B10000133F9E710BD031C8218934202D01970DB
:103B20000133FAE77047000030B5002940D004396E
:103B30000B68002B00DAC9181E4A1368141C002BEE
:103B400002D14B60116033E099420FD208680A1825
:103B50009A4205D113685268C01808604A6000E0B4
:103B60004B60216024E08A4203D8131C5A68002A63
:103B7000F9D11D685C198C420BD109686918581875
:103B80001960904214D114685268091919605A607A
:103B90000EE08C4202D90C23036009E008680C187F
:103BA000944203D114685268001908604A60596051
:103BB00030BDC04634FAFF1F70B50323CD1C9D43B2
:103BC0000835061C0C2D01D20C2501E0002D3FDB31
:103BD0008D423DD3204B1C681A1C211C002913D098
:103BE0000868431B0DD40B2B02D90B60CC181EE0C8
:103BF0008C4202D1636813601AE0486860600C1C54
:103C000016E00C1C4968E9E7144C2068002803D131
:103C1000301C00F025F82060301C291C00F020F832
:103C2000431C15D0C41C03239C4384420AD1256045
:103C3000201C0B300722231D9043C31A0BD05A427D
:103C4000E25008E0211A301C00F00AF80130EED1F1
:103C50000C233360002070BD34FAFF1F30FAFF1FC1
:103C600038B5074C0023051C081C2360FEF734F808
:103C7000431C03D12368002B00D02B6038BDC04605
:103C800040FAFF1F38B50C1C0E25495F00F074FC8C
:103C9000002803DB626D1318636503E0A289024B01
:103CA0001340A38138BDC046FFEFFFFFF8B51E1CCF
:103CB0008B89051C0C1C171CDA0505D50E23C95E63
:103CC0000022022300F0E8FBA289054B281C1340C8
:103CD000A3810E22A15E331C3A1C00F045FBF8BD07
:103CE000FFEFFFFF38B50C1C0E25495F00F0D4FB39
:103CF000A389421C03D1054A1340A38104E080221A
:103D000052011343A381606538BDC046FFEFFFFF3A
:103D100008B50E23C95E00F0ADFB08BD0023C25CF0
:103D20000133002AFBD1581E7047936810B5013B40
:103D30009360002B05DA9469A34208DBCBB20A2B0F
:103D400005D01368581C10601970C8B201E000F06B
:103D5000B3FA10BDF8B5061C0F1C141CD518AC42E4
:103D600008D02178301C3A1CFFF7DFFF0134431CD8
:103D7000F5D100E00020F8BDF0B59FB0061C0F1C87
:103D800003920593002804D08169002901D1FFF72F
:103D9000F7FD754B9F4201D1776808E0734B9F4256
:103DA00001D1B76803E0724B9F4200D1F768BB892D
:103DB0001A070AD53B69002B07D006AD00236B61BB
:103DC00020236B763023AB763BE0301C391C00F0AF
:103DD000DFFA0028F1D001204042C2E0059A111D0F
:103DE00012680591002A76DB0992013423782E2B84
:103DF00000D181E021785F48032200F0B1FB002868
:103E000007D05C492A68431A402098401043286034
:103E100001342178631C584806220393297600F068
:103E20009FFB002800D18AE0544B002B7ED1059BDC
:103E3000072207339343083305936A69049953189B
:103E40006B61039C2378002B04D10399611A0291C2
:103E500010D003E0252BF8D00134F3E7301C391CD7
:103E6000039A029BFFF776FF013075D06A690299C9
:103E700053186B612378002B6ED0012252426A6086
:103E80006A4600235B3201342B60EB60AB60137039
:103E9000AB6521783A48052200F062FB002808D083
:103EA000374A0134831A012098402B681843286050
:103EB000EFE72B68D90603D56A4620215B321170E3
:103EC0001A0703D56A462B215B32117022782A2A01
:103ED00084D0099B05E05242EA60022213432B6022
:103EE00083E72278303A092A04D80A214B43013467
:103EF0009B18F6E7099379E763782A2B09D1059B8C
:103F000002341A1D1B680592002B0DDA01235B4257
:103F10000AE0013400232278303A092A04D80A2121
:103F20004B4301349B18F6E7079363E705AB009317
:103F3000301C291C3A1C134B00E000BF07E005AB06
:103F40000093301C291C3A1C0E4B00F09FF8049083
:103F50000499013100D070E7BB895A0600D53AE7D1
:103F60000B981FB0F0BDC046F06F0000107000004D
:103F7000307000005E700000627000000000000001
:103F800058700000553D000038B5131C044A051C4C
:103F90000C1C1068291C221CFFF7EEFE38BDC04621
:103FA000ACF2FF1FF7B5151C01930A698B68061C5C
:103FB0000C1C934200DA131C221C2B604332127833
:103FC000002A01D001332B602068800602D52B68BF
:103FD00002332B60216806270F401FD0231C433378
:103FE0001B785A1E9341226892061FD5E118403172
:103FF0003020C870211C5A1C45310978A218403263
:104000000233D17012E0221C301C019919320123B5
:10401000089FB847013011D0009F01370097E06832
:104020002968009F431A9F42EDDBD7E7221C301C12
:1040300001994332089FB847013002D10120404224
:1040400023E0206806212B68E2680140002504294E
:1040500003D1D51AEB43DB171D40A26823699A42AE
:1040600001DDD31AED1800270097009FAF420BDA4D
:10407000221C301C01991A320123089FB8470130D5
:10408000DCD0009F0137EFE70020FEBDF0B50D1C2E
:104090008BB0433506920590079304950B7E0C1C5C
:1040A000109A6E2B00D1A7E011D8632B22D009D82B
:1040B000002B00D1B0E0582B00D0C0E045310B7090
:1040C0007B4D4EE0642B1CD0692B1AD0B7E0732BCC
:1040D00000D1A5E009D86F2B29D0702B00D0AEE01D
:1040E0000E68202333430B6036E0752B1FD0782BEE
:1040F00032D0A4E013680D1C191D423511601B68F5
:104100009FE0216813680E0603D5191D11601E6813
:1041100005E04806F9D5191D116000215E5E644B6B
:10412000002E3BDA049D2D2276422A7036E021686B
:1041300013680E0603D5191D11601E6804E04806B9
:10414000F9D5191D1E881160594B227E039308274B
:104150006F2A1ED00A271CE0231C78214533554DB9
:10416000197011682368081D039510601E0601D59B
:104170000E6802E05806FBD50E88D90702D520222A
:10418000134323601027002E03D1226820239A4373
:104190002260231C002243331A7001E003930A2794
:1041A0006368A360002B03DB256804229543256028
:1041B000002E02D1049D002B0ED0049D301C391C12
:1041C000FEF710FB0398013D435C301C2B70391C3B
:1041D000FEF7C4FA061EF1D1082F09D12168C907DC
:1041E00006D5626823699A4202DC013D30232B70B8
:1041F000049E731B23612AE0086813684969050659
:1042000004D5181D10601B68196005E04606F8D536
:10421000181D10601B68198000232361049D16E09F
:104220001368191D11601D68281CFFF777FD63686E
:104230002061984200D923612069606004E0251C58
:1042400042352B7001232361049E00233370079EA7
:1042500005980096211C09AA069BFFF7A3FE0130D2
:1042600002D10120404221E02A1C059806992369C9
:10427000079DA8470130F4D02668B60705D4099BEE
:10428000E068984212DA181C10E00025E0680999ED
:10429000431A9D42F3DA221C05980699193201232C
:1042A000079EB0470130DCD00135EFE70BB0F0BD21
:1042B000697000007A70000070B5051C0E1C141C9B
:1042C000002804D08269002A01D1FFF759FB234B53
:1042D0009C4201D16C6808E0214B9C4201D1AC6842
:1042E00003E0204B9C4200D1EC68A369A360A38942
:1042F0001A070AD52369002B07D022682369F6B272
:10430000D01A626990420FDB08E0281C211C00F0E3
:104310003FF80028F1D0012040421DE0281C211C5C
:10432000FFF79AFA0028F6D1A3680130013BA36099
:1043300023685A1C22601E706369984205D0A389C5
:10434000301CDA0708D50A2E06D1281C211CFFF7DD
:1043500083FA0028DFD1301C70BDC046F06F00002A
:10436000107000003070000038B5084C051C0020AB
:104370002060081C111C1A1CFDF726FC431C03D1ED
:104380002368002B00D02B6038BDC04640FAFF1FC9
:10439000344B70B51D68061C0C1C002D05D0A96996
:1043A000002902D1281CFFF7EBFA2F4B9C4201D1C8
:1043B0006C6808E02D4B9C4201D1AC6803E02C4BAB
:1043C0009C4200D1EC68A28993B2190721D4D90686
:1043D00005D40923336040231A43A2813FE05A07E2
:1043E00013D5616B002908D0231C4433994202D0B5
:1043F000301CFFF799FB00236363A38924229343B6
:10440000A3810023636023692360A38908221343E7
:10441000A381216900290BD1A389A02292001A400F
:1044200080239B009A4203D0301C211C00F048F8E6
:10443000A38901221A4005D061690022A2604A4284
:10444000A26103E0990700D46269A260226900209A
:10445000824206D1190604D540221343A3810120CC
:10446000404270BDACF2FF1FF06F00001070000002
:104470003070000038B5074C0023051C081C236071
:10448000FDF78CFB431C03D12368002B00D02B606D
:1044900038BDC04640FAFF1F38B5084C051C002047
:1044A0002060081C111C1A1CFDF7F2FB431C03D1F1
:1044B0002368002B00D02B6038BDC04640FAFF1F98
:1044C000F0B58B8991B0051C0C1C9A0725D40E23DE
:1044D000C95E002906DAA78980231F400FD0002774
:1044E00040260EE001AA00F05BF80028F3DB029BF7
:1044F000F0273F02184A1F40BF187B425F418026C9
:10450000F600281C311CFFF757FB00280CD1A389AB
:104510009A051FD402221343A381231C473323602F
:1045200023610123636115E00C4B8022AB62A389F8
:1045300020601343A38120616661002F0AD00E23FF
:10454000E15E281C00F03EF8002803D0A389012278
:104550001343A38111B0F0BD00E0FFFFD938000084
:10456000C9B28218904204D003788B4202D0013045
:10457000F8E700207047000038B5084C051C002003
:104580002060081C111C1A1CFDF74AFB431C03D1B8
:104590002368002B00D02B6038BDC04640FAFF1FB7
:1045A00038B5074C0023051C081C111C2360FDF7BF
:1045B00083FB431C03D12368002B00D02B6038BD44
:1045C00040FAFF1F38B5074C0023051C081C236068
:1045D000FBF7F2FF431C03D12368002B00D02B60B4
:1045E00038BDC04640FAFF1F10B5021C26480B1C00
:1045F000490086B0490881421EDD2448814205DD1C
:10460000101C191C01F00CFF06B010BD101C191C69
:1046100002AA00F095F80323184001281DD00228B3
:1046200011D0002824D0012402980399049A059BF4
:10463000009400F0FDFFE7E7101C191C114B104A15
:1046400000F0BAFAE0E7049A059B0298039900F09B
:10465000B3FA80231B06C918D6E7049A059B00907D
:104660000298039900F0E4FF80231B06C918CBE7EA
:1046700002980399049A059B00F09EFAC4E7C0468D
:104680000000000000000000FB21E93FFFFFEF7F7A
:1046900010B5021C28480B1C490086B0490881420D
:1046A0001FDD2648814205DD101C191C01F0B8FEF3
:1046B00006B010BD101C191C02AA00F041F803231B
:1046C0001840012822D0022814D0002825D0049AAE
:1046D000059B0298039900F06FFA80231B06C91806
:1046E000E6E700210091101C191C124B104A00F043
:1046F0009FFFDDE70124049A059B0298039900942B
:1047000000F096FF80231B06C918D1E7049A059B89
:104710000298039900F050FACAE70124029803991D
:10472000049A059B009400F083FFC1E7C046C04691
:104730000000000000000000FB21E93FFFFFEF7FC9
:10474000F0B556464D4644465F46F0B44B005E0811
:10475000A34B91B0041C0D1C91468A469E4200DC7E
:1047600086E0A04B9E4223DC002900DCCEE1291C20
:104770008C4B8B4A01F054FE9B4B041C0D1C9E423B
:1047800000D18FE0884A894B01F04AFE021C0B1CC5
:1047900049460A604B60201C291C01F041FE824AF8
:1047A000824B01F03DFE4A469060D160012067E0F7
:1047B0008E4B9E4200DC91E08D4B9E4267DC8D4922
:1047C0003315C9180B05F51A8B46291C041CFEF776
:1047D00013FFFEF745FF021C0B1C201C291C0A922C
:1047E0000B9301F01DFE724A724BFEF775FC0F1C15
:1047F000061CFEF701FFFEF733FF041C0D1C221CF4
:104800002B1C301C391C0C940D9501F009FE684AD4
:10481000684BFEF761FC684A684B0E900F9101F0FF
:104820006FF9002800D192E1634A644B201C291CD7
:1048300001F066F9431E984102231B1A02220092DE
:104840006D4A0AA8019249465A4600F0D9FA5246E2
:10485000002A15DA4C466468802109066318494627
:10486000CA68802424064B601319CB60404207E0DD
:10487000111C14605560504A504B8A60CB60002078
:1048800011B03CBC90469946A246AB46F0BD221CF6
:104890002B1C01F0C5FD4A469060D160106051604C
:1048A0000020EDE7464A474B01F0BAFD464A474B28
:1048B000041C0D1C01F0B4FD021C0B1C49460A60CF
:1048C0004B60201C291C01F0ABFD3F4A3F4B01F01F
:1048D000A7FD4A469060D1600120D1E700F054FF67
:1048E0003B4A3C4B041C0D1CFEF7F6FB3A4A3B4B83
:1048F00001F034F9FEF780FE8346FEF7B1FE294B46
:10490000274A04900591FEF7E7FB021C0B1C201CB4
:10491000291C01F085FD244A244B02900391049840
:104920000599FEF7D9FB5B4606900791029803991B
:104930001F2B65DC5A46013A304B9200D358B342E4
:104940005ED0069A079B01F06BFD0D1C0F1C041C2A
:1049500049460C604D60804642463B1C02980399D4
:1049600001F05EFD069A079B01F05AFD4A46041CC1
:104970000D1C9460D5605446031C5846002C00DB87
:104980007EE744461460802212064C46BF18891800
:104990006760A360E160404272E7C046C046C0461F
:1049A00000004054FB21F93F3163621A61B4D03DED
:1049B0000000000000007041000000000000000046
:1049C0000000601A61B4D03D7370032E8A19A33BB6
:1049D00083C8C96D305FE43F000000000000E03F85
:1049E000FB21E93F7BD90240FB21F93FFB21394103
:1049F000FFFFEF7FEAFBFFFF0C7100008C700000EF
:104A0000069A079B01F00CFD4B00041C0D1C4A4646
:104A100036155B0D80460F1C14605560F31A102B81
:104A20009ADD584B564A04980599FEF755FB041C2D
:104A30000D1C221C2B1C0298039901F0F1FC08901C
:104A40000991089A099B0298039901F0E9FC221C3C
:104A50002B1C01F0E5FC4C4A4C4B041C0D1C04982B
:104A60000599FEF739FB221C2B1C01F0D9FC06909E
:104A70000791069A079B0898099901F0D1FC4B46CB
:104A80000D1C041C1C605D604B005B0D0F1C804600
:104A90000899099AF31A02910392312B00DC5BE723
:104AA0003B4A3C4B04980599FEF716FB041C0D1C71
:104AB000221C2B1C0298039901F0B2FC0290039176
:104AC000029A039B0898099901F0AAFC221C2B1C4E
:104AD00001F0A6FC304A314B041C0D1C04980599CA
:104AE000FEF7FAFA221C2B1C01F09AFC06900791A3
:104AF000069A079B0298039901F092FC4A46041C0F
:104B00000D1C80460F1C1460556025E7291C244AA3
:104B1000244B01F023F8264B041C0D1C9E4218D098
:104B2000214A224B01F01AF8021C0B1C49460A606C
:104B30004B60201C291C01F073FC1B4A1B4B01F02D
:104B40000DF84A469060D1600120404298E6032368
:104B500074E60C4B0A4A01F001F80B4A0B4B041C9B
:104B60000D1C00F0FBFF021C0B1C49460A604B6049
:104B7000201C291C01F054FC034A044BDFE7C0460B
:104B80000000601A61B4D03D7370032E8A19A33BF4
:104B90000000002E8A19A33BC14920259A837B3946
:104BA00000004054FB21F93F3163621A61B4D03DEB
:104BB000FB21F93FC046C046F0B5474680B488B0F7
:104BC000029203934B005B089846894B061C0F1C0E
:104BD000984563DCFEF710FD002800D1DDE0321CB3
:104BE0003B1C301C391CFEF777FA6E4B6C4A041CD8
:104BF0000D1CFEF771FA6C4A6C4B00F0AFFF221CE3
:104C00002B1CFEF769FA6A4A6A4B01F009FC221C68
:104C10002B1CFEF761FA684A684B00F09FFF221CCC
:104C20002B1CFEF759FA664A664B01F0F9FB221C71
:104C30002B1CFEF751FA644A644B00F08FFF221CD4
:104C40002B1CFEF749FA04900591614A614B201C28
:104C5000291CFEF741FA049A059B00900191201C43
:104C6000291CFEF739FA029A039B041C0D1C301C08
:104C7000391CFEF731FA021C0B1C201C291C01F008
:104C8000CFFB021C0B1C0098019901F0C9FB021C10
:104C90000B1C5148514901F0C3FB71E0321C3B1C15
:104CA000FEF71AFA3F4B3E4A041C0D1CFEF714FA9D
:104CB0003D4A3E4B00F052FF221C2B1CFEF70CFA23
:104CC0003B4A3C4B01F0ACFB221C2B1CFEF704FAC8
:104CD000394A3A4B00F042FF221C2B1CFEF7FCF92C
:104CE000374A384B01F09CFB221C2B1CFEF7F4F9D1
:104CF000354A364B00F032FF2B1C221CFEF7ECF934
:104D00003C4B0490059198459FDD3B4B98453BDC1F
:104D10003A4900220B1C43442F483049009201932A
:104D200001F07EFB06900791294A2A4B201C291C82
:104D3000FEF7D2F9009A019B01F072FB049A059BE1
:104D400000900191201C291CFEF7C6F9029A039BD2
:104D5000041C0D1C301C391CFEF7BEF9021C0B1C78
:104D6000201C291C01F05CFB021C0B1C0098019903
:104D700001F056FB021C0B1C0698079901F050FB32
:104D800008B004BC9046F0BD154A164B0692079336
:104D90001549164A00910192C6E70F480F49EFE7FF
:104DA000D43888BEE9FAA8BDC4B1B4BD9EEE213E98
:104DB000AD529C804F7E923E9015CB19A001FA3ED9
:104DC0007751C1166CC1563F4C5555555555A53FA9
:104DD000000000000000E03F000000000000F03F85
:104DE000000000000000E73F000000000000D23F8C
:104DF000FFFF3F3E3233D33F0000E93F0000E0FFBA
:104E0000F0B556464D4644465F46F0B48E4C824659
:104E1000A544A89D10938D4B141CAA00109DD25838
:104E20000E91013DE01E18210C92069500F0F8FD50
:104E3000C343DB171840C3435A00D318DB001B19C8
:104E40000F90441B0C980B932F1817D4A998A5000A
:104E5000E71926AE4519013707E02868FEF700FC80
:104E6000013403C60435BC4208D0002CF5DA013405
:104E70006C496B48043503C6BC42F6D10C9C002C2F
:104E800000DAADE30C9B109C0133DB00E4009EAD27
:104E9000A34699462B1C5B44E93B002076ACFF3BC4
:104EA00080460D940493069D002D00DAACE1049831
:104EB0000026071C47445B4D594C5046831918681F
:104EC00059683A687B68FEF707F9021C0B1C201C26
:104ED000291C00F043FE0836041C0D1C083F5E45EB
:104EE000EBD10D9908220B1C434490441C605D607B
:104EF000C845D8D10C9D11ACAB000894E4181194AE
:104F00000A950A9C0D9DE300EB181E685F68002C53
:104F100038DD231C013BDB00ED1812A8A300A846D6
:104F2000C418554681460495A2463F4A3F4B301C63
:104F3000391CFEF7D1F8FEF75FFBFEF791FB3C4A08
:104F40003C4B041C0D1CFEF7C7F8021C0B1C301C4C
:104F5000391C01F065FAFEF74FFB494604318946DA
:104F6000043901C1201C4446291C2268636800F0F2
:104F7000F5FD08256D42061C0F1CA844D145D4D16F
:104F800004988246301C391C0B9A00F0B9FC2A4A5E
:104F90002A4B041C0D1CFEF79FF800F0F9FB284A71
:104FA000284BFEF799F8021C0B1C201C291C01F051
:104FB00037FA041C0D1CFEF71FFB8146FEF750FB61
:104FC000021C0B1C201C291C01F02AFA0B9C061C3D
:104FD0000F1C002C00DCF9E00A9A12AD013A920095
:104FE000AB581821091B181C0841814488401B1A22
:104FF000AB5017252D1B2B410993099D002D50DD2A
:105000000A9C0125A944002C00DC08E1A10012AB98
:105010008022591800240E48550423E0C046C0469B
:105020000000000000000000000000000000703ED2
:105030000000000000007041000000000000C03FC0
:10504000000000000000204084FDFFFF14720000FB
:10505000FFFFFF00002A02D0AA1A1A6001240433BD
:105060008B4208D01A68002CF4D0821A1A600433DC
:1050700001248B42F6D10B9D002D0EDD012D00D1B8
:10508000AFE0022D09D10A9B12AA013B9B00D25826
:1050900012AD02929202920AEA50099D022D00D1AD
:1050A0007BE0301C391CCB4BC94A00F029FD00289D
:1050B00000D1B6E00A980C9C013884420CDC8100D7
:1050C00012AD119C6B1800221D68043B2A43A342B9
:1050D000FAD1002A00D067E20C9B12A8013B9B008A
:1050E000C358002B00D079E20C9B0122023B9B00AD
:1050F000C318043B596801320029FAD00A9B0A9C64
:105100000133A4180A94A34200DDFAE60F9DA99C7E
:105110005A199200A418069DA1460D9CEA18DB00BE
:10512000E318109D0A9C04932B19D20026A8DB00DB
:1051300026AD80185D198046099549460868FEF736
:105140008FFA069C424610605160002C22DB4746D5
:105150000026A04D9E4C50468319186859683A683D
:105160007B68FDF7B9FF021C0B1C201C291C00F0FA
:10517000F5FC0836041C0D1C083F5E45EBD1049974
:10518000082330C1099C0422984404919144A0450D
:10519000D3D1B6E68F4D8E4CF1E7321C3B1C8E48C6
:1051A0008E4901F03DF9061C0F1C002C00D178E758
:1051B0000B9A8948894900F0A3FB021C0B1C301C88
:1051C000391C01F02DF9061C0F1C6AE70B9C002C02
:1051D00011D10A9B12A8013B9B00C558ED150995FA
:1051E0000BE70A9B12A8013B9B00C05812A9420280
:1051F000520ACA5051E77A4A7A4B00F0A5FC0028BF
:1052000005D1002409944CE7724D714C69E60224E3
:1052100009940A9C0125A944002C00DDF6E600242F
:1052200029E70B9D4C466A42301C391C0F9400F054
:1052300067FB6D4A6D4B041C0D1C00F085FC0028BB
:1052400000D1D3E16A4A6B4B201C291CFDF744FFB7
:10525000FEF7D2F9061C0A988700301CFEF700FA08
:10526000614A624BFDF738FF021C0B1C201C291CF5
:1052700001F0D6F8FEF7C0F90A9A0B9C904601227D
:105280009044454612A91834AB00C8510B94CE5037
:10529000514852490B9A00F033FB4346041C0D1C45
:1052A000002B5CDB0D999E00DB0012A89B460F1CB7
:1052B00086195F443068FEF7D3F9221C2B1CFDF7DA
:1052C0000BFF4B4A4B4B38607960201C291CFDF7C3
:1052D00003FF089A043E041C0D1C083F9642E9D1C6
:1052E0000D9B45461C1C5C440C9A0494013500201F
:1052F0004EA9444606958346894692460A945046EE
:10530000002860DB3C49049F8846324D304C002623
:1053100004E00823984408375E4511DC42461068D3
:1053200051683A687B68FDF7D7FE021C0B1C201CF5
:10533000291C00F013FC0136041C0D1CB245E8DAF0
:105340005846C3004B441C605D60049C0121069DCF
:10535000083C8B440494AB45D1D10A9A9046A89C52
:10536000022C4BDC002C00DDDFE020D14346002B7B
:1053700000DA5AE1DC004EAD2C194CAE00250023BA
:10538000281C191C2268636800F0E8FB083C051C17
:105390000B1CB442F4D1099C191C002C02D08020B3
:1053A000000619180E9C2A1C0B1C226063600F9CBF
:1053B000072020409F239B009D443CBC904699467B
:1053C000A246AB46F0BD034D014CB9E7C046C0460E
:1053D0000000000000000000000000000000F03F9E
:1053E000000000000000E03F0000000000007041ED
:1053F000000000000000703E28720000A89D032DF0
:10540000D5D14046002800DC0AE140464EADC00040
:1054100083462B1C5B441E685F684346013BA946DC
:10542000DB004B444CAC04930A949A4601E0261CE2
:105430002F1C55462C686D68321C201C291C3B1CF7
:105440000694079500F08AFB041C0D1C221C2B1CE3
:105450000698079900F0E4FF321C3B1C00F07EFB2D
:1054600052469060D160082040420A9982441460FC
:1054700055608A45DBD1424600270026012A3ADDE5
:105480004B46049D5B441E685F68A84601E0261CED
:105490002F1C45462C686D68321C201C291C3B1CA7
:1054A0000494059500F05AFB041C0D1C221C2B1CB7
:1054B0000498059900F0B4FF321C3B1C00F04EFB31
:1054C00042469060D160082040428044146055609C
:1054D000C145DCD14C464D465C44083500270026CA
:1054E000381C311C2268636800F038FB083C071C3C
:1054F0000E1CAC42F4D1099C002C00D181E00E9C22
:105500004E984D4620606D68802000062B18494655
:1055100063604846CB688022120680689B18B618E4
:10552000A060E3602761666141E7424600250024F0
:10553000002A10DBD3004EA8C6184CAF002500246B
:10554000281C211C3268736800F008FB083E051C0B
:105550000C1CBE42F4D1099A211C002A02D08023DF
:105560001B06E1180E980B1C2A1C026043604E9823
:105570004F992A1C231C00F053FF4246002A07DDE6
:1055800050ACD50065190CCC00F0E8FAAC42FAD169
:10559000099C002C02D080252D0649190E9C021C66
:1055A0000B1CA260E36002E70B9D804612A84358E3
:1055B0004C46183D0F940B95002B00D068E64246F0
:1055C000013A9300C318291C00E0013A043B5D68CE
:1055D0001839002DF9D090460B9159E601228DE53E
:1055E000109D76ACED00AB460D9483E40A98291C1F
:1055F0008600201CFEF700F80A9A12A988519046EE
:1056000046E60E9C4E984F993A1C20606160331C10
:1056100049468868C96822616361A060E160C6E6A6
:105620004EA900270026894665E700250023B2E63B
:10563000F0B589B004920593514B4A00061C0F1C2B
:1056400052089A4206DCFDF7D7FF391C031C301CB8
:10565000002B64D0321C3B1C301C391CFDF73CFD78
:10566000321C3B1C041C0D1CFDF736FD374B364A23
:1056700002900391201C291CFDF72EFD344A354B66
:1056800000F0CEFE221C2B1CFDF726FD324A334BC8
:1056900000F064FA221C2B1CFDF71EFD304A314B32
:1056A00000F0BEFE221C2B1CFDF716FD2E4A2F4BD0
:1056B00000F054FA0E9B06900791002B31D02C4A33
:1056C0002C4B04980599FDF707FD069A079B00905F
:1056D000019102980399FDF7FFFC021C0B1C009836
:1056E000019900F09DFE221C2B1CFDF7F5FC049A8D
:1056F000059B00F095FE204A204B041C0D1C0298CF
:105700000399FDF7E9FC021C0B1C201C291C00F06E
:1057100025FA021C0B1C301C391C00F081FE09B05C
:10572000F0BD069A079B201C291CFDF7D5FC124AE8
:10573000124B00F075FE029A039BFDF7CDFC321C64
:105740003B1C00F00BFAEAE77CD5CF5A3AD9E53D8D
:10575000EB9C2B8AE6E55A3E7DFEB157E31DC73E22
:10576000D561C119A0012A3FA6F810111111813F7E
:10577000000000000000E03F495555555555C53F14
:10578000FFFF3F3EC046C0464B0059087047C04629
:10579000F0B556464D4644465F46F0B4524A4F0077
:1057A0007F0D83B0BE18041C0D1C89468A468046B6
:1057B0000197132E2ADC002E56DB4C4F021C37417A
:1057C0003B1C0B4003439C46BB4667460B1C002F0B
:1057D00013D0424B404A00F0C1F9414A414B00F01E
:1057E000A9F9002807D0002D4EDB53465F46BB4386
:1057F0000022994690464B464246101C191C03B0A5
:105800003CBC90469946A246AB46F0BD332E0BDD1C
:105810000B1C8021021CC9008E42EED1291C00F015
:105820009DF9021C0B1CE8E7019F314ABB180122BD
:105830005242DA4093465F46021C0B1C0742DCD002
:10584000264B254A00F08AF9254A264B00F072F9CA
:105850000028D0D0002D1DDB42465B469A4390467F
:10586000D1464B464246C8E71C4B1B4A00F076F92E
:105870001B4A1C4B00F05EF90028BCD0002D17DB42
:105880000027B846B946B6E780235B0333415E196B
:10589000B246AAE7142E19D0164B019A9F1A01237B
:1058A000BB401B199C420FD96F1CBA469846D3E7E0
:1058B0006B005B081C4302D10027B8469BE70E4FE4
:1058C00000239846B94696E79846C5E76B1C9A466A
:1058D000C2E7C046C046C0469C7500883CE4377E9F
:1058E000000000000000000001FCFFFFFFFF0F00B0
:1058F000EDFBFFFF330400000000F0BFC046C046D0
:10590000F8B53D4E171C331C0B40041C0D1C0A1C23
:105910001B1525D14B005B0818431ED0201C291CE9
:105920002E4B2D4AFDF7D8FB344B041C0D1C9F4217
:1059300031DB0E4033150A1C363B3149DB198B42F3
:1059400015DD221C2B1C2648264900F061F8244A4C
:10595000244BFDF7C1FB041C0D1C291C201CF8BDA9
:1059600028498B421ED02649DB198B42E9DC002BEB
:1059700005DD25491B050A401D1C1543EDE7191CD3
:10598000353118DA214B9F42DBDC17481749221CBE
:105990002B1C00F03DF8144A144BFDF79DFB041C32
:1059A0000D1CDAE7201C291C221C2B1C00F0D6F849
:1059B000041C0D1CD1E7144936331B050A401D1C7D
:1059C0001543201C291C0A4A0A4BFDF785FB041CC1
:1059D0000D1CC2E7C046C046000000000000504356
:1059E0009C7500883CE4377E59F3F8C21F6EA50110
:1059F000000000000000903C0000F07FB03CFFFF82
:105A0000FE070000FF070000FFFF0F8050C30000EB
:105A100030B5DA0FD2074B005B08111C194330BDBB
:105A2000002941D010B4041C4C40A446012300229C
:105A3000002900D54942002800D5404288422CD395
:105A400001242407A14204D2814202D209011B0190
:105A5000F8E7E400A14204D2814202D249005B008F
:105A6000F8E7884201D3401A1A434C08A04202D3F7
:105A7000001B5C0822438C08A04202D3001B9C0838
:105A80002243CC08A04202D3001BDC08224300289A
:105A900003D01B0901D00909E3E7101C6446002C60
:105AA00000D5404210BC7047002806D003DB002020
:105AB000C043400801E08020000607B4024802A16C
:105AC0004018029003BDC04631CDFFFF0029EBD046
:105AD00003B5FFF7A7FF0EBC4243891A1847C0461B
:105AE0008446101C62468C46191C634600E0C04682
:105AF0001FB500F017FC002801D40021C8421FBDCB
:105B000010B500F047FB4042013010BD10B500F069
:105B100009FC002801DB002010BD012010BDC0469B
:105B200010B500F0FFFB002801DD002010BD0120B2
:105B300010BDC04610B500F077FB002801DC002046
:105B400010BD012010BDC04610B500F06DFB00284F
:105B500001DA002010BD012010BDC046F8B55F4637
:105B6000564644464D46F0B40C034D00CE0F610A34
:105B7000440F2143C400180380465800400D82465C
:105B8000D80F84464046400A530F0343D0006D0DA2
:105B9000371C83465246664500D19DE0AF1A002F60
:105BA00000DC03E1002A38D1184300D0E4E06307A9
:105BB00009D00F232340042B05D0231DA342A44169
:105BC000644209191C1C080200D478E0CE4B6A1C00
:105BD0009A4200D105E1CD4BE4081940480752052F
:105BE000490204430B0B520D371C002000211B03FC
:105BF000201C1C0B0B0D1B05C54D234352055208E1
:105C00001D4015436D006D08FF07291C39433CBC3E
:105C100090469946A246AB46F8BDBB488542C6D0E1
:105C2000802000040343382F00DDECE01F2F00DD4F
:105C300020E12020C01B1A1C814682405846F840B3
:105C40000243944658464A469040421E9041FB40CB
:105C5000624602431F1CA21A9442A4416442C91B1B
:105C6000091B141C0B02A2D549024F0A002F00D1B8
:105C7000C4E0381CFDF732FD021C083A1F2A00DD83
:105C8000B7E02821091A201C9740C84007439440D8
:105C9000954200DDA9E0551B691C1F2900DDD8E0F5
:105CA0001F22551B3B1C221CAB40CA40AC40651E4A
:105CB000AC411343CF401C43391C002577E748070C
:105CC000E4086A05C908520D371C04438E4B9D42F7
:105CD00048D009030B0B88E7AA1A9446002A00DC77
:105CE00098E05046002853D08748854200D15EE7AF
:105CF0008020000403436246382A00DDFDE01F2AAD
:105D000000DD4BE120226046101A1A1C82408246B8
:105D1000914658466246D0404A460243904658460D
:105D200052469040421E9041424602436046C34064
:105D30001219A242A441644259180919141C0802FC
:105D400000D434E7704B01359D4200D124E16F4B04
:105D500060081940012323401C1C0443CB071C434B
:105D6000490824E70B1C234300D1C7E180231B0310
:105D70000B431B031B0B38E7013F002F64D1584630
:105D8000221A9442A4416442C91A091B141C69E7EF
:105D90005846184300D10AE7012252429444604613
:105DA000002800D0C5E058460219C2E7002F72D182
:105DB000681C4005400D012800DCDEE05A46A21AAE
:105DC0009442BF41C81A7F42C71B380200D488E002
:105DD0005A46141BA3459241591A52428F1A6646DD
:105DE00044E7371C00230024FFE64849AD1A394038
