:1000000000800010553F0000853F0000873F000042
:10001000893F00008B3F00008D3F00000000000082
:10002000000000000000000000000000DD390000BA
:10003000913F0000000000004B3A0000833A0000AE
:10004000973F0000973F0000973F0000973F000058
:10005000973F0000973F0000973F0000973F000048
:10006000973F0000973F0000973F0000973F000038
:10007000973F0000973F0000973F0000973F000028
:10008000973F0000973F0000973F0000973F000018
:10009000973F0000973F0000973F0000973F000008
:1000A000973F0000973F0000973F0000973F0000F8
:1000B000973F0000973F0000973F0000973F0000E8
:1000C000973F0000973F0000973F000010B5054C98
:1000D000237833B9044B13B10448AFF300800123F4
:1000E000237010BDC8010010000000003071000036
:1000F00008B5064B1BB106480649AFF30080064819
:10010000036813B1054B03B1984708BD0000000018
:1001100030710000CC010010C80100100000000088
:100120000146014804F0B4BF0060000010B58CB077
:10013000684600F009F90A4C684600F021F950B110
:100140000994684600F018F90028F5D04FF4FA70C9
:1001500003F014FCF5E74FF4FA7003F00FFCEBE743
:100160002101000030B5002397B04FF480610C4CA2
:100170008DE80A001A4603A80A4903F0D3FB254676
:1001800005E02A6913604FF4FA7003F0F7FB626927
:10019000636812681A42F4D1EA681360F3E700BF9B
:1001A000E40100102D010000054B0022184605490E
:1001B0001A605A609A60DA601A615A6103F0A2BD4F
:1001C000E401001032C009200748084A08B5121A95
:1001D000002104F08FFE03F0B1FC04F055FEFFF7A0
:1001E000C1FF03F065FD00BFC80100100C10001036
:1001F000022801DC0120704703F060BEEFF30583A5
:1002000003B100BE04F066BEEFF3058303B100BE88
:1002100004F068BE08B5012003F04AFD08B5FFF7F9
:10022000F9FF00BF00234FF0FF32C2618360C3605B
:10023000C3624362836280F8213080F820307047C7
:10024000704700BF30B4C4699DF80850013402D033
:10025000002030BC7047032AFAD1012BF8D1012DC0
:10026000F6D1C1612846F4E710B4C469A14203D0B5
:1002700000205DF8044B7047032AF9D1022BF7D117
:10028000012380F820301846F3E700BFC368F0B5BB
:100290001D6B9A6DA5F10803012B83B0044612680B
:1002A0000FD9C2F30945A16849B1E2683AB1002605
:1002B000606804F110030095019600F0A9FF03B0F7
:1002C000F0BDB5F109035A425A4183181E7C02322F
:1002D000042E0CBF0323334600EB0207387CC3EB2C
:1002E000C30208BF1E4603EBC203094A0344D35CA2
:1002F00023B1626A12B118469047387C28B1A36ACC
:10030000002BD0D031469847CDE7002ECBD0F6E772
:10031000CC60000010B50B4682B0496802461868F0
:100320006B4603C30B46D90707D55B10D458009919
:10033000D0186158884702B010BD02EB63000099E5
:10034000884702B010BD00BF0A4B10B503600446D9
:1003500000F074FB00234FF0FF326060E261A360A5
:10036000E360E3626362A36284F8213084F82030A2
:10037000204610BD1860000090F82100704700BFB3
:100380002DE9F04390F8216089B0044616BB35464C
:10039000E9B2606800F086FC013501462246A060A3
:1003A00048B1606801F082FA074630B994F82080BD
:1003B000B8F1000F12D1052DEAD100234FF0FF3222
:1003C000A360E360E3626362A36284F8213084F88F
:1003D0002030E261304609B0BDE8F083A068217F9B
:1003E00003220097022300F039F9E0600028E4D0EE
:1003F000A268E169B2F80001B2F8FE308DE80500AC
:10040000029178222D492E4804F042FE227F2D4B86
:10041000C2EB0212A568920003CB38321E78AB18EB
:10042000A85059601E726668A56830462946D4F8FF
:100430001C9000F03FFD431C3AD034B35FFA89F3BF
:10044000C3EB031205EB820506EB80001E4A034452
:1004500003F50151012005F118030492059704AA40
:100460001A4D81F8290003CAD8601961E2689C60BE
:10047000DD615F60164B00260693079606AB03CB43
:10048000D4631064516415659663E268936D606887
:100490001D680023C5F30945A1680193009504F187
:1004A000100300F0B5FE0123464684F8213091E7A1
:1004B000E268002CEAD0054DDCE700BF7860000060
:1004C00028600000C0600000250200001503000045
:1004D0008D0200002DE9F0410823002780F8087103
:1004E0000646C0F8F83080F8FC7080F8FD70A0F87F
:1004F000FE70A0F8007180F8097180F8077180F82B
:10050000037180F8047180F8057180F8067100F1BC
:100510000C0400F1FC083C22201F002104F0EAFC3E
:1005200004F12C0504F8047C04F10C0C224642F87A
:10053000047F084B624503CB4FF0000328606960DD
:10054000F5D13C344445E6D186F809317360336017
:10055000BDE8F081B061000070B5054600F11C04F3
:1005600000F58676204600213C3403F025FCB44299
:10057000F8D12846FFF7AEFF284670BD032908D8FA
:10058000C1EB0111890043181B7A23B108310844DB
:100590007047002070471846704700BF70B40329A9
:1005A0009DF80C600DD8C1EB011100EB81010D7AB3
:1005B0003DB901208A72CB720E734D72087270BC05
:1005C0007047002070BC70470329F0B415D80D01A6
:1005D0006C1A00EB8404237A7BB1677A022F0CD863
:1005E000D4F810C001376772BCF1000F0BD06669F8
:1005F0003EB1A4694FF0020C2CB100231846F0BCA8
:1006000070474FF0010C691A8C440CF1040C40F84F
:100610002C20F3E7F8B504460D4616461F46FFF7B3
:1006200059FF84F8FC5084F8FD6084F80671F8BD29
:1006300010B504461C3003F0C5FB04F1580003F06C
:10064000C1FB04F1940003F0BDFB04F1D00003F002
:10065000B9FB2046BDE81040FFF73CBF70B403294A
:100660009DF80C6010D8C1EB0111890001F10C0458
:1006700000F118050444294454F8040F90F824505C
:10068000954204D08C42F7D1002070BC704790F89E
:1006900026509D42F6D1751E002EF6D0EEB2F1E73F
:1006A000032908D8022A06D8C1EB01110A440432F2
:1006B00050F8220070470020704700BF2DE9F84F26
:1006C000DDF8288000F5D95481469B46CFB25FFA09
:1006D00082FA0C34002594F8F860BE421BD0013534
:1006E000052D04F58674F6D142F2501459F8040031
:1006F000002102F0ADFA0123077280F809A080F80A
:100700000AB0C0F80C800370014659F80400BDE837
:10071000F84F02F0BFBA94F8F9305345DFD1B8F181
:10072000000F02D021688845D9D109EB050303F5F4
:1007300002539B78002BD7D0BDE8F88F2DE9F04706
:1007400000F5D95481469846CFB25FFA82FA0C344C
:10075000002594F8F860BE4206D00135052D04F559
:100760008674F6D1BDE8F08794F8F9305345F4D19A
:10077000B8F1000F02D021688845EED109EB0503DE
:1007800003F5015320331B790BB9BDE8F08742F222
:10079000501459F80400002102F05AFA022307729B
:1007A00080F809A0C0F80C800370014659F80400D5
:1007B000BDE8F04702F06EBA2DE9F04182B0019138
:1007C000019B002B42D00023019CA2680192A268E9
:1007D000A360019A2346002AF6D1002C36D000F5FA
:1007E000055808F11008A6682369ABB1256923688C
:1007F0001B0F14D027683F0F2846214601F004FC48
:1008000095F824309BB93946284601F0D3FB686837
:100810000121002202F0EEF8C6B13446E3E7636836
:10082000BBB162686B6B1027D31A2B63E4E7D8F86F
:100830000000002102F00CFA04234460C772037028
:100840000146D8F8000002F025FADCE702B0BDE866
:10085000F0811027D0E700BF2DE9F04F83B0834629
:1008600001F0F2FB724BD84648F8C83B0BF5D8595B
:10087000444609F108090BF1CC074FF0000A0CE0DF
:1008800004F13800002103F097FA0F23C4F854A0B4
:1008900084F8253070344C4518D004F1100500213F
:1008A0001422C8EB0406284604F024FBF3190122A5
:1008B0009D605A6004F10800002102F081F8F051B7
:1008C0000028DDD15B4803F0E1F9D9E70BF5D956F3
:1008D0000836344606F23C55204604F58674FFF788
:1008E0003BFEAC42F8D10BF5025808F1080840462F
:1008F0000BF5035701F0E0F838464FF0000A0BF50E
:10090000055401F0D9F84FF440630BF5045004F19D
:1009100020098DE80804484953465A46043003F03C
:1009200001F804F1580548465146382204F0E2FA2D
:10093000C4F8049128465146AC2204F0DBFA0A229E
:1009400004F5827110236261C4F80851E161A3616A
:10095000514604F1140002F061F942F250134BF8D1
:1009600003000BF509500C3002F098FF0BF509500D
:10097000203002F093FF41F6143441F6103241F674
:100980000C3C41F6183E41F61C300BF5D95141F6AE
:1009900024330BF5E1594BF80CA055464BF802A057
:1009A00009F114094BF804A052464BF80EA05C461E
:1009B0004BF800A0C1F800A0ABF8C4A00BF803A04E
:1009C0000BEB050C0CF50153013504F5015E9A465D
:1009D0000CF5025C052D83F8242004F1040486F84C
:1009E00002518AF83D204FF000068CF802208EF864
:1009F00029208EF82A208EF82B208EF82C2003D068
:100A00004E4609F58679DBE74046594601F06CF819
:100A100042F2F80338460BF80360594601F064F8D7
:100A200042F2F90358460BF8036003B0BDE8F08FBB
:100A3000C0610000D06100008518000038B5084C86
:100A4000206800B138BD42F2144004F049F8054670
:100A5000FFF702FF2846256001F022FB206838BD21
:100A6000FC01001041F610332DE9F041C55806464F
:100A700045B1A94203D114E0A14213D025466C6DC3
:100A8000002CF9D141F61433F558F5B1A94203D140
:100A900007E0A14206D025466C6D002CF9D1BDE8D7
:100AA000F0812C46676D2846394687B141F61035EE
:100AB00001F0C2FA73599C4229D041F6143573599A
:100AC0009C421CD00F2384F82530BDE8F08141F60C
:100AD000103801F0B1FA56F808309C422BD041F69C
:100AE000143856F808309C421DD094F82430022B5C
:100AF00015D0032BE6D106F5D9563560E2E7636DD4
:100B00003046996D01F074FB636D7351DAE7636DE4
:100B10003046996D01F060FB636D7351D2E741F689
:100B20001C33F550CEE73946304601F061FB636D6A
:100B300046F80830D9E73946304601F04DFB636D81
:100B400046F80830D1E700BF2DE9F04F91F80331A6
:100B500085B0092B0E46054615D0706810B1314698
:100B600000F0CAFF05F5D95308334FF0000B9E4241
:100B700003F586731ED00BF1010BBBF1050FF6D107
:100B800005B0BDE8F08F086800287CD000F0BCFFFD
:100B900005F50253326808339A427BD005F50353BA
:100BA0009A4208BF0123D8D12B4442F2F802002117
:100BB0009954D2E705EB0B0303F5015100220B46D4
:100BC00081F82420904605EB8B0B83F83D2006F13D
:100BD00038090BEB080303F501535FFA88F74FF070
:100BE000000283F8292039463046FFF7C7FC002869
:100BF0003CD0002423E039463046FFF751FD8246C1
:100C000001462846BAF1000F18D0DAF858201368C8
:100C1000D2F800C043F480431360FFF723FF284657
:100C2000DAF85C1001F06AFB2846DAF8601001F08F
:100C300065FB2846DAF8581001F058FB01343046BD
:100C40003946FFF79BFC4378E2B29C42D3DB96F82F
:100C5000FC2096F8FD30104801920293CDF80090E8
:100C60000E4940F2BD12334604F012FA08F10108B1
:100C7000B8F1040F09F13C09ABD1304605B0BDE82D
:100C8000F04FFFF7D5BC05494FF4CA72044804F091
:100C9000FFF962E7002387E7586200001C6200004A
:100CA000F861000004290DD8431803F501532033DF
:100CB0001B794BB14FF4867303FB010000F5D9504B
:100CC0000830704700207047184670472DE9F04FF4
:100CD00089B005930746894690469DF848B001F0D3
:100CE000D3FA8246384601F0E7FA0690384601F01A
:100CF000E3FA002107902022069804F0FBF80798F9
:100D00000021202204F0F6F8C8370024059B02E0F9
:100D1000B4F5D25F13D03D1995F8256070340F2ECD
:100D2000F6D106A88DE808080290514628464A46A2
:100D3000434601F09FF8284609B0BDE8F08F054909
:100D400040F21522044804F0A3F90025284609B012
:100D5000BDE8F08F1C620000A062000030B500F515
:100D6000D95383B0054608330024994203F58673AE
:100D700005D00134052CF8D1122003B030BD642019
:100D8000019102F0FBFD019991F8FC3073B92846FE
:100D900001F0BCFA642002F0F1FD2C4404F501548A
:100DA0000123002084F83D3003B030BD486891F83D
:100DB000FD1001F02DF8EDE72DE9F0411C46064647
:100DC00017460D4693B1184600294CD091F80211F0
:100DD00001F0BAF895F806315BB994F8243084F83C
:100DE0006C70022B0FD0032B23D073B30020BDE80F
:100DF000F0812046012101F0B5F894F8243084F800
:100E00006C70022BEFD1304601F0DCF970B341F683
:100E10001C3856F80800214601F00EF946F8084043
:100E20002560284639462246FFF7CEFB0120BDE863
:100E3000F081304601F0CCF918B306F5D956306888
:100E4000214601F0F9F83460EAE7304601F0B4F9E0
:100E500010B341F618357059214601F0EDF8745180
:100E60000120BDE8F08101F06FF8B6E73046A16DD2
:100E700001F0B2F941F6103241F61C33B450F4508F
:100E8000CEE73046A16D01F0B3F941F6143206F514
:100E9000D953B4501C60C3E73046A16D01F0A2F9EC
:100EA00041F60C3241F61833B4500120F450BDE83D
:100EB000F08100BF00F5D95008300023814200F5D1
:100EC000867005D00133052BF8D14FF0FF30704705
:100ED000184670472DE9F04700F5095620360D46B3
:100EE00080464FF0FF31304691469A4602F0F6FCBC
:100EF0006C6E002C35D095F8273013B395F824701C
:100F00001C4A1D4B002F08BF134622680AF1FF3A06
:100F10002360636809EB0A03C4F80490E268394669
:100F2000E360404601F086F9284601F057F8404654
:100F3000394601F061F9304602F0D4FC1120BDE8D9
:100F4000F08795F8263095F82470022B0CBF4FF4EB
:100F500080134FF400233FB943F0734343F48023DD
:100F6000D3E71220BDE8F08743F0704343F48023B9
:100F7000CBE700BF000004F2000004F02DE9F04FC1
:100F800089B098460590049115464BB34FF0000B7D
:100F9000D946CDF818B05C46CDF81CB02F197B7837
:100FA0002E5D023B1F2B18D8DFE803F040171D45CC
:100FB00017171717171717171717171717171717C1
:100FC0001717171717171717171717103A7AFB79EC
:100FD00043EA0223059AA2F8C4303444A045DDD880
:100FE00009B0BDE8F08F129AE71D15F807E0106808
:100FF000631D04F1020904F1060AEA5C039315F883
:10100000091015F80A30CDF800E0D0F804C01298A5
:10101000E04700284CD00BF1010CBBF1040F5FFA44
:101020008CFC47D9E3464FF00109D6E72B79049AA7
:1010300082F80931D1E7B9F1000FCED0BBF1040F2E
:10104000CBD8069A022AC8DCA31C1298039304F199
:10105000030AEB5C016815F80A20DB11D1F808C01F
:10106000013302F003020799E0470028B5D015F8D4
:101070000A1001F003010129AFD0039A7B79A85C23
:101080003F79C21100F00F000090013247EA0323BC
:101090000598FFF71BFE38B1049B2BB1034604995A
:1010A0000598079AFFF788FE06980130069094E7A6
:1010B000814692E715F80990039BE95DEA5C049884
:1010C00015F80A3000914946CDF81C90E346FFF729
:1010D00065FA00204FF0010906907EE72DE9F04FF8
:1010E00000F5095589B09DF854800C3506460F4629
:1010F00028464FF0FF3114469A469DF84CB09DF8B3
:10110000509002F0EBFBB8F1000F0CBF022201225D
:10111000002F33D0002C50D094F82530102B14D150
:1011200094F82630934231D0226823460092324808
:10113000324940F2FD3203F0ABFF1224284602F0A0
:10114000D1FB204609B0BDE8F08F94F86C302668DA
:10115000C3EB0313204606EB830700F035FF383757
:101160000290234601970096254824494FF47E7249
:1011700003F08EFF94F82540E4B2DFE721481F49D1
:1011800040F2EE3203F084FF1224D7E794F82430C3
:101190004B45C9D1A36D97F802211B6803F07F036B
:1011A0009A4212D02268234600921748134940F20F
:1011B000024203F06DFF1224C0E714480F4940F2C9
:1011C000F33203F065FF1224B8E730465246214659
:1011D000129BFFF77FFEBBF1000F01D11124ADE799
:1011E000616805A84FF0FF3201F02AFC94F8254011
:1011F000102C08BF0024A1E7A06300001C620000BF
:1012000010630000D86200004C630000F46200002C
:10121000F0B585B00A9C9DF82C70032600258DE85A
:10122000900002960395FFF759FF05B0F0BD00BF8F
:101230002DE9F04F00F5095487B00C3492469DF823
:10124000502083460D4641F608364FF0FF312046C8
:1012500099460192DDF84080139F02F03FFB5BF856
:10126000060095F8061100F07DFE5BF80600D5F843
:10127000F81000F05BFE95F807315BF8060003F00C
:10128000FF01002B51D095F8021100F05DFE41F6F0
:10129000083542F2FA0142F2FB025BF80500C8F39E
:1012A000072E0BF801A042F2FC030BF8029042F269
:1012B000FD06119A0BF803800BF806E0DDF844E018
:1012C00042F2011342F2FE01C2F307293E1242F23A
:1012D000FF020BF504580BF801E00BF80290002117
:1012E00088F800700BF8036000F048FE0BF503521D
:1012F0005BF805103A3208235846FFF7EBFD5BF820
:10130000053003A859684FF0FF3201F099FB5BF8F4
:10131000053093F82560F6B2102E09D0204602F071
:10132000E1FA304607B0BDE8F08F00F00DFEAEE701
:1013300007B3019B5BF80500002B0CBF4FF4801135
:101340004FF4002100F01AFE5BF805103B46129A9C
:101350005846FFF7BFFD5BF8053003A859684FF00A
:10136000FF3201F06DFB5BF8053093F82560F6B2B3
:10137000102ED3D1019A41F60835002A14BF4FF43C
:1013800080114FF400215BF8050000F0F7FD00220A
:1013900013465BF805105846FFF79CFD5BF80530D7
:1013A00003A859684FF0FF3201F04AFB5BF80530A3
:1013B00093F82560102E08BF0026AFE7F0B587B080
:1013C0000E9D0C9F0D9E02950F9D00240097019687
:1013D00003950494FFF72CFF07B0F0BDF0B5112B77
:1013E00087B094BF1F4612271C464FF48076002317
:1013F0000C9D02920193049303970096802206238A
:10140000FFF716FF1DB1122C28BF12242C8007B045
:10141000F0BD00BF2DE9F043144687B000224FF421
:10142000007609250096019204920395029498464D
:101430008022062381460F460E9EFFF7F9FE0546E1
:10144000D8B9E278A37843EA0223434528BF43464C
:1014500006B1338000224FF400750393009501928A
:10146000049202944846394680220623FFF7E0FEA4
:101470000546284607B0BDE8F083054940F2023230
:10148000044803F005FE284607B0BDE8F08300BF1E
:101490001C620000E8630000F0B587B00E9D0C9F51
:1014A0000D9E02950F9D01240097019603950494CB
:1014B000FFF7BEFE07B0F0BD10B5002386B00124D3
:1014C0008DE80C00029303931A4604940523FFF75A
:1014D000AFFE06B010BD00BF2DE9F04F00F5095278
:1014E00095B0069200F502530C93069B00F5D85276
:1014F00008920C330693089B00F5D95207920833E3
:1015000004320B9208930C9A079B00F50558083299
:101510000833054608F110080C92079311A8D8F873
:1015200000104FF0FF3201F0BFFB119B202BF5D1D3
:10153000129F3C78022C09D0042C70D0012C52D080
:101540003946D8F8000001F095FBE7E74FF0FF318E
:10155000069802F0C3F90021284600F06BFE2146F0
:101560000646284600F066FE03210446284600F0A1
:1015700061FE97F808E0814697F809C0F868079976
:10158000052391F8FC2072451FD0013B01F58671BF
:10159000F7D19EB934B9B9F1000F0AD1069802F01B
:1015A000A1F9CDE72846022100F026FEB9F1000F8F
:1015B000F4D02846032100F01FFEEFE72846002163
:1015C00000F01AFE002CE6D0ECE791F8FD20624511
:1015D000DBD110B14A689042D7D12846FFF7B4FA60
:1015E000002ED7D0EAE74FF0000906984FF0FF3100
:1015F0008DF8409002F072F905EB090B0BF50153E1
:1016000093F82460002E42D009F10109B9F1050FC9
:10161000F2D195496122954803F03AFDBEE7FB7A85
:10162000D7F80490102BD9F8106000F0FF80079ACB
:1016300034680021944202F5867207D001310529F1
:101640003FF47EAF944202F58672F7D16B1803F532
:10165000015320331B79002B3FF472AF304600F06A
:10166000B3FC326800900292019696F86C104B46DB
:10167000C1EB011102EB8102383203927C487A49B6
:10168000ED2203F005FD102386F8253058E74FF4CE
:10169000867404FB0954BB7A04F5D954003304F171
:1016A000080418BF01237A7A2046397AFEF7B2FF80
:1016B0000B9A0BF5015392F800A04FF0010C0BF5BB
:1016C000025283F83D6082F802C0BAF1000F16D1D1
:1016D000624651460823CDF800A02846CDF814C034
:1016E000FFF7F4FA089B514618601B6852462846DB
:1016F000FFF762FBDDF814C00B9B83F800C0FB68AA
:1017000003B163604FF00A0A08E05A48564903F0F3
:10171000BFFC0AF1FF3A1AF0FF0A31D021462846F1
:10172000FFF71CFB0826002284F80721C4F8F860A4
:101730002146009233460FAA2846FFF74FFE214666
:101740007F220028E1D19DF8433094F80221C4F8AB
:10175000F8302846FFF7B0FE86464FF0010C2146D0
:101760000FAA33462846BEF1000F26D042483E4914
:101770008A220AF1FF3A03F08BFC1AF0FF0ACDD15E
:101780003B7A3E4800937B7A374901939B2223465C
:1017900003F07EFC9DF84030092B1AD00026F86833
:1017A00010B1214600F0A2F9002E7FF4F7AE0BF540
:1017B000015B01238BF82430F0E684F807C1CDF8F3
:1017C00000E0FFF70BFE0028DAD0642002F0D6F824
:1017D0009FE70023DDF830A00997CDF834901F462D
:1017E000CDF8288005EB070909F50356383632781D
:1017F0006AB94FF003085046214600F0A7F908F1F6
:10180000FF38C0B918F0FF08F5D1327842BB013774
:10181000022F0AF1380AE5D119481349AE22099F6F
:10182000DDF82880012603F033FCB8E706F1380024
:1018300002F0C8FA84E64946DDF834904FF4867326
:1018400003FB095301F5035103F5D9530122C3F8F2
:1018500008A0099FDDF82880002681F838209EE73F
:10186000099FDDF8288099E71C6200000C650000E4
:10187000B4640000146400004C6400007064000054
:101880003C65000008B5FFF727FE00BF10B5002338
:1018900086B001248DE80C00029303931A46049449
:1018A0000923FFF7C5FC06B010BD00BF2DE9F043CA
:1018B00000F5095808F10C0885B0064600240D46CD
:1018C00040464FF0FF311746ADF80E4002F006F8E3
:1018D00006F5D9522346083240F23C50D1188D42C9
:1018E00003F5867309D08342F8D11224404601F0F3
:1018F000F9FF204605B0BDE8F083134600249D4261
:1019000003F5867311D00134052CF8D106F5095979
:10191000002309F1340900934A4630462946122330
:10192000FFF75CFDD0B10446E0E706F5015204F68E
:101930001A032C3202EB840406EB8303002113F814
:10194000012F481C02B1C1B2A342F8D10029DDD059
:1019500095F809318B42D9D10024C7E742F27823A8
:10196000F25C42F2792385F80321F25C42F27A2399
:1019700085F80421F35C42F27D2185F8053142F2BD
:101980007C20745C335C42F27F2243EA0423A5F896
:10199000FE3042F27E2316F802C016F803E03C68DF
:1019A0004EEA0C2EA5F800E116F801E0F35C315C7C
:1019B000B25C41EA0E2143EA022238462368984786
:1019C0000DF10E030093304629464A4640F29F131C
:1019D000FFF720FD0028A6D1BDF80E3000974A463B
:1019E00030462946FFF7CAFA95F8083133B9304630
:1019F00029460122FFF74AFF002894D1012385F8E8
:101A00000831404601F06EFF642001F0B7FF00246A
:101A10006FE700BF00234FF0FF3202620373836061
:101A2000036180F82430037543758362C3620363E6
:101A300043637047704700BF30B4046A9DF8085094
:101A4000013402D0002030BC7047092AFAD1002BA3
:101A5000F8D115B901620120F5E71846F3E700BF98
:101A600010B4046AA14203D000205DF8044B704713
:101A7000032AF9D1022BF7D1012380F8243018462C
:101A8000F3E700BF10B50B4682B0496802461868FC
:101A90006B4603C30B46D90707D55B10D458009992
:101AA000D0186158884702B010BD02EB630000995E
:101AB000884702B010BD00BF10B40A4C00224FF09E
:101AC000FF3104600162426002738260026180F84B
:101AD0002420027542758262C262026342635DF82D
:101AE000044B7047786500004160704791F8FD3005
:101AF000093340F82310704791F8FD300022093374
:101B000040F82320704700BF70B50546044600F139
:101B10001006A36A0434194613B16868FFF714F875
:101B2000B442F6D170BD00BF10B503469C6884B0C6
:101B3000002340688DE80600029303932146232288
:101B40000323FFF7A9FC04B010BD00BF2DE9F0434B
:101B5000057B89B004460E461DB1284609B0BDE894
:101B6000F08340682246FFF7A1FE0746002840F0B8
:101B70008A8094F82480B8F1000FEED094F82010F9
:101B8000A6603046009503220223FEF767FD206120
:101B9000002878D0B6F80011226AB6F8FE30454821
:101BA0008DE8420002924449672203F071FA94F8EA
:101BB0002030424AC3EB0313106806EB830398639B
:101BC000656831462846D4F82090FFF773F9431C26
:101BD0006BD024B305EB80005FFA89F3384DC3EB7B
:101BE0000312034406EB820203F501510120049520
:101BF000059704AB334D81F8290003CB5062916205
:101C0000236914625563D7612F4A00210692079118
:101C100006AA9963DC6303CA1D65186459644FF40E
:101C2000245100220A2304F1160760688DE886001B
:101C30000393A02206233146FFF7C0FB237E627E7A
:101C40002375627501254BB12A4620460821FFF70E
:101C50006BFF0135227DEDB2AA42F5D2E07E4FF056
:101C6000010900FA09F0002502F0A0F86068226975
:101C7000314601953B46CDF80090FFF7C9FA45463D
:101C800084F80C9069E74FF0FF3328462573A56070
:101C9000256184F8245025756575A562E562256384
:101CA0006563236209B0BDE8F0832369002CB6D0D8
:101CB000044DA9E788650000CC6500000C660000B3
:101CC000151A0000851A0000191D000010B5034602
:101CD0009C6884B0002340688DE80600029303935B
:101CE000214623220123FFF7D7FB04B010BD00BF1C
:101CF00030B5034687B09D6805AC002304224068D8
:101D000001910392294600930294A322FFF756FB08
:101D1000059807B030BD00BFF0B5026983B0044636
:101D20006AB192F82530102B0BD00126002560688F
:101D3000A16804F1160300960195FFF769FA03B054
:101D4000F0BD037D002BF0D0012607E0AA032BD4C1
:101D50002B0730D4237D0136B34246DBF7B2394638
:101D60002046FFF7C5FF0546E80314D515F001032B
:101D700060683CD0A368026893F8FC100094D2F825
:101D800000C001313246C5F34023E0472046102110
:101D90003A46FFF79BFFE902D8D53A462046142180
:101DA000FFF794FFAA03D3D5204611213A46FFF747
:101DB0008DFF2B07CED51449D222144803F068F9C1
:101DC00020463A460821FFF781FFA368606893F830
:101DD000FC10026800230093556823463246013107
:101DE000A847237D0136B342B8DA22699DE7A1688E
:101DF000026891F8FC100093D2F804C00131324619
:101E00002346E047C2E700BFCC6500001066000033
:101E1000F0B50A460C4683B004210546FFF784FE60
:101E200004E003070BD40A2001F0A8FD2846214650
:101E3000FFF75EFF10F01206F3D003B0F0BD0B49C0
:101E4000E6220B4803F024F9284622460821FFF732
:101E50003DFFAB68686893F8FC100768009622465F
:101E600001317C682B46A04703B0F0BDCC65000073
:101E7000106600002DE9F8430446D2F101000A9EE5
:101E800038BF0020A16584F8270084F8242084F856
:101E90002630736832682366E265306800212022AC
:101EA0009DF8248003F026F870680021202203F0BA
:101EB00021F8E16D206E0B69A36D0C61026994F845
:101EC0002670046100221E681A605D6808F07F06B3
:101ED000596094F8245007F1FF38D3F8089046EA87
:101EE000C8189960D3F80C90F601DA6084F828805D
:101EF000CDB14FEAC72C089A4CEA060CC2F309058B
:101F00004CEA054500221E684FF010081D6084F859
:101F10006C206166A066E26222636263626584F897
:101F20002580BDE8F883AC46E5E700BF836D1A68FD
:101F3000186822F07F7222F440321A601A6818681A
:101F400042EA014119607047836D01F07F011A6810
:101F5000186822F07F021A601A6818681143196025
:101F6000704700BF836D1A68186822F400521A6027
:101F70001A68186842EA413119607047B1F5002FBC
:101F800011D0B1F5801F07D001B17047012380F84F
:101F9000263080F8273070470222002380F8262060
:101FA00080F8273070470122002380F8262080F82F
:101FB00027307047122904D8024B13F8313080F8CB
:101FC00025307047F867000090F82520024B03EB9E
:101FD000C2035868704700BFF867000030B4436E12
:101FE0001125DA6859680132521AC26202635C68CC
:101FF000816E80F82550826D4463986899605368BB
:1020000030BC5160704700BF30B400230A680B60D9
:102010004A684B60CA68826DCB608C688B6055687B
:102020009468836E04F002042C43956894604366C0
:10203000816630BC704700BF4165836D01B1896D19
:10204000DA68D960704700BF38B5124B124A0446AF
:1020500003F5986103F58070104D84E80C00A060D2
:10206000E160184600214FF480722C6002F042FFBC
:1020700000231946E21801333C2B1174FAD10023D6
:102080001946E2180133782B82F84C10F9D120461A
:1020900038BD00BF00000820986800000002001052
:1020A0003E4B2DE9F0414FF080723D4CC3F880204B
:1020B000D4F8C43082B023F00043C4F8C4300646DC
:1020C000642001F073FED4F8C420364B42F0004285
:1020D000C4F8C420D3F8F41F1A4641F01901C3F81C
:1020E000F41FD2F8F83F2F4C03F01903192BF8D145
:1020F000D4F810212C4B42F00102C4F81021D4F87E
:10210000F42F002522F00802C4F8F42F5A68642046
:1021100022F070525A605A684FF0010842F0A05203
:102120005A6065602562A56201F040FE1F4A42F6D2
:102130002F23C4F80880626323646268736822F006
:10214000C00242F080024FF4803762602765A361CD
:10215000E268E168164B0A43E260164923611820E1
:1021600001F03CFD0D4B4FF480114FF0807267651C
:1021700061651A60636DDB070CD5962001F016FED1
:10218000636D306800950468C3F3402329464246D6
:102190003046A04702B0BDE8F08100BF00E100E09A
:1021A00000C00F4000C0005000C00240DF2E782762
:1021B000420000802D240000014B186A704700BFC8
:1021C00000C00050014B986A704700BF00C000502B
:1021D00043681868704700BF014B9962704700BFA1
:1021E00000C00050014B1962704700BF00C0005092
:1021F00043681A6819607047022911D0032909D071
:1022000001B170470A4B02229A605A6842F01002EC
:102210005A607047064B5A6842F004025A60704791
:10222000034B04229A605A6842F020025A607047B9
:1022300000C0005002291AD003290DD009B1002096
:102240007047104B586810F01000F9D05A68012000
:1022500022F010025A6070470A4B586810F00400D0
:10226000EED05A68012022F004025A607047054BF4
:10227000586810F02000E3D05A68012022F02002B4
:102280005A60704700C0005008B5002302E00133D7
:102290003C2B09D0C218117C0029F8D1806801219B
:1022A00000EB0310117408BD024802F0E9FE0020A3
:1022B00008BD00BFA868000008B5002302E0013394
:1022C000782B0BD0C21892F84C100029F7D1C068B7
:1022D000012100EB431082F84C1008BD024802F0C7
:1022E000CFFE002008BD00BFC06800008368002248
:1022F000C91A00EB11100274704700BFC3680022B6
:10230000C91A00EB511080F84C2070470549102382
:102310004B654B6D034ADB06FBD44FF480135365CA
:10232000704700BF00C000502DE9F0413E4C82B024
:10233000E368226905461A422BD0E36826691E40ED
:10234000700629D5636DD9030AD5216D11F40047B4
:1023500025D006F00206344B4FF480325A6501E076
:1023600006F00206304B5A6DD20244BF4FF4801281
:102370005A652D4B4022DA605EB16A682B68D2F84C
:1023800084109B6821F0010128469847264B0222C1
:10239000DA6002B0BDE8F08106F00206ECE7636D9A
:1023A00013F0010830D116F0020615D16B68C82071
:1023B000D3F88420C3F8846001F0F8FC95E80C00A1
:1023C000D3F88430284623F0010300935468314643
:1023D00001223346A047BEE7C82001F0E7FC95E89C
:1023E0000C00D3F88430414623F001030093576872
:1023F000434601222846B8476B680222D3F884106E
:10240000C3F88480E260A6E7962001F0CFFC2A683A
:10241000636D00971468C3F34023394628460122B0
:1024200006F00206A04796E700C00050024B18686D
:1024300008B1FFF779BF70470002001000B5DFF860
:102440000CC000DFDFF808C000DFFEE7F525000064
:102450000D26000030B4114D2C685CB122899142E8
:1024600004D20EE01A898A420DD81C462368891AC4
:10247000002BF7D100230181036064B1206030BCE0
:1024800070472346002489B201811A890360511ADA
:102490001981002CF2D1286030BC70479C040010D8
:1024A000084B10B41B684FF47A74591E04FB0010DB
:1024B0004FF6FE72B0FBF3F0904228BF10465DF875
:1024C000044B70473C69000038B5084C257855B975
:1024D00001F044F9064BFF221B6828469A7001F070
:1024E0001BFB01232370002038BD00BF980400109F
:1024F000D404001010B5EFF305840CB1822010BD98
:10250000EFF31484E40703D5DFF80CC000DF10BD3F
:10251000BDE81040FFF7D8BFC924000010B588B04F
:10252000EFF3058414B1822008B010BDEFF31484DA
:1025300004F00304022C1DD0032C14D0012C16D05F
:1025400008AC84F309880F4C2478E40716D50224DC
:1025500084F31488BFF34F8FBFF36F8FDFF828C069
:1025600000DF08B010BD074C2478E407F6D5FF2043
:1025700008B010BD034C2478E407EFD4032484F39F
:102580001488E7E7446900007D280000F8B5044698
:102590000F4628B302681AB38388D81C80B2062875
:1025A0001ED8A068E0B1E668D6B1191D04F1100587
:1025B000C9B2A6636086E762284600F0FBFF00F020
:1025C000E1FF0A4E0346471E46F827502846E374AB
:1025D00001F00CF856F82700054A436A5A63F8BD23
:1025E000802001F099FA0020F8BD00BF100700100C
:1025F0003D24000008B501F035F818B1024B013850
:1026000053F8200008BD00BF1007001008B558B1EE
:10261000830709D103783BB9C07801F067F8FF2838
:1026200014BF0020812008BD802008BD10B5EFF345
:10263000058474B9EFF31484E40702D4064C2478BB
:102640001CB1DFF818C000DF10BDBDE81040FFF777
:102650009DBF002010BD00BF990400108D25000013
:1026600010B5EFF305840CB1822010BDDFF804C073
:1026700000DF10BD0D26000008B558B1421C10D077
:102680000B4A904207D8FFF70BFF80B201F002F926
:10269000402008BD08BD4FF6FE7001F0FBF8402059
:1026A00008BD4FF6FF7001F0F5F8402008BD00BFEF
:1026B00000093D0010B5EFF305840CB1822010BD78
:1026C000DFF804C000DF10BD79260000830706D1C3
:1026D00028B10169C3680A6819461046704700208E
:1026E000002170472DE9F843174F3D68D5B12B897C
:1026F000DFF85880013B9BB22B814FF001098BB969
:102700002C68D8F800603C6016B13378012B10D0EB
:102710006B79012B08D085F804901CB123892546DC
:10272000002BEDD0BDE8F88328466989FFF792FEBB
:10273000F3E7304600F0CCFC0028E9D030462946CB
:1027400000F0CAFCE4E700BF9C040010F007001092
:1027500010B540B1046834B1237823B9204600F0A5
:10276000ADFD204610BD802001F0D6F9002010BD3F
:1027700070B510F0030604460D4603D110B103787E
:10278000032B01D0802070BD4B1C15D00E4B9942FD
:102790000AD80846FFF784FE81B2204600F0F6FD15
:1027A000012804D0002070BD4FF6FE71F5E70DB191
:1027B000C12070BD812070BD4FF6FF7100F0E6FDB5
:1027C0000128EFD1F4E700BF00093D00820708B5FA
:1027D00003D110B10378032B01D0802008BD00F095
:1027E00075FDFF2814BF0020812008BD10B5EFF350
:1027F000058474B9EFF31484E40702D4064C2478FA
:102800001CB1DFF818C000DF10BDBDE81040FFF7B5
:102810009FBF002010BD00BF990400105127000089
:1028200010B5EFF305840CB1822010BDDFF804C0B1
:1028300000DF10BD7127000010B5EFF305840CB167
:10284000822010BDDFF804C000DF10BDCD270000DE
:1028500010B5044660B1016851B1406840B10378D9
:1028600033B90431890089B200F07EFB606810BD85
:10287000802001F051F9002010BD00BF38B5114D86
:102880002C78E4B921461048FFF7E2FF0F4B2146B0
:1028900018600F48FFF77AFE0E4B2146186020465D
:1028A00000F0E8FE0C4B1B685B6A203383F3098859
:1028B000094B00221A6000F0CFFF01232B7000208B
:1028C00038BD00BF9904001008010010F007001087
:1028D00010010010F40F0010D404001070B515465C
:1028E0000E46044610B10378012B01D0802070BD44
:1028F000531C16D00E4B9A420BD81046FFF7D0FD52
:1029000082B22046314600F03DFB012804D0002071
:1029100070BD4FF6FE72F4E70DB1C12070BD81208D
:1029200070BD4FF6FF7200F02DFB0128EFD1F4E7E8
:1029300000093D002DE9F04F0C4685B0804648B3B4
:102940000378012B0AD0002580242E462F463B46D3
:1029500020462946324605B0BDE8F08F4B1C24D0F6
:10296000164B994211D94FF6FE72404602A900F06B
:1029700059FB012813D0002002460346102002997B
:1029800004460D4616461F46E1E70846FFF788FD58
:1029900082B2EAE78024054606460746D7E75CB9D7
:1029A0000020024603462046E9E702A94FF6FF72DF
:1029B00000F038FB0128DED14024F1E700093D009A
:1029C00010B5EFF3058474B9EFF31484E40702D46F
:1029D000064C24781CB1DFF818C000DF10BDBDE83C
:1029E0001040FFF735BF002010BD00BF9904001054
:1029F0005128000010B5044682B0EFF3058028B9D5
:102A00002046DFF838C000DF02B010BD1CB112B99B
:102A10002378012B02D0802002B010BD2046019106
:102A2000009200F055FB019908B98120ECE720469F
:102A300000F052FB009A1046E6E70000DD28000097
:102A400070B5044684B01646EFF305854DB90846C7
:102A50001146DFF850C000DF84E80700204604B0CC
:102A600070BD19B112B90B78012B0AD004AB8022CA
:102A700043F80C2D93E8070084E80700204604B0D3
:102A800070BD084602A900F02FFB042808BF1023E0
:102A900001AD14BF0196019395E8070084E8070093
:102AA000DCE700003529000000B50A4C85B001A81C
:102AB00021684FF0FF32FFF7C3FF01981028F6D1CD
:102AC0000298DFF814C000DF03460028EFD0084664
:102AD0009847ECE7F0070010CD26000038B5044613
:102AE000E0B10168D1B14268C2B18368B3B158683E
:102AF0001D6898B195B12B7883B9033222F0030297
:102B000001FB02F10C3100F089FB216828460431F9
:102B1000890089B200F028FAA06838BD802000F052
:102B2000FBFF002038BD00BFF8B50E461F4648B376
:102B30004468056834B32DB302B119BB204600F0D8
:102B400099FB4FB150B1A3683BB102460021043B51
:102B500042F8041BFBD1F8BD00B1F8BD96B16B681B
:102B600093B1104B2846196800F0DAF8731C16D0A0
:102B70000D4B9E4210D83046FFF792FC80B20821E0
:102B800000F056FD0020F8BD064A032112686A6075
:102B9000536095606970E9E74FF6FE70EFE74FF616
:102BA000FF70ECE7D404001000093D00F8B51646AC
:102BB00050B190E830003CB135B1284600F068FBD8
:102BC000074618B18620F8BD8020F8BD6378032B36
:102BD00001D00020F8BDB6B9284600F04BFB0646F0
:102BE0000028F6D0204600F0C5F86368054693B18A
:102BF0003146284600F084FF284600F07FF9284639
:102C000000F0F4FCE5E72046294600F08BF900F0DF
:102C100009FC3846F8BD6370EAE700BF10B5EFF372
:102C2000058474B9EFF31484E40702D4064C2478C5
:102C30001CB1DFF818C000DF10BDBDE81040FFF781
:102C40004DBF002010BD00BF99040010DD2A000018
:102C500000B5EFF305822AB91346DFF814C000DF90
:102C60005DF804FB012200235DF804EBFFF75CBF75
:102C7000292B000000B5EFF3058222B9DFF810C060
:102C800000DF5DF804FB01225DF804EBFFF78EBF67
:102C9000AD2B000030B119B100680022FFF7AABEC9
:102CA000862070478020704710B5044649B10968F6
:102CB000FFF7C6FE23682046102B08BF20232360A1
:102CC00010BD80230360204610BD00BF10B5028BED
:102CD00043781143062B04460183428B19D0052B00
:102CE00000D010BD11EA0203FBD0438321EA0201A8
:102CF0002183204600F002F9012320466370082159
:102D0000628B00F001FF21460448BDE8104000F04E
:102D100007B801EA02039342E8D010BDA0040010F6
:102D200070B403784268013B022B8CBF0026012659
:102D30008C78E2B19578A54204D20EE09878A04252
:102D40000DD31A465368002BF8D100234B60516015
:102D500056B900238B6070BC7047134602464B6027
:102D60005160002EF5D099608A6070BC70470246B1
:102D7000EBE700BF436801785A68013902294260D5
:102D800007D812B100219060596000229A6018465D
:102D9000704700225A601846704700BF034B00215D
:102DA0005A68816042605860704700BFA0040010FC
:102DB00030B4164CE3681BB3A28A914203D822E0D8
:102DC000DC689CB123469C8A22449142F8D8DD6895
:102DD000C560D860C468036104B12061521A92B220
:102DE0008282998A30BC8A1A9A82704792B20024F1
:102DF000891AC460D86003619982848230BC7047AC
:102E00001A462346F3E71D462346E1E7B8040010BF
:102E1000F8B51D4DEC68002C34D0AB8A013B9BB259
:102E2000AB82002B2ED1194F2E4608E0E36860706C
:102E3000EB6033B31E61E16021611ABB1C46A368DD
:102E4000214613484FF0000E43B162685A60626831
:102E500012B19360C4F804E0C4F808E0FFF760FF23
:102E6000A28A0120AA8263780021042BDED13B686C
:102E7000B4F816C060706344A382E368EB60002B73
:102E8000D8D12361F8BD00BFB80400100C050010B4
:102E9000A0040010836833B142685A6042680AB1E6
:102EA000936070477047074A5368834205D043B127
:102EB0005A68824202D01346F9E7134642685A60C4
:102EC00070477047A004001038B5846805460CB9F7
:102ED0000CE0A4682378002BFBD02846FFF7DAFF2C
:102EE00020462946BDE83840FFF71ABF4378012B3A
:102EF00000D038BD004CF0E7A0040010036930B4E6
:102F000063B1C268DA60C26852B19C8A858A0021C6
:102F10002C449C821361C1600023036130BC704764
:102F20009A82F9E730B40F4BDC78EFF3108372B676
:102F30000C4A93789C4208D95D1C137895705D1CEF
:102F4000AC4214BFEDB20025157062B69C4205D9A3
:102F500030BC02EBC303586099607047022030BC5C
:102F600000F0D8BD6C070010103900238908012239
:102F7000C181027043708370436003814381838108
:102F8000704700BFF0B5466883B003460F4616B1E0
:102F9000417801292CD09D89DC89A54213D018895C
:102FA000021D43F82270EFF3108272B601359D8145
:102FB00062B6013080B284420BBF002018811881B4
:102FC000002003B0F0BD82B10EB3154C1846216845
:102FD0000192FFF7A5FE2168019ACF6110460821F2
:102FE00000F026FB012003B0F0BD012003B0F0BDCE
:102FF000FFF7C0FE3A460446102100F085FD20464A
:10300000FFF77CFF204600F0F1FA0020D9E70449E1
:103010000220096859604E608B605870DDE700BF80
:10302000D404001038B5838904461546CBB14289D3
:10303000C589101D013292B254F8200095420860F3
:10304000628104BF00226281626812B16278022A42
:103050001ED0EFF3108272B6013BA38162B600204E
:1030600038BD5AB143685BB1184B1968FFF758FE79
:103070002846082100F0DCFA012038BD012038BDC7
:10308000124A012112684260536090604170EFE77C
:103090002046FFF76FFE0021054600F031FD228932
:1030A000E089531C9BB2E969984202F1040244F89A
:1030B0002210238104BF002323812846FFF71EFF2F
:1030C000284600F093FA002038BD00BFD404001059
:1030D000C2898089101A704708B5FFF723FFBDE841
:1030E000084000F09FB900BF38B583890446ABB1F2
:1030F0004289151D50F825500D604178022913D0E2
:10310000EFF3108172B6013BA38162B60132E3890D
:1031100092B29342628103D0042038BD184638BD74
:1031200000236381042038BD0021FFF7FBFE00F07F
:1031300079F9A3896289E3E7436870B504460E46CE
:10314000002B4DD04578022D25D0032D02D0012D26
:1031500010D070BD084600F08DF805460028F8D064
:103160002046FFF707FE2946044600F0C9FC01236C
:10317000637007E0FFF7FEFD32460446102100F0C1
:10318000C3FC65702046FFF7B9FE21462248BDE822
:103190007040FFF7C5BDFFF7EDFD0021054600F0CB
:1031A000AFFC2389EA69191D44F82120EFF310824E
:1031B00072B6A2890132A28162B6E28901339BB262
:1031C0009A42238104BF00232381012328466B7088
:1031D000FFF794FE29461048BDE87040FFF7A0BDF8
:1031E0008289C3899A4211D20189081D44F820605E
:1031F000EFF3108072B60132A28162B6013189B25A
:103200008B420ABF00232181238170BD0320BDE8CA
:10321000704000F07FBC00BFA0040010002A70B412
:103220001EDBD51C25F003050C24B5B163198B42B8
:1032300013D8044401444E1B63199E42046041604C
:10324000856002D213E01C4613465A199642236049
:10325000F9D20020186070BC7047012070BC704724
:1032600022F00045073525F007051024DDE7234649
:10327000EFE700BFEFF3108272B6036802F00102BD
:103280000BB11968016002B962B61846704700BFF9
:1032900081420ED3436899420BD2EFF3108272B68B
:1032A00003680B601346DB07016004D462B600209C
:1032B0007047012070470020704700BF00230322A1
:1032C0000270437043804360836070472DE9F84388
:1032D0004388044613B9FF20BDE8F883294D82686E
:1032E00029688A42F7D1013B9EB246801EBB4378D3
:1032F00093704768002F33D0FFF73CFD31460746F7
:103300004FF0010800F0FCFB3846FFF7F7FDA7601F
:10331000A4F80280BB78DFF8709063702968D9F850
:1033200004308A789B789A4208D3384600F05EF9D8
:103330003046BDE8F8830020BDE8F8834846FFF733
:10334000EFFC48463946FFF7EBFC2B68304683F824
:10335000018087F8018000F049F93046BDE8F88324
:103360000948416889789942E5D91146FFF7D8FCA8
:103370002B68012238465A7000F038F93846BDE80B
:10338000F88300BFD4040010A0040010438870B577
:1033900004460D4643B9154A12688260927842701D
:1033A00001336380002070BD104E81683268914205
:1033B000F6D0CDB19378407898420FD363684BB183
:1033C00020461146FFF7ACFC2846092100F030F9F1
:1033D000012070BD626053609460F5E78B70A06857
:1033E000FFF772FD3268E9E7012070BDD4040010D8
:1033F000426810B57AB1FFF7BDFC0446FFF77EFDC9
:1034000001216170204600F07BFB21460448BDE8A5
:103410001040FFF785BC42880132428010BD00BFDA
:10342000A0040010054B1B781BB1054B01221A703C
:103430007047044B4FF080521A607047050200102D
:103440000402001004ED00E01A4A38B510680123A8
:10345000194D4370FFF7A2FCAB786C7893B921E06B
:10346000012A1AD0FFF7C4FFEB7801349C4208BF51
:103470000024EFF3108372B6AB78013BDBB2AB7084
:1034800062B67BB105EBC4014B681A781846002A76
:10349000E6D10989FFF71AFCE6E718468968FFF7C5
:1034A0004BFEE1E705486C70FFF764FCBDE838406F
:1034B00000F094B8D40400106C070010A0040010B1
:1034C000094B70B409481E68094D0A4A00240A4B8A
:1034D00007212E60046011601A684FF0FF3042F03F
:1034E0007F421A6070BC70474C69000018E000E031
:1034F00014E000E010E000E020ED00E0704700BFC5
:103500000B4A08B5106801234370FFF747FC00F031
:103510003DFB084B1A6801321A60FFF779FCFFF790
:10352000E1F80548FFF726FCBDE8084000F056B872
:10353000D40400100C050010A0040010084B1B68F8
:10354000DA78012A0AD09A6A5B6A9A4203D812682A
:10355000044B9A4202D0012000F0DCBA704700BF51
:10356000D4040010A52E5AE208B50448FFF702FC67
:10357000034A02235060437008BD00BFA00400103E
:10358000D4040010094B188868B1094A13685BB16C
:10359000012302E052F8041F21B101338342F9D91B
:1035A00000207047184670470120704738690000B6
:1035B0001007001030B4002401258170457004709C
:1035C00044608460C46004618482C4820483448350
:1035D00080F82040114630BC00F06ABA024B02224B
:1035E00058604270704700BFD404001038B50446DC
:1035F000B0B10D4D8278286883789A4207D80123AC
:10360000637021460948BDE83840FFF789BBFFF7E2
:10361000C5FB2B680121022259706C60627038BDB5
:10362000BDE83840FFF7A0BFD4040010A00400108C
:1036300038B50D4680B14FF6FF739842074C03D062
:1036400001462068FFF7B4FB236805485D70FFF76B
:1036500091FB02236060437038BD00BFD4040010AA
:10366000A0040010024B186800B1C078704700BF7A
:10367000D404001038B548B9184C2368997018481C
:1036800043689B788B421ED8002038BD154B1B88A1
:10369000984201D9FF2038BD134B013853F8205010
:1036A000002DF7D00D4CA97023689D42E7D0284625
:1036B000FFF70AFC6B78012BE6D10948FFF75AFBAC
:1036C000FFF794FFE0E72168FFF72AFB2368012258
:1036D0005A70FFF749FF002038BD00BFD404001026
:1036E000A0040010386900001007001070B5184CD5
:1036F0002568D0B1EB78834217D0164B1B889842CF
:1037000001D9FF2070BD144D461E55F82640002CEF
:10371000F7D02046FFF7BEFB2046FFF7EFFB002364
:1037200045F826301846A36270BD00266E7000F082
:103730002AF96862FFF702FF2368074AD9782660F2
:10374000013942F821609E62FFF70EFF304670BDDE
:10375000D40400103869000010070010F8B5304B91
:10376000198839B100232F4A18460133994242F88B
:10377000040FFAD82C4B2D4C1F882D4A002501230D
:103780002046FF262B496784E670A262637025708D
:10379000A5706560A560E5602561A582E582258349
:1037A000658384F8205000F083F9234B234A1E7868
:1037B000DFF8A0E0224B23480227CEF800406770D4
:1037C0000421D670157055701970DD601D619D82E1
:1037D0004560017000F0CEF91B4B1A6842F47F027D
:1037E0001A601B681B0203F07F43DB43B3FA83F3C9
:1037F000164ADBB21268C3F10803C2F302229342F5
:1038000000DC531C6FF0807202FA03F3104A03F0DD
:103810007F43116821F07F410B431360F8BD00BF67
:10382000386900000C07001046690000DC04001035
:1038300010050010113B0000486900006C070010E3
:10384000B8040010A004001020ED00E00CED00E032
:103850001CED00E0D404001008B5FFF731FE0C4B5E
:103860000028186012DB00F16040FF2200F5644080
:1038700002701B68012103F01F0201FA02F25B11C2
:103880009B0003F1604303F561431A6008BD00BF6C
:10389000D00400100321FFF7CBBE00BF10B50023FA
:1038A000044600F1080223726372A372E372237369
:1038B0006373A373E37323746374A374E37440F8B2
:1038C000042FFEF793FF206008B1204610BD024888
:1038D00000F0DCF9204610BDD86800000068FEF753
:1038E0009FBF00BF0068FEF7A7BF00BF074B10B522
:1038F000036004464068FEF7B3FE94F848301BB1FD
:10390000606908B101F0EAF8204610BD3069000096
:1039100010B50446FFF7EAFF204601F0DBF8204629
:1039200010BD00BFF0B583B0124F089E099D04463C
:10393000816083810760066165B10023456180F87D
:103940004830114604F10800FEF770FE6060204622
:1039500003B0F0BD3046019201F0D6F8019A6061E3
:1039600018B1012384F84830EBE7034800F08EF9E2
:10397000019AF6E73069000000690000FEF79ABE80
:1039800080F309887047EFF309807047684680F339
:10399000098841480078C00714BF0220032080F343
:1039A00014887047DFF8F4C0EFF305831B0618BFD7
:1039B0006047EFF31483DB0708BF604700DF704701
:1039C000DFF8DCC0EFF305831B0618BF6047EFF399
:1039D0001483DB0708BF604700DF7047EFF30980FF
:1039E000816911F8021CF9B990E80F10E047EFF374
:1039F000098C8CE807002B4B93E80600914200F0FD
:103A0000108039B12CE9F00FC1F824C00CB4FFF7D5
:103A100095FD0CBC1A60D2F824C0BCE8F00F8CF302
:103A200009886FF0020E704710B51F4A1268914264
:103A300000F20A801D4C54F8214090E80F10A04776
:103A4000EFF3098C8CE80F0010BDFFF7FDFC154B60
:103A500093E80600914200F01180EFF3098C2CE905
:103A6000F00FC1F824C00CB4FFF768FD0CBC1A605D
:103A7000D2F824C0BCE8F00F8CF309886FF0020E76
:103A80007047FFF73DFDFFF7E2BFFFF737FDFFF798
:103A900037FDFFF7DCBF000044690000753200000D
:103AA00091320000D404001000000000FCFFFFFF72
:103AB000F0B4458C866AAD0806EB85056B0748BFF8
:103AC000043D4FF0807305E90A00A5F14007A5F118
:103AD0004403A5F10C04002243F8042FA342FBD1B8
:103AE000C36945F8203CC3784762012B18BF034BDC
:103AF000C16218BF3360F0BC704700BFA52E5AE208
:103B0000436A1962704700BF436A19625A6270477C
:103B1000FEE700BF00F080B800B9704700F07CB845
:103B20000449054AC1F1805303F5F8439360D1601D
:103B3000704700BF10100010C800001000200021C6
:103B400004460D46094800F0E1FF01F09DF92046CA
:103B50002946FEF7CFFCFFF7E3FF05480021FEF7FB
:103B600065FDFEF7DBFC00F0A3F80000214E00002D
:103B7000C8000010034A044B11680022D9801A6063
:103B8000704700BF40690000F80F0010104A08B5E8
:103B9000104B51681A688A4216D00F48DA880068BC
:103BA000013A024492B219609A8080B2904200D0E9
:103BB00008BD002206481A60FFF7DCF8BDE808409F
:103BC00001460348FFF7ACB803499A880868ECE758
:103BD000A0040010F80F00100C0500100C4A30B4BF
:103BE000936894681A46B4F1805F0CD2094A03F1D5
:103BF000C40553F8044BAB4242F8044FF9D1044BCF
:103C00004FF080529A60103042F8201030BC70475C
:103C100000ED00E0FCFFFF0F00B599B072B6174948
:103C2000684600F06FF806A8154900F06BF80CA87C
:103C3000144900F067F812A8134900F063F8039BD9
:103C4000019A0A981A60079B109903600D9B159AB8
:103C50000B60139B9620136000F0A8F8049B019A58
:103C600009981A60079B0F9903600D9B169A0B60C9
:103C7000139B9620136000F099F8E0E732C009200A
:103C800034C0092035C0092037C009200FB400B561
:103C9000064A83B004AB126853F8041BD0681A4676
:103CA000019301F065FD012000F002F8B801001059
:103CB0000A4C08B523680546986800F0E1FF2368C0
:103CC000D86800F0DDFF00F04FF820B905B9FEE735
:103CD000FFF7A2FFFBE700F049F8F7E7B801001093
:103CE00038B50D46044600F057F9013509D0204695
:103CF000002100F071F920460321BDE8384000F0B2
:103D000067B938BD38B50D46044600F045F90135B0
:103D10000CD02369626820461A60012100F05CF92A
:103D200020460221BDE8384000F052B938BD00BF3E
:103D300070B50D461646044600F02EF9013511D037
:103D400066B9236962681A602046012100F044F9CF
:103D500020460221BDE8704000F03AB9E36862688D
:103D60001A60F1E770BD00BF00F00CB830B585B047
:103D700018246D4620462946ABBE0446204605B0B1
:103D800030BD00BF024B186800F00100704700BF53
:103D9000F0ED00E038B5054600F094FD044600F073
:103DA00091FD001BA842FAD338BD00BF4FF47A73CF
:103DB00003FB00F0FFF7EEBF002280E806008261FF
:103DC000704700BF08B5036801460BB1984708BDAE
:103DD000406810B18B690831984708BD0248034913
:103DE000034A00F071BC00BF0010001002C009209F
:103DF00003C00920022808B50BDD084BC21E53F88A
:103E00002200002143F8221028B103685B6898471C
:103E100008BD002008BD4FF0FF3008BD08020010AB
:103E2000022870B50C4616460FDC0E4B1B680BB90A
:103E3000FFF7D4FFA51936B114F8011B0A4800F0AA
:103E400093FBAC42F8D1304670BD084B033853F8B1
:103E5000200018B103681B68984770BD4FF0FF3011
:103E600070BD00BF08030010001000100802001011
:103E7000022810B50C4609DC0D4B1B688BB10D48B0
:103E800000F026FB01232070184610BD0A4B0338B2
:103E900053F8200040B103689B68984703461846D2
:103EA00010BDFFF79BFFEAE74FF0FF33ECE700BFE1
:103EB000080300100010001008020010022808B5C6
:103EC00008DD074B033853F8200028B10368DB688E
:103ED000984708BD012008BD4FF0FF3008BD00BF66
:103EE00008020010022808B508DD074B033853F814
:103EF000200028B103681B69984708BD002008BD51
:103F00004FF0FF3008BD00BF08020010022808B5BE
:103F100004D84FF400534B60002008BD00F0FCFDB6
:103F2000092303604FF0FF3008BD00BF074A136844
:103F30001844EFF30881884202D210601846704797
:103F4000034B0C221A604FF0FF30704750010010F5
:103F5000081000100649074A074B9A42BEBF51F8A5
:103F6000040B42F8040BF8E7044880470448004774
:103F70003C710000C8000010C80100101149000089
:103F8000C9010000FEE7FEE7FEE7FEE7FEE7FEE709
:103F9000FEE7FEE7FEE7FEE738B504464B1C0D469C
:103FA000216014D00846002100F028F805F01F0316
:103FB0000120984025F01F0505F1180105F11C02AC
:103FC00005F11403A5606060E1602261636138BDA2
:103FD000006800F02BB800BF41B1012905D183680A
:103FE000426819680A431A607047704783684168DD
:103FF0001A6822EA01021A60704700BF00F16040AF
:10400000A0F51C2000F00F035B0003229A409940AA
:1040100003099B0003F1804303F53033186820EA5D
:1040200002021A601A6811431960704700F160407B
:10403000A0F51C2030B4C1F3800200F01F0402FA86
:1040400004F443099B0003F1804303F530339D6E74
:1040500025EA04059D669D6E2C439C669AB900F086
:104060000F035B0003229A4001FA03F3000980006A
:1040700000F1804000F53030016C21EA0202026458
:10408000026C1343036430BC704700BF08B5154A87
:104090009368C3F34203012B1ED0022B19D1124B9C
:1040A000596F01310AD0D3F88010986F086093F8E7
:1040B000A61019B9516821F001015160186F0A4B1F
:1040C00048B193F8A6302BB10021084A13689847ED
:1040D00008BD08BD08BD08BD034A106F0028F9D00F
:1040E0001946F2E700800940100300100C0300108D
:1040F00070B50368294CA34249D041DD284CA34246
:104100002AD004F58044A34244D1264C08263ABB69
:1041100001290BD04568244AC5EBC50502EBC5044F
:1041200094F8355094F83620EA4214D1012202FA6C
:1041300001F5D1F1010138BF002102FA01F15C68FB
:1041400024EA05045C6003685B68194203D1B2404D
:10415000164BC3F8802070BD154C0726002AD7D017
:10416000012505FA01F176B2304605FA06F65A68DD
:104170000A435A602146FFF731FD0C4B1E6070BDAB
:10418000A4F58044A34205D10A4C0526BFE70A4C9A
:104190000626BCE700242646B9E700BF0000014020
:1041A00000800940BD4100001003001000E100E064
:1041B0008D400000294200008D42000008B5174ADA
:1041C0009368C3F34203012B21D0022B1CD1144B63
:1041D000D3F8AC1001310BD0D3F8B810D3F8B0003D
:1041E000086093F8DE1019B9516821F0010151609F
:1041F000D3F8A8000A4B48B193F8DE302BB1002168
:10420000084A1368984708BD08BD08BD08BD044AA0
:10421000D2F8A8000028F8D01946F1E700C00940FC
:10422000100300100C03001008B5154A9368C3F37F
:104230004203012B1DD0022B18D1124B59680131BA
:1042400009D019699868086093F8361019B951684F
:1042500021F00101516018680A4B48B193F83630DB
:104260002BB10021084A1368984708BD08BD08BD56
:1042700008BD044A10680028F9D01946F2E700BFCB
:1042800000C00040100300100C03001008B5154AD0
:104290009368C3F34203012B1DD0022B18D1124B9C
:1042A000D96B013109D0996C186C086093F86E10C5
:1042B00019B9516821F001015160986B0A4B48B15E
:1042C00093F86E302BB10021084A1368984708BD57
:1042D00008BD08BD08BD044A906B0028F9D01946F6
:1042E000F2E700BF00000140100300100C030010B3
:1042F0002DE9F00F8AB00890714B00689842099040
:1043000000F0CF8040F3BA806E4B099A9A4200F0D9
:10431000908003F580439A420CD16B4BD3F8AC21CB
:1043200022F44022C3F8AC21D3F8AC2142F480221D
:10433000C3F8AC21654B0A011B680593059CB3FBD0
:10434000F2F302FB13429BB20193002A00F0948027
:104350006000A2004FF001090023079006928046FA
:104360009346CDF80C900491A2468C46029300220D
:10437000049C10465FFA89F7B8F1000FB5BFB8FB8F
:10438000F4F3BBFBF4F31B095B090133C3F34F03E5
:1043900002EB0906002B5AD1012300285BD103FB55
:1043A00006F5ED00BAFBF5F50135C1EB5505002D1D
:1043B000B8BF6D42654505DA8D424ED0AC460290DD
:1043C000019303970132D0B287420C44D4D8B9F19B
:1043D0000F0F4FF0000349D0059A079C9244049AAE
:1043E00006980A4409F10109A04483440492002B71
:1043F000BDD0029B039C43EA0410C0B2099A019C01
:10440000137BC4F3072143F080031373089A1368E6
:10441000E2B2089C197123681A70236883F8280097
:1044200023681A7B02F07F021A730AB0BDE8F00F0E
:104430007047254BD3F8AC2122F44032C3F8AC21AD
:10444000D3F8AC2142F48032C3F8AC2172E70028E3
:10445000A5D0012BA3D80223A1E7B9F10F0F019337
:10446000039702908C464FF00103B5D1029C03994B
:1044700044EA0110C0B2C1E71020BFE7A3F58043B2
:1044800098427FF457AF104BD3F8A82122F0C00216
:10449000C3F8A821D3F8A82142F04002C3F8A8210C
:1044A00048E7094BD3F8A82122F44072C3F8A821A9
:1044B000D3F8A82142F48072C3F8A8213AE700BFDC
:1044C000000001400080094000C00F40540100106E
:1044D0000268137DDB07FCD543680949C3EBC303BE
:1044E00001EBC303596810780131C0B207D0596994
:1044F00004335B680B60536843F0010353607047FB
:10450000100300104368174AC3EBC303DB00D11844
:1045100010B4CC69013411D00A6B01F11C035B6843
:1045200012681A4203D000205DF8044B70470368FC
:104530005DF8044B187DC0F38010704703681B7D45
:104540009B0608D491F834005DF8044B0F288CBF0B
:10455000002001207047002381F8343001205DF8ED
:10456000044B70471003001038B504460D46204632
:10457000FFF7C8FF0028FAD02368EDB21D7062680B
:10458000054BC2EBC20203EBC20393F834200132A5
:1045900083F8342038BD00BF100300102DE9F04F20
:1045A0000446454D006883B0A8420E4690469946A1
:1045B00043D06568002301932A46DFF808A1EF0085
:1045C000C2EBC202781B4FF0000E0AEBC0000AEBF0
:1045D000C20C4FF0FF33C361436071467246204600
:1045E0008CF835E0FFF784FD16B903B0BDE8F08F15
:1045F0003249404600F01AFA31498346484600F0F5
:1046000015FAB21E012A38D9012EEED1B8F1FF3FBA
:10461000EBD02949226807208B45107215D1019BE8
:104620009BB11B7C019A254943F04003404613741B
:1046300003B0BDE8F04F00F0C7B9037C656803F034
:104640003F03037462680190B7E77D1B0AEBC50066
:10465000414604300022FFF76BFB62680125C2EB84
:10466000C2020AEBC20320462A46002183F83550D5
:1046700003B0BDE8F04FFFF73BBDB9F1FF3F09D0F4
:104680000D4A90420CD0781B0AEBC00049461C3002
:10469000FFF726FB032EA8D1B8F1FF3FB9D1A4E75D
:1046A000019B002BEFD01A7C484642F080021A741E
:1046B000034900F089F9EDE700000140506900006E
:1046C0004C6A0000100300102DE9F04105460F462A
:1046D00008465949164600F0B7F95849044630468D
:1046E00000F0B2F90146204600F08EF9544B044622
:1046F000984228607FD06FD9524B98424BD003F537
:104700008043984206D1504BD3F8C42042F0007247
:10471000C3F8C420012323722B684FF00008C3F8AC
:10472000048028464FF41651FFF7E2FD2B68032260
:104730001A733846404900F047F930463F4900F0C7
:1047400043F97A1C03D038464146FFF76FFC731CCF
:1047500003D030460021FFF769FC394B9C4247D01B
:1047600021D9384B9C4263D003F580439C424AD107
:1047700003236B603549C3EBC3034FF0FF34284676
:1047800001EBC305224623466C60EC610021BDE8C5
:10479000F041FFF703BF2C4BD3F8C42042F08072E6
:1047A000C3F8C420B6E7A3F580439C422BD1274E23
:1047B0004FF0FF340021696022462346284674608A
:1047C000F461FFF7EBFE224B01221A60286869684A
:1047D000204B03C3BDE8F081A3F58043984299D1F3
:1047E000194BD3F8C42042F00802C3F8C42091E763
:1047F00001236B60BEE7144BD3F8C42042F01002D3
:10480000C3F8C42086E76B681049C3EBC3034FF0BD
:10481000FF3601EBC30732463346284600217E604F
:10482000FE61FFF7BBFE0C4B9C42CCD0BDE8F08193
:1048300002236B609EE700BFE0690000746900001E
:10484000000001400080094000C00F40100300102C
:10485000080300100010001000C00040134A38B5D3
:1048600013680BBB12490124D1F8C4501460114ADB
:10487000114845F40005C1F8C4501367036801F1FD
:10488000437101F5F45103319B08A1FB03039B0C19
:10489000013B022151600420D36008495460FFF7B6
:1048A0009DF9074B10221A6038BD00BFF0030010BD
:1048B00000C00F4000400940540100107D4A000034
:1048C00000E100E008B5044B1B680BB9FFF7C6FF19
:1048D000024B986808BD00BFF0030010004009407B
:1048E000034B98615A6942F001025A61704700BF58
:1048F00000400940024B5A6922F001025A61704798
:1049000000400940014B01221A60704700400940F5
:104910002B4A202370B4C2F8A031D2F8A0319806F7
:1049200045D4274B022100250124AA2055220B261D
:10493000C3F80411C3F8A8511946C3F8AC51C3F821
:104940000C41C3F88460C3F88C00C3F88C20C3F812
:104950008040C3F88C00C3F88C20D1F88830184A06
:104960005B01FAD50321AA205523C2F88010C2F8B2
:104970008C001146C2F88C30D1F88830104A13F000
:10498000407FF9D00F4900230520C2F80801C2F882
:10499000C410C2F8C831136870BC23F4704323F00C
:1049A0003A0343F4405343F03A0313607047D2F89C
:1049B000A0315906B5D4D2F8A0315906F7D5B0E7E1
:1049C00000C00F40DE872804431C10B5044618D0F1
:1049D0000B68581C04D10FE051F80C3F5A1C0BD047
:1049E0009C42F9D120468968FFF708FB2046022146
:1049F000BDE81040FFF71ABB0248BDE81040FFF7C2
:104A000045B910BD706A0000884208B50AD0431C41
:104A100007D0013106D00448FFF738F94FF0FF30D6
:104A200008BD084608BD00BF846A00000B685A1C18
:104A300004D107E051F80C3F5A1C03D08342F9D14E
:104A4000486870471846704708B5431C0CD00B687F
:104A50005A1C04D109E051F80C3F5A1C05D0984269
:104A6000F9D14868411C00D008BD0348FFF70EF992
:104A70004FF0FF30F8E700BF986A0000F8B5FFF785
:104A800041FF124E124F3368ABB1D3E90045FFF737
:104A900019FF221A65F1000310461946012871F129
:104AA00000030CDA31683A68CB683360002AEBD037
:104AB00088689047E7E7BDE8F840FFF71BBF336819
:104AC000D3E90001BDE8F840FFF70ABFF403001086
:104AD000F803001008B1FBF797BB7047FFF7FABF68
:104AE00010B5002814BF044601242046FBF786FBBE
:104AF00030B9044B1B680BB9FBF78CFB9847F4E704
:104B000010BD00BFFC030010FFF7EABF0146002004
:104B10000246034601F094B8014B1868704700BF85
:104B2000B80100108A892DE9F041054610070C46AE
:104B300057D44B68002B02DC0B6C002B18DDE66AA7
:104B4000B6B102F48052002392B22F682B600AB1F2
:104B5000626D10E0216A28460123B047411C0246DD
:104B600009D12B683BB11D2B01D0162B46D12F60EC
:104B70000020BDE8F081A3895B0705D56368D21AE0
:104B8000636B0BB1236CD21AE66A2846216A0023B4
:104B9000B047461CA28905D12B681BB11D2B01D043
:104BA000162B19D1002363602369D104236004D537
:104BB000421C01D12B6803B96065616B2F6000292D
:104BC000D6D004F14403994202D0284600F09AF965
:104BD00000206063BDE8F08142F04002A281BDE8A0
:104BE000F0810E69002EC3D00B680E60C6EB03087F
:104BF00093070CBF4B6900238B6012E0A3894FF031
:104C0000FF3043F04003A381BDE8F081A76A284646
:104C1000216A32464346B8470028EFDD0644C0EB20
:104C20000808B8F1000FF1DCA2E7000038B50B6905
:104C300005460C46DBB118B183690BB900F086F864
:104C40000C4B9C4201D16C6808E00B4B9C4201D19B
:104C5000AC6803E0094B9C4208BFEC68B4F90C3027
:104C60002BB128462146BDE83840FFF75BBF002046
:104C700038BD00BFB86A0000D86A0000F86A0000BA
:104C8000014620B9044B0549186800F0DFB8044B11
:104C90001868FFF7CBBF00BF1C6B00002D4C000055
:104CA000B8010010F8B5074600F1480494B1A568B2
:104CB0006668013E0CD4AB89012B07D9B5F90E30DB
:104CC000013303D038462946FFF7B0FF6835F0E7D7
:104CD0002468EBE7F8BD0000002310B5044603602C
:104CE0004360836081814366C28103614361836164
:104CF00019465C30082200F0FDF8054B246263621F
:104D0000044BA362044BE362044B236310BD00BF5A
:104D1000E1500000035100003B5100005F510000D2
:104D200070B54B1E68255D430E4605F1740100F019
:104D30002DF9044640B1002180E842000C30A0600B
:104D400005F1680200F0D6F8204670BD836910B501
:104D5000044633BB8364C3640365124B124A1B6869
:104D60008262984204BF0123836100F01FF86060F3
:104D7000204600F01BF8A060204600F017F8042140
:104D8000E06000226068FFF7A7FFA0680921012208
:104D9000FFF7A2FFE06812210222FFF79DFF012327
:104DA000A36110BD1C6B0000A54C0000F8B51B4BA7
:104DB00007461E68B36913B93046FFF7C7FF483688
:104DC000B4687368013B04D4B4F90C5075B168340D
:104DD000F8E733682BB938460421FFF7A1FF3060AC
:104DE00008B13668ECE70C233B60F8BD4FF6FF7363
:104DF000E3810123A38165662560A5606560256167
:104E00006561A56104F15C002946082200F072F892
:104E10006563A563A564E5642046F8BD1C6B0000CE
:104E200038B5084D084C641BA41005EB840524B16B
:104E300055F8043D013C9847F9E7BDE8384001F0DA
:104E4000D9B800BFC4010010C80100102DE9F84313
:104E50008046894600F14804002694B1A568676839
:104E6000013F0CD4AB89012B07D9B5F90E300133C2
:104E700003D040462946C84706436835F0E7246812
:104E8000EBE73046BDE8F88370B50E4B0E4D0024BD
:104E9000ED1AAD101E46AC4204D056F824209047BF
:104EA0000134F8E701F0A0F8084D094B0024ED1A91
:104EB000AD101E46AC4204D056F824209047013471
:104EC000F8E770BDBC010010BC010010C401001067
:104ED000BC010010024B0146186800F057B800BF33
:104EE000B8010010024B0146186800F00BB800BF73
:104EF000B801001002440346934202D003F8011B9C
:104F0000FAE7704730B500293CD051F8042C0B1F4C
:104F10001D49002AB8BF9B180A680C4612B95A608E
:104F20000B6030BD93420DD219685818904203D1DE
:104F30005A581144426819605A60236030BD994242
:104F400003D80A4651680029F9D1146815199D4201
:104F50000AD11B682344D0188842136012D1086814
:104F6000034413604B680CE002D90C23036030BD8E
:104F700018681C188C4203D10C68496820441860DA
:104F80005960536030BD00BF0404001070B5CD1CE3
:104F900025F0030508350C2D38BF0C25002D0646DD
:104FA0003FDB8D423DD3214B1C6818462146A1B101
:104FB0000B685B1B0ED40B2B03D90B60CC18CD50A8
:104FC0001FE08C4202D1626802601AE04B686360A5
:104FD0000C4616E00C464968E9E7154C23681BB9F6
:104FE000304600F06DF820602946304600F068F841
:104FF000431C014615D0C41C24F0030484420AD18A
:10500000256004F10B00231D20F00700C31A0BD00C
:105010005A42E25070BD3046611A00F051F801303A
:10502000EED10C233360002070BD00BF04040010DB
:105030000004001037B50D46044618B183690BB95A
:10504000FFF784FE4DB12B783BB1E168284600F0B4
:10505000E5FE0A48E16800F0E1FE204621680122F1
:1050600001AB00F081F810B1E16800F0D7FEE16813
:105070000A2000F075FE03B030BD00BF206B0000B9
:10508000024B01461868FFF7D5BF00BFB8010010FA
:105090000FB40A4B13B51C6824B1A36913B9204699
:1050A000FFF754FE05AB2046A168049A019300F077
:1050B0005BFA02B0BDE8104004B07047B8010010C0
:1050C00038B5064C0023054608462360FEF72EFF40
:1050D000431C02D1236803B12B6038BD08100010B7
:1050E00010B50C46B1F90E1000F04AFF002803DBA2
:1050F000636D0344636510BDA38923F48053A381CA
:1051000010BD2DE9F0411D468B890746DB050C4695
:10511000164605D5B1F90E100022022300F088FED4
:10512000A389384623F48053A381B4F90E10324684
:105130002B46BDE8F04100F003BD10B50C46B1F9B7
:105140000E1000F075FE431CA38903D123F4805395
:10515000A38110BD43F48053A381606510BDB1F9F4
:105160000E1000F0C9BD000010B504468E2900F2F3
:105170002381DFE811F08F002E019100930095004C
:10518000970099009B009D00A100A300A700A90023
:10519000AB00AD002101AF00B100B300B500B70016
:1051A000BD00BF00C300C500C700C900CB00CF00D1
:1051B000D300D500D700D900DB00DD00DF00E1001F
:1051C00021012101210121012101210121012101CF
:1051D000E300E70021012101210121012101210139
:1051E0002101210121012101210121012101E900E8
:1051F0002101EB00ED00210121012101EF0021013E
:1052000021012101F10021012101F50021012101EC
:10521000F7002101210121012101210121012101A9
:10522000210121012101F9002101FB00FD00FF0006
:10523000210121011B012101210121012101210164
:1052400021012101210121010101030105010701C2
:10525000090121010B010D010F01E500C1001F0132
:10526000B900CD00BB009F00A5001D01F300210186
:10527000210121011301110121012101210121013C
:105280002101D1002101210121012101210115016B
:1052900017011901504810BD504810BD504810BDAD
:1052A000504810BD504810BD504810BD504810BD6A
:1052B000504810BD504810BD504810BD504810BD5A
:1052C000504810BD504810BD504810BD504810BD4A
:1052D000504810BD504810BD504810BD504810BD3A
:1052E000504810BD504810BD504810BD504810BD2A
:1052F000504810BD504810BD504810BD504810BD1A
:10530000504810BD504810BD504810BD504810BD09
:10531000504810BD504810BD504810BD504810BDF9
:10532000504810BD504810BD504810BD504810BDE9
:10533000504810BD504810BD504810BD504810BDD9
:10534000504810BD504810BD504810BD504810BDC9
:10535000504810BD504810BD504810BD504810BDB9
:10536000504810BD504810BD504810BD504810BDA9
:10537000504810BD504810BD504810BD504810BD99
:10538000504810BD504810BD504810BD504810BD89
:10539000504810BD504810BD504810BD504810BD79
:1053A000504810BD504810BD504810BD504810BD69
:1053B000504810BD504810BD08461146002B14BF80
:1053C0001A46224600F0A6F84C4B002808BF1846A3
:1053D00010BD4B4810BD00BF236B0000356B0000B3
:1053E0004F6B00005F6B0000776B0000816B00006B
:1053F0009B6B0000AD6B0000BF6B0000D86B000022
:10540000E86B0000F46B0000116C0000236C0000DE
:10541000346C0000466C0000526C00006A6C0000A6
:10542000766C0000886C0000976C0000A76C000090
:10543000B46C0000D36C0000E26C0000F36C000060
:10544000176D0000356D0000496D0000606D0000B3
:105450006F6D00007E6D0000926D0000AA6D00006F
:10546000B86D0000C56D0000DB6D0000EA6D000046
:10547000F66D0000046E0000156E0000306E000036
:10548000436E00004C6E0000636E00006B6E000007
:10549000786E00008D6E0000A16E0000B96E0000F5
:1054A000C86E0000D96E0000EC6E0000F86E0000BF
:1054B000116F0000256F0000406F0000586F000062
:1054C000726F0000A26F0000C16F0000E06F00006B
:1054D000F76F00000A7000002170000042700000A9
:1054E0005A70000076700000897000009F70000004
:1054F000B3700000D5700000E6700000007100007D
:105500002B6B0000034613F8012B002AFBD1181A5D
:105510000138704700207047936810B5013B002B9D
:10552000936005DA9469A34208DBCBB20A2B05D05D
:105530001368581C10601970C8B210BDBDE8104047
:1055400000F0AABAF8B505460E461446D718BC4274
:1055500008D0284614F8011B3246FFF7DDFF431C34
:10556000F5D100E00020F8BD2DE9F0439DB00D46D7
:1055700017460393064618B183690BB9FFF7E6FB9C
:10558000734B9D4201D1756808E0724B9D4201D179
:10559000B56803E0704B9D4208BFF568AB891807FA
:1055A0000AD52B6943B10023099320238DF82930B4
:1055B00030238DF82A3038E03046294600F0D2FA00
:1055C0000028F0D04FF0FF30BEE0039A111D1268A2
:1055D0000391002A70DB0792013423782E2B7DD0B3
:1055E0005E4F21783846032200F080FC30B1C71BA3
:1055F0004020B840049B0134034304932178584869
:105600000622671C8DF8281000F070FC002800F0BE
:105610008980544B002B7CD1039B073323F0070375
:1056200008330393099B434409933B461C4613F8F4
:10563000012B1AB9B4EB07090ED002E0252AF5D1E7
:10564000F8E7304629463A464B46FFF77BFF0130E4
:1056500075D0099B4B4409932378002B6FD000230E
:105660004FF0FF3204930793059206938DF8533061
:105670001A9304F101093C4F4C4638462178052223
:1056800000F034FC09F10109049B28B1C71B01207B
:10569000B84003430493EEE7D90644BF20228DF8B7
:1056A00053201A0744BF2B228DF8532022782A2A30
:1056B0008BD0079B214605E0524243F0020307923C
:1056C000049389E70C4622780131303A092A03D83D
:1056D0000A2000FB0323F5E707937EE763782A2B74
:1056E00009D1039B02341A1D1B680392002BB8BF1B
:1056F0004FF0FF330BE0611C00230C462278013190
:10570000303A092A03D80A2000FB0323F5E7059362
:1057100066E703AB0093304604A92A46134BAFF368
:10572000008007E003AB0093304604A92A460F4BE4
:1057300000F09EF8B0F1FF3F80467FF473AFAB8975
:105740005B063FF53FAF09981DB0BDE8F08300BF91
:10575000B86A0000D86A0000F86A00000171000011
:105760000571000000000000FB70000045550000BE
:1057700030B51346044A05460C46106829462246B1
:10578000BDE83040FFF7F0BEB80100102DE9F84346
:1057900015461F468A680B6906469A42A8BF1346FB
:1057A0002B6091F843200C46DDF820800AB10133CC
:1057B0002B602368990602D52B6802332B6023687F
:1057C00013F006091DD094F843302268003318BF47
:1057D000012392061FD5E118302081F843005A1C9E
:1057E00094F845102244023382F8431013E0304607
:1057F000394604F119020123C047013007D009F1ED
:105800000109E2682B68D31A9945F0DBDBE74FF01A
:10581000FF30BDE8F8833046394604F14302C04703
:105820000130F4D023682A6803F00603E168042BF2
:1058300008BFC2EB01052369A2680CBF25EAE57524
:1058400000259A42C4BFC3EB0203ED184FF00009D4
:10585000A9450ADA3046394604F11A020123C04745
:105860000130D4D009F10109F2E70020BDE8F88346
:105870002DE9FF470E7E80466E2E0C4691469A46D5
:105880000C9D01F1430000F0A58011D8632E22D0B9
:1058900009D8002E00F0AF80582E40F0BF8081F86C
:1058A00045607B4A4FE0642E1ED0692E1CD0B5E0C7
:1058B000732E00F0A48009D86F2E2BD0702E40F0EC
:1058C000AD800B6843F020030B6038E0752E21D0CB
:1058D000782E34D0A2E02B6801F142071A1D1B6814
:1058E0002A6081F842309DE022682B6812F0800F18
:1058F00003D01A1D2A601D6805E05106F9D51A1D4E
:105900002A60B3F90050002D39DA2D236D4284F856
:10591000433034E022682B6812F0800F03D01A1D48
:105920002A601D6804E05206F9D51A1D2A601D88F8
:10593000237E574A6F2B14BF0A2308231BE07823CA
:10594000544A84F845302368296813F0800F01F128
:1059500004062E6001D00D6802E05F06FBD50D88BD
:10596000DE0744BF43F0200323601DB9236823F002
:10597000200323601023002184F8431001E0444AEF
:105980000A236668002EA66003DB216821F004016B
:10599000216005B96EB104F14201B5FBF3F603FBDA
:1059A0001655555D0F4601F801593546002EF4D1C4
:1059B00000E00746082B0AD12368DD0707D5626897
:1059C00023699A4203DC302307F8013C013FC01BE6
:1059D00020612CE009682B6811F0800F626904D007
:1059E000191D29601B681A6005E04906F8D5191DC4
:1059F00029601B681A8000232361074617E02B6883
:105A00001A1D2A601F683846FFF77CFD6368206115
:105A1000984288BF23612369636005E004F142076F
:105A200084F8426001232361002384F84330CDF8D9
:105A300000A04046214603AA4B46FFF7A7FE0130CF
:105A400002D14FF0FF301FE0404649463A462369F5
:105A5000D0470130F5D023689B0705D4E068039B4D
:105A60009842B8BF18460FE00025E268039BD31A9E
:105A70009D42F3DA4046494604F119020123D0471A
:105A80000130DED00135F0E704B0BDE8F08700BF9B
:105A90000C7100001D71000070B50E4614460546DD
:105AA00018B183690BB9FFF751F9224B9C4201D120
:105AB0006C6808E0204B9C4201D1AC6803E01F4BAE
:105AC0009C4208BFEC68A369A360A3891A0709D5A3
:105AD00023693BB123692068F6B2C01A6369984212
