:1000000000800010B9720000E9720000EB7200007D
:10001000ED720000EF720000F172000000000000BD
:10002000000000000000000000000000256B000040
:10003000F572000000000000936B0000CB6B000025
:10004000FB720000FB720000FB720000FB720000FC
:10005000FB720000FB720000FB720000FB720000EC
:10006000FB720000FB720000FB720000FB720000DC
:10007000FB720000FB720000FB720000FB720000CC
:10008000FB720000FB720000FB720000FB720000BC
:10009000FB720000FB720000FB720000FB720000AC
:1000A000FB720000FB720000FB720000FB7200009C
:1000B000FB720000FB720000FB720000FB7200008C
:1000C000FB720000FB720000FB72000010B5054CD3
:1000D000237833B9044B13B10448AFF300800123F4
:1000E000237010BD0C0200100000000098CA000030
:1000F00008B5064B1BB106480649AFF30080064819
:10010000036813B1054B03B1984708BD0000000018
:1001100098CA0000100200100C020010000000003D
:1001200070B5ADF5287D6846164900F04BF90024FE
:10013000684600F07DF990B91FE008F005FA124812
:1001400009F0EAF830462C4608F016F84FF4FA7039
:1001500006F0B8FC684600F067F90028E8D00B49C3
:100160000B4808F0E7F9651C0646224609490028B5
:10017000E3D1094809F0D0F8E8E74FF4FA7006F047
:10018000A1FCD5E744AF00007CAF000058AF0000F1
:1001900048AF00005CAF00008CAF000030B500231A
:1001A00097B04FF480510C4C8DE80A001A4603A812
:1001B0000A4906F05BFC254605E02A6913604FF406
:1001C000FA7006F07FFC6269636812681A42F4D123
:1001D000EA681360F3E700BF280200102101000065
:1001E000054B0022184605491A605A609A60DA6089
:1001F0001A615A6106F02ABE2802001032C0092096
:100200000748084A08B5121A002108F0FEFA06F05D
:1002100039FD08F059FAFFF7C1FF06F0EDFD00BF08
:100220000C02001064120010022801DC012070474B
:1002300006F0F6BFEFF3058303B100BE08F0CCBAB9
:10024000EFF3058303B100BE08F0CEBA08B5012074
:1002500006F0D2FD08B5FFF7F9FF00BF0020704798
:10026000A0F10400FAE700BF00207047A0F10400ED
:10027000FAE700BF30B4002100F524754FF0FF34D9
:100280000022002380F85012C0F84C12C0F854121B
:10029000C0F85812C0F88C12C5E90023C0F8984283
:1002A00080F89C1280F89D1280F85C1230BC704778
:1002B000704700BF30B4D0F898429DF80850013420
:1002C00002D0002030BC7047082AFAD1062BF8D1A2
:1002D000502DF6D1C0F898120120F3E790F89D3226
:1002E00010B5044623B104F52474D4E9000110BD0F
:1002F0000368DB68984794F89D32002BF3D1002007
:10030000002110BDA0F10400FFF7E8BF10B50B46B7
:1003100082B04968024618686B4603C30B46D9078A
:1003200007D55B10D4580099D0186158884702B09F
:1003300010BD02EB63000099884702B010BD00BFFA
:1003400010B5064B044603F108023C33226040F826
:10035000043F02F0E9FB204610BD00BFC0AF000023
:10036000A0F10400FFF7ECBF10B5074B044603F102
:1003700008023C33226040F8043F02F0D5FB2046DF
:1003800007F080FE204610BDC0AF0000A0F10400C1
:10039000EAE700BFD0F89832994201D000207047B8
:1003A000022AFBD190F85C320133DBB2022B80F8D9
:1003B0005C3201D001207047012380F89C3218463E
:1003C000704700BF164B70B5044640F8043B02F07E
:1003D00077FC144B04F5247603F108023C3384E8DF
:1003E0000C0000F05BFE002100220023C4F848024C
:1003F0004FF0FF3584F85012C4F84C12C4F8541270
:10040000C4F85812C4F88C12C6E9002384F85C12B0
:10041000204684F89C1284F89D12C4F8985270BD4E
:10042000A8AF0000C0AF000090F85002704700BFB6
:100430002DE9F04390F8507287B006469FBB3C46CA
:10044000E1B2D6F8480200F05DFF013401463246C1
:10045000C6F84C0250B1D6F8480201F077FD0546C7
:1004600030B996F89C82B8F1000F20D1052CE7D165
:10047000002306F52471002400254FF0FF3286F892
:100480005032C6F84C32C6F85432C6F85832C6F864
:100490008C32C1E9004586F89C3286F89D3286F898
:1004A0005C32C6F89822384607B0BDE8F0830222D5
:1004B00096F898121346D6F84C02009500F0FEFB11
:1004C000D6F84C32C6F8540296F8981218460095A1
:1004D0000123022200F0F2FBD6F85432C6F858028B
:1004E000002BC3D00028C1D0D6F84C22D6F89812E1
:1004F000B2F80001B2F8FE308DE8050002915122F9
:100500001D491E4808F090FE96F898321C49C3EB2E
:10051000031308689A00D6F84C3238329850D6F84F
:100520004872D6F84C4238462146D6F8989200F0E8
:10053000F1FF431C1BD0D6B15FFA89F3C3EB031262
:1005400004EB820407EB80000E4A03440E4F03F5D0
:100550000151012004F118030492059504AA81F8C1
:10056000290003CA9E60D8601961DF615D600123C4
:10057000474686F8503296E78CB0000040B0000045
:10058000CCB00000750200000D03000030B5042956
:1005900085B0144603D099B9002005B030BDD0F81D
:1005A000485292F828200023D0F84C120192009370
:1005B0000293039328460222012301F0BDFA10B1F1
:1005C0004FF0FF30E9E7102384F82530E4E700BF5F
:1005D0002DE9F04F044685B094F85C626D4DDDF86E
:1005E0003CB04320C0B2354304F51B7A0026884650
:1005F000C4F86002914684F86B22C4F85C5284F817
:10060000646284F86A62314684F869325046C4F8FC
:1006100065B210221F460E9E08F0F7F8B8F1000FE1
:1006200004D050464A46414608F0E6F81F2301250B
:10063000D4F84C12D4F85822D4F848028DE8280097
:1006400004F25D2301F014F9D4F858220146204643
:10065000FFF79CFF002878D126B1002F61D0802FB2
:1006600000F082800D2300250127D4F84C12D4F825
:100670005422D4F84802C4F87C528DE8880004F56E
:100680001F7301F005F9D4F8542201462046FFF704
:100690007DFF0646002858D13F4AD4F87C32934269
:1006A00053D194F88852012D54D0022D03D02846FE
:1006B00005B0BDE8F08F98F80030032BF7D0D4F8E0
:1006C0009832D4F84C12D4F84802212201930096B3
:1006D000FF230296039601F02FFAD4F854320096C5
:1006E00093F82830D4F84C12D4F848022A460193E3
:1006F00002963B46039601F01FFAD4F85832009652
:1007000093F828E0D4F84802D4F84C122A463B4625
:10071000CDF804E00296039601F00EFA94F88852A0
:10072000C5E7D4F84C12D4F85822D4F8480233461E
:10073000CDF800B0019501F09BF8D4F8582201469D
:100740002046FFF723FF00288CD04FF0FF3005B084
:10075000BDE8F08F98F80030032BA8D0204605B0F4
:10076000BDE8F04F00F078B8D4F84C12D4F8542219
:10077000D4F848023346CDF800B0019501F088F86E
:10078000D4F8542201462046FFF700FF00283FF42A
:1007900069AFDAE70055534255534253F0B58DB077
:1007A00007AA082300248DE80C00252509A90A22A0
:1007B00080238DF824508DF825408DF826408DF843
:1007C00027408DF828408DF829408DF82A408DF873
:1007D0002B408DF82C408DF82D400746FFF7F8FE92
:1007E000064688BB9DF81D209DF821109DF81C0031
:1007F0009DF820309DF81F509DF8234012040904F5
:1008000042EA006241EA03619DF81E009DF8223031
:100810002A43214342EA002241EA032181FB0245A7
:10082000D7F84C02D31707F5247ECDE90023CEE993
:10083000002302910346C7F88C120548CDE9044510
:1008400004498B2208F0F0FC30460DB0F0BD00BF2B
:10085000D0B000008CB0000030B50A4B8BB005461C
:1008600018689C8805AA12238DE80C00039003A940
:10087000284606228023ADF81040FFF7A9FE0BB0F2
:1008800030BD00BFB8AF0000F0B5242493B0002500
:100890000DEB040349010295AA420CBF0F4641F03B
:1008A000010701948DF80A200093122602A906225E
:1008B0008023ADF80C508DF808608DF80C408DF851
:1008C00009700646FFF784FE044650BB04AD0BAA30
:1008D00092E80300D6F84C32A422009585E8030084
:1008E000114912488DF8184008F09EFCD6F84C7259
:1008F0000DAA00950FCA85E80F003B460A49A822B9
:100900000B488DF8204008F08FFCD6F84C32119E31
:10091000009508480449AC228DF81440049608F06C
:1009200083FC204613B0F0BD8CB0000028B100005D
:100930005CB1000090B100002DE9F04186B000915B
:10094000D0F88C121E4601FB03F10C9B0025802B76
:100950004FEA126C4FEA124E1446019114BF4FF049
:100960002A084FF02808170A03A90A2203950495BC
:10097000ADF814508DF80C808DF814608DF811408E
:100980008DF80EC08DF80FE08DF81070FFF720FE87
:1009900006B0BDE8F08100BF2DE9F04790F89D72E8
:1009A00082B08146884614461D469DF8286057B39C
:1009B000F6B236194FF0000747EB0507BD4208BFF6
:1009C000B44238BF4FF0000A04D318E0BD4208BF5C
:1009D000B44214D241462246CDF800A00134484624
:1009E0004FF0010345F10005FFF7A6FF08F5007879
:1009F0000028EBD04FF0FF3002B0BDE8F0870020B8
:100A000002B0BDE8F0870368DB68984799F89D322B
:100A1000002BCDD1EEE700BFA0F10400FFF7BCBF73
:100A20002DE9F04790F89D7282B0814688461446C1
:100A30001D469DF8286057B3F6B236194FF00007EF
:100A400047EB0507BD4208BFB44238BF4FF0800AEC
:100A500004D318E0BD4208BFB44214D24146224636
:100A6000CDF800A0013448464FF0010345F10005E0
:100A7000FFF762FF08F500780028EBD04FF0FF3059
:100A800002B0BDE8F087002002B0BDE8F08703683F
:100A9000DB68984799F89D32002BCDD1EEE700BF77
:100AA000A0F10400FFF7BCBF30B5034687B0D3F810
:100AB0004C12D3F89832002505AC0122D0F8480238
:100AC0000193039200950294A122FE2300F0C6FF39
:100AD00007B030BD70B582B00646FFF7E5FF0A24C7
:100AE0000025642005F0EEFF0095019530460021B9
:100AF00006228023FFF76CFD013CA4B238B1002C24
:100B0000EFD14FF0FF3086F89D4202B070BD014634
:100B100002463046FFF7B8FE0123304686F89D3284
:100B200002B0BDE87040FFF739BE00BFA0F104007D
:100B3000FFF7D0BF2DE9F0410823002780F80871A6
:100B40000646C0F8F83080F8FC7080F8FD70A0F818
:100B5000FE70A0F8007180F8097180F8077180F8C4
:100B6000037180F8047180F8057180F8067100F156
:100B70000C0400F1FC083C22201F002107F045FE78
:100B800004F12C0504F8047C04F10C0C224642F814
:100B9000047F084B624503CB4FF000032860696077
:100BA000F5D13C344445E6D186F8093173603360B1
:100BB000BDE8F081C4B1000070B5054600F11C0429
:100BC00000F58676204600213C3406F0DDF9B4427B
:100BD000F8D12846FFF7AEFF284670BD032908D894
:100BE000C1EB0111890043181B7A23B10831084475
:100BF0007047002070471846704700BF70B4032943
:100C00009DF80C600DD8C1EB011100EB81010D7A4C
:100C10003DB901208A72CB720E734D72087270BC9E
:100C20007047002070BC70470329F0B415D80D013F
:100C30006C1A00EB8404237A7BB1677A022F0CD8FC
:100C4000D4F810C001376772BCF1000F0BD0666991
:100C50003EB1A4694FF0020C2CB100231846F0BC41
:100C600070474FF0010C691A8C440CF1040C40F8E9
:100C70002C20F3E7F8B504460D4616461F46FFF74D
:100C800059FF84F8FC5084F8FD6084F80671F8BDC3
:100C900010B504461C3006F07DF904F1580006F04A
:100CA00079F904F1940006F075F904F1D00006F02A
:100CB00071F92046BDE81040FFF73CBF70B403292E
:100CC0009DF80C6010D8C1EB0111890001F10C04F2
:100CD00000F118050444294454F8040F90F82450F6
:100CE000954204D08C42F7D1002070BC704790F838
:100CF00026509D42F6D1751E002EF6D0EEB2F1E7D9
:100D0000032908D8022A06D8C1EB01110A4404328B
:100D100050F8220070470020704700BF2DE9F84FBF
:100D2000DDF8288000F5D95481469B46CFB25FFAA2
:100D300082FA0C34002594F8F860BE421BD00135CD
:100D4000052D04F58674F6D142F2501459F80400CA
:100D5000002105F021F80123077280F809A080F82E
:100D60000AB0C0F80C800370014659F80400BDE8D1
:100D7000F84F05F033B894F8F9305345DFD1B8F1A6
:100D8000000F02D021688845D9D109EB050303F58E
:100D900002539B78002BD7D0BDE8F88F2DE9F047A0
:100DA00000F5D95481469846CFB25FFA82FA0C34E6
:100DB000002594F8F860BE4206D00135052D04F5F3
:100DC0008674F6D1BDE8F08794F8F9305345F4D134
:100DD000B8F1000F02D021688845EED109EB050378
:100DE00003F5015320331B790BB9BDE8F08742F2BC
:100DF000501459F80400002104F0CEFF02230772BA
:100E000080F809A0C0F80C800370014659F804006E
:100E1000BDE8F04704F0E2BF2DE9F04182B0019156
:100E2000019B002B42D00023019CA2680192A26882
:100E3000A360019A2346002AF6D1002C36D000F593
:100E4000055808F11008A6682369ABB12569236825
:100E50001B0F14D027683F0F2846214601F024FCC1
:100E600095F824309BB93946284601F0F3FB6868B1
:100E70000121002204F062FEC6B13446E3E7636854
:100E8000BBB162686B6B1027D31A2B63E4E7D8F809
:100E90000000002104F080FF04234460C772037047
:100EA0000146D8F8000004F099FFDCE702B0BDE885
:100EB000F0811027D0E700BF2DE9F04F83B08346C3
:100EC00001F012FC724BD84648F8C83B0BF5D859D4
:100ED000444609F108090BF1CC074FF0000A0CE079
:100EE00004F13800002106F04FF80F23C4F854A095
:100EF00084F8253070344C4518D004F110050021D9
:100F00001422C8EB0406284607F07FFCF3190122DF
:100F10009D605A6004F10800002104F0F5FDF051D5
:100F20000028DDD15B4805F055FFD9E70BF5D95610
:100F30000836344606F23C55204604F58674FFF721
:100F40003BFEAC42F8D10BF5025808F108084046C8
:100F50000BF5035701F000F938464FF0000A0BF586
:100F6000055401F0F9F84FF440630BF5045004F117
:100F700020098DE80804484953465A46043005F0D4
:100F800075FD04F1580548465146382207F03DFCEE
:100F9000C4F8049128465146AC2207F036FC0A22D8
:100FA00004F5827110236261C4F80851E161A36104
:100FB000514604F1140004F0D5FE42F250134BF8F0
:100FC00003000BF509500C3005F00CFD0BF5095032
:100FD000203005F007FD41F6143441F6103241F699
:100FE0000C3C41F6183E41F61C300BF5D95141F648
:100FF00024330BF5E1594BF80CA055464BF802A0F1
:1010000009F114094BF804A052464BF80EA05C46B7
:101010004BF800A0C1F800A0ABF8C4A00BF803A0E7
:101020000BEB050C0CF50153013504F5015E9A46F6
:101030000CF5025C052D83F8242004F1040486F8E5
:1010400002518AF83D204FF000068CF802208EF8FD
:1010500029208EF82A208EF82B208EF82C2003D001
:101060004E4609F58679DBE74046594601F08CF893
:1010700042F2F80338460BF80360594601F084F851
:1010800042F2F90358460BF8036003B0BDE8F08F55
:10109000D8B10000E8B10000251F000038B5084CA9
:1010A000206800B138BD42F2144006F0F1FF054659
:1010B000FFF702FF2846256001F042FB206838BD9B
:1010C0004002001041F610332DE9F041C5580646A4
:1010D00045B1A94203D114E0A14213D025466C6D5D
:1010E000002CF9D141F61433F558F5B1A94203D1DA
:1010F00007E0A14206D025466C6D002CF9D1BDE871
:10110000F0812C46676D2846394687B141F6103587
:1011100001F0E2FA73599C4229D041F61435735913
:101120009C421CD00F2384F82530BDE8F08141F6A5
:10113000103801F0D1FA56F808309C422BD041F615
:10114000143856F808309C421DD094F82430022BF5
:1011500015D0032BE6D106F5D9563560E2E7636D6D
:101160003046996D01F094FB636D7351DAE7636D5E
:101170003046996D01F080FB636D7351D2E741F603
:101180001C33F550CEE73946304601F081FB636DE4
:1011900046F80830D9E73946304601F06DFB636DFB
:1011A00046F80830D1E700BF2DE9F04F91F8033140
:1011B00085B0092B0E46054615D0706810B1314632
:1011C00000F0EAFF05F5D95308334FF0000B9E42BB
:1011D00003F586731ED00BF1010BBBF1050FF6D1A1
:1011E00005B0BDE8F08F086800287CD000F0DCFF77
:1011F00005F50253326808339A427BD005F5035354
:101200009A4208BF0123D8D12B4442F2F8020021B0
:101210009954D2E705EB0B0303F5015100220B466D
:1012200081F82420904605EB8B0B83F83D2006F1D6
:1012300038090BEB080303F501535FFA88F74FF009
:10124000000283F8292039463046FFF7C7FC002802
:101250003CD0002423E039463046FFF751FD82465A
:1012600001462846BAF1000F18D0DAF85820136862
:10127000D2F800C043F480431360FFF723FF2846F1
:10128000DAF85C1001F08AFB2846DAF8601001F009
:1012900085FB2846DAF8581001F078FB0134304617
:1012A0003946FFF79BFC4378E2B29C42D3DB96F8C9
:1012B000FC2096F8FD30104801920293CDF8009082
:1012C0000E4940F2BD12334607F0AEFF08F10108A7
:1012D000B8F1040F09F13C09ABD1304605B0BDE8C7
:1012E000F04FFFF7D5BC05494FF4CA72044807F028
:1012F0009BFF62E7002387E770B2000034B2000072
:1013000010B2000004290DD8431803F5015320330F
:101310001B794BB14FF4867303FB010000F5D950E4
:101320000830704700207047184670472DE9F04F8D
:1013300089B005930746894690469DF848B001F06C
:10134000F3FA8246384601F007FB0690384601F072
:1013500003FB002107902022069807F056FA079811
:101360000021202207F051FAC8370024059B02E033
:10137000B4F5D25F13D03D1995F8256070340F2E67
:10138000F6D106A88DE808080290514628464A463C
:10139000434601F0BFF8284609B0BDE8F08F054983
:1013A00040F21522044807F03FFF0025284609B007
:1013B000BDE8F08F34B20000B8B2000030B500F5DF
:1013C000D95383B0054608330024994203F5867348
:1013D00005D00134052CF8D1122003B030BD6420B3
:1013E000019105F06FFB019991F8FC3073B9284623
:1013F00001F0DCFA642005F065FB2C4404F501548F
:101400000123002084F83D3003B030BD486891F8D6
:10141000FD1001F04DF8EDE72DE9F0411C460646C0
:1014200017460D4693B1184600294CD091F8021189
:1014300001F0DAF895F806315BB994F8243084F8B5
:101440006C70022B0FD0032B23D073B30020BDE8A8
:10145000F0812046012101F0D5F894F8243084F879
:101460006C70022BEFD1304601F0FCF970B341F6FD
:101470001C3856F80800214601F02EF946F80840BD
:101480002560284639462246FFF7CEFB0120BDE8FD
:10149000F081304601F0ECF918B306F5D956306802
:1014A000214601F019F93460EAE7304601F0D4F939
:1014B00010B341F618357059214601F00DF97451F9
:1014C0000120BDE8F08101F08FF8B6E73046A16D4C
:1014D00001F0D2F941F6103241F61C33B450F45009
:1014E000CEE73046A16D01F0D3F941F6143206F58E
:1014F000D953B4501C60C3E73046A16D01F0C2F966
:1015000041F60C3241F61833B4500120F450BDE8D6
:10151000F08100BF00F5D95008300023814200F56A
:10152000867005D00133052BF8D14FF0FF3070479E
:10153000184670472DE9F04700F5095620360D464C
:1015400080464FF0FF31304691469A4605F06AFAE0
:101550006C6E002C35D095F8273013B395F82470B5
:101560001C4A1D4B002F08BF134622680AF1FF3AA0
:101570002360636809EB0A03C4F80490E268394603
:10158000E360404601F0A6F9284601F077F84046AE
:10159000394601F081F9304605F048FA1120BDE8DE
:1015A000F08795F8263095F82470022B0CBF4FF485
:1015B00080134FF400233FB943F0734343F4802377
:1015C000D3E71220BDE8F08743F0704343F4802353
:1015D000CBE700BF000004F2000004F02DE9F04F5B
:1015E00089B098460590049115464BB34FF0000B17
:1015F000D946CDF818B05C46CDF81CB02F197B78D1
:101600002E5D023B1F2B18D8DFE803F040171D4565
:10161000171717171717171717171717171717175A
:101620001717171717171717171717103A7AFB7985
:1016300043EA0223059AA2F8C4303444A045DDD819
:1016400009B0BDE8F08F129AE71D15F807E01068A1
:10165000631D04F1020904F1060AEA5C039315F81C
:10166000091015F80A30CDF800E0D0F804C012983F
:10167000E04700284CD00BF1010CBBF1040F5FFADE
:101680008CFC47D9E3464FF00109D6E72B79049A41
:1016900082F80931D1E7B9F1000FCED0BBF1040FC8
:1016A000CBD8069A022AC8DCA31C1298039304F133
:1016B000030AEB5C016815F80A20DB11D1F808C0B9
:1016C000013302F003020799E0470028B5D015F86E
:1016D0000A1001F003010129AFD0039A7B79A85CBD
:1016E0003F79C21100F00F000090013247EA032356
:1016F0000598FFF71BFE38B1049B2BB103460499F4
:101700000598079AFFF788FE06980130069094E73F
:10171000814692E715F80990039BE95DEA5C04981D
:1017200015F80A3000914946CDF81C90E346FFF7C2
:1017300065FA00204FF0010906907EE72DE9F04F91
:1017400000F5095589B09DF854800C3506460F46C2
:1017500028464FF0FF3114469A469DF84CB09DF84C
:10176000509005F05FF9B8F1000F0CBF0222012282
:10177000002F33D0002C50D094F82530102B14D1EA
:1017800094F82630934231D02268234600923248A2
:10179000324940F2FD3207F047FD1224284605F099
:1017A00045F9204609B0BDE8F08F94F86C30266802
:1017B000C3EB0313204606EB830700F055FF3837D1
:1017C0000290234601970096254824494FF47E72E3
:1017D00007F02AFD94F82540E4B2DFE721481F49CD
:1017E00040F2EE3207F020FD1224D7E794F82430BF
:1017F0004B45C9D1A36D97F802211B6803F07F0305
:101800009A4212D02268234600921748134940F2A8
:10181000024207F009FD1224C0E714480F4940F2C4
:10182000F33207F001FD1224B8E730465246214654
:10183000129BFFF77FFEBBF1000F01D11124ADE732
:10184000616805A84FF0FF3204F09EF994F8254036
:10185000102C08BF0024A1E7B8B3000034B2000088
:1018600028B30000F0B2000064B300000CB3000025
:10187000F0B585B00A9C9DF82C70022601258DE8F4
:10188000900002960395FFF759FF05B0F0BD00BF29
:10189000F0B585B00A9C9DF82C70022600258DE8D5
:1018A000900002960395FFF749FF05B0F0BD00BF19
:1018B000F0B585B00A9C9DF82C70032600258DE8B4
:1018C000900002960395FFF739FF05B0F0BD00BF09
:1018D0002DE9F04F00F5095487B00C3492469DF87D
:1018E000502083460D4641F608364FF0FF31204622
:1018F00099460192DDF84080139F05F093F85BF85C
:10190000060095F8061100F07DFE5BF80600D5F89C
:10191000F81000F05BFE95F807315BF8060003F065
:10192000FF01002B51D095F8021100F05DFE41F649
:10193000083542F2FA0142F2FB025BF80500C8F3F7
:10194000072E0BF801A042F2FC030BF8029042F2C2
:10195000FD06119A0BF803800BF806E0DDF844E071
:1019600042F2011342F2FE01C2F307293E1242F293
:10197000FF020BF504580BF801E00BF80290002170
:1019800088F800700BF8036000F048FE0BF5035276
:101990005BF805103A3208235846FFF7CBFD5BF899
:1019A000053003A859684FF0FF3204F0EDF85BF8FA
:1019B000053093F82560F6B2102E09D0204605F0C8
:1019C00035F8304607B0BDE8F08F00F00DFEAEE709
:1019D00007B3019B5BF80500002B0CBF4FF480118F
:1019E0004FF4002100F01AFE5BF805103B46129AF6
:1019F0005846FFF79FFD5BF8053003A859684FF084
:101A0000FF3204F0C1F85BF8053093F82560F6B2B8
:101A1000102ED3D1019A41F60835002A14BF4FF495
:101A200080114FF400215BF8050000F0F7FD002263
:101A300013465BF805105846FFF77CFD5BF8053050
:101A400003A859684FF0FF3204F09EF85BF80530A8
:101A500093F82560102E08BF0026AFE7F0B587B0D9
:101A60000E9D0C9F0D9E02950F9D002400970196E0
:101A700003950494FFF72CFF07B0F0BDF0B5112BD0
:101A800087B094BF1F4612271C464FF48076002370
:101A90000C9D0292019304930397009680220623E3
:101AA000FFF716FF1DB1122C28BF12242C8007B09F
:101AB000F0BD00BF2DE9F043144687B000224FF47B
:101AC00000760925009601920492039502949846A7
:101AD0008022062381460F460E9EFFF7F9FE05463B
:101AE000D8B9E278A37843EA0223434528BF4346A6
:101AF00006B1338000224FF40075039300950192E4
:101B0000049202944846394680220623FFF7E0FEFD
:101B10000546284607B0BDE8F083054940F2023289
:101B2000044807F081FB284607B0BDE8F08300BFFA
:101B300034B2000000B40000F0B587B00E9D0C9FD9
:101B40000D9E02950F9D0124009701960395049424
:101B5000FFF7BEFE07B0F0BD10B5002386B001242C
:101B60008DE80C00029303931A4604940523FFF7B3
:101B7000AFFE06B010BD00BF2DE9F04F00F50952D1
:101B800095B0069200F502530C93069B00F5D852CF
:101B900008920C330693089B00F5D952079208333C
:101BA00004320B9208930C9A079B00F505580832F3
:101BB0000833054608F110080C92079311A8D8F8CD
:101BC00000104FF0FF3204F013F9119B202BF5D1D8
:101BD000129F3C78022C09D0042C70D0012C52D0DA
:101BE0003946D8F8000004F0E9F8E7E74FF0FF3194
:101BF000069804F017FF0021284600F06BFE2146EE
:101C00000646284600F066FE03210446284600F0FA
:101C100061FE97F808E0814697F809C0F8680799CF
:101C2000052391F8FC2072451FD0013B01F5867118
:101C3000F7D19EB934B9B9F1000F0AD1069804F072
:101C4000F5FECDE72846022100F026FEB9F1000F8F
:101C5000F4D02846032100F01FFEEFE728460021BC
:101C600000F01AFE002CE6D0ECE791F8FD2062456A
:101C7000DBD110B14A689042D7D12846FFF794FAD9
:101C8000002ED7D0EAE74FF0000906984FF0FF3159
:101C90008DF8409004F0C6FE05EB090B0BF50153DF
:101CA00093F82460002E42D009F10109B9F1050F23
:101CB000F2D195496122954807F0B6FABEE7FB7A62
:101CC000D7F80490102BD9F8106000F0FF80079A25
:101CD00034680021944202F5867207D0013105294B
:101CE0003FF47EAF944202F58672F7D16B1803F58C
:101CF000015320331B79002B3FF472AF304600F0C4
:101D0000B3FC326800900292019696F86C104B4634
:101D1000C1EB011102EB8102383203927C487A490F
:101D2000ED2207F081FA102386F8253058E74FF4AA
:101D3000867404FB0954BB7A04F5D954003304F1CA
:101D4000080418BF01237A7A2046397AFEF792FFF9
:101D50000B9A0BF5015392F800A04FF0010C0BF514
:101D6000025283F83D6082F802C0BAF1000F16D12A
:101D7000624651460823CDF800A02846CDF814C08D
:101D8000FFF7D4FA089B514618601B685246284654
:101D9000FFF742FBDDF814C00B9B83F800C0FB6823
:101DA00003B163604FF00A0A08E05A48564907F049
:101DB0003BFA0AF1FF3A1AF0FF0A31D021462846D1
:101DC000FFF7FCFA0826002284F80721C4F8F8601F
:101DD0002146009233460FAA2846FFF74FFE2146C0
:101DE0007F220028E1D19DF8433094F80221C4F805
:101DF000F8302846FFF7B0FE86464FF0010C21462A
:101E00000FAA33462846BEF1000F26D042483E496D
:101E10008A220AF1FF3A07F007FA1AF0FF0ACDD139
:101E20003B7A3E4800937B7A374901939B222346B5
:101E300007F0FAF99DF84030092B1AD00026F8680F
:101E400010B1214600F0A2F9002E7FF4F7AE0BF599
:101E5000015B01238BF82430F0E684F807C1CDF84C
:101E600000E0FFF70BFE0028DAD0642004F02AFE21
:101E70009FE70023DDF830A00997CDF834901F4686
:101E8000CDF8288005EB070909F503563836327876
:101E90006AB94FF003085046214600F0A7F908F14F
:101EA000FF38C0B918F0FF08F5D1327842BB0137CE
:101EB000022F0AF1380AE5D119481349AE22099FC9
:101EC000DDF82880012607F0AFF9B8E706F1380001
:101ED00005F060F884E64946DDF834904FF48673E7
:101EE00003FB095301F5035103F5D9530122C3F84C
:101EF00008A0099FDDF82880002681F838209EE799
:101F0000099FDDF8288099E734B2000024B500006D
:101F1000CCB400002CB4000064B4000088B400000D
:101F200054B5000008B5FFF727FE00BF10B5002329
:101F300086B001248DE80C00029303931A460494A2
:101F40000923FFF7C5FC06B010BD00BF2DE9F04323
:101F500000F5095808F10C0885B0064600240D4626
:101F600040464FF0FF311746ADF80E4004F05AFDE1
:101F700006F5D9522346083240F23C50D1188D4222
:101F800003F5867309D08342F8D11224404604F049
:101F90004DFD204605B0BDE8F083134600249D4268
:101FA00003F5867311D00134052CF8D106F50959D3
:101FB000002309F1340900934A463046294612238A
:101FC000FFF75CFDD0B10446E0E706F5015204F6E8
:101FD0001A032C3202EB840406EB8303002113F86E
:101FE000012F481C02B1C1B2A342F8D10029DDD0B3
:101FF00095F809318B42D9D10024C7E742F2782302
:10200000F25C42F2792385F80321F25C42F27A23F2
:1020100085F80421F35C42F27D2185F8053142F216
:102020007C20745C335C42F27F2243EA0423A5F8EF
:10203000FE3042F27E2316F802C016F803E03C6838
:102040004EEA0C2EA5F800E116F801E0F35C315CD5
:10205000B25C41EA0E2143EA0222384623689847DF
:102060000DF10E030093304629464A4640F29F1375
:10207000FFF720FD0028A6D1BDF80E3000974A4694
:1020800030462946FFF7AAFA95F8083133B93046A9
:1020900029460122FFF74AFF002894D1012385F841
:1020A0000831404604F0C2FC642004F00BFD00241B
:1020B0006FE700BF00234FF0FF32026203738360BB
:1020C000036180F82430037543758362C362036340
:1020D00043637047704700BF30B4046A9DF80850EE
:1020E000013402D0002030BC7047092AFAD1002BFD
:1020F000F8D115B901620120F5E71846F3E700BFF2
:1021000010B4046AA14203D000205DF8044B70476C
:10211000032AF9D1022BF7D1012380F82430184685
:10212000F3E700BF10B50B4682B049680246186855
:102130006B4603C30B46D90707D55B10D4580099EB
:10214000D0186158884702B010BD02EB63000099B7
:10215000884702B010BD00BF10B40A4C00224FF0F7
:10216000FF3104600162426002738260026180F8A4
:102170002420027542758262C262026342635DF886
:10218000044B704790B500004160704791F8FD30F6
:10219000093340F82310704791F8FD3000220933CD
:1021A00040F82320704700BF70B50546044600F193
:1021B0001006A36A0434194613B16868FEF7F4FFE9
:1021C000B442F6D170BD00BF10B503469C6884B020
:1021D000002340688DE806000293039321462322E2
:1021E0000323FFF7A9FC04B010BD00BF2DE9F043A5
:1021F000057B89B004460E461DB1284609B0BDE8EE
:10220000F08340682246FFF7A1FE0746002840F011
:102210008A8094F82480B8F1000FEED094F8201052
:10222000A6603046009503220223FEF747FD206199
:10223000002878D0B6F80011226AB6F8FE3045487A
:102240008DE8420002924449672206F0EDFF94F8BF
:102250002030424AC3EB0313106806EB83039863F4
:10226000656831462846D4F82090FFF753F9431C9F
:102270006BD024B305EB80005FFA89F3384DC3EBD4
:102280000312034406EB820203F501510120049579
:10229000059704AB334D81F8290003CB506291625E
:1022A000236914625563D7612F4A00210692079172
:1022B00006AA9963DC6303CA1D65186459644FF468
:1022C000245100220A2304F1160760688DE8860075
:1022D0000393A02206233146FFF7C0FB237E627ED4
:1022E0002375627501254BB12A4620460821FFF768
:1022F0006BFF0135227DEDB2AA42F5D2E07E4FF0B0
:10230000010900FA09F0002504F006FE6068226960
:10231000314601953B46CDF80090FFF7C9FA454696
:1023200084F80C9069E74FF0FF3328462573A560C9
:10233000256184F8245025756575A562E5622563DD
:102340006563236209B0BDE8F0832369002CB6D031
:10235000044DA9E7A0B50000E4B5000024B60000D4
:10236000B520000025210000B923000010B5034668
:102370009C6884B0002340688DE8060002930393B4
:10238000214623220123FFF7D7FB04B010BD00BF75
:1023900030B5034687B09D6805AC00230422406831
:1023A00001910392294600930294A322FFF756FB62
:1023B000059807B030BD00BFF0B5026983B0044690
:1023C0006AB192F82530102B0BD0012600256068E9
:1023D000A16804F1160300960195FFF769FA03B0AE
:1023E000F0BD037D002BF0D0012607E0AA032BD41B
:1023F0002B0730D4237D0136B34246DBF7B2394692
:102400002046FFF7C5FF0546E80314D515F0010384
:1024100060683CD0A368026893F8FC100094D2F87E
:1024200000C001313246C5F34023E0472046102169
:102430003A46FFF79BFFE902D8D53A4620461421D9
:10244000FFF794FFAA03D3D5204611213A46FFF7A0
:102450008DFF2B07CED51449D222144806F0E4FE96
:1024600020463A460821FFF781FFA368606893F889
:10247000FC10026800230093556823463246013160
:10248000A847237D0136B342B8DA22699DE7A168E7
:10249000026891F8FC100093D2F804C00131324672
:1024A0002346E047C2E700BFE4B5000028B60000BD
:1024B000F0B50A460C4683B004210546FFF784FEBA
:1024C00004E003070BD40A2004F0FCFA2846214656
:1024D000FFF75EFF10F01206F3D003B0F0BD0B491A
:1024E000E6220B4806F0A0FE284622460821FFF708
:1024F0003DFFAB68686893F8FC10076800962246B9
:1025000001317C682B46A04703B0F0BDE4B5000064
:1025100028B600002DE9F8430446D2F101000A9ED6
:1025200038BF0020A16584F8270084F8242084F8AF
:102530002630736832682366E26530680021202205
:102540009DF8248006F061F970680021202206F0D1
:102550005CF9E16D206E0B69A36D0C61026994F862
:102560002670046100221E681A605D6808F07F060C
:10257000596094F8245007F1FF38D3F8089046EAE0
:10258000C8189960D3F80C90F601DA6084F82880B6
:10259000CDB14FEAC72C089A4CEA060CC2F30905E4
:1025A0004CEA054500221E684FF010081D6084F8B3
:1025B0006C206166A066E26222636263626584F8F1
:1025C0002580BDE8F883AC46E5E700BF836D1A6857
:1025D000186822F07F7222F440321A601A68186874
:1025E00042EA014119607047836D01F07F011A686A
:1025F000186822F07F021A601A681868114319607F
:10260000704700BF836D1A68186822F400521A6080
:102610001A68186842EA413119607047B1F5002F15
:1026200011D0B1F5801F07D001B17047012380F8A8
:10263000263080F8273070470222002380F82620B9
:1026400080F8273070470122002380F8262080F888
:1026500027307047122904D8024B13F8313080F824
:102660002530704710B8000090F82520024B03EB8E
:10267000C2035868704700BF10B8000030B4436E02
:102680001125DA6859680132521AC26202635C6825
:10269000816E80F82550826D446398689960536814
:1026A00030BC5160704700BF30B400230A680B6033
:1026B0004A684B60CA68826DCB608C688B605568D5
:1026C0009468836E04F002042C439568946043661A
:1026D000816630BC704700BF4165836D01B1896D73
:1026E000DA68D960704700BF38B5124B124A044609
:1026F00003F5986103F58070104D84E80C00A0602C
:10270000E160184600214FF480722C6006F07DF8DD
:1027100000231946E21801333C2B1174FAD100232F
:102720001946E2180133782B82F84C10F9D1204673
:1027300038BD00BF00000820B0B8000044020010FF
:102740003E4B2DE9F0414FF080723D4CC3F88020A4
:10275000D4F8C43082B023F00043C4F8C430064635
:10276000642004F0D9FBD4F8C420364B42F0004278
:10277000C4F8C420D3F8F41F1A4641F01901C3F875
:10278000F41FD2F8F83F2F4C03F01903192BF8D19E
:10279000D4F810212C4B42F00102C4F81021D4F8D7
:1027A000F42F002522F00802C4F8F42F5A686420A0
:1027B00022F070525A605A684FF0010842F0A0525D
:1027C0005A6065602562A56204F0A6FB1F4A42F6C6
:1027D0002F23C4F80880626323646268736822F060
:1027E000C00242F080024FF4803762602765A36127
:1027F000E268E168164B0A43E2601649236118203B
:1028000004F090FA0D4B4FF480114FF08072676521
:1028100061651A60636DDB070CD5962004F07CFBC4
:10282000636D306800950468C3F34023294642462F
:102830003046A04702B0BDE8F08100BF00E100E0F3
:1028400000C00F4000C0005000C00240DF2E7827BB
:1028500042000080CD2A0000014B186A704700BF7B
:1028600000C00050014B986A704700BF00C0005084
:1028700043681868704700BF014B9962704700BFFA
:1028800000C00050014B1962704700BF00C00050EB
:1028900043681A6819607047022911D0032909D0CA
:1028A00001B170470A4B02229A605A6842F0100246
:1028B0005A607047064B5A6842F004025A607047EB
:1028C000034B04229A605A6842F020025A60704713
:1028D00000C0005002291AD003290DD009B10020F0
:1028E0007047104B586810F01000F9D05A6801205A
:1028F00022F010025A6070470A4B586810F004002A
:10290000EED05A68012022F004025A607047054B4D
:10291000586810F02000E3D05A68012022F020020D
:102920005A60704700C0005008B5002302E0013330
:102930003C2B09D0C218117C0029F8D180680121F4
:1029400000EB0310117408BD024806F065FC00207E
:1029500008BD00BFC0B8000008B5002302E0013385
:10296000782B0BD0C21892F84C100029F7D1C06810
:10297000012100EB431082F84C1008BD024806F01C
:102980004BFC002008BD00BFD8B8000083680022BF
:10299000C91A00EB11100274704700BFC36800220F
:1029A000C91A00EB511080F84C20704705491023DC
:1029B0004B654B6D034ADB06FBD44FF48013536524
:1029C000704700BF00C000502DE9F0413E4C82B07E
:1029D000E368226905461A422BD0E36826691E4047
:1029E000700629D5636DD9030AD5216D11F400470E
:1029F00025D006F00206344B4FF480325A6501E0D0
:102A000006F00206304B5A6DD20244BF4FF48012DA
:102A10005A652D4B4022DA605EB16A682B68D2F8A5
:102A200084109B6821F0010128469847264B02221A
:102A3000DA6002B0BDE8F08106F00206ECE7636DF3
:102A400013F0010830D116F0020615D16B68C820CA
:102A5000D3F88420C3F8846004F05EFA95E80C0093
:102A6000D3F88430284623F001030093546831469C
:102A700001223346A047BEE7C82004F04DFA95E88E
:102A80000C00D3F88430414623F0010300935768CB
:102A9000434601222846B8476B680222D3F88410C7
:102AA000C3F88480E260A6E7962004F035FA2A682D
:102AB000636D00971468C3F340233946284601220A
:102AC00006F00206A04796E700C00050024B1868C7
:102AD00008B1FFF779BF704744020010002070472B
:102AE0000020704700207047014608B5103190F86B
:102AF000400201F091FA003018BF0120404208BDA9
:102B0000036810B59B6B04469847014640B994F89A
:102B1000400201F081FA003018BF0120404210BD90
:102B20004FF0FF3010BD00BF094B0A491A6810B5BD
:102B300082420446016004D0204604F001FA204697
:102B400010BD0022104611461A6001F065FAF3E745
:102B500048020010F8B8000010B50446FFF7E4FF83
:102B6000204605F08FFA204610BD00BF10B58AB090
:102B700001A801F003FE50B94FF4947005F088FAF3
:102B800001A9044602F0C8FB20460AB010BD00208F
:102B90000AB010BD08B5084601F0CAFE003018BFE3
:102BA0000120404208BD00BF08B500214FF400726B
:102BB00090F8400202F06AF8003018BF012040424D
:102BC00008BD00BF08B50846114601F0BBFF003044
:102BD00018BF0120404208BD08B5084601F03CFE80
:102BE000003018BF0120404208BD00BF30B5D0F80A
:102BF0004052ADF2A46D0B46144686A82A461F49E2
:102C000006F0A2FBA50730D414F0010F0CBF01227F
:102C10000222A00505D561054CBF42F0080242F032
:102C2000100286A996A801F007FA28BB23071ED434
:102C30000DF27C4496A94FF40972204605F0DCFDA4
:102C40004FF40A7005F024FA0DF5916105464FF432
:102C50000672684605F0D0FD94E80E00284602F0A2
:102C6000D1FB28460DF2A46D30BD0322D1E796A812
:102C7000999901F0BFFCDBE70020F3E738B90000C9
:102C800010B582B001A804F015F901A805F042FDC5
:102C9000C268816814040368426844EAC121446937
:102CA00041EA421203EBD373006942EA6302A4F1E2
:102CB000500342EA4363013043EA405002B010BD82
:102CC00038B504460D4604F053F9094B094A186813
:102CD000226028B12946084804F07CF8204638BD17
:102CE000C4F8400204F110011C6001F095F9F5E709
:102CF00048020010F8B8000040B900002DE9F0418A
:102D0000C56A04468D420E4602D0037973B916B9DE
:102D10000020BDE8F081607804F1300132460123E3
:102D200002F0DCFB20BBE662BDE8F08100F1300878
:102D3000414640782A46012302F0E2FBC0B9E3692C
:102D4000226A20711A449542E1D2E778012F01D816
:102D5000DDE7E3691D44013F2A46607841460123CF
:102D6000FFB202F0CDFB012FF3D1002ED0D0D2E77D
:102D70000120BDE8F08100BF08B503680BB11A78E7
:102D80000AB9092008BD8288D9889142F9D15878BA
:102D900002F098FB10F0010F0CBF0020032008BDCB
:102DA000F8B503690E4601F10905002B4DD04469C1
:102DB000002294F80CC00CF00807FFB2A35C0132AB
:102DC000202B0DD0052B08BFE523A3F141011FB136
:102DD00019299CBF2033DBB2082A05F8013BEDD14D
:102DE000237A202B1AD029460CF0100C2E235FFAE0
:102DF0008CFC01F8043B0135E21D12F8013F202B49
:102E0000A3F141070AD0BCF1000F03D0192F9CBFDA
:102E10002033DBB205F8013B8D42EED1E37A337209
:102E2000A37FE27F217F1B0443EA0263627F0B439F
:102E300043EA02233360627E237E43EA0223B380A7
:102E4000E27DA37D43EA0223F38000242C70B56960
:102E500035B1F36923B103691BB9002400232B5555
:102E6000F8BD028C4FF6FF739A42F6D0C7693888D6
:102E700060B9F2E7F369013B9C42EED201342B19B1
:102E800003F8010C37F814000028E7D0002102F005
:102E9000D1FA0028EED1E0E72DE9F84F00210546F0
:102EA000FFF72CFF034650B92B78032B0AD00021E3
:102EB00068780A4602F036FB031C18BF0123184647
:102EC000BDE8F88F6B79002BF1D005F13001E86295
:102ED0000B4605F50C7203F8010B93424FF000040A
:102EE000F9D12A69EB68C2F3072B4FEA124A4FEA7D
:102EF000134C4FEA136E52204FEA1269C3F30728AE
:102F000085F8182285F819B261224FF0410B85F837
:102F10001AA255274FF0720AAA2685F81C3285F8A6
:102F2000300085F8310085F8322085F8172285F8C1
:102F30001B9285F81D8285F81EC285F81FE285F870
:102F40002E7285F82F6285F833B085F816B285F8B1
:102F500014A285F815A268786A69012302F0D0FAF4
:102F60006C71A4E710B504460A46407804F13001BC
:102F7000012302F0B3FA08B1032010BD94F82F1218
:102F800094F82E22174B42EA012212B29A4201D043
:102F9000022010BD94F8683094F869201B0494F85E
:102FA000661043EA026394F867200B4343EA022267
:102FB0000D4B22F07F429A42EBD094F8842094F893
:102FC000850094F88210120442EA006294F88300AB
:102FD0000A4342EA002020F07F40C01A18BF0120B7
:102FE00010BD00BF55AAFFFF46415400F8B5036865
:102FF00015461C78303C092C02D85A783A2A13D04E
:1030000000230B60B14B1C68FCB10C6023789BB1B2
:10301000607802F057FAC2070ED4EDB110F0040F39
:103020000CBF00200A20F8BD0233002203600A60B2
:10303000002CE7D00B20F8BD00202070607002F05B
:1030400035FAC30703D50320F8BD0C20F8BD2DB118
:10305000470703D50A20F8BD2846F8BD20460021C1
:10306000FFF780FF012806D00025032800F0B0807C
:10307000C0B10D20F8BD94F8F231002BF9D094F8CE
:10308000F82194F8F91194F8F631120442EA016239
:1030900094F8F751134343EA052529462046FFF7E4
:1030A00061FFE2E794F83C2094F83B3043EA0223C6
:1030B000B3F5007FDDD194F8471094F8463053EA19
:1030C00001210DD194F8562094F85710120494F869
:1030D000543042EA016294F85510134343EA012147
:1030E00094F84000E161431E012BE070C1D894F8D0
:1030F0003D30A370002BBCD05A1E1A42B9D194F8AF
:10310000426094F8412042EA062216072281B0D19B
:1031100094F8447094F8436056EA07260ED194F868
:10312000527094F853C03F0494F8506047EA0C6C16
:1031300094F851704CEA060646EA072694F83FC018
:1031400094F83E7057EA0C2793D000FB01FC07EB84
:103150001210604486428CD3361AB6FBF3F3002B70
:1031600087D040F6F576B34240F2AD804FF6F57663
:10317000B34200F28D800226023328442F44A3611B
:10318000A0622762002A3FF474AF6744022E676290
:103190007CD003EB430203F0010303EB520301264F
:1031A00003F2FF13B1EB532FFFF463AF4FF0FF3285
:1031B0000023032E2261E3600CD0454A00201388CF
:1031C000267001339BB220711380E380E062F8BD6A
:1031D0000120F8BD94F8611094F86020637142EA10
:1031E00001222A446261607804F13001012302F077
:1031F00075F90028E1D194F82F1294F82E22354B5E
:1032000042EA012212B29A42D7D194F8322094F8BD
:10321000331094F83030120442EA016294F831100D
:103220001A432D4B42EA01229A42C6D194F8162243
:1032300094F8171294F81432120442EA016294F8D6
:1032400015121A43254B42EA01229A42B5D194F84D
:103250001E0294F81A1294F81F7294F81B5200047C
:10326000090494F81C2294F8183240EA076741EAEE
:10327000056594F81D0294F819123A432B4342EA6B
:10328000002243EA0123E260236196E75B0087E7BF
:10329000023328442F44A361A0622762002A7FF4EE
:1032A000E8AE94F85E0094F85F60000494F85C2047
:1032B00040EA066694F85D00324342EA00229B0031
:1032C000626203266CE7012656E700BF5002001039
:1032D0004C02001055AAFFFF5252614172724161C7
:1032E000F8B503780446022B0D4646D0032B28D0B0
:1032F000012B02D04FF0FF30F8BD016A05EB5506F7
:1033000001EB5621FFF7FAFC0028F3D1216AC6F33E
:1033100008030136234401EB5621204693F8307010
:10332000FFF7ECFC0028E5D1C6F30806344494F816
:10333000303047EA0320EB074CBF0009C0F30B0015
:10334000F8BD016A01EBD511FFF7D8FC0028D1D1F7
:10335000AD0005F4FE7505F130032344D878997863
:103360005A782C44000694F8303040EA014040EA94
:103370000220184320F07040F8BD016A01EB1521CE
:10338000FFF7BCFC0028B5D16D0005F4FF7563198B
:103390001C4694F8310093F8303043EA0020F8BD21
:1033A000836870B5012B04460D46E18003D00068A8
:1033B0008269934201D3022070BDB3B90378032B15
:1033C00010D003890022AB42E260F4D9436A03EBD8
:1033D0001513236105F00F05303000EB45106061D7
:1033E000002070BD436A002BEBD086783601B542D1
:1033F00019D3012BDFD9AD1B9A42ADB2DBD908E05E
:103400000128D8D9206882699A42D4D9AE420AD814
:103410000D461946FFF764FFA91B421C034689B2FB
:10342000EED1012070BD991E023A9142E3603BBF8C
:103430008278836A002102FB013101EB15112161C1
:10344000C8E700BFF8B503780446022B0D461646C0
:1034500059D0032B38D0012B03D002200123237134
:10346000F8BD016A05EB550701EB5721FFF746FC54
:103470000028F3D1C7F3080315F00105234456D003
:1034800093F83020F0B202F00F0242EA0010C0B20E
:10349000216A0137012283F8300001EB57212271A4
:1034A0002046FFF72BFC0028D8D1C7F30807002DD2
:1034B0003FD1274497F83030C6F3032623F00F039B
:1034C0001E4387F83060C9E7016A01EBD511FFF7A9
:1034D00015FC0028C2D1AD0005F4FE7505F13003DE
:1034E0002344DA782544120602F070421643C6F3EC
:1034F0000727310C320E85F830605F709970DA70F2
:1035000001232371F8BD016A01EB1521FFF7F6FBDA
:103510000028A3D16D0005F4FF756219C6F30723D7
:1035200082F83130012382F830602371F8BDF0B2A7
:10353000AEE7C6F307162744C3E700BFF8B5054654
:103540000F46F9B9C668836956B39E4228BF012663
:10355000344610E0012E25D9022B11D90224284629
:103560002146FFF7BDFE20B3411C1FD0012807D024
:10357000A64217D0AB6901349C42EBD2012CEED8A5
:103580000120F8BD0129FBD983699942F8D2FFF7E0
:10359000A7FE0128F4D9AB698342F2D83E46D7E7AB
:1035A0000126D5E70020F8BD0128E9D14FF0FF3012
:1035B000F8BDAB69A342E3D9284621466FF07042BB
:1035C000FFF740FF0028EFD15FB1012FD8D9AB69D9
:1035D0009F42D5D2394628462246FFF733FF0028BE
:1035E000E2D12B69EC605A1C05D00122013B6A71C3
:1035F0002B612046F8BD2046F8BD00BF2DE9F047FD
:10360000C58804460135ADB20E4615B90420BDE8A3
:10361000F0870369002BF9D015F00F0708D0036875
:10362000303303EB47176761E5800020BDE8F08782
:10363000C16801330361036861B19A78013A12EA03
:103640001512EDD1012902D99A69914206D30220BF
:10365000BDE8F0871A89AA42D8D9E1E71846FFF7F2
:103660003FFE01288046F2D9B0F1FF3F1BD023680E
:103670009A6982420CD9861E023A9642C4F80C809E
:103680003BBF99789A6A002601FB06262661C7E7A8
:10369000002EBBD01846E168FFF750FF804628B9DE
:1036A0000720BDE8F0870120BDE8F0870128CED0D3
:1036B000B0F1FF3FF7D020680021FFF71FFB002883
:1036C000F1D12268014602F1300302F50C7203F8D1
:1036D000011B9342FBD12268A8F1020693694FF0C7
:1036E0000009023B9E423BBF936A9178002301FB95
:1036F00006334FF0010AD3620CE082F804A0206880
:10370000FFF7FCFA09F101090028CCD12268D36A3D
:103710000133D36292F802C05FFA89F084454FF01A
:1037200000011346E9D8D16A9269091AD962A3E760
:103730002DE9F843FF26044635460420424F09E0B0
:10374000BCF10F0F1ED0FF2520460021FFF756FFCA
:1037500000284DD1216900294ED02068FFF7CEFA0C
:10376000002845D162691378002B40D0E52BD17A2F
:10377000E9D02E2BE7D001F03F0C0907E0D4BCF1D3
:103780000F0F49D159062FD5E188567B03F0BF05AD
:10379000218492F80DE0B645D5D11178D4F81C807B
:1037A00001F03F01013901EB4100284B01EB8000A2
:1037B0004FF0010C4FF6FF7907E0FE2811D828F8EA
:1037C00010108C460130BB421AD013F8011F561856
:1037D0007678515C41EA0621BCF1000FEDD14945F4
:1037E000F1D07646FF25AFE79D42ACD1D1E704206A
:1037F00000232361BDE8F8830028F9D1BDE8F883F0
:1038000013785B0604D5FE28EBD8002328F8103087
:10381000013DEDB2764697E78DB902F10A07014600
:1038200001E012F8013FCD0105EB61011944BA42F4
:1038300001F0FF01F5D18E4201D1BDE8F8834FF6CA
:10384000FF732384BDE8F88380B9000073B90000DA
:10385000F8B5018CC5884FF6FF73994208BF294619
:103860000446FFF79DFD0346C8B9E52701260AE097
:103870006269177022681671E288AA420FD2FFF7B8
:10388000BDFE034640B921692068FFF737FA0346B9
:1038900001462046002BEBD0042B08BF022318461C
:1038A000F8BD00BF2DE9F04FFF2683B04F4F05460E
:1038B000B04609E00F2943D04FF0FF082846002109
:1038C000FFF79CFE002838D128682969FFF716FA0F
:1038D000002832D16C692378002B68D0E27AE52B7E
:1038E00002F03F01E8D01207E4D40F2928D0B8F144
:1038F000000F11D19C46224604F10A08034601E05C
:1039000012F801CFD90101EB63036344424503F090
:10391000FF03F5D1B34210D04FF6FF72AB692A8492
:10392000DA7AD207C8D403F10B0C14F8011B13F890
:10393000012B9142C0D16345F7D103B0BDE8F08FB0
:10394000EA69002ABAD059062ED5E988667B03F0C9
:10395000BF08298494F80DA0B245ADD12378244E38
:1039600023F04003013B03EB430903EB89090121E9
:103970004FF6FF7B03E0584512D1BE4227D016F820
:10398000013FE0184078E35C43EA00200029F2D0D0
:10399000009201F075FDB9F1FE0F0146009A0AD9B7
:1039A00056464FF0FF0889E7434585D1D2E704200A
:1039B00003B0BDE8F08F32F81900019101F060FD0D
:1039C0000199009A8142EBD109F10109D5E72378E9
:1039D000580604D519B132F81930002BE0D108F19E
:1039E000FF385FFA88F8564668E700BF80B90000E4
:1039F00073B90000F8B504460D460127A3692946AE
:103A00009D4220D2012D0BD92046FFF769FC0646C6
:103A1000C8B1012804D0411C17D0A3699D4201D32D
:103A20000220F8BD294620460022FFF70BFD68B9A9
:103A3000236935465A1CE1D001332361A3696771BC
:103A40009D422946DED30020F8BD0120F8BD00BF0D
:103A50002DE9F04F0B7883B02F2B8A46064600F0F5
:103A60003F815C2B00F03C810024B4609AF8000098
:103A70001F2802D83DE11AF8010F2F28FBD05C283F
:103A8000F9D01F28F76940F2FF802F282FD05C283B
:103A90002DD00121BD1E54464FF0010901F0CAFC92
:103AA00008B37F2809D822281DD09D4A01E09842FA
:103AB00019D012F8013F002BF9D125F8020F14F8A4
:103AC000010F09F101031F2840F2E1802F2811D0D6
:103AD0005C280FD0B3F5807F05D00121994601F015
:103AE000A9FC0028DDD1062003B0BDE8F08F4FF01F
:103AF000000901239A440025B9F1000FF3D007EB28
:103B0000490030F8022D202A01D02E2A03D1B9F124
:103B10000109F6D1E7E7B369002227F8192003F17C
:103B20000B0107EB490E202203F8012B8B42FBD13E
:103B3000BB1E002400E0013433F8020F2028FAD025
:103B40002E28F8D00CB145F00305734633F8022D4A
:103B50002E2A02D0B9F10109F8D14FF0000BD84656
:103B60000823013430B3202867D02E2863D09B452A
:103B700066D2A14500F0C9807F2872D82B287FD05B
:103B8000684A01E088427BD012F8011F0029F9D170
:103B9000A0F14101192900F2908048F00208C0B25A
:103BA000B16901F80B000BF1010B37F81400013477
:103BB0000028D8D1B1690878E52800F0A280082B48
:103BC00004BF4FEA88025FFA82F808F00C030C2B5E
:103BD00000F0838008F0030003287ED0A80709D4F2
:103BE00008F00302012A08BF45F01005042B08BFA6
:103BF00045F00805CD7230460021FFF7D1FB0028C3
:103C000048D13046FFF74EFEB369DB7A002843D136
:103C100059073FF569AF7369DA7AD2067BD5316807
:103C2000D87E09789A7E032942EA00223ED0B2600B
:103C30009AF8000021E7A14567D045F00305B4E7F5
:103C40000B2B64D0A14503D04C4545F00305B1D8FA
:103C50004FEA88025FFA82F84C460B234FF0080BBC
:103C6000A3E70021019301F0E5FB019B78B32E4A05
:103C700045F00205104410F8800C00287FF47EAF58
:103C800045F003055F208BE74FF0000901239A44BC
:103C9000042531E7B369DB7A04287FF425AF13F0FC
:103CA000040F08BF052003B0BDE8F08F597D1B7DD0
:103CB00043EA012342EA0342B9E7A0F1610119296D
:103CC00097BF2038C0B2C0B248F0010868E745F09D
:103CD000020545F003055F2062E745F002057DE738
:103CE00000240AF1010AB4609AF800001F283FF688
:103CF000C4AE30462146FFF753FB746103B0BDE804
:103D0000F08F05200870B16959E70B2BA0D145F061
:103D100003050B234EE7052003B0BDE8F08F00BF7D
:103D20001CBA000028BA000084B9000070B401F188
:103D30000B0683B0044611F8015BB14204F8015B45
:103D4000F9D1052B0BD9148800E00C46D90301EBFF
:103D5000530332F8021F23449BB20029F5D10722F6
:103D600003F00F0404F13001392902F1FF3200ADF4
:103D700088BF04F1370115441B096970F0D102A90D
:103D80007E24114401F8084C02B30178202913D095
:103D9000014603E011F8014F202C0DD0013393426E
:103DA000F8D1072A0AD802A9114411F8081C0132D7
:103DB000C1540133072B06D8072AF4D92021C15456
:103DC0000133072BF8D903B070BC70471346F3E7F3
:103DD0002DE9F04F876987B0C6690446791E03ABA9
:103DE00011F8012F03F8012B06AA9342F8D19DF890
:103DF0001730DA0727D50023FB720125E36108E0BD
:103E0000FFF750FD01350146ADB280B9642D00F0D9
:103E1000FC80384603A932462B46FFF787FF002176
:103E20002046FFF7BDFA014620460029E8D00429C4
:103E300003D0084607B0BDE8F08F9DF81730FB723D
:103E40009DF81730E6619B0700F1C78001272046E7
:103E50000021FFF7A5FA0028ECD18046054606E0D0
:103E60001D46FFF7CBFB0346002840F0CA802169BE
:103E70002068FEF743FF03466E1C20460121002BFD
:103E800040F0BF8062691278E52A01D0002AE7D1AC
:103E90000DB9B4F80680B5B2AF42E2D1012F79D0A6
:103EA00041462046FFF77CFA0346002840F0A980EF
:103EB000A269814602F10B0112F8013B03EBC91321
:103EC00003EB59098A4209F0FF09F5D1013FBBB262
:103ED000DFF84081CDF80490A1461C46D9F80000D7
:103EE000D9F81010FEF70AFF0346002840F0898039
:103EF000D9F814500F265FFA84FBD9F81CA00BF1F7
:103F0000FF32EE72019E02EB420102EB8101287347
:103F10000246A876E8766E734FF6FF77FF2012E030
:103F20003AF8113018F8026001324FEA232CAB55F1
:103F300005EB060E002B08BF3B460D2A01F10101DF
:103F40008EF801C00BD0BB42EAD118F802600132F2
:103F500005EB060E0D2AA8558EF80100F3D14FF699
:103F6000FF72934202D03AF811300BB94BF0400B7C
:103F700085F800B0D9F8003001221A7148460021B6
:103F8000FFF73CFB00287FF455AF013CA4B2002CA6
:103F9000A4D14C4620682169FEF7B0FE00287FF4CA
:103FA00049AF656905F120022B4603F8010B9342E6
:103FB000FBD1A26905F10B002B4612F8011B03F897
:103FC000011B8342F9D1A3690122DB7A002003F0AF
:103FD00018032B7323681A712CE73388002B3FF4E6
:103FE00035AF002301339BB236F81320002AF9D1F4
:103FF000074F193387FB0367DB17C3EBA707BFB274
:1040000025E7184607B0BDE8F08F072012E700BF8C
:104010004FECC44E74B9000008B10B207047054B3B
:104020001A6802B1107009B100220A7019600020EC
:10403000704700BF500200102DE9F0418EB00446D9
:104040000191154658B10023036005A901A802F0AB
:104050001E02FEF7CBFF30B10EB0BDE8F0810920A3
:104060000EB0BDE8F081534A02AB05A801990C924D
:104070000B93FFF7EDFC05F01F070A9E80B115F0CA
:104080001C0FE9D00428E7D105A8FFF7A1FE47F0EF
:1040900008070A9E0028DFD1380747D4059B16E0A1
:1040A000002E39D015F01C0F38D1F37AD90605D47B
:1040B000AA0705D5DB0703D50720CDE70420CBE70A
:1040C00005F00802D2B2059B0AB147F02007DA6A70
:1040D0002662E261A7711978F07EB27E032942EA76
:1040E000002212D02261B17FF07F327F090441EAC1
:1040F0000061707F1143DA8841EA00210020E1600D
:104100002360A280A060A061A6E7707D317D41EAB6
:10411000002142EA0142E5E70620B0E7F37A13F016
:10412000110FC9D16D07B7D5082095E7FEF7A8FD97
:104130000022050C010EC0F3072C059B3574717429
:10414000B07386F80FC0F27232777277B277F27777
:104150001A78F57EB17E032A41EA052511D00022A6
:104160000121B276F276327572751971002DACD0DC
:104170008D42D3F82C8002D99A69954208D3022047
:104180006AE7717D327D42EA012245EA0245E6E7AF
:1041900018462946FFF72EFC00287FF45DAF0598EE
:1041A000013D4146C560FEF7A9FD00287FF454AFEC
:1041B000059B8AE7540200102DE9F04F9946002331
:1041C00083B0C9F800308A4614460646FEF7D4FD8F
:1041D00028B9B3791F0605D4DD0707D4072003B03B
:1041E000BDE8F08F022003B0BDE8F08FB568F3683A
:1041F00006F124085B1B9C4234BF27461F46002F54
:104200004BD0C5F30804002C67D133689A78013A83
:1042100002EA552212F0FF0274D0716998690239DE
:10422000023881427ED298789C6A00FB0144002CBF
:1042300078D05FEA572B144431D002EB0B01814256
:1042400088BFC2EB000B5146587822465FFA8BF3C9
:1042500001F044F9B379002873D158060ED5B3693B
:104260001C1BA3450AD90AEB442404F500724546F9
:1042700015F8013B04F8013B9442F9D14FEA4B2178
:10428000B5680AEB0103D9F800200D440A447F1AEF
:10429000B5609A46C9F80020B3D100209FE7B26903
:1042A000A24216D0B17949060BD558784146012370
:1042B00001F026F9002843D1B279336822F0400298
:1042C000B271587841462246012301F007F90028CF
:1042D00036D1B568B461C5F30804C4F50071B942BC
:1042E00028BF39463444243453460029CBD00AEB46
:1042F0000103524614F8015B02F8015B9A42F9D1BE
:10430000B568C0E745B9306901280BD9441C17D0FE
:1043100033687061014681E77169012902D99869A2
:10432000814207D3B379022063F07F03B37103B0F6
:10433000BDE8F08F18460192FEF7D2FF019AE3E73D
:10434000B37963F07F030120B37148E770B5044689
:10435000FEF712FDD8B9A27902F0200303F0FF00A6
:10436000ABB153060DD5214651F8243BA2695878CC
:10437000012301F0C5F8002839D1A37923F04003C7
:10438000A3712068E169FEF7B9FC064600B170BD73
:10439000256AEB7A43F02003EB72E3682B77A3895D
:1043A0001B126B77E389AB77E37BEB7723691A0CFE
:1043B0001112C3F30720AB762A756975E876FEF70C
:1043C0005FFCC0F30721020C030E2A76A875AE74B9
:1043D000EE74E9756B76A179236821F02001012242
:1043E000A1711A712068BDE87040FEF755BD01202B
:1043F00070BD00BF2DE9F04F9B46002383B0CBF882
:104400000030894690460746FEF7B6FC28B9BA79CF
:10441000140605D4910707D4072003B0BDE8F08F38
:10442000022003B0BDE8F08FF96818EB010F0CD340
:10443000BB6805468B4242F0200288BFFB60BA7120
:10444000002D40F0BC800020E7E7B8F1000F00F03D
:10445000C68007F12402BB6805460192C3F3080435
:10446000002C6CD13A689678013E06EA532616F085
:10447000FF0611D1002B40F085803869002800F03C
:104480008C80012800F0A580421C00F09C80BB6855
:1044900078613A6803B10125BB795B0665D47B6915
:1044A0009169023B02398B4280F093809178946A43
:1044B00003FB0144002C00F08C805FEA582A34444E
:1044C00033D006EB0A038B4288BFC6EB010A507853
:1044D000494622465FFA8AF301F012F8002872D1A9
:1044E000BB691C1BA2450ED909EB4424019D04F5B0
:1044F000007314F8016B9C4205F8016BF9D1BB798C
:1045000023F04003BB71BB684FEA4A200125DBF86A
:10451000002003440244B8EB0008BB608144CBF8A0
:1045200000209BD1F968BA7984E7BB69A342BB68D4
:1045300002D0F9688B4239D3BC61C3F30804C4F5D7
:104540000070404528BF40463C44243440B1211807
:104550004B4613F8012B04F8012B8C42F9D1BB68B0
:10456000BA7942F04002BA71D1E75078012301993B
:10457000BA6900F0C5FFBB7930BB23F040033A684D
:10458000BB718CE710467969FEF7D8FF00287FF4ED
:1045900078AFBB68F968BA794CE710463146FEF748
:1045A000CDFF386100287FF46CAFF2E750780199B5
:1045B0002246012300F092FF28B9BB68BCE73846C9
:1045C000FFF7C4FE3FE7BB7963F07F030120BB71B7
:1045D00023E7BB79022063F07F03BB711DE74546EB
:1045E000BB6827E710B50446FFF7B0FE00B92060AE
:1045F00010BD00BF70B50D460446FEF7BDFB002898
:1046000047D1A3791E0645D4E268AA4203D213F02B
:10461000020F08BF15460023A268A360002D3BD0FF
:1046200020688678760242B1013A691EB2FBF6F341
:10463000B1FBF6F1994280F082802169002900F0F7
:1046400084806161002929D1A3680D46C3F3080263
:10465000002A00F08380A269AA427FD0A3795B067A
:104660005ED404F124062368314658782A46012393
:1046700000F034FF00284DD1A368E268A5619A429A
:1046800006D2A279E36042F02003A371002070BD3E
:10469000002070BD022070BD284670BDB5426AD9A9
:1046A0002068A379AD1B9A0709D4012902D9826930
:1046B0008A422BD863F07F03A371022070BDFEF7FE
:1046C0003DFF0146002855D04A1C23D001294DD971
:1046D00020688369994249D2A368AE42334461613C
:1046E000A360DED32B44C5F30802A360002A3FD0A9
:1046F00026688A1EB0690238824231D2B078B16A27
:1047000000FB021262B302EB55259FE7FEF7E8FDBE
:104710000146D9E7A37963F07F03A371012070BD3F
:10472000236804F1240658783146012300F0E8FE9E
:10473000A3790028EFD123F04003A37193E77342DC
:104740001A40A260AD1A61697CE7FEF7F7FE012806
:10475000014605D00130DDD0216172E7E2688EE7C5
:10476000A379022063F07F03A37170BDA379A1E751
:1047700015466BE73546A368B4E700BF30B587B090
:104780000446019150B101A821460022FEF72EFCFB
:10479000256830B10023236007B030BD092007B081
:1047A00030BD154A03ABE261A36120460199FFF7D2
:1047B0004FF990B9636953B1DA7AD20612D52978E4
:1047C000D87E9A7E032942EA00220DD0A260EB88AF
:1047D0002046A3800021FEF7E3FD042802D0002834
:1047E000DAD0D7E70520D5E7597D1B7D43EA0123C1
:1047F00042EA0342EAE700BF5402001070B584B0F9
:104800000E460546FEF7B8FA044658B9DEB1114A1D
:1048100001ABEA61AB612846FEF78AFF042804D0A9
:1048200020B10446204604B070BD2C6131462846B4
:10483000FEF7B6FA28460021FEF7E0FE0428F0D184
:1048400000232B61EEE721462846FEF7A9FD04462A
:10485000E8E700BF5402001030B599B018AB43F838
:104860005C0D184606A90122FEF7C0FB08B119B07D
:1048700030BD2E4A03AB06A801990D920C93FFF7A9
:10488000E7F80028F3D10B9B002B4AD0DA7A12F01C
:10489000010F0CBF00200720069ADD7E1278997E5A
:1048A000032A41EA05252AD00028E0D1DB7ADB067D
:1048B00017D5012D21D90FA8034606AC14F8012BFA
:1048C000844203F8012BF9D1204602211195FEF70D
:1048D00067FD0028CBD12046FEF72AFF18B3042835
:1048E000C5D106A8FEF7B4FF0028C0D1ADB1012D97
:1048F000069802D983699D420AD30220B7E7597D01
:104900001A7D42EA012245EA02450028AFD1CDE7EF
:104910002946FFF76FF80028A9D10698FEF7BCFAE0
:10492000A5E70620B8E70720A1E700BF5402001062
:104930002DE9F04F97B016AC44F8340DFEF7A0F90E
:10494000012207460DA92046FEF750FB0246044609
:1049500018B1104617B0BDE8F08F794A0AAB0DA820
:10496000099914921393FFF773F80246A0B1042833
:10497000EFD10D982146FEF7E1FD064688B90722E2
:10498000012E0D98E5D983699E42E2D2314601920B
:10499000FFF730F8019ADCE70822104617B0BDE8AF
:1049A000F08F012801D10222EAE7431C08BF01224F
:1049B000E6D021460D98FEF7A1F902460028DFD186
:1049C0000D99B31E88690238834203D288788A6AB7
:1049D00000FB032201F130052B4601F50C74002089
:1049E00003F8010BA342FBD101F13B0E2B46202023
:1049F00003F8010B7345FBD15FFA87FECDF808E0A1
:104A0000C7F3072E4FEA164BCDF80CE0C7F3074E5D
:104A10003F0E5FFA8BF30597F7B208930697C6F33C
:104A200007270797089F2E2381F8447081F83030BC
:104A30001F46029B102081F84630039B4FEA1B2B38
:104A400081F84730059BCDF810E081F84930069B8E
:104A500081F83B0081F84A30079B81F848E081F8F3
:104A60004B3081F845B001F15003284601F1700E3A
:104A700001E010F8017F03F8017B7345F9D12E2383
:104A80000D9881F8513003780F9F032B50D03B0CC9
:104A90005FFA83FE5FFA87FC1B0AC7F3072781F8DA
:104AA0006AC081F86B7081F864E081F865308378C2
:104AB000E3B1013B5FFA83F808F101089044012754
:104AC0004FF00009C2620771002102F1010AFEF7EE
:104AD00015F948B92B4603F8019BA342FBD1C24507
:104AE00004D052460D98EDE7024649E70DA8FFF7BE
:104AF0006FF9024600287FF443AF129B029C039F8C
:104B00009C75049CDF751C76059F069C0D9A5F764C
:104B10009C76079F089C10200121D872DF761C75B7
:104B200083F815B010461171FEF7B6F9024610E78A
:104B3000436ABB42ABD100239E461F469C46AEE76C
:104B40005402001030B59FB01EAB43F8740D0C46F4
:104B500018460CA90122FEF749FA08B11FB030BD72
:104B60000C9B494D03AA0CA8019915931395129219
:104B7000FEF76EFF0028F1D1119900295ED001F1F6
:104B80000B0306AA203113F8010B8B4202F8010B2C
:104B9000F9D115AB0CAA12F8010B1EA903F8010BF1
:104BA0008B42F8D1214615A8FEF752FF002847D0C6
:104BB0000428D3D115A8FFF70BF90028CED11A9CF1
:104BC0000DF11A0204F10D0304F1200012F8011B8B
:104BD00003F8011B8342F9D19DF818200C9842F08C
:104BE00020020123E27203710E9A179B9A421CD095
:104BF000E37ADB0619D50278E17EA37E032A43EA35
:104C0000012321D08269023B023A93421AD2817871
:104C1000826A01FB0321A9B1FEF770F80C9B002802
:104C20009CD193F851202E2A15D00CA8FEF710FE27
:104C3000002893D10C98FEF72FF98FE704208DE719
:104C400008208BE7022089E7617D227D42EA01226C
:104C500043EA0243D6E71A78032A179A0FD0104680
:104C6000020C1512C0F30724012183F86A0083F8AF
:104C7000642083F8655083F86B401971D5E7596A51
:104C80008A42ECD1ECE700BF540200102DE9F04F4E
:104C90008B4687B0154618B10B2007B0BDE8F08FE2
:104CA000012903D9132007B0BDE8F08F531E13402C
:104CB000F8D1C94A146834B1237000F0F7FBC30778
:104CC00003D50320E9E70C20E7E700F0040303F035
:104CD000FF000BB10A20E0E7012105AA00F022FC49
:104CE000002840F0AD81059A7F2A40F2A981BBF1EE
:104CF000000F14BF4FF000084FF03F08C8EB02024E
:104D000005928DB94FF4FA60B2FBF0F0B0F5806F08
:104D100080F0AC81B149002331F8025F0133A84231
:104D2000FAD3AF4931F813505FEA552900F0988162
:104D3000B9F1810F28BF4FF08009B2FBF9F340F6BB
:104D4000F5718B4240F27E814FF6F5718B4240F255
:104D50008F819B0003F207260023760A0327009326
:104D60004FF0200A009D0AEB080335441D440193CF
:104D7000C8EB09032B449A4201D20E208DE7002094
:104D8000032104AA00F0CEFB002840F06C81DDF87E
:104D900010C00CF1FF33B3F5004F80F064810CF1CB
:104DA000FF332B44CCF1000C03EA0C035D1B032FF3
:104DB0000495059B00F073812E44CAEB0302009911
:104DC000921B521AB2FBF9F2022F039200F05B81A0
:104DD0000121BBF1000F40F04F8104F1300558462E
:104DE0002A4604F50C7B02F8010B5A454FF00003EC
:104DF000F9D1059A43F6C16008EB020EBEFBF0FE46
:104E000084F8F131184684F8F21184F8F731110C66
:104E100084F8F83184F8F93184F8FA21C2F30723D1
:104E2000120E4FEA9E0C84F8FC1184F8FD21FE213D
:104E30003F224CF03F0C84F8FB3184F8F31101233E
:104E4000552184F8F621AA2284F82E1284F82F2204
:104E500084F8F5E184F8F4C184F8EF3184F8F03196
:104E600002462946CDF810E000F04AFB002840F049
:104E7000E780F82202922B46002203F8012B5B45C3
:104E8000FBD1584A0023D15CE95401330B2BFAD1F2
:104E9000032FCAF30722059B14BF0221002184F8C7
:104EA0003F20002284F8421084F83B20022184F83D
:104EB0004120B3F5803F4FF0010284F83D9084F823
:104EC0003EA084F83C1084F8402080F0FC801A1248
:104ED00084F8433084F8442002994FF0000A3F22BE
:104EE000FF2384F8482084F84A3084F8451084F879
:104EF0004C8084F849A084F84BA084F84DA084F835
:104F00004EA084F84FA0FDF7BBFE032F0490C0F322
:104F100007224FEA104300F0E38084F85820C6F3DC
:104F2000072284F8570084F85930000E2923802185
:104F300084F847202C4A84F8563084F8466084F878
:104F40005A0084F8541004F15B0312F80A1003F8B5
:104F50000A100AF1010ABAF1130FF6D15522AA2359
:104F600084F82E2284F82F3200202946424601235D
:104F700000F0C6FA002863D12B46002203F8012B6B
:104F80005B45FBD1032F00F0FB80184B029A012FE9
:104F900018BF6FF0FF031343190EFF22049384F828
:104FA000303084F8331084F8312084F832202946D8
:104FB0000020019A012300F0A3FA019901F1010AEE
:104FC00000283DD12B4603F8010B5B45FBD10123A3
:104FD00004939C4616E000BF5002001064BA000023
:104FE00004BA000030BA000050BA000000FFFF0011
:104FF00000F086FA20BBDDF810C0DA460CF1010C97
:10500000CDF810C00123B44552464FF000002946A8
:105010000AEB030BECD3009A032F08BF4A469146D4
:10502000D14402E0D14500F0CA8052460020294612
:10503000012300F065FA0AF1010A06460028F1D0C2
:1050400001202AE603EB430301335B080333012706
:1050500003F2FF1320215E0A00914FF0010A81E65E
:105060004FF0010969E64FF0010C98E6002358E67D
:1050700002335B000227EBE7F023029304F13005D3
:1050800004F50C7BF7E6039940F6F57291427FF642
:1050900074AEB3F5803F2CBF0621042199E6AA44E3
:1050A0000099CAEB03039B1B5B1AB3FBF9F3039351
:1050B000019A03994FF6F5732A44994201927FF6BB
:1050C0005CAE0C2185E6C3F307211A0C84F850303E
:1050D0001B0E84F8511084F8522084F85330FBE6FC
:1050E00084F8730084F87420000E320CC6F3072194
:1050F00084F8753084F876000223300E84F8562048
:10510000062284F8551084F85700012184F85C3099
:105110008020292384F86220504A84F8723084F871
:10512000546084F85DA084F85EA084F85FA084F8E1
:1051300061A084F863A084F8601084F8700004F122
:10514000770312F80A1003F80A100AF1010ABAF1FB
:10515000130FF6D15522AA2384F82E2284F82F3279
:10516000002029464246012300F0CAF900287FF4B6
:1051700067AF294608F10602012300F0C1F9FBE6FA
:10518000029B0F2163F0FF02FF23049284F830207A
:1051900084F8313084F8323084F8333084F8343095
:1051A00084F8353084F8363084F8373084F8383075
:1051B00084F8393084F83A3084F83B10F7E6032F4E
:1051C00042D103994FF0520E4B1EC3F3072B4121DE
:1051D00072224FEA134A4FEA136961274FF0020C1B
:1051E00084F8183284F819B255234FF0AA0B84F8CA
:1051F000331084F8161284F8142284F8152284F8E7
:105200002E32294608F10102012384F81D0284F898
:105210001E0284F81F0284F81AA284F81B9284F8F4
:1052200030E084F831E084F8327084F8177284F842
:105230001CC284F82FB200F063F93046294608F109
:105240000702012300F05CF900200146024600F04D
:1052500069F9003018BF01201FE500BF3CBA00000B
:105260004FF0FF30704700BF704700BF014B036035
:10527000704700BF88BA000008B510B103689B6989
:105280009847002008BD00BF00234381704700BF3E
:105290004089704741817047014B0360704700BFF0
:1052A00088BA000010B5034B0446036002F0EAFE22
:1052B000204610BD88BA000010B5034B04460360B9
:1052C00002F0E0FE204610BD88BA000030B589B07B
:1052D00000F1280504464FF48073043069460695B2
:1052E0000793FFF78BFA98B99DF8090018B194F865
:1052F000283013B1284609B030BD08AB53F8170D5C
:1053000059689A681B7BA0626960AA602B73F1E7F9
:10531000002009B030BD00BF074B70B4044644F80C
:10532000043B0D4606460FCD0FC40FCD0FC42B68AE
:105330003046236070BC7047B0BA00000020704750
:105340000069704738B504460430FFF74BF905464D
:105350001CB1236820461B6A9847284638BD00BF09
:1053600010B5034B0446036001F03AFE204610BD21
:10537000D8BA000010B5054B0446036001F030FEBA
:10538000204602F07FFE204610BD00BFD8BA0000C4
:1053900008B50430FEF7DAFF003018BF01204042A4
:1053A00008BD00BF022A10B5044609D0012A04BF77
:1053B000C368C918201DFFF71DF920B9E06810BDAA
:1053C00003691944F6E74FF0FF3010BD00B583B014
:1053D000043001ABFEF7F0FE18B9019803B05DF898
:1053E00004FB4FF0FF30F9E700B583B0043001ABA8
:1053F000FFF700F818B9019803B05DF804FB4FF00F
:10540000FF30F9E784B070B506460948354645F8DF
:10541000040B05AC84E80E00284621464FF40972BF
:1054200003F0EAF93046BDE8704004B0704700BFB1
:10543000D8BA00007F2810B40ED981B90E4B01E014
:10544000802915D033F8022F8CB2824201F101017C
:10545000F6D104F1800080B25DF8044B7047FF285C
:1054600006D8064B803833F810005DF8044B7047BF
:1054700000205DF8044B7047FEBA000000BB00003E
:1054800061280AD00749002201E0834206D031F8A2
:10549000023F0132002BF8D170470022024B33F853
:1054A00012007047E0BD000000BC000008B5044BCE
:1054B00053F8200003689B6A9847C0B208BD00BF3C
:1054C0004802001008B5044B53F820000368DB6A5B
:1054D0009847C0B208BD00BF4802001010B5074C85
:1054E00082B054F8200004680093246B0023A04786
:1054F000002814BF0420002002B010BD4802001094
:1055000010B5074C82B054F8200004680093646B17
:105510000023A047002814BF0420002002B010BDC3
:105520004802001010B5012982B00C4616D009D3EC
:10553000032902D0042002B010BD01230020136013
:1055400002B010BD0E4B53F8200058B103689B6B9E
:105550009847003018BF012002B010BD084B53F827
:10556000200010B9032002B010BD0368DB6B01926C
:105570009847019A10B110600020DCE72046DAE776
:105580004802001000B5DFF80CC000DFDFF808C0EB
:1055900000DFFEE73D5700005557000030B4114DC5
:1055A0002C685CB12289914204D20EE01A898A42A9
:1055B0000DD81C462368891A002BF7D100230181DE
:1055C000036064B1206030BC70472346002489B278
:1055D00001811A890360511A1981002CF2D12860C7
:1055E00030BC7047F4060010084B10B41B684FF431
:1055F0007A74591E04FB00104FF6FE72B0FBF3F0F4
:10560000904228BF10465DF8044B704724C000004C
:1056100038B5084C257855B901F044F9064BFF22FE
:105620001B6828469A7001F01BFB012323700020A1
:1056300038BD00BFF00600102C07001010B5EFF3C6
:1056400005840CB1822010BDEFF31484E40703D568
:10565000DFF80CC000DF10BDBDE81040FFF7D8BF79
:105660001156000010B588B0EFF3058414B1822004
:1056700008B010BDEFF3148404F00304022C1DD015
:10568000032C14D0012C16D008AC84F309880F4CDD
:105690002478E40716D5022484F31488BFF34F8FCF
:1056A000BFF36F8FDFF828C000DF08B010BD074CD4
:1056B0002478E407F6D5FF2008B010BD034C247809
:1056C000E407EFD4032484F31488E7E72CC0000038
:1056D000C5590000F8B504460F4628B302681AB34E
:1056E0008388D81C80B206281ED8A068E0B1E6687E
:1056F000D6B1191D04F11005C9B2A6636086E76230
:10570000284600F0FBFF00F0E1FF0A4E0346471E6B
:1057100046F827502846E37401F00CF856F82700A5
:10572000054A436A5A63F8BD802001F099FA0020C7
:10573000F8BD00BF680900108555000008B501F0EC
:1057400035F818B1024B013853F8200008BD00BFEE
:105750006809001008B558B1830709D103783BB92F
:10576000C07801F067F8FF2814BF0020812008BD31
:10577000802008BD10B5EFF3058474B9EFF31484ED
:10578000E40702D4064C24781CB1DFF818C000DF0F
:1057900010BDBDE81040FFF79DBF002010BD00BF49
:1057A000F1060010D556000010B5EFF305840CB1DA
:1057B000822010BDDFF804C000DF10BD5557000087
:1057C00008B558B1421C10D00B4A904207D8FFF7D9
:1057D0000BFF80B201F002F9402008BD08BD4FF672
:1057E000FE7001F0FBF8402008BD4FF6FF7001F09D
:1057F000F5F8402008BD00BF00093D0010B5EFF3EB
:1058000005840CB1822010BDDFF804C000DF10BD9C
:10581000C1570000830706D128B10169C3680A682F
:105820001946104670470020002170472DE9F843C3
:10583000174F3D68D5B12B89DFF85880013B9BB2EB
:105840002B814FF001098BB92C68D8F800603C60BF
:1058500016B13378012B10D06B79012B08D085F865
:1058600004901CB123892546002BEDD0BDE8F883B8
:1058700028466989FFF792FEF3E7304600F0CCFC3A
:105880000028E9D03046294600F0CAFCE4E700BF12
:10589000F4060010480A001010B540B1046834B195
:1058A000237823B9204600F0ADFD204610BD8020AE
:1058B00001F0D6F9002010BD70B510F003060446C3
:1058C0000D4603D110B10378032B01D0802070BDA9
:1058D0004B1C15D00E4B99420AD80846FFF784FEA0
:1058E00081B2204600F0F6FD012804D0002070BDF2
:1058F0004FF6FE71F5E70DB1C12070BD812070BD7E
:105900004FF6FF7100F0E6FD0128EFD1F4E700BF8C
:1059100000093D00820708B503D110B10378032BBD
:1059200001D0802008BD00F075FDFF2814BF0020C5
:10593000812008BD10B5EFF3058474B9EFF314842A
:10594000E40702D4064C24781CB1DFF818C000DF4D
:1059500010BDBDE81040FFF79FBF002010BD00BF85
:10596000F10600109958000010B5EFF305840CB152
:10597000822010BDDFF804C000DF10BDB958000060
:1059800010B5EFF305840CB1822010BDDFF804C020
:1059900000DF10BD1559000010B5044660B1016864
:1059A00051B1406840B1037833B90431890089B2FC
:1059B00000F07EFB606810BD802001F051F90020EE
:1059C00010BD00BF38B5114D2C78E4B92146104800
:1059D000FFF7E2FF0F4B214618600F48FFF77AFEF2
:1059E0000E4B21461860204600F0E8FE0C4B1B6869
:1059F0005B6A203383F30988094B00221A6000F0A8
:105A0000CFFF01232B70002038BD00BFF10600102E
:105A100008010010480A0010100100104C1200107C
:105A20002C07001070B515460E46044610B10378D9
:105A3000012B01D0802070BD531C16D00E4B9A4212
:105A40000BD81046FFF7D0FD82B22046314600F059
:105A50003DFB012804D0002070BD4FF6FE72F4E734
:105A60000DB1C12070BD812070BD4FF6FF7200F0F6
:105A70002DFB0128EFD1F4E700093D002DE9F04F9F
:105A80000C4685B0804648B30378012B0AD0002528
:105A900080242E462F463B4620462946324605B0F6
:105AA000BDE8F08F4B1C24D0164B994211D94FF60C
:105AB000FE72404602A900F059FB012813D00020D5
:105AC000024603461020029904460D4616461F461C
:105AD000E1E70846FFF788FD82B2EAE78024054641
