:100000000080001079190000A9190000AB19000048
:10001000AD190000AF190000B11900000000000088
:10002000000000000000000000000000B319000004
:10003000B519000000000000B7190000B919000050
:10004000BB190000BB190000BB190000BB19000060
:10005000BB190000BB190000BB190000BB19000050
:10006000BB190000BB190000BB190000BB19000040
:10007000BB190000BB190000BB190000BB19000030
:10008000BB190000BB190000BB190000BB19000020
:10009000BB190000BB190000BB190000BB19000010
:1000A000BB190000BB190000BB190000BB19000000
:1000B000BB190000BB190000BB190000BB190000F0
:1000C000BB190000BB190000BB19000010B5054C9E
:1000D000237833B9044B13B10448AFF300800123F4
:1000E000237010BDBC02001000000000A05A0000E8
:1000F00008B5064B1BB106480649AFF30080064819
:10010000036813B1054B03B1984708BD0000000018
:10011000A05A0000C0020010BC0200100000000045
:1001200010B5034B0446036000F0DEFD204610BD11
:1001300090530000000000002DE9F0411E4F002404
:10014000002500264FF0000800221C4B304639469F
:1001500002F030FC02F040FE184B002206B22946A5
:10016000204602F027FC02F037FE314602B2144866
:1001700001F0D2FA08F10308124801F02FFB4046C3
:1001800002F0B2FB0AA3D3E9002302F013FC002221
:100190000D4B02F039FD04460D4603F0D3FE064632
:1001A0000F462046294603F013FF04460D46CBE7D1
:1001B0001F85EB51B81E09400000F03F00002440AD
:1001C000D80200106F12833A00806640AFF30080BF
:1001D00070B5104C84B001250026324631462046C9
:1001E00000950195029641F2342301F073F90A4B10
:1001F0002946204684F8676184F86651236000F040
:100200007DFB0649064A204604B0BDE8704002F076
:1002100003BA00BFD8020010E85500002101000019
:10022000C80000100748084A08B5121A002103F058
:1002300049F9AFF3008003F01FF9FFF77DFF01F0EC
:1002400093FA00BFBC0200106C060010022801DC0B
:100250000120704701F044BB08B5012001F084FA89
:10026000704700BF00207047002070470020704793
:100270000020704700207047002070470020704722
:100280000020704700207047002070470020704712
:100290000020704700207047002070470020704702
:1002A00000207047002070470020704700207047F2
:1002B00000207047002070470020704700207047E2
:1002C00000207047002070470020704700207047D2
:1002D000002070470020704700207047704700BF23
:1002E00000207047704700BF002070470020704713
:1002F000002070470020704710B5002201680224DA
:1003000080F81521D1F8941080F8144180F8162156
:10031000884710BD704700BF704700BF0048704756
:100320000401001000487047D400001000487047D6
:100330002001001000487047FC0000100048704782
:10034000CC0000100048704708010010F8B5104CB0
:1003500005462368DB0701D50E48F8BD204602F0AC
:1003600060F90028F8D0B5F8F460B5F8F820B5F8D1
:10037000F610084B20460D0A140A370A5F721E72E7
:100380009972DD721A735C7302F059F90148F8BD75
:1003900044040010E8000010B0F8002170B51312FA
:1003A000022B044630D0032B26D0012B01D0002095
:1003B00070BD0368D3F8A83098470028F7D02368A9
:1003C0002046D3F8A83098470578122DEFD123683E
:1003D0002046D3F8A83098474678012EE7D1236805
:1003E000C4F80C51D3F8A8302046984784F810611F
:1003F000C4F80801304670BDD2B2052AD7D8DFE86C
:1004000002F056404B6C2D610368D3F8AC3098472E
:100410000028CCD023682046D3F8AC309847037826
:10042000092BC4D123682046D3F8AC3098474378D1
:10043000022BBCD123682046D3F8AC309847236800
:100440008578D3F8AC3020469847C278236845EACF
:100450000225C4F80C51D3F8AC3009E00368D3F896
:10046000C030984723680278D3F8C030C4F80C2114
:1004700020469847012384F81031C4F80801184633
:1004800070BD0368D3F8B430984723680278D3F876
:10049000B430C4F80C21EBE70368D3F8B8309847C0
:1004A00023680278D3F8B830C4F80C21E0E7036879
:1004B000D3F8B030984723680278D3F8B030C4F846
:1004C0000C21D5E70368D3F8C43098472368027835
:1004D000D3F8C430C4F80C21CAE70368D3F8BC30A1
:1004E000984723680278D3F8BC30C4F80C21BFE7E2
:1004F0000B78DB0913700B78C3F3411353700B783F
:1005000003F01F0393704B78D370C8788B7843EA5D
:100510000023938048790B7943EA0023D380C8797C
:100520008B7943EA00231381704700BF30B590F800
:10053000103191B0044613B1002011B030BD6946AE
:1005400000F05EFCD4F80C319842F5D8D4F80821BC
:100550001D1A0244C4F80C51C4F808219DB994F83E
:10056000123143B1236802466946D3F89C302046D5
:10057000984784F81251002120460A4600F044FCB6
:10058000012011B030BD204600F036FC0120D4E738
:1005900010B50446FFF7CAFF00B110BD2046BDE804
:1005A000104000F035BC00BF70B5D0F80C510446C7
:1005B0006DB990F811317BBB94F812316BB92046BC
:1005C00000F01AFC204600F019FC012070BD90F8E4
:1005D0001061012E0CD0002070BD23680021D3F8DB
:1005E0009C300A4620469847002384F81231E6E7FB
:1005F000402D28BF40252A46D0F8081100F004FC01
:10060000D4F80821D4F80C312A445D1B3046C4F8D4
:100610000821C4F80C5170BD29462A4600F0F4FBAD
:1006200094F8123184F81151002BC8D0D5E700BFDF
:1006300010B50446FFF7B8FF00B110BD2046BDE875
:10064000104000F0E5BB00BF90F8001110B5044663
:1006500080F8151169B10368D3F8A030984700B944
:1006600010BD204600F082FB042384F814310120E1
:1006700010BD00F09BFB032384F81431012010BD52
:1006800008B590F81431042B02D0B0F8023193B9B8
:1006900090F8FE30022B0ED1B0F800315BB9B0F803
:1006A000023103F00F01C3F3C01303EB410100F06B
:1006B0000BFD012008BD002008BD00BF08B590F863
:1006C0001431042B02D0B0F8023193B990F8FE3007
:1006D000022B0ED1B0F800315BB9B0F8023103F053
:1006E0000F01C3F3C01303EB410100F005FD01202E
:1006F00008BD002008BD00BF90F8143110B5042BD0
:10070000044602D0B0F80231F3B994F8FE30012B60
:1007100020D01BD3022B17D1B4F802312046C3F3EB
:10072000C01103F00F0301EB430100F0F7FC0C4B89
:10073000A0B101221A800120022284F81001C4F81D
:100740000831C4F80C2110BD002010BD044B01225B
:100750001A80F0E7024B00221A80ECE71880EAE7E3
:100760004004001010B590F8FD3004467BB990F8B5
:10077000FF300B2B0BD8DFE803F00C100A140A181B
:10078000240A3C46062890F81431042B44D000205B
:1007900010BDBDE81040FFF7AFBFBDE81040FFF748
:1007A0008DBFBDE81040FFF76BBF94F8001100F05B
:1007B0001BFBB4F8003153BB022384F81431012031
:1007C00010BDBDE81040FFF7E7BD0368B4F80211A3
:1007D000D3F8A43094F8002198470028D7D0B4F873
:1007E0000031B4F8022184F81A31A4F8182101204C
:1007F00010BD00F21513012084F81001C4F808316F
:10080000C4F80C0110BDBDE81040FFF71DBF032365
:1008100084F81431012010BDB0F8182100F58D7353
:10082000012084F81001A4F80221C4F80831C4F8AA
:100830000C0110BD10B590B00446694600F0D8FA1E
:10084000204604F1FC026946FFF752FE00232268AD
:10085000C4F8083184F81031D2F898202046C4F842
:100860000C3184F8113184F81231904708B3B4F890
:1008700004314BB9D4F80C11C1B920460A4600F036
:10088000C3FA012010B010BD94F8FC20012A94F89E
:10089000102109D052B9D4F80C219A4206D1204631
:1008A00000F0AAFA0120EDE7012A09D0002010B0DB
:1008B00010BD2046FFF756FF0028D8D10020F6E7EC
:1008C000D4F80C11994207D9C4F80C312046FFF72F
:1008D0006BFE012010B010BDF8D28B0608BF84F863
:1008E0001121F3E710B50446FFF7A4FF00B110BDD6
:1008F0002046BDE8104000F08BBA00BF38B50D4669
:10090000044600F003FA1DB194F81431042BFBD116
:1009100038BD00BFFC307047002300F0ADBA00BF07
:10092000F8B503680546D3F8AC300E46984738B1A1
:100930002B682846D3F8AC3098470378092B01D0B0
:100940000020F8BD2B682846D3F8AC309847437890
:10095000022BF5D12B682846D3F8AC3098472B688A
:100960008478D3F8AC3028469847C77844EA0727FC
:100970000B2FE5D92B682846D3F8AC30984700F107
:10098000090408E02B682278D3F8AC301444984767
:1009900038448442D4D263782846B342F2D1204608
:1009A000F8BD00BFF8B5044616461F460D4600F0D8
:1009B00091FA0020084A012384F8150184F81601F1
:1009C000A4F8F450A4F8F660A4F8F870226084F853
:1009D00014312046F8BD00BF9053000008B500F068
:1009E0001BFA431E5842584108BD00BF70B5049C15
:1009F0000546A3420E4603D890F81441042C01D0BA
:100A0000002070BD00F00AFA0128F9D128463146CD
:100A100000F020FA012804D0D0F1010038BF0020F6
:100A200070BD95F81431042BF0D0D0F1010038BF1F
:100A3000002070BD704700BF704700BF704700BF07
:100A4000704700BF704700BF704700BF0D4B0E4A94
:100A50001021C3F808121946C3F81022D1F8003249
:100A6000084ADB06FAD5000440F480701023C2F86F
:100A700008321146C2F81002D1F80032DB06FBD56D
:100A8000704700BF00C000500005FE000F4B00047F
:100A9000102140F4A062C3F808121946C3F81022CE
:100AA000D1F80032094ADB06FAD540F40070202361
:100AB000C2F808321146C2F81002D1F80032034AD7
:100AC0009B06FAD5D2F81402C0B2704700C000509D
:100AD00040300E4B020442F4A0621020C3F808021A
:100AE0001846C3F81022D0F80032084ADB06FAD5BF
:100AF000090441F480711023C2F808321046C2F88C
:100B00001012D0F80032DB06FBD5704700C0005051
:100B10000F4B104A1021C3F808121946C3F81022CF
:100B2000D1F800320A4AD806FAD50B4B2021C2F878
:100B300008121146C2F81032D1F80032044A9B065E
:100B4000FAD5D2F8140200F0FE00FFF77FBF00BF15
:100B500000C000500005FE000002FE00F8B5431082
:100B60001B4C9B0043F00203C4F82832C4F8242233
:100B70005AB3002327461C4611F8016B03F1080500
:100B800006FA03F31C4315F01F0302F1FF3216D0DF
:100B9000002AF1D10E4BC3F81C420D4C0023C4F8BF
:100BA0002832FFF773FF0B4B1022C4F808222246AD
:100BB000C4F81032D2F80032DB06FBD5F8BDC7F816
:100BC0001C42002AE9D01C46D6E7C4F81C22E4E700
:100BD00000C000500005FA000E4B0F4A1021C3F868
:100BE00008121946C3F81022D1F80032094ADB0670
:100BF000FAD5000440F4000040F480701023C2F8DD
:100C000008321146C2F81002D1F80032DB06FBD5DB
:100C1000704700BF00C000500005D0002DE9F04132
:100C20004FEA61084FEA88032A4D43F00103C5F8F3
:100C30002832D5F82032274C1E05FAD5D4F8206288
:100C4000C6F30906002E3FD000231F4602EB060C18
:100C500003F108050BB9D4F8187227FA03F302F868
:100C6000013B624505F01F03F2D11B4B194A83FB80
:100C7000080303EB430300209845C2F8280202D181
:100C8000B8F1000F1DD10846FFF700FF114B134AC2
:100C90001021C3F808121946C3F81022D1F8003207
:100CA0000C4AD806FAD50E4B2021C2F8081211467C
:100CB000C2F81032D1F80032064A9B06FAD5D2F8B3
:100CC00014323046BDE8F081D4F81822054B1A6082
:100CD000CBE700BF00C00050565555550005F20047
:100CE0000002F2004804001010B5064B04460360F1
:100CF000FFF70EFF044B4FF080722046C3F88020B0
:100D000010BD00BF6854000000E100E0134B14491F
:100D1000144A10B410204FF080740C60C3F808021D
:100D20001946C3F81022D1F800320C4AD806FAD579
:100D30000D4B2021C2F808121146C2F81032D1F82A
:100D40000032064A9B06FAD5D2F814025DF8044B2D
:100D500040F00100C0B2FFF779BE00BF00C00050F4
:100D600000E100E00005FE000002FE000C4B0D4A11
:100D70001021C3F808121946C3F81022D1F8003226
:100D8000074AD806FAD5084B1021C2F808121146B6
:100D9000C2F81032D1F80032DB06FBD5704700BF35
:100DA00000C000500005D800000101000C4B0D4AA6
:100DB0001021C3F808121946C3F81022D1F80032E6
:100DC000074AD806FAD510214FF48073C2F80812EA
:100DD0001146C2F81032D1F80032DB06FBD570475D
:100DE00000C000500005D8000846FFF7F5BE00BF60
:100DF0000A460021FFF712BF704700BF704700BFCF
:100E00000A460021FFF70ABF0120FFF7A7BE00BF77
:100E100000208021FFF75CBE01207047F8B50B4C25
:100E200008462468CC40E10701D50320F8BD012421
:100E300004FA00F7064D11462E681A4626EA070303
:100E40002B60FFF78BFE2046F8BD00BF500400105A
:100E500054040010074B1A68CA40D20708D5012273
:100E600002FA01F11A68002022EA010119607047B4
:100E7000012070475404001010B401248C40134B1F
:100E80004FF48070C3F80802D3F844022043C3F83B
:100E90004402C3F848121846C3F84C22D0F8003276
:100EA0000A4ADB05FAD50A4B4FF48071C2F80812E2
:100EB0001968012021EA04011960D2F834321C4378
:100EC000C2F834425DF8044B704700BF00C00050C8
:100ED00050040010744A2DE9F84F0446734B226009
:100EE0004FF0807B4FF01C0A4FF020094FF0240890
:100EF0004FF02C0E30274422C3F880B04FF0280C5E
:100F00000123342638253C2040214FF0480BC4F8FB
:100F100004A0C4F80C904FF0500A4FF05409C4F8E4
:100F20001480C4F824E04FF058084FF05C0EE762DC
:100F3000626560274C22C4F81CC06663E563606488
:100F4000E164C4F85CB070216266C4F86CA07C22D5
:100F5000C4F87490C4F87C80A3602361A361236209
:100F6000A3622363A3632364A3642365A365236649
:100F7000A36623676426A3676825C4F88030C4F895
:100F80008830C4F89030C4F89830C4F8A030C4F861
:100F9000A830C4F8B030C4F8B830C4F8C030C4F8D1
:100FA000C830C4F8D030C4F8D830C4F8E030C4F841
:100FB000E830C4F8F030C4F884E0C4F88C707423CE
:100FC0003B4F6C204FF0780B4FF0800A4FF08409B4
:100FD0004FF088084FF08C0C4FF0900EC4F8B430EE
:100FE000C4F89460C4F89C50C4F8A400C4F8AC10D1
:100FF000C4F8BCB0C4F8C420C4F8CCA0C4F8D490E1
:10100000C4F8DC80C4F8E4C0C4F8ECE0D7F8C4202D
:10101000284B42F00042C7F8C420D3F8F41F1A4608
:1010200041F01201C3F8F41FD2F8F83F214D122B02
:10103000FAD1214E736823F070537360736843F0E4
:10104000A0537360FFF764FD33691C4823F44033F9
:101050003361336943F48023336100F0BFFB2046E2
:10106000012140220023FFF707FF00210B46402209
:101070002046FFF701FF124B182012491C6000F0B8
:1010800055FB0D23C5F80432D5F83432204643F021
:101090000203C5F83432D5F8343243F00103C5F801
:1010A0003432BDE8F88F00BF6854000000E100E072
:1010B00000C00F4000C0005000C002409A99993E05
:1010C0004C0400102D130000012910B50C460BD95B
:1010D00008460121FFF7FCFC012202FA04F4054B4B
:1010E0001A6822431A6010BD00208021BDE810401C
:1010F000FFF7EEBC5004001010B508460C46002166
:10110000FFF7E6FC012202FA04F4034B1A6822EA14
:1011100004021A6010BD00BF50040010024B186892
:10112000C84000F00100704750040010784B2DE9D2
:10113000F047D3F800228046D20700F1A780744B15
:10114000D3F80022150724D5724A08211020C3F8CD
:101150000812C3F808021946C3F81022D1F8003269
:101160006B4ADC06FAD56C4B2021C2F808121146F6
:10117000C2F81032D1F80032654A9806FAD5D2F892
:101180001442E4B204F00C030C2B00F0B380E2062E
:1011900074D45F49D1F800325F0753D5D1F83032AB
:1011A000DE0716D50123C1F83832D1F80032584A8B
:1011B0009D06FAD5D2F81432404613F0040FD8F841
:1011C000003014BF5B689B689847514B0422C3F8FA
:1011D00008224F49D1F830329C073CD44C4CDFF800
:1011E0004891A24600260225D4F83032EB40DA07B7
:1011F00023D50127AF40C4F83872D4F800329B06DB
:10120000FBD5DAF81432D9F8003004223B43C9F890
:10121000003008EB0603CAF808229A683F49D00755
:1012200012D408685B6800EB6200984728B1D9F8CF
:10123000003023EA0707C9F800700135202D06F1B8
:101240000806D1D1BDE8F0870868521081585B6864
:101250001044CB58E9E70223C1F83832D1F8003204
:101260002B4A9806FAD5D8F800300421D2F8140297
:10127000DB684046C2F808129847AFE7630740D5DD
:10128000D8F8003040461B68984782E70268244837
:10129000102495691946C3F80842C3F81002D1F822
:1012A00000321B4ADB06FAD51E4B2021C2F8081279
:1012B0001146C2F81032D1F80032154A9F06FAD50D
:1012C000D2F81412174B2020C2F80802C9B21046F7
:1012D000C2F81032D0F800320D4C9E06FAD5D4F880
:1012E00014324046DBB241EA0321A8470123C4F887
:1012F000083224E7D8F8003040465B69002198475F
:1013000045E7D8F8003040465B6901219847B7E7C8
:1013100000C000500005FE000002FE004C0400105A
:101320000005F5000002F50054040010014B186898
:10133000FFF7FCBE4C040010704700BF10B50368F7
:101340000446D3F8CC309847B4F81C0110BD00BF58
:101350000048704798010010004870478001001055
:1013600070B50546FFF7D6FA437804463BBBC27812
:10137000062A3CD18188091221293AD0222936D166
:101380002B682846D3F8CC30984700283ED02B68ED
:101390002846D3F8C8309847002837D02B6828460D
:1013A000D3F8C83098472B682061D3F8CC30284652
:1013B00098470123E06023751846637800E0002019
:1013C000012B13D1E278092A10D1A28805F2251643
:1013D00085F82421208900220130C5F820013F2111
:1013E00022751846E660A375216170BD70BD184670
:1013F00070BD2846FFF794FA0028DED001230922A9
:10140000E0602375184622616378D9E7637800208D
:10141000D6E700BF38B50F4C05462368DB0704D577
:101420001C23A5F81C310C4838BD204601F0F9F802
:101430000028F5D0084B95F8651195F864212046F1
:1014400019749A7501F0FBF81C23A5F81C310248A9
:1014500038BD00BF5C04001038010010012938B508
:101460000C46054601D0002038BD03214022FFF77D
:1014700053FA284602214022FFF74EFA284602215D
:101480004022FFF7ABFA204638BD00BF70B50F4CC5
:1014900005462368DB0701D50D4870BD204601F0E5
:1014A000C0F80028F8D02B682846D3F8C8309847F1
:1014B000074E70762B682846D3F8C8309847030A41
:1014C0002046B37601F0BBF8014870BD5804001007
:1014D00054010010F8B50F4616461946BDF81820FD
:1014E000BDF81C3004469DF82050FFF75BFA064B10
:1014F00084F8647184F8656123601DB12046012180
:10150000FFF7FCF92046F8BD0855000010B540244F
:1015100082B00B680A1D00940321FFF767FA02B03E
:1015200010BD00BF90F86631012B05D04BB94123A7
:10153000A0F81C31044870473423A0F81C3103483C
:1015400070470020704700BFA0010010100200107B
:1015500070B50F4C05462368DB0701D50D4870BDFB
:10156000204601F05EF80028F8D02B682846D3F812
:10157000C8309847074E70762B682846D3F8C83095
:101580009847030A2046B37601F059F8014870BD28
:1015900060040010E40100102DE9F04F90F866712E
:1015A00093B00446894690469DF9705047B3012F89
:1015B00022D16D427F29EDB203F0070601AF3BDD7A
:1015C0004FF07F0B4FF0000A02E0B9F17F0F33DDDF
:1015D0000423204639468DF808608DF809B08DF84F
:1015E0000AA08DF80B500193FFF790FFA9F17F0C33
:1015F0000FFA8CF90028E8D1002013B0BDE8F08F75
:1016000012A9062241F8442D03F007034FEA2822CD
:101610006D424FEA29248DF80C508DF80D308DF86D
:1016200008908DF809408DF80A808DF80B20FFF79F
:101630006DFF13B0BDE8F08F19F1800F1CDA4FF089
:10164000800B4FF0000A02E019F1800F14DA042336
:10165000204639468DF808608DF809B08DF80AA04B
:101660008DF80B500193FFF751FF09F1800C0FFA31
:101670008CF90028E8D1BFE7B8F17F0F1CDD4FF0EF
:10168000000B4FF07F0A02E0B8F17F0F14DD042356
:10169000204639468DF808608DF809B08DF80AA00B
:1016A0008DF80B500193FFF731FFA8F17F080FFA77
:1016B00088F80028E8D19FE718F1800F1CDA4FF076
:1016C000000B4FF0800A02E018F1800F14DA0423B7
:1016D000204639468DF808608DF809B08DF80AA0CB
:1016E0008DF80B500193FFF711FF08F180080FFAF6
:1016F00088F80028E8D17FE70423204639468DF892
:1017000008608DF809908DF80A808DF80B500193D0
:10171000FFF7FCFE71E700BF10B5002482B090F81F
:1017200067310094FFF738FF02B010BD0C4A30B4A7
:10173000936894681A46B4F1805F0CD2094A03F1A9
:10174000C40553F8044BAB4242F8044FF9D1044BA3
:101750004FF080529A60103042F8201030BC704731
:1017600000ED00E0FCFFFF0F0A4C08B523680546BA
:10177000986801F093FD2368D86801F08FFD00F0B0
:101780000BF820B905B9FEE700F0B6FDFBE700F065
:1017900005F8F7E7AC02001000F00CB830B585B0E2
:1017A00018246D4620462946ABBE0446204605B0A7
:1017B00030BD00BF024B186800F00100704700BF49
:1017C000F0ED00E038B5054600F014FD044600F0E9
:1017D00011FD001BA842FAD338BD00BF08B504496B
:1017E00001F022FB01F070FCBDE80840FFF7EABF02
:1017F000002474494FF47A7303FB00F0FFF7E2BF53
:1018000002480349034A00F0F7BB00BF600600101E
:1018100002C0092003C00920022808B50BDD084BCF
:10182000C21E53F82200002143F8221028B1036899
:101830005B68984708BD002008BD4FF0FF3008BD29
:1018400064040010022870B50C4616460FDC0E4BDF
:101850001B680BB9FFF7D4FFA51936B114F8011BAB
:101860000A4800F019FBAC42F8D1304670BD084B75
:10187000033853F8200018B103681B68984770BDFF
:101880004FF0FF3070BD00BF64050010600600100F
:1018900064040010022810B50C4609DC0D4B1B68CF
:1018A0008BB10D4800F0ACFA01232070184610BD32
:1018B0000A4B033853F8200040B103689B689847EF
:1018C0000346184610BDFFF79BFFEAE74FF0FF33D2
:1018D000ECE700BF6405001060060010640400100F
:1018E000022808B508DD074B033853F8200028B15B
:1018F0000368DB68984708BD012008BD4FF0FF3042
:1019000008BD00BF64040010022808B508DD074BBD
:10191000033853F8200028B103681B69984708BDB5
:10192000002008BD4FF0FF3008BD00BF6404001068
:10193000022808B504D84FF400534B60002008BDBE
:1019400001F0F8FB092303604FF0FF3008BD00BF32
:10195000074A13681844EFF30881884202D21060E6
:1019600018467047034B0C221A604FF0FF30704747
:1019700044020010680600100649074A074B9A42C5
:10198000BEBF51F8040B42F8040BF8E70448804747
:1019900004480047A45A0000C8000010BC02001010
:1019A0004122000025020000FEE7FEE7FEE7FEE719
:1019B000FEE7FEE7FEE7FEE7FEE7FEE708B5154AAD
:1019C0009368C3F34203012B1ED0022B19D1124B93
:1019D000596F01310AD0D3F88010986F086093F8DE
:1019E000A61019B9516821F001015160186F0A4B16
:1019F00048B193F8A6302BB10021084A13689847E4
:101A000008BD08BD08BD08BD034A106F0028F9D005
:101A10001946F2E7008009406C05001068050010C7
:101A200070B50368294CA34249D041DD284CA3423C
:101A30002AD004F58044A34244D1264C08263ABB60
:101A400001290BD04568244AC5EBC50502EBC50446
:101A500094F8355094F83620EA4214D1012202FA63
:101A600001F5D1F1010138BF002102FA01F15C68F2
:101A700024EA05045C6003685B68194203D1B24044
:101A8000164BC3F8802070BD154C0726002AD7D00E
:101A9000012505FA01F176B2304605FA06F65A68D4
:101AA0000A435A602146FFF741FE0C4B1E6070BD91
:101AB000A4F58044A34205D10A4C0526BFE70A4C91
:101AC0000626BCE700242646B9E700BF0000014017
:101AD00000800940ED1A00006C05001000E100E0F4
:101AE000BD190000591B0000BD1B000008B5174AB6
:101AF0009368C3F34203012B21D0022B1CD1144B5A
:101B0000D3F8AC1001310BD0D3F8B810D3F8B00033
:101B1000086093F8DE1019B9516821F00101516095
:101B2000D3F8A8000A4B48B193F8DE302BB100215E
:101B3000084A1368984708BD08BD08BD08BD044A97
:101B4000D2F8A8000028F8D01946F1E700C00940F3
:101B50006C0500106805001008B5154A9368C3F3BA
:101B60004203012B1DD0022B18D1124B59680131B1
:101B700009D019699868086093F8361019B9516846
:101B800021F00101516018680A4B48B193F83630D2
:101B90002BB10021084A1368984708BD08BD08BD4D
:101BA00008BD044A10680028F9D01946F2E700BFC2
:101BB00000C000406C0500106805001008B5154A0B
:101BC0009368C3F34203012B1DD0022B18D1124B93
:101BD000D96B013109D0996C186C086093F86E10BC
:101BE00019B9516821F001015160986B0A4B48B155
:101BF00093F86E302BB10021084A1368984708BD4E
:101C000008BD08BD08BD044A906B0028F9D01946EC
:101C1000F2E700BF000001406C05001068050010ED
:101C20002DE9F00F8AB00890714B00689842099036
:101C300000F0CF8040F3BA806E4B099A9A4200F0D0
:101C4000908003F580439A420CD16B4BD3F8AC21C2
:101C500022F44022C3F8AC21D3F8AC2142F4802214
:101C6000C3F8AC21654B0A011B680593059CB3FBC7
:101C7000F2F302FB13429BB20193002A00F094801E
:101C80006000A2004FF001090023079006928046F1
:101C90009346CDF80C900491A2468C460293002204
:101CA000049C10465FFA89F7B8F1000FB5BFB8FB86
:101CB000F4F3BBFBF4F31B095B090133C3F34F03DC
:101CC00002EB0906002B5AD1012300285BD103FB4C
:101CD00006F5ED00BAFBF5F50135C1EB5505002D14
:101CE000B8BF6D42654505DA8D424ED0AC460290D4
:101CF000019303970132D0B287420C44D4D8B9F192
:101D00000F0F4FF0000349D0059A079C9244049AA4
:101D100006980A4409F10109A04483440492002B67
:101D2000BDD0029B039C43EA0410C0B2099A019CF7
:101D3000137BC4F3072143F080031373089A1368DD
:101D4000E2B2089C197123681A70236883F828008E
:101D500023681A7B02F07F021A730AB0BDE8F00F05
:101D60007047254BD3F8AC2122F44032C3F8AC21A4
:101D7000D3F8AC2142F48032C3F8AC2172E70028DA
:101D8000A5D0012BA3D80223A1E7B9F10F0F01932E
:101D9000039702908C464FF00103B5D1029C039942
:101DA00044EA0110C0B2C1E71020BFE7A3F58043A9
:101DB00098427FF457AF104BD3F8A82122F0C0020D
:101DC000C3F8A821D3F8A82142F04002C3F8A82103
:101DD00048E7094BD3F8A82122F44072C3F8A821A0
:101DE000D3F8A82142F48072C3F8A8213AE700BFD3
:101DF000000001400080094000C00F404802001070
:101E00000268137DDB07FCD543680949C3EBC303B4
:101E100001EBC303596810780131C0B207D059698A
:101E200004335B680B60536843F0010353607047F1
:101E30006C0500104368174AC3EBC303DB00D118DD
:101E400010B4CC69013411D00A6B01F11C035B683A
:101E500012681A4203D000205DF8044B70470368F3
:101E60005DF8044B187DC0F38010704703681B7D3C
:101E70009B0608D491F834005DF8044B0F288CBF02
:101E8000002001207047002381F8343001205DF8E4
:101E9000044B70476C05001038B504460D462046CB
:101EA000FFF7C8FF0028FAD02368EDB21D70626802
:101EB000054BC2EBC20203EBC20393F8342001329C
:101EC00083F8342038BD00BF6C0500102DE9F04FB9
:101ED0000446454D006883B0A8420E469046994698
:101EE00043D06568002301932A46DFF808A1EF007C
:101EF000C2EBC202781B4FF0000E0AEBC0000AEBE7
:101F0000C20C4FF0FF33C3614360714672462046F6
:101F10008CF835E0FFF784FD16B903B0BDE8F08F0B
:101F20003249404600F0AAFA31498346484600F05B
:101F3000A5FAB21E012A38D9012EEED1B8F1FF3F21
:101F4000EBD02949226807208B45107215D1019BDF
:101F50009BB11B7C019A254943F040034046137412
:101F600003B0BDE8F04F00F057BA037C656803F09A
:101F70003F03037462680190B7E77D1B0AEBC5005D
:101F800041460430002200F02BFA62680125C2EBC2
:101F9000C2020AEBC20320462A46002183F83550CC
:101FA00003B0BDE8F04FFFF73BBDB9F1FF3F09D0EB
:101FB0000D4A90420CD0781B0AEBC00049461C30F9
:101FC00000F0E6F9032EA8D1B8F1FF3FB9D1A4E79C
:101FD000019B002BEFD01A7C484642F080021A7415
:101FE000034900F019FAEDE700000140C056000077
:101FF000BC5700006C0500102DE9F04105460F4666
:1020000008465949164600F047FA584904463046F2
:1020100000F042FA0146204600F01EFA544B0446F6
:10202000984228607FD06FD9524B98424BD003F52D
:102030008043984206D1504BD3F8C42042F000723E
:10204000C3F8C420012323722B684FF00008C3F8A3
:10205000048028464FF41651FFF7E2FD2B68032257
:102060001A733846404900F0D7F930463F4900F02E
:10207000D3F97A1C03D03846414600F09DFA731C10
:1020800003D03046002100F097FA394B9C4247D0EC
:1020900021D9384B9C4263D003F580439C424AD1FE
:1020A00003236B603549C3EBC3034FF0FF3428466D
:1020B00001EBC305224623466C60EC610021BDE8BC
:1020C000F041FFF703BF2C4BD3F8C42042F08072DD
:1020D000C3F8C420B6E7A3F580439C422BD1274E1A
:1020E0004FF0FF3400216960224623462846746081
:1020F000F461FFF7EBFE224B01221A602868696841
:10210000204B03C3BDE8F081A3F58043984299D1E9
:10211000194BD3F8C42042F00802C3F8C42091E759
:1021200001236B60BEE7144BD3F8C42042F01002C9
:10213000C3F8C42086E76B681049C3EBC3034FF0B4
:10214000FF3601EBC30732463346284600217E6046
:10215000FE61FFF7BBFE0C4B9C42CCD0BDE8F0818A
:1021600002236B609EE700BF50570000E45600005A
:10217000000001400080094000C00F406C050010C5
:10218000640500106006001000C00040134A38B516
:1021900013680BBB12490124D1F8C4501460114AD2
:1021A000114845F40005C1F8C4501367036801F1F4
:1021B000437101F5F45103319B08A1FB03039B0C10
:1021C000013B022151600420D36008495460FFF7AD
:1021D000ADFA074B10221A6038BD00BF4C06001044
:1021E00000C00F400040094048020010CD2400000C
:1021F00000E100E008B5044B1B680BB9FFF7C6FF10
:10220000024B986808BD00BF4C0600100040094012
:10221000034B98615A6942F001025A61704700BF4E
:1022200000400940024B5A6922F001025A6170478E
:1022300000400940014B01221A60704700400940EC
:102240002B4A202370B4C2F8A031D2F8A0319806EE
:1022500045D4274B022100250124AA2055220B2614
:10226000C3F80411C3F8A8511946C3F8AC51C3F818
:102270000C41C3F88460C3F88C00C3F88C20C3F809
:102280008040C3F88C00C3F88C20D1F88830184AFD
:102290005B01FAD50321AA205523C2F88010C2F8A9
:1022A0008C001146C2F88C30D1F88830104A13F0F7
:1022B000407FF9D00F4900230520C2F80801C2F879
:1022C000C410C2F8C831136870BC23F4704323F003
:1022D0003A0343F4405343F03A0313607047D2F893
:1022E000A0315906B5D4D2F8A0315906F7D5B0E7D8
:1022F00000C00F40DE87280400B599B072B61749B8
:10230000684600F057F806A8154900F053F80CA8E5
:10231000144900F04FF812A8134900F04BF8039B42
:10232000019A0A981A60079B109903600D9B159AF1
:102330000B60139B96201360FFF75CFA049B019AD5
:1023400009981A60079B0F9903600D9B169A0B6002
:10235000139B96201360FFF74DFAE0E732C0092087
:1023600034C0092035C0092037C009200FB400B59A
:10237000064A83B004AB126853F8041BD0681A46AF
:10238000019301F0C7FA0120FFF7EEF9AC0200104B
:1023900038B50D46044600F0C5F8013509D0204691
:1023A000002100F0DFF820460321BDE8384000F0AE
:1023B000D5B838BD38B50D46044600F0B3F8013540
:1023C0000CD02369626820461A60012100F0CAF827
:1023D00020460221BDE8384000F0C0B838BD00BF3B
:1023E00070B50D461646044600F09CF8013511D034
:1023F00066B9236962681A602046012100F0B2F8CC
:1024000020460221BDE8704000F0A8B8E368626889
:102410001A60F1E770BD00BF431C10B5044618D028
:102420000B68581C04D10FE051F80C3F5A1C0BD01C
:102430009C42F9D12046896800F0A6F82046022186
:10244000BDE8104000F0B8B80248BDE81040FFF702
:102450008DBF10BDE0570000884208B50AD0431C6C
:1024600007D0013106D00448FFF780FF4FF0FF305E
:1024700008BD084608BD00BFF45700000B685A1C91
:1024800004D107E051F80C3F5A1C03D08342F9D124
:10249000486870471846704708B5431C0CD00B6855
:1024A0005A1C04D109E051F80C3F5A1C05D098423F
:1024B000F9D14868411C00D008BD0348FFF756FF1A
:1024C0004FF0FF30F8E700BF08580000F8B5FFF7FD
:1024D000B1FE124E124F3368ABB1D3E90045FFF79E
:1024E00089FE221A65F1000310461946012871F190
:1024F00000030CDA31683A68CB683360002AEBD00D
:1025000088689047E7E7BDE8F840FFF78BBE33687F
:10251000D3E90001BDE8F840FFF77ABE500600108D
:102520005406001038B504464B1C0D46216014D0EB
:102530000846002100F028F805F01F03012098400C
:1025400025F01F0505F1180105F11C0205F1140322
:10255000A5606060E1602261636138BD006800F0E1
:102560002BB800BF41B1012905D1836842681968C1
:102570000A431A6070477047836841681A6822EA04
:1025800001021A60704700BF00F16040A0F51C20F6
:1025900000F00F035B0003229A40994003099B005F
:1025A00003F1804303F53033186820EA02021A6011
:1025B0001A6811431960704700F16040A0F51C20B3
:1025C00030B4C1F3800200F01F0402FA04F443099E
:1025D0009B0003F1804303F530339D6E25EA04052B
:1025E0009D669D6E2C439C669AB900F00F035B00BC
:1025F00003229A4001FA03F30009800000F18040B1
:1026000000F53030016C21EA02020264026C1343CF
:10261000036430BC704700BF03460846194600F00B
:1026200079BD08B50368DB0707D443780BB1FDF724
:1026300013FE01234370184608BD002008BD012386
:102640000360704781F0004102E000BF83F0004367
:1026500030B54FEA41044FEA430594EA050F08BF3D
:1026600090EA020F1FBF54EA000C55EA020C7FEA01
:10267000645C7FEA655C00F0E2804FEA5454D4EB7E
:102680005555B8BF6D420CDD2C4480EA020281EA48
:10269000030382EA000083EA010180EA020281EA80
:1026A0000303362D88BF30BD11F0004F4FEA0131D2
:1026B0004FF4801C4CEA113102D0404261EB4101E1
:1026C00013F0004F4FEA03334CEA133302D0524267
:1026D00063EB430394EA050F00F0A780A4F1010423
:1026E000D5F1200E0DDB02FA0EFC22FA05F280185D
:1026F00041F1000103FA0EF2801843FA05F3594143
:102700000EE0A5F120050EF1200E012A03FA0EFCC1
:1027100028BF4CF0020C43FA05F3C01851EBE371EB
:1027200001F0004507D54FF0000EDCF1000C7EEB08
:1027300000006EEB0101B1F5801F1BD3B1F5001F46
:102740000CD349085FEA30004FEA3C0C04F1010465
:102750004FEA445212F5800F80F09A80BCF1004F8E
:1027600008BF5FEA500C50F1000041EB045141EA10
:10277000050130BD5FEA4C0C404141EB010111F411
:10278000801FA4F10104E9D191F0000F04BF0146BC
:102790000020B1FA81F308BF2033A3F10B03B3F19A
:1027A00020020CDA0C3208DD02F1140CC2F10C022A
:1027B00001FA0CF021FA02F10CE002F11402D8BF88
:1027C000C2F1200C01FA02F120FA0CFCDCBF41EA54
:1027D0000C019040E41AA2BF01EB0451294330BD23
:1027E0006FEA04041F3C1CDA0C340EDC04F1140400
:1027F000C4F1200220FA04F001FA02F340EA0300D7
:1028000021FA04F345EA030130BDC4F10C04C4F11C
:10281000200220FA02F001FA04F340EA03002946FC
:1028200030BD21FA04F0294630BD94F0000F83F446
:10283000801306BF81F480110134013D4EE77FEA29
:10284000645C18BF7FEA655C29D094EA050F08BF75
:1028500090EA020F05D054EA000C04BF1946104656
:1028600030BD91EA030F1EBF0021002030BD5FEA9A
:10287000545C05D14000494128BF41F0004130BDC2
:1028800014F580043CBF01F5801130BD01F0004516
:1028900045F0FE4141F470014FF0000030BD7FEA89
:1028A000645C1ABF194610467FEA655C1CBF0B4684
:1028B000024650EA013406BF52EA033591EA030F9B
:1028C00041F4002130BD00BF90F0000F04BF002193
:1028D000704730B54FF4806404F132044FF00005C6
:1028E0004FF0000150E700BF90F0000F04BF00213F
:1028F000704730B54FF4806404F1320410F00045A5
:1029000048BF40424FF000013EE700BF42004FEA9F
:10291000E2014FEA31014FEA02701FBF12F07F431C
:1029200093F07F4F81F06051704792F0000F14BF19
:1029300093F07F4F704730B54FF4607401F000455D
:1029400021F0004120E700BF50EA010208BF7047B4
:1029500030B54FF000050AE050EA010208BF7047A9
:1029600030B511F0004502D5404261EB41014FF412
:10297000806404F132045FEA915C3FF4DCAE4FF016
:1029800003025FEADC0C18BF03325FEADC0C18BFFD
:10299000033202EBDC02C2F1200300FA03FC20FA4E
:1029A00002F001FA03FE40EA0E0021FA02F114449B
:1029B000C1E600BF70B54FF0FF0C4CF4E06C1CEAB0
:1029C00011541DBF1CEA135594EA0C0F95EA0C0F25
:1029D00000F0DEF82C4481EA030621EA4C5123EA98
:1029E0004C5350EA013518BF52EA033541F48011C7
:1029F00043F4801338D0A0FB02CE4FF00005E1FB7A
:102A000002E506F00042E0FB03E54FF00006E1FBC3
:102A100003569CF0000F18BF4EF0010EA4F1FF0406
:102A2000B6F5007F64F5407404D25FEA4E0E6D4146
:102A300046EB060642EAC62141EA55514FEAC52057
:102A400040EA5E504FEACE2EB4F1FD0C88BFBCF5D3
:102A5000E06F1ED8BEF1004F08BF5FEA500E50F184
:102A6000000041EB045170BD06F0004646EA01014A
:102A700040EA020081EA0301B4EB5C04C2BFD4EB7C
:102A80000C0541EA045170BD41F480114FF0000E75
:102A9000013C00F3AB8014F1360FDEBF002001F0E3
:102AA000004170BDC4F10004203C35DA0C341BDC5D
:102AB00004F11404C4F1200500FA05F320FA04F02F
:102AC00001FA05F240EA020001F0004221F0004163
:102AD00010EBD37021FA04F642EB06015EEA430ED6
:102AE00008BF20EAD37070BDC4F10C04C4F1200506
:102AF00000FA04F320FA05F001FA04F240EA0200B9
:102B000001F0004110EBD37041F100015EEA430E89
:102B100008BF20EAD37070BDC4F1200500FA05F2A9
:102B20004EEA020E20FA04F301FA05F243EA020328
:102B300021FA04F001F0004121FA04F220EA020037
:102B400000EBD3705EEA430E08BF20EAD37070BD7D
:102B500094F0000F0FD101F00046400041EB01015D
:102B600011F4801F08BF013CF7D041EA060195F03F
:102B7000000F18BF704703F00046520043EB0303F9
:102B800013F4801F08BF013DF7D043EA06037047E6
:102B900094EA0C0F0CEA135518BF95EA0C0F0CD0F1
:102BA00050EA410618BF52EA4306D1D181EA030137
:102BB00001F000414FF0000070BD50EA410606BF31
:102BC0001046194652EA430619D094EA0C0F02D176
:102BD00050EA013613D195EA0C0F05D152EA0336BB
:102BE0001CBF104619460AD181EA030101F00041D9
:102BF00041F0FE4141F470014FF0000070BD41F022
:102C0000FE4141F4780170BD70B54FF0FF0C4CF4FB
:102C1000E06C1CEA11541DBF1CEA135594EA0C0F1A
:102C200095EA0C0F00F0A7F8A4EB050481EA030E67
:102C300052EA03354FEA013100F088804FEA03334E
:102C40004FF0805545EA131343EA12634FEA02221C
:102C500045EA111545EA10654FEA00260EF00041DD
:102C60009D4208BF964244F1FD0404F5407402D22F
:102C70005B084FEA3202B61A65EB03055B084FEAC0
:102C800032024FF480104FF4002CB6EB020E75EBBD
:102C9000030E22BFB61A754640EA0C005B084FEAE5
:102CA0003202B6EB020E75EB030E22BFB61A754662
:102CB00040EA5C005B084FEA3202B6EB020E75EBAD
:102CC000030E22BFB61A754640EA9C005B084FEA25
:102CD0003202B6EB020E75EB030E22BFB61A754632
:102CE00040EADC0055EA060E18D04FEA051545EA21
:102CF00016754FEA06164FEAC30343EA52734FEACA
:102D0000C2025FEA1C1CC0D111F4801F0BD141EA42
:102D100000014FF000004FF0004CB6E711F4801FA7
:102D200004BF01430020B4F1FD0C88BFBCF5E06F87
:102D30003FF6AFAEB5EB030C04BFB6EB020C5FEA97
:102D4000500C50F1000041EB045170BD0EF0004EEC
:102D50004EEA113114EB5C04C2BFD4EB0C0541EA1E
:102D6000045170BD41F480114FF0000E013C90E61B
:102D700045EA060E8DE60CEA135594EA0C0F08BFDF
:102D800095EA0C0F3FF43BAF94EA0C0F0AD150EADE
:102D900001347FF434AF95EA0C0F7FF425AF104671
:102DA00019462CE795EA0C0F06D152EA03353FF499
:102DB000FDAE1046194622E750EA410618BF52EA16
:102DC00043067FF4C5AE50EA41047FF40DAF52EAEA
:102DD00043057FF4EBAE12E74FEA410212F5001211
:102DE00015D211D56FF47873B3EB625212D94FEA52
:102DF000C12343F0004343EA505311F0004F23FA3C
:102E000002F018BF404270474FF00000704750EA90
:102E1000013005D111F0004008BF6FF0004070474D
:102E20004FF00000704700BF4FF0FF0C1CEAD0527B
:102E30001EBF1CEAD15392EA0C0F93EA0C0F6FD01D
:102E40001A4480EA010C400218BF5FEA41211ED0FB
:102E50004FF0006343EA501043EA5111A0FB0131E7
:102E60000CF00040B1F5000F3EBF490041EAD371BC
:102E70005B0040EA010062F17F02FD2A1DD8B3F138
:102E8000004F40EBC25008BF20F00100704790F0A7
:102E9000000F0CF0004C08BF49024CEA502040EAF9
:102EA00051207F3AC2BFD2F1FF0340EAC2507047BF
:102EB00040F400004FF00003013A5DDC12F1190FFD
:102EC000DCBF00F000407047C2F10002410021FA6F
:102ED00002F1C2F1200200FA02FC5FEA310040F187
:102EE000000053EA4C0308BF20EADC70704792F000
:102EF000000F00F0004C02BF400010F4000F013A38
:102F0000F9D040EA0C0093F0000F01F0004C02BF32
:102F1000490011F4000F013BF9D041EA0C018FE7A1
:102F20000CEAD15392EA0C0F18BF93EA0C0F0AD0A7
:102F300030F0004C18BF31F0004CD8D180EA0100CD
:102F400000F00040704790F0000F17BF90F0004F66
:102F5000084691F0000F91F0004F14D092EA0C0F48
:102F600001D142020FD193EA0C0F03D14B0218BFDB
:102F7000084608D180EA010000F0004040F0FE4021
:102F800040F40000704740F0FE4040F440007047BD
:102F90004FF0FF0C1CEAD0521EBF1CEAD15392EA3C
:102FA0000C0F93EA0C0F69D0A2EB030280EA010C2C
:102FB00049024FEA402037D04FF0805343EA1111C5
:102FC00043EA10130CF000408B4238BF5B0042F123
:102FD0007D024FF4000C8B4224BF5B1A40EA0C00C8
:102FE000B3EB510F24BFA3EB510340EA5C00B3EBFA
:102FF000910F24BFA3EB910340EA9C00B3EBD10FE8
:1030000024BFA3EBD10340EADC001B0118BF5FEA39
:103010001C1CE0D1FD2A3FF650AF8B4240EBC25062
:1030200008BF20F0010070470CF0004C4CEA502023
:103030007F32C2BFD2F1FF0340EAC250704740F472
:1030400000004FF00003013A37E792F0000F00F064
:10305000004C02BF400010F4000F013AF9D040EAE2
:103060000C0093F0000F01F0004C02BF490011F476
:10307000000F013BF9D041EA0C0195E70CEAD1536E
:1030800092EA0C0F08D142027FF47DAF93EA0C0F55
:103090007FF470AF084676E793EA0C0F04D14B0239
:1030A0003FF44CAF08466EE730F0004C18BF31F0EB
:1030B000004CCAD130F000427FF45CAF31F00043E5
:1030C0007FF43CAF5FE700BF4FEA4002B2F1FE4F32
:1030D0000FD34FF09E03B3EB12620DD94FEA0023DA
:1030E00043F0004310F0004F23FA02F018BF4042B3
:1030F00070474FF00000704712F1610F01D142029A
:1031000005D110F0004008BF6FF0004070474FF04D
:103110000000704770B5064C06460D4613462CB1AC
:1031200031462A460220AFF3008070BD204670BDB4
:1031300000000000014B1868704700BFAC0200108F
:103140008A892DE9F041054610070C4657D44B6893
:10315000002B02DC0B6C002B18DDE66AB6B102F422
:103160008052002392B22F682B600AB1626D10E08A
:10317000216A28460123B047411C024609D12B6829
:103180003BB11D2B01D0162B46D12F600020BDE88E
:10319000F081A3895B0705D56368D21A636B0BB115
:1031A000236CD21AE66A2846216A0023B047461CDF
:1031B000A28905D12B681BB11D2B01D0162B19D16B
:1031C000002363602369D104236004D5421C01D12C
:1031D0002B6803B96065616B2F600029D6D004F1BC
:1031E0004403994202D0284600F074F9002060633D
:1031F000BDE8F08142F04002A281BDE8F0810E6995
:10320000002EC3D00B680E60C6EB030893070CBFFB
:103210004B6900238B6012E0A3894FF0FF3043F02D
:103220004003A381BDE8F081A76A2846216A32469F
:103230004346B8470028EFDD0644C0EB0808B8F164
:10324000000FF1DCA2E7000038B50B6905460C461B
:10325000DBB118B183690BB900F086F80C4B9C42C6
:1032600001D16C6808E00B4B9C4201D1AC6803E0D3
:10327000094B9C4208BFEC68B4F90C302BB12846CE
:103280002146BDE83840FFF75BBF002038BD00BFD6
:10329000285800004858000068580000014620B92E
:1032A000044B0549186800F0C9B8044B1868FFF7CB
:1032B000CBBF00BF8C58000049320000AC020010A8
:1032C000F8B5074600F1480494B1A5686668013E68
:1032D0000CD4AB89012B07D9B5F90E30013303D0DB
:1032E00038462946FFF7B0FF6835F0E72468EBE77A
:1032F000F8BD0000002310B50446036043608360FE
:1033000081814366C28103614361836119465C30F8
:10331000082200F0D7F8054B24626362044BA362D5
:10332000044BE362044B236310BD00BF253600004D
:10333000473600007F360000A336000070B54B1EF4
:1033400068255D430E4605F1740100F007F9044657
:1033500040B1002180E842000C30A06005F1680215
:1033600000F0B0F8204670BD836910B5044633BB49
:103370008364C3640365124B124A1B6882629842DD
:1033800004BF0123836100F01FF86060204600F055
:103390001BF8A060204600F017F80421E06000222E
:1033A0006068FFF7A7FFA06809210122FFF7A2FFCD
:1033B000E06812210222FFF79DFF0123A36110BDE7
:1033C0008C580000C1320000F8B51B4B07461E6840
:1033D000B36913B93046FFF7C7FF4836B46873685E
:1033E000013B04D4B4F90C5075B16834F8E7336884
:1033F0002BB938460421FFF7A1FF306008B13668C9
:10340000ECE70C233B60F8BD4FF6FF73E38101232B
:10341000A38165662560A560656025616561A5611C
:1034200004F15C002946082200F04CF86563A563AE
:10343000A564E5642046F8BD8C5800002DE9F843EA
:103440008046894600F14804002694B1A568676863
:10345000013F0CD4AB89012B07D9B5F90E300133EC
:1034600003D040462946C84706436835F0E724683C
:10347000EBE73046BDE8F88370B50E4B0E4D0024E7
:10348000ED1AAD101E46AC4204D056F824209047E9
:103490000134F8E701F06AFF084D094B0024ED1AEA
:1034A000AD101E46AC4204D056F82420904701349B
:1034B000F8E770BDB0020010B0020010B8020010B2
:1034C000B002001002440346934202D003F8011BED
:1034D000FAE7704730B500293CD051F8042C0B1F97
:1034E0001D49002AB8BF9B180A680C4612B95A60D9
:1034F0000B6030BD93420DD219685818904203D129
:103500005A581144426819605A60236030BD99428C
:1035100003D80A4651680029F9D1146815199D424B
:103520000AD11B682344D0188842136012D108685E
:10353000034413604B680CE002D90C23036030BDD8
:1035400018681C188C4203D10C6849682044186024
:103550005960536030BD00BF5C06001070B5CD1CD3
:1035600025F0030508350C2D38BF0C25002D064627
:103570003FDB8D423DD3214B1C6818462146A1B14B
:103580000B685B1B0ED40B2B03D90B60CC18CD50F2
:103590001FE08C4202D1626802601AE04B686360EF
:1035A0000C4616E00C464968E9E7154C23681BB940
:1035B000304600F027F820602946304600F022F817
:1035C000431C014615D0C41C24F0030484420AD1D4
:1035D000256004F10B00231D20F00700C31A0BD057
:1035E0005A42E25070BD3046611A00F00BF80130CB
:1035F000EED10C233360002070BD00BF5C060010CC
:103600005806001038B5064C0023054608462360CE
:10361000FEF79EF9431C02D1236803B12B6038BD2D
:103620006806001010B50C46B1F90E1000F056FCFB
:10363000002803DB636D0344636510BDA38923F495
:103640008053A38110BD2DE9F0411D468B890746AB
:10365000DB050C46164605D5B1F90E1000220223F3
:1036600000F0D0FBA389384623F48053A381B4F93A
:103670000E1032462B46BDE8F04100F033BB10B5CA
:103680000C46B1F90E1000F0BDFB431CA38903D119
:1036900023F48053A38110BD43F48053A38160655C
:1036A00010BDB1F90E1000F09DBB034613F8012BBD
:1036B000002AFBD1181A01387047936810B5013BF6
:1036C000002B936005DA9469A34208DBCBB20A2B86
:1036D00005D01368581C10601970C8B210BDBDE841
:1036E000104000F0ABBAF8B505460E461446D718A0
:1036F000BC4208D0284614F8011B3246FFF7DDFF14
:10370000431CF5D100E00020F8BD00002DE9F04396
:103710009DB00D4617460393064618B183690BB951
:10372000FFF722FE734B9D4201D1756808E0724B92
:103730009D4201D1B56803E0704B9D4208BFF5681A
:10374000AB8918070AD52B6943B1002309932023BD
:103750008DF8293030238DF82A3038E0304629465C
:1037600000F0D2FA0028F0D04FF0FF30BEE0039A0C
:10377000111D12680391002A70DB0792013423782F
:103780002E2B7DD05E4F21783846032200F098FB27
:1037900030B1C71B4020B840049B0134034304935D
:1037A000217858480622671C8DF8281000F088FB05
:1037B000002800F08980544B002B7CD1039B0733F9
:1037C00023F0070308330393099B434409933B46C3
:1037D0001C4613F8012B1AB9B4EB07090ED002E00E
:1037E000252AF5D1F8E7304629463A464B46FFF7F9
:1037F0007AFF013075D0099B4B4409932378002B45
:103800006FD000234FF0FF32049307930592069385
:103810008DF853301A9304F101093C4F4C46384659
:103820002178052200F04CFB09F10109049B28B125
:10383000C71B0120B84003430493EEE7D90644BFF9
:1038400020228DF853201A0744BF2B228DF85320D5
:1038500022782A2A8BD0079B214605E0524243F06A
:1038600002030792049389E70C4622780131303A2B
:10387000092A03D80A2000FB0323F5E707937EE714
:1038800063782A2B09D1039B02341A1D1B6803920B
:10389000002BB8BF4FF0FF330BE0611C00230C4638
:1038A00022780131303A092A03D80A2000FB032389
:1038B000F5E7059366E703AB0093304604A92A4673
:1038C000134BAFF3008007E003AB0093304604A92D
:1038D0002A460F4B00F09EF8B0F1FF3F80467FF480
:1038E00073AFAB895B063FF53FAF09981DB0BDE8EC
:1038F000F08300BF285800004858000068580000B6
:10390000965800009A5800000000000090580000EF
:10391000E736000030B51346044A05460C461068E9
:1039200029462246BDE83040FFF7F0BEAC02001049
:103930002DE9F84315461F468A680B6906469A42E8
:10394000A8BF13462B6091F843200C46DDF8208079
:103950000AB101332B602368990602D52B68023324
:103960002B60236813F006091DD094F843302268B9
:10397000003318BF012392061FD5E118302081F8CB
:1039800043005A1C94F845102244023382F8431035
:1039900013E03046394604F119020123C0470130D3
:1039A00007D009F10109E2682B68D31A9945F0DBC9
:1039B000DBE74FF0FF30BDE8F8833046394604F1CD
:1039C0004302C0470130F4D023682A6803F006039D
:1039D000E168042B08BFC2EB01052369A2680CBF94
:1039E00025EAE57500259A42C4BFC3EB0203ED1832
:1039F0004FF00009A9450ADA3046394604F11A02A7
:103A00000123C0470130D4D009F10109F2E70020B9
:103A1000BDE8F8832DE9FF470E7E80466E2E0C46EA
:103A200091469A460C9D01F1430000F0A58011D803
:103A3000632E22D009D8002E00F0AF80582E40F01F
:103A4000BF8081F845607B4A4FE0642E1ED0692E0E
:103A50001CD0B5E0732E00F0A48009D86F2E2BD0B7
:103A6000702E40F0AD800B6843F020030B6038E00F
:103A7000752E21D0782E34D0A2E02B6801F14207B8
:103A80001A1D1B682A6081F842309DE022682B686D
:103A900012F0800F03D01A1D2A601D6805E0510640
:103AA000F9D51A1D2A60B3F90050002D39DA2D23FB
:103AB0006D4284F8433034E022682B6812F0800FA6
:103AC00003D01A1D2A601D6804E05206F9D51A1D9C
:103AD0002A601D88237E574A6F2B14BF0A230823B0
:103AE0001BE07823544A84F845302368296813F092
:103AF000800F01F104062E6001D00D6802E05F0620
:103B0000FBD50D88DE0744BF43F0200323601DB9B9
:103B1000236823F0200323601023002184F843103E
:103B200001E0444A0A236668002EA66003DB216890
:103B300021F00401216005B96EB104F14201B5FB29
:103B4000F3F603FB1655555D0F4601F8015935464E
:103B5000002EF4D100E00746082B0AD12368DD07C8
:103B600007D5626823699A4203DC302307F8013CD9
:103B7000013FC01B20612CE009682B6811F0800F09
:103B8000626904D0191D29601B681A6005E04906A6
:103B9000F8D5191D29601B681A8000232361074688
:103BA00017E02B681A1D2A601F683846FFF77DFD55
:103BB00063682061984288BF23612369636005E0E0
:103BC00004F1420784F8426001232361002384F852
:103BD0004330CDF800A04046214603AA4B46FFF7EC
:103BE000A7FE013002D14FF0FF301FE040464946AA
:103BF0003A462369D0470130F5D023689B0705D4A6
:103C0000E068039B9842B8BF18460FE00025E268C1
:103C1000039BD31A9D42F3DA4046494604F1190248
:103C20000123D0470130DED00135F0E704B0BDE814
:103C3000F08700BFA1580000B258000070B50E46D2
:103C40001446054618B183690BB9FFF78DFB224B6B
:103C50009C4201D16C6808E0204B9C4201D1AC68C9
:103C600003E01F4B9C4208BFEC68A369A360A389D3
:103C70001A0709D523693BB123692068F6B2C01A37
:103C8000636998420FDB08E02846214600F03CF8C3
:103C90000028F1D04FF0FF3070BD28462146FFF7D5
:103CA000D3FA0028F6D1A3680130013BA360236852
:103CB0005A1C22601E706369984204D0A389DB07F6
:103CC00007D50A2E05D128462146FFF7BDFA002860
:103CD000E0D1304670BD00BF2858000048580000B1
:103CE0006858000038B5074C05460020206008469B
:103CF00011461A46FDF7A6FD431C02D1236803B105
:103D00002B6038BD68060010324B70B51D68064642
:103D10000C4625B1AB6913B92846FFF725FB2E4B9E
:103D20009C4201D16C6808E02C4B9C4201D1AC68EC
:103D300003E02B4B9C4208BFEC68A28993B21907A1
:103D400020D4DD0605D4092342F040023360A2816D
:103D50003BE0580712D5616B41B104F1440399422D
:103D600002D03046FFF7B6FB00236363A38923F03C
:103D70002403A3810023636023692360A38943F0A4
:103D80000803A38123694BB9A38903F42073B3F516
:103D9000007F03D03046214600F046F8A38913F097
:103DA000010205D00022A26062695242A26103E0D2
:103DB000990758BF6269A26022694AB903F080007E
:103DC00080B230B143F04003A3814FF0FF3070BDAB
:103DD000002070BDAC0200102858000048580000B8
:103DE0006858000038B5064C002305460846236095
:103DF000FDF712FD431C02D1236803B12B6038BDCF
:103E00006806001038B5074C0546002020600846BB
:103E100011461A46FDF778FD431C02D1236803B111
:103E20002B6038BD68060010F0B58B8991B09E07F5
:103E300005460C4625D4B1F90E10002908DAA389ED
:103E4000002713F0800F14BF40264FF480660DE06A
:103E500001AA00F055F80028F1DB029F4FF48066BC
:103E600007F47047B7F500514F424F41284631469D
:103E7000FFF774FB60B9A3899A051DD443F00203D0
:103E8000A38104F14703236023610123636113E0ED
:103E90000A4BAB62A389206043F08003A3812061B9
:103EA00066614FB12846B4F90E1000F03BF818B126
:103EB000A38943F00103A38111B0F0BDC13200001A
:103EC00010B5C9B202449042034605D01C780130B7
:103ED0008C42F8D1184610BD002010BD38B5074CF3
:103EE000054600202060084611461A46FDF7D2FC20
:103EF000431C02D1236803B12B6038BD6806001053
:103F000038B5074C00230546084611462360FDF7E7
:103F10000FFD431C02D1236803B12B6038BD00BFE5
:103F20006806001038B5064C002305460846236095
:103F3000FCF78CF9431C02D1236803B12B6038BD18
:103F40006806001070B5204E21F00044B44286B0DF
:103F500002460B4619DD1D4DAC4203DDFEF776FB34
:103F600006B070BD02AA00F07FF800F0030001283F
:103F70001BD002280FD000B301230093DDE902011A
:103F8000DDE9042300F094FFEAE70022002300F0BB
:103F90008BFA06B070BDDDE90201DDE9042300F013
:103FA00083FA01F1004106B070BD0090DDE9042301
:103FB000DDE9020100F07CFFF3E7DDE90201DDE964
:103FC000042300F071FACBE7FB21E93FFFFFEF7F0D
:103FD00070B5224E21F00044B44286B002460B4632
:103FE0001ADD1F4DAC4203DDFEF730FB06B070BD9D
:103FF00002AA00F039F800F0030001281DD00228C1
:1040000012D008B3DDE90201DDE9042300F04CFA27
:1040100001F1004106B070BD00230093002200238F
:1040200000F046FF06B070BD01230093DDE90201F8
:10403000DDE9042300F03CFFEAE7DDE90201DDE908
:10404000042300F031FAD1E701230093DDE90201F6
:10405000DDE9042300F02CFFC8E700BFFB21E93FA6
:10406000FFFFEF7F000000002DE9F04F964B21F09D
:1040700000469E4291B004460D468B46904640F362
:104080008180924B9E4226DC85A3D3E90023002940
:1040900040F3A081FEF7DAFA8D4B04469E420D46AE
:1040A00000F0858080A3D3E90023FEF7CFFA024613
:1040B0000B46C8E9002320462946FEF7C7FA7AA333
:1040C000D3E90023FEF7C2FA0127C8E90201384606
:1040D00011B0BDE8F08F7F4B9E4240F385807E4B50
:1040E0009E425ADC4FEA2659A9F21649A6EB095519
:1040F00029460446FEF770FEFEF7F6FB06460F461D
:1041000002460B4620462946CDE90A67FEF79EFA8D
:104110000022724BFEF74EFC0F460646FEF75CFE91
:10412000FEF7E2FB02460B4604460D463046394692
:10413000CDE90C45FEF78AFA0022684BFEF73AFCFF
:1041400000220023CDE90E0101F0DEF8002800F086
:104150006D81002320462946002201F0D5F8002871
:1041600014BF012302235E480221019000914A46B8
:104170000AA8414600F0BCFABBF1000FC0F248812A
:10418000074606E000220023C8E90045C8E90223EB
:104190000027384611B0BDE8F08F02460B46FEF707
:1041A00055FA0027C8E90201C8E90001F1E740A378
:1041B000D3E90023FEF74AFA3FA3D3E900230446DC
:1041C0000D46FEF743FA02460B46C8E90023204697
:1041D0002946FEF73BFA38A3D3E90023FEF736FA67
:1041E0000127C8E90201D4E700F01AFF34A3D3E99C
:1041F000002304460D46FEF7DDFB0022394BFEF797
:1042000027FAFEF7E9FD0746FEF76EFB24A3D3E984
:104210000023CDE90601FEF7CDFB02460B46204602
:104220002946FEF713FA20A3D3E90023CDE90201C2
:10423000DDE90601FEF7BEFB1F2FCDE90401DDE934
:10424000020153DC284B7A1E53F82230B3424DD082
:10425000DDE90423FEF7FAF904460D46C8E90045F6
:10426000DDE9020122462B46FEF7F0F9DDE90423E1
:10427000FEF7ECF9BBF1000FC8E9020189DA264626
:1042800001F1004305F100447F42C8F80060C8F81E
:104290000440C8F80800C8F80C307AE7AFF3008093
:1042A00000004054FB21F93F3163621A61B4D03DF4
:1042B0000000601A61B4D03D7370032E8A19A33BCD
:1042C00083C8C96D305FE43FFB21E93F7BD90240E1
:1042D000FB21F93FFB213941FFFFEF7F00007041D7
:1042E000445900000000E03FC4580000DDE9042309
:1042F000FEF7ACF93615C1F30A53F31A04460D461E
:10430000102BC8E90045ABDD5BA3D3E90023DDE951
:104310000601FEF74FFB04460D4622462B46DDE91B
:104320000201FEF793F9CDE90801DDE90823DDE993
:104330000201FEF78BF922462B46FEF787F950A3C0
:10434000D3E9002304460D46DDE90601FEF732FB02
:1043500022462B46FEF77AF9CDE90401DDE9042374
:10436000DDE90801FEF772F9C1F30A53F61A0446B3
:104370000D46312EC8E9004578DD43A3D3E900237B
:10438000DDE90601FEF716FB04460D4622462B46E4
:10439000DDE90801FEF75AF9CDE90201DDE9022362
:1043A000DDE90801FEF752F922462B46FEF74EF9E9
:1043B00037A3D3E9002304460D46DDE90601FEF7E5
:1043C000F9FA22462B46FEF741F9CDE90401DDE971
:1043D00002013DE7FEF73CF9314B04469E420D4693
:1043E00026D02DA3D3E90023FEF732F902460B466F
:1043F000C8E9002320462946FEF728F926A3D3E979
:104400000023FEF725F94FF0FF37C8E90201C0E6A7
:10441000D8F80420D8F80C3002F1004203F1004330
:104420004742C8F80420C8F80C30B2E603239AE6E5
:1044300011A3D3E90023FEF70BF911A3D3E900235D
:1044400004460D46FEF704F902460B46C8E9002370
:1044500020462946FEF7FAF809A3D3E90023FEF720
:10446000F7F84FF0FF37C8E9020192E6DDE90823CB
:10447000CDE90223F4E600BF0000601A61B4D03D2C
:104480007370032E8A19A33B0000002E8A19A33BE8
:10449000C14920259A837B393163621A61B4D03DCA
:1044A000FB21F93FAFF300802DE9F04F21F00049E7
:1044B000B9F1795F85B006460F4692469B466BDAA6
:1044C000FEF78AFC002800F0EA8032463B46304680
:1044D0003946FEF76FFA74A3D3E9002304460D466C
:1044E000FEF768FA72A3D3E90023FEF7B1F822467B
:1044F0002B46FEF75FFA70A3D3E90023FEF7A6F878
:1045000022462B46FEF756FA6DA3D3E90023FEF7A9
:104510009FF822462B46FEF74DFA6BA3D3E9002302
:10452000FEF794F822462B46FEF744FA68A3D3E937
:104530000023FEF78DF822462B46FEF73BFACDE925
:104540000001204629460022634BFEF733FADDE9DD
:1045500000238046894620462946FEF72BFA52461C
:1045600004460D465B4630463946FEF723FA0246BE
:104570000B4620462946FEF769F802460B464046A0
:104580004946FEF763F802460B4600205349FEF702
:104590005DF805B0BDE8F08F02460B46FEF70AFA5B
:1045A00041A3D3E9002304460D46FEF703FA40A3D6
:1045B000D3E90023FEF74CF822462B46FEF7FAF922
:1045C0003DA3D3E90023FEF741F822462B46FEF730
:1045D000F1F93BA3D3E90023FEF73AF822462B4634
:1045E000FEF7E8F938A3D3E90023FEF72FF82246B7
:1045F0002B46FEF7DFF936A3D3E90023FEF728F8B0
:104600002B462246FEF7D6F9354BCDE900019945F8
:1046100097DD344B0022994539DCA9F500130022BF
:1046200000202E4990469946FEF710F8CDE9020188
:10463000204629460022284BFEF7BCF942464B464D
:10464000FEF704F8DDE90023804689462046294626
:10465000FEF7B0F9524604460D465B4630463946F1
:10466000FEF7A8F902460B4620462946FDF7EEFF65
:1046700002460B4640464946FDF7E8FF02460B4618
:10468000DDE90201FDF7E2FF05B0BDE8F08F164B52
:104690004FF00008CDE90223DFF85090C8E70F493A
:1046A000002005B0BDE8F08FD43888BEE9FAA8BD77
:1046B000C4B1B4BD9EEE213EAD529C804F7E923E71
:1046C0009015CB19A001FA3E7751C1166CC1563F27
:1046D0004C5555555555A53F0000E03F0000F03FB3
:1046E0003233D33F0000E93F0000E73F0000D23FF4
:1046F0002DE9F04F7B4DD41E85FB0465E417C4EB18
:10470000A505ADF51D7D25EAE5750E959946764C16
:10471000EB43A69D09F1FF3654F8254004960C940E
:1047200007900E9C049D0C9803EB430302EBC3031C
:10473000A61B2C180B910A9317D4A7983444013464
:104740000DF1880800EB8605002709E0E859FEF71F
:10475000CBF80136A642E8E9020107F1040704D0CC
:10476000002EF3DA00200021F3E70C9C002C2DDB57
:104770000C9D74AE06EBC50B24A800EBC90A0DF521
:10478000E478CDF80CB0049C002CC0F29581079D14
:104790005746A5F1080B00240025002677E90223DF
:1047A000FBE90201FEF706F902460B4620462946C0
:1047B000FDF74EFF01364E4504460D46EED1E8E9C1
:1047C0000245039C0AF1080AA045DCD10C9D10ACFF
:1047D00004EB850602940F960395039E9CABF600AE
:1047E00033440696039E53E92845002E2EDD069E8F
:1047F0000DF5E87AB244039E0DF13C0B0BEB860BF2
:104800000DF13C080022394B20462946FEF7D2F82C
:10481000FEF7E2FAFEF768F80022354B06460F462F
:10482000FEF7C8F802460B4620462946FDF70EFF64
:10483000FEF7D2FA324648F8040F3B467AE9020105
:10484000FDF706FFD84504460D46DBD12046294634
:104850000A9A00F079FC00224FF07F5304460D467F
:10486000FEF7A8F800F0E0FB0022224BFEF7A2F8CA
:1048700002460B4620462946FDF7E8FE04460D4653
:10488000FEF7AAFA8246FEF72FF802460B462046AC
:104890002946FDF7DBFE0A9C0646002C0F4640F336
:1048A000F280039D10A8691E50F82130C4F1180051
:1048B00043FA00F202FA00F0C4F117051B1A43FA9A
:1048C00005F510AC44F821309244002D3EDD039CE8
:1048D0000AF1010A002C40F3F98010AB03EB8401CC
:1048E000002411E0ABAAAA2A4C5A00000000703E36
:1048F0000000704100002040C2F1807012B143F806
:10490000040C01248B420DD053F8042B002CF3D05F
:10491000C2F1FF1202F57F428B4243F8042C4FF0A4
:104920000104F1D10A9800280DDD012800F0B380C0
:10493000022808D1039910A84B1E50F82320C2F377
:10494000150240F82320022D00F0848030463946BD
:104950000022002300F0D8FC002800F0B980039C5E
:104960000C9E04F1FF3846450DDC10A800EB8403D3
:104970000F98002253F8041D834242EA0102F9D144
:10498000002A40F044820C9C10AD621E55F8223083
:10499000002B40F0548205EB8202012352F8041DE3
:1049A00001330029FAD0039E039C1E44631CB342CA
:1049B0000D9649DC049D0E9E2B44214622460D9DFA
:1049C0003244494424AE03F1FF3B2B1B06EBC104E8
:1049D0000994A79D069C06EBCB0B74AE05EB8202F7
:1049E000DB0026440392089306964FF00008039DCF
:1049F00008F1080855F8040F0395FDF775FF049EAC
:104A0000EBE90201002E22DB079C099FA4F1080AB2
:104A1000474400240025002677E90223FAE9020131
:104A2000FDF7C8FF02460B4620462946FDF710FE5B
:104A300001364E4504460D46EED1069EE6E9024596
:104A4000089C0696A045D2D10D9D0395C5E600248D
:104A50000025F2E732463B4600209249FDF7F6FD7D
:104A600006460F46002C3FF471AF0A9A00208D498C
:104A700000F06AFB02460B4630463946FDF7E6FD7C
:104A800006460F4662E710D1039D10A86B1E50F832
:104A90002350ED1519E7039910A84B1E50F8232059
:104AA000C2F3160240F823204DE700227E4B00F0AF
:104AB00049FC20B9054649E7002400257FE6039C10
:104AC0000225002C0AF1010A3FF707AF002429E76D
:104AD0000A9C3046624239460695CDF81CA000F08B
:104AE00033FB0022714B04460D4600F02BFC0028DE
:104AF00000F0BB8100226E4B20462946FDF75AFF8D
:104B0000FEF76AF90646FDF7EFFE0022674BFDF758
:104B100051FF02460B4620462946FDF797FDFEF75A
:104B20005BF9039C0A9D10A904F10108183541F8AE
:104B300024000A9541F828600A9A0020594900F09B
:104B400003FBB8F1000F04460D465ADB08F10106DD
:104B500010A874A9039600EB860701EBC60657F868
:104B6000040DFDF7C1FE22462B46FDF723FF002270
:104B700066E902014E4B20462946FDF71BFF029ACB
:104B8000044697420D46EAD108F1005B0BF1FF3B6A
:104B900074AB0DF5987ACDF82080DDF8308003EB0A
:104BA000CB0B4FF00009CDF810A0B8F1000FC0F208
:104BB0002881DFF800A15F4600240025002601E0DF
:104BC0004E4510DCF7E90223FAE90201FDF7F2FE97
:104BD00002460B4620462946FDF73AFD0136B04510
:104BE00004460D46ECDA049EABF1080B06EBC90354
:104BF000C3E90045039C09F10109A145D5D1DDF8C0
:104C00002080A69D032D00F29780DFE815F0DA00E2
:104C10009C009C000400B8F1000F40F312810DF5D8
:104C2000987A08F101030AEBC3034FEAC80B039318
:104C300099460AEB0B030DF59C7CD3E9006701E074
:104C400026462F4659E9044532463B46204629462A
:104C5000CDF804C0CDE90445FDF7FAFC04460D4645
:104C600022462B46DDE90401FDF7F0FC32463B46C7
:104C7000FDF7EEFC69E90201DDF804C049E90245EF
:104C8000E145DDD1B8F1010F40F30D81DDF80CC035
:104C90000AEB0B03CDF810A00AF1100BD3E9004585
:104CA000E2460BE00000F03F0000E03F00007041F2
:104CB0000000703E585A000034463D465AE90489C7
:104CC00022462B4640464946FDF7C2FC06460F46A3
:104CD00032463B4640464946FDF7B8FC22462B4645
:104CE000FDF7B6FC6AE90201DA454AE90267E3D159
:104CF000DDF810A0039C0020002174E90223FDF7D9
:104D0000A7FCA345F9D1069D002D00F0A280DAF89A
:104D10000450DAF80C400B9EDAF80020DAF808307C
:104D200005F1004504F1004401F100417560F460B3
:104D30003260B36030617161079C04F007000DF5CB
:104D40001D7DBDE8F08FB8F1000FC0F2A7800DF512
:104D5000987A08F10104002200230AEBC4041046EB
:104D6000194674E90223FDF773FC5445F9D1024654
:104D70000B46069E002E47D0104603F100410B9CC7
:104D8000C4E90001DAE90001FDF760FCB8F1000FA9
:104D900007DD0AEBC808FAE90223FDF759FCC24512
:104DA000F9D1069D002D6AD00B9E024601F1004309
:104DB000C6E90223079C04F007000DF51D7DBDE840
:104DC000F08FB8F1000F66DB08F101044CAD05EB84
:104DD000C4040020002174E90223FDF739FCAC4231
:104DE000F9D1069C002C50D00B9D024601F10043E6
:104DF000C5E90023079C04F007000DF51D7DBDE803
:104E0000F08F00240025EEE610461946B7E70A9E0B
:104E1000069510AD55F82830183ECDF81CA00A961E
:104E2000002B7FF489AE05EB8803324653F8041D4E
:104E300008F1FF38183A0029F8D00A927CE60123DD
:104E4000B1E5069D002000210DF5987A002D7FF434
:104E50005EAF0B9EDAE90023C6E90401DAE902013C
:104E6000C6E90023C6E9020166E720462946FDF7A8
:104E7000B3FFDDF80C8010AA42F828005CE60B9E18
:104E800002460B46C6E9022394E70B9D02460B46F9
:104E9000C5E90023AEE700200021A2E7002200239D
:104EA0000DF5987A65E7002000212CE7000000004E
:104EB0002DE9F04F21F00046B6F1795F85B0044648
:104EC0000D469046994604DAFDF786FF002800F06B
:104ED000848022462B4620462946FDF76BFD22465C
:104EE0002B4606460F46FDF765FD3FA3D3E9002399
:104EF00082468B4630463946FDF75CFD3CA3D3E93C
:104F00000023FDF7A3FB32463B46FDF753FD3AA3D2
:104F1000D3E90023FDF79CFB32463B46FDF74AFDF3
:104F200037A3D3E90023FDF791FB32463B46FDF75B
:104F300041FD35A3D3E90023FDF78AFB0E9BCDE9A4
:104F40000201002B33D0404649460022324BFDF788
:104F500031FDDDE90223CDE9000150465946FDF758
:104F600029FD02460B46DDE90001FDF76FFB3246E5
:104F70003B46FDF71FFD42464B46FDF767FB24A36A
:104F8000D3E9002306460F4650465946FDF712FD69
:104F900002460B4630463946FDF75AFB02460B46A1
:104FA00020462946FDF752FB05B0BDE8F08FDDE94C
:104FB000022330463946FDF7FDFC15A3D3E9002353
:104FC000FDF744FB52465B46FDF7F4FC22462B46B8
:104FD000FDF73EFB05B0BDE8F08F2046294605B041
:104FE000BDE8F08FAFF300807CD5CF5A3AD9E53DCC
:104FF000EB9C2B8AE6E55A3E7DFEB157E31DC73E8A
:10500000D561C119A0012A3FA6F810111111813FE5
:10501000495555555555C53F0000E03FAFF3008059
:1050200021F00041704700BF2DE9F84FC1F30A5746
:10503000A7F2FF36132E02460B4604460D4689465C
:105040008A4680461CDC002E40DB3D4F374107EA94
:10505000010C5CEA000C18D037A3D3E90023FDF75C
:10506000F7FA0022002300F077F928B1002D42DB87
:105070002AEA07094FF0000840464946BDE8F88F84
:10508000332E06DDB6F5806F31D010461946BDE8E7
:10509000F88FA7F2134C4FF0FF3B2BFA0CFB1BEAE7
:1050A000000FF2D024A3D3E90023FDF7D1FA0022A8
:1050B000002300F051F90028DED0002D22DB28EA81
:1050C0000B08D14640464946BDE8F88F1AA3D3E9FC
:1050D0000023FDF7BDFA0022002300F03DF900286F
:1050E000CAD0002D1CDB4FF00008C146C4E7FDF715
:1050F000AFFABDE8F88F4FF4801A4AFA06F606EBCD
:10510000050AB5E7142E14D0C7F5866701230337C7
:1051100003FA07F717EB040828BF05EB030ACEE7ED
:1051200025F00042074B224318BF99464FF0000874
:10513000A2E705F1010AC2E79C7500883CE4377ECE
:10514000FFFF0F000000F0BFC1F30A532DE9F0414B
:10515000904606460F460A461BBB21F00043034318
:1051600034D0354B0022FDF725FC344B06469845DC
:105170000F463BDBC1F30A53363B0A46434440F239
:10518000FE718B4216DD28A1D1E9000132463B4673
:1051900000F05AF824A3D3E90023FDF70BFCBDE887
:1051A000F08140F2FF74A34227D0434440F2FE71E5
:1051B0008B42E8DC002B0BDD22F0FF4222F4E00200
:1051C00042EA035730463946BDE8F081BDE8F08138
:1051D00013F1350F17DA4CF250339845D3DC14A194
:1051E000D1E9000132463B4600F02EF810A3D3E986
:1051F0000023FDF7DFFBBDE8F08102460B46FDF71B
:1052000027FABDE8F08122F0FF4222F4E0023633B3
:1052100042EA0357304639460022094BFDF7CAFBE4
:10522000BDE8F081AFF300809C7500883CE4377ED8
:1052300059F3F8C21F6EA50100005043B03CFFFFB8
:105240000000903CAFF3008030B403F0004321F045
:10525000004243EA020130BC704700BF4FF0FF3C00
:1052600006E000BF4FF0010C02E000BF4FF0010C60
:105270004DF804CD4FEA410C7FEA6C5C4FEA430CD9
:1052800018BF7FEA6C5C1BD001B050EA410C0CBF28
:1052900052EA430C91EA030F02BF90EA020F00208A
:1052A000704710F1000F91EA030F58BF994208BFF1
:1052B00090422CBFD8176FEAE37040F001007047AE
:1052C0004FEA410C7FEA6C5C02D150EA013C07D105
:1052D0004FEA430C7FEA6C5CD6D152EA033CD3D050
:1052E0005DF8040B704700BF8446104662468C464A
:1052F0001946634600E000BF01B5FFF7B7FF00287D
:1053000048BF10F1000F01BD4DF808EDFFF7F4FFA5
:105310000CBF012000205DF808FB00BF4DF808ED30
:10532000FFF7EAFF34BF012000205DF808FB00BF53
:105330004DF808EDFFF7E0FF94BF012000205DF875
:1053400008FB00BF4DF808EDFFF7CEFF94BF01202A
:1053500000205DF808FB00BF4DF808EDFFF7C4FF23
:1053600034BF012000205DF808FB00BFF8B500BF86
:10537000F8BC08BC9E467047F8B500BFF8BC08BC36
:105380009E46704700000000000000000000000082
:10539000F9020000E5080000910500003106000058
:1053A00015030000190300006102000065020000FF
:1053B000690200006D020000710200007502000029
:1053C000790200007D0200008102000085020000D9
:1053D000890200008D020000910200009502000089
:1053E000990200009D020000A1020000A502000039
:1053F000A9020000AD020000B1020000B5020000E9
:10540000B9020000BD020000C1020000C502000098
:10541000C9020000CD020000D1020000D502000048
:10542000D9020000DD020000E1020000E5020000F8
:10543000E9020000ED0200004D030000F10200004F
:105440001D03000025030000450300002D0300009C
:10545000350300003D030000F502000000000000DD
:105460000000000000000000350A0000390A0000BA
:105470003D0A0000410A0000450A0000490A0000F8
:105480006102000065020000690200006D02000078
:105490007102000075020000790200007D02000028
:1054A0008102000085020000890200008D020000D8
:1054B0009102000095020000990200009D02000088
:1054C000A1020000A5020000A9020000AD02000038
:1054D000B1020000B5020000B9020000BD020000E8
:1054E000C1020000C5020000C9020000CD02000098
:1054F000D1020000D5020000D90200000000000027
:105500000000000000000000F9020000E5080000B3
:10551000910500003106000015030000190300008A
:105520006102000065020000690200006D020000D7
:105530007102000075020000790200007D02000087
:105540008102000085020000890200008D02000037
:105550009102000095020000990200009D020000E7
:10556000A1020000A5020000A9020000AD02000097
:10557000B1020000B5020000B9020000BD02000047
:10558000C1020000C5020000C9020000CD020000F7
:10559000D1020000D5020000D9020000DD020000A7
:1055A00061130000E50200005D140000ED02000040
:1055B0004D0300008D1400001D03000025030000B2
:1055C000591300002D0300003503000051130000A3
:1055D0003D13000015140000391300000000000006
:1055E0000000000000000000F9020000E5080000D3
:1055F00091050000310600001503000019030000AA
:105600006102000065020000690200006D020000F6
:105610007102000075020000790200007D020000A6
:105620008102000085020000890200008D02000056
:105630009102000095020000990200009D02000006
:10564000A1020000A5020000A9020000AD020000B6
:10565000B1020000B5020000B9020000BD02000066
:10566000C1020000C5020000C9020000CD02000016
:10567000D1020000D5020000D9020000DD020000C6
:1056800061130000E50200005D140000ED0200005F
:105690004D030000511500001D030000250300000C
:1056A000591300002D0300003503000051130000C2
:1056B0003D13000025150000391300000000000014
:1056C00016C00920000001400100000047C0092069
:1056D0000000014002000000FFFFFFFFFFFFFFFF8F
:1056E0000000000001C0092000C0094002000000C5
:1056F00003C0092000C00040010000000BC00920C9
:10570000008009400100000010C009200000014095
:10571000010000001AC0092000C009400300000079
:1057200041C00920000001400200000049C00920DA
:1057300000800940020000009DC0092000C009400F
:1057400003000000FFFFFFFFFFFFFFFF000000005E
:1057500000C0092000C009400200000002C009206A
:1057600000C00040010000000AC00920008009407C
:10577000010000000FC009200000014001000000EE
:1057800019C0092000C009400300000040C00920E2
:10579000000001400200000048C0092000800940CC
:1057A000020000009CC0092000C009400300000066
:1057B000FFFFFFFFFFFFFFFF0000000011C00920F7
:1057C000000001400100000042C00920000001402B
:1057D00002000000FFFFFFFFFFFFFFFF00000000CF
:1057E000636F756C64206E6F742070696E6F757472
:1057F0000000000070696E6D6170206D69732D6D21
:10580000617463680000000070696E6D6170206EE5
:105810006F7420666F756E6420666F72207065729B
:105820006970686572616C00000000000000000093
:105830000000000000000000000000000000000068
:105840000000000000000000000000000000000058
:105850000000000000000000000000000000000048
:105860000000000000000000000000000000000038
:105870000000000000000000000000000000000028
:105880000000000000000000430000004C02001077
:10589000232D302B2000686C4C0065666745464719
:1058A000003031323334353637383941424344459C
:1058B000460030313233343536373839616263640B
:1058C00065660000FB21F93FFB2109407CD91240AD
:1058D000FB2119407A6A1F407CD92240BBFD25403C
:1058E000FB2129403A462C407A6A2F405C473140E0
:1058F0007CD932409C6B3440BBFD3540DB8F374058
:10590000FB2139401BB43A403A463C405AD83D400E
:105910007A6A3F404C7E40405C4741406C104240B8
:105920007CD942408CA243409C6B4440AC344540FF
:10593000BBFD4540CBC64640DB8F4740EB58484057
:10594000FB21494083F9A200444E6E00FC2915005A
:10595000D1572700DD34F50062DBC0003C9995008B
:10596000419043006351FE00BBDEAB00B761C50050
:105970003A6E2400D24D42004906E00009EA2E00AA
:105980001C92D100EB1DFE0029B11C00E83EA700CF
:10599000F535820044BB2E009CE98400B4267000DB
:1059A000417E5F00D6913900538339009CF4390061
:1059B0008B5F840028F9BD00F81F3B00DEFF9700D5
:1059C0000F980500112FEF000A5A8B006D1F6D0014
:1059D000CF7E360009CB2700464FB7009E663F00BA
:1059E0002DEA5F00BA277500E5EBC7003D7BF100AB
:1059F000F739070092528A00FB6BEA001FB15F0083
:105A0000085D8D00300356007BFC4600F0AB6B0058
:105A100020BCCF0036F49A00E3A91D005E6191001E
:105A2000081BE60085996500A0145F008D406800A2
:105A300080D8FF0027734D0006063100CA561500B6
:105A4000C9A873007BE260006B8CC00002000000FC
:105A50000300000004000000060000000000000039
:105A600000000040FB21F93F000000002D44743E7F
:105A7000000000809846F83C0000006051CC783B64
:105A800000000080831BF0390000004020257A3898
:105A9000000000802282E336000000001DF369351B
:045AA0000000000002
:105AA40000000000080355005300420012036D007B
:105AB4006200650064002E006F0072006700000041
:105AC400120100020000004000000000000001027A
:105AD4000301000006033000310000000403090440
